{"contracts/TokenUtils.sol":{"TokenUtils":{"abi":[{"inputs":[{"internalType":"address","name":"collection","type":"address"}],"name":"collectionId","outputs":[{"internalType":"bytes6","name":"","type":"bytes6"}],"stateMutability":"pure","type":"function"},{"inputs":[{"components":[{"internalType":"bytes6","name":"collectionId","type":"bytes6"},{"internalType":"bytes12","name":"variantId","type":"bytes12"},{"internalType":"bytes12","name":"assetId","type":"bytes12"}],"internalType":"struct TokenId","name":"tokenId","type":"tuple"}],"name":"getDataKey","outputs":[{"internalType":"bytes32","name":"","type":"bytes32"}],"stateMutability":"pure","type":"function"},{"inputs":[{"internalType":"address","name":"collection","type":"address"},{"internalType":"bytes12","name":"variantId","type":"bytes12"}],"name":"getDataKey","outputs":[{"internalType":"bytes32","name":"","type":"bytes32"}],"stateMutability":"pure","type":"function"},{"inputs":[{"components":[{"internalType":"bytes6","name":"collectionId","type":"bytes6"},{"internalType":"bytes12","name":"variantId","type":"bytes12"},{"internalType":"bytes12","name":"assetId","type":"bytes12"}],"internalType":"struct TokenId","name":"_tokenId","type":"tuple"}],"name":"getTokenId","outputs":[{"internalType":"bytes32","name":"","type":"bytes32"}],"stateMutability":"pure","type":"function"},{"inputs":[{"internalType":"address","name":"collection","type":"address"},{"internalType":"bytes12","name":"variantId","type":"bytes12"},{"internalType":"bytes12","name":"assetId","type":"bytes12"}],"name":"getTokenId","outputs":[{"internalType":"bytes32","name":"","type":"bytes32"}],"stateMutability":"pure","type":"function"},{"inputs":[{"internalType":"bytes32","name":"dataKey","type":"bytes32"}],"name":"parseDataKey","outputs":[{"components":[{"internalType":"bytes6","name":"collectionId","type":"bytes6"},{"internalType":"bytes12","name":"variantId","type":"bytes12"},{"internalType":"bytes12","name":"assetId","type":"bytes12"}],"internalType":"struct TokenId","name":"tokenIdInstance","type":"tuple"}],"stateMutability":"pure","type":"function"},{"inputs":[{"internalType":"bytes32","name":"tokenId","type":"bytes32"}],"name":"parseTokenId","outputs":[{"components":[{"internalType":"bytes6","name":"collectionId","type":"bytes6"},{"internalType":"bytes12","name":"variantId","type":"bytes12"},{"internalType":"bytes12","name":"assetId","type":"bytes12"}],"internalType":"struct TokenId","name":"tokenIdInstance","type":"tuple"}],"stateMutability":"pure","type":"function"}],"evm":{"bytecode":{"linkReferences":{},"object":"61056b61003a600b82828239805160001a60731461002d57634e487b7160e01b600052600060045260246000fd5b30600052607381538281f3fe73000000000000000000000000000000000000000030146080604052600436106100775760003560e01c80631093da9a1461007c57806320e5304f146100a257806343baf829146100b557806365c67f461461013d5780638954b7e014610150578063b5cb749814610198578063c27407d0146101c4575b600080fd5b61008f61008a366004610337565b6101d7565b6040519081526020015b60405180910390f35b61008f6100b0366004610337565b610220565b6100ff6100c33660046103c0565b60408051606080820183526000928201929092529082901b6001600160d01b031916815260a09190911b6001600160a01b031916602082015290565b6040805182516001600160d01b03191681526020808401516001600160a01b0319908116918301919091529282015190921690820152606001610099565b61008f61014b3660046103f0565b610249565b6100ff61015e3660046103c0565b604080516060810182526001600160d01b0319831681526001600160a01b031983831b8116602083015260a09390931b9092169082015290565b6101ab6101a6366004610433565b61028b565b6040516001600160d01b03199091168152602001610099565b61008f6101d236600461044e565b6102ca565b805160208083015160405160009361020293691339e76a390b7b9ec90160b01b938693849201610481565b60405160208183030381529060405261021a906104d0565b92915050565b60008160000151600060f01b8360200151846040015160405160200161020294939291906104f7565b60006102548461028b565b60405161026b9190600090869086906020016104f7565b604051602081830303815290604052610283906104d0565b949350505050565b6040516bffffffffffffffffffffffff19606083901b166020820152600090603401604051602081830303815290604052805190602001209050919050565b6000691339e76a390b7b9ec90160b01b816102e48561028b565b6040516102fb939291906000908790602001610481565b604051602081830303815290604052610313906104d0565b9392505050565b80356001600160a01b03198116811461033257600080fd5b919050565b60006060828403121561034957600080fd5b6040516060810181811067ffffffffffffffff8211171561037a57634e487b7160e01b600052604160045260246000fd5b60405282356001600160d01b03198116811461039557600080fd5b81526103a36020840161031a565b60208201526103b46040840161031a565b60408201529392505050565b6000602082840312156103d257600080fd5b5035919050565b80356001600160a01b038116811461033257600080fd5b60008060006060848603121561040557600080fd5b61040e846103d9565b925061041c6020850161031a565b915061042a6040850161031a565b90509250925092565b60006020828403121561044557600080fd5b610313826103d9565b6000806040838503121561046157600080fd5b61046a836103d9565b91506104786020840161031a565b90509250929050565b6001600160b01b03199590951685526001600160f01b0319938416600a8601526001600160d01b031992909216600c85015290911660128301526001600160a01b031916601482015260200190565b805160208083015191908110156104f1576000198160200360031b1b821691505b50919050565b6001600160d01b03199490941684526001600160f01b03199290921660068401526001600160a01b031990811660088401521660148201526020019056fea264697066735822122081d0a9fee434ad4da2aabc25136a5e8bf72b2443b8be86030ffb91ff01a20e0664736f6c63430008140033","opcodes":"PUSH2 0x56B PUSH2 0x3A PUSH1 0xB DUP3 DUP3 DUP3 CODECOPY DUP1 MLOAD PUSH1 0x0 BYTE PUSH1 0x73 EQ PUSH2 0x2D JUMPI PUSH4 0x4E487B71 PUSH1 0xE0 SHL PUSH1 0x0 MSTORE PUSH1 0x0 PUSH1 0x4 MSTORE PUSH1 0x24 PUSH1 0x0 REVERT JUMPDEST ADDRESS PUSH1 0x0 MSTORE PUSH1 0x73 DUP2 MSTORE8 DUP3 DUP2 RETURN INVALID PUSH20 0x0 ADDRESS EQ PUSH1 0x80 PUSH1 0x40 MSTORE PUSH1 0x4 CALLDATASIZE LT PUSH2 0x77 JUMPI PUSH1 0x0 CALLDATALOAD PUSH1 0xE0 SHR DUP1 PUSH4 0x1093DA9A EQ PUSH2 0x7C JUMPI DUP1 PUSH4 0x20E5304F EQ PUSH2 0xA2 JUMPI DUP1 PUSH4 0x43BAF829 EQ PUSH2 0xB5 JUMPI DUP1 PUSH4 0x65C67F46 EQ PUSH2 0x13D JUMPI DUP1 PUSH4 0x8954B7E0 EQ PUSH2 0x150 JUMPI DUP1 PUSH4 0xB5CB7498 EQ PUSH2 0x198 JUMPI DUP1 PUSH4 0xC27407D0 EQ PUSH2 0x1C4 JUMPI JUMPDEST PUSH1 0x0 DUP1 REVERT JUMPDEST PUSH2 0x8F PUSH2 0x8A CALLDATASIZE PUSH1 0x4 PUSH2 0x337 JUMP JUMPDEST PUSH2 0x1D7 JUMP JUMPDEST PUSH1 0x40 MLOAD SWAP1 DUP2 MSTORE PUSH1 0x20 ADD JUMPDEST PUSH1 0x40 MLOAD DUP1 SWAP2 SUB SWAP1 RETURN JUMPDEST PUSH2 0x8F PUSH2 0xB0 CALLDATASIZE PUSH1 0x4 PUSH2 0x337 JUMP JUMPDEST PUSH2 0x220 JUMP JUMPDEST PUSH2 0xFF PUSH2 0xC3 CALLDATASIZE PUSH1 0x4 PUSH2 0x3C0 JUMP JUMPDEST PUSH1 0x40 DUP1 MLOAD PUSH1 0x60 DUP1 DUP3 ADD DUP4 MSTORE PUSH1 0x0 SWAP3 DUP3 ADD SWAP3 SWAP1 SWAP3 MSTORE SWAP1 DUP3 SWAP1 SHL PUSH1 0x1 PUSH1 0x1 PUSH1 0xD0 SHL SUB NOT AND DUP2 MSTORE PUSH1 0xA0 SWAP2 SWAP1 SWAP2 SHL PUSH1 0x1 PUSH1 0x1 PUSH1 0xA0 SHL SUB NOT AND PUSH1 0x20 DUP3 ADD MSTORE SWAP1 JUMP JUMPDEST PUSH1 0x40 DUP1 MLOAD DUP3 MLOAD PUSH1 0x1 PUSH1 0x1 PUSH1 0xD0 SHL SUB NOT AND DUP2 MSTORE PUSH1 0x20 DUP1 DUP5 ADD MLOAD PUSH1 0x1 PUSH1 0x1 PUSH1 0xA0 SHL SUB NOT SWAP1 DUP2 AND SWAP2 DUP4 ADD SWAP2 SWAP1 SWAP2 MSTORE SWAP3 DUP3 ADD MLOAD SWAP1 SWAP3 AND SWAP1 DUP3 ADD MSTORE PUSH1 0x60 ADD PUSH2 0x99 JUMP JUMPDEST PUSH2 0x8F PUSH2 0x14B CALLDATASIZE PUSH1 0x4 PUSH2 0x3F0 JUMP JUMPDEST PUSH2 0x249 JUMP JUMPDEST PUSH2 0xFF PUSH2 0x15E CALLDATASIZE PUSH1 0x4 PUSH2 0x3C0 JUMP JUMPDEST PUSH1 0x40 DUP1 MLOAD PUSH1 0x60 DUP2 ADD DUP3 MSTORE PUSH1 0x1 PUSH1 0x1 PUSH1 0xD0 SHL SUB NOT DUP4 AND DUP2 MSTORE PUSH1 0x1 PUSH1 0x1 PUSH1 0xA0 SHL SUB NOT DUP4 DUP4 SHL DUP2 AND PUSH1 0x20 DUP4 ADD MSTORE PUSH1 0xA0 SWAP4 SWAP1 SWAP4 SHL SWAP1 SWAP3 AND SWAP1 DUP3 ADD MSTORE SWAP1 JUMP JUMPDEST PUSH2 0x1AB PUSH2 0x1A6 CALLDATASIZE PUSH1 0x4 PUSH2 0x433 JUMP JUMPDEST PUSH2 0x28B JUMP JUMPDEST PUSH1 0x40 MLOAD PUSH1 0x1 PUSH1 0x1 PUSH1 0xD0 SHL SUB NOT SWAP1 SWAP2 AND DUP2 MSTORE PUSH1 0x20 ADD PUSH2 0x99 JUMP JUMPDEST PUSH2 0x8F PUSH2 0x1D2 CALLDATASIZE PUSH1 0x4 PUSH2 0x44E JUMP JUMPDEST PUSH2 0x2CA JUMP JUMPDEST DUP1 MLOAD PUSH1 0x20 DUP1 DUP4 ADD MLOAD PUSH1 0x40 MLOAD PUSH1 0x0 SWAP4 PUSH2 0x202 SWAP4 PUSH10 0x1339E76A390B7B9EC901 PUSH1 0xB0 SHL SWAP4 DUP7 SWAP4 DUP5 SWAP3 ADD PUSH2 0x481 JUMP JUMPDEST PUSH1 0x40 MLOAD PUSH1 0x20 DUP2 DUP4 SUB SUB DUP2 MSTORE SWAP1 PUSH1 0x40 MSTORE PUSH2 0x21A SWAP1 PUSH2 0x4D0 JUMP JUMPDEST SWAP3 SWAP2 POP POP JUMP JUMPDEST PUSH1 0x0 DUP2 PUSH1 0x0 ADD MLOAD PUSH1 0x0 PUSH1 0xF0 SHL DUP4 PUSH1 0x20 ADD MLOAD DUP5 PUSH1 0x40 ADD MLOAD PUSH1 0x40 MLOAD PUSH1 0x20 ADD PUSH2 0x202 SWAP5 SWAP4 SWAP3 SWAP2 SWAP1 PUSH2 0x4F7 JUMP JUMPDEST PUSH1 0x0 PUSH2 0x254 DUP5 PUSH2 0x28B JUMP JUMPDEST PUSH1 0x40 MLOAD PUSH2 0x26B SWAP2 SWAP1 PUSH1 0x0 SWAP1 DUP7 SWAP1 DUP7 SWAP1 PUSH1 0x20 ADD PUSH2 0x4F7 JUMP JUMPDEST PUSH1 0x40 MLOAD PUSH1 0x20 DUP2 DUP4 SUB SUB DUP2 MSTORE SWAP1 PUSH1 0x40 MSTORE PUSH2 0x283 SWAP1 PUSH2 0x4D0 JUMP JUMPDEST SWAP5 SWAP4 POP POP POP POP JUMP JUMPDEST PUSH1 0x40 MLOAD PUSH12 0xFFFFFFFFFFFFFFFFFFFFFFFF NOT PUSH1 0x60 DUP4 SWAP1 SHL AND PUSH1 0x20 DUP3 ADD MSTORE PUSH1 0x0 SWAP1 PUSH1 0x34 ADD PUSH1 0x40 MLOAD PUSH1 0x20 DUP2 DUP4 SUB SUB DUP2 MSTORE SWAP1 PUSH1 0x40 MSTORE DUP1 MLOAD SWAP1 PUSH1 0x20 ADD KECCAK256 SWAP1 POP SWAP2 SWAP1 POP JUMP JUMPDEST PUSH1 0x0 PUSH10 0x1339E76A390B7B9EC901 PUSH1 0xB0 SHL DUP2 PUSH2 0x2E4 DUP6 PUSH2 0x28B JUMP JUMPDEST PUSH1 0x40 MLOAD PUSH2 0x2FB SWAP4 SWAP3 SWAP2 SWAP1 PUSH1 0x0 SWAP1 DUP8 SWAP1 PUSH1 0x20 ADD PUSH2 0x481 JUMP JUMPDEST PUSH1 0x40 MLOAD PUSH1 0x20 DUP2 DUP4 SUB SUB DUP2 MSTORE SWAP1 PUSH1 0x40 MSTORE PUSH2 0x313 SWAP1 PUSH2 0x4D0 JUMP JUMPDEST SWAP4 SWAP3 POP POP POP JUMP JUMPDEST DUP1 CALLDATALOAD PUSH1 0x1 PUSH1 0x1 PUSH1 0xA0 SHL SUB NOT DUP2 AND DUP2 EQ PUSH2 0x332 JUMPI PUSH1 0x0 DUP1 REVERT JUMPDEST SWAP2 SWAP1 POP JUMP JUMPDEST PUSH1 0x0 PUSH1 0x60 DUP3 DUP5 SUB SLT ISZERO PUSH2 0x349 JUMPI PUSH1 0x0 DUP1 REVERT JUMPDEST PUSH1 0x40 MLOAD PUSH1 0x60 DUP2 ADD DUP2 DUP2 LT PUSH8 0xFFFFFFFFFFFFFFFF DUP3 GT OR ISZERO PUSH2 0x37A JUMPI PUSH4 0x4E487B71 PUSH1 0xE0 SHL PUSH1 0x0 MSTORE PUSH1 0x41 PUSH1 0x4 MSTORE PUSH1 0x24 PUSH1 0x0 REVERT JUMPDEST PUSH1 0x40 MSTORE DUP3 CALLDATALOAD PUSH1 0x1 PUSH1 0x1 PUSH1 0xD0 SHL SUB NOT DUP2 AND DUP2 EQ PUSH2 0x395 JUMPI PUSH1 0x0 DUP1 REVERT JUMPDEST DUP2 MSTORE PUSH2 0x3A3 PUSH1 0x20 DUP5 ADD PUSH2 0x31A JUMP JUMPDEST PUSH1 0x20 DUP3 ADD MSTORE PUSH2 0x3B4 PUSH1 0x40 DUP5 ADD PUSH2 0x31A JUMP JUMPDEST PUSH1 0x40 DUP3 ADD MSTORE SWAP4 SWAP3 POP POP POP JUMP JUMPDEST PUSH1 0x0 PUSH1 0x20 DUP3 DUP5 SUB SLT ISZERO PUSH2 0x3D2 JUMPI PUSH1 0x0 DUP1 REVERT JUMPDEST POP CALLDATALOAD SWAP2 SWAP1 POP JUMP JUMPDEST DUP1 CALLDATALOAD PUSH1 0x1 PUSH1 0x1 PUSH1 0xA0 SHL SUB DUP2 AND DUP2 EQ PUSH2 0x332 JUMPI PUSH1 0x0 DUP1 REVERT JUMPDEST PUSH1 0x0 DUP1 PUSH1 0x0 PUSH1 0x60 DUP5 DUP7 SUB SLT ISZERO PUSH2 0x405 JUMPI PUSH1 0x0 DUP1 REVERT JUMPDEST PUSH2 0x40E DUP5 PUSH2 0x3D9 JUMP JUMPDEST SWAP3 POP PUSH2 0x41C PUSH1 0x20 DUP6 ADD PUSH2 0x31A JUMP JUMPDEST SWAP2 POP PUSH2 0x42A PUSH1 0x40 DUP6 ADD PUSH2 0x31A JUMP JUMPDEST SWAP1 POP SWAP3 POP SWAP3 POP SWAP3 JUMP JUMPDEST PUSH1 0x0 PUSH1 0x20 DUP3 DUP5 SUB SLT ISZERO PUSH2 0x445 JUMPI PUSH1 0x0 DUP1 REVERT JUMPDEST PUSH2 0x313 DUP3 PUSH2 0x3D9 JUMP JUMPDEST PUSH1 0x0 DUP1 PUSH1 0x40 DUP4 DUP6 SUB SLT ISZERO PUSH2 0x461 JUMPI PUSH1 0x0 DUP1 REVERT JUMPDEST PUSH2 0x46A DUP4 PUSH2 0x3D9 JUMP JUMPDEST SWAP2 POP PUSH2 0x478 PUSH1 0x20 DUP5 ADD PUSH2 0x31A JUMP JUMPDEST SWAP1 POP SWAP3 POP SWAP3 SWAP1 POP JUMP JUMPDEST PUSH1 0x1 PUSH1 0x1 PUSH1 0xB0 SHL SUB NOT SWAP6 SWAP1 SWAP6 AND DUP6 MSTORE PUSH1 0x1 PUSH1 0x1 PUSH1 0xF0 SHL SUB NOT SWAP4 DUP5 AND PUSH1 0xA DUP7 ADD MSTORE PUSH1 0x1 PUSH1 0x1 PUSH1 0xD0 SHL SUB NOT SWAP3 SWAP1 SWAP3 AND PUSH1 0xC DUP6 ADD MSTORE SWAP1 SWAP2 AND PUSH1 0x12 DUP4 ADD MSTORE PUSH1 0x1 PUSH1 0x1 PUSH1 0xA0 SHL SUB NOT AND PUSH1 0x14 DUP3 ADD MSTORE PUSH1 0x20 ADD SWAP1 JUMP JUMPDEST DUP1 MLOAD PUSH1 0x20 DUP1 DUP4 ADD MLOAD SWAP2 SWAP1 DUP2 LT ISZERO PUSH2 0x4F1 JUMPI PUSH1 0x0 NOT DUP2 PUSH1 0x20 SUB PUSH1 0x3 SHL SHL DUP3 AND SWAP2 POP JUMPDEST POP SWAP2 SWAP1 POP JUMP JUMPDEST PUSH1 0x1 PUSH1 0x1 PUSH1 0xD0 SHL SUB NOT SWAP5 SWAP1 SWAP5 AND DUP5 MSTORE PUSH1 0x1 PUSH1 0x1 PUSH1 0xF0 SHL SUB NOT SWAP3 SWAP1 SWAP3 AND PUSH1 0x6 DUP5 ADD MSTORE PUSH1 0x1 PUSH1 0x1 PUSH1 0xA0 SHL SUB NOT SWAP1 DUP2 AND PUSH1 0x8 DUP5 ADD MSTORE AND PUSH1 0x14 DUP3 ADD MSTORE PUSH1 0x20 ADD SWAP1 JUMP INVALID LOG2 PUSH5 0x6970667358 0x22 SLT KECCAK256 DUP2 0xD0 0xA9 INVALID 0xE4 CALLVALUE 0xAD 0x4D LOG2 0xAA 0xBC 0x25 SGT PUSH11 0x5E8BF72B2443B8BE86030F 0xFB SWAP2 SELFDESTRUCT ADD LOG2 0xE MOD PUSH5 0x736F6C6343 STOP ADDMOD EQ STOP CALLER "},"methodIdentifiers":{"collectionId(address)":"b5cb7498","getDataKey(TokenId)":"1093da9a","getDataKey(address,bytes12)":"c27407d0","getTokenId(TokenId)":"20e5304f","getTokenId(address,bytes12,bytes12)":"65c67f46","parseDataKey(bytes32)":"43baf829","parseTokenId(bytes32)":"8954b7e0"}}}}}