{"contracts/OrderExtension.sol":{"OrderExtension":{"abi":[{"inputs":[{"internalType":"address","name":"target_","type":"address"}],"stateMutability":"nonpayable","type":"constructor"},{"inputs":[],"name":"BlockAlreadyConfirmed","type":"error"},{"inputs":[],"name":"CallerNotPerkOwner","type":"error"},{"inputs":[],"name":"CallerNotTarget","type":"error"},{"inputs":[],"name":"IncorrectValue","type":"error"},{"inputs":[],"name":"InvalidNonce","type":"error"},{"inputs":[],"name":"InvalidSignature","type":"error"},{"inputs":[],"name":"PerkAlreadyClaimed","type":"error"},{"anonymous":false,"inputs":[{"indexed":false,"internalType":"bytes","name":"orderId","type":"bytes"}],"name":"OrderCreated","type":"event"},{"anonymous":false,"inputs":[{"indexed":true,"internalType":"address","name":"previousOwner","type":"address"},{"indexed":true,"internalType":"address","name":"newOwner","type":"address"}],"name":"OwnershipTransferred","type":"event"},{"anonymous":false,"inputs":[{"indexed":false,"internalType":"address","name":"newTarget","type":"address"}],"name":"TargetChanged","type":"event"},{"inputs":[],"name":"VERSION","outputs":[{"internalType":"string","name":"","type":"string"}],"stateMutability":"view","type":"function"},{"inputs":[{"internalType":"address","name":"collection","type":"address"},{"internalType":"uint256","name":"value","type":"uint256"},{"internalType":"uint256","name":"maxBlockNumber","type":"uint256"},{"internalType":"bytes32","name":"nonce","type":"bytes32"},{"internalType":"bytes","name":"data","type":"bytes"},{"internalType":"bytes","name":"orderId","type":"bytes"}],"name":"getOrderHash","outputs":[{"internalType":"bytes","name":"message","type":"bytes"}],"stateMutability":"pure","type":"function"},{"inputs":[{"internalType":"address","name":"collection","type":"address"},{"internalType":"uint256","name":"value","type":"uint256"},{"internalType":"uint256","name":"maxBlockNumber","type":"uint256"},{"internalType":"address","name":"perkAddress","type":"address"},{"internalType":"bytes32","name":"perkTokenId","type":"bytes32"},{"internalType":"bytes32","name":"nonce","type":"bytes32"},{"internalType":"bytes","name":"data","type":"bytes"},{"internalType":"bytes","name":"orderId","type":"bytes"}],"name":"getRedeemPerkHash","outputs":[{"internalType":"bytes","name":"message","type":"bytes"}],"stateMutability":"pure","type":"function"},{"inputs":[{"internalType":"address","name":"perkAddress","type":"address"},{"internalType":"address","name":"collection","type":"address"},{"internalType":"bytes32","name":"perkTokenId","type":"bytes32"}],"name":"isPerkClaimed","outputs":[{"internalType":"bool","name":"","type":"bool"}],"stateMutability":"view","type":"function"},{"inputs":[],"name":"owner","outputs":[{"internalType":"address","name":"","type":"address"}],"stateMutability":"view","type":"function"},{"inputs":[{"internalType":"address","name":"collection","type":"address"},{"internalType":"uint256","name":"value","type":"uint256"},{"internalType":"uint256","name":"maxBlockNumber","type":"uint256"},{"internalType":"bytes32","name":"nonce","type":"bytes32"},{"internalType":"bytes","name":"data","type":"bytes"},{"internalType":"bytes","name":"signature","type":"bytes"},{"internalType":"bytes","name":"orderId","type":"bytes"}],"name":"placeOrder","outputs":[],"stateMutability":"nonpayable","type":"function"},{"inputs":[{"internalType":"address","name":"collection","type":"address"},{"internalType":"address","name":"perkAddress","type":"address"},{"internalType":"bytes32","name":"perkTokenId","type":"bytes32"},{"internalType":"uint256","name":"value","type":"uint256"},{"internalType":"uint256","name":"maxBlockNumber","type":"uint256"},{"internalType":"bytes32","name":"nonce","type":"bytes32"},{"internalType":"bytes","name":"data","type":"bytes"},{"internalType":"bytes","name":"signature","type":"bytes"},{"internalType":"bytes","name":"orderId","type":"bytes"}],"name":"redeemPerk","outputs":[],"stateMutability":"nonpayable","type":"function"},{"inputs":[],"name":"renounceOwnership","outputs":[],"stateMutability":"nonpayable","type":"function"},{"inputs":[{"internalType":"bytes4","name":"interfaceId","type":"bytes4"}],"name":"supportsInterface","outputs":[{"internalType":"bool","name":"","type":"bool"}],"stateMutability":"view","type":"function"},{"inputs":[{"internalType":"address","name":"newOwner","type":"address"}],"name":"transferOwnership","outputs":[],"stateMutability":"nonpayable","type":"function"},{"inputs":[{"internalType":"address","name":"_newTarget","type":"address"}],"name":"updateTarget","outputs":[],"stateMutability":"nonpayable","type":"function"}],"evm":{"bytecode":{"linkReferences":{},"object":"608060405234801561001057600080fd5b506040516118a33803806118a383398101604081905261002f916100ad565b6100383361005d565b600180546001600160a01b0319166001600160a01b03929092169190911790556100dd565b600080546001600160a01b038381166001600160a01b0319831681178455604051919092169283917f8be0079c531659141344cd1fd0a4f28419497f9722a3daafe3b4186f6b6457e09190a35050565b6000602082840312156100bf57600080fd5b81516001600160a01b03811681146100d657600080fd5b9392505050565b6117b7806100ec6000396000f3fe608060405234801561001057600080fd5b50600436106100a95760003560e01c8063bfb6e08b11610071578063bfb6e08b14610121578063d5212e3c14610141578063db1e3ef314610154578063ea1b495f14610167578063f2fde38b1461017a578063ffa1ad741461018d57600080fd5b806301ffc9a7146100ae578063285ac885146100d6578063715018a6146100e95780638da5cb5b146100f3578063bbb9ddd31461010e575b600080fd5b6100c16100bc366004610fac565b6101b2565b60405190151581526020015b60405180910390f35b6100c16100e4366004610ff6565b6101e9565b6100f1610262565b005b6000546040516001600160a01b0390911681526020016100cd565b6100f161011c3660046110fa565b610276565b61013461012f3660046111ca565b610761565b6040516100cd91906112ab565b61013461014f3660046112be565b6107d3565b6100f161016236600461136d565b610850565b6100f1610175366004611424565b610a85565b6100f1610188366004611424565b610ae1565b610134604051806040016040528060068152602001650302e31352e360d41b81525081565b60006001600160e01b0319821663033b9e2d60e61b14806101e357506301ffc9a760e01b6001600160e01b03198316145b92915050565b60008060405180604001604052808560601b6001600160601b03191681526020018481525060405160200161021e9190611441565b60408051601f1981840301815291815281516020928301206001600160a01b0388166000908152600390935291209091506102599082610b5f565b95945050505050565b61026a610b7a565b6102746000610bd4565b565b60008960601b8760405160200161028f91815260200190565b60408051601f19818403018152828252602083018a905291016040516020818303038152906040528b60601b8b868a8a6040516020016102d6989796959493929190611475565b604051602081830303815290604052905060006102f98280519060200120610c24565b6001549091506001600160a01b0316331461032757604051633ed2200160e11b815260040160405180910390fd5b8643111561034857604051631d389b0b60e11b815260040160405180910390fd5b630b135d3f60e11b61035a8286610c57565b6001600160e01b0319161461038257604051638baa579f60e01b815260040160405180910390fd5b8761038b610df1565b146103a957604051636956f2ab60e11b815260040160405180910390fd5b60008681526002602052604090205460ff16156103d957604051633ab3447f60e11b815260040160405180910390fd5b604051630217b22760e41b8152600481018a90526000906001600160a01b038c169063217b227090602401602060405180830381865afa158015610421573d6000803e3d6000fd5b505050506040513d601f19601f820116820180604052508101906104459190611505565b905061044f610e19565b6001600160a01b0316816001600160a01b0316146104805760405163f458de7160e01b815260040160405180910390fd5b600060405180604001604052808e60601b6001600160601b03191681526020018c8152506040516020016104b49190611441565b60408051601f1981840301815291815281516020928301206001600160a01b038f166000908152600390935291209091506104ef9082610b5f565b1561050d5760405163f4249fb360e01b815260040160405180910390fd5b6001600160a01b038c16600090815260036020526040902061052f9082610e52565b50600160009054906101000a90046001600160a01b03166001600160a01b03166344c028fe60008f60008b6040518563ffffffff1660e01b81526004016105799493929190611522565b6000604051808303816000875af1158015610598573d6000803e3d6000fd5b505050506040513d6000823e601f3d908101601f191682016040526105c09190810190611559565b5060008881526002602052604090819020805460ff19166001179055517fe4a6407979da9518dfbc88bfe7f0f53a52c4c16e1f54a90bf1ff721d341ef4439061060a9087906112ab565b60405180910390a160408051808201909152600c81526b4275726e416674657255736560a01b60209091015260007ffbdb7422394d0d1e5a42ce23325710e31f051fe0ac8874d7818c181a294a86316040516354f6127f60e01b8152600481018290529091506000906001600160a01b038f16906354f6127f90602401600060405180830381865afa1580156106a4573d6000803e3d6000fd5b505050506040513d6000823e601f3d908101601f191682016040526106cc9190810190611559565b90506001600160f01b03196106e0826115c6565b6001600160f01b03191603610750578d6001600160a01b0316636c79b70b8e896040518363ffffffff1660e01b815260040161071d9291906115fd565b600060405180830381600087803b15801561073757600080fd5b505af115801561074b573d6000803e3d6000fd5b505050505b505050505050505050505050505050565b60608660601b8660405160200161077a91815260200190565b60408051601f1981840301815282825260208301899052910160408051601f19818403018152908290526107b893929188908890889060200161161e565b60405160208183030381529060405290509695505050505050565b60608860601b886040516020016107ec91815260200190565b60408051601f19818403018152828252602083018b905291016040516020818303038152906040528860601b88868989604051602001610833989796959493929190611475565b604051602081830303815290604052905098975050505050505050565b60008760601b8760405160200161086991815260200190565b60408051601f19818403018152828252602083018a9052910160408051601f19818403018152908290526108a793929189908990889060200161161e565b604051602081830303815290604052905060006108ca8280519060200120610c24565b6001549091506001600160a01b031633146108f857604051633ed2200160e11b815260040160405180910390fd5b8643111561091957604051631d389b0b60e11b815260040160405180910390fd5b630b135d3f60e11b61092b8286610c57565b6001600160e01b0319161461095357604051638baa579f60e01b815260040160405180910390fd5b8761095c610df1565b1461097a57604051636956f2ab60e11b815260040160405180910390fd5b60008681526002602052604090205460ff16156109aa57604051633ab3447f60e11b815260040160405180910390fd5b600154604051632260147f60e11b81526001600160a01b03909116906344c028fe906109e1906000908d9082908b90600401611522565b6000604051808303816000875af1158015610a00573d6000803e3d6000fd5b505050506040513d6000823e601f3d908101601f19168201604052610a289190810190611559565b5060008681526002602052604090819020805460ff19166001179055517fe4a6407979da9518dfbc88bfe7f0f53a52c4c16e1f54a90bf1ff721d341ef44390610a729085906112ab565b60405180910390a1505050505050505050565b610a8d610b7a565b600180546001600160a01b0319166001600160a01b0383169081179091556040519081527f7f8cffd58ac96898bdd25ab64868bd933141d15ad1cd4a0df228fd3fcba2a26d9060200160405180910390a150565b610ae9610b7a565b6001600160a01b038116610b535760405162461bcd60e51b815260206004820152602660248201527f4f776e61626c653a206e6577206f776e657220697320746865207a65726f206160448201526564647265737360d01b60648201526084015b60405180910390fd5b610b5c81610bd4565b50565b600081815260018301602052604081205415155b9392505050565b6000546001600160a01b031633146102745760405162461bcd60e51b815260206004820181905260248201527f4f776e61626c653a2063616c6c6572206973206e6f7420746865206f776e65726044820152606401610b4a565b600080546001600160a01b038381166001600160a01b0319831681178455604051919092169283917f8be0079c531659141344cd1fd0a4f28419497f9722a3daafe3b4186f6b6457e09190a35050565b7f19457468657265756d205369676e6564204d6573736167653a0a3332000000006000908152601c91909152603c902090565b6001546000906001600160a01b03163b15610d7e5760015460405160009182916001600160a01b0390911690630b135d3f60e11b90610c9c90889088906024016115fd565b60408051601f198184030181529181526020820180516001600160e01b03166001600160e01b0319909416939093179092529051610cda9190611698565b600060405180830381855afa9150503d8060008114610d15576040519150601f19603f3d011682016040523d82523d6000602084013e610d1a565b606091505b50915091506000828015610d2f575081516020145b8015610d5657508151630b135d3f60e11b90610d5490840160209081019085016116b4565b145b905080610d6b576001600160e01b0319610d74565b630b135d3f60e11b5b93505050506101e3565b600080610d8b8585610e5e565b90925090506000816004811115610da457610da46116cd565b14610dbc57506001600160e01b031991506101e39050565b6001546001600160a01b03838116911614610ddf576001600160e01b0319610de8565b630b135d3f60e11b5b925050506101e3565b60008036610e006020826116e3565b610e0b928290611704565b610e149161172e565b919050565b60008036610e286034826116e3565b90610e346020366116e3565b92610e4193929190611704565b610e4a9161174c565b60601c905090565b6000610b738383610ea3565b6000808251604103610e945760208301516040840151606085015160001a610e8887828585610ef2565b94509450505050610e9c565b506000905060025b9250929050565b6000818152600183016020526040812054610eea575081546001818101845560008481526020808220909301849055845484825282860190935260409020919091556101e3565b5060006101e3565b6000806fa2a8918ca85bafe22016d0b997e4df60600160ff1b03831115610f1f5750600090506003610fa3565b6040805160008082526020820180845289905260ff881692820192909252606081018690526080810185905260019060a0016020604051602081039080840390855afa158015610f73573d6000803e3d6000fd5b5050604051601f1901519150506001600160a01b038116610f9c57600060019250925050610fa3565b9150600090505b94509492505050565b600060208284031215610fbe57600080fd5b81356001600160e01b031981168114610b7357600080fd5b6001600160a01b0381168114610b5c57600080fd5b8035610e1481610fd6565b60008060006060848603121561100b57600080fd5b833561101681610fd6565b9250602084013561102681610fd6565b929592945050506040919091013590565b634e487b7160e01b600052604160045260246000fd5b604051601f8201601f191681016001600160401b038111828210171561107557611075611037565b604052919050565b60006001600160401b0382111561109657611096611037565b50601f01601f191660200190565b600082601f8301126110b557600080fd5b81356110c86110c38261107d565b61104d565b8181528460208386010111156110dd57600080fd5b816020850160208301376000918101602001919091529392505050565b60008060008060008060008060006101208a8c03121561111957600080fd5b6111228a610feb565b985061113060208b01610feb565b975060408a0135965060608a0135955060808a0135945060a08a0135935060c08a01356001600160401b038082111561116857600080fd5b6111748d838e016110a4565b945060e08c013591508082111561118a57600080fd5b6111968d838e016110a4565b93506101008c01359150808211156111ad57600080fd5b506111ba8c828d016110a4565b9150509295985092959850929598565b60008060008060008060c087890312156111e357600080fd5b86356111ee81610fd6565b955060208701359450604087013593506060870135925060808701356001600160401b038082111561121f57600080fd5b61122b8a838b016110a4565b935060a089013591508082111561124157600080fd5b5061124e89828a016110a4565b9150509295509295509295565b60005b8381101561127657818101518382015260200161125e565b50506000910152565b6000815180845261129781602086016020860161125b565b601f01601f19169290920160200192915050565b602081526000610b73602083018461127f565b600080600080600080600080610100898b0312156112db57600080fd5b88356112e681610fd6565b97506020890135965060408901359550606089013561130481610fd6565b94506080890135935060a0890135925060c08901356001600160401b038082111561132e57600080fd5b61133a8c838d016110a4565b935060e08b013591508082111561135057600080fd5b5061135d8b828c016110a4565b9150509295985092959890939650565b600080600080600080600060e0888a03121561138857600080fd5b873561139381610fd6565b965060208801359550604088013594506060880135935060808801356001600160401b03808211156113c457600080fd5b6113d08b838c016110a4565b945060a08a01359150808211156113e657600080fd5b6113f28b838c016110a4565b935060c08a013591508082111561140857600080fd5b506114158a828b016110a4565b91505092959891949750929550565b60006020828403121561143657600080fd5b8135610b7381610fd6565b60008183825b6002811015611466578151835260209283019290910190600101611447565b50505060408201905092915050565b60006001600160601b0319808b1683528951611498816014860160208e0161125b565b8951908401906114af816014840160208e0161125b565b8082019150508189166014820152876028820152865191506114d8826048830160208a0161125b565b016048810185905283516114f381606884016020880161125b565b016068019a9950505050505050505050565b60006020828403121561151757600080fd5b8151610b7381610fd6565b84815260018060a01b038416602082015282604082015260806060820152600061154f608083018461127f565b9695505050505050565b60006020828403121561156b57600080fd5b81516001600160401b0381111561158157600080fd5b8201601f8101841361159257600080fd5b80516115a06110c38261107d565b8181528560208385010111156115b557600080fd5b61025982602083016020860161125b565b805160208201516001600160f01b031980821692919060028310156115f55780818460020360031b1b83161693505b505050919050565b828152604060208201526000611616604083018461127f565b949350505050565b6001600160601b03198716815260008651611640816014850160208b0161125b565b865190830190611657816014840160208b0161125b565b0160148101869052845161167281603484016020890161125b565b845191019061168881603484016020880161125b565b0160340198975050505050505050565b600082516116aa81846020870161125b565b9190910192915050565b6000602082840312156116c657600080fd5b5051919050565b634e487b7160e01b600052602160045260246000fd5b818103818111156101e357634e487b7160e01b600052601160045260246000fd5b6000808585111561171457600080fd5b8386111561172157600080fd5b5050820193919092039150565b803560208310156101e357600019602084900360031b1b1692915050565b6bffffffffffffffffffffffff1981358181169160148510156117795780818660140360031b1b83161692505b50509291505056fea264697066735822122086b76df625392d2a15b7336dde345a87d95e9f60c3e9729323d922b53fcc4f8564736f6c63430008140033","opcodes":"PUSH1 0x80 PUSH1 0x40 MSTORE CALLVALUE DUP1 ISZERO PUSH2 0x10 JUMPI PUSH1 0x0 DUP1 REVERT JUMPDEST POP PUSH1 0x40 MLOAD PUSH2 0x18A3 CODESIZE SUB DUP1 PUSH2 0x18A3 DUP4 CODECOPY DUP2 ADD PUSH1 0x40 DUP2 SWAP1 MSTORE PUSH2 0x2F SWAP2 PUSH2 0xAD JUMP JUMPDEST PUSH2 0x38 CALLER PUSH2 0x5D JUMP JUMPDEST PUSH1 0x1 DUP1 SLOAD PUSH1 0x1 PUSH1 0x1 PUSH1 0xA0 SHL SUB NOT AND PUSH1 0x1 PUSH1 0x1 PUSH1 0xA0 SHL SUB SWAP3 SWAP1 SWAP3 AND SWAP2 SWAP1 SWAP2 OR SWAP1 SSTORE PUSH2 0xDD JUMP JUMPDEST PUSH1 0x0 DUP1 SLOAD PUSH1 0x1 PUSH1 0x1 PUSH1 0xA0 SHL SUB DUP4 DUP2 AND PUSH1 0x1 PUSH1 0x1 PUSH1 0xA0 SHL SUB NOT DUP4 AND DUP2 OR DUP5 SSTORE PUSH1 0x40 MLOAD SWAP2 SWAP1 SWAP3 AND SWAP3 DUP4 SWAP2 PUSH32 0x8BE0079C531659141344CD1FD0A4F28419497F9722A3DAAFE3B4186F6B6457E0 SWAP2 SWAP1 LOG3 POP POP JUMP JUMPDEST PUSH1 0x0 PUSH1 0x20 DUP3 DUP5 SUB SLT ISZERO PUSH2 0xBF JUMPI PUSH1 0x0 DUP1 REVERT JUMPDEST DUP2 MLOAD PUSH1 0x1 PUSH1 0x1 PUSH1 0xA0 SHL SUB DUP2 AND DUP2 EQ PUSH2 0xD6 JUMPI PUSH1 0x0 DUP1 REVERT JUMPDEST SWAP4 SWAP3 POP POP POP JUMP JUMPDEST PUSH2 0x17B7 DUP1 PUSH2 0xEC PUSH1 0x0 CODECOPY PUSH1 0x0 RETURN INVALID PUSH1 0x80 PUSH1 0x40 MSTORE CALLVALUE DUP1 ISZERO PUSH2 0x10 JUMPI PUSH1 0x0 DUP1 REVERT JUMPDEST POP PUSH1 0x4 CALLDATASIZE LT PUSH2 0xA9 JUMPI PUSH1 0x0 CALLDATALOAD PUSH1 0xE0 SHR DUP1 PUSH4 0xBFB6E08B GT PUSH2 0x71 JUMPI DUP1 PUSH4 0xBFB6E08B EQ PUSH2 0x121 JUMPI DUP1 PUSH4 0xD5212E3C EQ PUSH2 0x141 JUMPI DUP1 PUSH4 0xDB1E3EF3 EQ PUSH2 0x154 JUMPI DUP1 PUSH4 0xEA1B495F EQ PUSH2 0x167 JUMPI DUP1 PUSH4 0xF2FDE38B EQ PUSH2 0x17A JUMPI DUP1 PUSH4 0xFFA1AD74 EQ PUSH2 0x18D JUMPI PUSH1 0x0 DUP1 REVERT JUMPDEST DUP1 PUSH4 0x1FFC9A7 EQ PUSH2 0xAE JUMPI DUP1 PUSH4 0x285AC885 EQ PUSH2 0xD6 JUMPI DUP1 PUSH4 0x715018A6 EQ PUSH2 0xE9 JUMPI DUP1 PUSH4 0x8DA5CB5B EQ PUSH2 0xF3 JUMPI DUP1 PUSH4 0xBBB9DDD3 EQ PUSH2 0x10E JUMPI JUMPDEST PUSH1 0x0 DUP1 REVERT JUMPDEST PUSH2 0xC1 PUSH2 0xBC CALLDATASIZE PUSH1 0x4 PUSH2 0xFAC JUMP JUMPDEST PUSH2 0x1B2 JUMP JUMPDEST PUSH1 0x40 MLOAD SWAP1 ISZERO ISZERO DUP2 MSTORE PUSH1 0x20 ADD JUMPDEST PUSH1 0x40 MLOAD DUP1 SWAP2 SUB SWAP1 RETURN JUMPDEST PUSH2 0xC1 PUSH2 0xE4 CALLDATASIZE PUSH1 0x4 PUSH2 0xFF6 JUMP JUMPDEST PUSH2 0x1E9 JUMP JUMPDEST PUSH2 0xF1 PUSH2 0x262 JUMP JUMPDEST STOP JUMPDEST PUSH1 0x0 SLOAD PUSH1 0x40 MLOAD PUSH1 0x1 PUSH1 0x1 PUSH1 0xA0 SHL SUB SWAP1 SWAP2 AND DUP2 MSTORE PUSH1 0x20 ADD PUSH2 0xCD JUMP JUMPDEST PUSH2 0xF1 PUSH2 0x11C CALLDATASIZE PUSH1 0x4 PUSH2 0x10FA JUMP JUMPDEST PUSH2 0x276 JUMP JUMPDEST PUSH2 0x134 PUSH2 0x12F CALLDATASIZE PUSH1 0x4 PUSH2 0x11CA JUMP JUMPDEST PUSH2 0x761 JUMP JUMPDEST PUSH1 0x40 MLOAD PUSH2 0xCD SWAP2 SWAP1 PUSH2 0x12AB JUMP JUMPDEST PUSH2 0x134 PUSH2 0x14F CALLDATASIZE PUSH1 0x4 PUSH2 0x12BE JUMP JUMPDEST PUSH2 0x7D3 JUMP JUMPDEST PUSH2 0xF1 PUSH2 0x162 CALLDATASIZE PUSH1 0x4 PUSH2 0x136D JUMP JUMPDEST PUSH2 0x850 JUMP JUMPDEST PUSH2 0xF1 PUSH2 0x175 CALLDATASIZE PUSH1 0x4 PUSH2 0x1424 JUMP JUMPDEST PUSH2 0xA85 JUMP JUMPDEST PUSH2 0xF1 PUSH2 0x188 CALLDATASIZE PUSH1 0x4 PUSH2 0x1424 JUMP JUMPDEST PUSH2 0xAE1 JUMP JUMPDEST PUSH2 0x134 PUSH1 0x40 MLOAD DUP1 PUSH1 0x40 ADD PUSH1 0x40 MSTORE DUP1 PUSH1 0x6 DUP2 MSTORE PUSH1 0x20 ADD PUSH6 0x302E31352E3 PUSH1 0xD4 SHL DUP2 MSTORE POP DUP2 JUMP JUMPDEST PUSH1 0x0 PUSH1 0x1 PUSH1 0x1 PUSH1 0xE0 SHL SUB NOT DUP3 AND PUSH4 0x33B9E2D PUSH1 0xE6 SHL EQ DUP1 PUSH2 0x1E3 JUMPI POP PUSH4 0x1FFC9A7 PUSH1 0xE0 SHL PUSH1 0x1 PUSH1 0x1 PUSH1 0xE0 SHL SUB NOT DUP4 AND EQ JUMPDEST SWAP3 SWAP2 POP POP JUMP JUMPDEST PUSH1 0x0 DUP1 PUSH1 0x40 MLOAD DUP1 PUSH1 0x40 ADD PUSH1 0x40 MSTORE DUP1 DUP6 PUSH1 0x60 SHL PUSH1 0x1 PUSH1 0x1 PUSH1 0x60 SHL SUB NOT AND DUP2 MSTORE PUSH1 0x20 ADD DUP5 DUP2 MSTORE POP PUSH1 0x40 MLOAD PUSH1 0x20 ADD PUSH2 0x21E SWAP2 SWAP1 PUSH2 0x1441 JUMP JUMPDEST PUSH1 0x40 DUP1 MLOAD PUSH1 0x1F NOT DUP2 DUP5 SUB ADD DUP2 MSTORE SWAP2 DUP2 MSTORE DUP2 MLOAD PUSH1 0x20 SWAP3 DUP4 ADD KECCAK256 PUSH1 0x1 PUSH1 0x1 PUSH1 0xA0 SHL SUB DUP9 AND PUSH1 0x0 SWAP1 DUP2 MSTORE PUSH1 0x3 SWAP1 SWAP4 MSTORE SWAP2 KECCAK256 SWAP1 SWAP2 POP PUSH2 0x259 SWAP1 DUP3 PUSH2 0xB5F JUMP JUMPDEST SWAP6 SWAP5 POP POP POP POP POP JUMP JUMPDEST PUSH2 0x26A PUSH2 0xB7A JUMP JUMPDEST PUSH2 0x274 PUSH1 0x0 PUSH2 0xBD4 JUMP JUMPDEST JUMP JUMPDEST PUSH1 0x0 DUP10 PUSH1 0x60 SHL DUP8 PUSH1 0x40 MLOAD PUSH1 0x20 ADD PUSH2 0x28F SWAP2 DUP2 MSTORE PUSH1 0x20 ADD SWAP1 JUMP JUMPDEST PUSH1 0x40 DUP1 MLOAD PUSH1 0x1F NOT DUP2 DUP5 SUB ADD DUP2 MSTORE DUP3 DUP3 MSTORE PUSH1 0x20 DUP4 ADD DUP11 SWAP1 MSTORE SWAP2 ADD PUSH1 0x40 MLOAD PUSH1 0x20 DUP2 DUP4 SUB SUB DUP2 MSTORE SWAP1 PUSH1 0x40 MSTORE DUP12 PUSH1 0x60 SHL DUP12 DUP7 DUP11 DUP11 PUSH1 0x40 MLOAD PUSH1 0x20 ADD PUSH2 0x2D6 SWAP9 SWAP8 SWAP7 SWAP6 SWAP5 SWAP4 SWAP3 SWAP2 SWAP1 PUSH2 0x1475 JUMP JUMPDEST PUSH1 0x40 MLOAD PUSH1 0x20 DUP2 DUP4 SUB SUB DUP2 MSTORE SWAP1 PUSH1 0x40 MSTORE SWAP1 POP PUSH1 0x0 PUSH2 0x2F9 DUP3 DUP1 MLOAD SWAP1 PUSH1 0x20 ADD KECCAK256 PUSH2 0xC24 JUMP JUMPDEST PUSH1 0x1 SLOAD SWAP1 SWAP2 POP PUSH1 0x1 PUSH1 0x1 PUSH1 0xA0 SHL SUB AND CALLER EQ PUSH2 0x327 JUMPI PUSH1 0x40 MLOAD PUSH4 0x3ED22001 PUSH1 0xE1 SHL DUP2 MSTORE PUSH1 0x4 ADD PUSH1 0x40 MLOAD DUP1 SWAP2 SUB SWAP1 REVERT JUMPDEST DUP7 NUMBER GT ISZERO PUSH2 0x348 JUMPI PUSH1 0x40 MLOAD PUSH4 0x1D389B0B PUSH1 0xE1 SHL DUP2 MSTORE PUSH1 0x4 ADD PUSH1 0x40 MLOAD DUP1 SWAP2 SUB SWAP1 REVERT JUMPDEST PUSH4 0xB135D3F PUSH1 0xE1 SHL PUSH2 0x35A DUP3 DUP7 PUSH2 0xC57 JUMP JUMPDEST PUSH1 0x1 PUSH1 0x1 PUSH1 0xE0 SHL SUB NOT AND EQ PUSH2 0x382 JUMPI PUSH1 0x40 MLOAD PUSH4 0x8BAA579F PUSH1 0xE0 SHL DUP2 MSTORE PUSH1 0x4 ADD PUSH1 0x40 MLOAD DUP1 SWAP2 SUB SWAP1 REVERT JUMPDEST DUP8 PUSH2 0x38B PUSH2 0xDF1 JUMP JUMPDEST EQ PUSH2 0x3A9 JUMPI PUSH1 0x40 MLOAD PUSH4 0x6956F2AB PUSH1 0xE1 SHL DUP2 MSTORE PUSH1 0x4 ADD PUSH1 0x40 MLOAD DUP1 SWAP2 SUB SWAP1 REVERT JUMPDEST PUSH1 0x0 DUP7 DUP2 MSTORE PUSH1 0x2 PUSH1 0x20 MSTORE PUSH1 0x40 SWAP1 KECCAK256 SLOAD PUSH1 0xFF AND ISZERO PUSH2 0x3D9 JUMPI PUSH1 0x40 MLOAD PUSH4 0x3AB3447F PUSH1 0xE1 SHL DUP2 MSTORE PUSH1 0x4 ADD PUSH1 0x40 MLOAD DUP1 SWAP2 SUB SWAP1 REVERT JUMPDEST PUSH1 0x40 MLOAD PUSH4 0x217B227 PUSH1 0xE4 SHL DUP2 MSTORE PUSH1 0x4 DUP2 ADD DUP11 SWAP1 MSTORE PUSH1 0x0 SWAP1 PUSH1 0x1 PUSH1 0x1 PUSH1 0xA0 SHL SUB DUP13 AND SWAP1 PUSH4 0x217B2270 SWAP1 PUSH1 0x24 ADD PUSH1 0x20 PUSH1 0x40 MLOAD DUP1 DUP4 SUB DUP2 DUP7 GAS STATICCALL ISZERO DUP1 ISZERO PUSH2 0x421 JUMPI RETURNDATASIZE PUSH1 0x0 DUP1 RETURNDATACOPY RETURNDATASIZE PUSH1 0x0 REVERT JUMPDEST POP POP POP POP PUSH1 0x40 MLOAD RETURNDATASIZE PUSH1 0x1F NOT PUSH1 0x1F DUP3 ADD AND DUP3 ADD DUP1 PUSH1 0x40 MSTORE POP DUP2 ADD SWAP1 PUSH2 0x445 SWAP2 SWAP1 PUSH2 0x1505 JUMP JUMPDEST SWAP1 POP PUSH2 0x44F PUSH2 0xE19 JUMP JUMPDEST PUSH1 0x1 PUSH1 0x1 PUSH1 0xA0 SHL SUB AND DUP2 PUSH1 0x1 PUSH1 0x1 PUSH1 0xA0 SHL SUB AND EQ PUSH2 0x480 JUMPI PUSH1 0x40 MLOAD PUSH4 0xF458DE71 PUSH1 0xE0 SHL DUP2 MSTORE PUSH1 0x4 ADD PUSH1 0x40 MLOAD DUP1 SWAP2 SUB SWAP1 REVERT JUMPDEST PUSH1 0x0 PUSH1 0x40 MLOAD DUP1 PUSH1 0x40 ADD PUSH1 0x40 MSTORE DUP1 DUP15 PUSH1 0x60 SHL PUSH1 0x1 PUSH1 0x1 PUSH1 0x60 SHL SUB NOT AND DUP2 MSTORE PUSH1 0x20 ADD DUP13 DUP2 MSTORE POP PUSH1 0x40 MLOAD PUSH1 0x20 ADD PUSH2 0x4B4 SWAP2 SWAP1 PUSH2 0x1441 JUMP JUMPDEST PUSH1 0x40 DUP1 MLOAD PUSH1 0x1F NOT DUP2 DUP5 SUB ADD DUP2 MSTORE SWAP2 DUP2 MSTORE DUP2 MLOAD PUSH1 0x20 SWAP3 DUP4 ADD KECCAK256 PUSH1 0x1 PUSH1 0x1 PUSH1 0xA0 SHL SUB DUP16 AND PUSH1 0x0 SWAP1 DUP2 MSTORE PUSH1 0x3 SWAP1 SWAP4 MSTORE SWAP2 KECCAK256 SWAP1 SWAP2 POP PUSH2 0x4EF SWAP1 DUP3 PUSH2 0xB5F JUMP JUMPDEST ISZERO PUSH2 0x50D JUMPI PUSH1 0x40 MLOAD PUSH4 0xF4249FB3 PUSH1 0xE0 SHL DUP2 MSTORE PUSH1 0x4 ADD PUSH1 0x40 MLOAD DUP1 SWAP2 SUB SWAP1 REVERT JUMPDEST PUSH1 0x1 PUSH1 0x1 PUSH1 0xA0 SHL SUB DUP13 AND PUSH1 0x0 SWAP1 DUP2 MSTORE PUSH1 0x3 PUSH1 0x20 MSTORE PUSH1 0x40 SWAP1 KECCAK256 PUSH2 0x52F SWAP1 DUP3 PUSH2 0xE52 JUMP JUMPDEST POP PUSH1 0x1 PUSH1 0x0 SWAP1 SLOAD SWAP1 PUSH2 0x100 EXP SWAP1 DIV PUSH1 0x1 PUSH1 0x1 PUSH1 0xA0 SHL SUB AND PUSH1 0x1 PUSH1 0x1 PUSH1 0xA0 SHL SUB AND PUSH4 0x44C028FE PUSH1 0x0 DUP16 PUSH1 0x0 DUP12 PUSH1 0x40 MLOAD DUP6 PUSH4 0xFFFFFFFF AND PUSH1 0xE0 SHL DUP2 MSTORE PUSH1 0x4 ADD PUSH2 0x579 SWAP5 SWAP4 SWAP3 SWAP2 SWAP1 PUSH2 0x1522 JUMP JUMPDEST PUSH1 0x0 PUSH1 0x40 MLOAD DUP1 DUP4 SUB DUP2 PUSH1 0x0 DUP8 GAS CALL ISZERO DUP1 ISZERO PUSH2 0x598 JUMPI RETURNDATASIZE PUSH1 0x0 DUP1 RETURNDATACOPY RETURNDATASIZE PUSH1 0x0 REVERT JUMPDEST POP POP POP POP PUSH1 0x40 MLOAD RETURNDATASIZE PUSH1 0x0 DUP3 RETURNDATACOPY PUSH1 0x1F RETURNDATASIZE SWAP1 DUP2 ADD PUSH1 0x1F NOT AND DUP3 ADD PUSH1 0x40 MSTORE PUSH2 0x5C0 SWAP2 SWAP1 DUP2 ADD SWAP1 PUSH2 0x1559 JUMP JUMPDEST POP PUSH1 0x0 DUP9 DUP2 MSTORE PUSH1 0x2 PUSH1 0x20 MSTORE PUSH1 0x40 SWAP1 DUP2 SWAP1 KECCAK256 DUP1 SLOAD PUSH1 0xFF NOT AND PUSH1 0x1 OR SWAP1 SSTORE MLOAD PUSH32 0xE4A6407979DA9518DFBC88BFE7F0F53A52C4C16E1F54A90BF1FF721D341EF443 SWAP1 PUSH2 0x60A SWAP1 DUP8 SWAP1 PUSH2 0x12AB JUMP JUMPDEST PUSH1 0x40 MLOAD DUP1 SWAP2 SUB SWAP1 LOG1 PUSH1 0x40 DUP1 MLOAD DUP1 DUP3 ADD SWAP1 SWAP2 MSTORE PUSH1 0xC DUP2 MSTORE PUSH12 0x4275726E4166746572557365 PUSH1 0xA0 SHL PUSH1 0x20 SWAP1 SWAP2 ADD MSTORE PUSH1 0x0 PUSH32 0xFBDB7422394D0D1E5A42CE23325710E31F051FE0AC8874D7818C181A294A8631 PUSH1 0x40 MLOAD PUSH4 0x54F6127F PUSH1 0xE0 SHL DUP2 MSTORE PUSH1 0x4 DUP2 ADD DUP3 SWAP1 MSTORE SWAP1 SWAP2 POP PUSH1 0x0 SWAP1 PUSH1 0x1 PUSH1 0x1 PUSH1 0xA0 SHL SUB DUP16 AND SWAP1 PUSH4 0x54F6127F SWAP1 PUSH1 0x24 ADD PUSH1 0x0 PUSH1 0x40 MLOAD DUP1 DUP4 SUB DUP2 DUP7 GAS STATICCALL ISZERO DUP1 ISZERO PUSH2 0x6A4 JUMPI RETURNDATASIZE PUSH1 0x0 DUP1 RETURNDATACOPY RETURNDATASIZE PUSH1 0x0 REVERT JUMPDEST POP POP POP POP PUSH1 0x40 MLOAD RETURNDATASIZE PUSH1 0x0 DUP3 RETURNDATACOPY PUSH1 0x1F RETURNDATASIZE SWAP1 DUP2 ADD PUSH1 0x1F NOT AND DUP3 ADD PUSH1 0x40 MSTORE PUSH2 0x6CC SWAP2 SWAP1 DUP2 ADD SWAP1 PUSH2 0x1559 JUMP JUMPDEST SWAP1 POP PUSH1 0x1 PUSH1 0x1 PUSH1 0xF0 SHL SUB NOT PUSH2 0x6E0 DUP3 PUSH2 0x15C6 JUMP JUMPDEST PUSH1 0x1 PUSH1 0x1 PUSH1 0xF0 SHL SUB NOT AND SUB PUSH2 0x750 JUMPI DUP14 PUSH1 0x1 PUSH1 0x1 PUSH1 0xA0 SHL SUB AND PUSH4 0x6C79B70B DUP15 DUP10 PUSH1 0x40 MLOAD DUP4 PUSH4 0xFFFFFFFF AND PUSH1 0xE0 SHL DUP2 MSTORE PUSH1 0x4 ADD PUSH2 0x71D SWAP3 SWAP2 SWAP1 PUSH2 0x15FD JUMP JUMPDEST PUSH1 0x0 PUSH1 0x40 MLOAD DUP1 DUP4 SUB DUP2 PUSH1 0x0 DUP8 DUP1 EXTCODESIZE ISZERO DUP1 ISZERO PUSH2 0x737 JUMPI PUSH1 0x0 DUP1 REVERT JUMPDEST POP GAS CALL ISZERO DUP1 ISZERO PUSH2 0x74B JUMPI RETURNDATASIZE PUSH1 0x0 DUP1 RETURNDATACOPY RETURNDATASIZE PUSH1 0x0 REVERT JUMPDEST POP POP POP POP JUMPDEST POP POP POP POP POP POP POP POP POP POP POP POP POP POP POP JUMP JUMPDEST PUSH1 0x60 DUP7 PUSH1 0x60 SHL DUP7 PUSH1 0x40 MLOAD PUSH1 0x20 ADD PUSH2 0x77A SWAP2 DUP2 MSTORE PUSH1 0x20 ADD SWAP1 JUMP JUMPDEST PUSH1 0x40 DUP1 MLOAD PUSH1 0x1F NOT DUP2 DUP5 SUB ADD DUP2 MSTORE DUP3 DUP3 MSTORE PUSH1 0x20 DUP4 ADD DUP10 SWAP1 MSTORE SWAP2 ADD PUSH1 0x40 DUP1 MLOAD PUSH1 0x1F NOT DUP2 DUP5 SUB ADD DUP2 MSTORE SWAP1 DUP3 SWAP1 MSTORE PUSH2 0x7B8 SWAP4 SWAP3 SWAP2 DUP9 SWAP1 DUP9 SWAP1 DUP9 SWAP1 PUSH1 0x20 ADD PUSH2 0x161E JUMP JUMPDEST PUSH1 0x40 MLOAD PUSH1 0x20 DUP2 DUP4 SUB SUB DUP2 MSTORE SWAP1 PUSH1 0x40 MSTORE SWAP1 POP SWAP7 SWAP6 POP POP POP POP POP POP JUMP JUMPDEST PUSH1 0x60 DUP9 PUSH1 0x60 SHL DUP9 PUSH1 0x40 MLOAD PUSH1 0x20 ADD PUSH2 0x7EC SWAP2 DUP2 MSTORE PUSH1 0x20 ADD SWAP1 JUMP JUMPDEST PUSH1 0x40 DUP1 MLOAD PUSH1 0x1F NOT DUP2 DUP5 SUB ADD DUP2 MSTORE DUP3 DUP3 MSTORE PUSH1 0x20 DUP4 ADD DUP12 SWAP1 MSTORE SWAP2 ADD PUSH1 0x40 MLOAD PUSH1 0x20 DUP2 DUP4 SUB SUB DUP2 MSTORE SWAP1 PUSH1 0x40 MSTORE DUP9 PUSH1 0x60 SHL DUP9 DUP7 DUP10 DUP10 PUSH1 0x40 MLOAD PUSH1 0x20 ADD PUSH2 0x833 SWAP9 SWAP8 SWAP7 SWAP6 SWAP5 SWAP4 SWAP3 SWAP2 SWAP1 PUSH2 0x1475 JUMP JUMPDEST PUSH1 0x40 MLOAD PUSH1 0x20 DUP2 DUP4 SUB SUB DUP2 MSTORE SWAP1 PUSH1 0x40 MSTORE SWAP1 POP SWAP9 SWAP8 POP POP POP POP POP POP POP POP JUMP JUMPDEST PUSH1 0x0 DUP8 PUSH1 0x60 SHL DUP8 PUSH1 0x40 MLOAD PUSH1 0x20 ADD PUSH2 0x869 SWAP2 DUP2 MSTORE PUSH1 0x20 ADD SWAP1 JUMP JUMPDEST PUSH1 0x40 DUP1 MLOAD PUSH1 0x1F NOT DUP2 DUP5 SUB ADD DUP2 MSTORE DUP3 DUP3 MSTORE PUSH1 0x20 DUP4 ADD DUP11 SWAP1 MSTORE SWAP2 ADD PUSH1 0x40 DUP1 MLOAD PUSH1 0x1F NOT DUP2 DUP5 SUB ADD DUP2 MSTORE SWAP1 DUP3 SWAP1 MSTORE PUSH2 0x8A7 SWAP4 SWAP3 SWAP2 DUP10 SWAP1 DUP10 SWAP1 DUP9 SWAP1 PUSH1 0x20 ADD PUSH2 0x161E JUMP JUMPDEST PUSH1 0x40 MLOAD PUSH1 0x20 DUP2 DUP4 SUB SUB DUP2 MSTORE SWAP1 PUSH1 0x40 MSTORE SWAP1 POP PUSH1 0x0 PUSH2 0x8CA DUP3 DUP1 MLOAD SWAP1 PUSH1 0x20 ADD KECCAK256 PUSH2 0xC24 JUMP JUMPDEST PUSH1 0x1 SLOAD SWAP1 SWAP2 POP PUSH1 0x1 PUSH1 0x1 PUSH1 0xA0 SHL SUB AND CALLER EQ PUSH2 0x8F8 JUMPI PUSH1 0x40 MLOAD PUSH4 0x3ED22001 PUSH1 0xE1 SHL DUP2 MSTORE PUSH1 0x4 ADD PUSH1 0x40 MLOAD DUP1 SWAP2 SUB SWAP1 REVERT JUMPDEST DUP7 NUMBER GT ISZERO PUSH2 0x919 JUMPI PUSH1 0x40 MLOAD PUSH4 0x1D389B0B PUSH1 0xE1 SHL DUP2 MSTORE PUSH1 0x4 ADD PUSH1 0x40 MLOAD DUP1 SWAP2 SUB SWAP1 REVERT JUMPDEST PUSH4 0xB135D3F PUSH1 0xE1 SHL PUSH2 0x92B DUP3 DUP7 PUSH2 0xC57 JUMP JUMPDEST PUSH1 0x1 PUSH1 0x1 PUSH1 0xE0 SHL SUB NOT AND EQ PUSH2 0x953 JUMPI PUSH1 0x40 MLOAD PUSH4 0x8BAA579F PUSH1 0xE0 SHL DUP2 MSTORE PUSH1 0x4 ADD PUSH1 0x40 MLOAD DUP1 SWAP2 SUB SWAP1 REVERT JUMPDEST DUP8 PUSH2 0x95C PUSH2 0xDF1 JUMP JUMPDEST EQ PUSH2 0x97A JUMPI PUSH1 0x40 MLOAD PUSH4 0x6956F2AB PUSH1 0xE1 SHL DUP2 MSTORE PUSH1 0x4 ADD PUSH1 0x40 MLOAD DUP1 SWAP2 SUB SWAP1 REVERT JUMPDEST PUSH1 0x0 DUP7 DUP2 MSTORE PUSH1 0x2 PUSH1 0x20 MSTORE PUSH1 0x40 SWAP1 KECCAK256 SLOAD PUSH1 0xFF AND ISZERO PUSH2 0x9AA JUMPI PUSH1 0x40 MLOAD PUSH4 0x3AB3447F PUSH1 0xE1 SHL DUP2 MSTORE PUSH1 0x4 ADD PUSH1 0x40 MLOAD DUP1 SWAP2 SUB SWAP1 REVERT JUMPDEST PUSH1 0x1 SLOAD PUSH1 0x40 MLOAD PUSH4 0x2260147F PUSH1 0xE1 SHL DUP2 MSTORE PUSH1 0x1 PUSH1 0x1 PUSH1 0xA0 SHL SUB SWAP1 SWAP2 AND SWAP1 PUSH4 0x44C028FE SWAP1 PUSH2 0x9E1 SWAP1 PUSH1 0x0 SWAP1 DUP14 SWAP1 DUP3 SWAP1 DUP12 SWAP1 PUSH1 0x4 ADD PUSH2 0x1522 JUMP JUMPDEST PUSH1 0x0 PUSH1 0x40 MLOAD DUP1 DUP4 SUB DUP2 PUSH1 0x0 DUP8 GAS CALL ISZERO DUP1 ISZERO PUSH2 0xA00 JUMPI RETURNDATASIZE PUSH1 0x0 DUP1 RETURNDATACOPY RETURNDATASIZE PUSH1 0x0 REVERT JUMPDEST POP POP POP POP PUSH1 0x40 MLOAD RETURNDATASIZE PUSH1 0x0 DUP3 RETURNDATACOPY PUSH1 0x1F RETURNDATASIZE SWAP1 DUP2 ADD PUSH1 0x1F NOT AND DUP3 ADD PUSH1 0x40 MSTORE PUSH2 0xA28 SWAP2 SWAP1 DUP2 ADD SWAP1 PUSH2 0x1559 JUMP JUMPDEST POP PUSH1 0x0 DUP7 DUP2 MSTORE PUSH1 0x2 PUSH1 0x20 MSTORE PUSH1 0x40 SWAP1 DUP2 SWAP1 KECCAK256 DUP1 SLOAD PUSH1 0xFF NOT AND PUSH1 0x1 OR SWAP1 SSTORE MLOAD PUSH32 0xE4A6407979DA9518DFBC88BFE7F0F53A52C4C16E1F54A90BF1FF721D341EF443 SWAP1 PUSH2 0xA72 SWAP1 DUP6 SWAP1 PUSH2 0x12AB JUMP JUMPDEST PUSH1 0x40 MLOAD DUP1 SWAP2 SUB SWAP1 LOG1 POP POP POP POP POP POP POP POP POP JUMP JUMPDEST PUSH2 0xA8D PUSH2 0xB7A JUMP JUMPDEST PUSH1 0x1 DUP1 SLOAD PUSH1 0x1 PUSH1 0x1 PUSH1 0xA0 SHL SUB NOT AND PUSH1 0x1 PUSH1 0x1 PUSH1 0xA0 SHL SUB DUP4 AND SWAP1 DUP2 OR SWAP1 SWAP2 SSTORE PUSH1 0x40 MLOAD SWAP1 DUP2 MSTORE PUSH32 0x7F8CFFD58AC96898BDD25AB64868BD933141D15AD1CD4A0DF228FD3FCBA2A26D SWAP1 PUSH1 0x20 ADD PUSH1 0x40 MLOAD DUP1 SWAP2 SUB SWAP1 LOG1 POP JUMP JUMPDEST PUSH2 0xAE9 PUSH2 0xB7A JUMP JUMPDEST PUSH1 0x1 PUSH1 0x1 PUSH1 0xA0 SHL SUB DUP2 AND PUSH2 0xB53 JUMPI PUSH1 0x40 MLOAD PUSH3 0x461BCD PUSH1 0xE5 SHL DUP2 MSTORE PUSH1 0x20 PUSH1 0x4 DUP3 ADD MSTORE PUSH1 0x26 PUSH1 0x24 DUP3 ADD MSTORE PUSH32 0x4F776E61626C653A206E6577206F776E657220697320746865207A65726F2061 PUSH1 0x44 DUP3 ADD MSTORE PUSH6 0x646472657373 PUSH1 0xD0 SHL PUSH1 0x64 DUP3 ADD MSTORE PUSH1 0x84 ADD JUMPDEST PUSH1 0x40 MLOAD DUP1 SWAP2 SUB SWAP1 REVERT JUMPDEST PUSH2 0xB5C DUP2 PUSH2 0xBD4 JUMP JUMPDEST POP JUMP JUMPDEST PUSH1 0x0 DUP2 DUP2 MSTORE PUSH1 0x1 DUP4 ADD PUSH1 0x20 MSTORE PUSH1 0x40 DUP2 KECCAK256 SLOAD ISZERO ISZERO JUMPDEST SWAP4 SWAP3 POP POP POP JUMP JUMPDEST PUSH1 0x0 SLOAD PUSH1 0x1 PUSH1 0x1 PUSH1 0xA0 SHL SUB AND CALLER EQ PUSH2 0x274 JUMPI PUSH1 0x40 MLOAD PUSH3 0x461BCD PUSH1 0xE5 SHL DUP2 MSTORE PUSH1 0x20 PUSH1 0x4 DUP3 ADD DUP2 SWAP1 MSTORE PUSH1 0x24 DUP3 ADD MSTORE PUSH32 0x4F776E61626C653A2063616C6C6572206973206E6F7420746865206F776E6572 PUSH1 0x44 DUP3 ADD MSTORE PUSH1 0x64 ADD PUSH2 0xB4A JUMP JUMPDEST PUSH1 0x0 DUP1 SLOAD PUSH1 0x1 PUSH1 0x1 PUSH1 0xA0 SHL SUB DUP4 DUP2 AND PUSH1 0x1 PUSH1 0x1 PUSH1 0xA0 SHL SUB NOT DUP4 AND DUP2 OR DUP5 SSTORE PUSH1 0x40 MLOAD SWAP2 SWAP1 SWAP3 AND SWAP3 DUP4 SWAP2 PUSH32 0x8BE0079C531659141344CD1FD0A4F28419497F9722A3DAAFE3B4186F6B6457E0 SWAP2 SWAP1 LOG3 POP POP JUMP JUMPDEST PUSH32 0x19457468657265756D205369676E6564204D6573736167653A0A333200000000 PUSH1 0x0 SWAP1 DUP2 MSTORE PUSH1 0x1C SWAP2 SWAP1 SWAP2 MSTORE PUSH1 0x3C SWAP1 KECCAK256 SWAP1 JUMP JUMPDEST PUSH1 0x1 SLOAD PUSH1 0x0 SWAP1 PUSH1 0x1 PUSH1 0x1 PUSH1 0xA0 SHL SUB AND EXTCODESIZE ISZERO PUSH2 0xD7E JUMPI PUSH1 0x1 SLOAD PUSH1 0x40 MLOAD PUSH1 0x0 SWAP2 DUP3 SWAP2 PUSH1 0x1 PUSH1 0x1 PUSH1 0xA0 SHL SUB SWAP1 SWAP2 AND SWAP1 PUSH4 0xB135D3F PUSH1 0xE1 SHL SWAP1 PUSH2 0xC9C SWAP1 DUP9 SWAP1 DUP9 SWAP1 PUSH1 0x24 ADD PUSH2 0x15FD JUMP JUMPDEST PUSH1 0x40 DUP1 MLOAD PUSH1 0x1F NOT DUP2 DUP5 SUB ADD DUP2 MSTORE SWAP2 DUP2 MSTORE PUSH1 0x20 DUP3 ADD DUP1 MLOAD PUSH1 0x1 PUSH1 0x1 PUSH1 0xE0 SHL SUB AND PUSH1 0x1 PUSH1 0x1 PUSH1 0xE0 SHL SUB NOT SWAP1 SWAP5 AND SWAP4 SWAP1 SWAP4 OR SWAP1 SWAP3 MSTORE SWAP1 MLOAD PUSH2 0xCDA SWAP2 SWAP1 PUSH2 0x1698 JUMP JUMPDEST PUSH1 0x0 PUSH1 0x40 MLOAD DUP1 DUP4 SUB DUP2 DUP6 GAS STATICCALL SWAP2 POP POP RETURNDATASIZE DUP1 PUSH1 0x0 DUP2 EQ PUSH2 0xD15 JUMPI PUSH1 0x40 MLOAD SWAP2 POP PUSH1 0x1F NOT PUSH1 0x3F RETURNDATASIZE ADD AND DUP3 ADD PUSH1 0x40 MSTORE RETURNDATASIZE DUP3 MSTORE RETURNDATASIZE PUSH1 0x0 PUSH1 0x20 DUP5 ADD RETURNDATACOPY PUSH2 0xD1A JUMP JUMPDEST PUSH1 0x60 SWAP2 POP JUMPDEST POP SWAP2 POP SWAP2 POP PUSH1 0x0 DUP3 DUP1 ISZERO PUSH2 0xD2F JUMPI POP DUP2 MLOAD PUSH1 0x20 EQ JUMPDEST DUP1 ISZERO PUSH2 0xD56 JUMPI POP DUP2 MLOAD PUSH4 0xB135D3F PUSH1 0xE1 SHL SWAP1 PUSH2 0xD54 SWAP1 DUP5 ADD PUSH1 0x20 SWAP1 DUP2 ADD SWAP1 DUP6 ADD PUSH2 0x16B4 JUMP JUMPDEST EQ JUMPDEST SWAP1 POP DUP1 PUSH2 0xD6B JUMPI PUSH1 0x1 PUSH1 0x1 PUSH1 0xE0 SHL SUB NOT PUSH2 0xD74 JUMP JUMPDEST PUSH4 0xB135D3F PUSH1 0xE1 SHL JUMPDEST SWAP4 POP POP POP POP PUSH2 0x1E3 JUMP JUMPDEST PUSH1 0x0 DUP1 PUSH2 0xD8B DUP6 DUP6 PUSH2 0xE5E JUMP JUMPDEST SWAP1 SWAP3 POP SWAP1 POP PUSH1 0x0 DUP2 PUSH1 0x4 DUP2 GT ISZERO PUSH2 0xDA4 JUMPI PUSH2 0xDA4 PUSH2 0x16CD JUMP JUMPDEST EQ PUSH2 0xDBC JUMPI POP PUSH1 0x1 PUSH1 0x1 PUSH1 0xE0 SHL SUB NOT SWAP2 POP PUSH2 0x1E3 SWAP1 POP JUMP JUMPDEST PUSH1 0x1 SLOAD PUSH1 0x1 PUSH1 0x1 PUSH1 0xA0 SHL SUB DUP4 DUP2 AND SWAP2 AND EQ PUSH2 0xDDF JUMPI PUSH1 0x1 PUSH1 0x1 PUSH1 0xE0 SHL SUB NOT PUSH2 0xDE8 JUMP JUMPDEST PUSH4 0xB135D3F PUSH1 0xE1 SHL JUMPDEST SWAP3 POP POP POP PUSH2 0x1E3 JUMP JUMPDEST PUSH1 0x0 DUP1 CALLDATASIZE PUSH2 0xE00 PUSH1 0x20 DUP3 PUSH2 0x16E3 JUMP JUMPDEST PUSH2 0xE0B SWAP3 DUP3 SWAP1 PUSH2 0x1704 JUMP JUMPDEST PUSH2 0xE14 SWAP2 PUSH2 0x172E JUMP JUMPDEST SWAP2 SWAP1 POP JUMP JUMPDEST PUSH1 0x0 DUP1 CALLDATASIZE PUSH2 0xE28 PUSH1 0x34 DUP3 PUSH2 0x16E3 JUMP JUMPDEST SWAP1 PUSH2 0xE34 PUSH1 0x20 CALLDATASIZE PUSH2 0x16E3 JUMP JUMPDEST SWAP3 PUSH2 0xE41 SWAP4 SWAP3 SWAP2 SWAP1 PUSH2 0x1704 JUMP JUMPDEST PUSH2 0xE4A SWAP2 PUSH2 0x174C JUMP JUMPDEST PUSH1 0x60 SHR SWAP1 POP SWAP1 JUMP JUMPDEST PUSH1 0x0 PUSH2 0xB73 DUP4 DUP4 PUSH2 0xEA3 JUMP JUMPDEST PUSH1 0x0 DUP1 DUP3 MLOAD PUSH1 0x41 SUB PUSH2 0xE94 JUMPI PUSH1 0x20 DUP4 ADD MLOAD PUSH1 0x40 DUP5 ADD MLOAD PUSH1 0x60 DUP6 ADD MLOAD PUSH1 0x0 BYTE PUSH2 0xE88 DUP8 DUP3 DUP6 DUP6 PUSH2 0xEF2 JUMP JUMPDEST SWAP5 POP SWAP5 POP POP POP POP PUSH2 0xE9C JUMP JUMPDEST POP PUSH1 0x0 SWAP1 POP PUSH1 0x2 JUMPDEST SWAP3 POP SWAP3 SWAP1 POP JUMP JUMPDEST PUSH1 0x0 DUP2 DUP2 MSTORE PUSH1 0x1 DUP4 ADD PUSH1 0x20 MSTORE PUSH1 0x40 DUP2 KECCAK256 SLOAD PUSH2 0xEEA JUMPI POP DUP2 SLOAD PUSH1 0x1 DUP2 DUP2 ADD DUP5 SSTORE PUSH1 0x0 DUP5 DUP2 MSTORE PUSH1 0x20 DUP1 DUP3 KECCAK256 SWAP1 SWAP4 ADD DUP5 SWAP1 SSTORE DUP5 SLOAD DUP5 DUP3 MSTORE DUP3 DUP7 ADD SWAP1 SWAP4 MSTORE PUSH1 0x40 SWAP1 KECCAK256 SWAP2 SWAP1 SWAP2 SSTORE PUSH2 0x1E3 JUMP JUMPDEST POP PUSH1 0x0 PUSH2 0x1E3 JUMP JUMPDEST PUSH1 0x0 DUP1 PUSH16 0xA2A8918CA85BAFE22016D0B997E4DF60 PUSH1 0x1 PUSH1 0xFF SHL SUB DUP4 GT ISZERO PUSH2 0xF1F JUMPI POP PUSH1 0x0 SWAP1 POP PUSH1 0x3 PUSH2 0xFA3 JUMP JUMPDEST PUSH1 0x40 DUP1 MLOAD PUSH1 0x0 DUP1 DUP3 MSTORE PUSH1 0x20 DUP3 ADD DUP1 DUP5 MSTORE DUP10 SWAP1 MSTORE PUSH1 0xFF DUP9 AND SWAP3 DUP3 ADD SWAP3 SWAP1 SWAP3 MSTORE PUSH1 0x60 DUP2 ADD DUP7 SWAP1 MSTORE PUSH1 0x80 DUP2 ADD DUP6 SWAP1 MSTORE PUSH1 0x1 SWAP1 PUSH1 0xA0 ADD PUSH1 0x20 PUSH1 0x40 MLOAD PUSH1 0x20 DUP2 SUB SWAP1 DUP1 DUP5 SUB SWAP1 DUP6 GAS STATICCALL ISZERO DUP1 ISZERO PUSH2 0xF73 JUMPI RETURNDATASIZE PUSH1 0x0 DUP1 RETURNDATACOPY RETURNDATASIZE PUSH1 0x0 REVERT JUMPDEST POP POP PUSH1 0x40 MLOAD PUSH1 0x1F NOT ADD MLOAD SWAP2 POP POP PUSH1 0x1 PUSH1 0x1 PUSH1 0xA0 SHL SUB DUP2 AND PUSH2 0xF9C JUMPI PUSH1 0x0 PUSH1 0x1 SWAP3 POP SWAP3 POP POP PUSH2 0xFA3 JUMP JUMPDEST SWAP2 POP PUSH1 0x0 SWAP1 POP JUMPDEST SWAP5 POP SWAP5 SWAP3 POP POP POP JUMP JUMPDEST PUSH1 0x0 PUSH1 0x20 DUP3 DUP5 SUB SLT ISZERO PUSH2 0xFBE JUMPI PUSH1 0x0 DUP1 REVERT JUMPDEST DUP2 CALLDATALOAD PUSH1 0x1 PUSH1 0x1 PUSH1 0xE0 SHL SUB NOT DUP2 AND DUP2 EQ PUSH2 0xB73 JUMPI PUSH1 0x0 DUP1 REVERT JUMPDEST PUSH1 0x1 PUSH1 0x1 PUSH1 0xA0 SHL SUB DUP2 AND DUP2 EQ PUSH2 0xB5C JUMPI PUSH1 0x0 DUP1 REVERT JUMPDEST DUP1 CALLDATALOAD PUSH2 0xE14 DUP2 PUSH2 0xFD6 JUMP JUMPDEST PUSH1 0x0 DUP1 PUSH1 0x0 PUSH1 0x60 DUP5 DUP7 SUB SLT ISZERO PUSH2 0x100B JUMPI PUSH1 0x0 DUP1 REVERT JUMPDEST DUP4 CALLDATALOAD PUSH2 0x1016 DUP2 PUSH2 0xFD6 JUMP JUMPDEST SWAP3 POP PUSH1 0x20 DUP5 ADD CALLDATALOAD PUSH2 0x1026 DUP2 PUSH2 0xFD6 JUMP JUMPDEST SWAP3 SWAP6 SWAP3 SWAP5 POP POP POP PUSH1 0x40 SWAP2 SWAP1 SWAP2 ADD CALLDATALOAD SWAP1 JUMP JUMPDEST PUSH4 0x4E487B71 PUSH1 0xE0 SHL PUSH1 0x0 MSTORE PUSH1 0x41 PUSH1 0x4 MSTORE PUSH1 0x24 PUSH1 0x0 REVERT JUMPDEST PUSH1 0x40 MLOAD PUSH1 0x1F DUP3 ADD PUSH1 0x1F NOT AND DUP2 ADD PUSH1 0x1 PUSH1 0x1 PUSH1 0x40 SHL SUB DUP2 GT DUP3 DUP3 LT OR ISZERO PUSH2 0x1075 JUMPI PUSH2 0x1075 PUSH2 0x1037 JUMP JUMPDEST PUSH1 0x40 MSTORE SWAP2 SWAP1 POP JUMP JUMPDEST PUSH1 0x0 PUSH1 0x1 PUSH1 0x1 PUSH1 0x40 SHL SUB DUP3 GT ISZERO PUSH2 0x1096 JUMPI PUSH2 0x1096 PUSH2 0x1037 JUMP JUMPDEST POP PUSH1 0x1F ADD PUSH1 0x1F NOT AND PUSH1 0x20 ADD SWAP1 JUMP JUMPDEST PUSH1 0x0 DUP3 PUSH1 0x1F DUP4 ADD SLT PUSH2 0x10B5 JUMPI PUSH1 0x0 DUP1 REVERT JUMPDEST DUP2 CALLDATALOAD PUSH2 0x10C8 PUSH2 0x10C3 DUP3 PUSH2 0x107D JUMP JUMPDEST PUSH2 0x104D JUMP JUMPDEST DUP2 DUP2 MSTORE DUP5 PUSH1 0x20 DUP4 DUP7 ADD ADD GT ISZERO PUSH2 0x10DD JUMPI PUSH1 0x0 DUP1 REVERT JUMPDEST DUP2 PUSH1 0x20 DUP6 ADD PUSH1 0x20 DUP4 ADD CALLDATACOPY PUSH1 0x0 SWAP2 DUP2 ADD PUSH1 0x20 ADD SWAP2 SWAP1 SWAP2 MSTORE SWAP4 SWAP3 POP POP POP JUMP JUMPDEST PUSH1 0x0 DUP1 PUSH1 0x0 DUP1 PUSH1 0x0 DUP1 PUSH1 0x0 DUP1 PUSH1 0x0 PUSH2 0x120 DUP11 DUP13 SUB SLT ISZERO PUSH2 0x1119 JUMPI PUSH1 0x0 DUP1 REVERT JUMPDEST PUSH2 0x1122 DUP11 PUSH2 0xFEB JUMP JUMPDEST SWAP9 POP PUSH2 0x1130 PUSH1 0x20 DUP12 ADD PUSH2 0xFEB JUMP JUMPDEST SWAP8 POP PUSH1 0x40 DUP11 ADD CALLDATALOAD SWAP7 POP PUSH1 0x60 DUP11 ADD CALLDATALOAD SWAP6 POP PUSH1 0x80 DUP11 ADD CALLDATALOAD SWAP5 POP PUSH1 0xA0 DUP11 ADD CALLDATALOAD SWAP4 POP PUSH1 0xC0 DUP11 ADD CALLDATALOAD PUSH1 0x1 PUSH1 0x1 PUSH1 0x40 SHL SUB DUP1 DUP3 GT ISZERO PUSH2 0x1168 JUMPI PUSH1 0x0 DUP1 REVERT JUMPDEST PUSH2 0x1174 DUP14 DUP4 DUP15 ADD PUSH2 0x10A4 JUMP JUMPDEST SWAP5 POP PUSH1 0xE0 DUP13 ADD CALLDATALOAD SWAP2 POP DUP1 DUP3 GT ISZERO PUSH2 0x118A JUMPI PUSH1 0x0 DUP1 REVERT JUMPDEST PUSH2 0x1196 DUP14 DUP4 DUP15 ADD PUSH2 0x10A4 JUMP JUMPDEST SWAP4 POP PUSH2 0x100 DUP13 ADD CALLDATALOAD SWAP2 POP DUP1 DUP3 GT ISZERO PUSH2 0x11AD JUMPI PUSH1 0x0 DUP1 REVERT JUMPDEST POP PUSH2 0x11BA DUP13 DUP3 DUP14 ADD PUSH2 0x10A4 JUMP JUMPDEST SWAP2 POP POP SWAP3 SWAP6 SWAP9 POP SWAP3 SWAP6 SWAP9 POP SWAP3 SWAP6 SWAP9 JUMP JUMPDEST PUSH1 0x0 DUP1 PUSH1 0x0 DUP1 PUSH1 0x0 DUP1 PUSH1 0xC0 DUP8 DUP10 SUB SLT ISZERO PUSH2 0x11E3 JUMPI PUSH1 0x0 DUP1 REVERT JUMPDEST DUP7 CALLDATALOAD PUSH2 0x11EE DUP2 PUSH2 0xFD6 JUMP JUMPDEST SWAP6 POP PUSH1 0x20 DUP8 ADD CALLDATALOAD SWAP5 POP PUSH1 0x40 DUP8 ADD CALLDATALOAD SWAP4 POP PUSH1 0x60 DUP8 ADD CALLDATALOAD SWAP3 POP PUSH1 0x80 DUP8 ADD CALLDATALOAD PUSH1 0x1 PUSH1 0x1 PUSH1 0x40 SHL SUB DUP1 DUP3 GT ISZERO PUSH2 0x121F JUMPI PUSH1 0x0 DUP1 REVERT JUMPDEST PUSH2 0x122B DUP11 DUP4 DUP12 ADD PUSH2 0x10A4 JUMP JUMPDEST SWAP4 POP PUSH1 0xA0 DUP10 ADD CALLDATALOAD SWAP2 POP DUP1 DUP3 GT ISZERO PUSH2 0x1241 JUMPI PUSH1 0x0 DUP1 REVERT JUMPDEST POP PUSH2 0x124E DUP10 DUP3 DUP11 ADD PUSH2 0x10A4 JUMP JUMPDEST SWAP2 POP POP SWAP3 SWAP6 POP SWAP3 SWAP6 POP SWAP3 SWAP6 JUMP JUMPDEST PUSH1 0x0 JUMPDEST DUP4 DUP2 LT ISZERO PUSH2 0x1276 JUMPI DUP2 DUP2 ADD MLOAD DUP4 DUP3 ADD MSTORE PUSH1 0x20 ADD PUSH2 0x125E JUMP JUMPDEST POP POP PUSH1 0x0 SWAP2 ADD MSTORE JUMP JUMPDEST PUSH1 0x0 DUP2 MLOAD DUP1 DUP5 MSTORE PUSH2 0x1297 DUP2 PUSH1 0x20 DUP7 ADD PUSH1 0x20 DUP7 ADD PUSH2 0x125B JUMP JUMPDEST PUSH1 0x1F ADD PUSH1 0x1F NOT AND SWAP3 SWAP1 SWAP3 ADD PUSH1 0x20 ADD SWAP3 SWAP2 POP POP JUMP JUMPDEST PUSH1 0x20 DUP2 MSTORE PUSH1 0x0 PUSH2 0xB73 PUSH1 0x20 DUP4 ADD DUP5 PUSH2 0x127F JUMP JUMPDEST PUSH1 0x0 DUP1 PUSH1 0x0 DUP1 PUSH1 0x0 DUP1 PUSH1 0x0 DUP1 PUSH2 0x100 DUP10 DUP12 SUB SLT ISZERO PUSH2 0x12DB JUMPI PUSH1 0x0 DUP1 REVERT JUMPDEST DUP9 CALLDATALOAD PUSH2 0x12E6 DUP2 PUSH2 0xFD6 JUMP JUMPDEST SWAP8 POP PUSH1 0x20 DUP10 ADD CALLDATALOAD SWAP7 POP PUSH1 0x40 DUP10 ADD CALLDATALOAD SWAP6 POP PUSH1 0x60 DUP10 ADD CALLDATALOAD PUSH2 0x1304 DUP2 PUSH2 0xFD6 JUMP JUMPDEST SWAP5 POP PUSH1 0x80 DUP10 ADD CALLDATALOAD SWAP4 POP PUSH1 0xA0 DUP10 ADD CALLDATALOAD SWAP3 POP PUSH1 0xC0 DUP10 ADD CALLDATALOAD PUSH1 0x1 PUSH1 0x1 PUSH1 0x40 SHL SUB DUP1 DUP3 GT ISZERO PUSH2 0x132E JUMPI PUSH1 0x0 DUP1 REVERT JUMPDEST PUSH2 0x133A DUP13 DUP4 DUP14 ADD PUSH2 0x10A4 JUMP JUMPDEST SWAP4 POP PUSH1 0xE0 DUP12 ADD CALLDATALOAD SWAP2 POP DUP1 DUP3 GT ISZERO PUSH2 0x1350 JUMPI PUSH1 0x0 DUP1 REVERT JUMPDEST POP PUSH2 0x135D DUP12 DUP3 DUP13 ADD PUSH2 0x10A4 JUMP JUMPDEST SWAP2 POP POP SWAP3 SWAP6 SWAP9 POP SWAP3 SWAP6 SWAP9 SWAP1 SWAP4 SWAP7 POP JUMP JUMPDEST PUSH1 0x0 DUP1 PUSH1 0x0 DUP1 PUSH1 0x0 DUP1 PUSH1 0x0 PUSH1 0xE0 DUP9 DUP11 SUB SLT ISZERO PUSH2 0x1388 JUMPI PUSH1 0x0 DUP1 REVERT JUMPDEST DUP8 CALLDATALOAD PUSH2 0x1393 DUP2 PUSH2 0xFD6 JUMP JUMPDEST SWAP7 POP PUSH1 0x20 DUP9 ADD CALLDATALOAD SWAP6 POP PUSH1 0x40 DUP9 ADD CALLDATALOAD SWAP5 POP PUSH1 0x60 DUP9 ADD CALLDATALOAD SWAP4 POP PUSH1 0x80 DUP9 ADD CALLDATALOAD PUSH1 0x1 PUSH1 0x1 PUSH1 0x40 SHL SUB DUP1 DUP3 GT ISZERO PUSH2 0x13C4 JUMPI PUSH1 0x0 DUP1 REVERT JUMPDEST PUSH2 0x13D0 DUP12 DUP4 DUP13 ADD PUSH2 0x10A4 JUMP JUMPDEST SWAP5 POP PUSH1 0xA0 DUP11 ADD CALLDATALOAD SWAP2 POP DUP1 DUP3 GT ISZERO PUSH2 0x13E6 JUMPI PUSH1 0x0 DUP1 REVERT JUMPDEST PUSH2 0x13F2 DUP12 DUP4 DUP13 ADD PUSH2 0x10A4 JUMP JUMPDEST SWAP4 POP PUSH1 0xC0 DUP11 ADD CALLDATALOAD SWAP2 POP DUP1 DUP3 GT ISZERO PUSH2 0x1408 JUMPI PUSH1 0x0 DUP1 REVERT JUMPDEST POP PUSH2 0x1415 DUP11 DUP3 DUP12 ADD PUSH2 0x10A4 JUMP JUMPDEST SWAP2 POP POP SWAP3 SWAP6 SWAP9 SWAP2 SWAP5 SWAP8 POP SWAP3 SWAP6 POP JUMP JUMPDEST PUSH1 0x0 PUSH1 0x20 DUP3 DUP5 SUB SLT ISZERO PUSH2 0x1436 JUMPI PUSH1 0x0 DUP1 REVERT JUMPDEST DUP2 CALLDATALOAD PUSH2 0xB73 DUP2 PUSH2 0xFD6 JUMP JUMPDEST PUSH1 0x0 DUP2 DUP4 DUP3 JUMPDEST PUSH1 0x2 DUP2 LT ISZERO PUSH2 0x1466 JUMPI DUP2 MLOAD DUP4 MSTORE PUSH1 0x20 SWAP3 DUP4 ADD SWAP3 SWAP1 SWAP2 ADD SWAP1 PUSH1 0x1 ADD PUSH2 0x1447 JUMP JUMPDEST POP POP POP PUSH1 0x40 DUP3 ADD SWAP1 POP SWAP3 SWAP2 POP POP JUMP JUMPDEST PUSH1 0x0 PUSH1 0x1 PUSH1 0x1 PUSH1 0x60 SHL SUB NOT DUP1 DUP12 AND DUP4 MSTORE DUP10 MLOAD PUSH2 0x1498 DUP2 PUSH1 0x14 DUP7 ADD PUSH1 0x20 DUP15 ADD PUSH2 0x125B JUMP JUMPDEST DUP10 MLOAD SWAP1 DUP5 ADD SWAP1 PUSH2 0x14AF DUP2 PUSH1 0x14 DUP5 ADD PUSH1 0x20 DUP15 ADD PUSH2 0x125B JUMP JUMPDEST DUP1 DUP3 ADD SWAP2 POP POP DUP2 DUP10 AND PUSH1 0x14 DUP3 ADD MSTORE DUP8 PUSH1 0x28 DUP3 ADD MSTORE DUP7 MLOAD SWAP2 POP PUSH2 0x14D8 DUP3 PUSH1 0x48 DUP4 ADD PUSH1 0x20 DUP11 ADD PUSH2 0x125B JUMP JUMPDEST ADD PUSH1 0x48 DUP2 ADD DUP6 SWAP1 MSTORE DUP4 MLOAD PUSH2 0x14F3 DUP2 PUSH1 0x68 DUP5 ADD PUSH1 0x20 DUP9 ADD PUSH2 0x125B JUMP JUMPDEST ADD PUSH1 0x68 ADD SWAP11 SWAP10 POP POP POP POP POP POP POP POP POP POP JUMP JUMPDEST PUSH1 0x0 PUSH1 0x20 DUP3 DUP5 SUB SLT ISZERO PUSH2 0x1517 JUMPI PUSH1 0x0 DUP1 REVERT JUMPDEST DUP2 MLOAD PUSH2 0xB73 DUP2 PUSH2 0xFD6 JUMP JUMPDEST DUP5 DUP2 MSTORE PUSH1 0x1 DUP1 PUSH1 0xA0 SHL SUB DUP5 AND PUSH1 0x20 DUP3 ADD MSTORE DUP3 PUSH1 0x40 DUP3 ADD MSTORE PUSH1 0x80 PUSH1 0x60 DUP3 ADD MSTORE PUSH1 0x0 PUSH2 0x154F PUSH1 0x80 DUP4 ADD DUP5 PUSH2 0x127F JUMP JUMPDEST SWAP7 SWAP6 POP POP POP POP POP POP JUMP JUMPDEST PUSH1 0x0 PUSH1 0x20 DUP3 DUP5 SUB SLT ISZERO PUSH2 0x156B JUMPI PUSH1 0x0 DUP1 REVERT JUMPDEST DUP2 MLOAD PUSH1 0x1 PUSH1 0x1 PUSH1 0x40 SHL SUB DUP2 GT ISZERO PUSH2 0x1581 JUMPI PUSH1 0x0 DUP1 REVERT JUMPDEST DUP3 ADD PUSH1 0x1F DUP2 ADD DUP5 SGT PUSH2 0x1592 JUMPI PUSH1 0x0 DUP1 REVERT JUMPDEST DUP1 MLOAD PUSH2 0x15A0 PUSH2 0x10C3 DUP3 PUSH2 0x107D JUMP JUMPDEST DUP2 DUP2 MSTORE DUP6 PUSH1 0x20 DUP4 DUP6 ADD ADD GT ISZERO PUSH2 0x15B5 JUMPI PUSH1 0x0 DUP1 REVERT JUMPDEST PUSH2 0x259 DUP3 PUSH1 0x20 DUP4 ADD PUSH1 0x20 DUP7 ADD PUSH2 0x125B JUMP JUMPDEST DUP1 MLOAD PUSH1 0x20 DUP3 ADD MLOAD PUSH1 0x1 PUSH1 0x1 PUSH1 0xF0 SHL SUB NOT DUP1 DUP3 AND SWAP3 SWAP2 SWAP1 PUSH1 0x2 DUP4 LT ISZERO PUSH2 0x15F5 JUMPI DUP1 DUP2 DUP5 PUSH1 0x2 SUB PUSH1 0x3 SHL SHL DUP4 AND AND SWAP4 POP JUMPDEST POP POP POP SWAP2 SWAP1 POP JUMP JUMPDEST DUP3 DUP2 MSTORE PUSH1 0x40 PUSH1 0x20 DUP3 ADD MSTORE PUSH1 0x0 PUSH2 0x1616 PUSH1 0x40 DUP4 ADD DUP5 PUSH2 0x127F JUMP JUMPDEST SWAP5 SWAP4 POP POP POP POP JUMP JUMPDEST PUSH1 0x1 PUSH1 0x1 PUSH1 0x60 SHL SUB NOT DUP8 AND DUP2 MSTORE PUSH1 0x0 DUP7 MLOAD PUSH2 0x1640 DUP2 PUSH1 0x14 DUP6 ADD PUSH1 0x20 DUP12 ADD PUSH2 0x125B JUMP JUMPDEST DUP7 MLOAD SWAP1 DUP4 ADD SWAP1 PUSH2 0x1657 DUP2 PUSH1 0x14 DUP5 ADD PUSH1 0x20 DUP12 ADD PUSH2 0x125B JUMP JUMPDEST ADD PUSH1 0x14 DUP2 ADD DUP7 SWAP1 MSTORE DUP5 MLOAD PUSH2 0x1672 DUP2 PUSH1 0x34 DUP5 ADD PUSH1 0x20 DUP10 ADD PUSH2 0x125B JUMP JUMPDEST DUP5 MLOAD SWAP2 ADD SWAP1 PUSH2 0x1688 DUP2 PUSH1 0x34 DUP5 ADD PUSH1 0x20 DUP9 ADD PUSH2 0x125B JUMP JUMPDEST ADD PUSH1 0x34 ADD SWAP9 SWAP8 POP POP POP POP POP POP POP POP JUMP JUMPDEST PUSH1 0x0 DUP3 MLOAD PUSH2 0x16AA DUP2 DUP5 PUSH1 0x20 DUP8 ADD PUSH2 0x125B JUMP JUMPDEST SWAP2 SWAP1 SWAP2 ADD SWAP3 SWAP2 POP POP JUMP JUMPDEST PUSH1 0x0 PUSH1 0x20 DUP3 DUP5 SUB SLT ISZERO PUSH2 0x16C6 JUMPI PUSH1 0x0 DUP1 REVERT JUMPDEST POP MLOAD SWAP2 SWAP1 POP JUMP JUMPDEST PUSH4 0x4E487B71 PUSH1 0xE0 SHL PUSH1 0x0 MSTORE PUSH1 0x21 PUSH1 0x4 MSTORE PUSH1 0x24 PUSH1 0x0 REVERT JUMPDEST DUP2 DUP2 SUB DUP2 DUP2 GT ISZERO PUSH2 0x1E3 JUMPI PUSH4 0x4E487B71 PUSH1 0xE0 SHL PUSH1 0x0 MSTORE PUSH1 0x11 PUSH1 0x4 MSTORE PUSH1 0x24 PUSH1 0x0 REVERT JUMPDEST PUSH1 0x0 DUP1 DUP6 DUP6 GT ISZERO PUSH2 0x1714 JUMPI PUSH1 0x0 DUP1 REVERT JUMPDEST DUP4 DUP7 GT ISZERO PUSH2 0x1721 JUMPI PUSH1 0x0 DUP1 REVERT JUMPDEST POP POP DUP3 ADD SWAP4 SWAP2 SWAP1 SWAP3 SUB SWAP2 POP JUMP JUMPDEST DUP1 CALLDATALOAD PUSH1 0x20 DUP4 LT ISZERO PUSH2 0x1E3 JUMPI PUSH1 0x0 NOT PUSH1 0x20 DUP5 SWAP1 SUB PUSH1 0x3 SHL SHL AND SWAP3 SWAP2 POP POP JUMP JUMPDEST PUSH12 0xFFFFFFFFFFFFFFFFFFFFFFFF NOT DUP2 CALLDATALOAD DUP2 DUP2 AND SWAP2 PUSH1 0x14 DUP6 LT ISZERO PUSH2 0x1779 JUMPI DUP1 DUP2 DUP7 PUSH1 0x14 SUB PUSH1 0x3 SHL SHL DUP4 AND AND SWAP3 POP JUMPDEST POP POP SWAP3 SWAP2 POP POP JUMP INVALID LOG2 PUSH5 0x6970667358 0x22 SLT KECCAK256 DUP7 0xB7 PUSH14 0xF625392D2A15B7336DDE345A87D9 0x5E SWAP16 PUSH1 0xC3 0xE9 PUSH19 0x9323D922B53FCC4F8564736F6C634300081400 CALLER "},"methodIdentifiers":{"VERSION()":"ffa1ad74","getOrderHash(address,uint256,uint256,bytes32,bytes,bytes)":"bfb6e08b","getRedeemPerkHash(address,uint256,uint256,address,bytes32,bytes32,bytes,bytes)":"d5212e3c","isPerkClaimed(address,address,bytes32)":"285ac885","owner()":"8da5cb5b","placeOrder(address,uint256,uint256,bytes32,bytes,bytes,bytes)":"db1e3ef3","redeemPerk(address,address,bytes32,uint256,uint256,bytes32,bytes,bytes,bytes)":"bbb9ddd3","renounceOwnership()":"715018a6","supportsInterface(bytes4)":"01ffc9a7","transferOwnership(address)":"f2fde38b","updateTarget(address)":"ea1b495f"}}}}}