{
  "_format": "hh-sol-artifact-1",
  "contractName": "LSP7Perk",
  "sourceName": "contracts/LSP7.sol",
  "abi": [
    {
      "inputs": [
        {
          "internalType": "string",
          "name": "name_",
          "type": "string"
        },
        {
          "internalType": "string",
          "name": "symbol_",
          "type": "string"
        },
        {
          "internalType": "address",
          "name": "newOwner_",
          "type": "address"
        }
      ],
      "stateMutability": "nonpayable",
      "type": "constructor"
    },
    {
      "inputs": [],
      "name": "ERC725Y_DataKeysValuesEmptyArray",
      "type": "error"
    },
    {
      "inputs": [],
      "name": "ERC725Y_DataKeysValuesLengthMismatch",
      "type": "error"
    },
    {
      "inputs": [],
      "name": "ERC725Y_MsgValueDisallowed",
      "type": "error"
    },
    {
      "inputs": [
        {
          "internalType": "bytes",
          "name": "storedData",
          "type": "bytes"
        }
      ],
      "name": "InvalidExtensionAddress",
      "type": "error"
    },
    {
      "inputs": [
        {
          "internalType": "bytes",
          "name": "data",
          "type": "bytes"
        }
      ],
      "name": "InvalidFunctionSelector",
      "type": "error"
    },
    {
      "inputs": [],
      "name": "LSP4TokenNameNotEditable",
      "type": "error"
    },
    {
      "inputs": [],
      "name": "LSP4TokenSymbolNotEditable",
      "type": "error"
    },
    {
      "inputs": [],
      "name": "LSP4TokenTypeNotEditable",
      "type": "error"
    },
    {
      "inputs": [
        {
          "internalType": "address",
          "name": "tokenOwner",
          "type": "address"
        },
        {
          "internalType": "uint256",
          "name": "authorizedAmount",
          "type": "uint256"
        },
        {
          "internalType": "address",
          "name": "operator",
          "type": "address"
        },
        {
          "internalType": "uint256",
          "name": "amount",
          "type": "uint256"
        }
      ],
      "name": "LSP7AmountExceedsAuthorizedAmount",
      "type": "error"
    },
    {
      "inputs": [
        {
          "internalType": "uint256",
          "name": "balance",
          "type": "uint256"
        },
        {
          "internalType": "address",
          "name": "tokenOwner",
          "type": "address"
        },
        {
          "internalType": "uint256",
          "name": "amount",
          "type": "uint256"
        }
      ],
      "name": "LSP7AmountExceedsBalance",
      "type": "error"
    },
    {
      "inputs": [
        {
          "internalType": "uint256",
          "name": "callIndex",
          "type": "uint256"
        }
      ],
      "name": "LSP7BatchCallFailed",
      "type": "error"
    },
    {
      "inputs": [],
      "name": "LSP7CannotSendWithAddressZero",
      "type": "error"
    },
    {
      "inputs": [],
      "name": "LSP7CannotUseAddressZeroAsOperator",
      "type": "error"
    },
    {
      "inputs": [
        {
          "internalType": "address",
          "name": "caller",
          "type": "address"
        },
        {
          "internalType": "address",
          "name": "tokenOwner",
          "type": "address"
        },
        {
          "internalType": "address",
          "name": "operator",
          "type": "address"
        }
      ],
      "name": "LSP7DecreaseAllowanceNotAuthorized",
      "type": "error"
    },
    {
      "inputs": [],
      "name": "LSP7DecreasedAllowanceBelowZero",
      "type": "error"
    },
    {
      "inputs": [],
      "name": "LSP7InvalidTransferBatch",
      "type": "error"
    },
    {
      "inputs": [
        {
          "internalType": "address",
          "name": "tokenReceiver",
          "type": "address"
        }
      ],
      "name": "LSP7NotifyTokenReceiverContractMissingLSP1Interface",
      "type": "error"
    },
    {
      "inputs": [
        {
          "internalType": "address",
          "name": "tokenReceiver",
          "type": "address"
        }
      ],
      "name": "LSP7NotifyTokenReceiverIsEOA",
      "type": "error"
    },
    {
      "inputs": [
        {
          "internalType": "address",
          "name": "caller",
          "type": "address"
        },
        {
          "internalType": "address",
          "name": "tokenOwner",
          "type": "address"
        },
        {
          "internalType": "address",
          "name": "operator",
          "type": "address"
        }
      ],
      "name": "LSP7RevokeOperatorNotAuthorized",
      "type": "error"
    },
    {
      "inputs": [],
      "name": "LSP7TokenContractCannotHoldValue",
      "type": "error"
    },
    {
      "inputs": [],
      "name": "LSP7TokenOwnerCannotBeOperator",
      "type": "error"
    },
    {
      "inputs": [
        {
          "internalType": "bytes4",
          "name": "functionSelector",
          "type": "bytes4"
        }
      ],
      "name": "NoExtensionFoundForFunctionSelector",
      "type": "error"
    },
    {
      "inputs": [
        {
          "internalType": "address",
          "name": "operator",
          "type": "address"
        }
      ],
      "name": "OperatorAllowanceCannotBeIncreasedFromZero",
      "type": "error"
    },
    {
      "anonymous": false,
      "inputs": [
        {
          "indexed": true,
          "internalType": "bytes32",
          "name": "dataKey",
          "type": "bytes32"
        },
        {
          "indexed": false,
          "internalType": "bytes",
          "name": "dataValue",
          "type": "bytes"
        }
      ],
      "name": "DataChanged",
      "type": "event"
    },
    {
      "anonymous": false,
      "inputs": [
        {
          "indexed": true,
          "internalType": "address",
          "name": "operator",
          "type": "address"
        },
        {
          "indexed": true,
          "internalType": "address",
          "name": "tokenOwner",
          "type": "address"
        },
        {
          "indexed": true,
          "internalType": "uint256",
          "name": "amount",
          "type": "uint256"
        },
        {
          "indexed": false,
          "internalType": "bytes",
          "name": "operatorNotificationData",
          "type": "bytes"
        }
      ],
      "name": "OperatorAuthorizationChanged",
      "type": "event"
    },
    {
      "anonymous": false,
      "inputs": [
        {
          "indexed": true,
          "internalType": "address",
          "name": "operator",
          "type": "address"
        },
        {
          "indexed": true,
          "internalType": "address",
          "name": "tokenOwner",
          "type": "address"
        },
        {
          "indexed": true,
          "internalType": "bool",
          "name": "notified",
          "type": "bool"
        },
        {
          "indexed": false,
          "internalType": "bytes",
          "name": "operatorNotificationData",
          "type": "bytes"
        }
      ],
      "name": "OperatorRevoked",
      "type": "event"
    },
    {
      "anonymous": false,
      "inputs": [
        {
          "indexed": true,
          "internalType": "address",
          "name": "previousOwner",
          "type": "address"
        },
        {
          "indexed": true,
          "internalType": "address",
          "name": "newOwner",
          "type": "address"
        }
      ],
      "name": "OwnershipTransferred",
      "type": "event"
    },
    {
      "anonymous": false,
      "inputs": [
        {
          "indexed": false,
          "internalType": "address",
          "name": "",
          "type": "address"
        },
        {
          "indexed": false,
          "internalType": "uint256",
          "name": "",
          "type": "uint256"
        }
      ],
      "name": "Received",
      "type": "event"
    },
    {
      "anonymous": false,
      "inputs": [
        {
          "indexed": true,
          "internalType": "address",
          "name": "operator",
          "type": "address"
        },
        {
          "indexed": true,
          "internalType": "address",
          "name": "from",
          "type": "address"
        },
        {
          "indexed": true,
          "internalType": "address",
          "name": "to",
          "type": "address"
        },
        {
          "indexed": false,
          "internalType": "uint256",
          "name": "amount",
          "type": "uint256"
        },
        {
          "indexed": false,
          "internalType": "bool",
          "name": "force",
          "type": "bool"
        },
        {
          "indexed": false,
          "internalType": "bytes",
          "name": "data",
          "type": "bytes"
        }
      ],
      "name": "Transfer",
      "type": "event"
    },
    {
      "stateMutability": "payable",
      "type": "fallback"
    },
    {
      "inputs": [
        {
          "internalType": "address",
          "name": "operator",
          "type": "address"
        },
        {
          "internalType": "uint256",
          "name": "amount",
          "type": "uint256"
        },
        {
          "internalType": "bytes",
          "name": "operatorNotificationData",
          "type": "bytes"
        }
      ],
      "name": "authorizeOperator",
      "outputs": [],
      "stateMutability": "nonpayable",
      "type": "function"
    },
    {
      "inputs": [
        {
          "internalType": "address",
          "name": "operator",
          "type": "address"
        },
        {
          "internalType": "address",
          "name": "tokenOwner",
          "type": "address"
        }
      ],
      "name": "authorizedAmountFor",
      "outputs": [
        {
          "internalType": "uint256",
          "name": "",
          "type": "uint256"
        }
      ],
      "stateMutability": "view",
      "type": "function"
    },
    {
      "inputs": [
        {
          "internalType": "address",
          "name": "tokenOwner",
          "type": "address"
        }
      ],
      "name": "balanceOf",
      "outputs": [
        {
          "internalType": "uint256",
          "name": "",
          "type": "uint256"
        }
      ],
      "stateMutability": "view",
      "type": "function"
    },
    {
      "inputs": [
        {
          "internalType": "bytes[]",
          "name": "data",
          "type": "bytes[]"
        }
      ],
      "name": "batchCalls",
      "outputs": [
        {
          "internalType": "bytes[]",
          "name": "results",
          "type": "bytes[]"
        }
      ],
      "stateMutability": "nonpayable",
      "type": "function"
    },
    {
      "inputs": [],
      "name": "decimals",
      "outputs": [
        {
          "internalType": "uint8",
          "name": "",
          "type": "uint8"
        }
      ],
      "stateMutability": "view",
      "type": "function"
    },
    {
      "inputs": [
        {
          "internalType": "address",
          "name": "operator",
          "type": "address"
        },
        {
          "internalType": "address",
          "name": "tokenOwner",
          "type": "address"
        },
        {
          "internalType": "uint256",
          "name": "subtractedAmount",
          "type": "uint256"
        },
        {
          "internalType": "bytes",
          "name": "operatorNotificationData",
          "type": "bytes"
        }
      ],
      "name": "decreaseAllowance",
      "outputs": [],
      "stateMutability": "nonpayable",
      "type": "function"
    },
    {
      "inputs": [
        {
          "internalType": "bytes32",
          "name": "dataKey",
          "type": "bytes32"
        }
      ],
      "name": "getData",
      "outputs": [
        {
          "internalType": "bytes",
          "name": "dataValue",
          "type": "bytes"
        }
      ],
      "stateMutability": "view",
      "type": "function"
    },
    {
      "inputs": [
        {
          "internalType": "bytes32[]",
          "name": "dataKeys",
          "type": "bytes32[]"
        }
      ],
      "name": "getDataBatch",
      "outputs": [
        {
          "internalType": "bytes[]",
          "name": "dataValues",
          "type": "bytes[]"
        }
      ],
      "stateMutability": "view",
      "type": "function"
    },
    {
      "inputs": [
        {
          "internalType": "address",
          "name": "tokenOwner",
          "type": "address"
        }
      ],
      "name": "getOperatorsOf",
      "outputs": [
        {
          "internalType": "address[]",
          "name": "",
          "type": "address[]"
        }
      ],
      "stateMutability": "view",
      "type": "function"
    },
    {
      "inputs": [
        {
          "internalType": "address",
          "name": "operator",
          "type": "address"
        },
        {
          "internalType": "uint256",
          "name": "addedAmount",
          "type": "uint256"
        },
        {
          "internalType": "bytes",
          "name": "operatorNotificationData",
          "type": "bytes"
        }
      ],
      "name": "increaseAllowance",
      "outputs": [],
      "stateMutability": "nonpayable",
      "type": "function"
    },
    {
      "inputs": [
        {
          "internalType": "address",
          "name": "receiver",
          "type": "address"
        },
        {
          "internalType": "uint256",
          "name": "amount",
          "type": "uint256"
        }
      ],
      "name": "mint",
      "outputs": [],
      "stateMutability": "nonpayable",
      "type": "function"
    },
    {
      "inputs": [],
      "name": "owner",
      "outputs": [
        {
          "internalType": "address",
          "name": "",
          "type": "address"
        }
      ],
      "stateMutability": "view",
      "type": "function"
    },
    {
      "inputs": [],
      "name": "renounceOwnership",
      "outputs": [],
      "stateMutability": "nonpayable",
      "type": "function"
    },
    {
      "inputs": [
        {
          "internalType": "address",
          "name": "operator",
          "type": "address"
        },
        {
          "internalType": "address",
          "name": "tokenOwner",
          "type": "address"
        },
        {
          "internalType": "bool",
          "name": "notify",
          "type": "bool"
        },
        {
          "internalType": "bytes",
          "name": "operatorNotificationData",
          "type": "bytes"
        }
      ],
      "name": "revokeOperator",
      "outputs": [],
      "stateMutability": "nonpayable",
      "type": "function"
    },
    {
      "inputs": [
        {
          "internalType": "bytes32",
          "name": "dataKey",
          "type": "bytes32"
        },
        {
          "internalType": "bytes",
          "name": "dataValue",
          "type": "bytes"
        }
      ],
      "name": "setData",
      "outputs": [],
      "stateMutability": "payable",
      "type": "function"
    },
    {
      "inputs": [
        {
          "internalType": "bytes32[]",
          "name": "dataKeys",
          "type": "bytes32[]"
        },
        {
          "internalType": "bytes[]",
          "name": "dataValues",
          "type": "bytes[]"
        }
      ],
      "name": "setDataBatch",
      "outputs": [],
      "stateMutability": "payable",
      "type": "function"
    },
    {
      "inputs": [
        {
          "internalType": "bytes4",
          "name": "interfaceId",
          "type": "bytes4"
        }
      ],
      "name": "supportsInterface",
      "outputs": [
        {
          "internalType": "bool",
          "name": "",
          "type": "bool"
        }
      ],
      "stateMutability": "view",
      "type": "function"
    },
    {
      "inputs": [],
      "name": "totalSupply",
      "outputs": [
        {
          "internalType": "uint256",
          "name": "",
          "type": "uint256"
        }
      ],
      "stateMutability": "view",
      "type": "function"
    },
    {
      "inputs": [
        {
          "internalType": "address",
          "name": "from",
          "type": "address"
        },
        {
          "internalType": "address",
          "name": "to",
          "type": "address"
        },
        {
          "internalType": "uint256",
          "name": "amount",
          "type": "uint256"
        },
        {
          "internalType": "bool",
          "name": "force",
          "type": "bool"
        },
        {
          "internalType": "bytes",
          "name": "data",
          "type": "bytes"
        }
      ],
      "name": "transfer",
      "outputs": [],
      "stateMutability": "nonpayable",
      "type": "function"
    },
    {
      "inputs": [
        {
          "internalType": "address[]",
          "name": "from",
          "type": "address[]"
        },
        {
          "internalType": "address[]",
          "name": "to",
          "type": "address[]"
        },
        {
          "internalType": "uint256[]",
          "name": "amount",
          "type": "uint256[]"
        },
        {
          "internalType": "bool[]",
          "name": "force",
          "type": "bool[]"
        },
        {
          "internalType": "bytes[]",
          "name": "data",
          "type": "bytes[]"
        }
      ],
      "name": "transferBatch",
      "outputs": [],
      "stateMutability": "nonpayable",
      "type": "function"
    },
    {
      "inputs": [
        {
          "internalType": "address",
          "name": "newOwner",
          "type": "address"
        }
      ],
      "name": "transferOwnership",
      "outputs": [],
      "stateMutability": "nonpayable",
      "type": "function"
    },
    {
      "stateMutability": "payable",
      "type": "receive"
    }
  ],
  "bytecode": "0x60806040523480156200001157600080fd5b5060405162002bd138038062002bd183398101604081905262000034916200034f565b82828260018084848483816001600160a01b038116620000a95760405162461bcd60e51b815260206004820152602660248201527f4f776e61626c653a206e6577206f776e657220697320746865207a65726f206160448201526564647265737360d01b606482015260840160405180910390fd5b620000b481620001c2565b506040805180820190915260048152632936598960e21b6020820152620000fd907feafec4d89fa9619884b60000a4d96624a38f7ac2d8d9a604ecf07c12c77e480c9062000229565b620001297fdeba1e292f8ba88238e10ab3c7f88bd4be4fac56cad5194b6ecceaf653468af18562000229565b620001557f2f0a68ab07768e01943a599e73362a0e17a63a72e94dd2e384d2c1d4db9327568462000229565b60408051602081018390526200019e917fe0261fa95db2eb3b5439bd033cda66d56b96f92f243a8228fd87550ed7bdfdb3910160408051601f1981840301815291905262000229565b50506002805460ff191693151593909317909255506200056c975050505050505050565b6000546001600160a01b038281169116146200022657600080546001600160a01b038381166001600160a01b0319831681178455604051919092169283917f8be0079c531659141344cd1fd0a4f28419497f9722a3daafe3b4186f6b6457e09190a3505b50565b60008281526001602052604090206200024382826200046b565b50817fece574603820d07bc9b91f2a932baadf4628aabcb8afba49776529c14a6104b28260405162000276919062000537565b60405180910390a25050565b634e487b7160e01b600052604160045260246000fd5b60005b83811015620002b55781810151838201526020016200029b565b50506000910152565b600082601f830112620002d057600080fd5b81516001600160401b0380821115620002ed57620002ed62000282565b604051601f8301601f19908116603f0116810190828211818310171562000318576200031862000282565b816040528381528660208588010111156200033257600080fd5b6200034584602083016020890162000298565b9695505050505050565b6000806000606084860312156200036557600080fd5b83516001600160401b03808211156200037d57600080fd5b6200038b87838801620002be565b94506020860151915080821115620003a257600080fd5b50620003b186828701620002be565b604086015190935090506001600160a01b0381168114620003d157600080fd5b809150509250925092565b600181811c90821680620003f157607f821691505b6020821081036200041257634e487b7160e01b600052602260045260246000fd5b50919050565b601f8211156200046657600081815260208120601f850160051c81016020861015620004415750805b601f850160051c820191505b8181101562000462578281556001016200044d565b5050505b505050565b81516001600160401b0381111562000487576200048762000282565b6200049f81620004988454620003dc565b8462000418565b602080601f831160018114620004d75760008415620004be5750858301515b600019600386901b1c1916600185901b17855562000462565b600085815260208120601f198616915b828110156200050857888601518255948401946001909101908401620004e7565b5085821015620005275787850151600019600388901b60f8161c191681555b5050505050600190811b01905550565b60208152600082518060208401526200055881604085016020870162000298565b601f01601f19169190910160400192915050565b612655806200057c6000396000f3fe60806040526004361061012e5760003560e01c806370a08231116100ab5780638da5cb5b1161006f5780638da5cb5b146103df5780639790242114610405578063b49506fd14610418578063d72fc29a14610438578063dedff9c614610465578063f2fde38b1461048557610189565b806370a0823114610341578063715018a614610377578063760d9bba1461038c57806378381670146103ac5780637f23690c146103cc57610189565b8063313ce567116100f2578063313ce5671461028057806340c10f19146102a757806354f6127f146102c757806365aeaa95146102f45780636963d4381461031457610189565b806301ffc9a7146101ca57806318160ddd146101ff5780632bc1da821461021e5780632d7667c91461024057806330d0dc371461026057610189565b3661018957346000036101705760405163e5099ee360e01b81526004016101679060208082526004908201526000604082015260600190565b60405180910390fd5b604051630e23d6b760e21b815260040160405180910390fd5b600036606060048210156101b457828260405163e5099ee360e01b81526004016101679291906119a7565b6101be83836104a5565b80519350602001915050f35b3480156101d657600080fd5b506101ea6101e53660046119d6565b61059b565b60405190151581526020015b60405180910390f35b34801561020b57600080fd5b506003545b6040519081526020016101f6565b34801561022a57600080fd5b5061023e610239366004611adf565b6105cf565b005b34801561024c57600080fd5b5061023e61025b366004611d11565b610656565b34801561026c57600080fd5b5061023e61027b366004611de2565b610745565b34801561028c57600080fd5b506102956107da565b60405160ff90911681526020016101f6565b3480156102b357600080fd5b5061023e6102c2366004611e50565b6107f3565b3480156102d357600080fd5b506102e76102e2366004611e7a565b610826565b6040516101f69190611ee3565b34801561030057600080fd5b5061021061030f366004611ef6565b610831565b34801561032057600080fd5b5061033461032f366004611f29565b610897565b6040516101f69190611f9d565b34801561034d57600080fd5b5061021061035c366004611fff565b6001600160a01b031660009081526004602052604090205490565b34801561038357600080fd5b5061023e6109cd565b34801561039857600080fd5b5061023e6103a736600461201a565b6109e1565b3480156103b857600080fd5b5061023e6103c7366004612085565b610a09565b61023e6103da3660046120d4565b610ac1565b3480156103eb57600080fd5b506000546001600160a01b03166040516101f6919061211a565b61023e61041336600461212e565b610af2565b34801561042457600080fd5b5061023e610433366004611adf565b610bb2565b34801561044457600080fd5b50610458610453366004611fff565b610bf2565b6040516101f69190612187565b34801561047157600080fd5b506103346104803660046121d4565b610c16565b34801561049157600080fd5b5061023e6104a0366004611fff565b610cc0565b606060006104be6000356001600160e01b031916610d39565b5090506001600160a01b0381166104f6576000356001600160e01b03191660405163bb370b2b60e01b81526004016101679190612208565b600080826001600160a01b0316348787333460405160200161051b949392919061221d565b60408051601f198184030181529082905261053591612248565b60006040518083038185875af1925050503d8060008114610572576040519150601f19603f3d011682016040523d82523d6000602084013e610577565b606091505b5091509150811561058c579250610595915050565b80518060208301fd5b92915050565b60006001600160e01b031982166318a5ac0160e31b14806105c057506105c082610db7565b80610595575061059582610ddc565b60006105db8433610831565b905080600003610600578360405163cba6e97760e01b8152600401610167919061211a565b600061060c848361227a565b905061061c338683600187610e1a565b60003382856040516020016106339392919061228d565b604051602081830303815290604052905061064e8682610f8d565b505050505050565b8451845181141580610669575083518114155b80610675575082518114155b80610681575081518114155b1561069f5760405163263eee8d60e01b815260040160405180910390fd5b60005b8181101561073c576107348782815181106106bf576106bf6122bd565b60200260200101518783815181106106d9576106d96122bd565b60200260200101518784815181106106f3576106f36122bd565b602002602001015187858151811061070d5761070d6122bd565b6020026020010151878681518110610727576107276122bd565b60200260200101516109e1565b6001016106a2565b50505050505050565b336001600160a01b038416148015906107675750336001600160a01b03851614155b1561078b57338385604051630d292d9960e11b8152600401610167939291906122d3565b610799838560008585610e1a565b81156107d4576000836000836040516020016107b7939291906122f6565b60405160208183030381529060405290506107d28582610f8d565b505b50505050565b60025460009060ff166107ed5750601290565b50600090565b6107fb610fb8565b6108228282600060405180604001604052806002815260200161060f60f31b815250611021565b5050565b606061059582611110565b6000826001600160a01b0316826001600160a01b03160361086b57506001600160a01b038116600090815260046020526040902054610595565b506001600160a01b03808216600090815260066020908152604080832093861683529290522054610595565b6060816001600160401b038111156108b1576108b1611a1c565b6040519080825280602002602001820160405280156108e457816020015b60608152602001906001900390816108cf5790505b50905060005b828110156109c65760008030868685818110610908576109086122bd565b905060200281019061091a9190612323565b604051610928929190612370565b600060405180830381855af49150503d8060008114610963576040519150601f19603f3d011682016040523d82523d6000602084013e610968565b606091505b50915091508161099e578051156109825780518082602001fd5b604051632ddd30a160e21b815260048101849052602401610167565b808484815181106109b1576109b16122bd565b602090810291909101015250506001016108ea565b5092915050565b6109d5610fb8565b6109df60006111b2565b565b336001600160a01b038616146109fc576109fc338685611217565b6107d285858585856112a5565b336001600160a01b03841614801590610a2b5750336001600160a01b03851614155b15610a4f573383856040516398ce294560e01b8152600401610167939291906122d3565b6000610a5b8585610831565b905082811015610a7e57604051630ef76c3560e01b815260040160405180910390fd5b828103610a8f858783600187610e1a565b6000858285604051602001610aa69392919061228d565b604051602081830303815290604052905061073c8782610f8d565b610ac9610fb8565b3415610ae85760405163f36ba73760e01b815260040160405180910390fd5b6108228282611429565b610afa610fb8565b3415610b195760405163f36ba73760e01b815260040160405180910390fd5b8051825114610b3b57604051633bcc897960e01b815260040160405180910390fd5b8151600003610b5d576040516397da5f9560e01b815260040160405180910390fd5b60005b8251811015610bad57610ba5838281518110610b7e57610b7e6122bd565b6020026020010151838381518110610b9857610b986122bd565b6020026020010151611429565b600101610b60565b505050565b610bc0338484600185610e1a565b6000338383604051602001610bd79392919061228d565b60405160208183030381529060405290506107d48482610f8d565b6001600160a01b038116600090815260056020526040902060609061059590611433565b606081516001600160401b03811115610c3157610c31611a1c565b604051908082528060200260200182016040528015610c6457816020015b6060815260200190600190039081610c4f5790505b50905060005b8251811015610cba57610c95838281518110610c8857610c886122bd565b6020026020010151611110565b828281518110610ca757610ca76122bd565b6020908102919091010152600101610c6a565b50919050565b610cc8610fb8565b6001600160a01b038116610d2d5760405162461bcd60e51b815260206004820152602660248201527f4f776e61626c653a206e6577206f776e657220697320746865207a65726f206160448201526564647265737360d01b6064820152608401610167565b610d36816111b2565b50565b60008080610d5e696773c5a04a6d4300884b60b11b6001600160e01b03198616611440565b90506000610d6b82611110565b90508051601414158015610d7f5750805115155b15610d9f57806040516342bfe79f60e01b81526004016101679190611ee3565b610da881612380565b60601c95600195509350505050565b60006001600160e01b0319821663a918fa6b60e01b1480610595575061059582611494565b600080610def6301ffc9a760e01b610d39565b5090506001600160a01b038116610e095750600092915050565b610e1381846114c9565b9392505050565b6001600160a01b038416610e41576040516331aaf3b360e11b815260040160405180910390fd5b846001600160a01b0316846001600160a01b031603610e735760405163dab7504760e01b815260040160405180910390fd5b6001600160a01b0380861660009081526006602090815260408083209388168352929052208390558215610f15576001600160a01b0385166000908152600560205260409020610ec3908561155d565b5082856001600160a01b0316856001600160a01b03167ff772a43bfdf4729b196e3fb54a818b91a2ca6c49d10b2e16278752f9f515c25d84604051610f089190611ee3565b60405180910390a46107d2565b6001600160a01b0385166000908152600560205260409020610f379085611572565b50811515856001600160a01b0316856001600160a01b03167f0ebf5762d8855cbe012d2ca42fb33a81175e17c8a8751f8859931ba453bd416784604051610f7e9190611ee3565b60405180910390a45050505050565b610822827f386072cc5a58e61263b434c722725f21031cd06e7c552cfaa06db5de8a320dbc83611587565b33610fcb6000546001600160a01b031690565b6001600160a01b0316146109df5760405162461bcd60e51b815260206004820181905260248201527f4f776e61626c653a2063616c6c6572206973206e6f7420746865206f776e65726044820152606401610167565b6001600160a01b03841661104857604051630d2d5ec360e41b815260040160405180910390fd5b826003600082825461105a919061227a565b90915550506001600160a01b0384166000908152600460205260408120805485929061108790849061227a565b90915550506040516001600160a01b0385169060009033907f3997e418d2cef0b3b0e907b1e39605c3f7d32dbd061e82ea5b4a770d46a160a6906110d0908890889088906123b7565b60405180910390a460003360008686856040516020016110f49594939291906123d8565b60405160208183030381529060405290506107d285848361161b565b600081815260016020526040902080546060919061112d90612413565b80601f016020809104026020016040519081016040528092919081815260200182805461115990612413565b80156111a65780601f1061117b576101008083540402835291602001916111a6565b820191906000526020600020905b81548152906001019060200180831161118957829003601f168201915b50505050509050919050565b6000546001600160a01b03828116911614610d3657600080546001600160a01b038381166001600160a01b0319831681178455604051919092169283917f8be0079c531659141344cd1fd0a4f28419497f9722a3daafe3b4186f6b6457e09190a35050565b6001600160a01b038083166000908152600660209081526040808320938716835292905220548082111561127f5760405163f3a6b69160e01b81526001600160a01b038085166004830152602482018390528516604482015260648101839052608401610167565b6107d4838561128e8585612447565b600060405180602001604052806000815250610e1a565b6001600160a01b03851615806112c257506001600160a01b038416155b156112e057604051630d2d5ec360e41b815260040160405180910390fd5b6001600160a01b03851660009081526004602052604090205480841115611333576040516308d4794960e01b8152600481018290526001600160a01b038716602482015260448101859052606401610167565b6001600160a01b0386166000908152600460205260408120805486929061135b908490612447565b90915550506001600160a01b0385166000908152600460205260408120805486929061138890849061227a565b92505081905550846001600160a01b0316866001600160a01b0316336001600160a01b03167f3997e418d2cef0b3b0e907b1e39605c3f7d32dbd061e82ea5b4a770d46a160a68787876040516113e0939291906123b7565b60405180910390a4600033878787866040516020016114039594939291906123d8565b604051602081830303815290604052905061141e87826116ca565b61073c86858361161b565b61082282826116f5565b60606000610e138361180a565b604080516001600160b01b0319841660208201526000602a82018190526001600160601b03198416602c8301529182910160405160208183030381529060405290508061148c9061245a565b949350505050565b60006001600160e01b031982166318a6a9a560e21b148061059557506301ffc9a760e01b6001600160e01b0319831614610595565b6000806301ffc9a760e01b836040516024016114e59190612208565b604051602081830303815290604052906001600160e01b0319166020820180516001600160e01b03838183161783525050505090506000806000602060008551602087018a617530fa92503d91506000519050828015611546575060208210155b80156115525750600081115b979650505050505050565b6000610e13836001600160a01b038416611865565b6000610e13836001600160a01b0384166118b4565b6115a16001600160a01b038416631aed5a8560e21b6114c9565b15610bad57604051631aed5a8560e21b81526001600160a01b03841690636bb56a14906115d4908590859060040161247e565b6000604051808303816000875af11580156115f3573d6000803e3d6000fd5b505050506040513d6000823e601f3d908101601f191682016040526107d49190810190612497565b61162c83631aed5a8560e21b6114c9565b1561167f57604051631aed5a8560e21b81526001600160a01b03841690636bb56a14906115d4907f20804611b3e2ea21c480dc465142210acf4a2485947541770ec1fb87dee4a55c90859060040161247e565b81610bad576001600160a01b0383163b156116af57826040516353047ddb60e11b8152600401610167919061211a565b826040516309b091fd60e21b8152600401610167919061211a565b610822827f429ac7a06903dbc9c13dfcb3c9d11df8194581fa047c96d7a4171fc7402958ea83611587565b7f2145e1d6d074577dc71ef54c3807742b41b053a9352ae6b491331509acb9750f8201611735576040516385c169bd60e01b815260040160405180910390fd5b7fd0f59754f88971fe6bc5a6618cc9d5f1e859c58d16b22d1c7b2d3e2b246cd8aa820161177557604051630eceab6760e31b815260040160405180910390fd5b7f1fd9e056a24d14c4abc642fcc325992a946906d0dbc57dd70278aaf12842024d82016117b557604051634ef6d7fb60e01b815260040160405180910390fd5b60008281526001602052604090206117cd828261254a565b50817fece574603820d07bc9b91f2a932baadf4628aabcb8afba49776529c14a6104b2826040516117fe9190611ee3565b60405180910390a25050565b6060816000018054806020026020016040519081016040528092919081815260200182805480156111a657602002820191906000526020600020905b8154815260200190600101908083116118465750505050509050919050565b60008181526001830160205260408120546118ac57508154600181810184556000848152602080822090930184905584548482528286019093526040902091909155610595565b506000610595565b6000818152600183016020526040812054801561199d5760006118d8600183612447565b85549091506000906118ec90600190612447565b905081811461195157600086600001828154811061190c5761190c6122bd565b906000526020600020015490508087600001848154811061192f5761192f6122bd565b6000918252602080832090910192909255918252600188019052604090208390555b855486908061196257611962612609565b600190038181906000526020600020016000905590558560010160008681526020019081526020016000206000905560019350505050610595565b6000915050610595565b60208152816020820152818360408301376000818301604090810191909152601f909201601f19160101919050565b6000602082840312156119e857600080fd5b81356001600160e01b031981168114610e1357600080fd5b80356001600160a01b0381168114611a1757600080fd5b919050565b634e487b7160e01b600052604160045260246000fd5b604051601f8201601f191681016001600160401b0381118282101715611a5a57611a5a611a1c565b604052919050565b60006001600160401b03821115611a7b57611a7b611a1c565b50601f01601f191660200190565b600082601f830112611a9a57600080fd5b8135611aad611aa882611a62565b611a32565b818152846020838601011115611ac257600080fd5b816020850160208301376000918101602001919091529392505050565b600080600060608486031215611af457600080fd5b611afd84611a00565b92506020840135915060408401356001600160401b03811115611b1f57600080fd5b611b2b86828701611a89565b9150509250925092565b60006001600160401b03821115611b4e57611b4e611a1c565b5060051b60200190565b600082601f830112611b6957600080fd5b81356020611b79611aa883611b35565b82815260059290921b84018101918181019086841115611b9857600080fd5b8286015b84811015611bba57611bad81611a00565b8352918301918301611b9c565b509695505050505050565b600082601f830112611bd657600080fd5b81356020611be6611aa883611b35565b82815260059290921b84018101918181019086841115611c0557600080fd5b8286015b84811015611bba5780358352918301918301611c09565b80358015158114611a1757600080fd5b600082601f830112611c4157600080fd5b81356020611c51611aa883611b35565b82815260059290921b84018101918181019086841115611c7057600080fd5b8286015b84811015611bba57611c8581611c20565b8352918301918301611c74565b600082601f830112611ca357600080fd5b81356020611cb3611aa883611b35565b82815260059290921b84018101918181019086841115611cd257600080fd5b8286015b84811015611bba5780356001600160401b03811115611cf55760008081fd5b611d038986838b0101611a89565b845250918301918301611cd6565b600080600080600060a08688031215611d2957600080fd5b85356001600160401b0380821115611d4057600080fd5b611d4c89838a01611b58565b96506020880135915080821115611d6257600080fd5b611d6e89838a01611b58565b95506040880135915080821115611d8457600080fd5b611d9089838a01611bc5565b94506060880135915080821115611da657600080fd5b611db289838a01611c30565b93506080880135915080821115611dc857600080fd5b50611dd588828901611c92565b9150509295509295909350565b60008060008060808587031215611df857600080fd5b611e0185611a00565b9350611e0f60208601611a00565b9250611e1d60408601611c20565b915060608501356001600160401b03811115611e3857600080fd5b611e4487828801611a89565b91505092959194509250565b60008060408385031215611e6357600080fd5b611e6c83611a00565b946020939093013593505050565b600060208284031215611e8c57600080fd5b5035919050565b60005b83811015611eae578181015183820152602001611e96565b50506000910152565b60008151808452611ecf816020860160208601611e93565b601f01601f19169290920160200192915050565b602081526000610e136020830184611eb7565b60008060408385031215611f0957600080fd5b611f1283611a00565b9150611f2060208401611a00565b90509250929050565b60008060208385031215611f3c57600080fd5b82356001600160401b0380821115611f5357600080fd5b818501915085601f830112611f6757600080fd5b813581811115611f7657600080fd5b8660208260051b8501011115611f8b57600080fd5b60209290920196919550909350505050565b6000602080830181845280855180835260408601915060408160051b870101925083870160005b82811015611ff257603f19888603018452611fe0858351611eb7565b94509285019290850190600101611fc4565b5092979650505050505050565b60006020828403121561201157600080fd5b610e1382611a00565b600080600080600060a0868803121561203257600080fd5b61203b86611a00565b945061204960208701611a00565b93506040860135925061205e60608701611c20565b915060808601356001600160401b0381111561207957600080fd5b611dd588828901611a89565b6000806000806080858703121561209b57600080fd5b6120a485611a00565b93506120b260208601611a00565b92506040850135915060608501356001600160401b03811115611e3857600080fd5b600080604083850312156120e757600080fd5b8235915060208301356001600160401b0381111561210457600080fd5b61211085828601611a89565b9150509250929050565b6001600160a01b0391909116815260200190565b6000806040838503121561214157600080fd5b82356001600160401b038082111561215857600080fd5b61216486838701611bc5565b9350602085013591508082111561217a57600080fd5b5061211085828601611c92565b6020808252825182820181905260009190848201906040850190845b818110156121c85783516001600160a01b0316835292840192918401916001016121a3565b50909695505050505050565b6000602082840312156121e657600080fd5b81356001600160401b038111156121fc57600080fd5b61148c84828501611bc5565b6001600160e01b031991909116815260200190565b8385823760609290921b6001600160601b031916919092019081526014810191909152603401919050565b6000825161225a818460208701611e93565b9190910192915050565b634e487b7160e01b600052601160045260246000fd5b8082018082111561059557610595612264565b60018060a01b03841681528260208201526060604082015260006122b46060830184611eb7565b95945050505050565b634e487b7160e01b600052603260045260246000fd5b6001600160a01b0393841681529183166020830152909116604082015260600190565b6001600160a01b038416815260ff831660208201526060604082018190526000906122b490830184611eb7565b6000808335601e1984360301811261233a57600080fd5b8301803591506001600160401b0382111561235457600080fd5b60200191503681900382131561236957600080fd5b9250929050565b8183823760009101908152919050565b805160208201516001600160601b031980821692919060148310156123af5780818460140360031b1b83161693505b505050919050565b83815282151560208201526060604082015260006122b46060830184611eb7565b6001600160a01b0386811682528581166020830152841660408201526060810183905260a06080820181905260009061155290830184611eb7565b600181811c9082168061242757607f821691505b602082108103610cba57634e487b7160e01b600052602260045260246000fd5b8181038181111561059557610595612264565b80516020808301519190811015610cba5760001960209190910360031b1b16919050565b82815260406020820152600061148c6040830184611eb7565b6000602082840312156124a957600080fd5b81516001600160401b038111156124bf57600080fd5b8201601f810184136124d057600080fd5b80516124de611aa882611a62565b8181528560208385010111156124f357600080fd5b6122b4826020830160208601611e93565b601f821115610bad57600081815260208120601f850160051c8101602086101561252b5750805b601f850160051c820191505b8181101561064e57828155600101612537565b81516001600160401b0381111561256357612563611a1c565b612577816125718454612413565b84612504565b602080601f8311600181146125ac57600084156125945750858301515b600019600386901b1c1916600185901b17855561064e565b600085815260208120601f198616915b828110156125db578886015182559484019460019091019084016125bc565b50858210156125f95787850151600019600388901b60f8161c191681555b5050505050600190811b01905550565b634e487b7160e01b600052603160045260246000fdfea2646970667358221220ecc72f232667a1bb1197fae4b12fe67246cf33220bc9820ca669bb38ad5550f064736f6c63430008140033",
  "linkReferences": {},
  "deployedLinkReferences": {}
}