{
  "_format": "hh-sol-artifact-1",
  "contractName": "LSP0ERC725Account",
  "sourceName": "@lukso/lsp-smart-contracts/contracts/LSP0ERC725Account/LSP0ERC725Account.sol",
  "abi": [
    {
      "inputs": [
        {
          "internalType": "address",
          "name": "initialOwner",
          "type": "address"
        }
      ],
      "stateMutability": "payable",
      "type": "constructor"
    },
    {
      "inputs": [],
      "name": "ERC725X_ContractDeploymentFailed",
      "type": "error"
    },
    {
      "inputs": [],
      "name": "ERC725X_CreateOperationsRequireEmptyRecipientAddress",
      "type": "error"
    },
    {
      "inputs": [],
      "name": "ERC725X_ExecuteParametersEmptyArray",
      "type": "error"
    },
    {
      "inputs": [],
      "name": "ERC725X_ExecuteParametersLengthMismatch",
      "type": "error"
    },
    {
      "inputs": [
        {
          "internalType": "uint256",
          "name": "balance",
          "type": "uint256"
        },
        {
          "internalType": "uint256",
          "name": "value",
          "type": "uint256"
        }
      ],
      "name": "ERC725X_InsufficientBalance",
      "type": "error"
    },
    {
      "inputs": [],
      "name": "ERC725X_MsgValueDisallowedInDelegateCall",
      "type": "error"
    },
    {
      "inputs": [],
      "name": "ERC725X_MsgValueDisallowedInStaticCall",
      "type": "error"
    },
    {
      "inputs": [],
      "name": "ERC725X_NoContractBytecodeProvided",
      "type": "error"
    },
    {
      "inputs": [
        {
          "internalType": "uint256",
          "name": "operationTypeProvided",
          "type": "uint256"
        }
      ],
      "name": "ERC725X_UnknownOperationType",
      "type": "error"
    },
    {
      "inputs": [],
      "name": "ERC725Y_DataKeysValuesEmptyArray",
      "type": "error"
    },
    {
      "inputs": [],
      "name": "ERC725Y_DataKeysValuesLengthMismatch",
      "type": "error"
    },
    {
      "inputs": [
        {
          "internalType": "address",
          "name": "caller",
          "type": "address"
        }
      ],
      "name": "LSP14CallerNotPendingOwner",
      "type": "error"
    },
    {
      "inputs": [],
      "name": "LSP14CannotTransferOwnershipToSelf",
      "type": "error"
    },
    {
      "inputs": [],
      "name": "LSP14MustAcceptOwnershipInSeparateTransaction",
      "type": "error"
    },
    {
      "inputs": [
        {
          "internalType": "uint256",
          "name": "renounceOwnershipStart",
          "type": "uint256"
        },
        {
          "internalType": "uint256",
          "name": "renounceOwnershipEnd",
          "type": "uint256"
        }
      ],
      "name": "LSP14NotInRenounceOwnershipInterval",
      "type": "error"
    },
    {
      "inputs": [
        {
          "internalType": "bool",
          "name": "postCall",
          "type": "bool"
        },
        {
          "internalType": "bytes4",
          "name": "returnedStatus",
          "type": "bytes4"
        }
      ],
      "name": "LSP20CallVerificationFailed",
      "type": "error"
    },
    {
      "inputs": [
        {
          "internalType": "bool",
          "name": "postCall",
          "type": "bool"
        }
      ],
      "name": "LSP20CallingVerifierFailed",
      "type": "error"
    },
    {
      "inputs": [
        {
          "internalType": "address",
          "name": "logicVerifier",
          "type": "address"
        }
      ],
      "name": "LSP20EOACannotVerifyCall",
      "type": "error"
    },
    {
      "inputs": [
        {
          "internalType": "bytes4",
          "name": "functionSelector",
          "type": "bytes4"
        }
      ],
      "name": "NoExtensionFoundForFunctionSelector",
      "type": "error"
    },
    {
      "anonymous": false,
      "inputs": [
        {
          "indexed": true,
          "internalType": "uint256",
          "name": "operationType",
          "type": "uint256"
        },
        {
          "indexed": true,
          "internalType": "address",
          "name": "contractAddress",
          "type": "address"
        },
        {
          "indexed": true,
          "internalType": "uint256",
          "name": "value",
          "type": "uint256"
        },
        {
          "indexed": false,
          "internalType": "bytes32",
          "name": "salt",
          "type": "bytes32"
        }
      ],
      "name": "ContractCreated",
      "type": "event"
    },
    {
      "anonymous": false,
      "inputs": [
        {
          "indexed": true,
          "internalType": "bytes32",
          "name": "dataKey",
          "type": "bytes32"
        },
        {
          "indexed": false,
          "internalType": "bytes",
          "name": "dataValue",
          "type": "bytes"
        }
      ],
      "name": "DataChanged",
      "type": "event"
    },
    {
      "anonymous": false,
      "inputs": [
        {
          "indexed": true,
          "internalType": "uint256",
          "name": "operationType",
          "type": "uint256"
        },
        {
          "indexed": true,
          "internalType": "address",
          "name": "target",
          "type": "address"
        },
        {
          "indexed": true,
          "internalType": "uint256",
          "name": "value",
          "type": "uint256"
        },
        {
          "indexed": false,
          "internalType": "bytes4",
          "name": "selector",
          "type": "bytes4"
        }
      ],
      "name": "Executed",
      "type": "event"
    },
    {
      "anonymous": false,
      "inputs": [],
      "name": "OwnershipRenounced",
      "type": "event"
    },
    {
      "anonymous": false,
      "inputs": [
        {
          "indexed": true,
          "internalType": "address",
          "name": "previousOwner",
          "type": "address"
        },
        {
          "indexed": true,
          "internalType": "address",
          "name": "newOwner",
          "type": "address"
        }
      ],
      "name": "OwnershipTransferStarted",
      "type": "event"
    },
    {
      "anonymous": false,
      "inputs": [
        {
          "indexed": true,
          "internalType": "address",
          "name": "previousOwner",
          "type": "address"
        },
        {
          "indexed": true,
          "internalType": "address",
          "name": "newOwner",
          "type": "address"
        }
      ],
      "name": "OwnershipTransferred",
      "type": "event"
    },
    {
      "anonymous": false,
      "inputs": [],
      "name": "RenounceOwnershipStarted",
      "type": "event"
    },
    {
      "anonymous": false,
      "inputs": [
        {
          "indexed": true,
          "internalType": "address",
          "name": "from",
          "type": "address"
        },
        {
          "indexed": true,
          "internalType": "uint256",
          "name": "value",
          "type": "uint256"
        },
        {
          "indexed": true,
          "internalType": "bytes32",
          "name": "typeId",
          "type": "bytes32"
        },
        {
          "indexed": false,
          "internalType": "bytes",
          "name": "receivedData",
          "type": "bytes"
        },
        {
          "indexed": false,
          "internalType": "bytes",
          "name": "returnedValue",
          "type": "bytes"
        }
      ],
      "name": "UniversalReceiver",
      "type": "event"
    },
    {
      "stateMutability": "payable",
      "type": "fallback"
    },
    {
      "inputs": [],
      "name": "RENOUNCE_OWNERSHIP_CONFIRMATION_DELAY",
      "outputs": [
        {
          "internalType": "uint256",
          "name": "",
          "type": "uint256"
        }
      ],
      "stateMutability": "view",
      "type": "function"
    },
    {
      "inputs": [],
      "name": "RENOUNCE_OWNERSHIP_CONFIRMATION_PERIOD",
      "outputs": [
        {
          "internalType": "uint256",
          "name": "",
          "type": "uint256"
        }
      ],
      "stateMutability": "view",
      "type": "function"
    },
    {
      "inputs": [],
      "name": "VERSION",
      "outputs": [
        {
          "internalType": "string",
          "name": "",
          "type": "string"
        }
      ],
      "stateMutability": "view",
      "type": "function"
    },
    {
      "inputs": [],
      "name": "acceptOwnership",
      "outputs": [],
      "stateMutability": "nonpayable",
      "type": "function"
    },
    {
      "inputs": [
        {
          "internalType": "bytes[]",
          "name": "data",
          "type": "bytes[]"
        }
      ],
      "name": "batchCalls",
      "outputs": [
        {
          "internalType": "bytes[]",
          "name": "results",
          "type": "bytes[]"
        }
      ],
      "stateMutability": "nonpayable",
      "type": "function"
    },
    {
      "inputs": [
        {
          "internalType": "uint256",
          "name": "operationType",
          "type": "uint256"
        },
        {
          "internalType": "address",
          "name": "target",
          "type": "address"
        },
        {
          "internalType": "uint256",
          "name": "value",
          "type": "uint256"
        },
        {
          "internalType": "bytes",
          "name": "data",
          "type": "bytes"
        }
      ],
      "name": "execute",
      "outputs": [
        {
          "internalType": "bytes",
          "name": "",
          "type": "bytes"
        }
      ],
      "stateMutability": "payable",
      "type": "function"
    },
    {
      "inputs": [
        {
          "internalType": "uint256[]",
          "name": "operationsType",
          "type": "uint256[]"
        },
        {
          "internalType": "address[]",
          "name": "targets",
          "type": "address[]"
        },
        {
          "internalType": "uint256[]",
          "name": "values",
          "type": "uint256[]"
        },
        {
          "internalType": "bytes[]",
          "name": "datas",
          "type": "bytes[]"
        }
      ],
      "name": "executeBatch",
      "outputs": [
        {
          "internalType": "bytes[]",
          "name": "",
          "type": "bytes[]"
        }
      ],
      "stateMutability": "payable",
      "type": "function"
    },
    {
      "inputs": [
        {
          "internalType": "bytes32",
          "name": "dataKey",
          "type": "bytes32"
        }
      ],
      "name": "getData",
      "outputs": [
        {
          "internalType": "bytes",
          "name": "dataValue",
          "type": "bytes"
        }
      ],
      "stateMutability": "view",
      "type": "function"
    },
    {
      "inputs": [
        {
          "internalType": "bytes32[]",
          "name": "dataKeys",
          "type": "bytes32[]"
        }
      ],
      "name": "getDataBatch",
      "outputs": [
        {
          "internalType": "bytes[]",
          "name": "dataValues",
          "type": "bytes[]"
        }
      ],
      "stateMutability": "view",
      "type": "function"
    },
    {
      "inputs": [
        {
          "internalType": "bytes32",
          "name": "dataHash",
          "type": "bytes32"
        },
        {
          "internalType": "bytes",
          "name": "signature",
          "type": "bytes"
        }
      ],
      "name": "isValidSignature",
      "outputs": [
        {
          "internalType": "bytes4",
          "name": "returnedStatus",
          "type": "bytes4"
        }
      ],
      "stateMutability": "view",
      "type": "function"
    },
    {
      "inputs": [],
      "name": "owner",
      "outputs": [
        {
          "internalType": "address",
          "name": "",
          "type": "address"
        }
      ],
      "stateMutability": "view",
      "type": "function"
    },
    {
      "inputs": [],
      "name": "pendingOwner",
      "outputs": [
        {
          "internalType": "address",
          "name": "",
          "type": "address"
        }
      ],
      "stateMutability": "view",
      "type": "function"
    },
    {
      "inputs": [],
      "name": "renounceOwnership",
      "outputs": [],
      "stateMutability": "nonpayable",
      "type": "function"
    },
    {
      "inputs": [
        {
          "internalType": "bytes32",
          "name": "dataKey",
          "type": "bytes32"
        },
        {
          "internalType": "bytes",
          "name": "dataValue",
          "type": "bytes"
        }
      ],
      "name": "setData",
      "outputs": [],
      "stateMutability": "payable",
      "type": "function"
    },
    {
      "inputs": [
        {
          "internalType": "bytes32[]",
          "name": "dataKeys",
          "type": "bytes32[]"
        },
        {
          "internalType": "bytes[]",
          "name": "dataValues",
          "type": "bytes[]"
        }
      ],
      "name": "setDataBatch",
      "outputs": [],
      "stateMutability": "payable",
      "type": "function"
    },
    {
      "inputs": [
        {
          "internalType": "bytes4",
          "name": "interfaceId",
          "type": "bytes4"
        }
      ],
      "name": "supportsInterface",
      "outputs": [
        {
          "internalType": "bool",
          "name": "",
          "type": "bool"
        }
      ],
      "stateMutability": "view",
      "type": "function"
    },
    {
      "inputs": [
        {
          "internalType": "address",
          "name": "pendingNewOwner",
          "type": "address"
        }
      ],
      "name": "transferOwnership",
      "outputs": [],
      "stateMutability": "nonpayable",
      "type": "function"
    },
    {
      "inputs": [
        {
          "internalType": "bytes32",
          "name": "typeId",
          "type": "bytes32"
        },
        {
          "internalType": "bytes",
          "name": "receivedData",
          "type": "bytes"
        }
      ],
      "name": "universalReceiver",
      "outputs": [
        {
          "internalType": "bytes",
          "name": "returnedValues",
          "type": "bytes"
        }
      ],
      "stateMutability": "payable",
      "type": "function"
    },
    {
      "stateMutability": "payable",
      "type": "receive"
    }
  ],
  "bytecode": "0x60806040526040516200349638038062003496833981016040819052620000269162000126565b3415620000ad577f9c4705229491d365fb5434052e12a386d6771d976bea61070a8c694e8affea3d60001b34336001600160a01b03167f9c3ba68eb5742b8e3961aea0afc7371a71bf433c8a67a831803b64c064a178c2604051620000a4906040808252600090820181905260606020830181905282015260800190565b60405180910390a45b620000b881620000bf565b5062000158565b6000546001600160a01b038281169116146200012357600080546001600160a01b038381166001600160a01b0319831681178455604051919092169283917f8be0079c531659141344cd1fd0a4f28419497f9722a3daafe3b4186f6b6457e09190a3505b50565b6000602082840312156200013957600080fd5b81516001600160a01b03811681146200015157600080fd5b9392505050565b61332e80620001686000396000f3fe6080604052600436106100ed5760003560e01c806379ba50971161008557806379ba5097146102e75780637f23690c146102fc5780638da5cb5b1461030f5780639790242114610331578063dedff9c614610344578063e30c397814610364578063ead3fbdf146101ba578063f2fde38b14610382578063ffa1ad74146103a257610126565b806301bfba61146101ba57806301ffc9a7146101e25780631626ba7e14610212578063318584521461023f57806344c028fe1461025f57806354f6127f1461027f5780636963d4381461029f5780636bb56a14146102bf578063715018a6146102d257610126565b36610126573415610124576101226000805160206132b983398151915260001b604051806020016040528060008152506103d4565b505b005b600036606060048210156101a257341561018d5761018b6000805160206132b983398151915260001b84848080601f0160208091040260200160405190810160405280939291908181526020018383808284376000920191909152506103d492505050565b505b506040805160208101909152600081526101af565b6101ac8383610661565b90505b915050805190602001f35b3480156101c657600080fd5b506101cf60c881565b6040519081526020015b60405180910390f35b3480156101ee57600080fd5b506102026101fd36600461279b565b610816565b60405190151581526020016101d9565b34801561021e57600080fd5b5061023261022d36600461287b565b6108b6565b6040516101d991906128c1565b61025261024d3660046129f5565b610a5e565b6040516101d99190612b4c565b61027261026d366004612bae565b610b5b565b6040516101d99190612c02565b34801561028b57600080fd5b5061027261029a366004612c15565b610c2f565b3480156102ab57600080fd5b506102526102ba366004612c2e565b610c3a565b6102726102cd36600461287b565b6103d4565b3480156102de57600080fd5b50610124610d91565b3480156102f357600080fd5b50610124610eae565b61012461030a36600461287b565b611006565b34801561031b57600080fd5b506103246110da565b6040516101d99190612ca2565b61012461033f366004612cb6565b6110e9565b34801561035057600080fd5b5061025261035f366004612d0f565b61127b565b34801561037057600080fd5b506003546001600160a01b0316610324565b34801561038e57600080fd5b5061012461039d366004612d43565b611325565b3480156103ae57600080fd5b5061027260405180604001604052806006815260200165302e31322e3160d01b81525081565b606034158015906103f357506000805160206132b98339815191528314155b1561044c5761044a6000805160206132b983398151915260001b6000368080601f0160208091040260200160405190810160405280939291908181526020018383808284376000920191909152506103d492505050565b505b60006104777f0cfc51aec37c55a4d0b1a65c6255c4bf2fbdf6277f3cc0730c45b828b6db8b476114b7565b90506060601482511061052857600061048f83612d5e565b60601c90506104a581635122dded60e11b611559565b1561052657604051635122dded60e11b81526001600160a01b0382169063a245bbda906104dc90339034908b908b90600401612d95565b6000604051808303816000875af11580156104fb573d6000803e3d6000fd5b505050506040513d6000823e601f3d908101601f191682016040526105239190810190612dc2565b91505b505b6000610541690cfc51aec37c55a4d0b160b01b876115ed565b9050600061054e826114b7565b9050606060148251106105ff57600061056683612d5e565b60601c905061057c81635122dded60e11b611559565b156105fd57604051635122dded60e11b81526001600160a01b0382169063a245bbda906105b390339034908e908e90600401612d95565b6000604051808303816000875af11580156105d2573d6000803e3d6000fd5b505050506040513d6000823e601f3d908101601f191682016040526105fa9190810190612dc2565b91505b505b8381604051602001610612929190612e2f565b60405160208183030381529060405295508734336001600160a01b03166000805160206132798339815191528a8a60405161064e929190612e2f565b60405180910390a4505050505092915050565b606060008061067b6000356001600160e01b031916611639565b915091503460001415801561068e575080155b156106e6576106e46000805160206132b983398151915260001b86868080601f0160208091040260200160405190810160405280939291908181526020018383808284376000920191909152506103d492505050565b505b6000356001600160e01b03191615801561070757506001600160a01b038216155b15610725576040518060200160405280600081525092505050610810565b6001600160a01b038216610763576000356001600160e01b03191660405163bb370b2b60e01b815260040161075a91906128c1565b60405180910390fd5b600080836001600160a01b03168361077c57600061077e565b345b888833346040516020016107959493929190612e54565b60408051601f19818403018152908290526107af91612e7f565b60006040518083038185875af1925050503d80600081146107ec576040519150601f19603f3d011682016040523d82523d6000602084013e6107f1565b606091505b5091509150811561080757935061081092505050565b80518060208301fd5b92915050565b60006001600160e01b03198216630b135d3f60e11b148061084757506001600160e01b031982166324871b3d60e01b145b8061086257506001600160e01b03198216631aed5a8560e21b145b8061087d57506001600160e01b031982166394be599960e01b145b8061089857506001600160e01b03198216631a0eb6a560e01b145b806108a757506108a7826116e9565b8061081057506108108261170e565b6000806108c16110da565b90506001600160a01b0381163b156109de57600080826001600160a01b0316631626ba7e60e01b87876040516024016108fb929190612e9b565b60408051601f198184030181529181526020820180516001600160e01b03166001600160e01b03199094169390931790925290516109399190612e7f565b600060405180830381855afa9150503d8060008114610974576040519150601f19603f3d011682016040523d82523d6000602084013e610979565b606091505b5091509150600082801561098e575081516020145b80156109b557508151630b135d3f60e11b906109b39084016020908101908501612eb4565b145b9050806109ca576001600160e01b03196109d3565b630b135d3f60e11b5b945050505050610810565b6000806109eb868661174c565b90925090506000816004811115610a0457610a04612ecd565b14610a1d57506001600160e01b03199250610810915050565b826001600160a01b0316826001600160a01b031614610a44576001600160e01b0319610a4d565b630b135d3f60e11b5b9350505050610810565b5092915050565b60603415610ad2576000805160206132b983398151915260001b34336001600160a01b03166000805160206132798339815191526000356001600160e01b031916604051602001610aaf9190612ee3565b60408051601f1981840301815290829052610ac991612ef8565b60405180910390a45b6000610adc6110da565b90506001600160a01b0381163303610b0257610afa86868686611791565b915050610b53565b6000610b0d826118ee565b90506000610b1d88888888611791565b90508115610b4e57610b4e8382604051602001610b3a9190612b4c565b604051602081830303815290604052611a27565b925050505b949350505050565b60603415610bcf576000805160206132b983398151915260001b34336001600160a01b03166000805160206132798339815191526000356001600160e01b031916604051602001610bac9190612ee3565b60408051601f1981840301815290829052610bc691612ef8565b60405180910390a45b6000610bd96110da565b90506001600160a01b0381163303610bf757610afa86868686611b36565b6000610c02826118ee565b90506000610c1288888888611b36565b90508115610b4e57610b4e8382604051602001610b3a9190612c02565b6060610810826114b7565b6060816001600160401b03811115610c5457610c546127b8565b604051908082528060200260200182016040528015610c8757816020015b6060815260200190600190039081610c725790505b50905060005b82811015610a575760008030868685818110610cab57610cab612f22565b9050602002810190610cbd9190612f38565b604051610ccb929190612f7e565b600060405180830381855af49150503d8060008114610d06576040519150601f19603f3d011682016040523d82523d6000602084013e610d0b565b606091505b509150915081610d6957805115610d255780518082602001fd5b60405162461bcd60e51b81526020600482015260196024820152781314d40c0e8818985d18da10d85b1b1cc81c995d995c9d1959603a1b604482015260640161075a565b80848481518110610d7c57610d7c612f22565b60209081029190910101525050600101610c8d565b6000610d9b6110da565b90506001600160a01b0381163303610e27576000610db76110da565b9050610dc1611c41565b6000610dcb6110da565b6001600160a01b031603610e2357610e236000805160206132d983398151915260001b836000604051602001610e02929190612f8e565b60408051601f198184030181529190526001600160a01b0384169190611d34565b5050565b6000610e32826118ee565b90506000610e3e6110da565b9050610e48611c41565b6000610e526110da565b6001600160a01b031603610e8957610e896000805160206132d983398151915260001b846000604051602001610e02929190612f8e565b8115610ea857610ea88360405180602001604052806000815250611a27565b50505b50565b600354600160a01b900460ff1615610ed957604051635758dd0760e01b815260040160405180910390fd5b6000610ee36110da565b90506000610ef96003546001600160a01b031690565b90506000336001600160a01b03831614610f3b57610f16826118ee565b9050610f2182611dc8565b600380546001600160a01b03191690556000600255610f43565b610f43611e38565b610f8c6000805160206132d983398151915260001b8484604051602001610f6b929190612f8e565b60408051601f198184030181529190526001600160a01b0386169190611d34565b610fe77fceca317f109c43507871523e82dc2a3cc64dfa18f12da0b6db14f6e23f99553860001b8484604051602001610fc6929190612f8e565b60408051601f198184030181529190526001600160a01b0385169190611d34565b8015610ea857610ea88260405180602001604052806000815250611a27565b3415611078576000805160206132b983398151915260001b34336001600160a01b03166000805160206132798339815191526000356001600160e01b0319166040516020016110559190612ee3565b60408051601f198184030181529082905261106f91612ef8565b60405180910390a45b60006110826110da565b90506001600160a01b038116330361109e57610ea88383611e85565b60006110a9826118ee565b90506110b58484611e85565b80156110d4576110d48260405180602001604052806000815250611a27565b50505050565b6000546001600160a01b031690565b341561115b576000805160206132b983398151915260001b34336001600160a01b03166000805160206132798339815191526000356001600160e01b0319166040516020016111389190612ee3565b60408051601f198184030181529082905261115291612ef8565b60405180910390a45b805182511461117d57604051633bcc897960e01b815260040160405180910390fd5b815160000361119f576040516397da5f9560e01b815260040160405180910390fd5b60006111a96110da565b90506001600160a01b038116330361120b5760005b83518110156110d4576112038482815181106111dc576111dc612f22565b60200260200101518483815181106111f6576111f6612f22565b6020026020010151611e85565b6001016111be565b6000611216826118ee565b905060005b845181101561125b5761125385828151811061123957611239612f22565b60200260200101518583815181106111f6576111f6612f22565b60010161121b565b5080156110d4576110d48260405180602001604052806000815250611a27565b606081516001600160401b03811115611296576112966127b8565b6040519080825280602002602001820160405280156112c957816020015b60608152602001906001900390816112b45790505b50905060005b825181101561131f576112fa8382815181106112ed576112ed612f22565b60200260200101516114b7565b82828151811061130c5761130c612f22565b60209081029190910101526001016112cf565b50919050565b600061132f6110da565b90506001600160a01b03811633036113e8576003805460ff60a01b1916600160a01b17905561135d82611ef9565b816001600160a01b0316816001600160a01b03167f38d16b8cac22d99fc7c124b9cd0de2d3fa1faef420bfe791d8c362d765e2270060405160405180910390a36113d77fe17117c9d2665d1dbeb479ed8058bbebde3c50ac50e2e65619f60006caac692660001b8284604051602001610fc6929190612f8e565b6003805460ff60a01b191690555050565b60006113f3826118ee565b6003805460ff60a01b1916600160a01b179055905061141183611ef9565b826001600160a01b0316826001600160a01b03167f38d16b8cac22d99fc7c124b9cd0de2d3fa1faef420bfe791d8c362d765e2270060405160405180910390a361148b7fe17117c9d2665d1dbeb479ed8058bbebde3c50ac50e2e65619f60006caac692660001b8385604051602001610f6b929190612f8e565b6003805460ff60a01b191690558015610ea857610ea88260405180602001604052806000815250611a27565b60008181526001602052604090208054606091906114d490612fa8565b80601f016020809104026020016040519081016040528092919081815260200182805461150090612fa8565b801561154d5780601f106115225761010080835404028352916020019161154d565b820191906000526020600020905b81548152906001019060200180831161153057829003601f168201915b50505050509050919050565b6000806301ffc9a760e01b8360405160240161157591906128c1565b604051602081830303815290604052906001600160e01b0319166020820180516001600160e01b03838183161783525050505090506000806000602060008551602087018a617530fa92503d915060005190508280156115d6575060208210155b80156115e25750600081115b979650505050505050565b604080516001600160b01b0319841660208201526000602a82018190526001600160601b03198416602c83015291829101604051602081830303815290604052905080610b5390612fdc565b6000808061165e696773c5a04a6d4300884b60b11b6001600160e01b031986166115ed565b9050600061166b826114b7565b9050601481511015611684575060009485945092505050565b80516015036116d157806014815181106116a0576116a0612f22565b01602001516001600160f81b031916600160f81b036116d1576116c281612d5e565b60601c95600195509350505050565b6116da81612d5e565b60601c95600095509350505050565b60006001600160e01b0319821663a918fa6b60e01b1480610810575061081082611f49565b6000806117216301ffc9a760e01b611639565b5090506001600160a01b03811661173b5750600092915050565b6117458184611559565b9392505050565b60008082516041036117825760208301516040840151606085015160001a61177687828585611f6e565b9450945050505061178a565b506000905060025b9250929050565b6060835185511415806117b25750825184511415806117b257508151835114155b156117d057604051633ff55f4d60e01b815260040160405180910390fd5b84516000036117f25760405163e9ad2b5f60e01b815260040160405180910390fd5b600085516001600160401b0381111561180d5761180d6127b8565b60405190808252806020026020018201604052801561184057816020015b606081526020019060019003908161182b5790505b50905060005b86518110156118e4576118bf87828151811061186457611864612f22565b602002602001015187838151811061187e5761187e612f22565b602002602001015187848151811061189857611898612f22565b60200260200101518785815181106118b2576118b2612f22565b6020026020010151611b36565b8282815181106118d1576118d1612f22565b6020908102919091010152600101611846565b5095945050505050565b6000816001600160a01b03163b60000361191d5781604051630c39230160e01b815260040161075a9190612ca2565b6040516337a4a3c560e21b81526001600160a01b0383169063de928f14906119549033903090829034906000903690600401613000565b6020604051808303816000875af192505050801561198f575060408051601f3d908101601f1916820190925261198c9181019061305d565b60015b6119ce573d8080156119bd576040519150601f19603f3d011682016040523d82523d6000602084013e6119c2565b606091505b5061131f600082612028565b6001600160e81b0319811662de928f60e81b14611a0357600081604051639d6741e360e01b815260040161075a92919061307a565b8060031a60f81b6001600160f81b031916600160f81b14915050919050565b919050565b816001600160a01b031663d3fc45d333303334600036604051602001611a5296959493929190613094565b60405160208183030381529060405280519060200120836040518363ffffffff1660e01b8152600401611a86929190612e9b565b6020604051808303816000875af1925050508015611ac1575060408051601f3d908101601f19168201909252611abe9181019061305d565b60015b611b00573d808015611aef576040519150601f19603f3d011682016040523d82523d6000602084013e611af4565b606091505b50610ea8600182612028565b6001600160e01b0319811663d3fc45d360e01b14610ea857600181604051639d6741e360e01b815260040161075a92919061307a565b606084611b4f57611b48848484612055565b9050610b53565b60018503611b89576001600160a01b03841615611b7f57604051631820c12560e11b815260040160405180910390fd5b611b488383612161565b60028503611bc3576001600160a01b03841615611bb957604051631820c12560e11b815260040160405180910390fd5b611b488383612254565b60038503611bf4578215611bea576040516339795e3560e11b815260040160405180910390fd5b611b488483612330565b60048503611c25578215611c1b57604051635ac8313560e01b815260040160405180910390fd5b611b48848361240f565b604051631d60ecef60e21b81526004810186905260240161075a565b6002544390600090611c559060c8906130fa565b90506000611c6460c8836130fa565b905080831180611c745750600254155b15611cbc576002839055600380546001600160a01b03191690556040517f81b7f830f1f0084db6497c486cbe6974c86488dcc4e3738eab94ab6d6b1653e790600090a1505050565b81831015611ce757604051630d8404a160e11b8152600481018390526024810182905260440161075a565b611cf16000611dc8565b60006002819055600380546001600160a01b03191690556040517fd1f66c3d2bc1993a86be5e3d33709d98f0442381befcedd29f578b9b2506b1ce9190a1505050565b611d4e6001600160a01b038416631aed5a8560e21b611559565b15610ea857604051631aed5a8560e21b81526001600160a01b03841690636bb56a1490611d819085908590600401612e9b565b6000604051808303816000875af1158015611da0573d6000803e3d6000fd5b505050506040513d6000823e601f3d908101601f191682016040526110d49190810190612dc2565b611dd06110da565b6001600160a01b0316816001600160a01b031614610eab57600080546001600160a01b038381166001600160a01b0319831681178455604051919092169283917f8be0079c531659141344cd1fd0a4f28419497f9722a3daafe3b4186f6b6457e09190a35050565b6003546001600160a01b03163314611e6557336040516308a3c8a560e31b815260040161075a9190612ca2565b611e6e33611dc8565b600380546001600160a01b03191690556000600255565b6000828152600160205260409020611e9d828261315b565b50817fece574603820d07bc9b91f2a932baadf4628aabcb8afba49776529c14a6104b261010083511115611ede57611ed98360006101006124a2565b611ee0565b825b604051611eed9190612c02565b60405180910390a25050565b306001600160a01b03821603611f2257604051631c0a54df60e31b815260040160405180910390fd5b600380546001600160a01b0319166001600160a01b03929092169190911790556000600255565b60006001600160e01b031982166318a6a9a560e21b14806108105750610810826125af565b6000806fa2a8918ca85bafe22016d0b997e4df60600160ff1b03831115611f9b575060009050600361201f565b6040805160008082526020820180845289905260ff881692820192909252606081018690526080810185905260019060a0016020604051602081039080840390855afa158015611fef573d6000803e3d6000fd5b5050604051601f1901519150506001600160a01b0381166120185760006001925092505061201f565b9150600090505b94509492505050565b8051156120385780518082602001fd5b604051638c6a8ae360e01b8152821515600482015260240161075a565b606082471015612081576040516301bf351f60e31b81524760048201526024810184905260440161075a565b826001600160a01b03851660006000805160206132998339815191526120a68661321a565b6040516120b391906128c1565b60405180910390a4600080856001600160a01b031685856040516120d79190612e7f565b60006040518083038185875af1925050503d8060008114612114576040519150601f19603f3d011682016040523d82523d6000602084013e612119565b606091505b509150915061215782826040518060400160405280601681526020017522a9219b991aac1d102ab735b737bbb71022b93937b960511b8152506125e4565b9695505050505050565b60608247101561218d576040516301bf351f60e31b81524760048201526024810184905260440161075a565b81516000036121af5760405163b81cd8d960e01b815260040160405180910390fd5b600082516020840185f090506001600160a01b0381166121e257604051630b07489b60e01b815260040160405180910390fd5b83816001600160a01b031660017fa1fb700aaee2ae4a2ff6f91ce7eba292f89c2f5488b8ec4c5c5c8150692595c36000801b60405161222391815260200190565b60405180910390a48060405160200161223c919061324d565b60405160208183030381529060405291505092915050565b606081516000036122785760405163b81cd8d960e01b815260040160405180910390fd5b6000612291836020855161228c9190613265565b6125fd565b905060006122ae846000602087516122a99190613265565b6124a2565b905060006122bd86848461265b565b905085816001600160a01b031660027fa1fb700aaee2ae4a2ff6f91ce7eba292f89c2f5488b8ec4c5c5c8150692595c3866040516122fd91815260200190565b60405180910390a480604051602001612316919061324d565b604051602081830303815290604052935050505092915050565b606060006001600160a01b03841660036000805160206132998339815191526123588661321a565b60405161236591906128c1565b60405180910390a4600080846001600160a01b0316846040516123889190612e7f565b600060405180830381855afa9150503d80600081146123c3576040519150601f19603f3d011682016040523d82523d6000602084013e6123c8565b606091505b509150915061240682826040518060400160405280601681526020017522a9219b991aac1d102ab735b737bbb71022b93937b960511b8152506125e4565b95945050505050565b606060006001600160a01b03841660046000805160206132998339815191526124378661321a565b60405161244491906128c1565b60405180910390a4600080846001600160a01b0316846040516124679190612e7f565b600060405180830381855af49150503d80600081146123c3576040519150601f19603f3d011682016040523d82523d6000602084013e6123c8565b6060816124b081601f6130fa565b10156124ef5760405162461bcd60e51b815260206004820152600e60248201526d736c6963655f6f766572666c6f7760901b604482015260640161075a565b6124f982846130fa565b8451101561253d5760405162461bcd60e51b8152602060048201526011602482015270736c6963655f6f75744f66426f756e647360781b604482015260640161075a565b60608215801561255c57604051915060008252602082016040526125a6565b6040519150601f8416801560200281840101858101878315602002848b0101015b8183101561259557805183526020928301920161257d565b5050858452601f01601f1916604052505b50949350505050565b60006001600160e01b03198216631d516b2b60e21b148061081057506301ffc9a760e01b6001600160e01b0319831614610810565b606083156125f3575081611745565b611745838361275b565b600061260a8260206130fa565b835110156126525760405162461bcd60e51b8152602060048201526015602482015274746f427974657333325f6f75744f66426f756e647360581b604482015260640161075a565b50016020015190565b6000834710156126ad5760405162461bcd60e51b815260206004820152601d60248201527f437265617465323a20696e73756666696369656e742062616c616e6365000000604482015260640161075a565b81516000036126fe5760405162461bcd60e51b815260206004820181905260248201527f437265617465323a2062797465636f6465206c656e677468206973207a65726f604482015260640161075a565b8282516020840186f590506001600160a01b0381166117455760405162461bcd60e51b8152602060048201526019602482015278437265617465323a204661696c6564206f6e206465706c6f7960381b604482015260640161075a565b81511561276b5781518083602001fd5b8060405162461bcd60e51b815260040161075a9190612c02565b6001600160e01b031981168114610eab57600080fd5b6000602082840312156127ad57600080fd5b813561174581612785565b634e487b7160e01b600052604160045260246000fd5b604051601f8201601f191681016001600160401b03811182821017156127f6576127f66127b8565b604052919050565b60006001600160401b03821115612817576128176127b8565b50601f01601f191660200190565b600082601f83011261283657600080fd5b8135612849612844826127fe565b6127ce565b81815284602083860101111561285e57600080fd5b816020850160208301376000918101602001919091529392505050565b6000806040838503121561288e57600080fd5b8235915060208301356001600160401b038111156128ab57600080fd5b6128b785828601612825565b9150509250929050565b6001600160e01b031991909116815260200190565b60006001600160401b038211156128ef576128ef6127b8565b5060051b60200190565b600082601f83011261290a57600080fd5b8135602061291a612844836128d6565b82815260059290921b8401810191818101908684111561293957600080fd5b8286015b84811015612954578035835291830191830161293d565b509695505050505050565b80356001600160a01b0381168114611a2257600080fd5b600082601f83011261298757600080fd5b81356020612997612844836128d6565b82815260059290921b840181019181810190868411156129b657600080fd5b8286015b848110156129545780356001600160401b038111156129d95760008081fd5b6129e78986838b0101612825565b8452509183019183016129ba565b60008060008060808587031215612a0b57600080fd5b84356001600160401b0380821115612a2257600080fd5b612a2e888389016128f9565b9550602091508187013581811115612a4557600080fd5b8701601f81018913612a5657600080fd5b8035612a64612844826128d6565b81815260059190911b8201840190848101908b831115612a8357600080fd5b928501925b82841015612aa857612a998461295f565b82529285019290850190612a88565b97505050506040870135915080821115612ac157600080fd5b612acd888389016128f9565b93506060870135915080821115612ae357600080fd5b50612af087828801612976565b91505092959194509250565b60005b83811015612b17578181015183820152602001612aff565b50506000910152565b60008151808452612b38816020860160208601612afc565b601f01601f19169290920160200192915050565b6000602080830181845280855180835260408601915060408160051b870101925083870160005b82811015612ba157603f19888603018452612b8f858351612b20565b94509285019290850190600101612b73565b5092979650505050505050565b60008060008060808587031215612bc457600080fd5b84359350612bd46020860161295f565b92506040850135915060608501356001600160401b03811115612bf657600080fd5b612af087828801612825565b6020815260006117456020830184612b20565b600060208284031215612c2757600080fd5b5035919050565b60008060208385031215612c4157600080fd5b82356001600160401b0380821115612c5857600080fd5b818501915085601f830112612c6c57600080fd5b813581811115612c7b57600080fd5b8660208260051b8501011115612c9057600080fd5b60209290920196919550909350505050565b6001600160a01b0391909116815260200190565b60008060408385031215612cc957600080fd5b82356001600160401b0380821115612ce057600080fd5b612cec868387016128f9565b93506020850135915080821115612d0257600080fd5b506128b785828601612976565b600060208284031215612d2157600080fd5b81356001600160401b03811115612d3757600080fd5b610b53848285016128f9565b600060208284031215612d5557600080fd5b6117458261295f565b805160208201516001600160601b03198082169291906014831015612d8d5780818460140360031b1b83161693505b505050919050565b60018060a01b03851681528360208201528260408201526080606082015260006121576080830184612b20565b600060208284031215612dd457600080fd5b81516001600160401b03811115612dea57600080fd5b8201601f81018413612dfb57600080fd5b8051612e09612844826127fe565b818152856020838501011115612e1e57600080fd5b612406826020830160208601612afc565b604081526000612e426040830185612b20565b82810360208401526124068185612b20565b8385823760609290921b6001600160601b031916919092019081526014810191909152603401919050565b60008251612e91818460208701612afc565b9190910192915050565b828152604060208201526000610b536040830184612b20565b600060208284031215612ec657600080fd5b5051919050565b634e487b7160e01b600052602160045260246000fd5b6001600160e01b031991909116815260040190565b604081526000612f0b6040830184612b20565b828103602093840152600081529190910192915050565b634e487b7160e01b600052603260045260246000fd5b6000808335601e19843603018112612f4f57600080fd5b8301803591506001600160401b03821115612f6957600080fd5b60200191503681900382131561178a57600080fd5b8183823760009101908152919050565b6001600160a01b0392831681529116602082015260400190565b600181811c90821680612fbc57607f821691505b60208210810361131f57634e487b7160e01b600052602260045260246000fd5b8051602080830151919081101561131f5760001960209190910360031b1b16919050565b6001600160a01b0387811682528681166020830152851660408201526060810184905260a06080820181905281018290526000828460c0840137600060c0848401015260c0601f19601f8501168301019050979650505050505050565b60006020828403121561306f57600080fd5b815161174581612785565b91151582526001600160e01b031916602082015260400190565b60006bffffffffffffffffffffffff19808960601b168352808860601b166014840152808760601b1660288401525084603c8301528284605c8401375060009101605c0190815295945050505050565b634e487b7160e01b600052601160045260246000fd5b80820180821115610810576108106130e4565b601f821115610ea857600081815260208120601f850160051c810160208610156131345750805b601f850160051c820191505b8181101561315357828155600101613140565b505050505050565b81516001600160401b03811115613174576131746127b8565b613188816131828454612fa8565b8461310d565b602080601f8311600181146131bd57600084156131a55750858301515b600019600386901b1c1916600185901b178555613153565b600085815260208120601f198616915b828110156131ec578886015182559484019460019091019084016131cd565b508582101561320a5787850151600019600388901b60f8161c191681555b5050505050600190811b01905550565b805160208201516001600160e01b03198082169291906004831015612d8d5760049290920360031b82901b161692915050565b60609190911b6001600160601b031916815260140190565b81810381811115610810576108106130e456fe9c3ba68eb5742b8e3961aea0afc7371a71bf433c8a67a831803b64c064a178c24810874456b8e6487bd861375cf6abd8e1c8bb5858c8ce36a86a04dabfac199e9c4705229491d365fb5434052e12a386d6771d976bea61070a8c694e8affea3da4e59c931d14f7c8a7a35027f92ee40b5f2886b9fdcdb78f30bc5ecce5a2f814a26469706673582212207036ea7ee279f8c472339cb374abb4d9a48ea19e678bb1a167f66ff0c2c08b2764736f6c63430008130033",
  "linkReferences": {},
  "deployedLinkReferences": {}
}