{
  "_format": "hh-sol-artifact-1",
  "contractName": "LSP0ERC725Account",
  "sourceName": "@lukso/lsp-smart-contracts/contracts/LSP0ERC725Account/LSP0ERC725Account.sol",
  "abi": [
    {
      "inputs": [
        {
          "internalType": "address",
          "name": "initialOwner",
          "type": "address"
        }
      ],
      "stateMutability": "payable",
      "type": "constructor"
    },
    {
      "inputs": [],
      "name": "CannotTransferOwnershipToSelf",
      "type": "error"
    },
    {
      "inputs": [],
      "name": "ERC725X_ContractDeploymentFailed",
      "type": "error"
    },
    {
      "inputs": [],
      "name": "ERC725X_CreateOperationsRequireEmptyRecipientAddress",
      "type": "error"
    },
    {
      "inputs": [],
      "name": "ERC725X_ExecuteParametersEmptyArray",
      "type": "error"
    },
    {
      "inputs": [],
      "name": "ERC725X_ExecuteParametersLengthMismatch",
      "type": "error"
    },
    {
      "inputs": [
        {
          "internalType": "uint256",
          "name": "balance",
          "type": "uint256"
        },
        {
          "internalType": "uint256",
          "name": "value",
          "type": "uint256"
        }
      ],
      "name": "ERC725X_InsufficientBalance",
      "type": "error"
    },
    {
      "inputs": [],
      "name": "ERC725X_MsgValueDisallowedInDelegateCall",
      "type": "error"
    },
    {
      "inputs": [],
      "name": "ERC725X_MsgValueDisallowedInStaticCall",
      "type": "error"
    },
    {
      "inputs": [],
      "name": "ERC725X_NoContractBytecodeProvided",
      "type": "error"
    },
    {
      "inputs": [
        {
          "internalType": "uint256",
          "name": "operationTypeProvided",
          "type": "uint256"
        }
      ],
      "name": "ERC725X_UnknownOperationType",
      "type": "error"
    },
    {
      "inputs": [],
      "name": "ERC725Y_DataKeysValuesLengthMismatch",
      "type": "error"
    },
    {
      "inputs": [],
      "name": "LSP14MustAcceptOwnershipInSeparateTransaction",
      "type": "error"
    },
    {
      "inputs": [
        {
          "internalType": "bool",
          "name": "postCall",
          "type": "bool"
        }
      ],
      "name": "LSP20CallingVerifierFailed",
      "type": "error"
    },
    {
      "inputs": [
        {
          "internalType": "bool",
          "name": "postCall",
          "type": "bool"
        },
        {
          "internalType": "bytes",
          "name": "returnedData",
          "type": "bytes"
        }
      ],
      "name": "LSP20InvalidMagicValue",
      "type": "error"
    },
    {
      "inputs": [
        {
          "internalType": "bytes4",
          "name": "functionSelector",
          "type": "bytes4"
        }
      ],
      "name": "NoExtensionFoundForFunctionSelector",
      "type": "error"
    },
    {
      "inputs": [
        {
          "internalType": "uint256",
          "name": "renounceOwnershipStart",
          "type": "uint256"
        },
        {
          "internalType": "uint256",
          "name": "renounceOwnershipEnd",
          "type": "uint256"
        }
      ],
      "name": "NotInRenounceOwnershipInterval",
      "type": "error"
    },
    {
      "anonymous": false,
      "inputs": [
        {
          "indexed": true,
          "internalType": "uint256",
          "name": "operationType",
          "type": "uint256"
        },
        {
          "indexed": true,
          "internalType": "address",
          "name": "contractAddress",
          "type": "address"
        },
        {
          "indexed": true,
          "internalType": "uint256",
          "name": "value",
          "type": "uint256"
        },
        {
          "indexed": false,
          "internalType": "bytes32",
          "name": "salt",
          "type": "bytes32"
        }
      ],
      "name": "ContractCreated",
      "type": "event"
    },
    {
      "anonymous": false,
      "inputs": [
        {
          "indexed": true,
          "internalType": "bytes32",
          "name": "dataKey",
          "type": "bytes32"
        },
        {
          "indexed": false,
          "internalType": "bytes",
          "name": "dataValue",
          "type": "bytes"
        }
      ],
      "name": "DataChanged",
      "type": "event"
    },
    {
      "anonymous": false,
      "inputs": [
        {
          "indexed": true,
          "internalType": "uint256",
          "name": "operationType",
          "type": "uint256"
        },
        {
          "indexed": true,
          "internalType": "address",
          "name": "target",
          "type": "address"
        },
        {
          "indexed": true,
          "internalType": "uint256",
          "name": "value",
          "type": "uint256"
        },
        {
          "indexed": false,
          "internalType": "bytes4",
          "name": "selector",
          "type": "bytes4"
        }
      ],
      "name": "Executed",
      "type": "event"
    },
    {
      "anonymous": false,
      "inputs": [],
      "name": "OwnershipRenounced",
      "type": "event"
    },
    {
      "anonymous": false,
      "inputs": [
        {
          "indexed": true,
          "internalType": "address",
          "name": "previousOwner",
          "type": "address"
        },
        {
          "indexed": true,
          "internalType": "address",
          "name": "newOwner",
          "type": "address"
        }
      ],
      "name": "OwnershipTransferStarted",
      "type": "event"
    },
    {
      "anonymous": false,
      "inputs": [
        {
          "indexed": true,
          "internalType": "address",
          "name": "previousOwner",
          "type": "address"
        },
        {
          "indexed": true,
          "internalType": "address",
          "name": "newOwner",
          "type": "address"
        }
      ],
      "name": "OwnershipTransferred",
      "type": "event"
    },
    {
      "anonymous": false,
      "inputs": [],
      "name": "RenounceOwnershipStarted",
      "type": "event"
    },
    {
      "anonymous": false,
      "inputs": [
        {
          "indexed": true,
          "internalType": "address",
          "name": "from",
          "type": "address"
        },
        {
          "indexed": true,
          "internalType": "uint256",
          "name": "value",
          "type": "uint256"
        },
        {
          "indexed": true,
          "internalType": "bytes32",
          "name": "typeId",
          "type": "bytes32"
        },
        {
          "indexed": false,
          "internalType": "bytes",
          "name": "receivedData",
          "type": "bytes"
        },
        {
          "indexed": false,
          "internalType": "bytes",
          "name": "returnedValue",
          "type": "bytes"
        }
      ],
      "name": "UniversalReceiver",
      "type": "event"
    },
    {
      "anonymous": false,
      "inputs": [
        {
          "indexed": true,
          "internalType": "address",
          "name": "sender",
          "type": "address"
        },
        {
          "indexed": true,
          "internalType": "uint256",
          "name": "value",
          "type": "uint256"
        }
      ],
      "name": "ValueReceived",
      "type": "event"
    },
    {
      "stateMutability": "payable",
      "type": "fallback"
    },
    {
      "inputs": [],
      "name": "RENOUNCE_OWNERSHIP_CONFIRMATION_DELAY",
      "outputs": [
        {
          "internalType": "uint256",
          "name": "",
          "type": "uint256"
        }
      ],
      "stateMutability": "view",
      "type": "function"
    },
    {
      "inputs": [],
      "name": "RENOUNCE_OWNERSHIP_CONFIRMATION_PERIOD",
      "outputs": [
        {
          "internalType": "uint256",
          "name": "",
          "type": "uint256"
        }
      ],
      "stateMutability": "view",
      "type": "function"
    },
    {
      "inputs": [],
      "name": "acceptOwnership",
      "outputs": [],
      "stateMutability": "nonpayable",
      "type": "function"
    },
    {
      "inputs": [
        {
          "internalType": "bytes[]",
          "name": "data",
          "type": "bytes[]"
        }
      ],
      "name": "batchCalls",
      "outputs": [
        {
          "internalType": "bytes[]",
          "name": "results",
          "type": "bytes[]"
        }
      ],
      "stateMutability": "nonpayable",
      "type": "function"
    },
    {
      "inputs": [
        {
          "internalType": "uint256",
          "name": "operationType",
          "type": "uint256"
        },
        {
          "internalType": "address",
          "name": "target",
          "type": "address"
        },
        {
          "internalType": "uint256",
          "name": "value",
          "type": "uint256"
        },
        {
          "internalType": "bytes",
          "name": "data",
          "type": "bytes"
        }
      ],
      "name": "execute",
      "outputs": [
        {
          "internalType": "bytes",
          "name": "",
          "type": "bytes"
        }
      ],
      "stateMutability": "payable",
      "type": "function"
    },
    {
      "inputs": [
        {
          "internalType": "uint256[]",
          "name": "operationsType",
          "type": "uint256[]"
        },
        {
          "internalType": "address[]",
          "name": "targets",
          "type": "address[]"
        },
        {
          "internalType": "uint256[]",
          "name": "values",
          "type": "uint256[]"
        },
        {
          "internalType": "bytes[]",
          "name": "datas",
          "type": "bytes[]"
        }
      ],
      "name": "executeBatch",
      "outputs": [
        {
          "internalType": "bytes[]",
          "name": "",
          "type": "bytes[]"
        }
      ],
      "stateMutability": "payable",
      "type": "function"
    },
    {
      "inputs": [
        {
          "internalType": "bytes32",
          "name": "dataKey",
          "type": "bytes32"
        }
      ],
      "name": "getData",
      "outputs": [
        {
          "internalType": "bytes",
          "name": "dataValue",
          "type": "bytes"
        }
      ],
      "stateMutability": "view",
      "type": "function"
    },
    {
      "inputs": [
        {
          "internalType": "bytes32[]",
          "name": "dataKeys",
          "type": "bytes32[]"
        }
      ],
      "name": "getDataBatch",
      "outputs": [
        {
          "internalType": "bytes[]",
          "name": "dataValues",
          "type": "bytes[]"
        }
      ],
      "stateMutability": "view",
      "type": "function"
    },
    {
      "inputs": [
        {
          "internalType": "bytes32",
          "name": "dataHash",
          "type": "bytes32"
        },
        {
          "internalType": "bytes",
          "name": "signature",
          "type": "bytes"
        }
      ],
      "name": "isValidSignature",
      "outputs": [
        {
          "internalType": "bytes4",
          "name": "magicValue",
          "type": "bytes4"
        }
      ],
      "stateMutability": "view",
      "type": "function"
    },
    {
      "inputs": [],
      "name": "owner",
      "outputs": [
        {
          "internalType": "address",
          "name": "",
          "type": "address"
        }
      ],
      "stateMutability": "view",
      "type": "function"
    },
    {
      "inputs": [],
      "name": "pendingOwner",
      "outputs": [
        {
          "internalType": "address",
          "name": "",
          "type": "address"
        }
      ],
      "stateMutability": "view",
      "type": "function"
    },
    {
      "inputs": [],
      "name": "renounceOwnership",
      "outputs": [],
      "stateMutability": "nonpayable",
      "type": "function"
    },
    {
      "inputs": [
        {
          "internalType": "bytes32",
          "name": "dataKey",
          "type": "bytes32"
        },
        {
          "internalType": "bytes",
          "name": "dataValue",
          "type": "bytes"
        }
      ],
      "name": "setData",
      "outputs": [],
      "stateMutability": "payable",
      "type": "function"
    },
    {
      "inputs": [
        {
          "internalType": "bytes32[]",
          "name": "dataKeys",
          "type": "bytes32[]"
        },
        {
          "internalType": "bytes[]",
          "name": "dataValues",
          "type": "bytes[]"
        }
      ],
      "name": "setDataBatch",
      "outputs": [],
      "stateMutability": "payable",
      "type": "function"
    },
    {
      "inputs": [
        {
          "internalType": "bytes4",
          "name": "interfaceId",
          "type": "bytes4"
        }
      ],
      "name": "supportsInterface",
      "outputs": [
        {
          "internalType": "bool",
          "name": "",
          "type": "bool"
        }
      ],
      "stateMutability": "view",
      "type": "function"
    },
    {
      "inputs": [
        {
          "internalType": "address",
          "name": "pendingNewOwner",
          "type": "address"
        }
      ],
      "name": "transferOwnership",
      "outputs": [],
      "stateMutability": "nonpayable",
      "type": "function"
    },
    {
      "inputs": [
        {
          "internalType": "bytes32",
          "name": "typeId",
          "type": "bytes32"
        },
        {
          "internalType": "bytes",
          "name": "receivedData",
          "type": "bytes"
        }
      ],
      "name": "universalReceiver",
      "outputs": [
        {
          "internalType": "bytes",
          "name": "returnedValues",
          "type": "bytes"
        }
      ],
      "stateMutability": "payable",
      "type": "function"
    },
    {
      "stateMutability": "payable",
      "type": "receive"
    }
  ],
  "bytecode": "0x608060405260405162003186380380620031868339810160408190526200002691620000d4565b34156200005b57604051349033907f7e71433ddf847725166244795048ecf3e3f9f35628254ecbf73605666423349390600090a35b62000066816200006d565b5062000106565b6000546001600160a01b03828116911614620000d157600080546001600160a01b038381166001600160a01b0319831681178455604051919092169283917f8be0079c531659141344cd1fd0a4f28419497f9722a3daafe3b4186f6b6457e09190a3505b50565b600060208284031215620000e757600080fd5b81516001600160a01b0381168114620000ff57600080fd5b9392505050565b61307080620001166000396000f3fe6080604052600436106100e25760003560e01c8063715018a611610085578063715018a61461028057806379ba5097146102955780637f23690c146102aa5780638da5cb5b146102bd57806397902421146102ea578063dedff9c6146102fd578063e30c39781461031d578063ead3fbdf14610168578063f2fde38b1461033b5761010b565b806301bfba611461016857806301ffc9a7146101905780631626ba7e146101c057806331858452146101ed57806344c028fe1461020d57806354f6127f1461022d5780636963d4381461024d5780636bb56a141461026d5761010b565b3661010b5734156101095760405134903390600080516020612ffb83398151915290600090a35b005b600036606034156101325760405134903390600080516020612ffb83398151915290600090a35b6004361015610150575060408051602081019091526000815261015d565b61015a838361035b565b90505b915050805190602001f35b34801561017457600080fd5b5061017d60c881565b6040519081526020015b60405180910390f35b34801561019c57600080fd5b506101b06101ab3660046124e5565b610494565b6040519015158152602001610187565b3480156101cc57600080fd5b506101e06101db3660046125c5565b610534565b604051610187919061260b565b6102006101fb366004612744565b6106dc565b604051610187919061289b565b61022061021b3660046128fd565b610789565b6040516101879190612951565b34801561023957600080fd5b50610220610248366004612964565b61080d565b34801561025957600080fd5b5061020061026836600461297d565b610818565b61022061027b3660046129f1565b61096f565b34801561028c57600080fd5b50610109610af9565b3480156102a157600080fd5b50610109610bc2565b6101096102b83660046125c5565b610c82565b3480156102c957600080fd5b506102d2610d06565b6040516001600160a01b039091168152602001610187565b6101096102f8366004612a6c565b610d15565b34801561030957600080fd5b50610200610318366004612ac5565b610e35565b34801561032957600080fd5b506003546001600160a01b03166102d2565b34801561034757600080fd5b50610109610356366004612af9565b610edf565b606060006103746000356001600160e01b031916611087565b90506000356001600160e01b03191615801561039757506001600160a01b038116155b156103b257505060408051602081019091526000815261048e565b6001600160a01b0381166103f0576000356001600160e01b03191660405163bb370b2b60e01b81526004016103e7919061260b565b60405180910390fd5b600080826001600160a01b0316868633346040516020016104149493929190612b14565b60408051601f198184030181529082905261042e91612b3f565b6000604051808303816000865af19150503d806000811461046b576040519150601f19603f3d011682016040523d82523d6000602084013e610470565b606091505b5091509150811561048557925061048e915050565b80518060208301fd5b92915050565b60006001600160e01b03198216630b135d3f60e11b14806104c557506001600160e01b031982166324871b3d60e01b145b806104e057506001600160e01b03198216631aed5a8560e21b145b806104fb57506001600160e01b031982166394be599960e01b145b8061051657506001600160e01b03198216631a0eb6a560e01b145b806105255750610525826110cc565b8061048e575061048e826110f1565b60008061053f610d06565b90506001600160a01b0381163b1561065c57600080826001600160a01b0316631626ba7e60e01b8787604051602401610579929190612b5b565b60408051601f198184030181529181526020820180516001600160e01b03166001600160e01b03199094169390931790925290516105b79190612b3f565b600060405180830381855afa9150503d80600081146105f2576040519150601f19603f3d011682016040523d82523d6000602084013e6105f7565b606091505b5091509150600082801561060c575081516020145b801561063357508151630b135d3f60e11b906106319084016020908101908501612b74565b145b905080610648576001600160e01b0319610651565b630b135d3f60e11b5b94505050505061048e565b600080610669868661112e565b9092509050600081600481111561068257610682612b8d565b1461069b57506001600160e01b0319925061048e915050565b826001600160a01b0316826001600160a01b0316146106c2576001600160e01b03196106cb565b630b135d3f60e11b5b935050505061048e565b5092915050565b606034156107005760405134903390600080516020612ffb83398151915290600090a35b600061070a610d06565b90506001600160a01b03811633036107305761072886868686611173565b915050610781565b600061073b826112d0565b9050600061074b88888888611173565b9050811561077c5761077c8382604051602001610768919061289b565b60405160208183030381529060405261140c565b925050505b949350505050565b606034156107ad5760405134903390600080516020612ffb83398151915290600090a35b60006107b7610d06565b90506001600160a01b03811633036107d5576107288686868661153d565b60006107e0826112d0565b905060006107f08888888861153d565b9050811561077c5761077c83826040516020016107689190612951565b606061048e82611648565b6060816001600160401b0381111561083257610832612502565b60405190808252806020026020018201604052801561086557816020015b60608152602001906001900390816108505790505b50905060005b828110156106d5576000803086868581811061088957610889612ba3565b905060200281019061089b9190612bb9565b6040516108a9929190612bff565b600060405180830381855af49150503d80600081146108e4576040519150601f19603f3d011682016040523d82523d6000602084013e6108e9565b606091505b509150915081610947578051156109035780518082602001fd5b60405162461bcd60e51b81526020600482015260196024820152781314d40c0e8818985d18da10d85b1b1cc81c995d995c9d1959603a1b60448201526064016103e7565b8084848151811061095a5761095a612ba3565b6020908102919091010152505060010161086b565b606034156109935760405134903390600080516020612ffb83398151915290600090a35b60006109be7f0cfc51aec37c55a4d0b1a65c6255c4bf2fbdf6277f3cc0730c45b828b6db8b47611648565b905060606014825110610a0d5760006109d683612c0f565b60601c90506109ec81631aed5a8560e21b6116ea565b15610a0b57610a086001600160a01b038216888888333461177e565b91505b505b6000610a26690cfc51aec37c55a4d0b160b01b886118c6565b90506000610a3382611648565b905060606014825110610a82576000610a4b83612c0f565b60601c9050610a6181631aed5a8560e21b6116ea565b15610a8057610a7d6001600160a01b0382168b8b8b333461177e565b91505b505b8381604051602001610a95929190612c46565b60405160208183030381529060405295508834336001600160a01b03167f9c3ba68eb5742b8e3961aea0afc7371a71bf433c8a67a831803b64c064a178c28b8b8b604051610ae593929190612c94565b60405180910390a450505050509392505050565b6000610b03610d06565b90506001600160a01b0381163303610b2057610b1d611912565b50565b6000610b2b826112d0565b90506000610b37610d06565b9050610b41611912565b6000610b4b610d06565b6001600160a01b031603610b9e57604080516020810190915260008152610b9e906001600160a01b038316907fa4e59c931d14f7c8a7a35027f92ee40b5f2886b9fdcdb78f30bc5ecce5a2f81490611a05565b8115610bbd57610bbd836040518060200160405280600081525061140c565b505050565b600354600160a01b900460ff1615610bed57604051635758dd0760e01b815260040160405180910390fd5b6000610bf7610d06565b9050610c01611a90565b604080516020810190915260008152610c46906001600160a01b038316907fa4e59c931d14f7c8a7a35027f92ee40b5f2886b9fdcdb78f30bc5ecce5a2f81490611a05565b604080516020810190915260008152610b1d9033907fceca317f109c43507871523e82dc2a3cc64dfa18f12da0b6db14f6e23f99553890611a05565b3415610ca45760405134903390600080516020612ffb83398151915290600090a35b6000610cae610d06565b90506001600160a01b0381163303610cca57610bbd8383611b13565b6000610cd5826112d0565b9050610ce18484611b13565b8015610d0057610d00826040518060200160405280600081525061140c565b50505050565b6000546001600160a01b031690565b3415610d375760405134903390600080516020612ffb83398151915290600090a35b8051825114610d5957604051633bcc897960e01b815260040160405180910390fd5b6000610d63610d06565b90506001600160a01b0381163303610dc55760005b8351811015610d0057610dbd848281518110610d9657610d96612ba3565b6020026020010151848381518110610db057610db0612ba3565b6020026020010151611b13565b600101610d78565b6000610dd0826112d0565b905060005b8451811015610e1557610e0d858281518110610df357610df3612ba3565b6020026020010151858381518110610db057610db0612ba3565b600101610dd5565b508015610d0057610d00826040518060200160405280600081525061140c565b606081516001600160401b03811115610e5057610e50612502565b604051908082528060200260200182016040528015610e8357816020015b6060815260200190600190039081610e6e5790505b50905060005b8251811015610ed957610eb4838281518110610ea757610ea7612ba3565b6020026020010151611648565b828281518110610ec657610ec6612ba3565b6020908102919091010152600101610e89565b50919050565b6000610ee9610d06565b90506001600160a01b0381163303610fad576003805460ff60a01b1916600160a01b179055610f1782611b87565b816001600160a01b0316816001600160a01b03167f38d16b8cac22d99fc7c124b9cd0de2d3fa1faef420bfe791d8c362d765e2270060405160405180910390a3604080516020810190915260008152610f9c906001600160a01b038416907fe17117c9d2665d1dbeb479ed8058bbebde3c50ac50e2e65619f60006caac692690611a05565b6003805460ff60a01b191690555050565b6000610fb8826112d0565b6003805460ff60a01b1916600160a01b1790559050610fd683611b87565b826001600160a01b0316826001600160a01b03167f38d16b8cac22d99fc7c124b9cd0de2d3fa1faef420bfe791d8c362d765e2270060405160405180910390a360408051602081019091526000815261105b906001600160a01b038516907fe17117c9d2665d1dbeb479ed8058bbebde3c50ac50e2e65619f60006caac692690611a05565b6003805460ff60a01b191690558015610bbd57610bbd826040518060200160405280600081525061140c565b6000806110ab696773c5a04a6d4300884b60b11b6001600160e01b031985166118c6565b905060006110b882611648565b6110c190612c0f565b60601c949350505050565b60006001600160e01b0319821663a918fa6b60e01b148061048e575061048e82611bd7565b6000806111046301ffc9a760e01b611087565b90506001600160a01b03811661111d5750600092915050565b61112781846116ea565b9392505050565b60008082516041036111645760208301516040840151606085015160001a61115887828585611bfc565b9450945050505061116c565b506000905060025b9250929050565b60608351855114158061119457508251845114158061119457508151835114155b156111b257604051633ff55f4d60e01b815260040160405180910390fd5b84516000036111d45760405163e9ad2b5f60e01b815260040160405180910390fd5b600085516001600160401b038111156111ef576111ef612502565b60405190808252806020026020018201604052801561122257816020015b606081526020019060019003908161120d5790505b50905060005b86518110156112c6576112a187828151811061124657611246612ba3565b602002602001015187838151811061126057611260612ba3565b602002602001015187848151811061127a5761127a612ba3565b602002602001015187858151811061129457611294612ba3565b602002602001015161153d565b8282815181106112b3576112b3612ba3565b6020908102919091010152600101611228565b5095945050505050565b6000806000836001600160a01b0316639bf04b1160e01b33346000366040516024016112ff9493929190612cba565b60408051601f198184030181529181526020820180516001600160e01b03166001600160e01b031990941693909317909252905161133d9190612b3f565b6000604051808303816000865af19150503d806000811461137a576040519150601f19603f3d011682016040523d82523d6000602084013e61137f565b606091505b509150915061139060008383611cb6565b6000818060200190518101906113a69190612ce2565b90506001600160e81b03198116629bf04b60e81b146113dd5760008260405163034223b160e61b81526004016103e7929190612cff565b600160f81b6001600160f81b0319600383901a60f81b1614611400576000611403565b60015b95945050505050565b600080836001600160a01b031663d3fc45d360e01b33346000366040516020016114399493929190612d1a565b6040516020818303038152906040528051906020012085604051602401611461929190612b5b565b60408051601f198184030181529181526020820180516001600160e01b03166001600160e01b031990941693909317909252905161149f9190612b3f565b6000604051808303816000865af19150503d80600081146114dc576040519150601f19603f3d011682016040523d82523d6000602084013e6114e1565b606091505b50915091506114f260018383611cb6565b805163d3fc45d360e01b906115109083016020908101908401612ce2565b6001600160e01b03191614610d005760018160405163034223b160e61b81526004016103e7929190612cff565b6060846115565761154f848484611d0b565b9050610781565b60018503611590576001600160a01b0384161561158657604051631820c12560e11b815260040160405180910390fd5b61154f8383611e17565b600285036115ca576001600160a01b038416156115c057604051631820c12560e11b815260040160405180910390fd5b61154f8383611f0a565b600385036115fb5782156115f1576040516339795e3560e11b815260040160405180910390fd5b61154f8483611fe6565b6004850361162c57821561162257604051635ac8313560e01b815260040160405180910390fd5b61154f84836120bc565b604051631d60ecef60e21b8152600481018690526024016103e7565b600081815260016020526040902080546060919061166590612d4d565b80601f016020809104026020016040519081016040528092919081815260200182805461169190612d4d565b80156116de5780601f106116b3576101008083540402835291602001916116de565b820191906000526020600020905b8154815290600101906020018083116116c157829003601f168201915b50505050509050919050565b6000806301ffc9a760e01b83604051602401611706919061260b565b604051602081830303815290604052906001600160e01b0319166020820180516001600160e01b03838183161783525050505090506000806000602060008551602087018a617530fa92503d91506000519050828015611767575060208210155b80156117735750600081115b979650505050505050565b60606000636bb56a1460e01b87878760405160240161179f93929190612d81565b60408051601f19818403018152918152602080830180516001600160e01b03166001600160e01b031990951694909417909352516117e1928791879101612d9b565b6040516020818303038152906040529050600080896001600160a01b03168360405161180d9190612b3f565b6000604051808303816000865af19150503d806000811461184a576040519150601f19603f3d011682016040523d82523d6000602084013e61184f565b606091505b509150915061189482826040518060400160405280602081526020017f43616c6c20746f20756e6976657273616c5265636569766572206661696c656481525061214f565b5080516000036118a457806118b8565b808060200190518101906118b89190612dd5565b9a9950505050505050505050565b604080516001600160b01b0319841660208201526000602a82018190526001600160601b03198416602c8301529182910160405160208183030381529060405290508061078190612e42565b60025443906000906119269060c890612e7c565b9050600061193560c883612e7c565b9050808311806119455750600254155b1561198d576002839055600380546001600160a01b03191690556040517f81b7f830f1f0084db6497c486cbe6974c86488dcc4e3738eab94ab6d6b1653e790600090a1505050565b818310156119b857604051638b9bf50760e01b815260048101839052602481018290526044016103e7565b6119c26000612168565b60006002819055600380546001600160a01b03191690556040517fd1f66c3d2bc1993a86be5e3d33709d98f0442381befcedd29f578b9b2506b1ce9190a1505050565b611a1683631aed5a8560e21b6116ea565b15610bbd57604051631aed5a8560e21b81526001600160a01b03841690636bb56a1490611a499085908590600401612b5b565b6000604051808303816000875af1158015611a68573d6000803e3d6000fd5b505050506040513d6000823e601f3d908101601f19168201604052610d009190810190612dd5565b6003546001600160a01b03163314611af85760405162461bcd60e51b815260206004820152602560248201527f4c535031343a2063616c6c6572206973206e6f74207468652070656e64696e6760448201526427bbb732b960d91b60648201526084016103e7565b611b0133612168565b600380546001600160a01b0319169055565b6000828152600160205260409020611b2b8282612edd565b50817fece574603820d07bc9b91f2a932baadf4628aabcb8afba49776529c14a6104b261010083511115611b6c57611b678360006101006121d8565b611b6e565b825b604051611b7b9190612951565b60405180910390a25050565b306001600160a01b03821603611bb0576040516343b248cd60e01b815260040160405180910390fd5b600380546001600160a01b0319166001600160a01b03929092169190911790556000600255565b60006001600160e01b031982166318a6a9a560e21b148061048e575061048e826122e5565b6000806fa2a8918ca85bafe22016d0b997e4df60600160ff1b03831115611c295750600090506003611cad565b6040805160008082526020820180845289905260ff881692820192909252606081018690526080810185905260019060a0016020604051602081039080840390855afa158015611c7d573d6000803e3d6000fd5b5050604051601f1901519150506001600160a01b038116611ca657600060019250925050611cad565b9150600090505b94509492505050565b81611cc557611cc5838261231a565b602081511080611ce9575060006020611cdd83612e42565b63ffffffff19911b1614155b15610bbd57828160405163034223b160e61b81526004016103e7929190612cff565b606082471015611d37576040516301bf351f60e31b8152476004820152602481018490526044016103e7565b826001600160a01b038516600060008051602061301b833981519152611d5c86612f9c565b604051611d69919061260b565b60405180910390a4600080856001600160a01b03168585604051611d8d9190612b3f565b60006040518083038185875af1925050503d8060008114611dca576040519150601f19603f3d011682016040523d82523d6000602084013e611dcf565b606091505b5091509150611e0d82826040518060400160405280601681526020017522a9219b991aac1d102ab735b737bbb71022b93937b960511b81525061214f565b9695505050505050565b606082471015611e43576040516301bf351f60e31b8152476004820152602481018490526044016103e7565b8151600003611e655760405163b81cd8d960e01b815260040160405180910390fd5b600082516020840185f090506001600160a01b038116611e9857604051630b07489b60e01b815260040160405180910390fd5b83816001600160a01b031660017fa1fb700aaee2ae4a2ff6f91ce7eba292f89c2f5488b8ec4c5c5c8150692595c36000801b604051611ed991815260200190565b60405180910390a480604051602001611ef29190612fcf565b60405160208183030381529060405291505092915050565b60608151600003611f2e5760405163b81cd8d960e01b815260040160405180910390fd5b6000611f478360208551611f429190612fe7565b612347565b90506000611f6484600060208751611f5f9190612fe7565b6121d8565b90506000611f738684846123a5565b905085816001600160a01b031660027fa1fb700aaee2ae4a2ff6f91ce7eba292f89c2f5488b8ec4c5c5c8150692595c386604051611fb391815260200190565b60405180910390a480604051602001611fcc9190612fcf565b604051602081830303815290604052935050505092915050565b606060006001600160a01b038416600360008051602061301b83398151915261200e86612f9c565b60405161201b919061260b565b60405180910390a4600080846001600160a01b03168460405161203e9190612b3f565b600060405180830381855afa9150503d8060008114612079576040519150601f19603f3d011682016040523d82523d6000602084013e61207e565b606091505b509150915061140382826040518060400160405280601681526020017522a9219b991aac1d102ab735b737bbb71022b93937b960511b81525061214f565b606060006001600160a01b038416600460008051602061301b8339815191526120e486612f9c565b6040516120f1919061260b565b60405180910390a4600080846001600160a01b0316846040516121149190612b3f565b600060405180830381855af49150503d8060008114612079576040519150601f19603f3d011682016040523d82523d6000602084013e61207e565b6060831561215e575081611127565b61112783836124a5565b612170610d06565b6001600160a01b0316816001600160a01b031614610b1d57600080546001600160a01b038381166001600160a01b0319831681178455604051919092169283917f8be0079c531659141344cd1fd0a4f28419497f9722a3daafe3b4186f6b6457e09190a35050565b6060816121e681601f612e7c565b10156122255760405162461bcd60e51b815260206004820152600e60248201526d736c6963655f6f766572666c6f7760901b60448201526064016103e7565b61222f8284612e7c565b845110156122735760405162461bcd60e51b8152602060048201526011602482015270736c6963655f6f75744f66426f756e647360781b60448201526064016103e7565b60608215801561229257604051915060008252602082016040526122dc565b6040519150601f8416801560200281840101858101878315602002848b0101015b818310156122cb5780518352602092830192016122b3565b5050858452601f01601f1916604052505b50949350505050565b60006001600160e01b03198216631d516b2b60e21b148061048e57506301ffc9a760e01b6001600160e01b031983161461048e565b80511561232a5780518082602001fd5b604051638c6a8ae360e01b815282151560048201526024016103e7565b6000612354826020612e7c565b8351101561239c5760405162461bcd60e51b8152602060048201526015602482015274746f427974657333325f6f75744f66426f756e647360581b60448201526064016103e7565b50016020015190565b6000834710156123f75760405162461bcd60e51b815260206004820152601d60248201527f437265617465323a20696e73756666696369656e742062616c616e636500000060448201526064016103e7565b81516000036124485760405162461bcd60e51b815260206004820181905260248201527f437265617465323a2062797465636f6465206c656e677468206973207a65726f60448201526064016103e7565b8282516020840186f590506001600160a01b0381166111275760405162461bcd60e51b8152602060048201526019602482015278437265617465323a204661696c6564206f6e206465706c6f7960381b60448201526064016103e7565b8151156124b55781518083602001fd5b8060405162461bcd60e51b81526004016103e79190612951565b6001600160e01b031981168114610b1d57600080fd5b6000602082840312156124f757600080fd5b8135611127816124cf565b634e487b7160e01b600052604160045260246000fd5b604051601f8201601f191681016001600160401b038111828210171561254057612540612502565b604052919050565b60006001600160401b0382111561256157612561612502565b50601f01601f191660200190565b600082601f83011261258057600080fd5b813561259361258e82612548565b612518565b8181528460208386010111156125a857600080fd5b816020850160208301376000918101602001919091529392505050565b600080604083850312156125d857600080fd5b8235915060208301356001600160401b038111156125f557600080fd5b6126018582860161256f565b9150509250929050565b6001600160e01b031991909116815260200190565b60006001600160401b0382111561263957612639612502565b5060051b60200190565b600082601f83011261265457600080fd5b8135602061266461258e83612620565b82815260059290921b8401810191818101908684111561268357600080fd5b8286015b8481101561269e5780358352918301918301612687565b509695505050505050565b80356001600160a01b03811681146126c057600080fd5b919050565b600082601f8301126126d657600080fd5b813560206126e661258e83612620565b82815260059290921b8401810191818101908684111561270557600080fd5b8286015b8481101561269e5780356001600160401b038111156127285760008081fd5b6127368986838b010161256f565b845250918301918301612709565b6000806000806080858703121561275a57600080fd5b84356001600160401b038082111561277157600080fd5b61277d88838901612643565b955060209150818701358181111561279457600080fd5b8701601f810189136127a557600080fd5b80356127b361258e82612620565b81815260059190911b8201840190848101908b8311156127d257600080fd5b928501925b828410156127f7576127e8846126a9565b825292850192908501906127d7565b9750505050604087013591508082111561281057600080fd5b61281c88838901612643565b9350606087013591508082111561283257600080fd5b5061283f878288016126c5565b91505092959194509250565b60005b8381101561286657818101518382015260200161284e565b50506000910152565b6000815180845261288781602086016020860161284b565b601f01601f19169290920160200192915050565b6000602080830181845280855180835260408601915060408160051b870101925083870160005b828110156128f057603f198886030184526128de85835161286f565b945092850192908501906001016128c2565b5092979650505050505050565b6000806000806080858703121561291357600080fd5b84359350612923602086016126a9565b92506040850135915060608501356001600160401b0381111561294557600080fd5b61283f8782880161256f565b602081526000611127602083018461286f565b60006020828403121561297657600080fd5b5035919050565b6000806020838503121561299057600080fd5b82356001600160401b03808211156129a757600080fd5b818501915085601f8301126129bb57600080fd5b8135818111156129ca57600080fd5b8660208260051b85010111156129df57600080fd5b60209290920196919550909350505050565b600080600060408486031215612a0657600080fd5b8335925060208401356001600160401b0380821115612a2457600080fd5b818601915086601f830112612a3857600080fd5b813581811115612a4757600080fd5b876020828501011115612a5957600080fd5b6020830194508093505050509250925092565b60008060408385031215612a7f57600080fd5b82356001600160401b0380821115612a9657600080fd5b612aa286838701612643565b93506020850135915080821115612ab857600080fd5b50612601858286016126c5565b600060208284031215612ad757600080fd5b81356001600160401b03811115612aed57600080fd5b61078184828501612643565b600060208284031215612b0b57600080fd5b611127826126a9565b8385823760609290921b6001600160601b031916919092019081526014810191909152603401919050565b60008251612b5181846020870161284b565b9190910192915050565b828152604060208201526000610781604083018461286f565b600060208284031215612b8657600080fd5b5051919050565b634e487b7160e01b600052602160045260246000fd5b634e487b7160e01b600052603260045260246000fd5b6000808335601e19843603018112612bd057600080fd5b8301803591506001600160401b03821115612bea57600080fd5b60200191503681900382131561116c57600080fd5b8183823760009101908152919050565b805160208201516001600160601b03198082169291906014831015612c3e5780818460140360031b1b83161693505b505050919050565b604081526000612c59604083018561286f565b8281036020840152611403818561286f565b81835281816020850137506000828201602090810191909152601f909101601f19169091010190565b604081526000612ca8604083018587612c6b565b8281036020840152611e0d818561286f565b60018060a01b0385168152836020820152606060408201526000611e0d606083018486612c6b565b600060208284031215612cf457600080fd5b8151611127816124cf565b8215158152604060208201526000610781604083018461286f565b6bffffffffffffffffffffffff198560601b16815283601482015281836034830137600091016034019081529392505050565b600181811c90821680612d6157607f821691505b602082108103610ed957634e487b7160e01b600052602260045260246000fd5b838152604060208201526000611403604083018486612c6b565b60008451612dad81846020890161284b565b60609490941b6001600160601b03191691909301908152601481019190915260340192915050565b600060208284031215612de757600080fd5b81516001600160401b03811115612dfd57600080fd5b8201601f81018413612e0e57600080fd5b8051612e1c61258e82612548565b818152856020838501011115612e3157600080fd5b61140382602083016020860161284b565b80516020808301519190811015610ed95760001960209190910360031b1b16919050565b634e487b7160e01b600052601160045260246000fd5b8082018082111561048e5761048e612e66565b601f821115610bbd57600081815260208120601f850160051c81016020861015612eb65750805b601f850160051c820191505b81811015612ed557828155600101612ec2565b505050505050565b81516001600160401b03811115612ef657612ef6612502565b612f0a81612f048454612d4d565b84612e8f565b602080601f831160018114612f3f5760008415612f275750858301515b600019600386901b1c1916600185901b178555612ed5565b600085815260208120601f198616915b82811015612f6e57888601518255948401946001909101908401612f4f565b5085821015612f8c5787850151600019600388901b60f8161c191681555b5050505050600190811b01905550565b805160208201516001600160e01b03198082169291906004831015612c3e5760049290920360031b82901b161692915050565b60609190911b6001600160601b031916815260140190565b8181038181111561048e5761048e612e6656fe7e71433ddf847725166244795048ecf3e3f9f35628254ecbf7360566642334934810874456b8e6487bd861375cf6abd8e1c8bb5858c8ce36a86a04dabfac199ea2646970667358221220fed74f4c24104f0eadac9c5840d23807b5b1829fd6f0a1b2d4ceb544cf25f98764736f6c63430008130033",
  "linkReferences": {},
  "deployedLinkReferences": {}
}