{
  "_format": "hh-sol-artifact-1",
  "contractName": "LSP8Marketplace",
  "sourceName": "contracts/LSP8Marketplace.sol",
  "abi": [
    {
      "inputs": [
        {
          "internalType": "address",
          "name": "_owner",
          "type": "address"
        },
        {
          "internalType": "address",
          "name": "_admin",
          "type": "address"
        },
        {
          "internalType": "address",
          "name": "_placeholder",
          "type": "address"
        }
      ],
      "stateMutability": "nonpayable",
      "type": "constructor"
    },
    {
      "inputs": [
        {
          "internalType": "address",
          "name": "beneficiary",
          "type": "address"
        },
        {
          "internalType": "uint256",
          "name": "amount",
          "type": "uint256"
        }
      ],
      "name": "DispositionFailure",
      "type": "error"
    },
    {
      "inputs": [
        {
          "internalType": "bytes32",
          "name": "key",
          "type": "bytes32"
        }
      ],
      "name": "EnumerableMapNonexistentKey",
      "type": "error"
    },
    {
      "inputs": [
        {
          "internalType": "address",
          "name": "account",
          "type": "address"
        }
      ],
      "name": "InvalidBeneficiary",
      "type": "error"
    },
    {
      "inputs": [],
      "name": "InvalidFamilySignature",
      "type": "error"
    },
    {
      "inputs": [],
      "name": "LSP8Marketplace__OnlyAdmin",
      "type": "error"
    },
    {
      "inputs": [],
      "name": "MarketplaceNotOperator",
      "type": "error"
    },
    {
      "inputs": [
        {
          "internalType": "address",
          "name": "callerAddress",
          "type": "address"
        }
      ],
      "name": "OwnableCallerNotTheOwner",
      "type": "error"
    },
    {
      "inputs": [],
      "name": "OwnableCannotSetZeroAddressAsOwner",
      "type": "error"
    },
    {
      "inputs": [
        {
          "internalType": "uint32",
          "name": "royaltiesThresholdPoints",
          "type": "uint32"
        },
        {
          "internalType": "uint256",
          "name": "totalPrice",
          "type": "uint256"
        },
        {
          "internalType": "uint256",
          "name": "totalRoyalties",
          "type": "uint256"
        }
      ],
      "name": "RoyaltiesExceedThreshold",
      "type": "error"
    },
    {
      "anonymous": false,
      "inputs": [
        {
          "indexed": true,
          "internalType": "address",
          "name": "oldBeneficiary",
          "type": "address"
        },
        {
          "indexed": true,
          "internalType": "address",
          "name": "newBeneficiary",
          "type": "address"
        }
      ],
      "name": "BeneficiaryChanged",
      "type": "event"
    },
    {
      "anonymous": false,
      "inputs": [
        {
          "indexed": true,
          "internalType": "bytes32",
          "name": "tradeId",
          "type": "bytes32"
        },
        {
          "indexed": true,
          "internalType": "string",
          "name": "trackingId",
          "type": "string"
        }
      ],
      "name": "Dispute",
      "type": "event"
    },
    {
      "anonymous": false,
      "inputs": [
        {
          "indexed": false,
          "internalType": "bytes32",
          "name": "tradeId",
          "type": "bytes32"
        }
      ],
      "name": "Dissolved",
      "type": "event"
    },
    {
      "anonymous": false,
      "inputs": [
        {
          "indexed": false,
          "internalType": "uint32",
          "name": "oldPoints",
          "type": "uint32"
        },
        {
          "indexed": false,
          "internalType": "uint32",
          "name": "newPoints",
          "type": "uint32"
        }
      ],
      "name": "FeePointsChanged",
      "type": "event"
    },
    {
      "anonymous": false,
      "inputs": [
        {
          "indexed": false,
          "internalType": "uint8",
          "name": "version",
          "type": "uint8"
        }
      ],
      "name": "Initialized",
      "type": "event"
    },
    {
      "anonymous": false,
      "inputs": [
        {
          "indexed": false,
          "internalType": "address",
          "name": "collection",
          "type": "address"
        },
        {
          "indexed": false,
          "internalType": "bytes32",
          "name": "tokenId",
          "type": "bytes32"
        }
      ],
      "name": "ItemDelisted",
      "type": "event"
    },
    {
      "anonymous": false,
      "inputs": [
        {
          "indexed": true,
          "internalType": "address",
          "name": "collection",
          "type": "address"
        },
        {
          "indexed": true,
          "internalType": "bytes32",
          "name": "tokenId",
          "type": "bytes32"
        },
        {
          "indexed": true,
          "internalType": "uint256",
          "name": "price",
          "type": "uint256"
        },
        {
          "indexed": false,
          "internalType": "string",
          "name": "listingURl",
          "type": "string"
        },
        {
          "indexed": false,
          "internalType": "bool",
          "name": "ItemListed",
          "type": "bool"
        },
        {
          "indexed": false,
          "internalType": "enum LSP8Marketplace.CollectionType",
          "name": "collectionType",
          "type": "uint8"
        }
      ],
      "name": "ItemListed",
      "type": "event"
    },
    {
      "anonymous": false,
      "inputs": [
        {
          "indexed": true,
          "internalType": "address",
          "name": "previousOwner",
          "type": "address"
        },
        {
          "indexed": true,
          "internalType": "address",
          "name": "newOwner",
          "type": "address"
        }
      ],
      "name": "OwnershipTransferred",
      "type": "event"
    },
    {
      "anonymous": false,
      "inputs": [
        {
          "indexed": true,
          "internalType": "address",
          "name": "oldParticipant",
          "type": "address"
        },
        {
          "indexed": true,
          "internalType": "address",
          "name": "newParticipant",
          "type": "address"
        }
      ],
      "name": "ParticipantChanged",
      "type": "event"
    },
    {
      "anonymous": false,
      "inputs": [
        {
          "indexed": false,
          "internalType": "address",
          "name": "account",
          "type": "address"
        }
      ],
      "name": "Paused",
      "type": "event"
    },
    {
      "anonymous": false,
      "inputs": [
        {
          "indexed": false,
          "internalType": "bytes32",
          "name": "tradeId",
          "type": "bytes32"
        }
      ],
      "name": "Received",
      "type": "event"
    },
    {
      "anonymous": false,
      "inputs": [
        {
          "indexed": false,
          "internalType": "bytes32",
          "name": "tradeId",
          "type": "bytes32"
        }
      ],
      "name": "Resolved",
      "type": "event"
    },
    {
      "anonymous": false,
      "inputs": [
        {
          "indexed": false,
          "internalType": "uint32",
          "name": "oldPoints",
          "type": "uint32"
        },
        {
          "indexed": false,
          "internalType": "uint32",
          "name": "newPoints",
          "type": "uint32"
        }
      ],
      "name": "RoyaltiesThresholdPointsChanged",
      "type": "event"
    },
    {
      "anonymous": false,
      "inputs": [
        {
          "indexed": true,
          "internalType": "bytes32",
          "name": "tradeId",
          "type": "bytes32"
        },
        {
          "indexed": true,
          "internalType": "string",
          "name": "trackingId",
          "type": "string"
        }
      ],
      "name": "Sent",
      "type": "event"
    },
    {
      "anonymous": false,
      "inputs": [
        {
          "indexed": false,
          "internalType": "address",
          "name": "oldAdmin",
          "type": "address"
        },
        {
          "indexed": false,
          "internalType": "address",
          "name": "newAdmin",
          "type": "address"
        }
      ],
      "name": "SetAdmin",
      "type": "event"
    },
    {
      "anonymous": false,
      "inputs": [
        {
          "indexed": true,
          "internalType": "bytes32",
          "name": "tradeId",
          "type": "bytes32"
        },
        {
          "indexed": true,
          "internalType": "address",
          "name": "seller",
          "type": "address"
        },
        {
          "indexed": true,
          "internalType": "address",
          "name": "buyer",
          "type": "address"
        },
        {
          "indexed": false,
          "internalType": "address",
          "name": "escrow",
          "type": "address"
        },
        {
          "indexed": false,
          "internalType": "address",
          "name": "collection",
          "type": "address"
        },
        {
          "indexed": false,
          "internalType": "bytes32",
          "name": "tokenId",
          "type": "bytes32"
        },
        {
          "indexed": false,
          "internalType": "uint256",
          "name": "price",
          "type": "uint256"
        }
      ],
      "name": "TradeInitiated",
      "type": "event"
    },
    {
      "anonymous": false,
      "inputs": [
        {
          "indexed": false,
          "internalType": "address",
          "name": "account",
          "type": "address"
        }
      ],
      "name": "Unpaused",
      "type": "event"
    },
    {
      "anonymous": false,
      "inputs": [
        {
          "indexed": true,
          "internalType": "address",
          "name": "sender",
          "type": "address"
        },
        {
          "indexed": true,
          "internalType": "uint256",
          "name": "value",
          "type": "uint256"
        }
      ],
      "name": "ValueReceived",
      "type": "event"
    },
    {
      "anonymous": false,
      "inputs": [
        {
          "indexed": true,
          "internalType": "address",
          "name": "beneficiary",
          "type": "address"
        },
        {
          "indexed": true,
          "internalType": "uint256",
          "name": "value",
          "type": "uint256"
        }
      ],
      "name": "ValueWithdrawn",
      "type": "event"
    },
    {
      "inputs": [
        {
          "internalType": "address",
          "name": "LSP8Address",
          "type": "address"
        },
        {
          "internalType": "bytes32",
          "name": "tokenId",
          "type": "bytes32"
        }
      ],
      "name": "_returnLSP7Prices",
      "outputs": [
        {
          "internalType": "address[]",
          "name": "",
          "type": "address[]"
        },
        {
          "internalType": "uint256[]",
          "name": "",
          "type": "uint256[]"
        }
      ],
      "stateMutability": "view",
      "type": "function"
    },
    {
      "inputs": [
        {
          "internalType": "address",
          "name": "LSP8Address",
          "type": "address"
        },
        {
          "internalType": "bytes32",
          "name": "tokenId",
          "type": "bytes32"
        }
      ],
      "name": "_returnLYXPrice",
      "outputs": [
        {
          "internalType": "uint256",
          "name": "",
          "type": "uint256"
        }
      ],
      "stateMutability": "view",
      "type": "function"
    },
    {
      "inputs": [
        {
          "internalType": "address",
          "name": "LSP8Address",
          "type": "address"
        },
        {
          "internalType": "bytes32",
          "name": "tokenId",
          "type": "bytes32"
        },
        {
          "internalType": "address",
          "name": "LSP7Address",
          "type": "address"
        },
        {
          "internalType": "uint256",
          "name": "LSP7Amount",
          "type": "uint256"
        }
      ],
      "name": "addLSP7Price",
      "outputs": [],
      "stateMutability": "nonpayable",
      "type": "function"
    },
    {
      "inputs": [],
      "name": "admin",
      "outputs": [
        {
          "internalType": "address",
          "name": "",
          "type": "address"
        }
      ],
      "stateMutability": "view",
      "type": "function"
    },
    {
      "inputs": [],
      "name": "beneficiary",
      "outputs": [
        {
          "internalType": "address",
          "name": "",
          "type": "address"
        }
      ],
      "stateMutability": "view",
      "type": "function"
    },
    {
      "inputs": [
        {
          "internalType": "address",
          "name": "LSP8Address",
          "type": "address"
        },
        {
          "internalType": "bytes32",
          "name": "tokenId",
          "type": "bytes32"
        }
      ],
      "name": "buyDigitalLSP8WithLYX",
      "outputs": [],
      "stateMutability": "payable",
      "type": "function"
    },
    {
      "inputs": [
        {
          "internalType": "address",
          "name": "LSP8Address",
          "type": "address"
        },
        {
          "internalType": "bytes32",
          "name": "tokenId",
          "type": "bytes32"
        },
        {
          "internalType": "address",
          "name": "LSP7Address",
          "type": "address"
        }
      ],
      "name": "buyLSP8WithLSP7",
      "outputs": [],
      "stateMutability": "nonpayable",
      "type": "function"
    },
    {
      "inputs": [
        {
          "internalType": "address",
          "name": "LSP8Address",
          "type": "address"
        },
        {
          "internalType": "bytes32",
          "name": "tokenId",
          "type": "bytes32"
        }
      ],
      "name": "buyLSP8WithLYX",
      "outputs": [],
      "stateMutability": "payable",
      "type": "function"
    },
    {
      "inputs": [
        {
          "internalType": "address",
          "name": "LSP8Address",
          "type": "address"
        },
        {
          "internalType": "bytes32",
          "name": "tokenId",
          "type": "bytes32"
        },
        {
          "internalType": "address",
          "name": "LSP7Address",
          "type": "address"
        },
        {
          "internalType": "uint256",
          "name": "LSP7Amount",
          "type": "uint256"
        }
      ],
      "name": "changeLSP7Price",
      "outputs": [],
      "stateMutability": "nonpayable",
      "type": "function"
    },
    {
      "inputs": [
        {
          "internalType": "address",
          "name": "LSP8Address",
          "type": "address"
        },
        {
          "internalType": "bytes32",
          "name": "tokenId",
          "type": "bytes32"
        },
        {
          "internalType": "uint256",
          "name": "LYXAmount",
          "type": "uint256"
        }
      ],
      "name": "changeLYXPrice",
      "outputs": [],
      "stateMutability": "nonpayable",
      "type": "function"
    },
    {
      "inputs": [
        {
          "internalType": "bytes32",
          "name": "tradeId",
          "type": "bytes32"
        }
      ],
      "name": "confirmDigitalReceived",
      "outputs": [],
      "stateMutability": "nonpayable",
      "type": "function"
    },
    {
      "inputs": [
        {
          "internalType": "bytes32",
          "name": "tradeId",
          "type": "bytes32"
        },
        {
          "internalType": "string",
          "name": "uid",
          "type": "string"
        },
        {
          "internalType": "bytes",
          "name": "signature",
          "type": "bytes"
        }
      ],
      "name": "confirmReceived",
      "outputs": [],
      "stateMutability": "nonpayable",
      "type": "function"
    },
    {
      "inputs": [
        {
          "internalType": "bytes32",
          "name": "tradeId",
          "type": "bytes32"
        },
        {
          "internalType": "string",
          "name": "trackingId",
          "type": "string"
        }
      ],
      "name": "confirmSent",
      "outputs": [],
      "stateMutability": "nonpayable",
      "type": "function"
    },
    {
      "inputs": [
        {
          "internalType": "bytes32",
          "name": "tradeId",
          "type": "bytes32"
        }
      ],
      "name": "dissolveTrade",
      "outputs": [],
      "stateMutability": "nonpayable",
      "type": "function"
    },
    {
      "inputs": [],
      "name": "feePoints",
      "outputs": [
        {
          "internalType": "uint32",
          "name": "",
          "type": "uint32"
        }
      ],
      "stateMutability": "view",
      "type": "function"
    },
    {
      "inputs": [
        {
          "internalType": "address",
          "name": "escrow",
          "type": "address"
        }
      ],
      "name": "isEscrow",
      "outputs": [
        {
          "internalType": "bool",
          "name": "",
          "type": "bool"
        }
      ],
      "stateMutability": "view",
      "type": "function"
    },
    {
      "inputs": [
        {
          "internalType": "address",
          "name": "buyer",
          "type": "address"
        },
        {
          "internalType": "address",
          "name": "asset",
          "type": "address"
        },
        {
          "internalType": "bytes32",
          "name": "tokenId",
          "type": "bytes32"
        }
      ],
      "name": "lastPurchasePrice",
      "outputs": [
        {
          "internalType": "uint256",
          "name": "",
          "type": "uint256"
        }
      ],
      "stateMutability": "view",
      "type": "function"
    },
    {
      "inputs": [
        {
          "internalType": "bytes32",
          "name": "tradeId",
          "type": "bytes32"
        },
        {
          "internalType": "string",
          "name": "reason",
          "type": "string"
        }
      ],
      "name": "openDispute",
      "outputs": [],
      "stateMutability": "nonpayable",
      "type": "function"
    },
    {
      "inputs": [],
      "name": "owner",
      "outputs": [
        {
          "internalType": "address",
          "name": "",
          "type": "address"
        }
      ],
      "stateMutability": "view",
      "type": "function"
    },
    {
      "inputs": [],
      "name": "participant",
      "outputs": [
        {
          "internalType": "contract IParticipant",
          "name": "",
          "type": "address"
        }
      ],
      "stateMutability": "view",
      "type": "function"
    },
    {
      "inputs": [],
      "name": "pause",
      "outputs": [],
      "stateMutability": "nonpayable",
      "type": "function"
    },
    {
      "inputs": [],
      "name": "paused",
      "outputs": [
        {
          "internalType": "bool",
          "name": "",
          "type": "bool"
        }
      ],
      "stateMutability": "view",
      "type": "function"
    },
    {
      "inputs": [
        {
          "internalType": "address",
          "name": "LSP8Address",
          "type": "address"
        },
        {
          "internalType": "bytes32",
          "name": "tokenId",
          "type": "bytes32"
        },
        {
          "internalType": "uint256",
          "name": "LYXAmount",
          "type": "uint256"
        },
        {
          "internalType": "string",
          "name": "listingURl",
          "type": "string"
        },
        {
          "internalType": "bool",
          "name": "_acceptFiat",
          "type": "bool"
        }
      ],
      "name": "putDigitalLSP8OnSale",
      "outputs": [],
      "stateMutability": "nonpayable",
      "type": "function"
    },
    {
      "inputs": [
        {
          "internalType": "address",
          "name": "LSP8Address",
          "type": "address"
        },
        {
          "internalType": "bytes32",
          "name": "tokenId",
          "type": "bytes32"
        },
        {
          "internalType": "uint256",
          "name": "LYXAmount",
          "type": "uint256"
        },
        {
          "internalType": "string",
          "name": "uid",
          "type": "string"
        },
        {
          "internalType": "bytes",
          "name": "signature",
          "type": "bytes"
        },
        {
          "internalType": "string",
          "name": "listingURl",
          "type": "string"
        },
        {
          "internalType": "bool",
          "name": "_acceptFiat",
          "type": "bool"
        }
      ],
      "name": "putLSP8OnSale",
      "outputs": [],
      "stateMutability": "nonpayable",
      "type": "function"
    },
    {
      "inputs": [
        {
          "internalType": "address",
          "name": "LSP8Address",
          "type": "address"
        },
        {
          "internalType": "bytes32",
          "name": "tokenId",
          "type": "bytes32"
        }
      ],
      "name": "removeLSP8FromSale",
      "outputs": [],
      "stateMutability": "nonpayable",
      "type": "function"
    },
    {
      "inputs": [],
      "name": "renounceOwnership",
      "outputs": [],
      "stateMutability": "nonpayable",
      "type": "function"
    },
    {
      "inputs": [
        {
          "internalType": "bytes32",
          "name": "tradeId",
          "type": "bytes32"
        }
      ],
      "name": "resolveTrade",
      "outputs": [],
      "stateMutability": "nonpayable",
      "type": "function"
    },
    {
      "inputs": [],
      "name": "royaltiesThresholdPoints",
      "outputs": [
        {
          "internalType": "uint32",
          "name": "",
          "type": "uint32"
        }
      ],
      "stateMutability": "view",
      "type": "function"
    },
    {
      "inputs": [
        {
          "internalType": "address",
          "name": "_newAdmin",
          "type": "address"
        }
      ],
      "name": "setAdmin",
      "outputs": [],
      "stateMutability": "nonpayable",
      "type": "function"
    },
    {
      "inputs": [
        {
          "internalType": "address",
          "name": "newBeneficiary",
          "type": "address"
        }
      ],
      "name": "setBeneficiary",
      "outputs": [],
      "stateMutability": "nonpayable",
      "type": "function"
    },
    {
      "inputs": [
        {
          "internalType": "uint32",
          "name": "newFeePoints",
          "type": "uint32"
        }
      ],
      "name": "setFeePoints",
      "outputs": [],
      "stateMutability": "nonpayable",
      "type": "function"
    },
    {
      "inputs": [
        {
          "internalType": "contract IParticipant",
          "name": "participant_",
          "type": "address"
        }
      ],
      "name": "setParticipant",
      "outputs": [],
      "stateMutability": "nonpayable",
      "type": "function"
    },
    {
      "inputs": [
        {
          "internalType": "uint32",
          "name": "newRoyaltiesThresholdPoints",
          "type": "uint32"
        }
      ],
      "name": "setRoyaltiesThresholdPoints",
      "outputs": [],
      "stateMutability": "nonpayable",
      "type": "function"
    },
    {
      "inputs": [
        {
          "internalType": "address",
          "name": "newOwner",
          "type": "address"
        }
      ],
      "name": "transferOwnership",
      "outputs": [],
      "stateMutability": "nonpayable",
      "type": "function"
    },
    {
      "inputs": [],
      "name": "unpause",
      "outputs": [],
      "stateMutability": "nonpayable",
      "type": "function"
    },
    {
      "inputs": [
        {
          "internalType": "uint256",
          "name": "amount",
          "type": "uint256"
        }
      ],
      "name": "withdraw",
      "outputs": [],
      "stateMutability": "nonpayable",
      "type": "function"
    },
    {
      "stateMutability": "payable",
      "type": "receive"
    }
  ],
  "bytecode": "0x60806040526000610109553480156200001757600080fd5b5060405162006380380380620063808339810160408190526200003a9162000504565b600054610100900460ff16158080156200005b5750600054600160ff909116105b80620000775750303b15801562000077575060005460ff166001145b620000e05760405162461bcd60e51b815260206004820152602e60248201527f496e697469616c697a61626c653a20636f6e747261637420697320616c72656160448201526d191e481a5b9a5d1a585b1a5e995960921b60648201526084015b60405180910390fd5b6000805460ff19166001179055801562000104576000805461ff0019166101001790555b61010a80546001600160a01b038085166001600160a01b03199283161790925561010b805492861692909116821790556200014190859062000192565b801562000188576000805461ff0019169055604051600181527f7f26b83ff96e1f2b6a682f133852f6798a09c465da95921460cefb38474024989060200160405180910390a15b505050506200054e565b600054610100900460ff16620001ee5760405162461bcd60e51b815260206004820152602b60248201526000805160206200636083398151915260448201526a6e697469616c697a696e6760a81b6064820152608401620000d7565b620001f86200021c565b6200020262000284565b6200020d82620002ea565b620002188162000381565b5050565b600054610100900460ff16620002785760405162461bcd60e51b815260206004820152602b60248201526000805160206200636083398151915260448201526a6e697469616c697a696e6760a81b6064820152608401620000d7565b620002826200041d565b565b600054610100900460ff16620002e05760405162461bcd60e51b815260206004820152602b60248201526000805160206200636083398151915260448201526a6e697469616c697a696e6760a81b6064820152608401620000d7565b620002826200047f565b620003036000546201000090046001600160a01b031690565b6001600160a01b0316816001600160a01b0316146200037e57600080546040516001600160a01b03808516936201000090930416917f8be0079c531659141344cd1fd0a4f28419497f9722a3daafe3b4186f6b6457e091a36000805462010000600160b01b031916620100006001600160a01b038416021790555b50565b6001600160a01b038116620003b557604051631a3b45fd60e01b81526001600160a01b0382166004820152602401620000d7565b6097546001600160a01b038281169116146200037e57609780546001600160a01b038381166001600160a01b0319831681179093556040519116919082907f768099735d1c322a05a5b9d7b76d99682a1833d3f7055e5ede25e0f2eeaa8c6d90600090a35050565b600054610100900460ff16620004795760405162461bcd60e51b815260206004820152602b60248201526000805160206200636083398151915260448201526a6e697469616c697a696e6760a81b6064820152608401620000d7565b60018055565b600054610100900460ff16620004db5760405162461bcd60e51b815260206004820152602b60248201526000805160206200636083398151915260448201526a6e697469616c697a696e6760a81b6064820152608401620000d7565b6065805460ff19169055565b80516001600160a01b0381168114620004ff57600080fd5b919050565b6000806000606084860312156200051a57600080fd5b6200052584620004e7565b92506200053560208501620004e7565b91506200054560408501620004e7565b90509250925092565b615e02806200055e6000396000f3fe608060405260043610620001fb5760003560e01c8063704b6c02116200010d57806398ad2bd2116200009c57806398ad2bd214620005d3578063ae86c6c11462000607578063b166a09f146200062c578063bd2954401462000661578063cda6680d1462000686578063dbb1b12714620006ac578063e568dd7314620006d1578063f2fde38b1462000706578063f851a440146200072b57600080fd5b8063704b6c0214620004bb578063715018a614620004e057806373199de814620004f8578063760671e2146200051d57806377ab9cbb146200054257806382c9a55114620005675780638456cb59146200057e5780638da5cb5b1462000596578063916c3a0314620005ae57600080fd5b806338af3eed116200018a57806338af3eed146200037b5780633bd320c7146200039d5780633f4ba83a14620003c25780633f9fa40914620003da5780634349509214620003f1578063443a932014620004165780635c975abb146200043b5780636b1c6fe114620004615780636c18d1ad146200048657600080fd5b80630a84a4fd1462000212578063109b0e95146200023757806317d67836146200025c5780631c31f71014620002815780632e1a7d4d14620002a657806331ea559614620002cb57806336654f8414620002f0578063372a3874146200031557806337a6d42b146200033a57600080fd5b366200020d576200020b6200074e565b005b600080fd5b3480156200021f57600080fd5b506200020b6200023136600462003a15565b62000785565b3480156200024457600080fd5b506200020b6200025636600462003a4d565b620008af565b3480156200026957600080fd5b506200020b6200027b36600462003b12565b620009cf565b3480156200028e57600080fd5b506200020b620002a036600462003b5d565b62000b0d565b348015620002b357600080fd5b506200020b620002c536600462003a4d565b62000b25565b348015620002d857600080fd5b506200020b620002ea36600462003b12565b62000c32565b348015620002fd57600080fd5b506200020b6200030f36600462003a4d565b62000d7b565b3480156200032257600080fd5b506200020b6200033436600462003b8c565b62000e8f565b3480156200034757600080fd5b5060a1546200036390600160401b90046001600160a01b031681565b60405162000372919062003c5d565b60405180910390f35b3480156200038857600080fd5b5060975462000363906001600160a01b031681565b348015620003aa57600080fd5b506200020b620003bc36600462003c71565b62000ffe565b348015620003cf57600080fd5b506200020b620011a0565b6200020b620003eb36600462003cbe565b620011b4565b348015620003fe57600080fd5b506200020b6200041036600462003a4d565b620014e4565b3480156200042357600080fd5b506200020b6200043536600462003ced565b620015a4565b3480156200044857600080fd5b5060655460ff165b604051901515815260200162000372565b3480156200046e57600080fd5b506200020b6200048036600462003cbe565b6200169c565b3480156200049357600080fd5b5060a154620004a59063ffffffff1681565b60405163ffffffff909116815260200162000372565b348015620004c857600080fd5b506200020b620004da36600462003b5d565b6200179f565b348015620004ed57600080fd5b506200020b62001828565b3480156200050557600080fd5b506200020b6200051736600462003d15565b6200183e565b3480156200052a57600080fd5b506200020b6200053c36600462003b5d565b62001aea565b3480156200054f57600080fd5b506200020b6200056136600462003c71565b62001b7b565b6200020b6200057836600462003cbe565b62001d24565b3480156200058b57600080fd5b506200020b62002216565b348015620005a357600080fd5b50620003636200222a565b348015620005bb57600080fd5b506200020b620005cd36600462003ced565b6200223f565b348015620005e057600080fd5b50620005f8620005f236600462003d5c565b6200234d565b60405190815260200162000372565b3480156200061457600080fd5b506200020b6200062636600462003da2565b62002384565b3480156200063957600080fd5b50620004506200064b36600462003b5d565b61010d6020526000908152604090205460ff1681565b3480156200066e57600080fd5b50620005f86200068036600462003cbe565b6200256b565b3480156200069357600080fd5b5060a154620004a590600160201b900463ffffffff1681565b348015620006b957600080fd5b506200020b620006cb36600462003e16565b6200259a565b348015620006de57600080fd5b50620006f6620006f036600462003cbe565b620026da565b6040516200037292919062003e96565b3480156200071357600080fd5b506200020b6200072536600462003b5d565b62002781565b3480156200073857600080fd5b5061010b5462000363906001600160a01b031681565b34156200078357604051349033907f7e71433ddf847725166244795048ecf3e3f9f35628254ecbf73605666423349390600090a35b565b604051630217b22760e41b8152600481018390528390839033906001600160a01b0384169063217b227090602401602060405180830381865afa158015620007d1573d6000803e3d6000fd5b505050506040513d601f19601f82011682018060405250810190620007f7919062003f1e565b6001600160a01b031614620008295760405162461bcd60e51b8152600401620008209062003f3e565b60405180910390fd5b6001600160a01b03851660009081526101056020526040902085908590620008529082620027be565b620008715760405162461bcd60e51b8152600401620008209062003f75565b6001600160a01b038716600090815261010760209081526040808320898452909152812060050155620008a6878787620027d7565b50505050505050565b61010b546001600160a01b03163314620008dc576040516308d8a08f60e11b815260040160405180910390fd5b600081815261010c60209081526040808320815160c08101835281546001600160a01b03908116825260018301548116948201949094526002820154841681840181905260038301546060830152600480840154909516608083015260059092015460a08201528251630476982d60e21b81529251909491936311da60b4938082019392919082900301818387803b1580156200097857600080fd5b505af11580156200098d573d6000803e3d6000fd5b505050507fef627d0e66434f22f9f3c4ac2a0ef3ab44f42e720a9b663a1e38d990b943faee82604051620009c391815260200190565b60405180910390a15050565b600082815261010c6020908152604091829020825160c08101845281546001600160a01b039081168083526001840154821694830194909452600283015481169482019490945260038201546060820152600482015490931660808401526005015460a0830152331462000a605760405162461bcd60e51b8152602060048201526000602482015260440162000820565b80604001516001600160a01b031663768896e5836040518263ffffffff1660e01b815260040162000a92919062003ff7565b600060405180830381600087803b15801562000aad57600080fd5b505af115801562000ac2573d6000803e3d6000fd5b505050508160405162000ad691906200400c565b6040519081900381209084907fd4f38c7bc9ecd1e2dc32b792412b891ef2d858ff73fa89dad9c1931171e6c1e090600090a3505050565b62000b1762002801565b62000b228162002838565b50565b62000b2f62002801565b6097546001600160a01b031662000b6857609754604051631a3b45fd60e01b815262000820916001600160a01b03169060040162003c5d565b6097546040516000916001600160a01b03169083908381818185875af1925050503d806000811462000bb7576040519150601f19603f3d011682016040523d82523d6000602084013e62000bbc565b606091505b505090508062000bf65760975460405163060c80bf60e51b81526001600160a01b0390911660048201526024810183905260440162000820565b60975460405183916001600160a01b0316907f810f4216b8f4ed8460c9944d3a3bee30521ce371329120f4cf59fad7ffd2e08190600090a35050565b600082815261010c6020908152604091829020825160c08101845281546001600160a01b039081168083526001840154821694830194909452600283015481169482019490945260038201546060820152600482015490931660808401526005015460a083015233148062000cb3575060208101516001600160a01b031633145b62000cdb5760405162461bcd60e51b8152602060048201526000602482015260440162000820565b80604001516001600160a01b031663f240f7c36040518163ffffffff1660e01b8152600401600060405180830381600087803b15801562000d1b57600080fd5b505af115801562000d30573d6000803e3d6000fd5b505050508160405162000d4491906200400c565b6040519081900381209084907fdd06a1bb006455f79813adec3a04ac5027b2dab7d17a0ed1bda15c837b81e3d790600090a3505050565b61010b546001600160a01b0316331462000da8576040516308d8a08f60e11b815260040160405180910390fd5b600081815261010c60209081526040808320815160c08101835281546001600160a01b03908116825260018301548116948201949094526002820154841681840181905260038301546060830152600480840154909516608083015260059092015460a08201528251631df7c51d60e11b8152925190949193633bef8a3a938082019392919082900301818387803b15801562000e4457600080fd5b505af115801562000e59573d6000803e3d6000fd5b505050507f982bf5a7c13f6a3221eb651dceff4ed35dc4170500238cb81df4819563ea090582604051620009c391815260200190565b604051630217b22760e41b8152600481018790528790879033906001600160a01b0384169063217b227090602401602060405180830381865afa15801562000edb573d6000803e3d6000fd5b505050506040513d601f19601f8201168201806040525081019062000f01919062003f1e565b6001600160a01b03161462000f2a5760405162461bcd60e51b8152600401620008209062003f3e565b6001600160a01b0389166000908152610105602052604090208990899062000f539082620027be565b1562000f735760405162461bcd60e51b815260040162000820906200402a565b61010a5462000f8d906001600160a01b03168989620028cc565b62000f9a8b8b87620029ca565b62000fa78b8b8b620027d7565b888a8c6001600160a01b03167f549017a7bd766b7b1fe1351de08bf426efe9d224831ad82206ab54edb873fcb08989600160405162000fe9939291906200406a565b60405180910390a45050505050505050505050565b604051630217b22760e41b8152600481018490528490849033906001600160a01b0384169063217b227090602401602060405180830381865afa1580156200104a573d6000803e3d6000fd5b505050506040513d601f19601f8201168201806040525081019062001070919062003f1e565b6001600160a01b031614620010995760405162461bcd60e51b8152600401620008209062003f3e565b6001600160a01b03861660009081526101056020526040902086908690620010c29082620027be565b620010e15760405162461bcd60e51b8152600401620008209062003f75565b6001600160a01b0388166000908152610107602090815260408083208a8452909152902088908890889062001117908262002a27565b620011855760405162461bcd60e51b815260206004820152603760248201527f5468657265206973206e6f206275796f757420707269636520696e2074686973604482015276103a37b5b2b717102a393c903a379030b2321037b7329760491b606482015260840162000820565b620011938b8b8b8b62002a4a565b5050505050505050505050565b620011aa62002801565b6200078362002a8b565b6001600160a01b038216600090815261010760209081526040808320848452909152902060050154829082903414620012015760405162461bcd60e51b81526004016200082090620040b6565b6001600160a01b038416600090815261010560205260409020849084906200122a9082620027be565b620012495760405162461bcd60e51b8152600401620008209062003f75565b604051630217b22760e41b8152600481018690526000906001600160a01b0388169063217b227090602401602060405180830381865afa15801562001292573d6000803e3d6000fd5b505050506040513d601f19601f82011682018060405250810190620012b8919062003f1e565b90506000620012c888886200256b565b905060008233838b8b61010954604051602001620012ec96959493929190620040ed565b60405160208183030381529060405280519060200120905062001310898962002adb565b6200131c898962002b43565b6200132c8984338b600162002c34565b62001338838362002cc8565b6040518060c00160405280846001600160a01b03168152602001336001600160a01b0316815260200160006001600160a01b031681526020018381526020018a6001600160a01b031681526020018981525061010c600083815260200190815260200160002060008201518160000160006101000a8154816001600160a01b0302191690836001600160a01b0316021790555060208201518160010160006101000a8154816001600160a01b0302191690836001600160a01b0316021790555060408201518160020160006101000a8154816001600160a01b0302191690836001600160a01b031602179055506060820151816003015560808201518160040160006101000a8154816001600160a01b0302191690836001600160a01b0316021790555060a0820151816005015590505061010960008154809291906200147f9062004146565b9190505550336001600160a01b0316836001600160a01b0316827f13f45c05473c7e5958b059813084be663aea88e382de879ac5c87a718767b35260008d8d88604051620014d1949392919062004162565b60405180910390a4505050505050505050565b600081815261010c6020908152604091829020825160c08101845281546001600160a01b03908116825260018301548116938201849052600283015481169482019490945260038201546060820152600482015490931660808401526005015460a08301523314620015735760405162461bcd60e51b8152602060048201526000602482015260440162000820565b6040518281527f383ab61835ef171bf38d73022941ddcab99ceb1f013160359750ac5f8f8e4f1490602001620009c3565b620015ae62002801565b604051633c7bdc1960e01b815263ffffffff8216600482015273__$4271652f64a0a9f2e87126a207733f10b1$__90633c7bdc1990602401602060405180830381865af415801562001604573d6000803e3d6000fd5b505050506040513d601f19601f820116820180604052508101906200162a91906200418b565b6200163457600080fd5b60a15463ffffffff82811691161462000b225760a1805463ffffffff83811663ffffffff1983168117909355604080519190921680825260208201939093527f51b1efffb36da26a1b7264764ef9d54c3576e15e9246a8f6b91f1991825bf41e9101620009c3565b604051630217b22760e41b8152600481018290528290829033906001600160a01b0384169063217b227090602401602060405180830381865afa158015620016e8573d6000803e3d6000fd5b505050506040513d601f19601f820116820180604052508101906200170e919062003f1e565b6001600160a01b031614620017375760405162461bcd60e51b8152600401620008209062003f3e565b6001600160a01b03841660009081526101056020526040902084908490620017609082620027be565b6200177f5760405162461bcd60e51b8152600401620008209062003f75565b6200178b868662002adb565b62001797868662002b43565b505050505050565b61010b546001600160a01b03163314620017cc576040516308d8a08f60e11b815260040160405180910390fd5b61010b80546001600160a01b038381166001600160a01b031983168117909355604080519190921680825260208201939093527f848ac24ab84501710d6631faab117b66b79aba7ec6f7778cf3bcff428c1a4efc9101620009c3565b6200183262002801565b62000783600062002da8565b6001600160a01b038316600090815261010760209081526040808320858452909152902083908390839062001877906002018262002e31565b6040516370a0823160e01b81526001600160a01b038316906370a0823190620018a590339060040162003c5d565b602060405180830381865afa158015620018c3573d6000803e3d6000fd5b505050506040513d601f19601f82011682018060405250810190620018e99190620041ab565b116200194a5760405162461bcd60e51b815260206004820152602960248201527f53656e64657220646f65736e2774206861766520656e6f75676820746f6b656e604482015268103130b630b731b29760b91b606482015260840162000820565b6001600160a01b038616600090815261010760209081526040808320888452909152902086908690869062001980908262002a27565b620019d95760405162461bcd60e51b815260206004820152602260248201527f53656c6c657220646f6573206e6f7420616363657074207468697320746f6b65604482015261371760f11b606482015260840162000820565b6001600160a01b0389166000908152610105602052604090208990899062001a029082620027be565b62001a215760405162461bcd60e51b8152600401620008209062003f75565b604051630217b22760e41b8152600481018b90526000906001600160a01b038d169063217b227090602401602060405180830381865afa15801562001a6a573d6000803e3d6000fd5b505050506040513d601f19601f8201168201806040525081019062001a90919062003f1e565b9050600062001aa18d8d8d62002e48565b905062001aaf8d8d62002adb565b62001abb8d8d62002b43565b62001acb8b338484600062002e83565b62001adb8d83338f600162002c34565b50505050505050505050505050565b62001af462002801565b60a1546001600160a01b03828116600160401b909204161462000b225760a1546040516001600160a01b0380841692600160401b900416907f20f71182cc0b18355669706b3646d4f5c7aab303279269b38f7885130545b51390600090a360a180546001600160a01b038316600160401b02600160401b600160e01b031990911617905550565b604051630217b22760e41b8152600481018490528490849033906001600160a01b0384169063217b227090602401602060405180830381865afa15801562001bc7573d6000803e3d6000fd5b505050506040513d601f19601f8201168201806040525081019062001bed919062003f1e565b6001600160a01b03161462001c165760405162461bcd60e51b8152600401620008209062003f3e565b6001600160a01b0386166000908152610105602052604090208690869062001c3f9082620027be565b62001c5e5760405162461bcd60e51b8152600401620008209062003f75565b6001600160a01b0388166000908152610107602090815260408083208a8452909152902088908890889062001c94908262002a27565b1562001d175760405162461bcd60e51b8152602060048201526044602482018190527f546865726520616c7265616479206578697374732061206275796f7574207072908201527f69636520696e207468697320746f6b656e2e2054727920746f206368616e67656064820152631034ba1760e11b608482015260a40162000820565b620011858b8b8b62002ebc565b6001600160a01b03821660009081526101076020908152604080832084845290915290206005015482908290341462001d715760405162461bcd60e51b81526004016200082090620040b6565b6001600160a01b0384166000908152610105602052604090208490849062001d9a9082620027be565b62001db95760405162461bcd60e51b8152600401620008209062003f75565b604051630a8d952960e21b8152306004820152602481018690526001600160a01b03871690632a3654a490604401602060405180830381865afa15801562001e05573d6000803e3d6000fd5b505050506040513d601f19601f8201168201806040525081019062001e2b91906200418b565b62001e495760405163340e6c7160e11b815260040160405180910390fd5b604051630217b22760e41b8152600481018690526000906001600160a01b0388169063217b227090602401602060405180830381865afa15801562001e92573d6000803e3d6000fd5b505050506040513d601f19601f8201168201806040525081019062001eb8919062003f1e565b9050600062001ec888886200256b565b905060008233838b8b6101095460405160200162001eec96959493929190620040ed565b6040516020818303038152906040528051906020012090506000898985338661010b60009054906101000a90046001600160a01b031660405162001f3090620039bc565b6001600160a01b039687168152602081019590955292851660408501529084166060840152608083015290911660a082015260c001604051809103906000f08015801562001f82573d6000803e3d6000fd5b5060405163288db4a960e11b81526001600160a01b0386811660048301528083166024830152604482018c90526001606483015260a06084830152600060a4830152919250908b169063511b69529060c401600060405180830381600087803b15801562001fef57600080fd5b505af115801562002004573d6000803e3d6000fd5b5050505062002014818462002cc8565b620020208a8a62002adb565b6200202c8a8a62002b43565b6040518060c00160405280856001600160a01b03168152602001336001600160a01b03168152602001826001600160a01b031681526020018481526020018b6001600160a01b031681526020018a81525061010c600084815260200190815260200160002060008201518160000160006101000a8154816001600160a01b0302191690836001600160a01b0316021790555060208201518160010160006101000a8154816001600160a01b0302191690836001600160a01b0316021790555060408201518160020160006101000a8154816001600160a01b0302191690836001600160a01b031602179055506060820151816003015560808201518160040160006101000a8154816001600160a01b0302191690836001600160a01b0316021790555060a08201518160050155905050600161010d6000836001600160a01b03166001600160a01b0316815260200190815260200160002060006101000a81548160ff0219169083151502179055506101096000815480929190620021b19062004146565b9190505550336001600160a01b0316846001600160a01b0316837f13f45c05473c7e5958b059813084be663aea88e382de879ac5c87a718767b352848e8e8960405162002202949392919062004162565b60405180910390a450505050505050505050565b6200222062002801565b6200078362002f20565b6000546201000090046001600160a01b031690565b6200224962002801565b604051633c7bdc1960e01b815263ffffffff8216600482015273__$4271652f64a0a9f2e87126a207733f10b1$__90633c7bdc1990602401602060405180830381865af41580156200229f573d6000803e3d6000fd5b505050506040513d601f19601f82011682018060405250810190620022c591906200418b565b620022cf57600080fd5b60a15463ffffffff828116600160201b909204161462000b225760a1805463ffffffff838116600160201b81810267ffffffff000000001985161790945560408051949093049091168084526020840191909152917fbb9aadfe9cdfc91ea604d8b7b61d46174241abcedd41771c2a96ecf45b75abd79101620009c3565b6001600160a01b038084166000908152610108602090815260408083209386168352928152828220848352905220545b9392505050565b600083815261010c6020908152604091829020825160c08101845281546001600160a01b03908116825260018301548116938201849052600283015481169482019490945260038201546060820152600482015490931660808401526005015460a08301523314620024135760405162461bcd60e51b8152602060048201526000602482015260440162000820565b61010a546200242d906001600160a01b03168484620028cc565b60006200243e826060015162002f60565b905060006200245b836000015184608001518560a001516200234d565b60408481015160a154915163bfa41b1360e01b81526004810186905260248101849052600160201b90920463ffffffff1660448301529192506001600160a01b039091169063bfa41b1390606401600060405180830381600087803b158015620024c457600080fd5b505af1158015620024d9573d6000803e3d6000fd5b505050600087815261010c6020908152604080832060030154878301516001600160a01b039081168552610108845282852060808a01519091168552835281842060a089015185529092529182902055517f383ab61835ef171bf38d73022941ddcab99ceb1f013160359750ac5f8f8e4f1491506200255b9088815260200190565b60405180910390a1505050505050565b6001600160a01b0382166000908152610107602090815260408083208484529091529020600501545b92915050565b604051630217b22760e41b8152600481018590528590859033906001600160a01b0384169063217b227090602401602060405180830381865afa158015620025e6573d6000803e3d6000fd5b505050506040513d601f19601f820116820180604052508101906200260c919062003f1e565b6001600160a01b031614620026355760405162461bcd60e51b8152600401620008209062003f3e565b6001600160a01b038716600090815261010560205260409020879087906200265e9082620027be565b156200267e5760405162461bcd60e51b815260040162000820906200402a565b6200268b898987620029ca565b62002698898989620027d7565b86888a6001600160a01b03167f549017a7bd766b7b1fe1351de08bf426efe9d224831ad82206ab54edb873fcb089896000604051620014d1939291906200406a565b6001600160a01b038216600090815261010760209081526040808320848452909152812060609182919082905b620027128362002fea565b8110156200276a57620027356200272a848362002ff5565b600285019062002e31565b8282815181106200274a576200274a620041c5565b602090810291909101015280620027618162004146565b91505062002707565b50620027768262003003565b969095509350505050565b6200278b62002801565b6001600160a01b038116620027b3576040516306b620db60e21b815260040160405180910390fd5b62000b228162002da8565b600081815260018301602052604081205415156200237d565b6001600160a01b039092166000908152610107602090815260408083209383529290522060050155565b336200280c6200222a565b6001600160a01b03161462000783573360405163bf1169c560e01b815260040162000820919062003c5d565b6001600160a01b038116620028645780604051631a3b45fd60e01b815260040162000820919062003c5d565b6097546001600160a01b0382811691161462000b2257609780546001600160a01b038381166001600160a01b0319831681179093556040519116919082907f768099735d1c322a05a5b9d7b76d99682a1833d3f7055e5ede25e0f2eeaa8c6d90600090a35050565b6000836001600160a01b0316638da5cb5b6040518163ffffffff1660e01b8152600401602060405180830381865afa1580156200290d573d6000803e3d6000fd5b505050506040513d601f19601f8201168201806040525081019062002933919062003f1e565b905060007b19457468657265756d205369676e6564204d6573736167653a0a323260201b846040516020016200296b929190620041db565b60408051601f1981840301815291905280516020909101209050630b135d3f60e11b6200299a83838662003012565b6001600160e01b03191614620029c357604051632f86bfc360e11b815260040160405180910390fd5b5050505050565b6001600160a01b038316600090815261010560205260409020620029ef9083620031af565b5080151560010362002a22576001600160a01b03831660009081526101066020526040902062002a209083620031af565b505b505050565b6001600160a01b038116600090815260018301602052604081205415156200237d565b6001600160a01b038416600090815261010760209081526040808320868452909152902062002a7a8184620031bd565b5062001797600282018484620031d4565b62002a95620031ec565b6065805460ff191690557f5db9ee0a495bf2e6ff9c91a7834c1ba4fdd244a5e8aa4e537bd38aeae4b073aa335b60405162002ad1919062003c5d565b60405180910390a1565b6001600160a01b0382166000908152610107602090815260408083208484529091528120908181818162002b108282620039ca565b505050600283019050600081818181818162002b2d8282620039ca565b5050505050505050600582016000905550505050565b6001600160a01b03821660009081526101056020526040902062002b68908262003237565b5060405163db8c966360e01b8152306004820152602481018290526000604482018190526080606483015260848201526001600160a01b0383169063db8c96639060a401600060405180830381600087803b15801562002bc757600080fd5b505af115801562002bdc573d6000803e3d6000fd5b5050506001600160a01b03831660009081526101066020526040902062002c05915082620027be565b1562002c30576001600160a01b03821660009081526101066020526040902062002a22908262003237565b5050565b60405163288db4a960e11b81526001600160a01b038581166004830152848116602483015260448201849052821515606483015260a06084830152600260a483015261060f60f31b60c483015286169063511b69529060e401600060405180830381600087803b15801562002ca857600080fd5b505af115801562002cbd573d6000803e3d6000fd5b505050505050505050565b604080516000808252602082019092526001600160a01b03841690839060405162002cf491906200400c565b60006040518083038185875af1925050503d806000811462002d33576040519150601f19603f3d011682016040523d82523d6000602084013e62002d38565b606091505b505090508062002a225760405162461bcd60e51b815260206004820152603460248201527f5472616e7366657248656c7065723a3a736166655472616e736665724c59583a60448201527308131656081d1c985b9cd9995c8819985a5b195960621b606482015260840162000820565b62002db26200222a565b6001600160a01b0316816001600160a01b03161462000b2257600080546040516001600160a01b03808516936201000090930416917f8be0079c531659141344cd1fd0a4f28419497f9722a3daafe3b4186f6b6457e091a3600080546001600160a01b038316620100000262010000600160b01b031990911617905550565b60006200237d836001600160a01b03841662003245565b6001600160a01b038316600090815261010760209081526040808320858452909152812062002e7b906002018362002e31565b949350505050565b62002ea08530846040518060200160405280600081525062003291565b620029c3858585858562002eb68a8a8a620033ea565b6200348c565b6001600160a01b038316600090815261010760209081526040808320858452909152902062002eec9082620035fe565b506001600160a01b038316600090815261010760209081526040808320858452909152902062002a20906002018262003615565b62002f2a6200362c565b6065805460ff191660011790557f62e78cea01bee320cd4e420270b5ea74000d11b0c9f74754ebdbfc544b05a25862002ac23390565b60a154604051630c0be5c760e11b81526004810183905263ffffffff909116602482015260009073__$4271652f64a0a9f2e87126a207733f10b1$__90631817cb8e90604401602060405180830381865af415801562002fc4573d6000803e3d6000fd5b505050506040513d601f19601f82011682018060405250810190620025949190620041ab565b600062002594825490565b60006200237d838362003674565b606060006200237d83620036a1565b60006001600160a01b0384163b156200313c57600080856001600160a01b0316631626ba7e60e01b86866040516024016200304f9291906200420a565b60408051601f198184030181529181526020820180516001600160e01b03166001600160e01b03199094169390931790925290516200308f91906200400c565b600060405180830381855afa9150503d8060008114620030cc576040519150601f19603f3d011682016040523d82523d6000602084013e620030d1565b606091505b50915091506000828015620030e7575081516020145b80156200311157508151630b135d3f60e11b906200310f9084016020908101908501620041ab565b145b90508062003128576001600160e01b031962003131565b630b135d3f60e11b5b93505050506200237d565b60008060006200314d8686620036ff565b9194509250905060008260038111156200316b576200316b62004054565b146200318657506001600160e01b031992506200237d915050565b866001600160a01b0316836001600160a01b03161462003128576001600160e01b031962003131565b60006200237d838362003750565b60006200237d836001600160a01b03841662003750565b600062002e7b846001600160a01b03851684620037a2565b60655460ff16620007835760405162461bcd60e51b815260206004820152601460248201527314185d5cd8589b194e881b9bdd081c185d5cd95960621b604482015260640162000820565b60006200237d8383620037c1565b6000818152600283016020526040812054801580156200326e57506200326c8484620038c5565b155b156200237d5760405163015ab34360e11b81526004810184905260240162000820565b600080856001600160a01b031660405180606001604052806028815260200162005da56028913980519060200120868686604051602401620032d69392919062004225565b60408051601f198184030181529181526020820180516001600160e01b03166001600160e01b03199094169390931790925290516200331691906200400c565b6000604051808303816000865af19150503d806000811462003355576040519150601f19603f3d011682016040523d82523d6000602084013e6200335a565b606091505b509150915081801562003388575080511580620033885750808060200190518101906200338891906200418b565b620017975760405162461bcd60e51b815260206004820152602b60248201527f5472616e7366657248656c7065723a3a73616665417070726f76653a2061707060448201526a1c9bdd994819985a5b195960aa1b606482015260840162000820565b604051606084811b6001600160601b0319908116602084015284821b16603483015260488201839052907f5d4750030310507a00ed34b9c56808c5423b741a733df02978ef34f07a4b87d79060680160408051601f19818403018152908290526200345992916024016200420a565b60408051601f198184030181529190526020810180516001600160e01b03166337dc019b60e11b17905290509392505050565b600080876001600160a01b03166040518060600160405280602c815260200162005d79602c9139805190602001208888888888604051602401620034d595949392919062004257565b60408051601f198184030181529181526020820180516001600160e01b03166001600160e01b03199094169390931790925290516200351591906200400c565b6000604051808303816000865af19150503d806000811462003554576040519150601f19603f3d011682016040523d82523d6000602084013e62003559565b606091505b509150915081801562003587575080511580620035875750808060200190518101906200358791906200418b565b620035f45760405162461bcd60e51b815260206004820152603660248201527f5472616e7366657248656c7065723a3a736166655472616e736665724c5350376044820152750e881314d40dc81d1c985b9cd9995c8819985a5b195960521b606482015260840162000820565b5050505050505050565b60006200237d836001600160a01b038416620037c1565b60006200237d836001600160a01b038416620038d3565b60655460ff1615620007835760405162461bcd60e51b815260206004820152601060248201526f14185d5cd8589b194e881c185d5cd95960821b604482015260640162000820565b60008260000182815481106200368e576200368e620041c5565b9060005260206000200154905092915050565b606081600001805480602002602001604051908101604052809291908181526020018280548015620036f357602002820191906000526020600020905b815481526020019060010190808311620036de575b50505050509050919050565b600080600083516041036200373d5760208401516040850151606086015160001a6200372e88828585620038f2565b95509550955050505062003749565b50508151600091506002905b9250925092565b6000818152600183016020526040812054620037995750815460018181018455600084815260208082209093018490558454848252828601909352604090209190915562002594565b50600062002594565b6000828152600284016020526040812082905562002e7b8484620031af565b60008181526001830160205260408120548015620038ba576000620037e86001836200429f565b8554909150600090620037fe906001906200429f565b90508082146200386a576000866000018281548110620038225762003822620041c5565b9060005260206000200154905080876000018481548110620038485762003848620041c5565b6000918252602080832090910192909255918252600188019052604090208390555b85548690806200387e576200387e620042b5565b60019003818190600052602060002001600090559055856001016000868152602001908152602001600020600090556001935050505062002594565b600091505062002594565b60006200237d8383620027be565b600081815260028301602052604081208190556200237d838362003237565b600080806fa2a8918ca85bafe22016d0b997e4df60600160ff1b03841115620039255750600091506003905082620039b2565b604080516000808252602082018084528a905260ff891692820192909252606081018790526080810186905260019060a0016020604051602081039080840390855afa1580156200397a573d6000803e3d6000fd5b5050604051601f1901519150506001600160a01b038116620039a857506000925060019150829050620039b2565b9250600091508190505b9450945094915050565b611aad80620042cc83390190565b508054600082559060005260206000209081019062000b2291905b80821115620039fb5760008155600101620039e5565b5090565b6001600160a01b038116811462000b2257600080fd5b60008060006060848603121562003a2b57600080fd5b833562003a3881620039ff565b95602085013595506040909401359392505050565b60006020828403121562003a6057600080fd5b5035919050565b634e487b7160e01b600052604160045260246000fd5b600082601f83011262003a8f57600080fd5b813567ffffffffffffffff8082111562003aad5762003aad62003a67565b604051601f8301601f19908116603f0116810190828211818310171562003ad85762003ad862003a67565b8160405283815286602085880101111562003af257600080fd5b836020870160208301376000602085830101528094505050505092915050565b6000806040838503121562003b2657600080fd5b82359150602083013567ffffffffffffffff81111562003b4557600080fd5b62003b538582860162003a7d565b9150509250929050565b60006020828403121562003b7057600080fd5b81356200237d81620039ff565b801515811462000b2257600080fd5b600080600080600080600060e0888a03121562003ba857600080fd5b873562003bb581620039ff565b96506020880135955060408801359450606088013567ffffffffffffffff8082111562003be157600080fd5b62003bef8b838c0162003a7d565b955060808a013591508082111562003c0657600080fd5b62003c148b838c0162003a7d565b945060a08a013591508082111562003c2b57600080fd5b5062003c3a8a828b0162003a7d565b92505060c088013562003c4d8162003b7d565b8091505092959891949750929550565b6001600160a01b0391909116815260200190565b6000806000806080858703121562003c8857600080fd5b843562003c9581620039ff565b935060208501359250604085013562003cae81620039ff565b9396929550929360600135925050565b6000806040838503121562003cd257600080fd5b823562003cdf81620039ff565b946020939093013593505050565b60006020828403121562003d0057600080fd5b813563ffffffff811681146200237d57600080fd5b60008060006060848603121562003d2b57600080fd5b833562003d3881620039ff565b925060208401359150604084013562003d5181620039ff565b809150509250925092565b60008060006060848603121562003d7257600080fd5b833562003d7f81620039ff565b9250602084013562003d9181620039ff565b929592945050506040919091013590565b60008060006060848603121562003db857600080fd5b83359250602084013567ffffffffffffffff8082111562003dd857600080fd5b62003de68783880162003a7d565b9350604086013591508082111562003dfd57600080fd5b5062003e0c8682870162003a7d565b9150509250925092565b600080600080600060a0868803121562003e2f57600080fd5b853562003e3c81620039ff565b94506020860135935060408601359250606086013567ffffffffffffffff81111562003e6757600080fd5b62003e758882890162003a7d565b925050608086013562003e888162003b7d565b809150509295509295909350565b604080825283519082018190526000906020906060840190828701845b8281101562003eda5781516001600160a01b03168452928401929084019060010162003eb3565b5050508381038285015284518082528583019183019060005b8181101562003f115783518352928401929184019160010162003ef3565b5090979650505050505050565b60006020828403121562003f3157600080fd5b81516200237d81620039ff565b6020808252601d908201527f53656e64657220646f65736e2774206f776e2074686973204c5350382e000000604082015260600190565b6020808252601490820152732629a81c1034b9903737ba1037b71039b0b6329760611b604082015260600190565b60005b8381101562003fc057818101518382015260200162003fa6565b50506000910152565b6000815180845262003fe381602086016020860162003fa3565b601f01601f19169290920160200192915050565b6020815260006200237d602083018462003fc9565b600082516200402081846020870162003fa3565b9190910192915050565b60208082526010908201526f2629a81c1034b99037b71039b0b6329760811b604082015260600190565b634e487b7160e01b600052602160045260246000fd5b6060815260006200407f606083018662003fc9565b9050831515602083015260028310620040a857634e487b7160e01b600052602160045260246000fd5b826040830152949350505050565b6020808252601a908201527f596f75206469646e27742073656e6420656e6f756768204c5958000000000000604082015260600190565b6001600160601b0319606097881b8116825295871b8616601482015260288101949094529190941b9092166048820152605c810192909252607c820152609c0190565b634e487b7160e01b600052601160045260246000fd5b6000600182016200415b576200415b62004130565b5060010190565b6001600160a01b0394851681529290931660208301526040820152606081019190915260800190565b6000602082840312156200419e57600080fd5b81516200237d8162003b7d565b600060208284031215620041be57600080fd5b5051919050565b634e487b7160e01b600052603260045260246000fd5b63ffffffff198316815260008251620041fc81601c85016020870162003fa3565b91909101601c019392505050565b82815260406020820152600062002e7b604083018462003fc9565b60018060a01b03841681528260208201526060604082015260006200424e606083018462003fc9565b95945050505050565b6001600160a01b0386811682528516602082015260408101849052821515606082015260a060808201819052600090620042949083018462003fc9565b979650505050505050565b8181038181111562002594576200259462004130565b634e487b7160e01b600052603160045260246000fdfe6080604052600c805461ffff191661fa011790553480156200002057600080fd5b5060405162001aad38038062001aad8339810160408190526200004391620000d9565b60016000819055600280546001600160a01b03199081166001600160a01b03998a1617909155600396909655600480548716958816959095179094556005805486169387169390931790925542600855600a805460ff191690556006558154831633179091556007805491909316911617905562000148565b80516001600160a01b0381168114620000d457600080fd5b919050565b60008060008060008060c08789031215620000f357600080fd5b620000fe87620000bc565b9550602087015194506200011560408801620000bc565b93506200012560608801620000bc565b9250608087015191506200013c60a08801620000bc565b90509295509295509295565b61195580620001586000396000f3fe6080604052600436106100d15760003560e01c8063772ebf2811610077578063772ebf28146101e1578063837b2d1d146101f657806383dc3b0f14610220578063b8962d0214610235578063bfa41b131461023d578063dc3c7cfd14610139578063ea8a1af014610250578063f240f7c31461026557005b806308551a53146100da5780630ae57b1d1461011757806311da60b41461013957806312065fe01461014e5780633bef8a3a1461016c5780636234216d146101815780637150d8ae146101a1578063768896e5146101c157005b366100d857005b005b3480156100e657600080fd5b506004546100fa906001600160a01b031681565b6040516001600160a01b0390911681526020015b60405180910390f35b34801561012357600080fd5b5061012c61027a565b60405161010e9190611370565b34801561014557600080fd5b506100d86102a9565b34801561015a57600080fd5b5060065460405190815260200161010e565b34801561017857600080fd5b506100d861035d565b34801561018d57600080fd5b50600a5460ff1660405161010e91906113c0565b3480156101ad57600080fd5b506005546100fa906001600160a01b031681565b3480156101cd57600080fd5b506100d86101dc366004611455565b6103fb565b3480156101ed57600080fd5b506100d86104aa565b34801561020257600080fd5b50600c546102109060ff1681565b604051901515815260200161010e565b34801561022c57600080fd5b506100d861051b565b6100d86105d6565b6100d861024b3660046114d4565b61067d565b34801561025c57600080fd5b506100d86109a1565b34801561027157600080fd5b506100d8610a61565b610282611352565b50604080518082019091526005546001600160a01b03908116825260045416602082015290565b6001546001600160a01b031633146102dc5760405162461bcd60e51b81526004016102d390611516565b60405180910390fd5b6102e4610aa7565b600280546005546003546040805180820190915293845261060f60f31b6020850152610323936001600160a01b03938416933093169190600190610ad1565b60045460065461033c916001600160a01b031690610c36565b600a80546002919060ff19166001835b021790555061035b6001600055565b565b6001546001600160a01b031633146103875760405162461bcd60e51b81526004016102d390611516565b61038f610aa7565b600280546004546003546040805180820190915293845261060f60f31b60208501526103ce936001600160a01b03938416933093169190600190610ad1565b6005546006546103e7916001600160a01b031690610c36565b600a80546005919060ff191660018361034c565b6001546001600160a01b031633146104255760405162461bcd60e51b81526004016102d390611516565b61042d610aa7565b6004546001600160a01b031632146104875760405162461bcd60e51b815260206004820152601d60248201527f4f6e6c79207468652053656c6c6572206861732074686520726967687400000060448201526064016102d3565b600b61049382826115ce565b50600a805460ff1916600190811790915560005550565b6001546001600160a01b031633146104d45760405162461bcd60e51b81526004016102d390611516565b6104dc610aa7565b600280546004546003546040805180820190915293845261060f60f31b60208501526103e7936001600160a01b03938416933093169190600190610ad1565b6001546001600160a01b031633146105455760405162461bcd60e51b81526004016102d390611516565b61054d610aa7565b6000600a5460ff166005811115610566576105666113aa565b146105835760405162461bcd60e51b81526004016102d39061168d565b600280546004546003546040805180820190915293845261060f60f31b60208501526105c2936001600160a01b03938416933093169190600190610ad1565b600a80546003919060ff191660018361034c565b6000600a5460ff1660058111156105ef576105ef6113aa565b1461060c5760405162461bcd60e51b81526004016102d3906116bf565b6001546001600160a01b031633146106365760405162461bcd60e51b81526004016102d390611516565b61063e610aa7565b600280546005546003546040805180820190915293845261060f60f31b602085015261033c936001600160a01b03938416933093169190600190610ad1565b6000600a5460ff166005811115610696576106966113aa565b146106b35760405162461bcd60e51b81526004016102d3906116bf565b6001546001600160a01b031633146106dd5760405162461bcd60e51b81526004016102d390611516565b6106e5610aa7565b6005546001600160a01b031632146107565760405162461bcd60e51b815260206004820152602e60248201527f4f6e6c7920746865206275796572206861732074686520726967687420746f2060448201526d66696e616c697a6520747261646560901b60648201526084016102d3565b600080600061076760065485610d10565b9250925092508460065411158015610791575060025461078f906001600160a01b031661107f565b155b156107ff576004546006546000916001600160a01b0316906107b490899061170c565b604051600081818185875af1925050503d80600081146107f0576040519150601f19603f3d011682016040523d82523d6000602084013e6107f5565b606091505b5050905050610943565b815160005b818110156108c957600083828151811061082057610820611725565b602002602001015111156108b757600084828151811061084257610842611725565b60200260200101516001600160a01b031684838151811061086557610865611725565b602002602001015160405160006040518083038185875af1925050503d80600081146108ad576040519150601f19603f3d011682016040523d82523d6000602084013e6108b2565b606091505b505050505b806108c18161173b565b915050610804565b50600084886006546108db919061170c565b6108e5919061170c565b6004546040519192506000916001600160a01b039091169083908381818185875af1925050503d8060008114610937576040519150601f19603f3d011682016040523d82523d6000602084013e61093c565b606091505b5050505050505b600280546005546003546040805180820190915293845261060f60f31b6020850152610982936001600160a01b03938416933093169190600190610ad1565b5050600a805460ff19166002179055506001600055505050565b505050565b6001546001600160a01b031633146109cb5760405162461bcd60e51b81526004016102d390611516565b6109d3610aa7565b6000600a5460ff1660058111156109ec576109ec6113aa565b14610a095760405162461bcd60e51b81526004016102d39061168d565b600280546004546003546040805180820190915293845261060f60f31b6020850152610a48936001600160a01b03938416933093169190600190610ad1565b6005546006546105c2916001600160a01b031690610c36565b6001546001600160a01b03163314610a8b5760405162461bcd60e51b81526004016102d390611516565b610a93610aa7565b600a80546004919060ff191660018361034c565b600260005403610aca57604051633ee5aeb560e01b815260040160405180910390fd5b6002600055565b600080876001600160a01b03166040518060600160405280602c81526020016118f4602c9139805190602001208888888888604051602401610b179594939291906117a4565b60408051601f198184030181529181526020820180516001600160e01b03166001600160e01b0319909416939093179092529051610b5591906117ea565b6000604051808303816000865af19150503d8060008114610b92576040519150601f19603f3d011682016040523d82523d6000602084013e610b97565b606091505b5091509150818015610bc1575080511580610bc1575080806020019051810190610bc19190611806565b610c2c5760405162461bcd60e51b815260206004820152603660248201527f5472616e7366657248656c7065723a3a736166655472616e736665724c5350386044820152750e881314d40e081d1c985b9cd9995c8819985a5b195960521b60648201526084016102d3565b5050505050505050565b604080516000808252602082019092526001600160a01b038416908390604051610c6091906117ea565b60006040518083038185875af1925050503d8060008114610c9d576040519150601f19603f3d011682016040523d82523d6000602084013e610ca2565b606091505b505090508061099c5760405162461bcd60e51b815260206004820152603460248201527f5472616e7366657248656c7065723a3a736166655472616e736665724c59583a60448201527308131656081d1c985b9cd9995c8819985a5b195960621b60648201526084016102d3565b60025460009060609081908390610d2f906001600160a01b031661114a565b905080516001600160401b03811115610d4a57610d4a6113e8565b604051908082528060200260200182016040528015610d73578160200160208202803683370190505b50925080516001600160401b03811115610d8f57610d8f6113e8565b604051908082528060200260200182016040528015610db8578160200160208202803683370190505b50815190925060005b81811015610fae5773__$4271652f64a0a9f2e87126a207733f10b1$__633c7bdc19848381518110610df557610df5611725565b6020026020010151604001516040518263ffffffff1660e01b8152600401610e29919063ffffffff91909116815260200190565b602060405180830381865af4158015610e46573d6000803e3d6000fd5b505050506040513d601f19601f82011682018060405250810190610e6a9190611806565b610e7657610e76611828565b600073__$4271652f64a0a9f2e87126a207733f10b1$__631817cb8e8a868581518110610ea557610ea5611725565b6020026020010151604001516040518363ffffffff1660e01b8152600401610edd92919091825263ffffffff16602082015260400190565b602060405180830381865af4158015610efa573d6000803e3d6000fd5b505050506040513d601f19601f82011682018060405250810190610f1e919061183e565b9050838281518110610f3257610f32611725565b602002602001015160200151868381518110610f5057610f50611725565b60200260200101906001600160a01b031690816001600160a01b03168152505080858381518110610f8357610f83611725565b6020908102919091010152610f988188611857565b9650508080610fa69061173b565b915050610dc1565b5063ffffffff8616158015906110425750604051630c0be5c760e11b81526004810188905263ffffffff8716602482015273__$4271652f64a0a9f2e87126a207733f10b1$__90631817cb8e90604401602060405180830381865af415801561101b573d6000803e3d6000fd5b505050506040513d601f19601f8201168201806040525081019061103f919061183e565b85115b1561107657604051633fabaf7560e01b815263ffffffff8716600482015260248101889052604481018690526064016102d3565b50509250925092565b6040516354f6127f60e01b81527f580d62ad353782eca17b89e5900e7df3b13b6f4ca9bbc2f8af8bceb0c3d1ecc6600482015260009081906001600160a01b038416906354f6127f90602401600060405180830381865afa1580156110e8573d6000803e3d6000fd5b505050506040513d6000823e601f3d908101601f19168201604052611110919081019061186a565b90506000815111801561114357508060008151811061113157611131611725565b01602001516001600160f81b03191615155b9392505050565b6040516354f6127f60e01b81527fc0569ca6c9180acc2c3590f36330a36ae19015a19f4e85c28a7631e3317e6b9d60048201526060906000906001600160a01b038416906354f6127f90602401600060405180830381865afa1580156111b4573d6000803e3d6000fd5b505050506040513d6000823e601f3d908101601f191682016040526111dc919081019061186a565b90506111438180516060906000805b828110156112365784810160020151601861ffff82161015611222578560405163460fe35360e11b81526004016102d391906118e0565b6001929092019160020161ffff16016111eb565b506000816001600160401b03811115611251576112516113e8565b60405190808252806020026020018201604052801561129c57816020015b604080516060810182526000808252602080830182905292820152825260001990920191018161126f5790505b5090506000805b848210156113475786820160028101516006820151602690920151909190600160601b90046000601c61ffff8516106112df5750601e8a860101515b6040518060600160405280846001600160e01b0319168152602001836001600160a01b031681526020018263ffffffff1681525087868151811061132557611325611725565b602090810291909101015250505060020161ffff1691909101906001016112a3565b509095945050505050565b60405180604001604052806002906020820280368337509192915050565b60408101818360005b60028110156113a15781516001600160a01b0316835260209283019290910190600101611379565b50505092915050565b634e487b7160e01b600052602160045260246000fd5b60208101600683106113e257634e487b7160e01b600052602160045260246000fd5b91905290565b634e487b7160e01b600052604160045260246000fd5b604051601f8201601f191681016001600160401b0381118282101715611426576114266113e8565b604052919050565b60006001600160401b03821115611447576114476113e8565b50601f01601f191660200190565b60006020828403121561146757600080fd5b81356001600160401b0381111561147d57600080fd5b8201601f8101841361148e57600080fd5b80356114a161149c8261142e565b6113fe565b8181528560208385010111156114b657600080fd5b81602084016020830137600091810160200191909152949350505050565b6000806000606084860312156114e957600080fd5b8335925060208401359150604084013563ffffffff8116811461150b57600080fd5b809150509250925092565b60208082526016908201527553656e646572204e6f74204d61726b6574706c61636560501b604082015260600190565b600181811c9082168061155a57607f821691505b60208210810361157a57634e487b7160e01b600052602260045260246000fd5b50919050565b601f82111561099c57600081815260208120601f850160051c810160208610156115a75750805b601f850160051c820191505b818110156115c6578281556001016115b3565b505050505050565b81516001600160401b038111156115e7576115e76113e8565b6115fb816115f58454611546565b84611580565b602080601f83116001811461163057600084156116185750858301515b600019600386901b1c1916600185901b1785556115c6565b600085815260208120601f198616915b8281101561165f57888601518255948401946001909101908401611640565b508582101561167d5787850151600019600388901b60f8161c191681555b5050505050600190811b01905550565b602080825260189082015277125d195b48105b1c9958591e4813585c9ad9590814d95b9d60421b604082015260600190565b6020808252601c908201527f457363726f77206974656d20686173206265656e20636c6f7365642e00000000604082015260600190565b634e487b7160e01b600052601160045260246000fd5b8181038181111561171f5761171f6116f6565b92915050565b634e487b7160e01b600052603260045260246000fd5b60006001820161174d5761174d6116f6565b5060010190565b60005b8381101561176f578181015183820152602001611757565b50506000910152565b60008151808452611790816020860160208601611754565b601f01601f19169290920160200192915050565b6001600160a01b0386811682528516602082015260408101849052821515606082015260a0608082018190526000906117df90830184611778565b979650505050505050565b600082516117fc818460208701611754565b9190910192915050565b60006020828403121561181857600080fd5b8151801515811461114357600080fd5b634e487b7160e01b600052600160045260246000fd5b60006020828403121561185057600080fd5b5051919050565b8082018082111561171f5761171f6116f6565b60006020828403121561187c57600080fd5b81516001600160401b0381111561189257600080fd5b8201601f810184136118a357600080fd5b80516118b161149c8261142e565b8181528560208385010111156118c657600080fd5b6118d7826020830160208601611754565b95945050505050565b602081526000611143602083018461177856fe7472616e7366657228616464726573732c616464726573732c627974657333322c626f6f6c2c627974657329a2646970667358221220e0c5734855cce321dcce17dce8e06bd25add7bab9f47eb3640998bfa536ac26664736f6c634300081400337472616e7366657228616464726573732c616464726573732c75696e743235362c626f6f6c2c627974657329617574686f72697a654f70657261746f7228616464726573732c627974657333322c627974657329a264697066735822122010f129481a5977a347b268e2bc9e8edaa0f295939988fffd1dcca6d24634a75564736f6c63430008140033496e697469616c697a61626c653a20636f6e7472616374206973206e6f742069",
  "linkReferences": {
    "contracts/libraries/Points.sol": {
      "Points": [
        {
          "length": 20,
          "start": 6951
        },
        {
          "length": 20,
          "start": 10178
        },
        {
          "length": 20,
          "start": 13543
        },
        {
          "length": 20,
          "start": 22349
        },
        {
          "length": 20,
          "start": 22524
        },
        {
          "length": 20,
          "start": 22883
        }
      ]
    }
  },
  "deployedLinkReferences": {
    "contracts/libraries/Points.sol": {
      "Points": [
        {
          "length": 20,
          "start": 5577
        },
        {
          "length": 20,
          "start": 8804
        },
        {
          "length": 20,
          "start": 12169
        },
        {
          "length": 20,
          "start": 20975
        },
        {
          "length": 20,
          "start": 21150
        },
        {
          "length": 20,
          "start": 21509
        }
      ]
    }
  }
}