{
  "_format": "hh-sol-artifact-1",
  "contractName": "TokenUtils",
  "sourceName": "contracts/TokenUtils.sol",
  "abi": [
    {
      "inputs": [
        {
          "internalType": "address",
          "name": "collection",
          "type": "address"
        }
      ],
      "name": "collectionId",
      "outputs": [
        {
          "internalType": "bytes6",
          "name": "",
          "type": "bytes6"
        }
      ],
      "stateMutability": "pure",
      "type": "function"
    },
    {
      "inputs": [
        {
          "components": [
            {
              "internalType": "bytes6",
              "name": "collectionId",
              "type": "bytes6"
            },
            {
              "internalType": "bytes12",
              "name": "variantId",
              "type": "bytes12"
            },
            {
              "internalType": "bytes12",
              "name": "assetId",
              "type": "bytes12"
            }
          ],
          "internalType": "struct TokenId",
          "name": "tokenId",
          "type": "tuple"
        }
      ],
      "name": "getDataKey",
      "outputs": [
        {
          "internalType": "bytes32",
          "name": "",
          "type": "bytes32"
        }
      ],
      "stateMutability": "pure",
      "type": "function"
    },
    {
      "inputs": [
        {
          "internalType": "address",
          "name": "collection",
          "type": "address"
        },
        {
          "internalType": "bytes12",
          "name": "variantId",
          "type": "bytes12"
        }
      ],
      "name": "getDataKey",
      "outputs": [
        {
          "internalType": "bytes32",
          "name": "",
          "type": "bytes32"
        }
      ],
      "stateMutability": "pure",
      "type": "function"
    },
    {
      "inputs": [
        {
          "components": [
            {
              "internalType": "bytes6",
              "name": "collectionId",
              "type": "bytes6"
            },
            {
              "internalType": "bytes12",
              "name": "variantId",
              "type": "bytes12"
            },
            {
              "internalType": "bytes12",
              "name": "assetId",
              "type": "bytes12"
            }
          ],
          "internalType": "struct TokenId",
          "name": "_tokenId",
          "type": "tuple"
        }
      ],
      "name": "getTokenId",
      "outputs": [
        {
          "internalType": "bytes32",
          "name": "",
          "type": "bytes32"
        }
      ],
      "stateMutability": "pure",
      "type": "function"
    },
    {
      "inputs": [
        {
          "internalType": "address",
          "name": "collection",
          "type": "address"
        },
        {
          "internalType": "bytes12",
          "name": "variantId",
          "type": "bytes12"
        },
        {
          "internalType": "bytes12",
          "name": "assetId",
          "type": "bytes12"
        }
      ],
      "name": "getTokenId",
      "outputs": [
        {
          "internalType": "bytes32",
          "name": "",
          "type": "bytes32"
        }
      ],
      "stateMutability": "pure",
      "type": "function"
    },
    {
      "inputs": [
        {
          "internalType": "bytes32",
          "name": "dataKey",
          "type": "bytes32"
        }
      ],
      "name": "parseDataKey",
      "outputs": [
        {
          "components": [
            {
              "internalType": "bytes6",
              "name": "collectionId",
              "type": "bytes6"
            },
            {
              "internalType": "bytes12",
              "name": "variantId",
              "type": "bytes12"
            },
            {
              "internalType": "bytes12",
              "name": "assetId",
              "type": "bytes12"
            }
          ],
          "internalType": "struct TokenId",
          "name": "tokenIdInstance",
          "type": "tuple"
        }
      ],
      "stateMutability": "pure",
      "type": "function"
    },
    {
      "inputs": [
        {
          "internalType": "bytes32",
          "name": "tokenId",
          "type": "bytes32"
        }
      ],
      "name": "parseTokenId",
      "outputs": [
        {
          "components": [
            {
              "internalType": "bytes6",
              "name": "collectionId",
              "type": "bytes6"
            },
            {
              "internalType": "bytes12",
              "name": "variantId",
              "type": "bytes12"
            },
            {
              "internalType": "bytes12",
              "name": "assetId",
              "type": "bytes12"
            }
          ],
          "internalType": "struct TokenId",
          "name": "tokenIdInstance",
          "type": "tuple"
        }
      ],
      "stateMutability": "pure",
      "type": "function"
    }
  ],
  "bytecode": "0x61056b61003a600b82828239805160001a60731461002d57634e487b7160e01b600052600060045260246000fd5b30600052607381538281f3fe73000000000000000000000000000000000000000030146080604052600436106100775760003560e01c80631093da9a1461007c57806320e5304f146100a257806343baf829146100b557806365c67f461461013d5780638954b7e014610150578063b5cb749814610198578063c27407d0146101c4575b600080fd5b61008f61008a366004610337565b6101d7565b6040519081526020015b60405180910390f35b61008f6100b0366004610337565b610220565b6100ff6100c33660046103c0565b60408051606080820183526000928201929092529082901b6001600160d01b031916815260a09190911b6001600160a01b031916602082015290565b6040805182516001600160d01b03191681526020808401516001600160a01b0319908116918301919091529282015190921690820152606001610099565b61008f61014b3660046103f0565b610249565b6100ff61015e3660046103c0565b604080516060810182526001600160d01b0319831681526001600160a01b031983831b8116602083015260a09390931b9092169082015290565b6101ab6101a6366004610433565b61028b565b6040516001600160d01b03199091168152602001610099565b61008f6101d236600461044e565b6102ca565b805160208083015160405160009361020293691339e76a390b7b9ec90160b01b938693849201610481565b60405160208183030381529060405261021a906104d0565b92915050565b60008160000151600060f01b8360200151846040015160405160200161020294939291906104f7565b60006102548461028b565b60405161026b9190600090869086906020016104f7565b604051602081830303815290604052610283906104d0565b949350505050565b6040516bffffffffffffffffffffffff19606083901b166020820152600090603401604051602081830303815290604052805190602001209050919050565b6000691339e76a390b7b9ec90160b01b816102e48561028b565b6040516102fb939291906000908790602001610481565b604051602081830303815290604052610313906104d0565b9392505050565b80356001600160a01b03198116811461033257600080fd5b919050565b60006060828403121561034957600080fd5b6040516060810181811067ffffffffffffffff8211171561037a57634e487b7160e01b600052604160045260246000fd5b60405282356001600160d01b03198116811461039557600080fd5b81526103a36020840161031a565b60208201526103b46040840161031a565b60408201529392505050565b6000602082840312156103d257600080fd5b5035919050565b80356001600160a01b038116811461033257600080fd5b60008060006060848603121561040557600080fd5b61040e846103d9565b925061041c6020850161031a565b915061042a6040850161031a565b90509250925092565b60006020828403121561044557600080fd5b610313826103d9565b6000806040838503121561046157600080fd5b61046a836103d9565b91506104786020840161031a565b90509250929050565b6001600160b01b03199590951685526001600160f01b0319938416600a8601526001600160d01b031992909216600c85015290911660128301526001600160a01b031916601482015260200190565b805160208083015191908110156104f1576000198160200360031b1b821691505b50919050565b6001600160d01b03199490941684526001600160f01b03199290921660068401526001600160a01b031990811660088401521660148201526020019056fea2646970667358221220e1d2c5b6ee7ede3b1a844c66bbec9c9a1ea1e35241a5deafc0e7f251ddd9698d64736f6c63430008130033",
  "linkReferences": {},
  "deployedLinkReferences": {}
}