{
  "_format": "hh-sol-artifact-1",
  "contractName": "GenesisMinter",
  "sourceName": "contracts/GenesisMinter.sol",
  "abi": [
    {
      "inputs": [
        {
          "internalType": "address",
          "name": "_owner",
          "type": "address"
        }
      ],
      "stateMutability": "nonpayable",
      "type": "constructor"
    },
    {
      "inputs": [],
      "name": "InvalidFamilySignature",
      "type": "error"
    },
    {
      "inputs": [
        {
          "internalType": "address",
          "name": "to",
          "type": "address"
        },
        {
          "internalType": "bytes12",
          "name": "variantId",
          "type": "bytes12"
        },
        {
          "internalType": "bool",
          "name": "allowNonLSP1Recipient",
          "type": "bool"
        },
        {
          "internalType": "bytes",
          "name": "data",
          "type": "bytes"
        },
        {
          "internalType": "uint256",
          "name": "amount",
          "type": "uint256"
        },
        {
          "internalType": "string",
          "name": "uid",
          "type": "string"
        }
      ],
      "name": "mintGenesis",
      "outputs": [],
      "stateMutability": "nonpayable",
      "type": "function"
    },
    {
      "inputs": [
        {
          "internalType": "address",
          "name": "genesis",
          "type": "address"
        },
        {
          "internalType": "address",
          "name": "perk",
          "type": "address"
        }
      ],
      "name": "setCollections",
      "outputs": [],
      "stateMutability": "nonpayable",
      "type": "function"
    }
  ],
  "bytecode": "0x608060405234801561001057600080fd5b506040516105ea3803806105ea83398101604081905261002f91610054565b600280546001600160a01b0319166001600160a01b0392909216919091179055610084565b60006020828403121561006657600080fd5b81516001600160a01b038116811461007d57600080fd5b9392505050565b610557806100936000396000f3fe608060405234801561001057600080fd5b50600436106100365760003560e01c806323a30bca1461003b5780637f743bc614610050575b600080fd5b61004e61004936600461039f565b61008c565b005b61004e61005e366004610453565b600080546001600160a01b039384166001600160a01b03199182161790915560018054929093169116179055565b60038160405161009c91906104aa565b9081526040519081900360200190205460ff16156100f75760405162461bcd60e51b8152602060048201526013602482015272155cd95c88185b1c9958591e481b5a5b9d1959606a1b60448201526064015b60405180910390fd5b6002546001600160a01b0316331461014a5760405162461bcd60e51b815260206004820152601660248201527513db9b1e4811985b5a5b1e55540818d85b881b5a5b9d60521b60448201526064016100ee565b60018211156101d75760005b828110156101d157600054604051631920bca360e31b81526001600160a01b039091169063c905e51890610194908a908a908a908a906004016104c6565b600060405180830381600087803b1580156101ae57600080fd5b505af11580156101c2573d6000803e3d6000fd5b50505050806001019050610156565b50610240565b600054604051631920bca360e31b81526001600160a01b039091169063c905e5189061020d9089908990899089906004016104c6565b600060405180830381600087803b15801561022757600080fd5b505af115801561023b573d6000803e3d6000fd5b505050505b6001546040516340c10f1960e01b81526001600160a01b03888116600483015260248201859052909116906340c10f1990604401600060405180830381600087803b15801561028e57600080fd5b505af11580156102a2573d6000803e3d6000fd5b5050505060016003826040516102b891906104aa565b908152604051908190036020019020805491151560ff19909216919091179055505050505050565b80356001600160a01b03811681146102f757600080fd5b919050565b634e487b7160e01b600052604160045260246000fd5b600082601f83011261032357600080fd5b813567ffffffffffffffff8082111561033e5761033e6102fc565b604051601f8301601f19908116603f01168101908282118183101715610366576103666102fc565b8160405283815286602085880101111561037f57600080fd5b836020870160208301376000602085830101528094505050505092915050565b60008060008060008060c087890312156103b857600080fd5b6103c1876102e0565b955060208701356001600160a01b0319811681146103de57600080fd5b9450604087013580151581146103f357600080fd5b9350606087013567ffffffffffffffff8082111561041057600080fd5b61041c8a838b01610312565b94506080890135935060a089013591508082111561043957600080fd5b5061044689828a01610312565b9150509295509295509295565b6000806040838503121561046657600080fd5b61046f836102e0565b915061047d602084016102e0565b90509250929050565b60005b838110156104a1578181015183820152602001610489565b50506000910152565b600082516104bc818460208701610486565b9190910192915050565b60018060a01b038516815260018060a01b0319841660208201528215156040820152608060608201526000825180608084015261050a8160a0850160208701610486565b601f01601f19169190910160a0019594505050505056fea26469706673582212204d3066572482ca6b5f49bdc90f4aa2dd70c8554c14a07e325d5ef6846492ada664736f6c63430008140033",
  "linkReferences": {},
  "deployedLinkReferences": {}
}