{
  "_format": "hh-sol-artifact-1",
  "contractName": "FamilyVaultFactory",
  "sourceName": "contracts/FamilyVaultFactory.sol",
  "abi": [
    {
      "inputs": [
        {
          "internalType": "address",
          "name": "initialOwner",
          "type": "address"
        }
      ],
      "stateMutability": "nonpayable",
      "type": "constructor"
    },
    {
      "inputs": [
        {
          "internalType": "address",
          "name": "caller",
          "type": "address"
        }
      ],
      "name": "LSP14CallerNotPendingOwner",
      "type": "error"
    },
    {
      "inputs": [],
      "name": "LSP14CannotTransferOwnershipToSelf",
      "type": "error"
    },
    {
      "inputs": [],
      "name": "LSP14MustAcceptOwnershipInSeparateTransaction",
      "type": "error"
    },
    {
      "inputs": [
        {
          "internalType": "uint256",
          "name": "renounceOwnershipStart",
          "type": "uint256"
        },
        {
          "internalType": "uint256",
          "name": "renounceOwnershipEnd",
          "type": "uint256"
        }
      ],
      "name": "LSP14NotInRenounceOwnershipInterval",
      "type": "error"
    },
    {
      "anonymous": false,
      "inputs": [],
      "name": "OwnershipRenounced",
      "type": "event"
    },
    {
      "anonymous": false,
      "inputs": [
        {
          "indexed": true,
          "internalType": "address",
          "name": "previousOwner",
          "type": "address"
        },
        {
          "indexed": true,
          "internalType": "address",
          "name": "newOwner",
          "type": "address"
        }
      ],
      "name": "OwnershipTransferStarted",
      "type": "event"
    },
    {
      "anonymous": false,
      "inputs": [
        {
          "indexed": true,
          "internalType": "address",
          "name": "previousOwner",
          "type": "address"
        },
        {
          "indexed": true,
          "internalType": "address",
          "name": "newOwner",
          "type": "address"
        }
      ],
      "name": "OwnershipTransferred",
      "type": "event"
    },
    {
      "anonymous": false,
      "inputs": [],
      "name": "RenounceOwnershipStarted",
      "type": "event"
    },
    {
      "anonymous": false,
      "inputs": [
        {
          "indexed": true,
          "internalType": "address",
          "name": "vault",
          "type": "address"
        }
      ],
      "name": "VaultCreated",
      "type": "event"
    },
    {
      "inputs": [],
      "name": "RENOUNCE_OWNERSHIP_CONFIRMATION_DELAY",
      "outputs": [
        {
          "internalType": "uint256",
          "name": "",
          "type": "uint256"
        }
      ],
      "stateMutability": "view",
      "type": "function"
    },
    {
      "inputs": [],
      "name": "RENOUNCE_OWNERSHIP_CONFIRMATION_PERIOD",
      "outputs": [
        {
          "internalType": "uint256",
          "name": "",
          "type": "uint256"
        }
      ],
      "stateMutability": "view",
      "type": "function"
    },
    {
      "inputs": [],
      "name": "acceptOwnership",
      "outputs": [],
      "stateMutability": "nonpayable",
      "type": "function"
    },
    {
      "inputs": [
        {
          "internalType": "address",
          "name": "newOwner",
          "type": "address"
        }
      ],
      "name": "createVault",
      "outputs": [],
      "stateMutability": "nonpayable",
      "type": "function"
    },
    {
      "inputs": [],
      "name": "owner",
      "outputs": [
        {
          "internalType": "address",
          "name": "",
          "type": "address"
        }
      ],
      "stateMutability": "view",
      "type": "function"
    },
    {
      "inputs": [],
      "name": "pendingOwner",
      "outputs": [
        {
          "internalType": "address",
          "name": "",
          "type": "address"
        }
      ],
      "stateMutability": "view",
      "type": "function"
    },
    {
      "inputs": [],
      "name": "renounceOwnership",
      "outputs": [],
      "stateMutability": "nonpayable",
      "type": "function"
    },
    {
      "inputs": [
        {
          "internalType": "address",
          "name": "newOwner",
          "type": "address"
        }
      ],
      "name": "transferOwnership",
      "outputs": [],
      "stateMutability": "nonpayable",
      "type": "function"
    }
  ],
  "bytecode": "0x608060405234801561001057600080fd5b5060405161382638038061382683398101604081905261002f916100a4565b6100388161003e565b506100d4565b6000546001600160a01b038281169116146100a157600080546001600160a01b038381166001600160a01b0319831681178455604051919092169283917f8be0079c531659141344cd1fd0a4f28419497f9722a3daafe3b4186f6b6457e09190a3505b50565b6000602082840312156100b657600080fd5b81516001600160a01b03811681146100cd57600080fd5b9392505050565b613743806100e36000396000f3fe608060405234801561001057600080fd5b50600436106100785760003560e01c806301bfba611461007d578063715018a61461009857806379ba5097146100a25780638da5cb5b146100aa578063b4bd6f46146100bf578063e30c3978146100d2578063ead3fbdf1461007d578063f2fde38b146100e3575b600080fd5b61008560c881565b6040519081526020015b60405180910390f35b6100a06100f6565b005b6100a0610189565b6100b2610254565b60405161008f91906107a4565b6100a06100cd3660046107b8565b610263565b6002546001600160a01b03166100b2565b6100a06100f13660046107b8565b61032f565b6100fe61040b565b6000610108610254565b9050610112610471565b600061011c610254565b6001600160a01b031603610186576101867fa124442e1cc7b52d8e2ede2787d43527dc1f3ae0de87f50dd03e27a71834f74c60001b8260006040516020016101659291906107e8565b60408051601f198184030181529190526001600160a01b0384169190610564565b50565b600254600160a01b900460ff16156101b457604051635758dd0760e01b815260040160405180910390fd5b60006101be610254565b90506101c86105ff565b6102027fa124442e1cc7b52d8e2ede2787d43527dc1f3ae0de87f50dd03e27a71834f74c60001b82336040516020016101659291906107e8565b6101867fe32c7debcb817925ba4883fdbfc52797187f28f73f860641dab1a68d9b32902c60001b823360405160200161023c9291906107e8565b60408051601f19818403018152919052339190610564565b6000546001600160a01b031690565b61026b61040b565b600060405161027990610797565b604051809103906000f080158015610295573d6000803e3d6000fd5b5060405163189acdbd60e31b81529091506001600160a01b0382169063c4d66de8906102c59085906004016107a4565b600060405180830381600087803b1580156102df57600080fd5b505af11580156102f3573d6000803e3d6000fd5b50506040516001600160a01b03841692507f2e49a5810fda2439a23771848b4acec786b0a64d4de3d124ac57fc8739c388759150600090a25050565b61033761040b565b6002805460ff60a01b1916600160a01b1790556103538161064c565b600061035d610254565b9050816001600160a01b0316816001600160a01b03167f38d16b8cac22d99fc7c124b9cd0de2d3fa1faef420bfe791d8c362d765e2270060405160405180910390a36103fa7fee9a7c0924f740a2ca33d59b7f0c2929821ea9837ce043ce91c1823e9c4e52c060001b82846040516020016103d99291906107e8565b60408051601f198184030181529190526001600160a01b0385169190610564565b50506002805460ff60a01b19169055565b33610414610254565b6001600160a01b03161461046f5760405162461bcd60e51b815260206004820181905260248201527f4f776e61626c653a2063616c6c6572206973206e6f7420746865206f776e657260448201526064015b60405180910390fd5b565b60015443906000906104859060c890610802565b9050600061049460c883610802565b9050808311806104a45750600154155b156104ec576001839055600280546001600160a01b03191690556040517f81b7f830f1f0084db6497c486cbe6974c86488dcc4e3738eab94ab6d6b1653e790600090a1505050565b8183101561051757604051630d8404a160e11b81526004810183905260248101829052604401610466565b610521600061069c565b60006001819055600280546001600160a01b03191690556040517fd1f66c3d2bc1993a86be5e3d33709d98f0442381befcedd29f578b9b2506b1ce9190a1505050565b61057e6001600160a01b038416631aed5a8560e21b61070c565b156105fa57604051631aed5a8560e21b81526001600160a01b03841690636bb56a14906105b19085908590600401610847565b6000604051808303816000875af11580156105d0573d6000803e3d6000fd5b505050506040513d6000823e601f3d908101601f191682016040526105f89190810190610897565b505b505050565b6002546001600160a01b0316331461062c57336040516308a3c8a560e31b815260040161046691906107a4565b6106353361069c565b600280546001600160a01b03191690556000600155565b306001600160a01b0382160361067557604051631c0a54df60e31b815260040160405180910390fd5b600280546001600160a01b0319166001600160a01b03929092169190911790556000600155565b6106a4610254565b6001600160a01b0316816001600160a01b03161461018657600080546001600160a01b038381166001600160a01b0319831681178455604051919092169283917f8be0079c531659141344cd1fd0a4f28419497f9722a3daafe3b4186f6b6457e09190a35050565b604080516001600160e01b03198316602480830191909152825180830390910181526044909101909152602080820180516001600160e01b03166301ffc9a760e01b178152825160009392849283928392918391908a617530fa92503d9150600051905082801561077e575060208210155b801561078a5750600081115b9450505050505b92915050565b612dc98061094583390190565b6001600160a01b0391909116815260200190565b6000602082840312156107ca57600080fd5b81356001600160a01b03811681146107e157600080fd5b9392505050565b6001600160a01b0392831681529116602082015260400190565b8082018082111561079157634e487b7160e01b600052601160045260246000fd5b60005b8381101561083e578181015183820152602001610826565b50506000910152565b828152604060208201526000825180604084015261086c816060850160208701610823565b601f01601f1916919091016060019392505050565b634e487b7160e01b600052604160045260246000fd5b6000602082840312156108a957600080fd5b815167ffffffffffffffff808211156108c157600080fd5b818401915084601f8301126108d557600080fd5b8151818111156108e7576108e7610881565b604051601f8201601f19908116603f0116810190838211818310171561090f5761090f610881565b8160405282815287602084870101111561092857600080fd5b610939836020830160208801610823565b97965050505050505056fe60806040523480156200001157600080fd5b506200001c62000022565b620000e3565b600054610100900460ff16156200008f5760405162461bcd60e51b815260206004820152602760248201527f496e697469616c697a61626c653a20636f6e747261637420697320696e697469604482015266616c697a696e6760c81b606482015260840160405180910390fd5b60005460ff90811614620000e1576000805460ff191660ff9081179091556040519081527f7f26b83ff96e1f2b6a682f133852f6798a09c465da95921460cefb38474024989060200160405180910390a15b565b612cd680620000f36000396000f3fe6080604052600436106100ed5760003560e01c80637f23690c116100855780637f23690c146102cf5780638da5cb5b146102e2578063979024211461030f578063c4d66de814610322578063dedff9c614610335578063e30c397814610355578063ead3fbdf146101ba578063f2fde38b14610373578063ffa1ad741461039357610126565b806301bfba61146101ba57806301ffc9a7146101e2578063318584521461021257806344c028fe1461023257806354f6127f146102525780636963d438146102725780636bb56a1414610292578063715018a6146102a557806379ba5097146102ba57610126565b3661012657341561012457610122600080516020612c8183398151915260001b604051806020016040528060008152506103c5565b505b005b600036606060048210156101a257341561018d5761018b600080516020612c8183398151915260001b84848080601f0160208091040260200160405190810160405280939291908181526020018383808284376000920191909152506103c592505050565b505b506040805160208101909152600081526101af565b6101ac8383610686565b90505b915050805190602001f35b3480156101c657600080fd5b506101cf60c881565b6040519081526020015b60405180910390f35b3480156101ee57600080fd5b506102026101fd366004612291565b61083b565b60405190151581526020016101d9565b6102256102203660046124a2565b6108a5565b6040516101d991906125f9565b61024561024036600461265b565b610938565b6040516101d991906126af565b34801561025e57600080fd5b5061024561026d3660046126c2565b6109c0565b34801561027e57600080fd5b5061022561028d3660046126db565b6109cb565b6102456102a036600461274f565b6103c5565b3480156102b157600080fd5b50610124610b29565b3480156102c657600080fd5b50610124610bbc565b6101246102dd36600461274f565b610c87565b3480156102ee57600080fd5b506102f7610d40565b6040516001600160a01b0390911681526020016101d9565b61012461031d366004612795565b610d55565b6101246103303660046127ee565b610ee5565b34801561034157600080fd5b50610225610350366004612809565b610ff8565b34801561036157600080fd5b506003546001600160a01b03166102f7565b34801561037f57600080fd5b5061012461038e3660046127ee565b6110a2565b34801561039f57600080fd5b50610245604051806040016040528060068152602001650302e31352e360d41b81525081565b606034158015906103e45750600080516020612c818339815191528314155b1561043d5761043b600080516020612c8183398151915260001b6000368080601f0160208091040260200160405190810160405280939291908181526020018383808284376000920191909152506103c592505050565b505b60006104687f0cfc51aec37c55a4d0b1a65c6255c4bf2fbdf6277f3cc0730c45b828b6db8b4761117e565b90506060601482511061052b5760006104808361283d565b60601c905061049681635122dded60e11b611220565b1561052957600480546001600160a01b0319166001600160a01b0383169081178255604051635122dded60e11b8152909163a245bbda916104df91339134918c918c9101612874565b6000604051808303816000875af11580156104fe573d6000803e3d6000fd5b505050506040513d6000823e601f3d908101601f1916820160405261052691908101906128a1565b91505b505b6000610544690cfc51aec37c55a4d0b160b01b876112b4565b905060006105518261117e565b9050606060148251106106145760006105698361283d565b60601c905061057f81635122dded60e11b611220565b1561061257600480546001600160a01b0319166001600160a01b0383169081178255604051635122dded60e11b8152909163a245bbda916105c891339134918f918f9101612874565b6000604051808303816000875af11580156105e7573d6000803e3d6000fd5b505050506040513d6000823e601f3d908101601f1916820160405261060f91908101906128a1565b91505b505b600480546001600160a01b0319169055604051610637908590839060200161290e565b60405160208183030381529060405295508734336001600160a01b0316600080516020612c618339815191528a8a60405161067392919061290e565b60405180910390a4505050505092915050565b60606000806106a06000356001600160e01b031916611300565b91509150346000141580156106b3575080155b1561070b57610709600080516020612c8183398151915260001b86868080601f0160208091040260200160405190810160405280939291908181526020018383808284376000920191909152506103c592505050565b505b6000356001600160e01b03191615801561072c57506001600160a01b038216155b1561074a576040518060200160405280600081525092505050610835565b6001600160a01b038216610788576000356001600160e01b03191660405163bb370b2b60e01b815260040161077f9190612933565b60405180910390fd5b600080836001600160a01b0316836107a15760006107a3565b345b888833346040516020016107ba9493929190612948565b60408051601f19818403018152908290526107d491612973565b60006040518083038185875af1925050503d8060008114610811576040519150601f19603f3d011682016040523d82523d6000602084013e610816565b606091505b5091509150811561082c57935061083592505050565b80518060208301fd5b92915050565b60006001600160e01b031982166314578bf360e11b148061086c57506001600160e01b03198216631aed5a8560e21b145b8061088757506001600160e01b031982166394be599960e01b145b806108965750610896826113b0565b806108355750610835826113d5565b60606108af611413565b341561092157600080516020612c8183398151915260001b34336001600160a01b0316600080516020612c618339815191526000356001600160e01b0319166040516020016108fe919061298f565b60408051601f1981840301815290829052610918916129a4565b60405180910390a45b61092d85858585611474565b90505b949350505050565b6060610942611413565b34156109b457600080516020612c8183398151915260001b34336001600160a01b0316600080516020612c618339815191526000356001600160e01b031916604051602001610991919061298f565b60408051601f19818403018152908290526109ab916129a4565b60405180910390a45b61092d858585856115d1565b60606108358261117e565b6060816001600160401b038111156109e5576109e56122bb565b604051908082528060200260200182016040528015610a1857816020015b6060815260200190600190039081610a035790505b50905060005b82811015610b225760008030868685818110610a3c57610a3c6129ce565b9050602002810190610a4e91906129e4565b604051610a5c929190612a31565b600060405180830381855af49150503d8060008114610a97576040519150601f19603f3d011682016040523d82523d6000602084013e610a9c565b606091505b509150915081610afa57805115610ab65780518082602001fd5b60405162461bcd60e51b81526020600482015260196024820152781314d40e4e8818985d18da10d85b1b1cc81c995d995c9d1959603a1b604482015260640161077f565b80848481518110610b0d57610b0d6129ce565b60209081029190910101525050600101610a1e565b5092915050565b610b31611413565b6000610b3b610d40565b9050610b456116ab565b6000610b4f610d40565b6001600160a01b031603610bb957610bb97f0c622e58e6b7089ae35f1af1c86d997be92fcdd8c9509652022d41aa6516947160001b826000604051602001610b98929190612a41565b60408051601f198184030181529190526001600160a01b038416919061179e565b50565b600354600160a01b900460ff1615610be757604051635758dd0760e01b815260040160405180910390fd5b6000610bf1610d40565b9050610bfb611832565b610c357f0c622e58e6b7089ae35f1af1c86d997be92fcdd8c9509652022d41aa6516947160001b8233604051602001610b98929190612a41565b610bb97f79855c97dbc259ce395421d933d7bc0699b0f1561f988f09a9e8633fd542fe5c60001b8233604051602001610c6f929190612a41565b60408051601f1981840301815291905233919061179e565b3415610ca65760405163f36ba73760e01b815260040160405180910390fd5b6000610cb061187f565b90508015610d31576001600160a01b03198316690cfc51aec37c55a4d0b160b01b1480610cef57506001600160d01b03198316654b80742de2bf60d01b145b80610d1057506001600160a01b03198316696773c5a04a6d4300884b60b11b145b15610d315760405163199611f160e01b81526004810184905260240161077f565b610d3b8383611928565b505050565b6000546201000090046001600160a01b031690565b6000610d5f61187f565b90508151835114610d8357604051633bcc897960e01b815260040160405180910390fd5b3415610da25760405163f36ba73760e01b815260040160405180910390fd5b60005b8351811015610edf578115610e9b578351690cfc51aec37c55a4d0b160b01b90859083908110610dd757610dd76129ce565b60200260200101516001600160a01b0319161480610e2357508351654b80742de2bf60d01b90859083908110610e0f57610e0f6129ce565b60200260200101516001600160d01b031916145b80610e6057508351696773c5a04a6d4300884b60b11b90859083908110610e4c57610e4c6129ce565b60200260200101516001600160a01b031916145b15610e9b57838181518110610e7757610e776129ce565b602002602001015160405163199611f160e01b815260040161077f91815260200190565b610ed7848281518110610eb057610eb06129ce565b6020026020010151848381518110610eca57610eca6129ce565b6020026020010151611928565b600101610da5565b50505050565b600054610100900460ff1615808015610f055750600054600160ff909116105b80610f1f5750303b158015610f1f575060005460ff166001145b610f825760405162461bcd60e51b815260206004820152602e60248201527f496e697469616c697a61626c653a20636f6e747261637420697320616c72656160448201526d191e481a5b9a5d1a585b1a5e995960921b606482015260840161077f565b6000805460ff191660011790558015610fa5576000805461ff0019166101001790555b610fae8261197d565b8015610ff4576000805461ff0019169055604051600181527f7f26b83ff96e1f2b6a682f133852f6798a09c465da95921460cefb38474024989060200160405180910390a15b5050565b606081516001600160401b03811115611013576110136122bb565b60405190808252806020026020018201604052801561104657816020015b60608152602001906001900390816110315790505b50905060005b825181101561109c5761107783828151811061106a5761106a6129ce565b602002602001015161117e565b828281518110611089576110896129ce565b602090810291909101015260010161104c565b50919050565b6110aa611413565b6003805460ff60a01b1916600160a01b1790556110c681611ae0565b60006110d0610d40565b9050816001600160a01b0316816001600160a01b03167f38d16b8cac22d99fc7c124b9cd0de2d3fa1faef420bfe791d8c362d765e2270060405160405180910390a361116d7faefd43f45fed1bcd8992f23c803b6f4ec45cf6b62b0d404d565f290a471e763f60001b828460405160200161114c929190612a41565b60408051601f198184030181529190526001600160a01b038516919061179e565b50506003805460ff60a01b19169055565b600081815260016020526040902080546060919061119b90612a5b565b80601f01602080910402602001604051908101604052809291908181526020018280546111c790612a5b565b80156112145780601f106111e957610100808354040283529160200191611214565b820191906000526020600020905b8154815290600101906020018083116111f757829003601f168201915b50505050509050919050565b6000806301ffc9a760e01b8360405160240161123c9190612933565b604051602081830303815290604052906001600160e01b0319166020820180516001600160e01b03838183161783525050505090506000806000602060008551602087018a617530fa92503d9150600051905082801561129d575060208210155b80156112a95750600081115b979650505050505050565b604080516001600160b01b0319841660208201526000602a82018190526001600160601b03198416602c8301529182910160405160208183030381529060405290508061093090612a8f565b60008080611325696773c5a04a6d4300884b60b11b6001600160e01b031986166112b4565b905060006113328261117e565b905060148151101561134b575060009485945092505050565b80516015036113985780601481518110611367576113676129ce565b01602001516001600160f81b031916600160f81b03611398576113898161283d565b60601c95600195509350505050565b6113a18161283d565b60601c95600095509350505050565b60006001600160e01b0319821663a918fa6b60e01b1480610835575061083582611b30565b6000806113e86301ffc9a760e01b611300565b5090506001600160a01b0381166114025750600092915050565b61140c8184611220565b9392505050565b3361141c610d40565b6001600160a01b0316146114725760405162461bcd60e51b815260206004820181905260248201527f4f776e61626c653a2063616c6c6572206973206e6f7420746865206f776e6572604482015260640161077f565b565b60608351855114158061149557508251845114158061149557508151835114155b156114b357604051633ff55f4d60e01b815260040160405180910390fd5b84516000036114d55760405163e9ad2b5f60e01b815260040160405180910390fd5b600085516001600160401b038111156114f0576114f06122bb565b60405190808252806020026020018201604052801561152357816020015b606081526020019060019003908161150e5790505b50905060005b86518110156115c7576115a2878281518110611547576115476129ce565b6020026020010151878381518110611561576115616129ce565b602002602001015187848151811061157b5761157b6129ce565b6020026020010151878581518110611595576115956129ce565b60200260200101516115d1565b8282815181106115b4576115b46129ce565b6020908102919091010152600101611529565b5095945050505050565b6060846115ea576115e3848484611b55565b9050610930565b60018503611624576001600160a01b0384161561161a57604051631820c12560e11b815260040160405180910390fd5b6115e38383611c73565b6002850361165e576001600160a01b0384161561165457604051631820c12560e11b815260040160405180910390fd5b6115e38383611d66565b6003850361168f578215611685576040516339795e3560e11b815260040160405180910390fd5b6115e38483611e42565b604051631d60ecef60e21b81526004810186905260240161077f565b60025443906000906116bf9060c890612ac9565b905060006116ce60c883612ac9565b9050808311806116de5750600254155b15611726576002839055600380546001600160a01b03191690556040517f81b7f830f1f0084db6497c486cbe6974c86488dcc4e3738eab94ab6d6b1653e790600090a1505050565b8183101561175157604051630d8404a160e11b8152600481018390526024810182905260440161077f565b61175b6000611f33565b60006002819055600380546001600160a01b03191690556040517fd1f66c3d2bc1993a86be5e3d33709d98f0442381befcedd29f578b9b2506b1ce9190a1505050565b6117b86001600160a01b038416631aed5a8560e21b611220565b15610d3b57604051631aed5a8560e21b81526001600160a01b03841690636bb56a14906117eb9085908590600401612adc565b6000604051808303816000875af115801561180a573d6000803e3d6000fd5b505050506040513d6000823e601f3d908101601f19168201604052610edf91908101906128a1565b6003546001600160a01b0316331461185f576040516308a3c8a560e31b815233600482015260240161077f565b61186833611f33565b600380546001600160a01b03191690556000600255565b6000611889610d40565b6001600160a01b0316336001600160a01b031614611925576004546001600160a01b031633146119215760405162461bcd60e51b815260206004820152603b60248201527f4f6e6c79204f776e6572206f72207265656e746572656420556e69766572736160448201527f6c2052656365697665722044656c656761746520616c6c6f7765640000000000606482015260840161077f565b5060015b90565b60008281526001602052604090206119408282612b43565b50817fece574603820d07bc9b91f2a932baadf4628aabcb8afba49776529c14a6104b28260405161197191906126af565b60405180910390a25050565b600054610100900460ff166119e85760405162461bcd60e51b815260206004820152602b60248201527f496e697469616c697a61626c653a20636f6e7472616374206973206e6f74206960448201526a6e697469616c697a696e6760a81b606482015260840161077f565b3415611a4957600080516020612c8183398151915260001b34336001600160a01b0316600080516020612c61833981519152604051611a40906040808252600090820181905260606020830181905282015260800190565b60405180910390a45b611a5281611f33565b611a9b7feafec4d89fa9619884b600007c0334a14085fefa8b51ae5a40895018882bdb9060001b604051806040016040528060048152602001637c0334a160e01b815250611928565b604080516020810190915260008152610bb9906001600160a01b038316907f79855c97dbc259ce395421d933d7bc0699b0f1561f988f09a9e8633fd542fe5c9061179e565b306001600160a01b03821603611b0957604051631c0a54df60e31b815260040160405180910390fd5b600380546001600160a01b0319166001600160a01b03929092169190911790556000600255565b60006001600160e01b031982166318a6a9a560e21b1480610835575061083582611fae565b606082471015611b81576040516301bf351f60e31b81524760048201526024810184905260440161077f565b826001600160a01b03851660007f4810874456b8e6487bd861375cf6abd8e1c8bb5858c8ce36a86a04dabfac199e611bb886612c02565b604051611bc59190612933565b60405180910390a4600080856001600160a01b03168585604051611be99190612973565b60006040518083038185875af1925050503d8060008114611c26576040519150601f19603f3d011682016040523d82523d6000602084013e611c2b565b606091505b5091509150611c6982826040518060400160405280601681526020017522a9219b991aac1d102ab735b737bbb71022b93937b960511b815250611fe3565b9695505050505050565b606082471015611c9f576040516301bf351f60e31b81524760048201526024810184905260440161077f565b8151600003611cc15760405163b81cd8d960e01b815260040160405180910390fd5b600082516020840185f090506001600160a01b038116611cf457604051630b07489b60e01b815260040160405180910390fd5b83816001600160a01b031660017fa1fb700aaee2ae4a2ff6f91ce7eba292f89c2f5488b8ec4c5c5c8150692595c36000801b604051611d3591815260200190565b60405180910390a480604051602001611d4e9190612c35565b60405160208183030381529060405291505092915050565b60608151600003611d8a5760405163b81cd8d960e01b815260040160405180910390fd5b6000611da38360208551611d9e9190612c4d565b611ffc565b90506000611dc084600060208751611dbb9190612c4d565b61205a565b90506000611dcf868484612167565b905085816001600160a01b031660027fa1fb700aaee2ae4a2ff6f91ce7eba292f89c2f5488b8ec4c5c5c8150692595c386604051611e0f91815260200190565b60405180910390a480604051602001611e289190612c35565b604051602081830303815290604052935050505092915050565b606060006001600160a01b03841660037f4810874456b8e6487bd861375cf6abd8e1c8bb5858c8ce36a86a04dabfac199e611e7c86612c02565b604051611e899190612933565b60405180910390a4600080846001600160a01b031684604051611eac9190612973565b600060405180830381855afa9150503d8060008114611ee7576040519150601f19603f3d011682016040523d82523d6000602084013e611eec565b606091505b5091509150611f2a82826040518060400160405280601681526020017522a9219b991aac1d102ab735b737bbb71022b93937b960511b815250611fe3565b95945050505050565b611f3b610d40565b6001600160a01b0316816001600160a01b031614610bb957600080546001600160a01b038381166201000081810262010000600160b01b0319851617855560405193049190911692909183917f8be0079c531659141344cd1fd0a4f28419497f9722a3daafe3b4186f6b6457e091a35050565b60006001600160e01b03198216631d516b2b60e21b148061083557506301ffc9a760e01b6001600160e01b0319831614610835565b60608315611ff257508161140c565b61140c8383612267565b6000612009826020612ac9565b835110156120515760405162461bcd60e51b8152602060048201526015602482015274746f427974657333325f6f75744f66426f756e647360581b604482015260640161077f565b50016020015190565b60608161206881601f612ac9565b10156120a75760405162461bcd60e51b815260206004820152600e60248201526d736c6963655f6f766572666c6f7760901b604482015260640161077f565b6120b18284612ac9565b845110156120f55760405162461bcd60e51b8152602060048201526011602482015270736c6963655f6f75744f66426f756e647360781b604482015260640161077f565b606082158015612114576040519150600082526020820160405261215e565b6040519150601f8416801560200281840101858101878315602002848b0101015b8183101561214d578051835260209283019201612135565b5050858452601f01601f1916604052505b50949350505050565b6000834710156121b95760405162461bcd60e51b815260206004820152601d60248201527f437265617465323a20696e73756666696369656e742062616c616e6365000000604482015260640161077f565b815160000361220a5760405162461bcd60e51b815260206004820181905260248201527f437265617465323a2062797465636f6465206c656e677468206973207a65726f604482015260640161077f565b8282516020840186f590506001600160a01b03811661140c5760405162461bcd60e51b8152602060048201526019602482015278437265617465323a204661696c6564206f6e206465706c6f7960381b604482015260640161077f565b8151156122775781518083602001fd5b8060405162461bcd60e51b815260040161077f91906126af565b6000602082840312156122a357600080fd5b81356001600160e01b03198116811461140c57600080fd5b634e487b7160e01b600052604160045260246000fd5b604051601f8201601f191681016001600160401b03811182821017156122f9576122f96122bb565b604052919050565b60006001600160401b0382111561231a5761231a6122bb565b5060051b60200190565b600082601f83011261233557600080fd5b8135602061234a61234583612301565b6122d1565b82815260059290921b8401810191818101908684111561236957600080fd5b8286015b84811015612384578035835291830191830161236d565b509695505050505050565b80356001600160a01b03811681146123a657600080fd5b919050565b60006001600160401b038211156123c4576123c46122bb565b50601f01601f191660200190565b600082601f8301126123e357600080fd5b81356123f1612345826123ab565b81815284602083860101111561240657600080fd5b816020850160208301376000918101602001919091529392505050565b600082601f83011261243457600080fd5b8135602061244461234583612301565b82815260059290921b8401810191818101908684111561246357600080fd5b8286015b848110156123845780356001600160401b038111156124865760008081fd5b6124948986838b01016123d2565b845250918301918301612467565b600080600080608085870312156124b857600080fd5b84356001600160401b03808211156124cf57600080fd5b6124db88838901612324565b95506020915081870135818111156124f257600080fd5b8701601f8101891361250357600080fd5b803561251161234582612301565b81815260059190911b8201840190848101908b83111561253057600080fd5b928501925b82841015612555576125468461238f565b82529285019290850190612535565b9750505050604087013591508082111561256e57600080fd5b61257a88838901612324565b9350606087013591508082111561259057600080fd5b5061259d87828801612423565b91505092959194509250565b60005b838110156125c45781810151838201526020016125ac565b50506000910152565b600081518084526125e58160208601602086016125a9565b601f01601f19169290920160200192915050565b6000602080830181845280855180835260408601915060408160051b870101925083870160005b8281101561264e57603f1988860301845261263c8583516125cd565b94509285019290850190600101612620565b5092979650505050505050565b6000806000806080858703121561267157600080fd5b843593506126816020860161238f565b92506040850135915060608501356001600160401b038111156126a357600080fd5b61259d878288016123d2565b60208152600061140c60208301846125cd565b6000602082840312156126d457600080fd5b5035919050565b600080602083850312156126ee57600080fd5b82356001600160401b038082111561270557600080fd5b818501915085601f83011261271957600080fd5b81358181111561272857600080fd5b8660208260051b850101111561273d57600080fd5b60209290920196919550909350505050565b6000806040838503121561276257600080fd5b8235915060208301356001600160401b0381111561277f57600080fd5b61278b858286016123d2565b9150509250929050565b600080604083850312156127a857600080fd5b82356001600160401b03808211156127bf57600080fd5b6127cb86838701612324565b935060208501359150808211156127e157600080fd5b5061278b85828601612423565b60006020828403121561280057600080fd5b61140c8261238f565b60006020828403121561281b57600080fd5b81356001600160401b0381111561283157600080fd5b61093084828501612324565b805160208201516001600160601b0319808216929190601483101561286c5780818460140360031b1b83161693505b505050919050565b60018060a01b0385168152836020820152826040820152608060608201526000611c6960808301846125cd565b6000602082840312156128b357600080fd5b81516001600160401b038111156128c957600080fd5b8201601f810184136128da57600080fd5b80516128e8612345826123ab565b8181528560208385010111156128fd57600080fd5b611f2a8260208301602086016125a9565b60408152600061292160408301856125cd565b8281036020840152611f2a81856125cd565b6001600160e01b031991909116815260200190565b8385823760609290921b6001600160601b031916919092019081526014810191909152603401919050565b600082516129858184602087016125a9565b9190910192915050565b6001600160e01b031991909116815260040190565b6040815260006129b760408301846125cd565b828103602093840152600081529190910192915050565b634e487b7160e01b600052603260045260246000fd5b6000808335601e198436030181126129fb57600080fd5b8301803591506001600160401b03821115612a1557600080fd5b602001915036819003821315612a2a57600080fd5b9250929050565b8183823760009101908152919050565b6001600160a01b0392831681529116602082015260400190565b600181811c90821680612a6f57607f821691505b60208210810361109c57634e487b7160e01b600052602260045260246000fd5b8051602080830151919081101561109c5760001960209190910360031b1b16919050565b634e487b7160e01b600052601160045260246000fd5b8082018082111561083557610835612ab3565b82815260406020820152600061093060408301846125cd565b601f821115610d3b57600081815260208120601f850160051c81016020861015612b1c5750805b601f850160051c820191505b81811015612b3b57828155600101612b28565b505050505050565b81516001600160401b03811115612b5c57612b5c6122bb565b612b7081612b6a8454612a5b565b84612af5565b602080601f831160018114612ba55760008415612b8d5750858301515b600019600386901b1c1916600185901b178555612b3b565b600085815260208120601f198616915b82811015612bd457888601518255948401946001909101908401612bb5565b5085821015612bf25787850151600019600388901b60f8161c191681555b5050505050600190811b01905550565b805160208201516001600160e01b0319808216929190600483101561286c5760049290920360031b82901b161692915050565b60609190911b6001600160601b031916815260140190565b8181038181111561083557610835612ab356fe9c3ba68eb5742b8e3961aea0afc7371a71bf433c8a67a831803b64c064a178c2468cd1581d7bc001c3b685513d2b929b55437be34700410383d58f3aa1ea0abca26469706673582212200d2827a9d48284b09bb14b9d32445a4d95d0870c9526110b8f8184efdd158d1564736f6c63430008140033a2646970667358221220081243a989d8513cda7e511e63c55388e7b0eca9cba570b8825c5a8d440a785864736f6c63430008140033",
  "linkReferences": {},
  "deployedLinkReferences": {}
}