{
  "_format": "hh-sol-artifact-1",
  "contractName": "CustomKeyManager",
  "sourceName": "contracts/upTools.sol",
  "abi": [
    {
      "inputs": [
        {
          "internalType": "address",
          "name": "target",
          "type": "address"
        }
      ],
      "stateMutability": "nonpayable",
      "type": "constructor"
    },
    {
      "inputs": [],
      "name": "BatchExecuteParamsLengthMismatch",
      "type": "error"
    },
    {
      "inputs": [],
      "name": "BatchExecuteRelayCallParamsLengthMismatch",
      "type": "error"
    },
    {
      "inputs": [],
      "name": "CallingKeyManagerNotAllowed",
      "type": "error"
    },
    {
      "inputs": [],
      "name": "DelegateCallDisallowedViaKeyManager",
      "type": "error"
    },
    {
      "inputs": [],
      "name": "ERC725X_ExecuteParametersEmptyArray",
      "type": "error"
    },
    {
      "inputs": [],
      "name": "ERC725X_ExecuteParametersLengthMismatch",
      "type": "error"
    },
    {
      "inputs": [],
      "name": "ERC725Y_DataKeysValuesLengthMismatch",
      "type": "error"
    },
    {
      "inputs": [
        {
          "internalType": "bytes32",
          "name": "dataKey",
          "type": "bytes32"
        },
        {
          "internalType": "bytes",
          "name": "dataValue",
          "type": "bytes"
        }
      ],
      "name": "InvalidDataValuesForDataKeys",
      "type": "error"
    },
    {
      "inputs": [
        {
          "internalType": "bytes4",
          "name": "invalidFunction",
          "type": "bytes4"
        }
      ],
      "name": "InvalidERC725Function",
      "type": "error"
    },
    {
      "inputs": [
        {
          "internalType": "bytes",
          "name": "allowedCallsValue",
          "type": "bytes"
        }
      ],
      "name": "InvalidEncodedAllowedCalls",
      "type": "error"
    },
    {
      "inputs": [
        {
          "internalType": "bytes",
          "name": "value",
          "type": "bytes"
        },
        {
          "internalType": "string",
          "name": "context",
          "type": "string"
        }
      ],
      "name": "InvalidEncodedAllowedERC725YDataKeys",
      "type": "error"
    },
    {
      "inputs": [
        {
          "internalType": "bytes",
          "name": "payload",
          "type": "bytes"
        }
      ],
      "name": "InvalidPayload",
      "type": "error"
    },
    {
      "inputs": [
        {
          "internalType": "address",
          "name": "signer",
          "type": "address"
        },
        {
          "internalType": "uint256",
          "name": "invalidNonce",
          "type": "uint256"
        },
        {
          "internalType": "bytes",
          "name": "signature",
          "type": "bytes"
        }
      ],
      "name": "InvalidRelayNonce",
      "type": "error"
    },
    {
      "inputs": [
        {
          "internalType": "address",
          "name": "from",
          "type": "address"
        }
      ],
      "name": "InvalidWhitelistedCall",
      "type": "error"
    },
    {
      "inputs": [],
      "name": "KeyManagerCannotBeSetAsExtensionForLSP20Functions",
      "type": "error"
    },
    {
      "inputs": [
        {
          "internalType": "uint256",
          "name": "totalValues",
          "type": "uint256"
        },
        {
          "internalType": "uint256",
          "name": "msgValue",
          "type": "uint256"
        }
      ],
      "name": "LSP6BatchExcessiveValueSent",
      "type": "error"
    },
    {
      "inputs": [
        {
          "internalType": "uint256",
          "name": "totalValues",
          "type": "uint256"
        },
        {
          "internalType": "uint256",
          "name": "msgValue",
          "type": "uint256"
        }
      ],
      "name": "LSP6BatchInsufficientValueSent",
      "type": "error"
    },
    {
      "inputs": [
        {
          "internalType": "address",
          "name": "from",
          "type": "address"
        }
      ],
      "name": "NoCallsAllowed",
      "type": "error"
    },
    {
      "inputs": [
        {
          "internalType": "address",
          "name": "from",
          "type": "address"
        }
      ],
      "name": "NoERC725YDataKeysAllowed",
      "type": "error"
    },
    {
      "inputs": [
        {
          "internalType": "address",
          "name": "from",
          "type": "address"
        }
      ],
      "name": "NoPermissionsSet",
      "type": "error"
    },
    {
      "inputs": [
        {
          "internalType": "address",
          "name": "from",
          "type": "address"
        },
        {
          "internalType": "address",
          "name": "to",
          "type": "address"
        },
        {
          "internalType": "bytes4",
          "name": "selector",
          "type": "bytes4"
        }
      ],
      "name": "NotAllowedCall",
      "type": "error"
    },
    {
      "inputs": [
        {
          "internalType": "address",
          "name": "from",
          "type": "address"
        },
        {
          "internalType": "bytes32",
          "name": "disallowedKey",
          "type": "bytes32"
        }
      ],
      "name": "NotAllowedERC725YDataKey",
      "type": "error"
    },
    {
      "inputs": [
        {
          "internalType": "address",
          "name": "from",
          "type": "address"
        },
        {
          "internalType": "string",
          "name": "permission",
          "type": "string"
        }
      ],
      "name": "NotAuthorised",
      "type": "error"
    },
    {
      "inputs": [
        {
          "internalType": "bytes32",
          "name": "dataKey",
          "type": "bytes32"
        }
      ],
      "name": "NotRecognisedPermissionKey",
      "type": "error"
    },
    {
      "inputs": [],
      "name": "RelayCallBeforeStartTime",
      "type": "error"
    },
    {
      "inputs": [],
      "name": "RelayCallExpired",
      "type": "error"
    },
    {
      "anonymous": false,
      "inputs": [
        {
          "indexed": true,
          "internalType": "address",
          "name": "signer",
          "type": "address"
        },
        {
          "indexed": true,
          "internalType": "uint256",
          "name": "value",
          "type": "uint256"
        },
        {
          "indexed": true,
          "internalType": "bytes4",
          "name": "selector",
          "type": "bytes4"
        }
      ],
      "name": "PermissionsVerified",
      "type": "event"
    },
    {
      "inputs": [
        {
          "internalType": "address",
          "name": "target",
          "type": "address"
        }
      ],
      "name": "acceptOwnership",
      "outputs": [],
      "stateMutability": "nonpayable",
      "type": "function"
    },
    {
      "inputs": [
        {
          "internalType": "bytes",
          "name": "payload",
          "type": "bytes"
        }
      ],
      "name": "execute",
      "outputs": [
        {
          "internalType": "bytes",
          "name": "",
          "type": "bytes"
        }
      ],
      "stateMutability": "payable",
      "type": "function"
    },
    {
      "inputs": [
        {
          "internalType": "uint256[]",
          "name": "values",
          "type": "uint256[]"
        },
        {
          "internalType": "bytes[]",
          "name": "payloads",
          "type": "bytes[]"
        }
      ],
      "name": "executeBatch",
      "outputs": [
        {
          "internalType": "bytes[]",
          "name": "",
          "type": "bytes[]"
        }
      ],
      "stateMutability": "payable",
      "type": "function"
    },
    {
      "inputs": [
        {
          "internalType": "bytes",
          "name": "signature",
          "type": "bytes"
        },
        {
          "internalType": "uint256",
          "name": "nonce",
          "type": "uint256"
        },
        {
          "internalType": "uint256",
          "name": "validityTimestamps",
          "type": "uint256"
        },
        {
          "internalType": "bytes",
          "name": "payload",
          "type": "bytes"
        }
      ],
      "name": "executeRelayCall",
      "outputs": [
        {
          "internalType": "bytes",
          "name": "",
          "type": "bytes"
        }
      ],
      "stateMutability": "payable",
      "type": "function"
    },
    {
      "inputs": [
        {
          "internalType": "bytes[]",
          "name": "signatures",
          "type": "bytes[]"
        },
        {
          "internalType": "uint256[]",
          "name": "nonces",
          "type": "uint256[]"
        },
        {
          "internalType": "uint256[]",
          "name": "validityTimestamps",
          "type": "uint256[]"
        },
        {
          "internalType": "uint256[]",
          "name": "values",
          "type": "uint256[]"
        },
        {
          "internalType": "bytes[]",
          "name": "payloads",
          "type": "bytes[]"
        }
      ],
      "name": "executeRelayCallBatch",
      "outputs": [
        {
          "internalType": "bytes[]",
          "name": "",
          "type": "bytes[]"
        }
      ],
      "stateMutability": "payable",
      "type": "function"
    },
    {
      "inputs": [
        {
          "internalType": "address",
          "name": "from",
          "type": "address"
        },
        {
          "internalType": "uint128",
          "name": "channelId",
          "type": "uint128"
        }
      ],
      "name": "getNonce",
      "outputs": [
        {
          "internalType": "uint256",
          "name": "",
          "type": "uint256"
        }
      ],
      "stateMutability": "view",
      "type": "function"
    },
    {
      "inputs": [],
      "name": "getTarget",
      "outputs": [
        {
          "internalType": "address",
          "name": "",
          "type": "address"
        }
      ],
      "stateMutability": "view",
      "type": "function"
    },
    {
      "inputs": [
        {
          "internalType": "bytes32",
          "name": "dataHash",
          "type": "bytes32"
        },
        {
          "internalType": "bytes",
          "name": "signature",
          "type": "bytes"
        }
      ],
      "name": "isValidSignature",
      "outputs": [
        {
          "internalType": "bytes4",
          "name": "magicValue",
          "type": "bytes4"
        }
      ],
      "stateMutability": "view",
      "type": "function"
    },
    {
      "inputs": [
        {
          "internalType": "address",
          "name": "",
          "type": "address"
        },
        {
          "internalType": "address",
          "name": "targetContract",
          "type": "address"
        },
        {
          "internalType": "address",
          "name": "caller",
          "type": "address"
        },
        {
          "internalType": "uint256",
          "name": "msgValue",
          "type": "uint256"
        },
        {
          "internalType": "bytes",
          "name": "callData",
          "type": "bytes"
        }
      ],
      "name": "lsp20VerifyCall",
      "outputs": [
        {
          "internalType": "bytes4",
          "name": "",
          "type": "bytes4"
        }
      ],
      "stateMutability": "nonpayable",
      "type": "function"
    },
    {
      "inputs": [
        {
          "internalType": "bytes32",
          "name": "",
          "type": "bytes32"
        },
        {
          "internalType": "bytes",
          "name": "",
          "type": "bytes"
        }
      ],
      "name": "lsp20VerifyCallResult",
      "outputs": [
        {
          "internalType": "bytes4",
          "name": "",
          "type": "bytes4"
        }
      ],
      "stateMutability": "nonpayable",
      "type": "function"
    },
    {
      "inputs": [
        {
          "internalType": "bytes4",
          "name": "interfaceId",
          "type": "bytes4"
        }
      ],
      "name": "supportsInterface",
      "outputs": [
        {
          "internalType": "bool",
          "name": "",
          "type": "bool"
        }
      ],
      "stateMutability": "view",
      "type": "function"
    },
    {
      "inputs": [],
      "name": "target",
      "outputs": [
        {
          "internalType": "address",
          "name": "",
          "type": "address"
        }
      ],
      "stateMutability": "view",
      "type": "function"
    },
    {
      "inputs": [
        {
          "internalType": "address",
          "name": "newTarget_",
          "type": "address"
        }
      ],
      "name": "updateTarget",
      "outputs": [],
      "stateMutability": "nonpayable",
      "type": "function"
    }
  ],
  "bytecode": "0x60806040523480156200001157600080fd5b5060405162003bbc38038062003bbc83398101604081905262000034916200005a565b600180546001600160a01b0319166001600160a01b03929092169190911790556200008c565b6000602082840312156200006d57600080fd5b81516001600160a01b03811681146200008557600080fd5b9392505050565b613b20806200009c6000396000f3fe6080604052600436106100b25760003560e01c8063b44581d91161006f578063b44581d91461018e578063bf0176ff146101bc578063d3fc45d3146101cf578063d4b83992146101ef578063de928f1414610215578063ea1b495f14610235578063f00e6a2a146101ef57600080fd5b806301ffc9a7146100b757806309c5eabe146100ec5780631626ba7e1461010c5780634c8a4e741461013957806351710e451461014c578063a20856a51461016e575b600080fd5b3480156100c357600080fd5b506100d76100d2366004612d8e565b610272565b60405190151581526020015b60405180910390f35b6100ff6100fa366004612df9565b6102fa565b6040516100e39190612e8a565b34801561011857600080fd5b5061012c610127366004612f60565b61030e565b6040516100e39190612fa6565b6100ff610147366004612fbb565b610397565b34801561015857600080fd5b5061016c61016736600461304d565b6103b1565b005b61018161017c36600461315b565b610407565b6040516100e39190613245565b34801561019a57600080fd5b506101ae6101a93660046132a7565b6105ef565b6040519081526020016100e3565b6101816101ca3660046132ec565b61062f565b3480156101db57600080fd5b5061012c6101ea366004612f60565b61079e565b3480156101fb57600080fd5b506001546001600160a01b03166040516100e39190613357565b34801561022157600080fd5b5061012c61023036600461336b565b6107cb565b34801561024157600080fd5b5061016c61025036600461304d565b600180546001600160a01b0319166001600160a01b0392909216919091179055565b60006001600160e01b031982166311f9a63160e11b14806102a357506001600160e01b03198216630b135d3f60e11b145b806102be57506001600160e01b03198216630d6ecac760e01b145b806102d957506001600160e01b03198216630b58f32160e31b145b806102f457506301ffc9a760e01b6001600160e01b03198316145b92915050565b6060610307348484610909565b9392505050565b600080600061031d8585610a0e565b90925090506000816004811115610336576103366133ef565b1461034e57506001600160e01b031991506102f49050565b60015461037390622000009061036d906001600160a01b031685610a53565b81161490565b610385576001600160e01b031961038e565b630b135d3f60e11b5b95945050505050565b60606103a7868686348787610b01565b9695505050505050565b806001600160a01b03166379ba50976040518163ffffffff1660e01b8152600401600060405180830381600087803b1580156103ec57600080fd5b505af1158015610400573d6000803e3d6000fd5b5050505050565b88516060908814158061041a5750878614155b806104255750858414155b806104305750838214155b1561044e5760405163b4d50d2160e01b815260040160405180910390fd5b6000826001600160401b0381111561046857610468612e9d565b60405190808252806020026020018201604052801561049b57816020015b60608152602001906001900390816104865790505b5090506000805b848110156105b557348888838181106104bd576104bd613405565b90506020020135836104cf9190613431565b92508211156104ff57604051630c28c92b60e21b8152600481018390523460248201526044015b60405180910390fd5b6105908d828151811061051457610514613405565b60200260200101518d8d8481811061052e5761052e613405565b905060200201358c8c8581811061054757610547613405565b905060200201358b8b8681811061056057610560613405565b905060200201358a8a8781811061057957610579613405565b905060200281019061058b9190613444565b610b01565b8382815181106105a2576105a2613405565b60209081029190910101526001016104a2565b50348110156105e05760405163528c345b60e11b8152600481018290523460248201526044016104f6565b509a9950505050505050505050565b6001600160a01b0382166000908152602081815260408083206001600160801b0385168452909152812054608083901b6001600160801b03191617610307565b6060838214610651576040516355a187db60e01b815260040160405180910390fd5b6000826001600160401b0381111561066b5761066b612e9d565b60405190808252806020026020018201604052801561069e57816020015b60608152602001906001900390816106895790505b5090506000805b8481101561076757348888838181106106c0576106c0613405565b90506020020135836106d29190613431565b92508211156106fd57604051630c28c92b60e21b8152600481018390523460248201526044016104f6565b61074288888381811061071257610712613405565b9050602002013587878481811061072b5761072b613405565b905060200281019061073d9190613444565b610909565b83828151811061075457610754613405565b60209081029190910101526001016106a5565b50348110156107925760405163528c345b60e11b8152600481018290523460248201526044016104f6565b5090505b949350505050565b6001546000906001600160a01b031633036107bc576107bc33610caf565b5063d3fc45d360e01b92915050565b600080631fc8da4360e21b6107e0848661348a565b6001600160e01b031916148061080f5750639790242160e01b610803848661348a565b6001600160e01b031916145b90506001600160a01b03871633036108a257600061082e888389610cd0565b905061083e888860008888610d3d565b610848848661348a565b6001600160e01b03191686886001600160a01b0316600080516020613acb83398151915260405160405180910390a481806108805750805b6108915763de928f0160e01b610899565b62de928f60e81b5b925050506103a7565b6001600160a01b03871660009081526002602052604090205460ff1680156108e2576108e2876108db6001600160a01b038b1682610a53565b6080611038565b6108f0888860008888610d3d565b81806108805750806108915763de928f0160e01b610899565b60606004821015610931578282604051630d886ef360e21b81526004016104f69291906134ba565b6000631fc8da4360e21b610945848661348a565b6001600160e01b03191614806109745750639790242160e01b610968848661348a565b6001600160e01b031916145b6001549091506001600160a01b03166000610990828433610cd0565b90506109a0823360008989610d3d565b6109aa858761348a565b6001600160e01b03191687336001600160a01b0316600080516020613acb83398151915260405160405180910390a460006109e783898989611048565b9050811580156109f5575083155b15610a0357610a0383610caf565b979650505050505050565b6000808251604103610a445760208301516040840151606085015160001a610a3887828585611100565b94509450505050610a4c565b506000905060025b9250929050565b6000806001600160a01b0384166354f6127f610a80694b80742de2bf82acb36360b01b606087901b6111ba565b6040518263ffffffff1660e01b8152600401610a9e91815260200190565b600060405180830381865afa158015610abb573d6000803e3d6000fd5b505050506040513d6000823e601f3d908101601f19168201604052610ae391908101906134e9565b90508051602014610af85750600090506102f4565b61079681613556565b60606004821015610b29578282604051630d886ef360e21b81526004016104f69291906134ba565b6001546001600160a01b03166000610b45898989898989611206565b6001600160a01b03811660009081526020818152604080832060808d901c84529091529020549091506001600160801b03891614610b9c5780888a60405163c9bd9eb960e01b81526004016104f69392919061357d565b6001600160a01b03811660009081526020818152604080832060808c901c84529091528120805491610bcd836135a4565b9190505550610bdb8761125e565b6000631fc8da4360e21b610bef868861348a565b6001600160e01b0319161480610c1e5750639790242160e01b610c12868861348a565b6001600160e01b031916145b90506000610c2d848385610cd0565b9050610c3d848460018a8a610d3d565b610c47868861348a565b6001600160e01b03191688846001600160a01b0316600080516020613acb83398151915260405160405180910390a46000610c84858a8a8a611048565b905081158015610c92575082155b15610ca057610ca085610caf565b9b9a5050505050505050505050565b6001600160a01b03166000908152600260205260409020805460ff19169055565b6001600160a01b03831660009081526002602052604090205460ff168015610d0e57610d09826108db6001600160a01b03871682610a53565b610307565b82610307576001600160a01b0384166000908152600260205260409020805460ff191660011790559392505050565b6000610d526001600160a01b03871686610a53565b905080610d745784604051637949029560e11b81526004016104f69190613357565b8315610d8457610d8485826112cf565b6000610d90838561348a565b905063203725bd60e21b6001600160e01b0319821601610ddf57600080610dba85600481896135bd565b810190610dc79190612f60565b91509150610dd8898986858561132e565b505061102f565b63686fdbdf60e01b6001600160e01b0319821601610e2557600080610e0785600481896135bd565b810190610e1491906135e7565b91509150610dd889898685856113a9565b635d9feb8160e11b6001600160e01b0319821601610e7c576000808080610e4f876004818b6135bd565b810190610e5c9190613695565b9350935093509350610e738b8b8887878787611512565b5050505061102f565b63673d3dd760e11b6001600160e01b0319821601610fb6576000808080610ea6876004818b6135bd565b810190610eb39190613752565b935093509350935082518451141580610ece57508151835114155b80610edb57508051825114155b15610ef957604051633ff55f4d60e01b815260040160405180910390fd5b8351600003610f1b5760405163e9ad2b5f60e01b815260040160405180910390fd5b60005b8451811015610fac57610f9a8c8c89888581518110610f3f57610f3f613405565b6020026020010151888681518110610f5957610f59613405565b6020026020010151888781518110610f7357610f73613405565b6020026020010151888881518110610f8d57610f8d613405565b6020026020010151611512565b80610fa4816135a4565b915050610f1e565b505050505061102f565b6001600160e01b0319811663f2fde38b60e01b1480610fe557506001600160e01b031981166379ba509760e01b145b8061100057506001600160e01b031981166338a80c5360e11b145b156110145761100f86836115ad565b61102f565b80604051630aea214760e21b81526004016104f69190612fa6565b50505050505050565b6110438383836115e2565b505050565b6060600080866001600160a01b0316865a90878760405161106a92919061384f565b600060405180830381858888f193505050503d80600081146110a8576040519150601f19603f3d011682016040523d82523d6000602084013e6110ad565b606091505b509150915060006110f483836040518060400160405280601e81526020017f4c5350363a206661696c656420657865637574696e67207061796c6f61640000815250611615565b98975050505050505050565b6000806fa2a8918ca85bafe22016d0b997e4df60600160ff1b0383111561112d57506000905060036111b1565b6040805160008082526020820180845289905260ff881692820192909252606081018690526080810185905260019060a0016020604051602081039080840390855afa158015611181573d6000803e3d6000fd5b5050604051601f1901519150506001600160a01b0381166111aa576000600192509250506111b1565b9150600090505b94509492505050565b604080516001600160b01b0319841660208201526000602a82018190526001600160601b03198416602c8301529182910160405160208183030381529060405290508061079690613556565b6000806019468888888888604051602001611227979695949392919061385f565b60408051601f1981840301815291905290506000611245308361162e565b9050611251818a611661565b9998505050505050505050565b806000036112695750565b608081901c814282111561128f57604051626f25c560e11b815260040160405180910390fd5b806001600160801b03166000036112a557505050565b806001600160801b031642111561104357604051631714ea6360e21b815260040160405180910390fd5b624000008082161461132a5760408051631ded6b7360e11b81526001600160a01b03841660048201526024810191909152601260448201527111561150d5551157d49153105657d0d0531360721b60648201526084016104f6565b5050565b600061133c86858585611685565b90506203ffff19810161138b57620200008085160361135b5750610400565b611369858562040000611038565b61138685846113816001600160a01b038a168361194d565b6119da565b6113a1565b806113965750610400565b6113a1858583611038565b505050505050565b80518251146113cb57604051633bcc897960e01b815260040160405180910390fd5b60008083516001600160401b038111156113e7576113e7612e9d565b604051908082528060200260200182016040528015611410578160200160208202803683370190505b509050600080805b6114568a8989848151811061142f5761142f613405565b602002602001015189858151811061144957611449613405565b6020026020010151611685565b91506203ffff19820161146c57600194506114af565b811561147d5761147d898984611038565b600184828151811061149157611491613405565b91151560209283029190910190910152826114ab816135a4565b9350505b806001019050865181106114185784156115065762020000808916036114d9575050505050610400565b6114e7898962040000611038565b61150689886114ff6001600160a01b038e168361194d565b8787611b24565b50505050505050505050565b306001600160a01b0384160361153b57604051635218d91b60e11b815260040160405180910390fd5b8361154e5761100f878787868686611d52565b600184148061155d5750600284145b1561157657811515611570878783611e2e565b5061102f565b6003840361158c5761100f878787868686611ea9565b6004840361102f5760405163406b75d760e11b815260040160405180910390fd5b60018082161461132a5760006115c36001611ed8565b90508281604051631ded6b7360e11b81526004016104f6929190613895565b80821681146110435760006115f682611ed8565b90508381604051631ded6b7360e11b81526004016104f6929190613895565b60608315611624575081610307565b61030783836121e8565b600082826040516020016116439291906138b9565b60405160208183030381529060405280519060200120905092915050565b60008060006116708585610a0e565b9150915061167d81612212565b509392505050565b60006f1067922fc924ae78cd655932cd9cfb3d60811b6001600160801b03198416016116c5576006848116146116bd8685858461235a565b915050610796565b65b47f8bd21d4160d01b6001600160d01b03198416016117c1576006848116146001600160a01b0319841669b47f8bd21d407d534c9d60b01b016117515782516020141580156117155750825115155b15611737578383604051631fa4139760e01b81526004016104f69291906138f8565b8015611747575060009050610796565b6116bd868561253b565b69b47f8bd21d40c6c59b3960b01b6001600160a01b031985160161177b576116bd86858584612571565b69b47f8bd21d407993d6ef60b01b6001600160a01b03198516016117a5576116bd868585846125dc565b604051630f7d735b60e01b8152600481018590526024016104f6565b7f0cfc51aec37c55a4d0b1a65c6255c4bf2fbdf6277f3cc0730c45b828b6db8b4783148061180557506001600160a01b03198316690cfc51aec37c55a4d0b160b01b145b1561186157815160141415801561181c5750815115155b1561183e578282604051631fa4139760e01b81526004016104f69291906138f8565b60608085160361185057506000610796565b61185a8584612606565b9050610796565b69188c3a5fb592bcff77b560b11b6001600160a01b031984160161194357815160141415801561189357508151601514155b801561189f5750815115155b156118c1578282604051631fa4139760e01b81526004016104f69291906138f8565b606083901b6001600160e01b031981166337a4a3c560e21b14806118f557506001600160e01b0319811663d3fc45d360e01b145b15611925573061190484613911565b60601c0361192557604051634a9fa8cf60e01b815260040160405180910390fd5b601880861603611939575060009050610796565b6116bd868561268c565b5062040000610796565b60606001600160a01b0383166354f6127f611977694b80742de2bf866c291160b01b85851b6111ba565b6040518263ffffffff1660e01b815260040161199591815260200190565b600060405180830381865afa1580156119b2573d6000803e3d6000fd5b505050506040513d6000823e601f3d908101601f1916820160405261030791908101906134e9565b80516000036119fe578260405163ed7fa50960e01b81526004016104f69190613357565b6000806000805b8451841015611af957848481518110611a2057611a20613405565b01602001516001600160f81b03191685611a3b866001613431565b81518110611a4b57611a4b613405565b602001015160f81c60f81b604051602001611a67929190613948565b604051602081830303815290604052611a7f90613963565b60f01c9250821580611a915750602083115b15611ab1578460405163ae6cbd3760e01b81526004016104f69190613996565b611abc8360206139e8565b611ac79060086139fb565b8585016022015160001990911b908116925090508581168203611aed5750505050505050565b92820160020192611a05565b60405163557ae07960e01b81526001600160a01b0388166004820152602481018790526044016104f6565b8251600003611b48578460405163ed7fa50960e01b81526004016104f69190613357565b835160008080805b8751841015611ccc57878481518110611b6b57611b6b613405565b01602001516001600160f81b03191688611b86866001613431565b81518110611b9657611b96613405565b602001015160f81c60f81b604051602001611bb2929190613948565b604051602081830303815290604052611bca90613963565b60f01c9250821580611bdc5750602083115b15611bfc578760405163ae6cbd3760e01b81526004016104f69190613996565b611c078360206139e8565b611c129060086139fb565b8885016022015160001990911b9081169250905060005b85811015611cbf57878181518110611c4357611c43613405565b602002602001015115611c5857600101611c29565b82828b8381518110611c6c57611c6c613405565b60200260200101511603611cb7576001888281518110611c8e57611c8e613405565b9115156020928302919091019091015260018088019787900301611cb757505050505050610400565b600101611c29565b5092820160020192611b50565b60005b85811015611d4557878181518110611ce957611ce9613405565b6020026020010151611d3d578a8a8281518110611d0857611d08613405565b602090810291909101015160405163557ae07960e01b81526001600160a01b03909216600483015260248201526044016104f6565b600101611ccf565b5050505050505050505050565b80518215801591610100878116149190159061040080891614908490611d76575082155b15611d8857611d888989610200611038565b818015611d93575083155b8015611d9d575080155b15611daf57611daf8989610800611038565b81158015611dbb575080155b15611dcd57611dcd8989610800611038565b83158015611dd85750805b15611de657505050506113a1565b818015611df05750835b8015611df95750825b15611e0757505050506113a1565b808015611e115750825b15611e1f57505050506113a1565b6115068a8a60008a8a8a612712565b611e3c838362010000611038565b61010082811614818015611e4e575080155b15611ea35760408051631ded6b7360e11b81526001600160a01b03861660048201526024810191909152601360448201527253555045525f5452414e5346455256414c554560681b60648201526084016104f6565b50505050565b611000848116148015611ebc57506113a1565b611ec98686612000611038565b61102f87876003878787612712565b60606000198201611f1057505060408051808201909152601181527005452414e534645524f574e45525348495607c1b602082015290565b6003198201611f4457505060408051808201909152600f81526e454449545045524d495353494f4e5360881b602082015290565b6001198201611f7657505060408051808201909152600d81526c20a22221a7a72a2927a62622a960991b602082015290565b6007198201611fa857505060408051808201909152600d81526c414444455854454e53494f4e5360981b602082015290565b600f198201611fdd57505060408051808201909152601081526f4348414e4745455854454e53494f4e5360801b602082015290565b601f19820161201f57505060408051808201909152601c81527f414444554e4956455253414c524543454956455244454c454741544500000000602082015290565b603f19820161206157505060408051808201909152601f81527f4348414e4745554e4956455253414c524543454956455244454c454741544500602082015290565b607f19820161209057505060408051808201909152600a8152695245454e5452414e435960b01b602082015290565b6203ffff1982016120be5750506040805180820190915260078152665345544441544160c81b602082015290565b6107ff1982016120e857505060408051808201909152600481526310d0531360e21b602082015290565b611fff19820161211857505060408051808201909152600a81526914d510551250d0d0531360b21b602082015290565b617fff19820161214a57505060408051808201909152600c81526b1111531151d0551150d0531360a21b602082015290565b61ffff1982016121765750506040805180820190915260068152654445504c4f5960d01b602082015290565b6101ff1982016121a957505060408051808201909152600d81526c5452414e5346455256414c554560981b602082015290565b621fffff1982016121d457505060408051808201909152600481526329a4a3a760e11b602082015290565b505060408051602081019091526000815290565b8151156121f85781518083602001fd5b8060405162461bcd60e51b81526004016104f69190612e8a565b6000816004811115612226576122266133ef565b0361222e5750565b6001816004811115612242576122426133ef565b0361228a5760405162461bcd60e51b815260206004820152601860248201527745434453413a20696e76616c6964207369676e617475726560401b60448201526064016104f6565b600281600481111561229e5761229e6133ef565b036122eb5760405162461bcd60e51b815260206004820152601f60248201527f45434453413a20696e76616c6964207369676e6174757265206c656e6774680060448201526064016104f6565b60038160048111156122ff576122ff6133ef565b036123575760405162461bcd60e51b815260206004820152602260248201527f45434453413a20696e76616c6964207369676e6174757265202773272076616c604482015261756560f01b60648201526084016104f6565b50565b60007f20cf245f92495cf19acab2659b39f679e0f76aba35a7394b241ce5a0cc734f1d84016124745782516010141580156123955750825115155b156123b7578383604051631fa4139760e01b81526004016104f69291906138f8565b81156123c557506000610796565b60006123d084613a12565b60801c9050856001600160a01b03166354f6127f866040518263ffffffff1660e01b815260040161240391815260200190565b600060405180830381865afa158015612420573d6000803e3d6000fd5b505050506040513d6000823e601f3d908101601f1916820160405261244891908101906134e9565b61245190613a12565b60801c6001600160801b0382161161246a5760046116bd565b6002915050610796565b82511580159061248657508251601414155b156124a8578383604051631fa4139760e01b81526004016104f69291906138f8565b81156124b657506000610796565b6040516354f6127f60e01b8152600481018590526001600160a01b038616906354f6127f90602401600060405180830381865afa1580156124fb573d6000803e3d6000fd5b505050506040513d6000823e601f3d908101601f1916820160405261252391908101906134e9565b511561253057600461038e565b600295945050505050565b60006001600160a01b0380831690829061255790861683610a53565b9050801561256657600461038e565b506002949350505050565b600061257c83612891565b61259b578260405163187e77ab60e01b81526004016104f69190612e8a565b81156125a957506000610796565b6001600160a01b03808516906000906125c490881683610a53565b146125d05760046103a7565b60029695505050505050565b60006125e78361297a565b61259b578260405163ae6cbd3760e01b81526004016104f69190613a45565b6040516354f6127f60e01b8152600481018290526000906001600160a01b038416906354f6127f90602401600060405180830381865afa15801561264e573d6000803e3d6000fd5b505050506040513d6000823e601f3d908101601f1916820160405261267691908101906134e9565b5115612683576040610307565b50602092915050565b6040516354f6127f60e01b8152600481018290526000906001600160a01b038416906354f6127f90602401600060405180830381865afa1580156126d4573d6000803e3d6000fd5b505050506040513d6000823e601f3d908101601f191682016040526126fc91908101906134e9565b5115612709576010610307565b50600892915050565b60006127276001600160a01b03881687612a53565b9050805160000361274d5785604051636cb6058760e01b81526004016104f69190613357565b600061275a868585612a7d565b905060005b8251811015612848578251612775826022613431565b1115612796578260405163187e77ab60e01b81526004016104f69190612e8a565b60006127ae846127a7846002613431565b6020612af5565b905063ffffffff1960206127c183613556565b63ffffffff19911b16036127ea5788604051636fd203c560e01b81526004016104f69190613357565b6127f48184612c02565b801561280557506128058188612c29565b801561281657506128168188612c6c565b801561282757506128278186612ca4565b1561283557505050506113a1565b50612841602282613431565b905061275f565b50868561285485613a97565b60405163228a3de760e11b81526001600160a01b0393841660048201529290911660248301526001600160e01b03191660448201526064016104f6565b6000805b82518110156129605782516128ab826001613431565b106128b95750600092915050565b60008382815181106128cd576128cd613405565b01602001516001600160f81b031916846128e8846001613431565b815181106128f8576128f8613405565b602001015160f81c60f81b604051602001612914929190613948565b60405160208183030381529060405261292c90613963565b60f01c905060208114612943575060009392505050565b61294e816002613431565b6129589083613431565b915050612895565b825181036129715750600192915050565b50600092915050565b6000805b8251811015612960578251612994826001613431565b106129a25750600092915050565b60008382815181106129b6576129b6613405565b01602001516001600160f81b031916846129d1846001613431565b815181106129e1576129e1613405565b602001015160f81c60f81b6040516020016129fd929190613948565b604051602081830303815290604052612a1590613963565b60f01c9050801580612a275750602081115b15612a36575060009392505050565b612a41816002613431565b612a4b9083613431565b91505061297e565b60606001600160a01b0383166354f6127f611977694b80742de2bf393a64c760b01b85851b6111ba565b60008215612a8c57600160e01b175b81511580159060009082612a9e575084155b90508180612aa95750805b15612aec5785612ac257600160e11b9290921791612aec565b60038603612ad957600160e21b9290921791612aec565b60048603612aec57600160e31b92909217915b50509392505050565b606081612b0381601f613431565b1015612b425760405162461bcd60e51b815260206004820152600e60248201526d736c6963655f6f766572666c6f7760901b60448201526064016104f6565b612b4c8284613431565b84511015612b905760405162461bcd60e51b8152602060048201526011602482015270736c6963655f6f75744f66426f756e647360781b60448201526064016104f6565b606082158015612baf5760405191506000825260208201604052612bf9565b6040519150601f8416801560200281840101858101878315602002848b0101015b81831015612be8578051835260209283019201612bd0565b5050858452601f01601f1916604052505b50949350505050565b600080612c0e84613a97565b83166001600160e01b03199081169084161491505092915050565b6000806020612c3785613556565b901b60601c90506001600160a01b038114806107965750806001600160a01b0316836001600160a01b03161491505092915050565b60008060c0612c7a85613556565b901b90506001600160e01b0319808216148061079657506107966001600160a01b03841682612cfe565b60008060e0612cb285613556565b8451911b9150600411156000612cc785613a97565b90506001600160e01b031983811614806103a757508180156103a757506001600160e01b0319818116908416149695505050505050565b6000806301ffc9a760e01b83604051602401612d1a9190612fa6565b604051602081830303815290604052906001600160e01b0319166020820180516001600160e01b03838183161783525050505090506000806000602060008551602087018a617530fa92503d91506000519050828015612d7b575060208210155b8015610a03575015159695505050505050565b600060208284031215612da057600080fd5b81356001600160e01b03198116811461030757600080fd5b60008083601f840112612dca57600080fd5b5081356001600160401b03811115612de157600080fd5b602083019150836020828501011115610a4c57600080fd5b60008060208385031215612e0c57600080fd5b82356001600160401b03811115612e2257600080fd5b612e2e85828601612db8565b90969095509350505050565b60005b83811015612e55578181015183820152602001612e3d565b50506000910152565b60008151808452612e76816020860160208601612e3a565b601f01601f19169290920160200192915050565b6020815260006103076020830184612e5e565b634e487b7160e01b600052604160045260246000fd5b604051601f8201601f191681016001600160401b0381118282101715612edb57612edb612e9d565b604052919050565b60006001600160401b03821115612efc57612efc612e9d565b50601f01601f191660200190565b600082601f830112612f1b57600080fd5b8135612f2e612f2982612ee3565b612eb3565b818152846020838601011115612f4357600080fd5b816020850160208301376000918101602001919091529392505050565b60008060408385031215612f7357600080fd5b8235915060208301356001600160401b03811115612f9057600080fd5b612f9c85828601612f0a565b9150509250929050565b6001600160e01b031991909116815260200190565b600080600080600060808688031215612fd357600080fd5b85356001600160401b0380821115612fea57600080fd5b612ff689838a01612f0a565b96506020880135955060408801359450606088013591508082111561301a57600080fd5b5061302788828901612db8565b969995985093965092949392505050565b6001600160a01b038116811461235757600080fd5b60006020828403121561305f57600080fd5b813561030781613038565b60006001600160401b0382111561308357613083612e9d565b5060051b60200190565b600082601f83011261309e57600080fd5b813560206130ae612f298361306a565b82815260059290921b840181019181810190868411156130cd57600080fd5b8286015b8481101561310c5780356001600160401b038111156130f05760008081fd5b6130fe8986838b0101612f0a565b8452509183019183016130d1565b509695505050505050565b60008083601f84011261312957600080fd5b5081356001600160401b0381111561314057600080fd5b6020830191508360208260051b8501011115610a4c57600080fd5b600080600080600080600080600060a08a8c03121561317957600080fd5b89356001600160401b038082111561319057600080fd5b61319c8d838e0161308d565b9a5060208c01359150808211156131b257600080fd5b6131be8d838e01613117565b909a50985060408c01359150808211156131d757600080fd5b6131e38d838e01613117565b909850965060608c01359150808211156131fc57600080fd5b6132088d838e01613117565b909650945060808c013591508082111561322157600080fd5b5061322e8c828d01613117565b915080935050809150509295985092959850929598565b6000602080830181845280855180835260408601915060408160051b870101925083870160005b8281101561329a57603f19888603018452613288858351612e5e565b9450928501929085019060010161326c565b5092979650505050505050565b600080604083850312156132ba57600080fd5b82356132c581613038565b915060208301356001600160801b03811681146132e157600080fd5b809150509250929050565b6000806000806040858703121561330257600080fd5b84356001600160401b038082111561331957600080fd5b61332588838901613117565b9096509450602087013591508082111561333e57600080fd5b5061334b87828801613117565b95989497509550505050565b6001600160a01b0391909116815260200190565b60008060008060008060a0878903121561338457600080fd5b863561338f81613038565b9550602087013561339f81613038565b945060408701356133af81613038565b93506060870135925060808701356001600160401b038111156133d157600080fd5b6133dd89828a01612db8565b979a9699509497509295939492505050565b634e487b7160e01b600052602160045260246000fd5b634e487b7160e01b600052603260045260246000fd5b634e487b7160e01b600052601160045260246000fd5b808201808211156102f4576102f461341b565b6000808335601e1984360301811261345b57600080fd5b8301803591506001600160401b0382111561347557600080fd5b602001915036819003821315610a4c57600080fd5b6001600160e01b031981358181169160048510156134b25780818660040360031b1b83161692505b505092915050565b60208152816020820152818360408301376000818301604090810191909152601f909201601f19160101919050565b6000602082840312156134fb57600080fd5b81516001600160401b0381111561351157600080fd5b8201601f8101841361352257600080fd5b8051613530612f2982612ee3565b81815285602083850101111561354557600080fd5b61038e826020830160208601612e3a565b80516020808301519190811015613577576000198160200360031b1b821691505b50919050565b60018060a01b038416815282602082015260606040820152600061038e6060830184612e5e565b6000600182016135b6576135b661341b565b5060010190565b600080858511156135cd57600080fd5b838611156135da57600080fd5b5050820193919092039150565b600080604083850312156135fa57600080fd5b82356001600160401b038082111561361157600080fd5b818501915085601f83011261362557600080fd5b81356020613635612f298361306a565b82815260059290921b8401810191818101908984111561365457600080fd5b948201945b8386101561367257853582529482019490820190613659565b9650508601359250508082111561368857600080fd5b50612f9c8582860161308d565b600080600080608085870312156136ab57600080fd5b8435935060208501356136bd81613038565b92506040850135915060608501356001600160401b038111156136df57600080fd5b6136eb87828801612f0a565b91505092959194509250565b600082601f83011261370857600080fd5b81356020613718612f298361306a565b82815260059290921b8401810191818101908684111561373757600080fd5b8286015b8481101561310c578035835291830191830161373b565b6000806000806080858703121561376857600080fd5b84356001600160401b038082111561377f57600080fd5b61378b888389016136f7565b95506020915081870135818111156137a257600080fd5b8701601f810189136137b357600080fd5b80356137c1612f298261306a565b81815260059190911b8201840190848101908b8311156137e057600080fd5b928501925b828410156138075783356137f881613038565b825292850192908501906137e5565b9750505050604087013591508082111561382057600080fd5b61382c888389016136f7565b9350606087013591508082111561384257600080fd5b506136eb8782880161308d565b8183823760009101908152919050565b878152866020820152856040820152846060820152836080820152818360a08301376000910160a0019081529695505050505050565b6001600160a01b038316815260406020820181905260009061079690830184612e5e565b601960f81b8152606083901b6001600160601b031916600282015281516000906138ea816016850160208701612e3a565b919091016016019392505050565b8281526040602082015260006107966040830184612e5e565b805160208201516001600160601b031980821692919060148310156139405780818460140360031b1b83161693505b505050919050565b6001600160f81b031992831681529116600182015260020190565b805160208201516001600160f01b031980821692919060028310156139405760029290920360031b82901b161692915050565b6040815260006139a96040830184612e5e565b8281036020840152601c81527f636f756c646e2774204445434f44452066726f6d2073746f726167650000000060208201526040810191505092915050565b818103818111156102f4576102f461341b565b80820281158282048414176102f4576102f461341b565b805160208201516001600160801b031980821692919060108310156139405760109290920360031b82901b161692915050565b604081526000613a586040830184612e5e565b8281036020840152602081527f636f756c646e27742056414c49444154452074686520646174612076616c756560208201526040810191505092915050565b805160208201516001600160e01b031980821692919060048310156139405760049290920360031b82901b16169291505056fec0a62328f6bf5e3172bb1fcb2019f54b2c523b6a48e3513a2298fbf0150b781ea2646970667358221220623113aa0e61d62b03fc4de43ab3a4f3c1dd92be9a351ad63090f63c7fca5f4b64736f6c63430008130033",
  "linkReferences": {},
  "deployedLinkReferences": {}
}