{
  "_format": "hh-sol-artifact-1",
  "contractName": "CustomKeyManager",
  "sourceName": "contracts/upTools.sol",
  "abi": [
    {
      "inputs": [
        {
          "internalType": "address",
          "name": "target",
          "type": "address"
        }
      ],
      "stateMutability": "nonpayable",
      "type": "constructor"
    },
    {
      "inputs": [],
      "name": "BatchExecuteParamsLengthMismatch",
      "type": "error"
    },
    {
      "inputs": [],
      "name": "BatchExecuteRelayCallParamsLengthMismatch",
      "type": "error"
    },
    {
      "inputs": [],
      "name": "CallingKeyManagerNotAllowed",
      "type": "error"
    },
    {
      "inputs": [],
      "name": "CannotSendValueToSetData",
      "type": "error"
    },
    {
      "inputs": [],
      "name": "DelegateCallDisallowedViaKeyManager",
      "type": "error"
    },
    {
      "inputs": [],
      "name": "ERC725Y_DataKeysValuesLengthMismatch",
      "type": "error"
    },
    {
      "inputs": [
        {
          "internalType": "bytes32",
          "name": "dataKey",
          "type": "bytes32"
        },
        {
          "internalType": "bytes",
          "name": "dataValue",
          "type": "bytes"
        }
      ],
      "name": "InvalidDataValuesForDataKeys",
      "type": "error"
    },
    {
      "inputs": [
        {
          "internalType": "bytes4",
          "name": "invalidFunction",
          "type": "bytes4"
        }
      ],
      "name": "InvalidERC725Function",
      "type": "error"
    },
    {
      "inputs": [
        {
          "internalType": "bytes",
          "name": "allowedCallsValue",
          "type": "bytes"
        }
      ],
      "name": "InvalidEncodedAllowedCalls",
      "type": "error"
    },
    {
      "inputs": [
        {
          "internalType": "bytes",
          "name": "value",
          "type": "bytes"
        },
        {
          "internalType": "string",
          "name": "context",
          "type": "string"
        }
      ],
      "name": "InvalidEncodedAllowedERC725YDataKeys",
      "type": "error"
    },
    {
      "inputs": [
        {
          "internalType": "bytes",
          "name": "payload",
          "type": "bytes"
        }
      ],
      "name": "InvalidPayload",
      "type": "error"
    },
    {
      "inputs": [
        {
          "internalType": "address",
          "name": "signer",
          "type": "address"
        },
        {
          "internalType": "uint256",
          "name": "invalidNonce",
          "type": "uint256"
        },
        {
          "internalType": "bytes",
          "name": "signature",
          "type": "bytes"
        }
      ],
      "name": "InvalidRelayNonce",
      "type": "error"
    },
    {
      "inputs": [
        {
          "internalType": "address",
          "name": "from",
          "type": "address"
        }
      ],
      "name": "InvalidWhitelistedCall",
      "type": "error"
    },
    {
      "inputs": [],
      "name": "KeyManagerCannotBeSetAsExtensionForLSP20Functions",
      "type": "error"
    },
    {
      "inputs": [
        {
          "internalType": "uint256",
          "name": "totalValues",
          "type": "uint256"
        },
        {
          "internalType": "uint256",
          "name": "msgValue",
          "type": "uint256"
        }
      ],
      "name": "LSP6BatchExcessiveValueSent",
      "type": "error"
    },
    {
      "inputs": [
        {
          "internalType": "uint256",
          "name": "totalValues",
          "type": "uint256"
        },
        {
          "internalType": "uint256",
          "name": "msgValue",
          "type": "uint256"
        }
      ],
      "name": "LSP6BatchInsufficientValueSent",
      "type": "error"
    },
    {
      "inputs": [
        {
          "internalType": "address",
          "name": "from",
          "type": "address"
        }
      ],
      "name": "NoCallsAllowed",
      "type": "error"
    },
    {
      "inputs": [
        {
          "internalType": "address",
          "name": "from",
          "type": "address"
        }
      ],
      "name": "NoERC725YDataKeysAllowed",
      "type": "error"
    },
    {
      "inputs": [
        {
          "internalType": "address",
          "name": "from",
          "type": "address"
        }
      ],
      "name": "NoPermissionsSet",
      "type": "error"
    },
    {
      "inputs": [
        {
          "internalType": "address",
          "name": "from",
          "type": "address"
        },
        {
          "internalType": "address",
          "name": "to",
          "type": "address"
        },
        {
          "internalType": "bytes4",
          "name": "selector",
          "type": "bytes4"
        }
      ],
      "name": "NotAllowedCall",
      "type": "error"
    },
    {
      "inputs": [
        {
          "internalType": "address",
          "name": "from",
          "type": "address"
        },
        {
          "internalType": "bytes32",
          "name": "disallowedKey",
          "type": "bytes32"
        }
      ],
      "name": "NotAllowedERC725YDataKey",
      "type": "error"
    },
    {
      "inputs": [
        {
          "internalType": "address",
          "name": "from",
          "type": "address"
        },
        {
          "internalType": "string",
          "name": "permission",
          "type": "string"
        }
      ],
      "name": "NotAuthorised",
      "type": "error"
    },
    {
      "inputs": [
        {
          "internalType": "bytes32",
          "name": "dataKey",
          "type": "bytes32"
        }
      ],
      "name": "NotRecognisedPermissionKey",
      "type": "error"
    },
    {
      "inputs": [],
      "name": "RelayCallBeforeStartTime",
      "type": "error"
    },
    {
      "inputs": [],
      "name": "RelayCallExpired",
      "type": "error"
    },
    {
      "anonymous": false,
      "inputs": [
        {
          "indexed": true,
          "internalType": "address",
          "name": "signer",
          "type": "address"
        },
        {
          "indexed": true,
          "internalType": "uint256",
          "name": "value",
          "type": "uint256"
        },
        {
          "indexed": true,
          "internalType": "bytes4",
          "name": "selector",
          "type": "bytes4"
        }
      ],
      "name": "PermissionsVerified",
      "type": "event"
    },
    {
      "inputs": [
        {
          "internalType": "address",
          "name": "target",
          "type": "address"
        }
      ],
      "name": "acceptOwnership",
      "outputs": [],
      "stateMutability": "nonpayable",
      "type": "function"
    },
    {
      "inputs": [
        {
          "internalType": "bytes",
          "name": "payload",
          "type": "bytes"
        }
      ],
      "name": "execute",
      "outputs": [
        {
          "internalType": "bytes",
          "name": "",
          "type": "bytes"
        }
      ],
      "stateMutability": "payable",
      "type": "function"
    },
    {
      "inputs": [
        {
          "internalType": "uint256[]",
          "name": "values",
          "type": "uint256[]"
        },
        {
          "internalType": "bytes[]",
          "name": "payloads",
          "type": "bytes[]"
        }
      ],
      "name": "executeBatch",
      "outputs": [
        {
          "internalType": "bytes[]",
          "name": "",
          "type": "bytes[]"
        }
      ],
      "stateMutability": "payable",
      "type": "function"
    },
    {
      "inputs": [
        {
          "internalType": "bytes",
          "name": "signature",
          "type": "bytes"
        },
        {
          "internalType": "uint256",
          "name": "nonce",
          "type": "uint256"
        },
        {
          "internalType": "uint256",
          "name": "validityTimestamps",
          "type": "uint256"
        },
        {
          "internalType": "bytes",
          "name": "payload",
          "type": "bytes"
        }
      ],
      "name": "executeRelayCall",
      "outputs": [
        {
          "internalType": "bytes",
          "name": "",
          "type": "bytes"
        }
      ],
      "stateMutability": "payable",
      "type": "function"
    },
    {
      "inputs": [
        {
          "internalType": "bytes[]",
          "name": "signatures",
          "type": "bytes[]"
        },
        {
          "internalType": "uint256[]",
          "name": "nonces",
          "type": "uint256[]"
        },
        {
          "internalType": "uint256[]",
          "name": "validityTimestamps",
          "type": "uint256[]"
        },
        {
          "internalType": "uint256[]",
          "name": "values",
          "type": "uint256[]"
        },
        {
          "internalType": "bytes[]",
          "name": "payloads",
          "type": "bytes[]"
        }
      ],
      "name": "executeRelayCallBatch",
      "outputs": [
        {
          "internalType": "bytes[]",
          "name": "",
          "type": "bytes[]"
        }
      ],
      "stateMutability": "payable",
      "type": "function"
    },
    {
      "inputs": [
        {
          "internalType": "address",
          "name": "from",
          "type": "address"
        },
        {
          "internalType": "uint128",
          "name": "channelId",
          "type": "uint128"
        }
      ],
      "name": "getNonce",
      "outputs": [
        {
          "internalType": "uint256",
          "name": "",
          "type": "uint256"
        }
      ],
      "stateMutability": "view",
      "type": "function"
    },
    {
      "inputs": [],
      "name": "getTarget",
      "outputs": [
        {
          "internalType": "address",
          "name": "",
          "type": "address"
        }
      ],
      "stateMutability": "view",
      "type": "function"
    },
    {
      "inputs": [
        {
          "internalType": "bytes32",
          "name": "dataHash",
          "type": "bytes32"
        },
        {
          "internalType": "bytes",
          "name": "signature",
          "type": "bytes"
        }
      ],
      "name": "isValidSignature",
      "outputs": [
        {
          "internalType": "bytes4",
          "name": "magicValue",
          "type": "bytes4"
        }
      ],
      "stateMutability": "view",
      "type": "function"
    },
    {
      "inputs": [
        {
          "internalType": "address",
          "name": "caller",
          "type": "address"
        },
        {
          "internalType": "uint256",
          "name": "msgValue",
          "type": "uint256"
        },
        {
          "internalType": "bytes",
          "name": "data",
          "type": "bytes"
        }
      ],
      "name": "lsp20VerifyCall",
      "outputs": [
        {
          "internalType": "bytes4",
          "name": "",
          "type": "bytes4"
        }
      ],
      "stateMutability": "nonpayable",
      "type": "function"
    },
    {
      "inputs": [
        {
          "internalType": "bytes32",
          "name": "",
          "type": "bytes32"
        },
        {
          "internalType": "bytes",
          "name": "",
          "type": "bytes"
        }
      ],
      "name": "lsp20VerifyCallResult",
      "outputs": [
        {
          "internalType": "bytes4",
          "name": "",
          "type": "bytes4"
        }
      ],
      "stateMutability": "nonpayable",
      "type": "function"
    },
    {
      "inputs": [
        {
          "internalType": "bytes4",
          "name": "interfaceId",
          "type": "bytes4"
        }
      ],
      "name": "supportsInterface",
      "outputs": [
        {
          "internalType": "bool",
          "name": "",
          "type": "bool"
        }
      ],
      "stateMutability": "view",
      "type": "function"
    },
    {
      "inputs": [],
      "name": "target",
      "outputs": [
        {
          "internalType": "address",
          "name": "",
          "type": "address"
        }
      ],
      "stateMutability": "view",
      "type": "function"
    },
    {
      "inputs": [
        {
          "internalType": "address",
          "name": "newTarget_",
          "type": "address"
        }
      ],
      "name": "updateTarget",
      "outputs": [],
      "stateMutability": "nonpayable",
      "type": "function"
    }
  ],
  "bytecode": "0x60806040523480156200001157600080fd5b506040516200386f3803806200386f833981016040819052620000349162000056565b600180546001600160a81b0319166001600160a01b0383161790555062000088565b6000602082840312156200006957600080fd5b81516001600160a01b03811681146200008157600080fd5b9392505050565b6137d780620000986000396000f3fe6080604052600436106100b25760003560e01c8063a20856a51161006f578063a20856a51461018e578063b44581d9146101ae578063bf0176ff146101dc578063d3fc45d3146101ef578063d4b839921461020f578063ea1b495f14610235578063f00e6a2a1461020f57600080fd5b806301ffc9a7146100b757806309c5eabe146100ec5780631626ba7e1461010c5780634c8a4e741461013957806351710e451461014c5780639bf04b111461016e575b600080fd5b3480156100c357600080fd5b506100d76100d2366004612bd2565b610272565b60405190151581526020015b60405180910390f35b6100ff6100fa366004612c3d565b6102fa565b6040516100e39190612cce565b34801561011857600080fd5b5061012c610127366004612da4565b61030e565b6040516100e39190612dea565b6100ff610147366004612dff565b610397565b34801561015857600080fd5b5061016c610167366004612e91565b6103b1565b005b34801561017a57600080fd5b5061012c610189366004612eae565b610407565b6101a161019c366004612ffa565b610547565b6040516100e391906130e4565b3480156101ba57600080fd5b506101ce6101c9366004613146565b61072f565b6040519081526020016100e3565b6101a16101ea36600461318b565b61076f565b3480156101fb57600080fd5b5061012c61020a366004612da4565b6108dc565b34801561021b57600080fd5b506001546001600160a01b03166040516100e391906131ea565b34801561024157600080fd5b5061016c610250366004612e91565b600180546001600160a01b0319166001600160a01b0392909216919091179055565b60006001600160e01b03198216636691886760e01b14806102a357506001600160e01b03198216630b135d3f60e11b145b806102be57506001600160e01b03198216632406076160e11b145b806102d957506001600160e01b03198216630b58f32160e31b145b806102f457506301ffc9a760e01b6001600160e01b03198316145b92915050565b6060610307348484610908565b9392505050565b600080600061031d85856109f7565b90925090506000816004811115610336576103366131fe565b1461034e57506001600160e01b031991506102f49050565b60015461037390622000009061036d906001600160a01b031685610a3c565b81161490565b610385576001600160e01b031961038e565b630b135d3f60e11b5b95945050505050565b60606103a7868686348787610ad7565b9695505050505050565b806001600160a01b03166379ba50976040518163ffffffff1660e01b8152600401600060405180830381600087803b1580156103ec57600080fd5b505af1158015610400573d6000803e3d6000fd5b5050505050565b600080631fc8da4360e21b61041c8486613214565b6001600160e01b031916148061044b5750639790242160e01b61043f8486613214565b6001600160e01b031916145b15610454575060015b6001546001600160a01b031633036104e45760006104728288610c7a565b905061048087878787610ccc565b61048a8486613214565b6001600160e01b03191686886001600160a01b031660008051602061378283398151915260405160405180910390a481806104c25750805b6104d357639bf04b0160e01b6104db565b629bf04b60e81b5b9250505061053f565b600154600160a01b900460ff16801561051a5760015461051a908890610513906001600160a01b031682610a3c565b6080610ecb565b61052687878787610ccc565b81806104c25750806104d357639bf04b0160e01b6104db565b949350505050565b88516060908814158061055a5750878614155b806105655750858414155b806105705750838214155b1561058e5760405163b4d50d2160e01b815260040160405180910390fd5b6000826001600160401b038111156105a8576105a8612ce1565b6040519080825280602002602001820160405280156105db57816020015b60608152602001906001900390816105c65790505b5090506000805b848110156106f557348888838181106105fd576105fd613244565b905060200201358361060f9190613270565b925082111561063f57604051630c28c92b60e21b8152600481018390523460248201526044015b60405180910390fd5b6106d08d828151811061065457610654613244565b60200260200101518d8d8481811061066e5761066e613244565b905060200201358c8c8581811061068757610687613244565b905060200201358b8b868181106106a0576106a0613244565b905060200201358a8a878181106106b9576106b9613244565b90506020028101906106cb9190613283565b610ad7565b8382815181106106e2576106e2613244565b60209081029190910101526001016105e2565b50348110156107205760405163528c345b60e11b815260048101829052346024820152604401610636565b509a9950505050505050505050565b6001600160a01b0382166000908152602081815260408083206001600160801b0385168452909152812054608083901b6001600160801b03191617610307565b6060838214610791576040516355a187db60e01b815260040160405180910390fd5b6000826001600160401b038111156107ab576107ab612ce1565b6040519080825280602002602001820160405280156107de57816020015b60608152602001906001900390816107c95790505b5090506000805b848110156108a7573488888381811061080057610800613244565b90506020020135836108129190613270565b925082111561083d57604051630c28c92b60e21b815260048101839052346024820152604401610636565b61088288888381811061085257610852613244565b9050602002013587878481811061086b5761086b613244565b905060200281019061087d9190613283565b610908565b83828151811061089457610894613244565b60209081029190910101526001016107e5565b50348110156108d25760405163528c345b60e11b815260048101829052346024820152604401610636565b5095945050505050565b6001546000906001600160a01b031633036108f9576108f9610edb565b5063d3fc45d360e01b92915050565b60606004821015610930578282604051630d886ef360e21b81526004016106369291906132c9565b6000631fc8da4360e21b6109448486613214565b6001600160e01b03191614806109735750639790242160e01b6109678486613214565b6001600160e01b031916145b1561097c575060015b60006109888233610c7a565b905061099633878787610ccc565b6109a08486613214565b6001600160e01b03191686336001600160a01b031660008051602061378283398151915260405160405180910390a460006109dc878787610eea565b9050811580156109ea575082155b156103a7576103a7610edb565b6000808251604103610a2d5760208301516040840151606085015160001a610a2187828585610fcb565b94509450505050610a35565b506000905060025b9250929050565b6000806001600160a01b0384166354f6127f610a69694b80742de2bf82acb36360b01b606087901b611085565b6040518263ffffffff1660e01b8152600401610a8791815260200190565b600060405180830381865afa158015610aa4573d6000803e3d6000fd5b505050506040513d6000823e601f3d908101601f19168201604052610acc91908101906132f8565b905061053f81613365565b60606004821015610aff578282604051630d886ef360e21b81526004016106369291906132c9565b6000610b0f8888888888886110d1565b6001600160a01b03811660009081526020818152604080832060808c901c84529091529020549091506001600160801b03881614610b665780878960405163c9bd9eb960e01b81526004016106369392919061338c565b6001600160a01b03811660009081526020818152604080832060808b901c84529091528120805491610b97836133b3565b9190505550610ba586611129565b6000631fc8da4360e21b610bb98587613214565b6001600160e01b0319161480610be85750639790242160e01b610bdc8587613214565b6001600160e01b031916145b15610bf1575060015b6000610bfd8284610c7a565b9050610c0b83888888610ccc565b610c158587613214565b6001600160e01b03191687846001600160a01b031660008051602061378283398151915260405160405180910390a46000610c51888888610eea565b905081158015610c5f575082155b15610c6c57610c6c610edb565b9a9950505050505050505050565b600154600160a01b900460ff168015610cae57600154610ca9908390610513906001600160a01b031682610a3c565b6102f4565b826102f4576001805460ff60a01b1916600160a01b17905592915050565b600154600090610ce5906001600160a01b031686610a3c565b905080610d075784604051637949029560e11b815260040161063691906131ea565b6000610d138385613214565b905063203725bd60e21b6001600160e01b0319821601610d8e578415610d4c576040516316694a7f60e21b815260040160405180910390fd5b600080610d5c85600481896133cc565b810190610d699190612da4565b6001549193509150610d87906001600160a01b031689868585611184565b5050610ec3565b63686fdbdf60e01b6001600160e01b0319821601610e00578415610dc5576040516316694a7f60e21b815260040160405180910390fd5b600080610dd585600481896133cc565b810190610de291906133f6565b6001549193509150610d87906001600160a01b0316898685856111f2565b635d9feb8160e11b6001600160e01b0319821601610e65576000808080610e2a876004818b6133cc565b810190610e3791906134a4565b60015493975091955093509150610e5c906001600160a01b03168b888787878761135b565b50505050610ec3565b6001600160e01b0319811663f2fde38b60e01b1480610e9457506001600160e01b031981166379ba509760e01b145b15610ea857610ea38683611404565b610ec3565b80604051630aea214760e21b81526004016106369190612dea565b505050505050565b610ed683838361143d565b505050565b6001805460ff60a01b19169055565b60015460609060009081906001600160a01b0316865a908787604051610f11929190613506565b600060405180830381858888f193505050503d8060008114610f4f576040519150601f19603f3d011682016040523d82523d6000602084013e610f54565b606091505b50915091506000610f9b83836040518060400160405280601e81526020017f4c5350363a206661696c656420657865637574696e67207061796c6f61640000815250611470565b90508051600003610fac5780610fc0565b80806020019051810190610fc091906132f8565b979650505050505050565b6000806fa2a8918ca85bafe22016d0b997e4df60600160ff1b03831115610ff8575060009050600361107c565b6040805160008082526020820180845289905260ff881692820192909252606081018690526080810185905260019060a0016020604051602081039080840390855afa15801561104c573d6000803e3d6000fd5b5050604051601f1901519150506001600160a01b0381166110755760006001925092505061107c565b9150600090505b94509492505050565b604080516001600160b01b0319841660208201526000602a82018190526001600160601b03198416602c8301529182910160405160208183030381529060405290508061053f90613365565b60008060194688888888886040516020016110f29796959493929190613516565b60408051601f19818403018152919052905060006111103083611489565b905061111c818a6114bc565b9998505050505050505050565b806000036111345750565b608081901c814282111561115a57604051626f25c560e11b815260040160405180910390fd5b806001600160801b0316421115610ed657604051631714ea6360e21b815260040160405180910390fd5b6000611192868585856114e0565b90506203ffff1981016111dc5762020000808516036111b15750610400565b6111bf858562040000610ecb565b610ea385846111d76001600160a01b038a168361179a565b611827565b806111e75750610400565b610ec3858583610ecb565b805182511461121457604051633bcc897960e01b815260040160405180910390fd5b60008083516001600160401b0381111561123057611230612ce1565b604051908082528060200260200182016040528015611259578160200160208202803683370190505b509050600080805b61129f8a8989848151811061127857611278613244565b602002602001015189858151811061129257611292613244565b60200260200101516114e0565b91506203ffff1982016112b557600194506112f8565b81156112c6576112c6898984610ecb565b60018482815181106112da576112da613244565b91151560209283029190910190910152826112f4816133b3565b9350505b8060010190508651811061126157841561134f576202000080891603611322575050505050610400565b611330898962040000610ecb565b61134f89886113486001600160a01b038e168361179a565b8787611971565b50505050505050505050565b306001600160a01b0384160361138457604051635218d91b60e11b815260040160405180910390fd5b8361139c57611397878787868686611b9f565b6113fb565b60018414806113ab5750600284145b156113c4578115156113be878783611c7b565b506113fb565b600384036113da57611397878787868686611cf6565b600484036113fb5760405163406b75d760e11b815260040160405180910390fd5b50505050505050565b60018082161461143957600061141a6001611d25565b90508281604051631ded6b7360e11b815260040161063692919061354c565b5050565b8082168114610ed657600061145182611d25565b90508381604051631ded6b7360e11b815260040161063692919061354c565b6060831561147f575081610307565b6103078383612035565b6000828260405160200161149e929190613570565b60405160208183030381529060405280519060200120905092915050565b60008060006114cb85856109f7565b915091506114d88161205f565b509392505050565b60006f1067922fc924ae78cd655932cd9cfb3d60811b6001600160801b031984160161152057600684811614611518868585846121a7565b91505061053f565b65b47f8bd21d4160d01b6001600160d01b031984160161161c576006848116146001600160a01b0319841669b47f8bd21d407d534c9d60b01b016115ac5782516020141580156115705750825115155b15611592578383604051631fa4139760e01b81526004016106369291906135af565b80156115a257506000905061053f565b6115188685612388565b69b47f8bd21d40c6c59b3960b01b6001600160a01b03198516016115d65761151886858584612418565b69b47f8bd21d407993d6ef60b01b6001600160a01b03198516016116005761151886858584612442565b604051630f7d735b60e01b815260048101859052602401610636565b7f0cfc51aec37c55a4d0b1a65c6255c4bf2fbdf6277f3cc0730c45b828b6db8b4783148061166057506001600160a01b03198316690cfc51aec37c55a4d0b160b01b145b156116bc5781516014141580156116775750815115155b15611699578282604051631fa4139760e01b81526004016106369291906135af565b6060808516036116ab5750600061053f565b6116b5858461246c565b905061053f565b69188c3a5fb592bcff77b560b11b6001600160a01b03198416016117905781516014141580156116ec5750815115155b1561170e578282604051631fa4139760e01b81526004016106369291906135af565b606083901b6001600160e01b03198116639bf04b1160e01b148061174257506001600160e01b0319811663d3fc45d360e01b145b156117725730611751846135c8565b60601c0361177257604051634a9fa8cf60e01b815260040160405180910390fd5b60188086160361178657506000905061053f565b61151886856124f2565b506204000061053f565b60606001600160a01b0383166354f6127f6117c4694b80742de2bf866c291160b01b85851b611085565b6040518263ffffffff1660e01b81526004016117e291815260200190565b600060405180830381865afa1580156117ff573d6000803e3d6000fd5b505050506040513d6000823e601f3d908101601f1916820160405261030791908101906132f8565b805160000361184b578260405163ed7fa50960e01b815260040161063691906131ea565b6000806000805b84518410156119465784848151811061186d5761186d613244565b01602001516001600160f81b03191685611888866001613270565b8151811061189857611898613244565b602001015160f81c60f81b6040516020016118b49291906135ff565b6040516020818303038152906040526118cc9061361a565b60f01c92508215806118de5750602083115b156118fe578460405163ae6cbd3760e01b8152600401610636919061364d565b61190983602061369f565b6119149060086136b2565b8585016022015160001990911b90811692509050858116820361193a5750505050505050565b92820160020192611852565b60405163557ae07960e01b81526001600160a01b038816600482015260248101879052604401610636565b8251600003611995578460405163ed7fa50960e01b815260040161063691906131ea565b835160008080805b8751841015611b19578784815181106119b8576119b8613244565b01602001516001600160f81b031916886119d3866001613270565b815181106119e3576119e3613244565b602001015160f81c60f81b6040516020016119ff9291906135ff565b604051602081830303815290604052611a179061361a565b60f01c9250821580611a295750602083115b15611a49578760405163ae6cbd3760e01b8152600401610636919061364d565b611a5483602061369f565b611a5f9060086136b2565b8885016022015160001990911b9081169250905060005b85811015611b0c57878181518110611a9057611a90613244565b602002602001015115611aa557600101611a76565b82828b8381518110611ab957611ab9613244565b60200260200101511603611b04576001888281518110611adb57611adb613244565b9115156020928302919091019091015260018088019787900301611b0457505050505050610400565b600101611a76565b509282016002019261199d565b60005b85811015611b9257878181518110611b3657611b36613244565b6020026020010151611b8a578a8a8281518110611b5557611b55613244565b602090810291909101015160405163557ae07960e01b81526001600160a01b0390921660048301526024820152604401610636565b600101611b1c565b5050505050505050505050565b80518215801591610100878116149190159061040080891614908490611bc3575082155b15611bd557611bd58989610200610ecb565b818015611be0575083155b8015611bea575080155b15611bfc57611bfc8989610800610ecb565b81158015611c08575080155b15611c1a57611c1a8989610800610ecb565b83158015611c255750805b15611c335750505050610ec3565b818015611c3d5750835b8015611c465750825b15611c545750505050610ec3565b808015611c5e5750825b15611c6c5750505050610ec3565b61134f8a8a60008a8a8a612578565b611c89838362010000610ecb565b61010082811614818015611c9b575080155b15611cf05760408051631ded6b7360e11b81526001600160a01b03861660048201526024810191909152601360448201527253555045525f5452414e5346455256414c554560681b6064820152608401610636565b50505050565b611000848116148015611d095750610ec3565b611d168686612000610ecb565b6113fb87876003878787612578565b60606000198201611d5d57505060408051808201909152601181527005452414e534645524f574e45525348495607c1b602082015290565b6003198201611d9157505060408051808201909152600f81526e454449545045524d495353494f4e5360881b602082015290565b6001198201611dc357505060408051808201909152600d81526c20a22221a7a72a2927a62622a960991b602082015290565b6007198201611df557505060408051808201909152600d81526c414444455854454e53494f4e5360981b602082015290565b600f198201611e2a57505060408051808201909152601081526f4348414e4745455854454e53494f4e5360801b602082015290565b601f198201611e6c57505060408051808201909152601c81527f414444554e4956455253414c524543454956455244454c454741544500000000602082015290565b603f198201611eae57505060408051808201909152601f81527f4348414e4745554e4956455253414c524543454956455244454c454741544500602082015290565b607f198201611edd57505060408051808201909152600a8152695245454e5452414e435960b01b602082015290565b6203ffff198201611f0b5750506040805180820190915260078152665345544441544160c81b602082015290565b6107ff198201611f3557505060408051808201909152600481526310d0531360e21b602082015290565b611fff198201611f6557505060408051808201909152600a81526914d510551250d0d0531360b21b602082015290565b617fff198201611f9757505060408051808201909152600c81526b1111531151d0551150d0531360a21b602082015290565b61ffff198201611fc35750506040805180820190915260068152654445504c4f5960d01b602082015290565b6101ff198201611ff657505060408051808201909152600d81526c5452414e5346455256414c554560981b602082015290565b621fffff19820161202157505060408051808201909152600481526329a4a3a760e11b602082015290565b505060408051602081019091526000815290565b8151156120455781518083602001fd5b8060405162461bcd60e51b81526004016106369190612cce565b6000816004811115612073576120736131fe565b0361207b5750565b600181600481111561208f5761208f6131fe565b036120d75760405162461bcd60e51b815260206004820152601860248201527745434453413a20696e76616c6964207369676e617475726560401b6044820152606401610636565b60028160048111156120eb576120eb6131fe565b036121385760405162461bcd60e51b815260206004820152601f60248201527f45434453413a20696e76616c6964207369676e6174757265206c656e677468006044820152606401610636565b600381600481111561214c5761214c6131fe565b036121a45760405162461bcd60e51b815260206004820152602260248201527f45434453413a20696e76616c6964207369676e6174757265202773272076616c604482015261756560f01b6064820152608401610636565b50565b60007f20cf245f92495cf19acab2659b39f679e0f76aba35a7394b241ce5a0cc734f1d84016122c15782516010141580156121e25750825115155b15612204578383604051631fa4139760e01b81526004016106369291906135af565b81156122125750600061053f565b600061221d846136c9565b60801c9050856001600160a01b03166354f6127f866040518263ffffffff1660e01b815260040161225091815260200190565b600060405180830381865afa15801561226d573d6000803e3d6000fd5b505050506040513d6000823e601f3d908101601f1916820160405261229591908101906132f8565b61229e906136c9565b60801c6001600160801b038216116122b7576004611518565b600291505061053f565b8251158015906122d357508251601414155b156122f5578383604051631fa4139760e01b81526004016106369291906135af565b81156123035750600061053f565b6040516354f6127f60e01b8152600481018590526001600160a01b038616906354f6127f90602401600060405180830381865afa158015612348573d6000803e3d6000fd5b505050506040513d6000823e601f3d908101601f1916820160405261237091908101906132f8565b511561237d57600461038e565b600295945050505050565b6040516354f6127f60e01b81526004810182905260009081906001600160a01b038516906354f6127f90602401600060405180830381865afa1580156123d2573d6000803e3d6000fd5b505050506040513d6000823e601f3d908101601f191682016040526123fa91908101906132f8565b61240390613365565b1461240f576004610307565b50600292915050565b60006124238361270f565b6122f5578260405163187e77ab60e01b81526004016106369190612cce565b600061244d836127f8565b6122f5578260405163ae6cbd3760e01b815260040161063691906136fc565b6040516354f6127f60e01b8152600481018290526000906001600160a01b038416906354f6127f90602401600060405180830381865afa1580156124b4573d6000803e3d6000fd5b505050506040513d6000823e601f3d908101601f191682016040526124dc91908101906132f8565b51156124e9576040610307565b50602092915050565b6040516354f6127f60e01b8152600481018290526000906001600160a01b038416906354f6127f90602401600060405180830381865afa15801561253a573d6000803e3d6000fd5b505050506040513d6000823e601f3d908101601f1916820160405261256291908101906132f8565b511561256f576010610307565b50600892915050565b600061258d6001600160a01b038816876128d1565b905080516000036125b35785604051636cb6058760e01b815260040161063691906131ea565b8151801590600090600411156125ca5760006125d3565b6125d38461374e565b905060006125e28887856128fb565b905060005b84518110156126d25784516125fd826022613270565b111561261e578460405163187e77ab60e01b81526004016106369190612cce565b60006126368661262f846002613270565b6020612947565b905063ffffffff19602061264983613365565b63ffffffff19911b1603612672578a604051636fd203c560e01b815260040161063691906131ea565b61267c8184612a54565b801561268d575061268d818a612a7b565b801561269e575061269e818a612abe565b80156126af57506126af8185612af6565b156126bf57505050505050610ec3565b506126cb602282613270565b90506125e7565b5060405163228a3de760e11b81526001600160a01b03808b166004830152881660248201526001600160e01b031983166044820152606401610636565b6000805b82518110156127de578251612729826001613270565b106127375750600092915050565b600083828151811061274b5761274b613244565b01602001516001600160f81b03191684612766846001613270565b8151811061277657612776613244565b602001015160f81c60f81b6040516020016127929291906135ff565b6040516020818303038152906040526127aa9061361a565b60f01c9050602081146127c1575060009392505050565b6127cc816002613270565b6127d69083613270565b915050612713565b825181036127ef5750600192915050565b50600092915050565b6000805b82518110156127de578251612812826001613270565b106128205750600092915050565b600083828151811061283457612834613244565b01602001516001600160f81b0319168461284f846001613270565b8151811061285f5761285f613244565b602001015160f81c60f81b60405160200161287b9291906135ff565b6040516020818303038152906040526128939061361a565b60f01c90508015806128a55750602081115b156128b4575060009392505050565b6128bf816002613270565b6128c99083613270565b9150506127fc565b60606001600160a01b0383166354f6127f6117c4694b80742de2bf393a64c760b01b85851b611085565b6000821561290a57600160e01b175b81610307578361291f57600160e11b17610307565b6003840361293257600160e21b17610307565b6004840361030757600160e31b179392505050565b60608161295581601f613270565b10156129945760405162461bcd60e51b815260206004820152600e60248201526d736c6963655f6f766572666c6f7760901b6044820152606401610636565b61299e8284613270565b845110156129e25760405162461bcd60e51b8152602060048201526011602482015270736c6963655f6f75744f66426f756e647360781b6044820152606401610636565b606082158015612a015760405191506000825260208201604052612a4b565b6040519150601f8416801560200281840101858101878315602002848b0101015b81831015612a3a578051835260209283019201612a22565b5050858452601f01601f1916604052505b50949350505050565b600080612a608461374e565b83166001600160e01b03199081169084161491505092915050565b6000806020612a8985613365565b901b60601c90506001600160a01b0381148061053f5750806001600160a01b0316836001600160a01b03161491505092915050565b60008060c0612acc85613365565b901b90506001600160e01b0319808216148061053f575061053f6001600160a01b03841682612b42565b60008060e0612b0485613365565b901b90506001600160e01b0319838116151590808316148061038e575080801561038e5750506001600160e01b031990811692169190911492915050565b6000806301ffc9a760e01b83604051602401612b5e9190612dea565b604051602081830303815290604052906001600160e01b0319166020820180516001600160e01b03838183161783525050505090506000806000602060008551602087018a617530fa92503d91506000519050828015612bbf575060208210155b8015610fc0575015159695505050505050565b600060208284031215612be457600080fd5b81356001600160e01b03198116811461030757600080fd5b60008083601f840112612c0e57600080fd5b5081356001600160401b03811115612c2557600080fd5b602083019150836020828501011115610a3557600080fd5b60008060208385031215612c5057600080fd5b82356001600160401b03811115612c6657600080fd5b612c7285828601612bfc565b90969095509350505050565b60005b83811015612c99578181015183820152602001612c81565b50506000910152565b60008151808452612cba816020860160208601612c7e565b601f01601f19169290920160200192915050565b6020815260006103076020830184612ca2565b634e487b7160e01b600052604160045260246000fd5b604051601f8201601f191681016001600160401b0381118282101715612d1f57612d1f612ce1565b604052919050565b60006001600160401b03821115612d4057612d40612ce1565b50601f01601f191660200190565b600082601f830112612d5f57600080fd5b8135612d72612d6d82612d27565b612cf7565b818152846020838601011115612d8757600080fd5b816020850160208301376000918101602001919091529392505050565b60008060408385031215612db757600080fd5b8235915060208301356001600160401b03811115612dd457600080fd5b612de085828601612d4e565b9150509250929050565b6001600160e01b031991909116815260200190565b600080600080600060808688031215612e1757600080fd5b85356001600160401b0380821115612e2e57600080fd5b612e3a89838a01612d4e565b965060208801359550604088013594506060880135915080821115612e5e57600080fd5b50612e6b88828901612bfc565b969995985093965092949392505050565b6001600160a01b03811681146121a457600080fd5b600060208284031215612ea357600080fd5b813561030781612e7c565b60008060008060608587031215612ec457600080fd5b8435612ecf81612e7c565b93506020850135925060408501356001600160401b03811115612ef157600080fd5b612efd87828801612bfc565b95989497509550505050565b60006001600160401b03821115612f2257612f22612ce1565b5060051b60200190565b600082601f830112612f3d57600080fd5b81356020612f4d612d6d83612f09565b82815260059290921b84018101918181019086841115612f6c57600080fd5b8286015b84811015612fab5780356001600160401b03811115612f8f5760008081fd5b612f9d8986838b0101612d4e565b845250918301918301612f70565b509695505050505050565b60008083601f840112612fc857600080fd5b5081356001600160401b03811115612fdf57600080fd5b6020830191508360208260051b8501011115610a3557600080fd5b600080600080600080600080600060a08a8c03121561301857600080fd5b89356001600160401b038082111561302f57600080fd5b61303b8d838e01612f2c565b9a5060208c013591508082111561305157600080fd5b61305d8d838e01612fb6565b909a50985060408c013591508082111561307657600080fd5b6130828d838e01612fb6565b909850965060608c013591508082111561309b57600080fd5b6130a78d838e01612fb6565b909650945060808c01359150808211156130c057600080fd5b506130cd8c828d01612fb6565b915080935050809150509295985092959850929598565b6000602080830181845280855180835260408601915060408160051b870101925083870160005b8281101561313957603f19888603018452613127858351612ca2565b9450928501929085019060010161310b565b5092979650505050505050565b6000806040838503121561315957600080fd5b823561316481612e7c565b915060208301356001600160801b038116811461318057600080fd5b809150509250929050565b600080600080604085870312156131a157600080fd5b84356001600160401b03808211156131b857600080fd5b6131c488838901612fb6565b909650945060208701359150808211156131dd57600080fd5b50612efd87828801612fb6565b6001600160a01b0391909116815260200190565b634e487b7160e01b600052602160045260246000fd5b6001600160e01b0319813581811691600485101561323c5780818660040360031b1b83161692505b505092915050565b634e487b7160e01b600052603260045260246000fd5b634e487b7160e01b600052601160045260246000fd5b808201808211156102f4576102f461325a565b6000808335601e1984360301811261329a57600080fd5b8301803591506001600160401b038211156132b457600080fd5b602001915036819003821315610a3557600080fd5b60208152816020820152818360408301376000818301604090810191909152601f909201601f19160101919050565b60006020828403121561330a57600080fd5b81516001600160401b0381111561332057600080fd5b8201601f8101841361333157600080fd5b805161333f612d6d82612d27565b81815285602083850101111561335457600080fd5b61038e826020830160208601612c7e565b80516020808301519190811015613386576000198160200360031b1b821691505b50919050565b60018060a01b038416815282602082015260606040820152600061038e6060830184612ca2565b6000600182016133c5576133c561325a565b5060010190565b600080858511156133dc57600080fd5b838611156133e957600080fd5b5050820193919092039150565b6000806040838503121561340957600080fd5b82356001600160401b038082111561342057600080fd5b818501915085601f83011261343457600080fd5b81356020613444612d6d83612f09565b82815260059290921b8401810191818101908984111561346357600080fd5b948201945b8386101561348157853582529482019490820190613468565b9650508601359250508082111561349757600080fd5b50612de085828601612f2c565b600080600080608085870312156134ba57600080fd5b8435935060208501356134cc81612e7c565b92506040850135915060608501356001600160401b038111156134ee57600080fd5b6134fa87828801612d4e565b91505092959194509250565b8183823760009101908152919050565b878152866020820152856040820152846060820152836080820152818360a08301376000910160a0019081529695505050505050565b6001600160a01b038316815260406020820181905260009061053f90830184612ca2565b601960f81b8152606083901b6001600160601b031916600282015281516000906135a1816016850160208701612c7e565b919091016016019392505050565b82815260406020820152600061053f6040830184612ca2565b805160208201516001600160601b031980821692919060148310156135f75780818460140360031b1b83161693505b505050919050565b6001600160f81b031992831681529116600182015260020190565b805160208201516001600160f01b031980821692919060028310156135f75760029290920360031b82901b161692915050565b6040815260006136606040830184612ca2565b8281036020840152601c81527f636f756c646e2774204445434f44452066726f6d2073746f726167650000000060208201526040810191505092915050565b818103818111156102f4576102f461325a565b80820281158282048414176102f4576102f461325a565b805160208201516001600160801b031980821692919060108310156135f75760109290920360031b82901b161692915050565b60408152600061370f6040830184612ca2565b8281036020840152602081527f636f756c646e27742056414c49444154452074686520646174612076616c756560208201526040810191505092915050565b805160208201516001600160e01b031980821692919060048310156135f75760049290920360031b82901b16169291505056fec0a62328f6bf5e3172bb1fcb2019f54b2c523b6a48e3513a2298fbf0150b781ea264697066735822122022a34f727befd40e18c7212230fb470082635c5f3f8c1bca1ad0cb557b1b40c664736f6c63430008130033",
  "linkReferences": {},
  "deployedLinkReferences": {}
}