{
  "_format": "hh-sol-artifact-1",
  "contractName": "Points",
  "sourceName": "contracts/libraries/Points.sol",
  "abi": [
    {
      "inputs": [],
      "name": "BASIS",
      "outputs": [
        {
          "internalType": "uint32",
          "name": "",
          "type": "uint32"
        }
      ],
      "stateMutability": "view",
      "type": "function"
    },
    {
      "inputs": [
        {
          "internalType": "uint32",
          "name": "points",
          "type": "uint32"
        }
      ],
      "name": "isValid",
      "outputs": [
        {
          "internalType": "bool",
          "name": "",
          "type": "bool"
        }
      ],
      "stateMutability": "pure",
      "type": "function"
    },
    {
      "inputs": [
        {
          "internalType": "uint32",
          "name": "one",
          "type": "uint32"
        },
        {
          "internalType": "uint32",
          "name": "other",
          "type": "uint32"
        }
      ],
      "name": "multiply",
      "outputs": [
        {
          "internalType": "uint32",
          "name": "",
          "type": "uint32"
        }
      ],
      "stateMutability": "pure",
      "type": "function"
    },
    {
      "inputs": [
        {
          "internalType": "uint256",
          "name": "value",
          "type": "uint256"
        },
        {
          "internalType": "uint32",
          "name": "points",
          "type": "uint32"
        }
      ],
      "name": "realize",
      "outputs": [
        {
          "internalType": "uint256",
          "name": "",
          "type": "uint256"
        }
      ],
      "stateMutability": "pure",
      "type": "function"
    }
  ],
  "bytecode": "0x61028861003a600b82828239805160001a60731461002d57634e487b7160e01b600052600060045260246000fd5b30600052607381538281f3fe73000000000000000000000000000000000000000030146080604052600436106100565760003560e01c80631817cb8e1461005b5780633c7bdc1914610081578063528cfa98146100b1578063b0b852cd146100d0575b600080fd5b61006e61006936600461013f565b6100e3565b6040519081526020015b60405180910390f35b6100a161008f36600461016b565b620186a063ffffffff91909116111590565b6040519015158152602001610078565b6100bb620186a081565b60405163ffffffff9091168152602001610078565b6100bb6100de366004610186565b61010c565b6000620186a06100f963ffffffff8416856101c6565b61010391906101f3565b90505b92915050565b6000620186a061011c8385610207565b610103919061022f565b803563ffffffff8116811461013a57600080fd5b919050565b6000806040838503121561015257600080fd5b8235915061016260208401610126565b90509250929050565b60006020828403121561017d57600080fd5b61010382610126565b6000806040838503121561019957600080fd5b6101a283610126565b915061016260208401610126565b634e487b7160e01b600052601160045260246000fd5b8082028115828204841417610106576101066101b0565b634e487b7160e01b600052601260045260246000fd5b600082610202576102026101dd565b500490565b63ffffffff818116838216028082169190828114610227576102276101b0565b505092915050565b600063ffffffff80841680610246576102466101dd565b9216919091049291505056fea2646970667358221220f046f38ee4bb4b4dea3a6e9cd99cd15b43443d6e3120b849040322eff6228e3564736f6c63430008140033",
  "linkReferences": {},
  "deployedLinkReferences": {}
}