{
  "_format": "hh-sol-artifact-1",
  "contractName": "UncappedFamilyAsset",
  "sourceName": "contracts/UncappedFamilyAsset.sol",
  "abi": [
    {
      "inputs": [
        {
          "internalType": "string",
          "name": "name_",
          "type": "string"
        },
        {
          "internalType": "string",
          "name": "symbol_",
          "type": "string"
        },
        {
          "internalType": "address",
          "name": "newOwner_",
          "type": "address"
        },
        {
          "internalType": "address",
          "name": "placeholderCollection",
          "type": "address"
        }
      ],
      "stateMutability": "nonpayable",
      "type": "constructor"
    },
    {
      "inputs": [],
      "name": "AssetAlreadyRegistered",
      "type": "error"
    },
    {
      "inputs": [],
      "name": "AssetIdCannotBeZero",
      "type": "error"
    },
    {
      "inputs": [],
      "name": "ERC725Y_DataKeysValuesEmptyArray",
      "type": "error"
    },
    {
      "inputs": [],
      "name": "ERC725Y_DataKeysValuesLengthMismatch",
      "type": "error"
    },
    {
      "inputs": [],
      "name": "ERC725Y_MsgValueDisallowed",
      "type": "error"
    },
    {
      "inputs": [
        {
          "internalType": "bytes",
          "name": "storedData",
          "type": "bytes"
        }
      ],
      "name": "InvalidExtensionAddress",
      "type": "error"
    },
    {
      "inputs": [
        {
          "internalType": "bytes",
          "name": "data",
          "type": "bytes"
        }
      ],
      "name": "InvalidFunctionSelector",
      "type": "error"
    },
    {
      "inputs": [],
      "name": "LSP4TokenNameNotEditable",
      "type": "error"
    },
    {
      "inputs": [],
      "name": "LSP4TokenSymbolNotEditable",
      "type": "error"
    },
    {
      "inputs": [],
      "name": "LSP8CannotSendToAddressZero",
      "type": "error"
    },
    {
      "inputs": [],
      "name": "LSP8CannotSendToSelf",
      "type": "error"
    },
    {
      "inputs": [],
      "name": "LSP8CannotUseAddressZeroAsOperator",
      "type": "error"
    },
    {
      "inputs": [],
      "name": "LSP8InvalidTransferBatch",
      "type": "error"
    },
    {
      "inputs": [
        {
          "internalType": "bytes32",
          "name": "tokenId",
          "type": "bytes32"
        }
      ],
      "name": "LSP8NonExistentTokenId",
      "type": "error"
    },
    {
      "inputs": [
        {
          "internalType": "address",
          "name": "operator",
          "type": "address"
        },
        {
          "internalType": "bytes32",
          "name": "tokenId",
          "type": "bytes32"
        }
      ],
      "name": "LSP8NonExistingOperator",
      "type": "error"
    },
    {
      "inputs": [
        {
          "internalType": "bytes32",
          "name": "tokenId",
          "type": "bytes32"
        },
        {
          "internalType": "address",
          "name": "caller",
          "type": "address"
        }
      ],
      "name": "LSP8NotTokenOperator",
      "type": "error"
    },
    {
      "inputs": [
        {
          "internalType": "address",
          "name": "tokenOwner",
          "type": "address"
        },
        {
          "internalType": "bytes32",
          "name": "tokenId",
          "type": "bytes32"
        },
        {
          "internalType": "address",
          "name": "caller",
          "type": "address"
        }
      ],
      "name": "LSP8NotTokenOwner",
      "type": "error"
    },
    {
      "inputs": [
        {
          "internalType": "address",
          "name": "tokenReceiver",
          "type": "address"
        }
      ],
      "name": "LSP8NotifyTokenReceiverContractMissingLSP1Interface",
      "type": "error"
    },
    {
      "inputs": [
        {
          "internalType": "address",
          "name": "tokenReceiver",
          "type": "address"
        }
      ],
      "name": "LSP8NotifyTokenReceiverIsEOA",
      "type": "error"
    },
    {
      "inputs": [
        {
          "internalType": "address",
          "name": "operator",
          "type": "address"
        },
        {
          "internalType": "bytes32",
          "name": "tokenId",
          "type": "bytes32"
        }
      ],
      "name": "LSP8OperatorAlreadyAuthorized",
      "type": "error"
    },
    {
      "inputs": [],
      "name": "LSP8TokenContractCannotHoldValue",
      "type": "error"
    },
    {
      "inputs": [
        {
          "internalType": "bytes32",
          "name": "tokenId",
          "type": "bytes32"
        }
      ],
      "name": "LSP8TokenIdAlreadyMinted",
      "type": "error"
    },
    {
      "inputs": [],
      "name": "LSP8TokenIdTypeNotEditable",
      "type": "error"
    },
    {
      "inputs": [],
      "name": "LSP8TokenOwnerCannotBeOperator",
      "type": "error"
    },
    {
      "inputs": [
        {
          "internalType": "bytes4",
          "name": "functionSelector",
          "type": "bytes4"
        }
      ],
      "name": "NoExtensionFoundForFunctionSelector",
      "type": "error"
    },
    {
      "inputs": [],
      "name": "OnlyPlaceholderCanMint",
      "type": "error"
    },
    {
      "inputs": [],
      "name": "VariantAlreadyRegistered",
      "type": "error"
    },
    {
      "inputs": [],
      "name": "VariantIdCannotBeZero",
      "type": "error"
    },
    {
      "inputs": [],
      "name": "VariantNotRegistered",
      "type": "error"
    },
    {
      "anonymous": false,
      "inputs": [
        {
          "indexed": true,
          "internalType": "bytes12",
          "name": "variantId",
          "type": "bytes12"
        },
        {
          "indexed": true,
          "internalType": "bytes12",
          "name": "assetId",
          "type": "bytes12"
        },
        {
          "indexed": true,
          "internalType": "bytes32",
          "name": "tokenId",
          "type": "bytes32"
        }
      ],
      "name": "AssetMinted",
      "type": "event"
    },
    {
      "anonymous": false,
      "inputs": [
        {
          "indexed": true,
          "internalType": "address",
          "name": "operator",
          "type": "address"
        },
        {
          "indexed": true,
          "internalType": "address",
          "name": "tokenOwner",
          "type": "address"
        },
        {
          "indexed": true,
          "internalType": "bytes32",
          "name": "tokenId",
          "type": "bytes32"
        },
        {
          "indexed": false,
          "internalType": "bytes",
          "name": "operatorNotificationData",
          "type": "bytes"
        }
      ],
      "name": "AuthorizedOperator",
      "type": "event"
    },
    {
      "anonymous": false,
      "inputs": [
        {
          "indexed": true,
          "internalType": "bytes32",
          "name": "dataKey",
          "type": "bytes32"
        },
        {
          "indexed": false,
          "internalType": "bytes",
          "name": "dataValue",
          "type": "bytes"
        }
      ],
      "name": "DataChanged",
      "type": "event"
    },
    {
      "anonymous": false,
      "inputs": [
        {
          "indexed": true,
          "internalType": "address",
          "name": "previousOwner",
          "type": "address"
        },
        {
          "indexed": true,
          "internalType": "address",
          "name": "newOwner",
          "type": "address"
        }
      ],
      "name": "OwnershipTransferred",
      "type": "event"
    },
    {
      "anonymous": false,
      "inputs": [
        {
          "indexed": false,
          "internalType": "address",
          "name": "",
          "type": "address"
        },
        {
          "indexed": false,
          "internalType": "uint256",
          "name": "",
          "type": "uint256"
        }
      ],
      "name": "Received",
      "type": "event"
    },
    {
      "anonymous": false,
      "inputs": [
        {
          "indexed": true,
          "internalType": "address",
          "name": "operator",
          "type": "address"
        },
        {
          "indexed": true,
          "internalType": "address",
          "name": "tokenOwner",
          "type": "address"
        },
        {
          "indexed": true,
          "internalType": "bytes32",
          "name": "tokenId",
          "type": "bytes32"
        },
        {
          "indexed": false,
          "internalType": "bool",
          "name": "notified",
          "type": "bool"
        },
        {
          "indexed": false,
          "internalType": "bytes",
          "name": "operatorNotificationData",
          "type": "bytes"
        }
      ],
      "name": "RevokedOperator",
      "type": "event"
    },
    {
      "anonymous": false,
      "inputs": [
        {
          "indexed": false,
          "internalType": "address",
          "name": "operator",
          "type": "address"
        },
        {
          "indexed": true,
          "internalType": "address",
          "name": "from",
          "type": "address"
        },
        {
          "indexed": true,
          "internalType": "address",
          "name": "to",
          "type": "address"
        },
        {
          "indexed": true,
          "internalType": "bytes32",
          "name": "tokenId",
          "type": "bytes32"
        },
        {
          "indexed": false,
          "internalType": "bool",
          "name": "force",
          "type": "bool"
        },
        {
          "indexed": false,
          "internalType": "bytes",
          "name": "data",
          "type": "bytes"
        }
      ],
      "name": "Transfer",
      "type": "event"
    },
    {
      "anonymous": false,
      "inputs": [
        {
          "indexed": false,
          "internalType": "bytes12",
          "name": "variantId",
          "type": "bytes12"
        }
      ],
      "name": "VariantRegistered",
      "type": "event"
    },
    {
      "anonymous": false,
      "inputs": [
        {
          "indexed": false,
          "internalType": "bytes12",
          "name": "variantId",
          "type": "bytes12"
        }
      ],
      "name": "VariantUnregistered",
      "type": "event"
    },
    {
      "stateMutability": "payable",
      "type": "fallback"
    },
    {
      "inputs": [
        {
          "internalType": "address",
          "name": "operator",
          "type": "address"
        },
        {
          "internalType": "bytes32",
          "name": "tokenId",
          "type": "bytes32"
        },
        {
          "internalType": "bytes",
          "name": "operatorNotificationData",
          "type": "bytes"
        }
      ],
      "name": "authorizeOperator",
      "outputs": [],
      "stateMutability": "nonpayable",
      "type": "function"
    },
    {
      "inputs": [
        {
          "internalType": "address",
          "name": "tokenOwner",
          "type": "address"
        }
      ],
      "name": "balanceOf",
      "outputs": [
        {
          "internalType": "uint256",
          "name": "",
          "type": "uint256"
        }
      ],
      "stateMutability": "view",
      "type": "function"
    },
    {
      "inputs": [
        {
          "internalType": "bytes12",
          "name": "variantId",
          "type": "bytes12"
        }
      ],
      "name": "checkVariant",
      "outputs": [
        {
          "internalType": "bool",
          "name": "",
          "type": "bool"
        }
      ],
      "stateMutability": "view",
      "type": "function"
    },
    {
      "inputs": [
        {
          "internalType": "bytes12",
          "name": "variantId",
          "type": "bytes12"
        },
        {
          "internalType": "bytes12",
          "name": "assetId",
          "type": "bytes12"
        }
      ],
      "name": "getAssetTokenId",
      "outputs": [
        {
          "internalType": "bytes32",
          "name": "",
          "type": "bytes32"
        }
      ],
      "stateMutability": "view",
      "type": "function"
    },
    {
      "inputs": [
        {
          "internalType": "bytes32",
          "name": "dataKey",
          "type": "bytes32"
        }
      ],
      "name": "getData",
      "outputs": [
        {
          "internalType": "bytes",
          "name": "dataValue",
          "type": "bytes"
        }
      ],
      "stateMutability": "view",
      "type": "function"
    },
    {
      "inputs": [
        {
          "internalType": "bytes32[]",
          "name": "dataKeys",
          "type": "bytes32[]"
        }
      ],
      "name": "getDataBatch",
      "outputs": [
        {
          "internalType": "bytes[]",
          "name": "dataValues",
          "type": "bytes[]"
        }
      ],
      "stateMutability": "view",
      "type": "function"
    },
    {
      "inputs": [
        {
          "internalType": "bytes32",
          "name": "tokenId",
          "type": "bytes32"
        }
      ],
      "name": "getOperatorsOf",
      "outputs": [
        {
          "internalType": "address[]",
          "name": "",
          "type": "address[]"
        }
      ],
      "stateMutability": "view",
      "type": "function"
    },
    {
      "inputs": [
        {
          "internalType": "address",
          "name": "operator",
          "type": "address"
        },
        {
          "internalType": "bytes32",
          "name": "tokenId",
          "type": "bytes32"
        }
      ],
      "name": "isOperatorFor",
      "outputs": [
        {
          "internalType": "bool",
          "name": "",
          "type": "bool"
        }
      ],
      "stateMutability": "view",
      "type": "function"
    },
    {
      "inputs": [
        {
          "internalType": "address",
          "name": "to",
          "type": "address"
        },
        {
          "internalType": "bytes12",
          "name": "assetId",
          "type": "bytes12"
        },
        {
          "internalType": "bytes12",
          "name": "variantId",
          "type": "bytes12"
        },
        {
          "internalType": "bool",
          "name": "allowNonLSP1Recipient",
          "type": "bool"
        },
        {
          "internalType": "bytes",
          "name": "data",
          "type": "bytes"
        }
      ],
      "name": "mint",
      "outputs": [],
      "stateMutability": "nonpayable",
      "type": "function"
    },
    {
      "inputs": [],
      "name": "owner",
      "outputs": [
        {
          "internalType": "address",
          "name": "",
          "type": "address"
        }
      ],
      "stateMutability": "view",
      "type": "function"
    },
    {
      "inputs": [],
      "name": "placeholder",
      "outputs": [
        {
          "internalType": "address",
          "name": "",
          "type": "address"
        }
      ],
      "stateMutability": "view",
      "type": "function"
    },
    {
      "inputs": [
        {
          "internalType": "bytes12",
          "name": "variantId",
          "type": "bytes12"
        },
        {
          "internalType": "bytes",
          "name": "metadataUrl",
          "type": "bytes"
        }
      ],
      "name": "registerVariant",
      "outputs": [],
      "stateMutability": "nonpayable",
      "type": "function"
    },
    {
      "inputs": [],
      "name": "renounceOwnership",
      "outputs": [],
      "stateMutability": "nonpayable",
      "type": "function"
    },
    {
      "inputs": [
        {
          "internalType": "address",
          "name": "operator",
          "type": "address"
        },
        {
          "internalType": "bytes32",
          "name": "tokenId",
          "type": "bytes32"
        },
        {
          "internalType": "bool",
          "name": "notify",
          "type": "bool"
        },
        {
          "internalType": "bytes",
          "name": "operatorNotificationData",
          "type": "bytes"
        }
      ],
      "name": "revokeOperator",
      "outputs": [],
      "stateMutability": "nonpayable",
      "type": "function"
    },
    {
      "inputs": [
        {
          "internalType": "bytes32",
          "name": "dataKey",
          "type": "bytes32"
        },
        {
          "internalType": "bytes",
          "name": "dataValue",
          "type": "bytes"
        }
      ],
      "name": "setData",
      "outputs": [],
      "stateMutability": "payable",
      "type": "function"
    },
    {
      "inputs": [
        {
          "internalType": "bytes32[]",
          "name": "dataKeys",
          "type": "bytes32[]"
        },
        {
          "internalType": "bytes[]",
          "name": "dataValues",
          "type": "bytes[]"
        }
      ],
      "name": "setDataBatch",
      "outputs": [],
      "stateMutability": "payable",
      "type": "function"
    },
    {
      "inputs": [
        {
          "internalType": "bytes4",
          "name": "_interfaceId",
          "type": "bytes4"
        }
      ],
      "name": "supportsInterface",
      "outputs": [
        {
          "internalType": "bool",
          "name": "",
          "type": "bool"
        }
      ],
      "stateMutability": "view",
      "type": "function"
    },
    {
      "inputs": [
        {
          "internalType": "uint256",
          "name": "index",
          "type": "uint256"
        }
      ],
      "name": "tokenAt",
      "outputs": [
        {
          "internalType": "bytes32",
          "name": "",
          "type": "bytes32"
        }
      ],
      "stateMutability": "view",
      "type": "function"
    },
    {
      "inputs": [
        {
          "internalType": "address",
          "name": "tokenOwner",
          "type": "address"
        }
      ],
      "name": "tokenIdsOf",
      "outputs": [
        {
          "internalType": "bytes32[]",
          "name": "",
          "type": "bytes32[]"
        }
      ],
      "stateMutability": "view",
      "type": "function"
    },
    {
      "inputs": [
        {
          "internalType": "bytes32",
          "name": "tokenId",
          "type": "bytes32"
        }
      ],
      "name": "tokenOwnerOf",
      "outputs": [
        {
          "internalType": "address",
          "name": "",
          "type": "address"
        }
      ],
      "stateMutability": "view",
      "type": "function"
    },
    {
      "inputs": [],
      "name": "totalSupply",
      "outputs": [
        {
          "internalType": "uint256",
          "name": "",
          "type": "uint256"
        }
      ],
      "stateMutability": "view",
      "type": "function"
    },
    {
      "inputs": [
        {
          "internalType": "address",
          "name": "from",
          "type": "address"
        },
        {
          "internalType": "address",
          "name": "to",
          "type": "address"
        },
        {
          "internalType": "bytes32",
          "name": "tokenId",
          "type": "bytes32"
        },
        {
          "internalType": "bool",
          "name": "force",
          "type": "bool"
        },
        {
          "internalType": "bytes",
          "name": "data",
          "type": "bytes"
        }
      ],
      "name": "transfer",
      "outputs": [],
      "stateMutability": "nonpayable",
      "type": "function"
    },
    {
      "inputs": [
        {
          "internalType": "address[]",
          "name": "from",
          "type": "address[]"
        },
        {
          "internalType": "address[]",
          "name": "to",
          "type": "address[]"
        },
        {
          "internalType": "bytes32[]",
          "name": "tokenId",
          "type": "bytes32[]"
        },
        {
          "internalType": "bool[]",
          "name": "force",
          "type": "bool[]"
        },
        {
          "internalType": "bytes[]",
          "name": "data",
          "type": "bytes[]"
        }
      ],
      "name": "transferBatch",
      "outputs": [],
      "stateMutability": "nonpayable",
      "type": "function"
    },
    {
      "inputs": [
        {
          "internalType": "address",
          "name": "newOwner",
          "type": "address"
        }
      ],
      "name": "transferOwnership",
      "outputs": [],
      "stateMutability": "nonpayable",
      "type": "function"
    },
    {
      "inputs": [
        {
          "internalType": "bytes12",
          "name": "variantId",
          "type": "bytes12"
        }
      ],
      "name": "unregisterVariant",
      "outputs": [],
      "stateMutability": "nonpayable",
      "type": "function"
    },
    {
      "stateMutability": "payable",
      "type": "receive"
    }
  ],
  "bytecode": "0x60806040523480156200001157600080fd5b50604051620036c0380380620036c0833981016040819052620000349162000562565b8383836003838383806001600160a01b038116620000a85760405162461bcd60e51b815260206004820152602660248201527f4f776e61626c653a206e6577206f776e657220697320746865207a65726f206160448201526564647265737360d01b60648201526084015b60405180910390fd5b620000b381620001cf565b506040805180820190915260048152632936598960e21b6020820152620000fc907feafec4d89fa9619884b60000a4d96624a38f7ac2d8d9a604ecf07c12c77e480c9062000236565b620001287fdeba1e292f8ba88238e10ab3c7f88bd4be4fac56cad5194b6ecceaf653468af18462000236565b620001547f2f0a68ab07768e01943a599e73362a0e17a63a72e94dd2e384d2c1d4db9327568362000236565b50506040805160208101849052620001a092507f715f248956de7ce65e94d9d836bfead479f7e70d69b718d47bfe7b00e05b4fe4910160408051601f198184030181529190526200027e565b5050600980546001600160a01b0319166001600160a01b03949094169390931790925550620007a99350505050565b6000546001600160a01b038281169116146200023357600080546001600160a01b038381166001600160a01b0319831681178455604051919092169283917f8be0079c531659141344cd1fd0a4f28419497f9722a3daafe3b4186f6b6457e09190a3505b50565b600082815260016020526040902062000250828262000680565b5081600080516020620036a0833981519152826040516200027291906200074c565b60405180910390a25050565b7f2145e1d6d074577dc71ef54c3807742b41b053a9352ae6b491331509acb9750f8201620002bf576040516385c169bd60e01b815260040160405180910390fd5b7fd0f59754f88971fe6bc5a6618cc9d5f1e859c58d16b22d1c7b2d3e2b246cd8aa82016200030057604051630eceab6760e31b815260040160405180910390fd5b60008281526001602052604090206200031a828262000680565b5081600080516020620036a0833981519152610100835111156200034e57620003488360006101006200035f565b62000350565b825b6040516200027291906200074c565b6060816200036f81601f62000781565b1015620003b05760405162461bcd60e51b815260206004820152600e60248201526d736c6963655f6f766572666c6f7760901b60448201526064016200009f565b620003bc828462000781565b84511015620004025760405162461bcd60e51b8152602060048201526011602482015270736c6963655f6f75744f66426f756e647360781b60448201526064016200009f565b6060821580156200042357604051915060008252602082016040526200046f565b6040519150601f8416801560200281840101858101878315602002848b0101015b818310156200045e57805183526020928301920162000444565b5050858452601f01601f1916604052505b50949350505050565b634e487b7160e01b600052604160045260246000fd5b60005b83811015620004ab57818101518382015260200162000491565b50506000910152565b600082601f830112620004c657600080fd5b81516001600160401b0380821115620004e357620004e362000478565b604051601f8301601f19908116603f011681019082821181831017156200050e576200050e62000478565b816040528381528660208588010111156200052857600080fd5b6200053b8460208301602089016200048e565b9695505050505050565b80516001600160a01b03811681146200055d57600080fd5b919050565b600080600080608085870312156200057957600080fd5b84516001600160401b03808211156200059157600080fd5b6200059f88838901620004b4565b95506020870151915080821115620005b657600080fd5b50620005c587828801620004b4565b935050620005d66040860162000545565b9150620005e66060860162000545565b905092959194509250565b600181811c908216806200060657607f821691505b6020821081036200062757634e487b7160e01b600052602260045260246000fd5b50919050565b601f8211156200067b57600081815260208120601f850160051c81016020861015620006565750805b601f850160051c820191505b81811015620006775782815560010162000662565b5050505b505050565b81516001600160401b038111156200069c576200069c62000478565b620006b481620006ad8454620005f1565b846200062d565b602080601f831160018114620006ec5760008415620006d35750858301515b600019600386901b1c1916600185901b17855562000677565b600085815260208120601f198616915b828110156200071d57888601518255948401946001909101908401620006fc565b50858210156200073c5787850151600019600388901b60f8161c191681555b5050505050600190811b01905550565b60208152600082518060208401526200076d8160408501602087016200048e565b601f01601f19169190910160400192915050565b80820180821115620007a357634e487b7160e01b600052601160045260246000fd5b92915050565b612ee780620007b96000396000f3fe60806040526004361061015a5760003560e01c80637e87632c116100c15780639e75143c1161007a5780639e75143c14610459578063a3b261f214610479578063cd4977c8146104a6578063db8c9663146104c6578063dedff9c6146104e6578063f18776a014610513578063f2fde38b14610533576101b5565b80637e87632c146103a85780637f23690c146103c857806386a10ddd146103db5780638da5cb5b146103fb57806392a91a3a146104195780639790242114610446576101b5565b8063511b695211610113578063511b6952146102e657806354f6127f14610306578063674986ff146103335780636cb1c9491461035357806370a0823114610373578063715018a614610393576101b5565b806301ffc9a7146101f657806318160ddd1461022b578063217b22701461024a5780632a3654a4146102775780632b7c023c1461029757806349a6078d146102b9576101b5565b366101b5573460000361019c5760405163e5099ee360e01b81526004016101939060208082526004908201526000604082015260600190565b60405180910390fd5b6040516330fa4a2160e11b815260040160405180910390fd5b600036606060048210156101e057828260405163e5099ee360e01b81526004016101939291906121a1565b6101ea8383610553565b80519350602001915050f35b34801561020257600080fd5b506102166102113660046121d0565b610649565b60405190151581526020015b60405180910390f35b34801561023757600080fd5b506002545b604051908152602001610222565b34801561025657600080fd5b5061026a6102653660046121fa565b61066e565b6040516102229190612213565b34801561028357600080fd5b50610216610292366004612243565b6106a7565b3480156102a357600080fd5b506102b76102b2366004612358565b6106c3565b005b3480156102c557600080fd5b506102d96102d43660046121fa565b61095a565b60405161022291906123d7565b3480156102f257600080fd5b506102b7610301366004612424565b61097c565b34801561031257600080fd5b506103266103213660046121fa565b6109c0565b60405161022291906124b8565b34801561033f57600080fd5b5061021661034e3660046124cb565b6109cb565b34801561035f57600080fd5b506102b761036e3660046124cb565b610a55565b34801561037f57600080fd5b5061023c61038e3660046124e6565b610b4b565b34801561039f57600080fd5b506102b7610b6c565b3480156103b457600080fd5b506102b76103c33660046126cd565b610b80565b6102b76103d6366004612791565b610c6f565b3480156103e757600080fd5b506102b76103f63660046127d7565b610ca4565b34801561040757600080fd5b506000546001600160a01b031661026a565b34801561042557600080fd5b5061023c6104343660046121fa565b60009081526007602052604090205490565b6102b761045436600461282d565b610e36565b34801561046557600080fd5b5060095461026a906001600160a01b031681565b34801561048557600080fd5b506104996104943660046124e6565b610ef6565b6040516102229190612886565b3480156104b257600080fd5b506102b76104c13660046128be565b610f1a565b3480156104d257600080fd5b506102b76104e13660046128f5565b611044565b3480156104f257600080fd5b5061050661050136600461295c565b611106565b6040516102229190612990565b34801561051f57600080fd5b5061023c61052e3660046129f2565b6111b0565b34801561053f57600080fd5b506102b761054e3660046124e6565b61123e565b6060600061056c6000356001600160e01b0319166112b7565b5090506001600160a01b0381166105a4576000356001600160e01b03191660405163bb370b2b60e01b81526004016101939190612a25565b600080826001600160a01b031634878733346040516020016105c99493929190612a3a565b60408051601f19818403018152908290526105e391612a65565b60006040518083038185875af1925050503d8060008114610620576040519150601f19603f3d011682016040523d82523d6000602084013e610625565b606091505b5091509150811561063a579250610643915050565b80518060208301fd5b92915050565b60006001600160e01b03198216630e25267160e11b1480610643575061064382611335565b6000818152600360205260408120546001600160a01b03168061064357604051635747cd1b60e11b815260048101849052602401610193565b60006106b282611369565b6106bc8383611392565b9392505050565b6009546001600160a01b031633146106ee57604051634281885f60e11b815260040160405180910390fd5b6001600160a01b031984166107165760405163baceb31160e01b815260040160405180910390fd5b6040805160608101918290526316b96e9360e31b9091526000908073__$032f01bb2624c0993c8bfa756ae89be841$__63b5cb74986107583060648501612213565b602060405180830381865af4158015610775573d6000803e3d6000fd5b505050506040513d601f19601f820116820180604052508101906107999190612a81565b6001600160d01b03191681526001600160a01b03198087166020830152871660409182015251630849ed4d60e11b815290915060009073__$032f01bb2624c0993c8bfa756ae89be841$__90631093da9a906107f9908590600401612aab565b602060405180830381865af4158015610816573d6000803e3d6000fd5b505050506040513d601f19601f8201168201806040525081019061083a9190612ae6565b9050610847600a826113ec565b6108645760405163b103414760e01b815260040160405180910390fd5b6040516320e5304f60e01b815260009073__$032f01bb2624c0993c8bfa756ae89be841$__906320e5304f9061089e908690600401612aab565b602060405180830381865af41580156108bb573d6000803e3d6000fd5b505050506040513d601f19601f820116820180604052508101906108df9190612ae6565b90506108ea81611404565b156109085760405163136d457160e21b815260040160405180910390fd5b61091488828787611421565b60405181906001600160a01b0319808a1691908916907f8846f9de517619441451dee05d1a37b152ac31ba0b8b22c0635005860b90c40090600090a45050505050505050565b606061096582611369565b600082815260056020526040902061064390611553565b6109863384611392565b6109ac57604051631294d2a960e01b815260048101849052336024820152604401610193565b6109b98585858585611560565b5050505050565b60606106438261173d565b60008073__$032f01bb2624c0993c8bfa756ae89be841$__63c27407d030856040518363ffffffff1660e01b8152600401610a07929190612aff565b602060405180830381865af4158015610a24573d6000803e3d6000fd5b505050506040513d601f19601f82011682018060405250810190610a489190612ae6565b90506106bc600a826113ec565b610a5d6117df565b604051630c27407d60e41b815260009073__$032f01bb2624c0993c8bfa756ae89be841$__9063c27407d090610a999030908690600401612aff565b602060405180830381865af4158015610ab6573d6000803e3d6000fd5b505050506040513d601f19601f82011682018060405250810190610ada9190612ae6565b9050610ae7600a826113ec565b610b045760405163b103414760e01b815260040160405180910390fd5b610b0f600a82611848565b507fee0b0acde00de9a1c6e66517c637f4a59a543dff15739ad2200659454001896f82604051610b3f9190612b22565b60405180910390a15050565b6001600160a01b038116600090815260046020526040812061064390611854565b610b746117df565b610b7e600061185e565b565b8451845181141580610b93575083518114155b80610b9f575082518114155b80610bab575081518114155b15610bc9576040516393a8311960e01b815260040160405180910390fd5b60005b81811015610c6657610c5e878281518110610be957610be9612b37565b6020026020010151878381518110610c0357610c03612b37565b6020026020010151878481518110610c1d57610c1d612b37565b6020026020010151878581518110610c3757610c37612b37565b6020026020010151878681518110610c5157610c51612b37565b602002602001015161097c565b600101610bcc565b50505050505050565b610c776117df565b3415610c965760405163f36ba73760e01b815260040160405180910390fd5b610ca082826118c3565b5050565b6000610caf8361066e565b90506001600160a01b0381163314610ce057808333604051632d938f5160e11b815260040161019393929190612b4d565b6001600160a01b038416610d0757604051639577b8b360e01b815260040160405180910390fd5b836001600160a01b0316816001600160a01b031603610d39576040516344fed6b160e11b815260040160405180910390fd5b6000838152600560205260408120610d51908661190d565b905080610d83576040516314ec4d6d60e31b81526001600160a01b038616600482015260248101859052604401610193565b83826001600160a01b0316866001600160a01b03167e52e433f2d4225671bc164dd1cdc9a76044356091f27ad234798bd0cbf0834986604051610dc691906124b8565b60405180910390a460003385600186604051602001610de89493929190612b70565b60408051601f198184030181529190529050610e2e6001600160a01b0387167f8a1c15a8799f71b547e08e2bcb2e85257e81b0a07eee2ce6712549eef1f0097083611922565b505050505050565b610e3e6117df565b3415610e5d5760405163f36ba73760e01b815260040160405180910390fd5b8051825114610e7f57604051633bcc897960e01b815260040160405180910390fd5b8151600003610ea1576040516397da5f9560e01b815260040160405180910390fd5b60005b8251811015610ef157610ee9838281518110610ec257610ec2612b37565b6020026020010151838381518110610edc57610edc612b37565b60200260200101516118c3565b600101610ea4565b505050565b6001600160a01b038116600090815260046020526040902060609061064390611553565b610f226117df565b604051630c27407d60e41b815260009073__$032f01bb2624c0993c8bfa756ae89be841$__9063c27407d090610f5e9030908790600401612aff565b602060405180830381865af4158015610f7b573d6000803e3d6000fd5b505050506040513d601f19601f82011682018060405250810190610f9f9190612ae6565b90506001600160a01b03198316610fc957604051633f0bb8a360e01b815260040160405180910390fd5b610fd4600a826113ec565b15610ff2576040516376996b1f60e01b815260040160405180910390fd5b610ffd600a826119bc565b5061100881836118c3565b7fcd698deeac260311b9d0b77d8c223846316aec4961b01b0cdc1f26e666cd2503836040516110379190612b22565b60405180910390a1505050565b600061104f8461066e565b90506001600160a01b038116331461108057808433604051632d938f5160e11b815260040161019393929190612b4d565b6001600160a01b0385166110a757604051639577b8b360e01b815260040160405180910390fd5b846001600160a01b0316816001600160a01b0316036110d9576040516344fed6b160e11b815260040160405180910390fd5b6110e685828686866119c8565b82156109b95760003385600085604051602001610de89493929190612b70565b606081516001600160401b0381111561112157611121612295565b60405190808252806020026020018201604052801561115457816020015b606081526020019060019003908161113f5790505b50905060005b82518110156111aa5761118583828151811061117857611178612b37565b602002602001015161173d565b82828151811061119757611197612b37565b602090810291909101015260010161115a565b50919050565b6040516332e33fa360e11b81523060048201526001600160a01b031980841660248301528216604482015260009073__$032f01bb2624c0993c8bfa756ae89be841$__906365c67f4690606401602060405180830381865af415801561121a573d6000803e3d6000fd5b505050506040513d601f19601f820116820180604052508101906106bc9190612ae6565b6112466117df565b6001600160a01b0381166112ab5760405162461bcd60e51b815260206004820152602660248201527f4f776e61626c653a206e6577206f776e657220697320746865207a65726f206160448201526564647265737360d01b6064820152608401610193565b6112b48161185e565b50565b600080806112dc696773c5a04a6d4300884b60b11b6001600160e01b03198616611a68565b905060006112e98261173d565b905080516014141580156112fd5750805115155b1561131d57806040516342bfe79f60e01b815260040161019391906124b8565b61132681612ba9565b60601c95600195509350505050565b60006001600160e01b0319821663061b8a4f60e31b148061135a575061135a82611abc565b80610643575061064382611ae1565b61137281611404565b6112b457604051635747cd1b60e11b815260048101829052602401610193565b600061139d8261066e565b6001600160a01b0316836001600160a01b031614806106bc575060008281526005602052604090206106bc90846001600160a01b038116600090815260018301602052604081205415156106bc565b600081815260018301602052604081205415156106bc565b6000908152600360205260409020546001600160a01b0316151590565b6001600160a01b038416611448576040516324ecef4d60e01b815260040160405180910390fd5b6114556000858584611b18565b61145e83611404565b1561147f576040516334c7b51160e01b815260048101849052602401610193565b60026000815461148e90612bf6565b909155506001600160a01b03841660009081526004602052604090206114b490846119bc565b5060008381526003602052604080822080546001600160a01b0319166001600160a01b03881690811790915590518592907fb333c813a7426a7a11e2b190cad52c44119421594b47f6f32ace6d8c7207b2bf9061151690339088908890612c0f565b60405180910390a46000808585846040516020016115379493929190612c44565b60405160208183030381529060405290506109b9858483611bdf565b606060006106bc83611c97565b836001600160a01b0316856001600160a01b03160361159257604051635d67d6c160e01b815260040160405180910390fd5b600061159d8461066e565b9050856001600160a01b0316816001600160a01b0316146115d757808487604051632d938f5160e11b815260040161019393929190612b4d565b6001600160a01b0385166115fe576040516324ecef4d60e01b815260040160405180910390fd5b61160a86868685611b18565b6116138461066e565b905061161f8685611cf2565b6001600160a01b03861660009081526004602052604090206116419085611848565b506001600160a01b038516600090815260046020526040902061166490856119bc565b506000848152600360205260409081902080546001600160a01b0319166001600160a01b0388811691821790925591518692918916907fb333c813a7426a7a11e2b190cad52c44119421594b47f6f32ace6d8c7207b2bf906116cb90339089908990612c0f565b60405180910390a46000868686856040516020016116ec9493929190612c44565b60408051601f1981840301815291905290506117326001600160a01b0388167fb23eae7e6d1564b295b4c3e3be402d9a2f0776c57bdf365903496f6fa481ab0083611922565b610c66868583611bdf565b600081815260016020526040902080546060919061175a90612c77565b80601f016020809104026020016040519081016040528092919081815260200182805461178690612c77565b80156117d35780601f106117a8576101008083540402835291602001916117d3565b820191906000526020600020905b8154815290600101906020018083116117b657829003601f168201915b50505050509050919050565b336117f26000546001600160a01b031690565b6001600160a01b031614610b7e5760405162461bcd60e51b815260206004820181905260248201527f4f776e61626c653a2063616c6c6572206973206e6f7420746865206f776e65726044820152606401610193565b60006106bc8383611d4a565b6000610643825490565b6000546001600160a01b038281169116146112b457600080546001600160a01b038381166001600160a01b0319831681178455604051919092169283917f8be0079c531659141344cd1fd0a4f28419497f9722a3daafe3b4186f6b6457e09190a35050565b7f8ea0db76a9218319a16b2627c940152b860818f29648e72b840184ff1fa4b01c8201611903576040516329de089160e11b815260040160405180910390fd5b610ca08282611e3d565b60006106bc836001600160a01b038416611f31565b61193c6001600160a01b038416631aed5a8560e21b611f80565b15610ef157604051631aed5a8560e21b81526001600160a01b03841690636bb56a149061196f9085908590600401612cab565b6000604051808303816000875af115801561198e573d6000803e3d6000fd5b505050506040513d6000823e601f3d908101601f191682016040526119b69190810190612cc4565b50505050565b60006106bc8383611f31565b60008381526005602052604081206119e09087612014565b905080611a12576040516312a8c6a360e21b81526001600160a01b038716600482015260248101859052604401610193565b83856001600160a01b0316876001600160a01b03167f3ee932cea40ebbbfd8577d47156cc17cce8683802c57bbd1fb8c131c6f07af0a8686604051611a58929190612d31565b60405180910390a4505050505050565b604080516001600160b01b0319841660208201526000602a82018190526001600160601b03198416602c83015291829101604051602081830303815290604052905080611ab490612d4c565b949350505050565b60006001600160e01b0319821663a918fa6b60e01b1480610643575061064382612029565b600080611af46301ffc9a760e01b6112b7565b5090506001600160a01b038116611b0e5750600092915050565b6106bc8184611f80565b6001600160a01b038416611b52576000611b3160025490565b60008181526007602090815260408083208790558683526008909152902055505b6001600160a01b038316611bda5760006001611b6d60025490565b611b779190612d70565b60008481526008602052604090205490915081811015611bb9576000828152600760209081526040808320548484528184208190558352600890915290208190555b50600090815260076020908152604080832083905584835260089091528120555b6119b6565b611bf96001600160a01b038416631aed5a8560e21b611f80565b15611c4c57604051631aed5a8560e21b81526001600160a01b03841690636bb56a149061196f907f0b084a55ebf70fd3c06fd755269dac2212c4d3f0f4d09079780bfa50c1b2984d908590600401612cab565b81610ef1576001600160a01b0383163b15611c7c5782604051634349776d60e01b81526004016101939190612213565b82604051630317313760e01b81526004016101939190612213565b6060816000018054806020026020016040519081016040528092919081815260200182805480156117d357602002820191906000526020600020905b815481526020019060010190808311611cd35750505050509050919050565b600081815260056020526040812090611d0a82611854565b90506000805b82811015610e2e57611d2384600061205e565b9150611d428287876000604051806020016040528060008152506119c8565b600101611d10565b60008181526001830160205260408120548015611e33576000611d6e600183612d70565b8554909150600090611d8290600190612d70565b9050818114611de7576000866000018281548110611da257611da2612b37565b9060005260206000200154905080876000018481548110611dc557611dc5612b37565b6000918252602080832090910192909255918252600188019052604090208390555b8554869080611df857611df8612d83565b600190038181906000526020600020016000905590558560010160008681526020019081526020016000206000905560019350505050610643565b6000915050610643565b7f2145e1d6d074577dc71ef54c3807742b41b053a9352ae6b491331509acb9750f8201611e7d576040516385c169bd60e01b815260040160405180910390fd5b7fd0f59754f88971fe6bc5a6618cc9d5f1e859c58d16b22d1c7b2d3e2b246cd8aa8201611ebd57604051630eceab6760e31b815260040160405180910390fd5b6000828152600160205260409020611ed58282612ddf565b50817fece574603820d07bc9b91f2a932baadf4628aabcb8afba49776529c14a6104b261010083511115611f1657611f1183600061010061206a565b611f18565b825b604051611f2591906124b8565b60405180910390a25050565b6000818152600183016020526040812054611f7857508154600181810184556000848152602080822090930184905584548482528286019093526040902091909155610643565b506000610643565b6000806301ffc9a760e01b83604051602401611f9c9190612a25565b604051602081830303815290604052906001600160e01b0319166020820180516001600160e01b03838183161783525050505090506000806000602060008551602087018a617530fa92503d91506000519050828015611ffd575060208210155b80156120095750600081115b979650505050505050565b60006106bc836001600160a01b038416611d4a565b60006001600160e01b031982166318a6a9a560e21b148061064357506301ffc9a760e01b6001600160e01b0319831614610643565b60006106bc8383612177565b60608161207881601f612e9e565b10156120b75760405162461bcd60e51b815260206004820152600e60248201526d736c6963655f6f766572666c6f7760901b6044820152606401610193565b6120c18284612e9e565b845110156121055760405162461bcd60e51b8152602060048201526011602482015270736c6963655f6f75744f66426f756e647360781b6044820152606401610193565b606082158015612124576040519150600082526020820160405261216e565b6040519150601f8416801560200281840101858101878315602002848b0101015b8183101561215d578051835260209283019201612145565b5050858452601f01601f1916604052505b50949350505050565b600082600001828154811061218e5761218e612b37565b9060005260206000200154905092915050565b60208152816020820152818360408301376000818301604090810191909152601f909201601f19160101919050565b6000602082840312156121e257600080fd5b81356001600160e01b0319811681146106bc57600080fd5b60006020828403121561220c57600080fd5b5035919050565b6001600160a01b0391909116815260200190565b80356001600160a01b038116811461223e57600080fd5b919050565b6000806040838503121561225657600080fd5b61225f83612227565b946020939093013593505050565b80356001600160a01b03198116811461223e57600080fd5b8035801515811461223e57600080fd5b634e487b7160e01b600052604160045260246000fd5b604051601f8201601f191681016001600160401b03811182821017156122d3576122d3612295565b604052919050565b60006001600160401b038211156122f4576122f4612295565b50601f01601f191660200190565b600082601f83011261231357600080fd5b8135612326612321826122db565b6122ab565b81815284602083860101111561233b57600080fd5b816020850160208301376000918101602001919091529392505050565b600080600080600060a0868803121561237057600080fd5b61237986612227565b94506123876020870161226d565b93506123956040870161226d565b92506123a360608701612285565b915060808601356001600160401b038111156123be57600080fd5b6123ca88828901612302565b9150509295509295909350565b6020808252825182820181905260009190848201906040850190845b818110156124185783516001600160a01b0316835292840192918401916001016123f3565b50909695505050505050565b600080600080600060a0868803121561243c57600080fd5b61244586612227565b945061245360208701612227565b9350604086013592506123a360608701612285565b60005b8381101561248357818101518382015260200161246b565b50506000910152565b600081518084526124a4816020860160208601612468565b601f01601f19169290920160200192915050565b6020815260006106bc602083018461248c565b6000602082840312156124dd57600080fd5b6106bc8261226d565b6000602082840312156124f857600080fd5b6106bc82612227565b60006001600160401b0382111561251a5761251a612295565b5060051b60200190565b600082601f83011261253557600080fd5b8135602061254561232183612501565b82815260059290921b8401810191818101908684111561256457600080fd5b8286015b848110156125865761257981612227565b8352918301918301612568565b509695505050505050565b600082601f8301126125a257600080fd5b813560206125b261232183612501565b82815260059290921b840181019181810190868411156125d157600080fd5b8286015b8481101561258657803583529183019183016125d5565b600082601f8301126125fd57600080fd5b8135602061260d61232183612501565b82815260059290921b8401810191818101908684111561262c57600080fd5b8286015b848110156125865761264181612285565b8352918301918301612630565b600082601f83011261265f57600080fd5b8135602061266f61232183612501565b82815260059290921b8401810191818101908684111561268e57600080fd5b8286015b848110156125865780356001600160401b038111156126b15760008081fd5b6126bf8986838b0101612302565b845250918301918301612692565b600080600080600060a086880312156126e557600080fd5b85356001600160401b03808211156126fc57600080fd5b61270889838a01612524565b9650602088013591508082111561271e57600080fd5b61272a89838a01612524565b9550604088013591508082111561274057600080fd5b61274c89838a01612591565b9450606088013591508082111561276257600080fd5b61276e89838a016125ec565b9350608088013591508082111561278457600080fd5b506123ca8882890161264e565b600080604083850312156127a457600080fd5b8235915060208301356001600160401b038111156127c157600080fd5b6127cd85828601612302565b9150509250929050565b6000806000606084860312156127ec57600080fd5b6127f584612227565b92506020840135915060408401356001600160401b0381111561281757600080fd5b61282386828701612302565b9150509250925092565b6000806040838503121561284057600080fd5b82356001600160401b038082111561285757600080fd5b61286386838701612591565b9350602085013591508082111561287957600080fd5b506127cd8582860161264e565b6020808252825182820181905260009190848201906040850190845b81811015612418578351835292840192918401916001016128a2565b600080604083850312156128d157600080fd5b6128da8361226d565b915060208301356001600160401b038111156127c157600080fd5b6000806000806080858703121561290b57600080fd5b61291485612227565b93506020850135925061292960408601612285565b915060608501356001600160401b0381111561294457600080fd5b61295087828801612302565b91505092959194509250565b60006020828403121561296e57600080fd5b81356001600160401b0381111561298457600080fd5b611ab484828501612591565b6000602080830181845280855180835260408601915060408160051b870101925083870160005b828110156129e557603f198886030184526129d385835161248c565b945092850192908501906001016129b7565b5092979650505050505050565b60008060408385031215612a0557600080fd5b612a0e8361226d565b9150612a1c6020840161226d565b90509250929050565b6001600160e01b031991909116815260200190565b8385823760609290921b6001600160601b031916919092019081526014810191909152603401919050565b60008251612a77818460208701612468565b9190910192915050565b600060208284031215612a9357600080fd5b81516001600160d01b0319811681146106bc57600080fd5b81516001600160d01b03191681526020808301516001600160a01b031990811691830191909152604092830151169181019190915260600190565b600060208284031215612af857600080fd5b5051919050565b6001600160a01b039290921682526001600160a01b031916602082015260400190565b6001600160a01b031991909116815260200190565b634e487b7160e01b600052603260045260246000fd5b6001600160a01b0393841681526020810192909252909116604082015260600190565b60018060a01b03851681528360208201528215156040820152608060608201526000612b9f608083018461248c565b9695505050505050565b805160208201516001600160601b03198082169291906014831015612bd85780818460140360031b1b83161693505b505050919050565b634e487b7160e01b600052601160045260246000fd5b600060018201612c0857612c08612be0565b5060010190565b6001600160a01b03841681528215156020820152606060408201819052600090612c3b9083018461248c565b95945050505050565b6001600160a01b0385811682528416602082015260408101839052608060608201819052600090612b9f9083018461248c565b600181811c90821680612c8b57607f821691505b6020821081036111aa57634e487b7160e01b600052602260045260246000fd5b828152604060208201526000611ab4604083018461248c565b600060208284031215612cd657600080fd5b81516001600160401b03811115612cec57600080fd5b8201601f81018413612cfd57600080fd5b8051612d0b612321826122db565b818152856020838501011115612d2057600080fd5b612c3b826020830160208601612468565b8215158152604060208201526000611ab4604083018461248c565b805160208083015191908110156111aa5760001960209190910360031b1b16919050565b8181038181111561064357610643612be0565b634e487b7160e01b600052603160045260246000fd5b601f821115610ef157600081815260208120601f850160051c81016020861015612dc05750805b601f850160051c820191505b81811015610e2e57828155600101612dcc565b81516001600160401b03811115612df857612df8612295565b612e0c81612e068454612c77565b84612d99565b602080601f831160018114612e415760008415612e295750858301515b600019600386901b1c1916600185901b178555610e2e565b600085815260208120601f198616915b82811015612e7057888601518255948401946001909101908401612e51565b5085821015612e8e5787850151600019600388901b60f8161c191681555b5050505050600190811b01905550565b8082018082111561064357610643612be056fea26469706673582212206c56e283549bb7896fd90e7c2edae9c4a9f411098e44044894f6092674fc6e7864736f6c63430008130033ece574603820d07bc9b91f2a932baadf4628aabcb8afba49776529c14a6104b2",
  "linkReferences": {
    "contracts/TokenUtils.sol": {
      "TokenUtils": [
        {
          "length": 20,
          "start": 3820
        },
        {
          "length": 20,
          "start": 3978
        },
        {
          "length": 20,
          "start": 4143
        },
        {
          "length": 20,
          "start": 4489
        },
        {
          "length": 20,
          "start": 4648
        },
        {
          "length": 20,
          "start": 5869
        },
        {
          "length": 20,
          "start": 6553
        }
      ]
    }
  },
  "deployedLinkReferences": {
    "contracts/TokenUtils.sol": {
      "TokenUtils": [
        {
          "length": 20,
          "start": 1843
        },
        {
          "length": 20,
          "start": 2001
        },
        {
          "length": 20,
          "start": 2166
        },
        {
          "length": 20,
          "start": 2512
        },
        {
          "length": 20,
          "start": 2671
        },
        {
          "length": 20,
          "start": 3892
        },
        {
          "length": 20,
          "start": 4576
        }
      ]
    }
  }
}