{
  "_format": "hh-sol-artifact-1",
  "contractName": "UncappedFamilyAsset",
  "sourceName": "contracts/UncappedFamilyAsset.sol",
  "abi": [
    {
      "inputs": [
        {
          "internalType": "string",
          "name": "name_",
          "type": "string"
        },
        {
          "internalType": "string",
          "name": "symbol_",
          "type": "string"
        },
        {
          "internalType": "address",
          "name": "newOwner_",
          "type": "address"
        },
        {
          "internalType": "address",
          "name": "placeholderCollection",
          "type": "address"
        }
      ],
      "stateMutability": "nonpayable",
      "type": "constructor"
    },
    {
      "inputs": [],
      "name": "AssetAlreadyRegistered",
      "type": "error"
    },
    {
      "inputs": [],
      "name": "AssetIdCannotBeZero",
      "type": "error"
    },
    {
      "inputs": [],
      "name": "ERC725Y_DataKeysValuesEmptyArray",
      "type": "error"
    },
    {
      "inputs": [],
      "name": "ERC725Y_DataKeysValuesLengthMismatch",
      "type": "error"
    },
    {
      "inputs": [],
      "name": "ERC725Y_MsgValueDisallowed",
      "type": "error"
    },
    {
      "inputs": [
        {
          "internalType": "bytes",
          "name": "storedData",
          "type": "bytes"
        }
      ],
      "name": "InvalidExtensionAddress",
      "type": "error"
    },
    {
      "inputs": [
        {
          "internalType": "bytes",
          "name": "data",
          "type": "bytes"
        }
      ],
      "name": "InvalidFunctionSelector",
      "type": "error"
    },
    {
      "inputs": [],
      "name": "LSP4TokenNameNotEditable",
      "type": "error"
    },
    {
      "inputs": [],
      "name": "LSP4TokenSymbolNotEditable",
      "type": "error"
    },
    {
      "inputs": [],
      "name": "LSP4TokenTypeNotEditable",
      "type": "error"
    },
    {
      "inputs": [
        {
          "internalType": "uint256",
          "name": "callIndex",
          "type": "uint256"
        }
      ],
      "name": "LSP8BatchCallFailed",
      "type": "error"
    },
    {
      "inputs": [],
      "name": "LSP8CannotSendToAddressZero",
      "type": "error"
    },
    {
      "inputs": [],
      "name": "LSP8CannotUseAddressZeroAsOperator",
      "type": "error"
    },
    {
      "inputs": [],
      "name": "LSP8InvalidTransferBatch",
      "type": "error"
    },
    {
      "inputs": [
        {
          "internalType": "bytes32",
          "name": "tokenId",
          "type": "bytes32"
        }
      ],
      "name": "LSP8NonExistentTokenId",
      "type": "error"
    },
    {
      "inputs": [
        {
          "internalType": "address",
          "name": "operator",
          "type": "address"
        },
        {
          "internalType": "bytes32",
          "name": "tokenId",
          "type": "bytes32"
        }
      ],
      "name": "LSP8NonExistingOperator",
      "type": "error"
    },
    {
      "inputs": [
        {
          "internalType": "bytes32",
          "name": "tokenId",
          "type": "bytes32"
        },
        {
          "internalType": "address",
          "name": "caller",
          "type": "address"
        }
      ],
      "name": "LSP8NotTokenOperator",
      "type": "error"
    },
    {
      "inputs": [
        {
          "internalType": "address",
          "name": "tokenOwner",
          "type": "address"
        },
        {
          "internalType": "bytes32",
          "name": "tokenId",
          "type": "bytes32"
        },
        {
          "internalType": "address",
          "name": "caller",
          "type": "address"
        }
      ],
      "name": "LSP8NotTokenOwner",
      "type": "error"
    },
    {
      "inputs": [
        {
          "internalType": "address",
          "name": "tokenReceiver",
          "type": "address"
        }
      ],
      "name": "LSP8NotifyTokenReceiverContractMissingLSP1Interface",
      "type": "error"
    },
    {
      "inputs": [
        {
          "internalType": "address",
          "name": "tokenReceiver",
          "type": "address"
        }
      ],
      "name": "LSP8NotifyTokenReceiverIsEOA",
      "type": "error"
    },
    {
      "inputs": [
        {
          "internalType": "address",
          "name": "operator",
          "type": "address"
        },
        {
          "internalType": "bytes32",
          "name": "tokenId",
          "type": "bytes32"
        }
      ],
      "name": "LSP8OperatorAlreadyAuthorized",
      "type": "error"
    },
    {
      "inputs": [
        {
          "internalType": "address",
          "name": "caller",
          "type": "address"
        },
        {
          "internalType": "address",
          "name": "tokenOwner",
          "type": "address"
        },
        {
          "internalType": "bytes32",
          "name": "tokenId",
          "type": "bytes32"
        }
      ],
      "name": "LSP8RevokeOperatorNotAuthorized",
      "type": "error"
    },
    {
      "inputs": [],
      "name": "LSP8TokenContractCannotHoldValue",
      "type": "error"
    },
    {
      "inputs": [
        {
          "internalType": "bytes32",
          "name": "tokenId",
          "type": "bytes32"
        }
      ],
      "name": "LSP8TokenIdAlreadyMinted",
      "type": "error"
    },
    {
      "inputs": [],
      "name": "LSP8TokenIdFormatNotEditable",
      "type": "error"
    },
    {
      "inputs": [],
      "name": "LSP8TokenIdsDataEmptyArray",
      "type": "error"
    },
    {
      "inputs": [],
      "name": "LSP8TokenIdsDataLengthMismatch",
      "type": "error"
    },
    {
      "inputs": [],
      "name": "LSP8TokenOwnerCannotBeOperator",
      "type": "error"
    },
    {
      "inputs": [
        {
          "internalType": "bytes32",
          "name": "tokenId",
          "type": "bytes32"
        },
        {
          "internalType": "address",
          "name": "oldOwner",
          "type": "address"
        },
        {
          "internalType": "address",
          "name": "newOwner",
          "type": "address"
        }
      ],
      "name": "LSP8TokenOwnerChanged",
      "type": "error"
    },
    {
      "inputs": [
        {
          "internalType": "bytes4",
          "name": "functionSelector",
          "type": "bytes4"
        }
      ],
      "name": "NoExtensionFoundForFunctionSelector",
      "type": "error"
    },
    {
      "inputs": [],
      "name": "OnlyPlaceholderCanMint",
      "type": "error"
    },
    {
      "inputs": [],
      "name": "VariantAlreadyRegistered",
      "type": "error"
    },
    {
      "inputs": [],
      "name": "VariantIdCannotBeZero",
      "type": "error"
    },
    {
      "inputs": [],
      "name": "VariantNotRegistered",
      "type": "error"
    },
    {
      "anonymous": false,
      "inputs": [
        {
          "indexed": true,
          "internalType": "bytes12",
          "name": "variantId",
          "type": "bytes12"
        },
        {
          "indexed": true,
          "internalType": "bytes12",
          "name": "assetId",
          "type": "bytes12"
        },
        {
          "indexed": true,
          "internalType": "bytes32",
          "name": "tokenId",
          "type": "bytes32"
        }
      ],
      "name": "AssetMinted",
      "type": "event"
    },
    {
      "anonymous": false,
      "inputs": [
        {
          "indexed": true,
          "internalType": "bytes32",
          "name": "dataKey",
          "type": "bytes32"
        },
        {
          "indexed": false,
          "internalType": "bytes",
          "name": "dataValue",
          "type": "bytes"
        }
      ],
      "name": "DataChanged",
      "type": "event"
    },
    {
      "anonymous": false,
      "inputs": [
        {
          "indexed": true,
          "internalType": "address",
          "name": "operator",
          "type": "address"
        },
        {
          "indexed": true,
          "internalType": "address",
          "name": "tokenOwner",
          "type": "address"
        },
        {
          "indexed": true,
          "internalType": "bytes32",
          "name": "tokenId",
          "type": "bytes32"
        },
        {
          "indexed": false,
          "internalType": "bytes",
          "name": "operatorNotificationData",
          "type": "bytes"
        }
      ],
      "name": "OperatorAuthorizationChanged",
      "type": "event"
    },
    {
      "anonymous": false,
      "inputs": [
        {
          "indexed": true,
          "internalType": "address",
          "name": "operator",
          "type": "address"
        },
        {
          "indexed": true,
          "internalType": "address",
          "name": "tokenOwner",
          "type": "address"
        },
        {
          "indexed": true,
          "internalType": "bytes32",
          "name": "tokenId",
          "type": "bytes32"
        },
        {
          "indexed": false,
          "internalType": "bool",
          "name": "notified",
          "type": "bool"
        },
        {
          "indexed": false,
          "internalType": "bytes",
          "name": "operatorNotificationData",
          "type": "bytes"
        }
      ],
      "name": "OperatorRevoked",
      "type": "event"
    },
    {
      "anonymous": false,
      "inputs": [
        {
          "indexed": true,
          "internalType": "address",
          "name": "previousOwner",
          "type": "address"
        },
        {
          "indexed": true,
          "internalType": "address",
          "name": "newOwner",
          "type": "address"
        }
      ],
      "name": "OwnershipTransferred",
      "type": "event"
    },
    {
      "anonymous": false,
      "inputs": [
        {
          "indexed": false,
          "internalType": "address",
          "name": "",
          "type": "address"
        },
        {
          "indexed": false,
          "internalType": "uint256",
          "name": "",
          "type": "uint256"
        }
      ],
      "name": "Received",
      "type": "event"
    },
    {
      "anonymous": false,
      "inputs": [
        {
          "indexed": true,
          "internalType": "bytes32",
          "name": "tokenId",
          "type": "bytes32"
        },
        {
          "indexed": true,
          "internalType": "bytes32",
          "name": "dataKey",
          "type": "bytes32"
        },
        {
          "indexed": false,
          "internalType": "bytes",
          "name": "dataValue",
          "type": "bytes"
        }
      ],
      "name": "TokenIdDataChanged",
      "type": "event"
    },
    {
      "anonymous": false,
      "inputs": [
        {
          "indexed": false,
          "internalType": "address",
          "name": "operator",
          "type": "address"
        },
        {
          "indexed": true,
          "internalType": "address",
          "name": "from",
          "type": "address"
        },
        {
          "indexed": true,
          "internalType": "address",
          "name": "to",
          "type": "address"
        },
        {
          "indexed": true,
          "internalType": "bytes32",
          "name": "tokenId",
          "type": "bytes32"
        },
        {
          "indexed": false,
          "internalType": "bool",
          "name": "force",
          "type": "bool"
        },
        {
          "indexed": false,
          "internalType": "bytes",
          "name": "data",
          "type": "bytes"
        }
      ],
      "name": "Transfer",
      "type": "event"
    },
    {
      "anonymous": false,
      "inputs": [
        {
          "indexed": false,
          "internalType": "bytes12",
          "name": "variantId",
          "type": "bytes12"
        }
      ],
      "name": "VariantRegistered",
      "type": "event"
    },
    {
      "anonymous": false,
      "inputs": [
        {
          "indexed": false,
          "internalType": "bytes12",
          "name": "variantId",
          "type": "bytes12"
        }
      ],
      "name": "VariantUnregistered",
      "type": "event"
    },
    {
      "stateMutability": "payable",
      "type": "fallback"
    },
    {
      "inputs": [
        {
          "internalType": "address",
          "name": "operator",
          "type": "address"
        },
        {
          "internalType": "bytes32",
          "name": "tokenId",
          "type": "bytes32"
        },
        {
          "internalType": "bytes",
          "name": "operatorNotificationData",
          "type": "bytes"
        }
      ],
      "name": "authorizeOperator",
      "outputs": [],
      "stateMutability": "nonpayable",
      "type": "function"
    },
    {
      "inputs": [
        {
          "internalType": "address",
          "name": "tokenOwner",
          "type": "address"
        }
      ],
      "name": "balanceOf",
      "outputs": [
        {
          "internalType": "uint256",
          "name": "",
          "type": "uint256"
        }
      ],
      "stateMutability": "view",
      "type": "function"
    },
    {
      "inputs": [
        {
          "internalType": "bytes[]",
          "name": "data",
          "type": "bytes[]"
        }
      ],
      "name": "batchCalls",
      "outputs": [
        {
          "internalType": "bytes[]",
          "name": "results",
          "type": "bytes[]"
        }
      ],
      "stateMutability": "nonpayable",
      "type": "function"
    },
    {
      "inputs": [
        {
          "internalType": "bytes12",
          "name": "variantId",
          "type": "bytes12"
        }
      ],
      "name": "checkVariant",
      "outputs": [
        {
          "internalType": "bool",
          "name": "",
          "type": "bool"
        }
      ],
      "stateMutability": "view",
      "type": "function"
    },
    {
      "inputs": [
        {
          "internalType": "bytes12",
          "name": "variantId",
          "type": "bytes12"
        },
        {
          "internalType": "bytes12",
          "name": "assetId",
          "type": "bytes12"
        }
      ],
      "name": "getAssetTokenId",
      "outputs": [
        {
          "internalType": "bytes32",
          "name": "",
          "type": "bytes32"
        }
      ],
      "stateMutability": "view",
      "type": "function"
    },
    {
      "inputs": [
        {
          "internalType": "bytes32",
          "name": "dataKey",
          "type": "bytes32"
        }
      ],
      "name": "getData",
      "outputs": [
        {
          "internalType": "bytes",
          "name": "dataValue",
          "type": "bytes"
        }
      ],
      "stateMutability": "view",
      "type": "function"
    },
    {
      "inputs": [
        {
          "internalType": "bytes32[]",
          "name": "dataKeys",
          "type": "bytes32[]"
        }
      ],
      "name": "getDataBatch",
      "outputs": [
        {
          "internalType": "bytes[]",
          "name": "dataValues",
          "type": "bytes[]"
        }
      ],
      "stateMutability": "view",
      "type": "function"
    },
    {
      "inputs": [
        {
          "internalType": "bytes32[]",
          "name": "tokenIds",
          "type": "bytes32[]"
        },
        {
          "internalType": "bytes32[]",
          "name": "dataKeys",
          "type": "bytes32[]"
        }
      ],
      "name": "getDataBatchForTokenIds",
      "outputs": [
        {
          "internalType": "bytes[]",
          "name": "dataValues",
          "type": "bytes[]"
        }
      ],
      "stateMutability": "view",
      "type": "function"
    },
    {
      "inputs": [
        {
          "internalType": "bytes32",
          "name": "tokenId",
          "type": "bytes32"
        },
        {
          "internalType": "bytes32",
          "name": "dataKey",
          "type": "bytes32"
        }
      ],
      "name": "getDataForTokenId",
      "outputs": [
        {
          "internalType": "bytes",
          "name": "dataValue",
          "type": "bytes"
        }
      ],
      "stateMutability": "view",
      "type": "function"
    },
    {
      "inputs": [
        {
          "internalType": "bytes32",
          "name": "tokenId",
          "type": "bytes32"
        }
      ],
      "name": "getOperatorsOf",
      "outputs": [
        {
          "internalType": "address[]",
          "name": "",
          "type": "address[]"
        }
      ],
      "stateMutability": "view",
      "type": "function"
    },
    {
      "inputs": [
        {
          "internalType": "address",
          "name": "operator",
          "type": "address"
        },
        {
          "internalType": "bytes32",
          "name": "tokenId",
          "type": "bytes32"
        }
      ],
      "name": "isOperatorFor",
      "outputs": [
        {
          "internalType": "bool",
          "name": "",
          "type": "bool"
        }
      ],
      "stateMutability": "view",
      "type": "function"
    },
    {
      "inputs": [
        {
          "internalType": "address",
          "name": "to",
          "type": "address"
        },
        {
          "internalType": "bytes12",
          "name": "assetId",
          "type": "bytes12"
        },
        {
          "internalType": "bytes12",
          "name": "variantId",
          "type": "bytes12"
        },
        {
          "internalType": "bool",
          "name": "allowNonLSP1Recipient",
          "type": "bool"
        },
        {
          "internalType": "bytes",
          "name": "data",
          "type": "bytes"
        }
      ],
      "name": "mint",
      "outputs": [],
      "stateMutability": "nonpayable",
      "type": "function"
    },
    {
      "inputs": [],
      "name": "owner",
      "outputs": [
        {
          "internalType": "address",
          "name": "",
          "type": "address"
        }
      ],
      "stateMutability": "view",
      "type": "function"
    },
    {
      "inputs": [],
      "name": "placeholder",
      "outputs": [
        {
          "internalType": "address",
          "name": "",
          "type": "address"
        }
      ],
      "stateMutability": "view",
      "type": "function"
    },
    {
      "inputs": [
        {
          "internalType": "bytes12",
          "name": "variantId",
          "type": "bytes12"
        },
        {
          "internalType": "bytes",
          "name": "metadataUrl",
          "type": "bytes"
        }
      ],
      "name": "registerVariant",
      "outputs": [],
      "stateMutability": "nonpayable",
      "type": "function"
    },
    {
      "inputs": [],
      "name": "renounceOwnership",
      "outputs": [],
      "stateMutability": "nonpayable",
      "type": "function"
    },
    {
      "inputs": [
        {
          "internalType": "address",
          "name": "operator",
          "type": "address"
        },
        {
          "internalType": "bytes32",
          "name": "tokenId",
          "type": "bytes32"
        },
        {
          "internalType": "bool",
          "name": "notify",
          "type": "bool"
        },
        {
          "internalType": "bytes",
          "name": "operatorNotificationData",
          "type": "bytes"
        }
      ],
      "name": "revokeOperator",
      "outputs": [],
      "stateMutability": "nonpayable",
      "type": "function"
    },
    {
      "inputs": [
        {
          "internalType": "bytes32",
          "name": "dataKey",
          "type": "bytes32"
        },
        {
          "internalType": "bytes",
          "name": "dataValue",
          "type": "bytes"
        }
      ],
      "name": "setData",
      "outputs": [],
      "stateMutability": "payable",
      "type": "function"
    },
    {
      "inputs": [
        {
          "internalType": "bytes32[]",
          "name": "dataKeys",
          "type": "bytes32[]"
        },
        {
          "internalType": "bytes[]",
          "name": "dataValues",
          "type": "bytes[]"
        }
      ],
      "name": "setDataBatch",
      "outputs": [],
      "stateMutability": "payable",
      "type": "function"
    },
    {
      "inputs": [
        {
          "internalType": "bytes32[]",
          "name": "tokenIds",
          "type": "bytes32[]"
        },
        {
          "internalType": "bytes32[]",
          "name": "dataKeys",
          "type": "bytes32[]"
        },
        {
          "internalType": "bytes[]",
          "name": "dataValues",
          "type": "bytes[]"
        }
      ],
      "name": "setDataBatchForTokenIds",
      "outputs": [],
      "stateMutability": "nonpayable",
      "type": "function"
    },
    {
      "inputs": [
        {
          "internalType": "bytes32",
          "name": "tokenId",
          "type": "bytes32"
        },
        {
          "internalType": "bytes32",
          "name": "dataKey",
          "type": "bytes32"
        },
        {
          "internalType": "bytes",
          "name": "dataValue",
          "type": "bytes"
        }
      ],
      "name": "setDataForTokenId",
      "outputs": [],
      "stateMutability": "nonpayable",
      "type": "function"
    },
    {
      "inputs": [
        {
          "internalType": "bytes4",
          "name": "_interfaceId",
          "type": "bytes4"
        }
      ],
      "name": "supportsInterface",
      "outputs": [
        {
          "internalType": "bool",
          "name": "",
          "type": "bool"
        }
      ],
      "stateMutability": "view",
      "type": "function"
    },
    {
      "inputs": [
        {
          "internalType": "uint256",
          "name": "index",
          "type": "uint256"
        }
      ],
      "name": "tokenAt",
      "outputs": [
        {
          "internalType": "bytes32",
          "name": "",
          "type": "bytes32"
        }
      ],
      "stateMutability": "view",
      "type": "function"
    },
    {
      "inputs": [
        {
          "internalType": "address",
          "name": "tokenOwner",
          "type": "address"
        }
      ],
      "name": "tokenIdsOf",
      "outputs": [
        {
          "internalType": "bytes32[]",
          "name": "",
          "type": "bytes32[]"
        }
      ],
      "stateMutability": "view",
      "type": "function"
    },
    {
      "inputs": [
        {
          "internalType": "bytes32",
          "name": "tokenId",
          "type": "bytes32"
        }
      ],
      "name": "tokenOwnerOf",
      "outputs": [
        {
          "internalType": "address",
          "name": "",
          "type": "address"
        }
      ],
      "stateMutability": "view",
      "type": "function"
    },
    {
      "inputs": [],
      "name": "totalSupply",
      "outputs": [
        {
          "internalType": "uint256",
          "name": "",
          "type": "uint256"
        }
      ],
      "stateMutability": "view",
      "type": "function"
    },
    {
      "inputs": [
        {
          "internalType": "address",
          "name": "from",
          "type": "address"
        },
        {
          "internalType": "address",
          "name": "to",
          "type": "address"
        },
        {
          "internalType": "bytes32",
          "name": "tokenId",
          "type": "bytes32"
        },
        {
          "internalType": "bool",
          "name": "force",
          "type": "bool"
        },
        {
          "internalType": "bytes",
          "name": "data",
          "type": "bytes"
        }
      ],
      "name": "transfer",
      "outputs": [],
      "stateMutability": "nonpayable",
      "type": "function"
    },
    {
      "inputs": [
        {
          "internalType": "address[]",
          "name": "from",
          "type": "address[]"
        },
        {
          "internalType": "address[]",
          "name": "to",
          "type": "address[]"
        },
        {
          "internalType": "bytes32[]",
          "name": "tokenId",
          "type": "bytes32[]"
        },
        {
          "internalType": "bool[]",
          "name": "force",
          "type": "bool[]"
        },
        {
          "internalType": "bytes[]",
          "name": "data",
          "type": "bytes[]"
        }
      ],
      "name": "transferBatch",
      "outputs": [],
      "stateMutability": "nonpayable",
      "type": "function"
    },
    {
      "inputs": [
        {
          "internalType": "address",
          "name": "newOwner",
          "type": "address"
        }
      ],
      "name": "transferOwnership",
      "outputs": [],
      "stateMutability": "nonpayable",
      "type": "function"
    },
    {
      "inputs": [
        {
          "internalType": "bytes12",
          "name": "variantId",
          "type": "bytes12"
        }
      ],
      "name": "unregisterVariant",
      "outputs": [],
      "stateMutability": "nonpayable",
      "type": "function"
    },
    {
      "stateMutability": "payable",
      "type": "receive"
    }
  ],
  "bytecode": "0x60806040523480156200001157600080fd5b5060405162003c4438038062003c44833981016040819052620000349162000499565b8383836001600384848484816001600160a01b038116620000aa5760405162461bcd60e51b815260206004820152602660248201527f4f776e61626c653a206e6577206f776e657220697320746865207a65726f206160448201526564647265737360d01b606482015260840160405180910390fd5b620000b5816200021c565b506040805180820190915260048152632936598960e21b6020820152620000fe907feafec4d89fa9619884b60000a4d96624a38f7ac2d8d9a604ecf07c12c77e480c9062000283565b6200012a7fdeba1e292f8ba88238e10ab3c7f88bd4be4fac56cad5194b6ecceaf653468af18562000283565b620001567f2f0a68ab07768e01943a599e73362a0e17a63a72e94dd2e384d2c1d4db9327568462000283565b60408051602081018390526200019f917fe0261fa95db2eb3b5439bd033cda66d56b96f92f243a8228fd87550ed7bdfdb3910160408051601f1981840301815291905262000283565b50506040805160208101859052620001ec93507ff675e9361af1c1664c1868cfa3eb97672d6b1a513aa5b81dec34c9ee330e818d92500160408051601f19818403018152919052620002dc565b5050600980546001600160a01b0319166001600160a01b03959095169490941790935550620006b8945050505050565b6000546001600160a01b038281169116146200028057600080546001600160a01b038381166001600160a01b0319831681178455604051919092169283917f8be0079c531659141344cd1fd0a4f28419497f9722a3daafe3b4186f6b6457e09190a3505b50565b60008281526001602052604090206200029d8282620005b7565b50817fece574603820d07bc9b91f2a932baadf4628aabcb8afba49776529c14a6104b282604051620002d0919062000683565b60405180910390a25050565b620002e88282620002ec565b5050565b7f2145e1d6d074577dc71ef54c3807742b41b053a9352ae6b491331509acb9750f82016200032d576040516385c169bd60e01b815260040160405180910390fd5b7fd0f59754f88971fe6bc5a6618cc9d5f1e859c58d16b22d1c7b2d3e2b246cd8aa82016200036e57604051630eceab6760e31b815260040160405180910390fd5b7f1fd9e056a24d14c4abc642fcc325992a946906d0dbc57dd70278aaf12842024d82016200028357604051634ef6d7fb60e01b815260040160405180910390fd5b634e487b7160e01b600052604160045260246000fd5b60005b83811015620003e2578181015183820152602001620003c8565b50506000910152565b600082601f830112620003fd57600080fd5b81516001600160401b03808211156200041a576200041a620003af565b604051601f8301601f19908116603f01168101908282118183101715620004455762000445620003af565b816040528381528660208588010111156200045f57600080fd5b62000472846020830160208901620003c5565b9695505050505050565b80516001600160a01b03811681146200049457600080fd5b919050565b60008060008060808587031215620004b057600080fd5b84516001600160401b0380821115620004c857600080fd5b620004d688838901620003eb565b95506020870151915080821115620004ed57600080fd5b50620004fc87828801620003eb565b9350506200050d604086016200047c565b91506200051d606086016200047c565b905092959194509250565b600181811c908216806200053d57607f821691505b6020821081036200055e57634e487b7160e01b600052602260045260246000fd5b50919050565b601f821115620005b257600081815260208120601f850160051c810160208610156200058d5750805b601f850160051c820191505b81811015620005ae5782815560010162000599565b5050505b505050565b81516001600160401b03811115620005d357620005d3620003af565b620005eb81620005e4845462000528565b8462000564565b602080601f8311600181146200062357600084156200060a5750858301515b600019600386901b1c1916600185901b178555620005ae565b600085815260208120601f198616915b82811015620006545788860151825594840194600190910190840162000633565b5085821015620006735787850151600019600388901b60f8161c191681555b5050505050600190811b01905550565b6020815260008251806020840152620006a4816040850160208701620003c5565b601f01601f19169190910160400192915050565b61357c80620006c86000396000f3fe6080604052600436106101915760003560e01c80637e87632c116100d7578063a3b261f211610085578063a3b261f21461051d578063be9f0e6f1461054a578063cd4977c81461056a578063d6c1407c1461058a578063db8c9663146105aa578063dedff9c6146105ca578063f18776a0146105ea578063f2fde38b1461060a576101ec565b80637e87632c1461044c5780637f23690c1461046c57806386a10ddd1461047f5780638da5cb5b1461049f57806392a91a3a146104bd57806397902421146104ea5780639e75143c146104fd576101ec565b806349a6078d1161013f57806349a6078d1461034a578063511b69521461037757806354f6127f14610397578063674986ff146103b75780636963d438146103d75780636cb1c949146103f757806370a0823114610417578063715018a614610437576101ec565b806301ffc9a71461022d57806316e023b31461026257806318160ddd1461028f5780631d26fce6146102ae578063217b2270146102db5780632a3654a4146103085780632b7c023c14610328576101ec565b366101ec57346000036101d35760405163e5099ee360e01b81526004016101ca9060208082526004908201526000604082015260600190565b60405180910390fd5b6040516330fa4a2160e11b815260040160405180910390fd5b6000366060600482101561021757828260405163e5099ee360e01b81526004016101ca92919061263f565b610221838361062a565b80519350602001915050f35b34801561023957600080fd5b5061024d61024836600461266e565b610720565b60405190151581526020015b60405180910390f35b34801561026e57600080fd5b5061028261027d366004612698565b610745565b604051610259919061270a565b34801561029b57600080fd5b506002545b604051908152602001610259565b3480156102ba57600080fd5b506102ce6102c93660046127f1565b610758565b6040516102599190612854565b3480156102e757600080fd5b506102fb6102f63660046128b6565b61083f565b60405161025991906128cf565b34801561031457600080fd5b5061024d6103233660046128ff565b610878565b34801561033457600080fd5b506103486103433660046129c9565b610884565b005b34801561035657600080fd5b5061036a6103653660046128b6565b610b54565b6040516102599190612a48565b34801561038357600080fd5b50610348610392366004612a95565b610b76565b3480156103a357600080fd5b506102826103b23660046128b6565b610bba565b3480156103c357600080fd5b5061024d6103d2366004612ad9565b610bc5565b3480156103e357600080fd5b506102ce6103f2366004612af4565b610c4f565b34801561040357600080fd5b50610348610412366004612ad9565b610d7e565b34801561042357600080fd5b506102a0610432366004612b68565b610e74565b34801561044357600080fd5b50610348610e95565b34801561045857600080fd5b50610348610467366004612cc6565b610ea9565b61034861047a366004612d8a565b610f98565b34801561048b57600080fd5b5061034861049a366004612dc6565b610fcd565b3480156104ab57600080fd5b506000546001600160a01b03166102fb565b3480156104c957600080fd5b506102a06104d83660046128b6565b60009081526007602052604090205490565b6103486104f8366004612e1c565b611135565b34801561050957600080fd5b506009546102fb906001600160a01b031681565b34801561052957600080fd5b5061053d610538366004612b68565b6111f5565b6040516102599190612e75565b34801561055657600080fd5b50610348610565366004612ead565b611219565b34801561057657600080fd5b50610348610585366004612f2a565b6112e4565b34801561059657600080fd5b506103486105a5366004612f61565b61140e565b3480156105b657600080fd5b506103486105c5366004612f9a565b611421565b3480156105d657600080fd5b506102ce6105e5366004613001565b611505565b3480156105f657600080fd5b506102a0610605366004613035565b6115af565b34801561061657600080fd5b50610348610625366004612b68565b61163d565b606060006106436000356001600160e01b0319166116b6565b5090506001600160a01b03811661067b576000356001600160e01b03191660405163bb370b2b60e01b81526004016101ca9190613068565b600080826001600160a01b031634878733346040516020016106a0949392919061307d565b60408051601f19818403018152908290526106ba916130a8565b60006040518083038185875af1925050503d80600081146106f7576040519150601f19603f3d011682016040523d82523d6000602084013e6106fc565b606091505b5091509150811561071157925061071a915050565b80518060208301fd5b92915050565b60006001600160e01b03198216630e25267160e11b148061071a575061071a82611734565b60606107518383611768565b9392505050565b6060815183511461077c576040516317d38eff60e11b815260040160405180910390fd5b82516001600160401b038111156107955761079561271d565b6040519080825280602002602001820160405280156107c857816020015b60608152602001906001900390816107b35790505b50905060005b8351811015610838576108138482815181106107ec576107ec6130c4565b6020026020010151848381518110610806576108066130c4565b6020026020010151611768565b828281518110610825576108256130c4565b60209081029190910101526001016107ce565b5092915050565b6000818152600360205260408120546001600160a01b03168061071a57604051635747cd1b60e11b8152600481018490526024016101ca565b60006107518383611816565b6009546001600160a01b031633146108af57604051634281885f60e11b815260040160405180910390fd5b6001600160a01b031984166108d75760405163baceb31160e01b815260040160405180910390fd5b6040805160608101918290526316b96e9360e31b9091526000908073__$032f01bb2624c0993c8bfa756ae89be841$__63b5cb749861091930606485016128cf565b602060405180830381865af4158015610936573d6000803e3d6000fd5b505050506040513d601f19601f8201168201806040525081019061095a91906130da565b6001600160d01b03191681526001600160a01b03198087166020830152871660409182015251630849ed4d60e11b815290915060009073__$032f01bb2624c0993c8bfa756ae89be841$__90631093da9a906109ba908590600401613104565b602060405180830381865af41580156109d7573d6000803e3d6000fd5b505050506040513d601f19601f820116820180604052508101906109fb919061313f565b9050610a08600a82611870565b610a255760405163b103414760e01b815260040160405180910390fd5b6040516320e5304f60e01b815260009073__$032f01bb2624c0993c8bfa756ae89be841$__906320e5304f90610a5f908690600401613104565b602060405180830381865af4158015610a7c573d6000803e3d6000fd5b505050506040513d601f19601f82011682018060405250810190610aa0919061313f565b9050610aab81611888565b15610ac95760405163136d457160e21b815260040160405180910390fd5b6000610ad4836118a5565b9050610b01827f9afb95cacc9f95858ec44aa8c3b685511002e30ae54415823f406128b85b238e83611947565b610b0d898388886119a9565b60405182906001600160a01b0319808b1691908a16907f8846f9de517619441451dee05d1a37b152ac31ba0b8b22c0635005860b90c40090600090a4505050505050505050565b6060610b5f82611b08565b600082815260056020526040902061071a90611b31565b610b803384611816565b610ba657604051631294d2a960e01b8152600481018490523360248201526044016101ca565b610bb38585858585611b3e565b5050505050565b606061071a826118a5565b60008073__$032f01bb2624c0993c8bfa756ae89be841$__63c27407d030856040518363ffffffff1660e01b8152600401610c01929190613158565b602060405180830381865af4158015610c1e573d6000803e3d6000fd5b505050506040513d601f19601f82011682018060405250810190610c42919061313f565b9050610751600a82611870565b6060816001600160401b03811115610c6957610c6961271d565b604051908082528060200260200182016040528015610c9c57816020015b6060815260200190600190039081610c875790505b50905060005b828110156108385760008030868685818110610cc057610cc06130c4565b9050602002810190610cd2919061317b565b604051610ce09291906131c8565b600060405180830381855af49150503d8060008114610d1b576040519150601f19603f3d011682016040523d82523d6000602084013e610d20565b606091505b509150915081610d5657805115610d3a5780518082602001fd5b60405163234eb81960e01b8152600481018490526024016101ca565b80848481518110610d6957610d696130c4565b60209081029190910101525050600101610ca2565b610d86611d18565b604051630c27407d60e41b815260009073__$032f01bb2624c0993c8bfa756ae89be841$__9063c27407d090610dc29030908690600401613158565b602060405180830381865af4158015610ddf573d6000803e3d6000fd5b505050506040513d601f19601f82011682018060405250810190610e03919061313f565b9050610e10600a82611870565b610e2d5760405163b103414760e01b815260040160405180910390fd5b610e38600a82611d81565b507fee0b0acde00de9a1c6e66517c637f4a59a543dff15739ad2200659454001896f82604051610e6891906131d8565b60405180910390a15050565b6001600160a01b038116600090815260046020526040812061071a90611d8d565b610e9d611d18565b610ea76000611d97565b565b8451845181141580610ebc575083518114155b80610ec8575082518114155b80610ed4575081518114155b15610ef2576040516393a8311960e01b815260040160405180910390fd5b60005b81811015610f8f57610f87878281518110610f1257610f126130c4565b6020026020010151878381518110610f2c57610f2c6130c4565b6020026020010151878481518110610f4657610f466130c4565b6020026020010151878581518110610f6057610f606130c4565b6020026020010151878681518110610f7a57610f7a6130c4565b6020026020010151610b76565b600101610ef5565b50505050505050565b610fa0611d18565b3415610fbf5760405163f36ba73760e01b815260040160405180910390fd5b610fc98282611dfc565b5050565b6000610fd88361083f565b90506001600160a01b038116331461100957808333604051632d938f5160e11b81526004016101ca939291906131ed565b6001600160a01b03841661103057604051639577b8b360e01b815260040160405180910390fd5b836001600160a01b0316816001600160a01b031603611062576040516344fed6b160e11b815260040160405180910390fd5b600083815260056020526040812061107a9086611e46565b9050806110ac576040516314ec4d6d60e31b81526001600160a01b0386166004820152602481018590526044016101ca565b83826001600160a01b0316866001600160a01b03167f1b1b58aa2ec0cec2228b2d37124556d41f5a1f7b12f089171f896cc236671215866040516110f0919061270a565b60405180910390a4600033856001866040516020016111129493929190613210565b604051602081830303815290604052905061112d8682611e5b565b505050505050565b61113d611d18565b341561115c5760405163f36ba73760e01b815260040160405180910390fd5b805182511461117e57604051633bcc897960e01b815260040160405180910390fd5b81516000036111a0576040516397da5f9560e01b815260040160405180910390fd5b60005b82518110156111f0576111e88382815181106111c1576111c16130c4565b60200260200101518383815181106111db576111db6130c4565b6020026020010151611dfc565b6001016111a3565b505050565b6001600160a01b038116600090815260046020526040902060609061071a90611b31565b611221611d18565b8151835114158061123457508051825114155b15611252576040516317d38eff60e11b815260040160405180910390fd5b8251600003611274576040516380c9830560e01b815260040160405180910390fd5b60005b83518110156112de576112d6848281518110611295576112956130c4565b60200260200101518483815181106112af576112af6130c4565b60200260200101518484815181106112c9576112c96130c4565b6020026020010151611947565b600101611277565b50505050565b6112ec611d18565b604051630c27407d60e41b815260009073__$032f01bb2624c0993c8bfa756ae89be841$__9063c27407d0906113289030908790600401613158565b602060405180830381865af4158015611345573d6000803e3d6000fd5b505050506040513d601f19601f82011682018060405250810190611369919061313f565b90506001600160a01b0319831661139357604051633f0bb8a360e01b815260040160405180910390fd5b61139e600a82611870565b156113bc576040516376996b1f60e01b815260040160405180910390fd5b6113c7600a82611e86565b506113d28183611dfc565b7fcd698deeac260311b9d0b77d8c223846316aec4961b01b0cdc1f26e666cd25038360405161140191906131d8565b60405180910390a1505050565b611416611d18565b6111f0838383611947565b600061142c8461083f565b9050336001600160a01b0382161461147f576001600160a01b038516331461147f5760405163760b5acd60e01b81523360048201526001600160a01b0382166024820152604481018590526064016101ca565b6001600160a01b0385166114a657604051639577b8b360e01b815260040160405180910390fd5b846001600160a01b0316816001600160a01b0316036114d8576040516344fed6b160e11b815260040160405180910390fd5b6114e58582868686611e92565b8215610bb357600081856000856040516020016111129493929190613210565b606081516001600160401b038111156115205761152061271d565b60405190808252806020026020018201604052801561155357816020015b606081526020019060019003908161153e5790505b50905060005b82518110156115a957611584838281518110611577576115776130c4565b60200260200101516118a5565b828281518110611596576115966130c4565b6020908102919091010152600101611559565b50919050565b6040516332e33fa360e11b81523060048201526001600160a01b031980841660248301528216604482015260009073__$032f01bb2624c0993c8bfa756ae89be841$__906365c67f4690606401602060405180830381865af4158015611619573d6000803e3d6000fd5b505050506040513d601f19601f82011682018060405250810190610751919061313f565b611645611d18565b6001600160a01b0381166116aa5760405162461bcd60e51b815260206004820152602660248201527f4f776e61626c653a206e6577206f776e657220697320746865207a65726f206160448201526564647265737360d01b60648201526084016101ca565b6116b381611d97565b50565b600080806116db696773c5a04a6d4300884b60b11b6001600160e01b03198616611f32565b905060006116e8826118a5565b905080516014141580156116fc5750805115155b1561171c57806040516342bfe79f60e01b81526004016101ca919061270a565b61172581613249565b60601c95600195509350505050565b60006001600160e01b03198216631d138b8360e11b1480611759575061175982611f86565b8061071a575061071a82611fab565b6000828152600660209081526040808320848452909152902080546060919061179090613280565b80601f01602080910402602001604051908101604052809291908181526020018280546117bc90613280565b80156118095780601f106117de57610100808354040283529160200191611809565b820191906000526020600020905b8154815290600101906020018083116117ec57829003601f168201915b5050505050905092915050565b60006118218261083f565b6001600160a01b0316836001600160a01b031614806107515750600082815260056020526040902061075190846001600160a01b03811660009081526001830160205260408120541515610751565b60008181526001830160205260408120541515610751565b6000908152600360205260409020546001600160a01b0316151590565b60008181526001602052604090208054606091906118c290613280565b80601f01602080910402602001604051908101604052809291908181526020018280546118ee90613280565b801561193b5780601f106119105761010080835404028352916020019161193b565b820191906000526020600020905b81548152906001019060200180831161191e57829003601f168201915b50505050509050919050565b6000838152600660209081526040808320858452909152902061196a82826132fa565b5081837fa6e4251f855f750545fe414f120db91c76b88def14d120969e5bb2d3f05debbb8360405161199c919061270a565b60405180910390a3505050565b6001600160a01b0384166119d0576040516324ecef4d60e01b815260040160405180910390fd5b6119d983611888565b156119fa576040516334c7b51160e01b8152600481018490526024016101ca565b611a076000858584611fe2565b611a1083611888565b15611a31576040516334c7b51160e01b8152600481018490526024016101ca565b600260008154611a40906133cf565b909155506001600160a01b0384166000908152600460205260409020611a669084611e86565b5060008381526003602052604080822080546001600160a01b0319166001600160a01b03881690811790915590518592907fb333c813a7426a7a11e2b190cad52c44119421594b47f6f32ace6d8c7207b2bf90611ac8903390889088906133e8565b60405180910390a46000336000868685604051602001611aec95949392919061341d565b6040516020818303038152906040529050610bb38584836120a9565b611b1181611888565b6116b357604051635747cd1b60e11b8152600481018290526024016101ca565b606060006107518361219f565b6000611b498461083f565b9050856001600160a01b0316816001600160a01b031614611b8357808487604051632d938f5160e11b81526004016101ca939291906131ed565b6001600160a01b038516611baa576040516324ecef4d60e01b815260040160405180910390fd5b611bb686868685611fe2565b6000611bc18561083f565b9050806001600160a01b0316826001600160a01b031614611c0f57604051635a9c31d360e01b8152600481018690526001600160a01b038084166024830152821660448201526064016101ca565b611c1987866121fa565b6001600160a01b0387166000908152600460205260409020611c3b9086611d81565b506001600160a01b0386166000908152600460205260409020611c5e9086611e86565b506000858152600360205260409081902080546001600160a01b0319166001600160a01b0389811691821790925591518792918a16907fb333c813a7426a7a11e2b190cad52c44119421594b47f6f32ace6d8c7207b2bf90611cc59033908a908a906133e8565b60405180910390a460003388888887604051602001611ce895949392919061341d565b6040516020818303038152906040529050611d038882612252565b611d0e8786836120a9565b5050505050505050565b33611d2b6000546001600160a01b031690565b6001600160a01b031614610ea75760405162461bcd60e51b815260206004820181905260248201527f4f776e61626c653a2063616c6c6572206973206e6f7420746865206f776e657260448201526064016101ca565b6000610751838361227d565b600061071a825490565b6000546001600160a01b038281169116146116b357600080546001600160a01b038381166001600160a01b0319831681178455604051919092169283917f8be0079c531659141344cd1fd0a4f28419497f9722a3daafe3b4186f6b6457e09190a35050565b7f098a16c9e50e3e99b3e797305c146898d294e5aec55a47e213cb3611ccf17e738201611e3c57604051631b32400560e11b815260040160405180910390fd5b610fc98282612370565b6000610751836001600160a01b03841661237a565b610fc9827f8a1c15a8799f71b547e08e2bcb2e85257e81b0a07eee2ce6712549eef1f00970836123c9565b6000610751838361237a565b6000838152600560205260408120611eaa9087612416565b905080611edc576040516312a8c6a360e21b81526001600160a01b0387166004820152602481018590526044016101ca565b83856001600160a01b0316876001600160a01b03167fc78cd419d6136f9f1c1c6aec1d3fae098cffaf8bc86314a8f2685e32fe574e3c8686604051611f22929190613458565b60405180910390a4505050505050565b604080516001600160b01b0319841660208201526000602a82018190526001600160601b03198416602c83015291829101604051602081830303815290604052905080611f7e90613473565b949350505050565b60006001600160e01b0319821663a918fa6b60e01b148061071a575061071a8261242b565b600080611fbe6301ffc9a760e01b6116b6565b5090506001600160a01b038116611fd85750600092915050565b6107518184612460565b6001600160a01b03841661201c576000611ffb60025490565b60008181526007602090815260408083208790558683526008909152902055505b6001600160a01b0383166120a4576000600161203760025490565b6120419190613497565b60008481526008602052604090205490915081811015612083576000828152600760209081526040808320548484528184208190558352600890915290208190555b50600090815260076020908152604080832083905584835260089091528120555b6112de565b6120ba83631aed5a8560e21b612460565b1561215457604051631aed5a8560e21b81526001600160a01b03841690636bb56a149061210d907f0b084a55ebf70fd3c06fd755269dac2212c4d3f0f4d09079780bfa50c1b2984d9085906004016134aa565b6000604051808303816000875af115801561212c573d6000803e3d6000fd5b505050506040513d6000823e601f3d908101601f191682016040526112de91908101906134c3565b816111f0576001600160a01b0383163b156121845782604051634349776d60e01b81526004016101ca91906128cf565b82604051630317313760e01b81526004016101ca91906128cf565b60608160000180548060200260200160405190810160405280929190818152602001828054801561193b57602002820191906000526020600020905b8154815260200190600101908083116121db5750505050509050919050565b60008181526005602052604081209061221282611d8d565b90506000805b8281101561112d5761222b8460006124f4565b915061224a828787600060405180602001604052806000815250611e92565b600101612218565b610fc9827fb23eae7e6d1564b295b4c3e3be402d9a2f0776c57bdf365903496f6fa481ab00836123c9565b600081815260018301602052604081205480156123665760006122a1600183613497565b85549091506000906122b590600190613497565b905081811461231a5760008660000182815481106122d5576122d56130c4565b90600052602060002001549050808760000184815481106122f8576122f86130c4565b6000918252602080832090910192909255918252600188019052604090208390555b855486908061232b5761232b613530565b60019003818190600052602060002001600090559055856001016000868152602001908152602001600020600090556001935050505061071a565b600091505061071a565b610fc98282612500565b60008181526001830160205260408120546123c15750815460018181018455600084815260208082209093018490558454848252828601909352604090209190915561071a565b50600061071a565b6123e36001600160a01b038416631aed5a8560e21b612460565b156111f057604051631aed5a8560e21b81526001600160a01b03841690636bb56a149061210d90859085906004016134aa565b6000610751836001600160a01b03841661227d565b60006001600160e01b031982166318a6a9a560e21b148061071a57506301ffc9a760e01b6001600160e01b031983161461071a565b6000806301ffc9a760e01b8360405160240161247c9190613068565b604051602081830303815290604052906001600160e01b0319166020820180516001600160e01b03838183161783525050505090506000806000602060008551602087018a617530fa92503d915060005190508280156124dd575060208210155b80156124e95750600081115b979650505050505050565b60006107518383612615565b7f2145e1d6d074577dc71ef54c3807742b41b053a9352ae6b491331509acb9750f8201612540576040516385c169bd60e01b815260040160405180910390fd5b7fd0f59754f88971fe6bc5a6618cc9d5f1e859c58d16b22d1c7b2d3e2b246cd8aa820161258057604051630eceab6760e31b815260040160405180910390fd5b7f1fd9e056a24d14c4abc642fcc325992a946906d0dbc57dd70278aaf12842024d82016125c057604051634ef6d7fb60e01b815260040160405180910390fd5b60008281526001602052604090206125d882826132fa565b50817fece574603820d07bc9b91f2a932baadf4628aabcb8afba49776529c14a6104b282604051612609919061270a565b60405180910390a25050565b600082600001828154811061262c5761262c6130c4565b9060005260206000200154905092915050565b60208152816020820152818360408301376000818301604090810191909152601f909201601f19160101919050565b60006020828403121561268057600080fd5b81356001600160e01b03198116811461075157600080fd5b600080604083850312156126ab57600080fd5b50508035926020909101359150565b60005b838110156126d55781810151838201526020016126bd565b50506000910152565b600081518084526126f68160208601602086016126ba565b601f01601f19169290920160200192915050565b60208152600061075160208301846126de565b634e487b7160e01b600052604160045260246000fd5b604051601f8201601f191681016001600160401b038111828210171561275b5761275b61271d565b604052919050565b60006001600160401b0382111561277c5761277c61271d565b5060051b60200190565b600082601f83011261279757600080fd5b813560206127ac6127a783612763565b612733565b82815260059290921b840181019181810190868411156127cb57600080fd5b8286015b848110156127e657803583529183019183016127cf565b509695505050505050565b6000806040838503121561280457600080fd5b82356001600160401b038082111561281b57600080fd5b61282786838701612786565b9350602085013591508082111561283d57600080fd5b5061284a85828601612786565b9150509250929050565b6000602080830181845280855180835260408601915060408160051b870101925083870160005b828110156128a957603f198886030184526128978583516126de565b9450928501929085019060010161287b565b5092979650505050505050565b6000602082840312156128c857600080fd5b5035919050565b6001600160a01b0391909116815260200190565b80356001600160a01b03811681146128fa57600080fd5b919050565b6000806040838503121561291257600080fd5b61291b836128e3565b946020939093013593505050565b80356001600160a01b0319811681146128fa57600080fd5b803580151581146128fa57600080fd5b60006001600160401b0382111561296a5761296a61271d565b50601f01601f191660200190565b600082601f83011261298957600080fd5b81356129976127a782612951565b8181528460208386010111156129ac57600080fd5b816020850160208301376000918101602001919091529392505050565b600080600080600060a086880312156129e157600080fd5b6129ea866128e3565b94506129f860208701612929565b9350612a0660408701612929565b9250612a1460608701612941565b915060808601356001600160401b03811115612a2f57600080fd5b612a3b88828901612978565b9150509295509295909350565b6020808252825182820181905260009190848201906040850190845b81811015612a895783516001600160a01b031683529284019291840191600101612a64565b50909695505050505050565b600080600080600060a08688031215612aad57600080fd5b612ab6866128e3565b9450612ac4602087016128e3565b935060408601359250612a1460608701612941565b600060208284031215612aeb57600080fd5b61075182612929565b60008060208385031215612b0757600080fd5b82356001600160401b0380821115612b1e57600080fd5b818501915085601f830112612b3257600080fd5b813581811115612b4157600080fd5b8660208260051b8501011115612b5657600080fd5b60209290920196919550909350505050565b600060208284031215612b7a57600080fd5b610751826128e3565b600082601f830112612b9457600080fd5b81356020612ba46127a783612763565b82815260059290921b84018101918181019086841115612bc357600080fd5b8286015b848110156127e657612bd8816128e3565b8352918301918301612bc7565b600082601f830112612bf657600080fd5b81356020612c066127a783612763565b82815260059290921b84018101918181019086841115612c2557600080fd5b8286015b848110156127e657612c3a81612941565b8352918301918301612c29565b600082601f830112612c5857600080fd5b81356020612c686127a783612763565b82815260059290921b84018101918181019086841115612c8757600080fd5b8286015b848110156127e65780356001600160401b03811115612caa5760008081fd5b612cb88986838b0101612978565b845250918301918301612c8b565b600080600080600060a08688031215612cde57600080fd5b85356001600160401b0380821115612cf557600080fd5b612d0189838a01612b83565b96506020880135915080821115612d1757600080fd5b612d2389838a01612b83565b95506040880135915080821115612d3957600080fd5b612d4589838a01612786565b94506060880135915080821115612d5b57600080fd5b612d6789838a01612be5565b93506080880135915080821115612d7d57600080fd5b50612a3b88828901612c47565b60008060408385031215612d9d57600080fd5b8235915060208301356001600160401b03811115612dba57600080fd5b61284a85828601612978565b600080600060608486031215612ddb57600080fd5b612de4846128e3565b92506020840135915060408401356001600160401b03811115612e0657600080fd5b612e1286828701612978565b9150509250925092565b60008060408385031215612e2f57600080fd5b82356001600160401b0380821115612e4657600080fd5b612e5286838701612786565b93506020850135915080821115612e6857600080fd5b5061284a85828601612c47565b6020808252825182820181905260009190848201906040850190845b81811015612a8957835183529284019291840191600101612e91565b600080600060608486031215612ec257600080fd5b83356001600160401b0380821115612ed957600080fd5b612ee587838801612786565b94506020860135915080821115612efb57600080fd5b612f0787838801612786565b93506040860135915080821115612f1d57600080fd5b50612e1286828701612c47565b60008060408385031215612f3d57600080fd5b612f4683612929565b915060208301356001600160401b03811115612dba57600080fd5b600080600060608486031215612f7657600080fd5b833592506020840135915060408401356001600160401b03811115612e0657600080fd5b60008060008060808587031215612fb057600080fd5b612fb9856128e3565b935060208501359250612fce60408601612941565b915060608501356001600160401b03811115612fe957600080fd5b612ff587828801612978565b91505092959194509250565b60006020828403121561301357600080fd5b81356001600160401b0381111561302957600080fd5b611f7e84828501612786565b6000806040838503121561304857600080fd5b61305183612929565b915061305f60208401612929565b90509250929050565b6001600160e01b031991909116815260200190565b8385823760609290921b6001600160601b031916919092019081526014810191909152603401919050565b600082516130ba8184602087016126ba565b9190910192915050565b634e487b7160e01b600052603260045260246000fd5b6000602082840312156130ec57600080fd5b81516001600160d01b03198116811461075157600080fd5b81516001600160d01b03191681526020808301516001600160a01b031990811691830191909152604092830151169181019190915260600190565b60006020828403121561315157600080fd5b5051919050565b6001600160a01b039290921682526001600160a01b031916602082015260400190565b6000808335601e1984360301811261319257600080fd5b8301803591506001600160401b038211156131ac57600080fd5b6020019150368190038213156131c157600080fd5b9250929050565b8183823760009101908152919050565b6001600160a01b031991909116815260200190565b6001600160a01b0393841681526020810192909252909116604082015260600190565b60018060a01b0385168152836020820152821515604082015260806060820152600061323f60808301846126de565b9695505050505050565b805160208201516001600160601b031980821692919060148310156132785780818460140360031b1b83161693505b505050919050565b600181811c9082168061329457607f821691505b6020821081036115a957634e487b7160e01b600052602260045260246000fd5b601f8211156111f057600081815260208120601f850160051c810160208610156132db5750805b601f850160051c820191505b8181101561112d578281556001016132e7565b81516001600160401b038111156133135761331361271d565b613327816133218454613280565b846132b4565b602080601f83116001811461335c57600084156133445750858301515b600019600386901b1c1916600185901b17855561112d565b600085815260208120601f198616915b8281101561338b5788860151825594840194600190910190840161336c565b50858210156133a95787850151600019600388901b60f8161c191681555b5050505050600190811b01905550565b634e487b7160e01b600052601160045260246000fd5b6000600182016133e1576133e16133b9565b5060010190565b6001600160a01b03841681528215156020820152606060408201819052600090613414908301846126de565b95945050505050565b6001600160a01b0386811682528581166020830152841660408201526060810183905260a0608082018190526000906124e9908301846126de565b8215158152604060208201526000611f7e60408301846126de565b805160208083015191908110156115a95760001960209190910360031b1b16919050565b8181038181111561071a5761071a6133b9565b828152604060208201526000611f7e60408301846126de565b6000602082840312156134d557600080fd5b81516001600160401b038111156134eb57600080fd5b8201601f810184136134fc57600080fd5b805161350a6127a782612951565b81815285602083850101111561351f57600080fd5b6134148260208301602086016126ba565b634e487b7160e01b600052603160045260246000fdfea2646970667358221220cc7718f83bb11002b0696364913e6c64088760db2f4478d9ffe65f4edd8bb70064736f6c63430008140033",
  "linkReferences": {
    "contracts/TokenUtils.sol": {
      "TokenUtils": [
        {
          "length": 20,
          "start": 4028
        },
        {
          "length": 20,
          "start": 4186
        },
        {
          "length": 20,
          "start": 4351
        },
        {
          "length": 20,
          "start": 4754
        },
        {
          "length": 20,
          "start": 5216
        },
        {
          "length": 20,
          "start": 6598
        },
        {
          "length": 20,
          "start": 7335
        }
      ]
    }
  },
  "deployedLinkReferences": {
    "contracts/TokenUtils.sol": {
      "TokenUtils": [
        {
          "length": 20,
          "start": 2292
        },
        {
          "length": 20,
          "start": 2450
        },
        {
          "length": 20,
          "start": 2615
        },
        {
          "length": 20,
          "start": 3018
        },
        {
          "length": 20,
          "start": 3480
        },
        {
          "length": 20,
          "start": 4862
        },
        {
          "length": 20,
          "start": 5599
        }
      ]
    }
  }
}