{
  "_format": "hh-sol-artifact-1",
  "contractName": "LSP8MarketplacePrice",
  "sourceName": "contracts/LSP8MarketplacePrice.sol",
  "abi": [
    {
      "inputs": [
        {
          "internalType": "bytes32",
          "name": "key",
          "type": "bytes32"
        }
      ],
      "name": "EnumerableMapNonexistentKey",
      "type": "error"
    },
    {
      "inputs": [
        {
          "internalType": "address",
          "name": "LSP8Address",
          "type": "address"
        },
        {
          "internalType": "bytes32",
          "name": "tokenId",
          "type": "bytes32"
        }
      ],
      "name": "_returnLSP7Prices",
      "outputs": [
        {
          "internalType": "address[]",
          "name": "",
          "type": "address[]"
        },
        {
          "internalType": "uint256[]",
          "name": "",
          "type": "uint256[]"
        }
      ],
      "stateMutability": "view",
      "type": "function"
    },
    {
      "inputs": [
        {
          "internalType": "address",
          "name": "LSP8Address",
          "type": "address"
        },
        {
          "internalType": "bytes32",
          "name": "tokenId",
          "type": "bytes32"
        }
      ],
      "name": "_returnLYXPrice",
      "outputs": [
        {
          "internalType": "uint256",
          "name": "",
          "type": "uint256"
        }
      ],
      "stateMutability": "view",
      "type": "function"
    }
  ],
  "bytecode": "0x608060405234801561001057600080fd5b5061039e806100206000396000f3fe608060405234801561001057600080fd5b50600436106100365760003560e01c8063bd2954401461003b578063e568dd7314610087575b600080fd5b61007461004936600461026f565b6001600160a01b03919091166000908152600260209081526040808320938352929052206005015490565b6040519081526020015b60405180910390f35b61009a61009536600461026f565b6100a8565b60405161007e9291906102a7565b6001600160a01b0382166000908152600260209081526040808320848452909152812060609182919082905b6100dd8361013f565b81101561012a576100fb6100f1848361014f565b6002850190610162565b82828151811061010d5761010d61032b565b60209081029190910101528061012281610341565b9150506100d4565b5061013482610177565b969095509350505050565b6000610149825490565b92915050565b600061015b8383610184565b9392505050565b600061015b836001600160a01b0384166101ae565b6060600061015b83610213565b600082600001828154811061019b5761019b61032b565b9060005260206000200154905092915050565b6000818152600283016020526040812054801580156101ee57506101ec8484600061015b83836000818152600183016020526040812054151561015b565b155b1561015b5760405163015ab34360e11b81526004810184905260240160405180910390fd5b60608160000180548060200260200160405190810160405280929190818152602001828054801561026357602002820191906000526020600020905b81548152602001906001019080831161024f575b50505050509050919050565b6000806040838503121561028257600080fd5b82356001600160a01b038116811461029957600080fd5b946020939093013593505050565b604080825283519082018190526000906020906060840190828701845b828110156102e95781516001600160a01b0316845292840192908401906001016102c4565b5050508381038285015284518082528583019183019060005b8181101561031e57835183529284019291840191600101610302565b5090979650505050505050565b634e487b7160e01b600052603260045260246000fd5b60006001820161036157634e487b7160e01b600052601160045260246000fd5b506001019056fea2646970667358221220d68e112e661a9ca0d5ea1975868c880d94e2c33e671263c09eeacf031b5a8b1964736f6c63430008140033",
  "linkReferences": {},
  "deployedLinkReferences": {}
}