{
  "_format": "hh-sol-artifact-1",
  "contractName": "AssetRegistry",
  "sourceName": "contracts/AssetRegistry.sol",
  "abi": [
    {
      "inputs": [
        {
          "internalType": "address",
          "name": "initialOwner",
          "type": "address"
        }
      ],
      "stateMutability": "nonpayable",
      "type": "constructor"
    },
    {
      "inputs": [],
      "name": "CannotTransferOwnershipToSelf",
      "type": "error"
    },
    {
      "inputs": [
        {
          "internalType": "bytes32",
          "name": "identifier",
          "type": "bytes32"
        }
      ],
      "name": "IdentifierAlreadyExists",
      "type": "error"
    },
    {
      "inputs": [
        {
          "internalType": "bytes32",
          "name": "identifier",
          "type": "bytes32"
        },
        {
          "internalType": "bytes32",
          "name": "tokenId",
          "type": "bytes32"
        }
      ],
      "name": "IdentifierAlreadyRegistered",
      "type": "error"
    },
    {
      "inputs": [],
      "name": "IdentifierCollectionMismatch",
      "type": "error"
    },
    {
      "inputs": [],
      "name": "IdentifierNotRegistered",
      "type": "error"
    },
    {
      "inputs": [],
      "name": "IdentifiersListEmpty",
      "type": "error"
    },
    {
      "inputs": [],
      "name": "LSP14MustAcceptOwnershipInSeparateTransaction",
      "type": "error"
    },
    {
      "inputs": [
        {
          "internalType": "uint256",
          "name": "renounceOwnershipStart",
          "type": "uint256"
        },
        {
          "internalType": "uint256",
          "name": "renounceOwnershipEnd",
          "type": "uint256"
        }
      ],
      "name": "NotInRenounceOwnershipInterval",
      "type": "error"
    },
    {
      "inputs": [],
      "name": "RegistarNotFound",
      "type": "error"
    },
    {
      "anonymous": false,
      "inputs": [
        {
          "indexed": false,
          "internalType": "address",
          "name": "registar",
          "type": "address"
        },
        {
          "indexed": false,
          "internalType": "address",
          "name": "collection",
          "type": "address"
        },
        {
          "indexed": false,
          "internalType": "bytes32",
          "name": "tokenId",
          "type": "bytes32"
        },
        {
          "indexed": false,
          "internalType": "bytes32",
          "name": "identifier",
          "type": "bytes32"
        }
      ],
      "name": "AssetRegistered",
      "type": "event"
    },
    {
      "anonymous": false,
      "inputs": [],
      "name": "OwnershipRenounced",
      "type": "event"
    },
    {
      "anonymous": false,
      "inputs": [
        {
          "indexed": true,
          "internalType": "address",
          "name": "previousOwner",
          "type": "address"
        },
        {
          "indexed": true,
          "internalType": "address",
          "name": "newOwner",
          "type": "address"
        }
      ],
      "name": "OwnershipTransferStarted",
      "type": "event"
    },
    {
      "anonymous": false,
      "inputs": [
        {
          "indexed": true,
          "internalType": "address",
          "name": "previousOwner",
          "type": "address"
        },
        {
          "indexed": true,
          "internalType": "address",
          "name": "newOwner",
          "type": "address"
        }
      ],
      "name": "OwnershipTransferred",
      "type": "event"
    },
    {
      "anonymous": false,
      "inputs": [],
      "name": "RenounceOwnershipStarted",
      "type": "event"
    },
    {
      "inputs": [],
      "name": "RENOUNCE_OWNERSHIP_CONFIRMATION_DELAY",
      "outputs": [
        {
          "internalType": "uint256",
          "name": "",
          "type": "uint256"
        }
      ],
      "stateMutability": "view",
      "type": "function"
    },
    {
      "inputs": [],
      "name": "RENOUNCE_OWNERSHIP_CONFIRMATION_PERIOD",
      "outputs": [
        {
          "internalType": "uint256",
          "name": "",
          "type": "uint256"
        }
      ],
      "stateMutability": "view",
      "type": "function"
    },
    {
      "inputs": [],
      "name": "acceptOwnership",
      "outputs": [],
      "stateMutability": "nonpayable",
      "type": "function"
    },
    {
      "inputs": [
        {
          "internalType": "address",
          "name": "_address",
          "type": "address"
        }
      ],
      "name": "addAddress",
      "outputs": [],
      "stateMutability": "nonpayable",
      "type": "function"
    },
    {
      "inputs": [
        {
          "internalType": "bytes32[]",
          "name": "identifiers",
          "type": "bytes32[]"
        },
        {
          "internalType": "address",
          "name": "collection",
          "type": "address"
        }
      ],
      "name": "addToPool",
      "outputs": [],
      "stateMutability": "nonpayable",
      "type": "function"
    },
    {
      "inputs": [
        {
          "internalType": "bytes32",
          "name": "identifier",
          "type": "bytes32"
        }
      ],
      "name": "checkIdentifier",
      "outputs": [
        {
          "internalType": "address",
          "name": "collection",
          "type": "address"
        },
        {
          "internalType": "bytes32",
          "name": "tokenId",
          "type": "bytes32"
        }
      ],
      "stateMutability": "view",
      "type": "function"
    },
    {
      "inputs": [
        {
          "internalType": "address",
          "name": "collection",
          "type": "address"
        },
        {
          "internalType": "bytes32",
          "name": "tokenId",
          "type": "bytes32"
        }
      ],
      "name": "checkToken",
      "outputs": [
        {
          "internalType": "bytes32",
          "name": "identifier",
          "type": "bytes32"
        }
      ],
      "stateMutability": "view",
      "type": "function"
    },
    {
      "inputs": [
        {
          "internalType": "uint256",
          "name": "index",
          "type": "uint256"
        }
      ],
      "name": "identifierAt",
      "outputs": [
        {
          "internalType": "bytes32",
          "name": "",
          "type": "bytes32"
        }
      ],
      "stateMutability": "view",
      "type": "function"
    },
    {
      "inputs": [],
      "name": "owner",
      "outputs": [
        {
          "internalType": "address",
          "name": "",
          "type": "address"
        }
      ],
      "stateMutability": "view",
      "type": "function"
    },
    {
      "inputs": [],
      "name": "pendingOwner",
      "outputs": [
        {
          "internalType": "address",
          "name": "",
          "type": "address"
        }
      ],
      "stateMutability": "view",
      "type": "function"
    },
    {
      "inputs": [
        {
          "internalType": "uint256",
          "name": "index",
          "type": "uint256"
        }
      ],
      "name": "registarAt",
      "outputs": [
        {
          "internalType": "address",
          "name": "",
          "type": "address"
        }
      ],
      "stateMutability": "view",
      "type": "function"
    },
    {
      "inputs": [
        {
          "internalType": "bytes32",
          "name": "identifier",
          "type": "bytes32"
        },
        {
          "internalType": "address",
          "name": "collection",
          "type": "address"
        },
        {
          "internalType": "bytes32",
          "name": "tokenId",
          "type": "bytes32"
        }
      ],
      "name": "register",
      "outputs": [],
      "stateMutability": "nonpayable",
      "type": "function"
    },
    {
      "inputs": [
        {
          "internalType": "address",
          "name": "_address",
          "type": "address"
        }
      ],
      "name": "removeAddress",
      "outputs": [],
      "stateMutability": "nonpayable",
      "type": "function"
    },
    {
      "inputs": [],
      "name": "renounceOwnership",
      "outputs": [],
      "stateMutability": "nonpayable",
      "type": "function"
    },
    {
      "inputs": [],
      "name": "totalRegistars",
      "outputs": [
        {
          "internalType": "uint256",
          "name": "",
          "type": "uint256"
        }
      ],
      "stateMutability": "view",
      "type": "function"
    },
    {
      "inputs": [],
      "name": "totalSupply",
      "outputs": [
        {
          "internalType": "uint256",
          "name": "",
          "type": "uint256"
        }
      ],
      "stateMutability": "view",
      "type": "function"
    },
    {
      "inputs": [
        {
          "internalType": "address",
          "name": "newOwner",
          "type": "address"
        }
      ],
      "name": "transferOwnership",
      "outputs": [],
      "stateMutability": "nonpayable",
      "type": "function"
    }
  ],
  "bytecode": "0x608060405234801561001057600080fd5b5060405161119938038061119983398101604081905261002f916100a4565b6100388161003e565b506100d4565b6000546001600160a01b038281169116146100a157600080546001600160a01b038381166001600160a01b0319831681178455604051919092169283917f8be0079c531659141344cd1fd0a4f28419497f9722a3daafe3b4186f6b6457e09190a3505b50565b6000602082840312156100b657600080fd5b81516001600160a01b03811681146100cd57600080fd5b9392505050565b6110b6806100e36000396000f3fe608060405234801561001057600080fd5b50600436106100eb5760003560e01c8063715018a611610092578063715018a61461018757806379ba50971461018f5780638da5cb5b14610197578063d190a0ef146101b7578063d384fad0146101ca578063e30c397814610220578063e3fc39fa14610231578063ead3fbdf146100f0578063f2fde38b1461023957600080fd5b806301bfba61146100f0578063121a42c01461010b57806317ac89021461011e57806318160ddd1461013357806338eada1c1461013b5780634ba79dfe1461014e578063544eb3e3146101615780635c6a410114610174575b600080fd5b6100f860c881565b6040519081526020015b60405180910390f35b6100f8610119366004610d59565b61024c565b61013161012c366004610d8e565b61025f565b005b6100f86103d7565b610131610149366004610dc3565b6103e8565b61013161015c366004610dc3565b6103ff565b6100f861016f366004610dde565b610412565b610131610182366004610e4f565b610458565b610131610585565b610131610601565b61019f6106c1565b6040516001600160a01b039091168152602001610102565b61019f6101c5366004610d59565b6106d0565b6102016101d8366004610d59565b6000908152600860209081526040808320546007909252909120546001600160a01b0390911691565b604080516001600160a01b039093168352602083019190915201610102565b6002546001600160a01b031661019f565b6100f86106dd565b610131610247366004610dc3565b6106e9565b60006102596005836107af565b92915050565b61026a6003336107c2565b61028757604051631d77ff4b60e01b815260040160405180910390fd5b6000838152600760209081526040808320546008909252909120546001600160a01b03166102b66005866107e4565b6102d35760405163974c75e360e01b815260040160405180910390fd5b811561030157604051632b9460d360e21b815260048101869052602481018390526044015b60405180910390fd5b836001600160a01b0316816001600160a01b0316146103335760405163b1c57fab60e01b815260040160405180910390fd5b60008460601b8460405160200161034b929190610f07565b60408051808303601f19018152828252805160209182012060008a815260078352838120899055818152600983528390208a90553384526001600160a01b038916918401919091529082018690526060820188905291507fe9e31876cc1ff8b1706cdf1cd06fa8d4488563e4151b84b797cea24a35ea63c29060800160405180910390a1505050505050565b60006103e360056107fc565b905090565b6103f0610806565b6103fb600382610867565b5050565b610407610806565b6103fb60038261087c565b6000808360601b8360405160200161042b929190610f07565b60408051601f19818403018152918152815160209283012060009081526009909252902054949350505050565b610460610806565b815160000361048257604051633d49550760e21b815260040160405180910390fd5b60005b8251811015610580576104bb8382815181106104a3576104a3610f26565b602002602001015160056107e490919063ffffffff16565b156104f6578281815181106104d2576104d2610f26565b6020026020010151604051636c8affe360e11b81526004016102f891815260200190565b61052383828151811061050b5761050b610f26565b6020026020010151600561089190919063ffffffff16565b50816008600085848151811061053b5761053b610f26565b6020026020010151815260200190815260200160002060006101000a8154816001600160a01b0302191690836001600160a01b03160217905550806001019050610485565b505050565b61058d610806565b60006105976106c1565b90506105a161089d565b60006105ab6106c1565b6001600160a01b0316036105fe576040805160208101909152600081526105fe906001600160a01b038316907fa124442e1cc7b52d8e2ede2787d43527dc1f3ae0de87f50dd03e27a71834f74c90610990565b50565b600254600160a01b900460ff161561062c57604051635758dd0760e01b815260040160405180910390fd5b60006106366106c1565b9050610640610a21565b604080516020810190915260008152610685906001600160a01b038316907fa124442e1cc7b52d8e2ede2787d43527dc1f3ae0de87f50dd03e27a71834f74c90610990565b6040805160208101909152600081526105fe9033907fe32c7debcb817925ba4883fdbfc52797187f28f73f860641dab1a68d9b32902c90610990565b6000546001600160a01b031690565b60006102596003836107af565b60006103e360036107fc565b6106f1610806565b6002805460ff60a01b1916600160a01b17905561070d81610aa4565b60006107176106c1565b9050816001600160a01b0316816001600160a01b03167f38d16b8cac22d99fc7c124b9cd0de2d3fa1faef420bfe791d8c362d765e2270060405160405180910390a360408051602081019091526000815261079e906001600160a01b038416907fee9a7c0924f740a2ca33d59b7f0c2929821ea9837ce043ce91c1823e9c4e52c090610990565b50506002805460ff60a01b19169055565b60006107bb8383610af4565b9392505050565b6001600160a01b038116600090815260018301602052604081205415156107bb565b600081815260018301602052604081205415156107bb565b6000610259825490565b3361080f6106c1565b6001600160a01b0316146108655760405162461bcd60e51b815260206004820181905260248201527f4f776e61626c653a2063616c6c6572206973206e6f7420746865206f776e657260448201526064016102f8565b565b60006107bb836001600160a01b038416610b1e565b60006107bb836001600160a01b038416610b6d565b60006107bb8383610b1e565b60015443906000906108b19060c890610f52565b905060006108c060c883610f52565b9050808311806108d05750600154155b15610918576001839055600280546001600160a01b03191690556040517f81b7f830f1f0084db6497c486cbe6974c86488dcc4e3738eab94ab6d6b1653e790600090a1505050565b8183101561094357604051638b9bf50760e01b815260048101839052602481018290526044016102f8565b61094d6000610c60565b60006001819055600280546001600160a01b03191690556040517fd1f66c3d2bc1993a86be5e3d33709d98f0442381befcedd29f578b9b2506b1ce9190a1505050565b6109a183631aed5a8560e21b610cd0565b1561058057604051631aed5a8560e21b81526001600160a01b03841690636bb56a14906109d49085908590600401610f89565b6000604051808303816000875af11580156109f3573d6000803e3d6000fd5b505050506040513d6000823e601f3d908101601f19168201604052610a1b9190810190610fc3565b50505050565b6002546001600160a01b03163314610a895760405162461bcd60e51b815260206004820152602560248201527f4c535031343a2063616c6c6572206973206e6f74207468652070656e64696e6760448201526427bbb732b960d91b60648201526084016102f8565b610a9233610c60565b600280546001600160a01b0319169055565b306001600160a01b03821603610acd576040516343b248cd60e01b815260040160405180910390fd5b600280546001600160a01b0319166001600160a01b03929092169190911790556000600155565b6000826000018281548110610b0b57610b0b610f26565b9060005260206000200154905092915050565b6000818152600183016020526040812054610b6557508154600181810184556000848152602080822090930184905584548482528286019093526040902091909155610259565b506000610259565b60008181526001830160205260408120548015610c56576000610b91600183611057565b8554909150600090610ba590600190611057565b9050818114610c0a576000866000018281548110610bc557610bc5610f26565b9060005260206000200154905080876000018481548110610be857610be8610f26565b6000918252602080832090910192909255918252600188019052604090208390555b8554869080610c1b57610c1b61106a565b600190038181906000526020600020016000905590558560010160008681526020019081526020016000206000905560019350505050610259565b6000915050610259565b610c686106c1565b6001600160a01b0316816001600160a01b0316146105fe57600080546001600160a01b038381166001600160a01b0319831681178455604051919092169283917f8be0079c531659141344cd1fd0a4f28419497f9722a3daafe3b4186f6b6457e09190a35050565b604080516001600160e01b03198316602480830191909152825180830390910181526044909101909152602080820180516001600160e01b03166301ffc9a760e01b178152825160009392849283928392918391908a617530fa92503d91506000519050828015610d42575060208210155b8015610d4e5750600081115b979650505050505050565b600060208284031215610d6b57600080fd5b5035919050565b80356001600160a01b0381168114610d8957600080fd5b919050565b600080600060608486031215610da357600080fd5b83359250610db360208501610d72565b9150604084013590509250925092565b600060208284031215610dd557600080fd5b6107bb82610d72565b60008060408385031215610df157600080fd5b610dfa83610d72565b946020939093013593505050565b634e487b7160e01b600052604160045260246000fd5b604051601f8201601f1916810167ffffffffffffffff81118282101715610e4757610e47610e08565b604052919050565b60008060408385031215610e6257600080fd5b823567ffffffffffffffff80821115610e7a57600080fd5b818501915085601f830112610e8e57600080fd5b8135602082821115610ea257610ea2610e08565b8160051b9250610eb3818401610e1e565b8281529284018101928181019089851115610ecd57600080fd5b948201945b84861015610eeb57853582529482019490820190610ed2565b9650610efa9050878201610d72565b9450505050509250929050565b6bffffffffffffffffffffffff19929092168252601482015260340190565b634e487b7160e01b600052603260045260246000fd5b634e487b7160e01b600052601160045260246000fd5b8082018082111561025957610259610f3c565b60005b83811015610f80578181015183820152602001610f68565b50506000910152565b8281526040602082015260008251806040840152610fae816060850160208701610f65565b601f01601f1916919091016060019392505050565b600060208284031215610fd557600080fd5b815167ffffffffffffffff80821115610fed57600080fd5b818401915084601f83011261100157600080fd5b81518181111561101357611013610e08565b611026601f8201601f1916602001610e1e565b915080825285602082850101111561103d57600080fd5b61104e816020840160208601610f65565b50949350505050565b8181038181111561025957610259610f3c565b634e487b7160e01b600052603160045260246000fdfea2646970667358221220a5129b5da9197a34cc720be1e030e0759aca2efce21f53cf072472bcd592a7e064736f6c63430008130033",
  "linkReferences": {},
  "deployedLinkReferences": {}
}