{
  "_format": "hh-sol-artifact-1",
  "contractName": "AssetRegistry",
  "sourceName": "contracts/AssetRegistry.sol",
  "abi": [
    {
      "inputs": [
        {
          "internalType": "address",
          "name": "initialOwner",
          "type": "address"
        }
      ],
      "stateMutability": "nonpayable",
      "type": "constructor"
    },
    {
      "inputs": [
        {
          "internalType": "bytes32",
          "name": "identifier",
          "type": "bytes32"
        }
      ],
      "name": "IdentifierAlreadyExists",
      "type": "error"
    },
    {
      "inputs": [
        {
          "internalType": "bytes32",
          "name": "identifier",
          "type": "bytes32"
        },
        {
          "internalType": "bytes32",
          "name": "tokenId",
          "type": "bytes32"
        }
      ],
      "name": "IdentifierAlreadyRegistered",
      "type": "error"
    },
    {
      "inputs": [],
      "name": "IdentifierCollectionMismatch",
      "type": "error"
    },
    {
      "inputs": [],
      "name": "IdentifierNotRegistered",
      "type": "error"
    },
    {
      "inputs": [],
      "name": "IdentifiersListEmpty",
      "type": "error"
    },
    {
      "inputs": [
        {
          "internalType": "address",
          "name": "caller",
          "type": "address"
        }
      ],
      "name": "LSP14CallerNotPendingOwner",
      "type": "error"
    },
    {
      "inputs": [],
      "name": "LSP14CannotTransferOwnershipToSelf",
      "type": "error"
    },
    {
      "inputs": [],
      "name": "LSP14MustAcceptOwnershipInSeparateTransaction",
      "type": "error"
    },
    {
      "inputs": [
        {
          "internalType": "uint256",
          "name": "renounceOwnershipStart",
          "type": "uint256"
        },
        {
          "internalType": "uint256",
          "name": "renounceOwnershipEnd",
          "type": "uint256"
        }
      ],
      "name": "LSP14NotInRenounceOwnershipInterval",
      "type": "error"
    },
    {
      "inputs": [],
      "name": "RegistarNotFound",
      "type": "error"
    },
    {
      "anonymous": false,
      "inputs": [
        {
          "indexed": false,
          "internalType": "address",
          "name": "registar",
          "type": "address"
        },
        {
          "indexed": false,
          "internalType": "address",
          "name": "collection",
          "type": "address"
        },
        {
          "indexed": false,
          "internalType": "bytes32",
          "name": "tokenId",
          "type": "bytes32"
        },
        {
          "indexed": false,
          "internalType": "bytes32",
          "name": "identifier",
          "type": "bytes32"
        }
      ],
      "name": "AssetRegistered",
      "type": "event"
    },
    {
      "anonymous": false,
      "inputs": [],
      "name": "OwnershipRenounced",
      "type": "event"
    },
    {
      "anonymous": false,
      "inputs": [
        {
          "indexed": true,
          "internalType": "address",
          "name": "previousOwner",
          "type": "address"
        },
        {
          "indexed": true,
          "internalType": "address",
          "name": "newOwner",
          "type": "address"
        }
      ],
      "name": "OwnershipTransferStarted",
      "type": "event"
    },
    {
      "anonymous": false,
      "inputs": [
        {
          "indexed": true,
          "internalType": "address",
          "name": "previousOwner",
          "type": "address"
        },
        {
          "indexed": true,
          "internalType": "address",
          "name": "newOwner",
          "type": "address"
        }
      ],
      "name": "OwnershipTransferred",
      "type": "event"
    },
    {
      "anonymous": false,
      "inputs": [],
      "name": "RenounceOwnershipStarted",
      "type": "event"
    },
    {
      "inputs": [],
      "name": "RENOUNCE_OWNERSHIP_CONFIRMATION_DELAY",
      "outputs": [
        {
          "internalType": "uint256",
          "name": "",
          "type": "uint256"
        }
      ],
      "stateMutability": "view",
      "type": "function"
    },
    {
      "inputs": [],
      "name": "RENOUNCE_OWNERSHIP_CONFIRMATION_PERIOD",
      "outputs": [
        {
          "internalType": "uint256",
          "name": "",
          "type": "uint256"
        }
      ],
      "stateMutability": "view",
      "type": "function"
    },
    {
      "inputs": [],
      "name": "acceptOwnership",
      "outputs": [],
      "stateMutability": "nonpayable",
      "type": "function"
    },
    {
      "inputs": [
        {
          "internalType": "address",
          "name": "_address",
          "type": "address"
        }
      ],
      "name": "addAddress",
      "outputs": [],
      "stateMutability": "nonpayable",
      "type": "function"
    },
    {
      "inputs": [
        {
          "internalType": "bytes32[]",
          "name": "identifiers",
          "type": "bytes32[]"
        },
        {
          "internalType": "address",
          "name": "collection",
          "type": "address"
        }
      ],
      "name": "addToPool",
      "outputs": [],
      "stateMutability": "nonpayable",
      "type": "function"
    },
    {
      "inputs": [
        {
          "internalType": "bytes32",
          "name": "identifier",
          "type": "bytes32"
        }
      ],
      "name": "checkIdentifier",
      "outputs": [
        {
          "internalType": "address",
          "name": "collection",
          "type": "address"
        },
        {
          "internalType": "bytes32",
          "name": "tokenId",
          "type": "bytes32"
        }
      ],
      "stateMutability": "view",
      "type": "function"
    },
    {
      "inputs": [
        {
          "internalType": "address",
          "name": "collection",
          "type": "address"
        },
        {
          "internalType": "bytes32",
          "name": "tokenId",
          "type": "bytes32"
        }
      ],
      "name": "checkToken",
      "outputs": [
        {
          "internalType": "bytes32",
          "name": "identifier",
          "type": "bytes32"
        }
      ],
      "stateMutability": "view",
      "type": "function"
    },
    {
      "inputs": [
        {
          "internalType": "uint256",
          "name": "index",
          "type": "uint256"
        }
      ],
      "name": "identifierAt",
      "outputs": [
        {
          "internalType": "bytes32",
          "name": "",
          "type": "bytes32"
        }
      ],
      "stateMutability": "view",
      "type": "function"
    },
    {
      "inputs": [],
      "name": "owner",
      "outputs": [
        {
          "internalType": "address",
          "name": "",
          "type": "address"
        }
      ],
      "stateMutability": "view",
      "type": "function"
    },
    {
      "inputs": [],
      "name": "pendingOwner",
      "outputs": [
        {
          "internalType": "address",
          "name": "",
          "type": "address"
        }
      ],
      "stateMutability": "view",
      "type": "function"
    },
    {
      "inputs": [
        {
          "internalType": "uint256",
          "name": "index",
          "type": "uint256"
        }
      ],
      "name": "registarAt",
      "outputs": [
        {
          "internalType": "address",
          "name": "",
          "type": "address"
        }
      ],
      "stateMutability": "view",
      "type": "function"
    },
    {
      "inputs": [
        {
          "internalType": "bytes32",
          "name": "identifier",
          "type": "bytes32"
        },
        {
          "internalType": "address",
          "name": "collection",
          "type": "address"
        },
        {
          "internalType": "bytes32",
          "name": "tokenId",
          "type": "bytes32"
        }
      ],
      "name": "register",
      "outputs": [],
      "stateMutability": "nonpayable",
      "type": "function"
    },
    {
      "inputs": [
        {
          "internalType": "address",
          "name": "_address",
          "type": "address"
        }
      ],
      "name": "removeAddress",
      "outputs": [],
      "stateMutability": "nonpayable",
      "type": "function"
    },
    {
      "inputs": [],
      "name": "renounceOwnership",
      "outputs": [],
      "stateMutability": "nonpayable",
      "type": "function"
    },
    {
      "inputs": [],
      "name": "totalRegistars",
      "outputs": [
        {
          "internalType": "uint256",
          "name": "",
          "type": "uint256"
        }
      ],
      "stateMutability": "view",
      "type": "function"
    },
    {
      "inputs": [],
      "name": "totalSupply",
      "outputs": [
        {
          "internalType": "uint256",
          "name": "",
          "type": "uint256"
        }
      ],
      "stateMutability": "view",
      "type": "function"
    },
    {
      "inputs": [
        {
          "internalType": "address",
          "name": "newOwner",
          "type": "address"
        }
      ],
      "name": "transferOwnership",
      "outputs": [],
      "stateMutability": "nonpayable",
      "type": "function"
    }
  ],
  "bytecode": "0x608060405234801561001057600080fd5b506040516111be3803806111be83398101604081905261002f916100a4565b6100388161003e565b506100d4565b6000546001600160a01b038281169116146100a157600080546001600160a01b038381166001600160a01b0319831681178455604051919092169283917f8be0079c531659141344cd1fd0a4f28419497f9722a3daafe3b4186f6b6457e09190a3505b50565b6000602082840312156100b657600080fd5b81516001600160a01b03811681146100cd57600080fd5b9392505050565b6110db806100e36000396000f3fe608060405234801561001057600080fd5b50600436106100eb5760003560e01c8063715018a611610092578063715018a61461018757806379ba50971461018f5780638da5cb5b14610197578063d190a0ef146101b7578063d384fad0146101ca578063e30c397814610220578063e3fc39fa14610231578063ead3fbdf146100f0578063f2fde38b1461023957600080fd5b806301bfba61146100f0578063121a42c01461010b57806317ac89021461011e57806318160ddd1461013357806338eada1c1461013b5780634ba79dfe1461014e578063544eb3e3146101615780635c6a410114610174575b600080fd5b6100f860c881565b6040519081526020015b60405180910390f35b6100f8610119366004610d64565b61024c565b61013161012c366004610d99565b61025f565b005b6100f86103d7565b610131610149366004610dce565b6103e8565b61013161015c366004610dce565b6103ff565b6100f861016f366004610de9565b610412565b610131610182366004610e5a565b610458565b610131610585565b610131610618565b61019f6106e3565b6040516001600160a01b039091168152602001610102565b61019f6101c5366004610d64565b6106f2565b6102016101d8366004610d64565b6000908152600860209081526040808320546007909252909120546001600160a01b0390911691565b604080516001600160a01b039093168352602083019190915201610102565b6002546001600160a01b031661019f565b6100f86106ff565b610131610247366004610dce565b61070b565b60006102596005836107e7565b92915050565b61026a6003336107fa565b61028757604051631d77ff4b60e01b815260040160405180910390fd5b6000838152600760209081526040808320546008909252909120546001600160a01b03166102b660058661081c565b6102d35760405163974c75e360e01b815260040160405180910390fd5b811561030157604051632b9460d360e21b815260048101869052602481018390526044015b60405180910390fd5b836001600160a01b0316816001600160a01b0316146103335760405163b1c57fab60e01b815260040160405180910390fd5b60008460601b8460405160200161034b929190610f12565b60408051808303601f19018152828252805160209182012060008a815260078352838120899055818152600983528390208a90553384526001600160a01b038916918401919091529082018690526060820188905291507fe9e31876cc1ff8b1706cdf1cd06fa8d4488563e4151b84b797cea24a35ea63c29060800160405180910390a1505050505050565b60006103e36005610834565b905090565b6103f061083e565b6103fb60038261089f565b5050565b61040761083e565b6103fb6003826108b4565b6000808360601b8360405160200161042b929190610f12565b60408051601f19818403018152918152815160209283012060009081526009909252902054949350505050565b61046061083e565b815160000361048257604051633d49550760e21b815260040160405180910390fd5b60005b8251811015610580576104bb8382815181106104a3576104a3610f31565b6020026020010151600561081c90919063ffffffff16565b156104f6578281815181106104d2576104d2610f31565b6020026020010151604051636c8affe360e11b81526004016102f891815260200190565b61052383828151811061050b5761050b610f31565b602002602001015160056108c990919063ffffffff16565b50816008600085848151811061053b5761053b610f31565b6020026020010151815260200190815260200160002060006101000a8154816001600160a01b0302191690836001600160a01b03160217905550806001019050610485565b505050565b61058d61083e565b60006105976106e3565b90506105a16108d5565b60006105ab6106e3565b6001600160a01b031603610615576106157fa124442e1cc7b52d8e2ede2787d43527dc1f3ae0de87f50dd03e27a71834f74c60001b8260006040516020016105f4929190610f47565b60408051601f198184030181529190526001600160a01b03841691906109c8565b50565b600254600160a01b900460ff161561064357604051635758dd0760e01b815260040160405180910390fd5b600061064d6106e3565b9050610657610a62565b6106917fa124442e1cc7b52d8e2ede2787d43527dc1f3ae0de87f50dd03e27a71834f74c60001b82336040516020016105f4929190610f47565b6106157fe32c7debcb817925ba4883fdbfc52797187f28f73f860641dab1a68d9b32902c60001b82336040516020016106cb929190610f47565b60408051601f198184030181529190523391906109c8565b6000546001600160a01b031690565b60006102596003836107e7565b60006103e36003610834565b61071361083e565b6002805460ff60a01b1916600160a01b17905561072f81610aaf565b60006107396106e3565b9050816001600160a01b0316816001600160a01b03167f38d16b8cac22d99fc7c124b9cd0de2d3fa1faef420bfe791d8c362d765e2270060405160405180910390a36107d67fee9a7c0924f740a2ca33d59b7f0c2929821ea9837ce043ce91c1823e9c4e52c060001b82846040516020016107b5929190610f47565b60408051601f198184030181529190526001600160a01b03851691906109c8565b50506002805460ff60a01b19169055565b60006107f38383610aff565b9392505050565b6001600160a01b038116600090815260018301602052604081205415156107f3565b600081815260018301602052604081205415156107f3565b6000610259825490565b336108476106e3565b6001600160a01b03161461089d5760405162461bcd60e51b815260206004820181905260248201527f4f776e61626c653a2063616c6c6572206973206e6f7420746865206f776e657260448201526064016102f8565b565b60006107f3836001600160a01b038416610b29565b60006107f3836001600160a01b038416610b78565b60006107f38383610b29565b60015443906000906108e99060c890610f77565b905060006108f860c883610f77565b9050808311806109085750600154155b15610950576001839055600280546001600160a01b03191690556040517f81b7f830f1f0084db6497c486cbe6974c86488dcc4e3738eab94ab6d6b1653e790600090a1505050565b8183101561097b57604051630d8404a160e11b815260048101839052602481018290526044016102f8565b6109856000610c6b565b60006001819055600280546001600160a01b03191690556040517fd1f66c3d2bc1993a86be5e3d33709d98f0442381befcedd29f578b9b2506b1ce9190a1505050565b6109e26001600160a01b038416631aed5a8560e21b610cdb565b1561058057604051631aed5a8560e21b81526001600160a01b03841690636bb56a1490610a159085908590600401610fae565b6000604051808303816000875af1158015610a34573d6000803e3d6000fd5b505050506040513d6000823e601f3d908101601f19168201604052610a5c9190810190610fe8565b50505050565b6002546001600160a01b03163314610a8f576040516308a3c8a560e31b81523360048201526024016102f8565b610a9833610c6b565b600280546001600160a01b03191690556000600155565b306001600160a01b03821603610ad857604051631c0a54df60e31b815260040160405180910390fd5b600280546001600160a01b0319166001600160a01b03929092169190911790556000600155565b6000826000018281548110610b1657610b16610f31565b9060005260206000200154905092915050565b6000818152600183016020526040812054610b7057508154600181810184556000848152602080822090930184905584548482528286019093526040902091909155610259565b506000610259565b60008181526001830160205260408120548015610c61576000610b9c60018361107c565b8554909150600090610bb09060019061107c565b9050818114610c15576000866000018281548110610bd057610bd0610f31565b9060005260206000200154905080876000018481548110610bf357610bf3610f31565b6000918252602080832090910192909255918252600188019052604090208390555b8554869080610c2657610c2661108f565b600190038181906000526020600020016000905590558560010160008681526020019081526020016000206000905560019350505050610259565b6000915050610259565b610c736106e3565b6001600160a01b0316816001600160a01b03161461061557600080546001600160a01b038381166001600160a01b0319831681178455604051919092169283917f8be0079c531659141344cd1fd0a4f28419497f9722a3daafe3b4186f6b6457e09190a35050565b604080516001600160e01b03198316602480830191909152825180830390910181526044909101909152602080820180516001600160e01b03166301ffc9a760e01b178152825160009392849283928392918391908a617530fa92503d91506000519050828015610d4d575060208210155b8015610d595750600081115b979650505050505050565b600060208284031215610d7657600080fd5b5035919050565b80356001600160a01b0381168114610d9457600080fd5b919050565b600080600060608486031215610dae57600080fd5b83359250610dbe60208501610d7d565b9150604084013590509250925092565b600060208284031215610de057600080fd5b6107f382610d7d565b60008060408385031215610dfc57600080fd5b610e0583610d7d565b946020939093013593505050565b634e487b7160e01b600052604160045260246000fd5b604051601f8201601f1916810167ffffffffffffffff81118282101715610e5257610e52610e13565b604052919050565b60008060408385031215610e6d57600080fd5b823567ffffffffffffffff80821115610e8557600080fd5b818501915085601f830112610e9957600080fd5b8135602082821115610ead57610ead610e13565b8160051b9250610ebe818401610e29565b8281529284018101928181019089851115610ed857600080fd5b948201945b84861015610ef657853582529482019490820190610edd565b9650610f059050878201610d7d565b9450505050509250929050565b6bffffffffffffffffffffffff19929092168252601482015260340190565b634e487b7160e01b600052603260045260246000fd5b6001600160a01b0392831681529116602082015260400190565b634e487b7160e01b600052601160045260246000fd5b8082018082111561025957610259610f61565b60005b83811015610fa5578181015183820152602001610f8d565b50506000910152565b8281526040602082015260008251806040840152610fd3816060850160208701610f8a565b601f01601f1916919091016060019392505050565b600060208284031215610ffa57600080fd5b815167ffffffffffffffff8082111561101257600080fd5b818401915084601f83011261102657600080fd5b81518181111561103857611038610e13565b61104b601f8201601f1916602001610e29565b915080825285602082850101111561106257600080fd5b611073816020840160208601610f8a565b50949350505050565b8181038181111561025957610259610f61565b634e487b7160e01b600052603160045260246000fdfea2646970667358221220233a7a78eb184ea3fce5d952be3035ea42cf0b4283145e2d3a58dcb7c0f34e9a64736f6c63430008130033",
  "linkReferences": {},
  "deployedLinkReferences": {}
}