{
  "_format": "hh-sol-artifact-1",
  "contractName": "FamilyNft",
  "sourceName": "contracts/testNFT.sol",
  "abi": [
    {
      "inputs": [],
      "stateMutability": "nonpayable",
      "type": "constructor"
    },
    {
      "inputs": [],
      "name": "ERC725Y_DataKeysValuesEmptyArray",
      "type": "error"
    },
    {
      "inputs": [],
      "name": "ERC725Y_DataKeysValuesLengthMismatch",
      "type": "error"
    },
    {
      "inputs": [],
      "name": "ERC725Y_MsgValueDisallowed",
      "type": "error"
    },
    {
      "inputs": [
        {
          "internalType": "bytes",
          "name": "storedData",
          "type": "bytes"
        }
      ],
      "name": "InvalidExtensionAddress",
      "type": "error"
    },
    {
      "inputs": [
        {
          "internalType": "bytes",
          "name": "data",
          "type": "bytes"
        }
      ],
      "name": "InvalidFunctionSelector",
      "type": "error"
    },
    {
      "inputs": [],
      "name": "LSP4TokenNameNotEditable",
      "type": "error"
    },
    {
      "inputs": [],
      "name": "LSP4TokenSymbolNotEditable",
      "type": "error"
    },
    {
      "inputs": [],
      "name": "LSP4TokenTypeNotEditable",
      "type": "error"
    },
    {
      "inputs": [
        {
          "internalType": "uint256",
          "name": "callIndex",
          "type": "uint256"
        }
      ],
      "name": "LSP8BatchCallFailed",
      "type": "error"
    },
    {
      "inputs": [],
      "name": "LSP8CannotSendToAddressZero",
      "type": "error"
    },
    {
      "inputs": [],
      "name": "LSP8CannotUseAddressZeroAsOperator",
      "type": "error"
    },
    {
      "inputs": [],
      "name": "LSP8InvalidTransferBatch",
      "type": "error"
    },
    {
      "inputs": [
        {
          "internalType": "bytes32",
          "name": "tokenId",
          "type": "bytes32"
        }
      ],
      "name": "LSP8NonExistentTokenId",
      "type": "error"
    },
    {
      "inputs": [
        {
          "internalType": "address",
          "name": "operator",
          "type": "address"
        },
        {
          "internalType": "bytes32",
          "name": "tokenId",
          "type": "bytes32"
        }
      ],
      "name": "LSP8NonExistingOperator",
      "type": "error"
    },
    {
      "inputs": [
        {
          "internalType": "bytes32",
          "name": "tokenId",
          "type": "bytes32"
        },
        {
          "internalType": "address",
          "name": "caller",
          "type": "address"
        }
      ],
      "name": "LSP8NotTokenOperator",
      "type": "error"
    },
    {
      "inputs": [
        {
          "internalType": "address",
          "name": "tokenOwner",
          "type": "address"
        },
        {
          "internalType": "bytes32",
          "name": "tokenId",
          "type": "bytes32"
        },
        {
          "internalType": "address",
          "name": "caller",
          "type": "address"
        }
      ],
      "name": "LSP8NotTokenOwner",
      "type": "error"
    },
    {
      "inputs": [
        {
          "internalType": "address",
          "name": "tokenReceiver",
          "type": "address"
        }
      ],
      "name": "LSP8NotifyTokenReceiverContractMissingLSP1Interface",
      "type": "error"
    },
    {
      "inputs": [
        {
          "internalType": "address",
          "name": "tokenReceiver",
          "type": "address"
        }
      ],
      "name": "LSP8NotifyTokenReceiverIsEOA",
      "type": "error"
    },
    {
      "inputs": [
        {
          "internalType": "address",
          "name": "operator",
          "type": "address"
        },
        {
          "internalType": "bytes32",
          "name": "tokenId",
          "type": "bytes32"
        }
      ],
      "name": "LSP8OperatorAlreadyAuthorized",
      "type": "error"
    },
    {
      "inputs": [
        {
          "internalType": "address",
          "name": "caller",
          "type": "address"
        },
        {
          "internalType": "address",
          "name": "tokenOwner",
          "type": "address"
        },
        {
          "internalType": "bytes32",
          "name": "tokenId",
          "type": "bytes32"
        }
      ],
      "name": "LSP8RevokeOperatorNotAuthorized",
      "type": "error"
    },
    {
      "inputs": [],
      "name": "LSP8TokenContractCannotHoldValue",
      "type": "error"
    },
    {
      "inputs": [
        {
          "internalType": "bytes32",
          "name": "tokenId",
          "type": "bytes32"
        }
      ],
      "name": "LSP8TokenIdAlreadyMinted",
      "type": "error"
    },
    {
      "inputs": [],
      "name": "LSP8TokenIdFormatNotEditable",
      "type": "error"
    },
    {
      "inputs": [],
      "name": "LSP8TokenIdsDataEmptyArray",
      "type": "error"
    },
    {
      "inputs": [],
      "name": "LSP8TokenIdsDataLengthMismatch",
      "type": "error"
    },
    {
      "inputs": [],
      "name": "LSP8TokenOwnerCannotBeOperator",
      "type": "error"
    },
    {
      "inputs": [
        {
          "internalType": "bytes32",
          "name": "tokenId",
          "type": "bytes32"
        },
        {
          "internalType": "address",
          "name": "oldOwner",
          "type": "address"
        },
        {
          "internalType": "address",
          "name": "newOwner",
          "type": "address"
        }
      ],
      "name": "LSP8TokenOwnerChanged",
      "type": "error"
    },
    {
      "inputs": [
        {
          "internalType": "bytes4",
          "name": "functionSelector",
          "type": "bytes4"
        }
      ],
      "name": "NoExtensionFoundForFunctionSelector",
      "type": "error"
    },
    {
      "inputs": [
        {
          "internalType": "address",
          "name": "callerAddress",
          "type": "address"
        }
      ],
      "name": "OwnableCallerNotTheOwner",
      "type": "error"
    },
    {
      "inputs": [],
      "name": "OwnableCannotSetZeroAddressAsOwner",
      "type": "error"
    },
    {
      "anonymous": false,
      "inputs": [
        {
          "indexed": true,
          "internalType": "bytes32",
          "name": "dataKey",
          "type": "bytes32"
        },
        {
          "indexed": false,
          "internalType": "bytes",
          "name": "dataValue",
          "type": "bytes"
        }
      ],
      "name": "DataChanged",
      "type": "event"
    },
    {
      "anonymous": false,
      "inputs": [
        {
          "indexed": true,
          "internalType": "address",
          "name": "operator",
          "type": "address"
        },
        {
          "indexed": true,
          "internalType": "address",
          "name": "tokenOwner",
          "type": "address"
        },
        {
          "indexed": true,
          "internalType": "bytes32",
          "name": "tokenId",
          "type": "bytes32"
        },
        {
          "indexed": false,
          "internalType": "bytes",
          "name": "operatorNotificationData",
          "type": "bytes"
        }
      ],
      "name": "OperatorAuthorizationChanged",
      "type": "event"
    },
    {
      "anonymous": false,
      "inputs": [
        {
          "indexed": true,
          "internalType": "address",
          "name": "operator",
          "type": "address"
        },
        {
          "indexed": true,
          "internalType": "address",
          "name": "tokenOwner",
          "type": "address"
        },
        {
          "indexed": true,
          "internalType": "bytes32",
          "name": "tokenId",
          "type": "bytes32"
        },
        {
          "indexed": false,
          "internalType": "bool",
          "name": "notified",
          "type": "bool"
        },
        {
          "indexed": false,
          "internalType": "bytes",
          "name": "operatorNotificationData",
          "type": "bytes"
        }
      ],
      "name": "OperatorRevoked",
      "type": "event"
    },
    {
      "anonymous": false,
      "inputs": [
        {
          "indexed": true,
          "internalType": "address",
          "name": "previousOwner",
          "type": "address"
        },
        {
          "indexed": true,
          "internalType": "address",
          "name": "newOwner",
          "type": "address"
        }
      ],
      "name": "OwnershipTransferred",
      "type": "event"
    },
    {
      "anonymous": false,
      "inputs": [
        {
          "indexed": true,
          "internalType": "bytes32",
          "name": "tokenId",
          "type": "bytes32"
        },
        {
          "indexed": true,
          "internalType": "bytes32",
          "name": "dataKey",
          "type": "bytes32"
        },
        {
          "indexed": false,
          "internalType": "bytes",
          "name": "dataValue",
          "type": "bytes"
        }
      ],
      "name": "TokenIdDataChanged",
      "type": "event"
    },
    {
      "anonymous": false,
      "inputs": [
        {
          "indexed": false,
          "internalType": "address",
          "name": "operator",
          "type": "address"
        },
        {
          "indexed": true,
          "internalType": "address",
          "name": "from",
          "type": "address"
        },
        {
          "indexed": true,
          "internalType": "address",
          "name": "to",
          "type": "address"
        },
        {
          "indexed": true,
          "internalType": "bytes32",
          "name": "tokenId",
          "type": "bytes32"
        },
        {
          "indexed": false,
          "internalType": "bool",
          "name": "force",
          "type": "bool"
        },
        {
          "indexed": false,
          "internalType": "bytes",
          "name": "data",
          "type": "bytes"
        }
      ],
      "name": "Transfer",
      "type": "event"
    },
    {
      "stateMutability": "payable",
      "type": "fallback"
    },
    {
      "inputs": [
        {
          "internalType": "address",
          "name": "operator",
          "type": "address"
        },
        {
          "internalType": "bytes32",
          "name": "tokenId",
          "type": "bytes32"
        },
        {
          "internalType": "bytes",
          "name": "operatorNotificationData",
          "type": "bytes"
        }
      ],
      "name": "authorizeOperator",
      "outputs": [],
      "stateMutability": "nonpayable",
      "type": "function"
    },
    {
      "inputs": [
        {
          "internalType": "address",
          "name": "tokenOwner",
          "type": "address"
        }
      ],
      "name": "balanceOf",
      "outputs": [
        {
          "internalType": "uint256",
          "name": "",
          "type": "uint256"
        }
      ],
      "stateMutability": "view",
      "type": "function"
    },
    {
      "inputs": [
        {
          "internalType": "bytes[]",
          "name": "data",
          "type": "bytes[]"
        }
      ],
      "name": "batchCalls",
      "outputs": [
        {
          "internalType": "bytes[]",
          "name": "results",
          "type": "bytes[]"
        }
      ],
      "stateMutability": "nonpayable",
      "type": "function"
    },
    {
      "inputs": [
        {
          "internalType": "bytes32",
          "name": "dataKey",
          "type": "bytes32"
        }
      ],
      "name": "getData",
      "outputs": [
        {
          "internalType": "bytes",
          "name": "dataValue",
          "type": "bytes"
        }
      ],
      "stateMutability": "view",
      "type": "function"
    },
    {
      "inputs": [
        {
          "internalType": "bytes32[]",
          "name": "dataKeys",
          "type": "bytes32[]"
        }
      ],
      "name": "getDataBatch",
      "outputs": [
        {
          "internalType": "bytes[]",
          "name": "dataValues",
          "type": "bytes[]"
        }
      ],
      "stateMutability": "view",
      "type": "function"
    },
    {
      "inputs": [
        {
          "internalType": "bytes32[]",
          "name": "tokenIds",
          "type": "bytes32[]"
        },
        {
          "internalType": "bytes32[]",
          "name": "dataKeys",
          "type": "bytes32[]"
        }
      ],
      "name": "getDataBatchForTokenIds",
      "outputs": [
        {
          "internalType": "bytes[]",
          "name": "dataValues",
          "type": "bytes[]"
        }
      ],
      "stateMutability": "view",
      "type": "function"
    },
    {
      "inputs": [
        {
          "internalType": "bytes32",
          "name": "tokenId",
          "type": "bytes32"
        },
        {
          "internalType": "bytes32",
          "name": "dataKey",
          "type": "bytes32"
        }
      ],
      "name": "getDataForTokenId",
      "outputs": [
        {
          "internalType": "bytes",
          "name": "dataValue",
          "type": "bytes"
        }
      ],
      "stateMutability": "view",
      "type": "function"
    },
    {
      "inputs": [
        {
          "internalType": "bytes32",
          "name": "tokenId",
          "type": "bytes32"
        }
      ],
      "name": "getOperatorsOf",
      "outputs": [
        {
          "internalType": "address[]",
          "name": "",
          "type": "address[]"
        }
      ],
      "stateMutability": "view",
      "type": "function"
    },
    {
      "inputs": [
        {
          "internalType": "address",
          "name": "operator",
          "type": "address"
        },
        {
          "internalType": "bytes32",
          "name": "tokenId",
          "type": "bytes32"
        }
      ],
      "name": "isOperatorFor",
      "outputs": [
        {
          "internalType": "bool",
          "name": "",
          "type": "bool"
        }
      ],
      "stateMutability": "view",
      "type": "function"
    },
    {
      "inputs": [
        {
          "internalType": "address",
          "name": "to",
          "type": "address"
        },
        {
          "internalType": "uint256",
          "name": "tokenId",
          "type": "uint256"
        }
      ],
      "name": "mint",
      "outputs": [],
      "stateMutability": "nonpayable",
      "type": "function"
    },
    {
      "inputs": [],
      "name": "owner",
      "outputs": [
        {
          "internalType": "address",
          "name": "",
          "type": "address"
        }
      ],
      "stateMutability": "view",
      "type": "function"
    },
    {
      "inputs": [],
      "name": "renounceOwnership",
      "outputs": [],
      "stateMutability": "nonpayable",
      "type": "function"
    },
    {
      "inputs": [
        {
          "internalType": "address",
          "name": "operator",
          "type": "address"
        },
        {
          "internalType": "bytes32",
          "name": "tokenId",
          "type": "bytes32"
        },
        {
          "internalType": "bool",
          "name": "notify",
          "type": "bool"
        },
        {
          "internalType": "bytes",
          "name": "operatorNotificationData",
          "type": "bytes"
        }
      ],
      "name": "revokeOperator",
      "outputs": [],
      "stateMutability": "nonpayable",
      "type": "function"
    },
    {
      "inputs": [
        {
          "internalType": "bytes32",
          "name": "dataKey",
          "type": "bytes32"
        },
        {
          "internalType": "bytes",
          "name": "dataValue",
          "type": "bytes"
        }
      ],
      "name": "setData",
      "outputs": [],
      "stateMutability": "payable",
      "type": "function"
    },
    {
      "inputs": [
        {
          "internalType": "bytes32[]",
          "name": "dataKeys",
          "type": "bytes32[]"
        },
        {
          "internalType": "bytes[]",
          "name": "dataValues",
          "type": "bytes[]"
        }
      ],
      "name": "setDataBatch",
      "outputs": [],
      "stateMutability": "payable",
      "type": "function"
    },
    {
      "inputs": [
        {
          "internalType": "bytes32[]",
          "name": "tokenIds",
          "type": "bytes32[]"
        },
        {
          "internalType": "bytes32[]",
          "name": "dataKeys",
          "type": "bytes32[]"
        },
        {
          "internalType": "bytes[]",
          "name": "dataValues",
          "type": "bytes[]"
        }
      ],
      "name": "setDataBatchForTokenIds",
      "outputs": [],
      "stateMutability": "nonpayable",
      "type": "function"
    },
    {
      "inputs": [
        {
          "internalType": "bytes32",
          "name": "tokenId",
          "type": "bytes32"
        },
        {
          "internalType": "bytes32",
          "name": "dataKey",
          "type": "bytes32"
        },
        {
          "internalType": "bytes",
          "name": "dataValue",
          "type": "bytes"
        }
      ],
      "name": "setDataForTokenId",
      "outputs": [],
      "stateMutability": "nonpayable",
      "type": "function"
    },
    {
      "inputs": [
        {
          "internalType": "bytes4",
          "name": "interfaceId",
          "type": "bytes4"
        }
      ],
      "name": "supportsInterface",
      "outputs": [
        {
          "internalType": "bool",
          "name": "",
          "type": "bool"
        }
      ],
      "stateMutability": "view",
      "type": "function"
    },
    {
      "inputs": [
        {
          "internalType": "address",
          "name": "tokenOwner",
          "type": "address"
        }
      ],
      "name": "tokenIdsOf",
      "outputs": [
        {
          "internalType": "bytes32[]",
          "name": "",
          "type": "bytes32[]"
        }
      ],
      "stateMutability": "view",
      "type": "function"
    },
    {
      "inputs": [
        {
          "internalType": "bytes32",
          "name": "tokenId",
          "type": "bytes32"
        }
      ],
      "name": "tokenOwnerOf",
      "outputs": [
        {
          "internalType": "address",
          "name": "",
          "type": "address"
        }
      ],
      "stateMutability": "view",
      "type": "function"
    },
    {
      "inputs": [],
      "name": "totalSupply",
      "outputs": [
        {
          "internalType": "uint256",
          "name": "",
          "type": "uint256"
        }
      ],
      "stateMutability": "view",
      "type": "function"
    },
    {
      "inputs": [
        {
          "internalType": "address",
          "name": "from",
          "type": "address"
        },
        {
          "internalType": "address",
          "name": "to",
          "type": "address"
        },
        {
          "internalType": "bytes32",
          "name": "tokenId",
          "type": "bytes32"
        },
        {
          "internalType": "bool",
          "name": "force",
          "type": "bool"
        },
        {
          "internalType": "bytes",
          "name": "data",
          "type": "bytes"
        }
      ],
      "name": "transfer",
      "outputs": [],
      "stateMutability": "nonpayable",
      "type": "function"
    },
    {
      "inputs": [
        {
          "internalType": "address[]",
          "name": "from",
          "type": "address[]"
        },
        {
          "internalType": "address[]",
          "name": "to",
          "type": "address[]"
        },
        {
          "internalType": "bytes32[]",
          "name": "tokenId",
          "type": "bytes32[]"
        },
        {
          "internalType": "bool[]",
          "name": "force",
          "type": "bool[]"
        },
        {
          "internalType": "bytes[]",
          "name": "data",
          "type": "bytes[]"
        }
      ],
      "name": "transferBatch",
      "outputs": [],
      "stateMutability": "nonpayable",
      "type": "function"
    },
    {
      "inputs": [
        {
          "internalType": "address",
          "name": "newOwner",
          "type": "address"
        }
      ],
      "name": "transferOwnership",
      "outputs": [],
      "stateMutability": "nonpayable",
      "type": "function"
    },
    {
      "stateMutability": "payable",
      "type": "receive"
    }
  ],
  "bytecode": "0x60806040523480156200001157600080fd5b50604080518082018252600981526811905352531653919560ba1b602080830191909152825180840190935260048352631193919560e21b90830152903360028084848483818062000076576040516306b620db60e21b815260040160405180910390fd5b6200008181620001c3565b506040805180820190915260048152632936598960e21b6020820152620000ca907feafec4d89fa9619884b60000a4d96624a38f7ac2d8d9a604ecf07c12c77e480c9062000231565b620000f67fdeba1e292f8ba88238e10ab3c7f88bd4be4fac56cad5194b6ecceaf653468af18562000231565b620001227f2f0a68ab07768e01943a599e73362a0e17a63a72e94dd2e384d2c1d4db9327568462000231565b60408051602081018390526200016b917fe0261fa95db2eb3b5439bd033cda66d56b96f92f243a8228fd87550ed7bdfdb3910160408051601f1981840301815291905262000231565b50506040805160208101859052620001b893507ff675e9361af1c1664c1868cfa3eb97672d6b1a513aa5b81dec34c9ee330e818d92500160408051601f198184030181529190526200028a565b50505050506200051e565b6000546001600160a01b038281169116146200022e57600080546040516001600160a01b03808516939216917f8be0079c531659141344cd1fd0a4f28419497f9722a3daafe3b4186f6b6457e091a3600080546001600160a01b0319166001600160a01b0383161790555b50565b60008281526001602052604090206200024b828262000402565b50817fece574603820d07bc9b91f2a932baadf4628aabcb8afba49776529c14a6104b2826040516200027e9190620004ce565b60405180910390a25050565b6200029682826200029a565b5050565b7f2145e1d6d074577dc71ef54c3807742b41b053a9352ae6b491331509acb9750f8201620002db576040516385c169bd60e01b815260040160405180910390fd5b7fd0f59754f88971fe6bc5a6618cc9d5f1e859c58d16b22d1c7b2d3e2b246cd8aa82016200031c57604051630eceab6760e31b815260040160405180910390fd5b7f1fd9e056a24d14c4abc642fcc325992a946906d0dbc57dd70278aaf12842024d82016200023157604051634ef6d7fb60e01b815260040160405180910390fd5b634e487b7160e01b600052604160045260246000fd5b600181811c908216806200038857607f821691505b602082108103620003a957634e487b7160e01b600052602260045260246000fd5b50919050565b601f821115620003fd57600081815260208120601f850160051c81016020861015620003d85750805b601f850160051c820191505b81811015620003f957828155600101620003e4565b5050505b505050565b81516001600160401b038111156200041e576200041e6200035d565b62000436816200042f845462000373565b84620003af565b602080601f8311600181146200046e5760008415620004555750858301515b600019600386901b1c1916600185901b178555620003f9565b600085815260208120601f198616915b828110156200049f578886015182559484019460019091019084016200047e565b5085821015620004be5787850151600019600388901b60f8161c191681555b5050505050600190811b01905550565b600060208083528351808285015260005b81811015620004fd57858101830151858201604001528201620004df565b506000604082860101526040601f19601f8301168501019250505092915050565b612b66806200052e6000396000f3fe60806040526004361061014f5760003560e01c8063715018a6116100b6578063a3b261f21161006f578063a3b261f21461044e578063be9f0e6f1461047b578063d6c1407c1461049b578063db8c9663146104bb578063dedff9c6146104db578063f2fde38b146104fb576101aa565b8063715018a6146103b55780637e87632c146103ca5780637f23690c146103ea57806386a10ddd146103fd5780638da5cb5b1461041d578063979024211461043b576101aa565b806340c10f191161010857806340c10f19146102e657806349a6078d14610308578063511b69521461033557806354f6127f146103555780636963d4381461037557806370a0823114610395576101aa565b806301ffc9a7146101eb57806316e023b31461022057806318160ddd1461024d5780631d26fce61461026c578063217b2270146102995780632a3654a4146102c6576101aa565b366101aa57346000036101915760405163e5099ee360e01b81526004016101889060208082526004908201526000604082015260600190565b60405180910390fd5b6040516330fa4a2160e11b815260040160405180910390fd5b600036606060048210156101d557828260405163e5099ee360e01b8152600401610188929190611dc7565b6101df838361051b565b80519350602001915050f35b3480156101f757600080fd5b5061020b610206366004611df6565b610611565b60405190151581526020015b60405180910390f35b34801561022c57600080fd5b5061024061023b366004611e20565b610645565b6040516102179190611e92565b34801561025957600080fd5b506002545b604051908152602001610217565b34801561027857600080fd5b5061028c610287366004611f79565b610658565b6040516102179190611fdc565b3480156102a557600080fd5b506102b96102b436600461203e565b61073f565b6040516102179190612057565b3480156102d257600080fd5b5061020b6102e1366004612087565b610778565b3480156102f257600080fd5b50610306610301366004612087565b610784565b005b34801561031457600080fd5b5061032861032336600461203e565b6107b2565b60405161021791906120b1565b34801561034157600080fd5b50610306610350366004612186565b6107d4565b34801561036157600080fd5b5061024061037036600461203e565b610818565b34801561038157600080fd5b5061028c6103903660046121fe565b610823565b3480156103a157600080fd5b5061025e6103b0366004612272565b610952565b3480156103c157600080fd5b50610306610973565b3480156103d657600080fd5b506103066103e53660046123d0565b610987565b6103066103f8366004612494565b610a76565b34801561040957600080fd5b506103066104183660046124d0565b610aa7565b34801561042957600080fd5b506000546001600160a01b03166102b9565b610306610449366004612526565b610c0f565b34801561045a57600080fd5b5061046e610469366004612272565b610ccf565b604051610217919061257f565b34801561048757600080fd5b506103066104963660046125b7565b610cf3565b3480156104a757600080fd5b506103066104b6366004612634565b610dbe565b3480156104c757600080fd5b506103066104d636600461266d565b610dd1565b3480156104e757600080fd5b5061028c6104f63660046126d4565b610eb5565b34801561050757600080fd5b50610306610516366004612272565b610f5f565b606060006105346000356001600160e01b031916610f9a565b5090506001600160a01b03811661056c576000356001600160e01b03191660405163bb370b2b60e01b81526004016101889190612708565b600080826001600160a01b03163487873334604051602001610591949392919061271d565b60408051601f19818403018152908290526105ab91612748565b60006040518083038185875af1925050503d80600081146105e8576040519150601f19603f3d011682016040523d82523d6000602084013e6105ed565b606091505b5091509150811561060257925061060b915050565b80518060208301fd5b92915050565b60006001600160e01b03198216631d138b8360e11b1480610636575061063682611018565b8061060b575061060b8261103d565b60606106518383611074565b9392505050565b6060815183511461067c576040516317d38eff60e11b815260040160405180910390fd5b82516001600160401b0381111561069557610695611ea5565b6040519080825280602002602001820160405280156106c857816020015b60608152602001906001900390816106b35790505b50905060005b8351811015610738576107138482815181106106ec576106ec612764565b602002602001015184838151811061070657610706612764565b6020026020010151611074565b82828151811061072557610725612764565b60209081029190910101526001016106ce565b5092915050565b6000818152600360205260408120546001600160a01b03168061060b57604051635747cd1b60e11b815260048101849052602401610188565b60006106518383611122565b6107ae828260001b600160405180604001604052806002815260200161060f60f31b81525061115f565b5050565b60606107bd826112b1565b600082815260056020526040902061060b906112da565b6107de3384611122565b61080457604051631294d2a960e01b815260048101849052336024820152604401610188565b61081185858585856112e7565b5050505050565b606061060b826114b5565b6060816001600160401b0381111561083d5761083d611ea5565b60405190808252806020026020018201604052801561087057816020015b606081526020019060019003908161085b5790505b50905060005b82811015610738576000803086868581811061089457610894612764565b90506020028101906108a6919061277a565b6040516108b49291906127c7565b600060405180830381855af49150503d80600081146108ef576040519150601f19603f3d011682016040523d82523d6000602084013e6108f4565b606091505b50915091508161092a5780511561090e5780518082602001fd5b60405163234eb81960e01b815260048101849052602401610188565b8084848151811061093d5761093d612764565b60209081029190910101525050600101610876565b6001600160a01b038116600090815260046020526040812061060b90611557565b61097b611561565b610985600061159d565b565b845184518114158061099a575083518114155b806109a6575082518114155b806109b2575081518114155b156109d0576040516393a8311960e01b815260040160405180910390fd5b60005b81811015610a6d57610a658782815181106109f0576109f0612764565b6020026020010151878381518110610a0a57610a0a612764565b6020026020010151878481518110610a2457610a24612764565b6020026020010151878581518110610a3e57610a3e612764565b6020026020010151878681518110610a5857610a58612764565b60200260200101516107d4565b6001016109d3565b50505050505050565b610a7e611561565b3415610a9d5760405163f36ba73760e01b815260040160405180910390fd5b6107ae828261160b565b6000610ab28361073f565b90506001600160a01b0381163314610ae357808333604051632d938f5160e11b8152600401610188939291906127d7565b6001600160a01b038416610b0a57604051639577b8b360e01b815260040160405180910390fd5b836001600160a01b0316816001600160a01b031603610b3c576040516344fed6b160e11b815260040160405180910390fd5b6000838152600560205260408120610b549086611655565b905080610b86576040516314ec4d6d60e31b81526001600160a01b038616600482015260248101859052604401610188565b83826001600160a01b0316866001600160a01b03167f1b1b58aa2ec0cec2228b2d37124556d41f5a1f7b12f089171f896cc23667121586604051610bca9190611e92565b60405180910390a460003385600186604051602001610bec94939291906127fa565b6040516020818303038152906040529050610c07868261166a565b505050505050565b610c17611561565b3415610c365760405163f36ba73760e01b815260040160405180910390fd5b8051825114610c5857604051633bcc897960e01b815260040160405180910390fd5b8151600003610c7a576040516397da5f9560e01b815260040160405180910390fd5b60005b8251811015610cca57610cc2838281518110610c9b57610c9b612764565b6020026020010151838381518110610cb557610cb5612764565b602002602001015161160b565b600101610c7d565b505050565b6001600160a01b038116600090815260046020526040902060609061060b906112da565b610cfb611561565b81518351141580610d0e57508051825114155b15610d2c576040516317d38eff60e11b815260040160405180910390fd5b8251600003610d4e576040516380c9830560e01b815260040160405180910390fd5b60005b8351811015610db857610db0848281518110610d6f57610d6f612764565b6020026020010151848381518110610d8957610d89612764565b6020026020010151848481518110610da357610da3612764565b6020026020010151611695565b600101610d51565b50505050565b610dc6611561565b610cca838383611695565b6000610ddc8461073f565b9050336001600160a01b03821614610e2f576001600160a01b0385163314610e2f5760405163760b5acd60e01b81523360048201526001600160a01b038216602482015260448101859052606401610188565b6001600160a01b038516610e5657604051639577b8b360e01b815260040160405180910390fd5b846001600160a01b0316816001600160a01b031603610e88576040516344fed6b160e11b815260040160405180910390fd5b610e9585828686866116f7565b82156108115760008185600085604051602001610bec94939291906127fa565b606081516001600160401b03811115610ed057610ed0611ea5565b604051908082528060200260200182016040528015610f0357816020015b6060815260200190600190039081610eee5790505b50905060005b8251811015610f5957610f34838281518110610f2757610f27612764565b60200260200101516114b5565b828281518110610f4657610f46612764565b6020908102919091010152600101610f09565b50919050565b610f67611561565b6001600160a01b038116610f8e576040516306b620db60e21b815260040160405180910390fd5b610f978161159d565b50565b60008080610fbf696773c5a04a6d4300884b60b11b6001600160e01b03198616611797565b90506000610fcc826114b5565b90508051601414158015610fe05750805115155b1561100057806040516342bfe79f60e01b81526004016101889190611e92565b61100981612833565b60601c95600195509350505050565b60006001600160e01b0319821663a918fa6b60e01b148061060b575061060b826117eb565b6000806110506301ffc9a760e01b610f9a565b5090506001600160a01b03811661106a5750600092915050565b6106518184611820565b6000828152600660209081526040808320848452909152902080546060919061109c9061286a565b80601f01602080910402602001604051908101604052809291908181526020018280546110c89061286a565b80156111155780601f106110ea57610100808354040283529160200191611115565b820191906000526020600020905b8154815290600101906020018083116110f857829003601f168201915b5050505050905092915050565b600061112d8261073f565b6001600160a01b0316836001600160a01b031614806106515750600082815260056020526040902061065190846118a3565b6001600160a01b038416611186576040516324ecef4d60e01b815260040160405180910390fd5b61118f836118c5565b156111b0576040516334c7b51160e01b815260048101849052602401610188565b6111b9836118c5565b156111da576040516334c7b51160e01b815260048101849052602401610188565b6002600081546111e9906128b4565b909155506001600160a01b038416600090815260046020526040902061120f90846118e2565b5060008381526003602052604080822080546001600160a01b0319166001600160a01b03881690811790915590518592907fb333c813a7426a7a11e2b190cad52c44119421594b47f6f32ace6d8c7207b2bf90611271903390889088906128cd565b60405180910390a46000336000868685604051602001611295959493929190612902565b60405160208183030381529060405290506108118584836118ee565b6112ba816118c5565b610f9757604051635747cd1b60e11b815260048101829052602401610188565b60606000610651836119e4565b60006112f28461073f565b9050856001600160a01b0316816001600160a01b03161461132c57808487604051632d938f5160e11b8152600401610188939291906127d7565b6001600160a01b038516611353576040516324ecef4d60e01b815260040160405180910390fd5b600061135e8561073f565b9050806001600160a01b0316826001600160a01b0316146113ac57604051635a9c31d360e01b8152600481018690526001600160a01b03808416602483015282166044820152606401610188565b6113b68786611a3f565b6001600160a01b03871660009081526004602052604090206113d89086611a97565b506001600160a01b03861660009081526004602052604090206113fb90866118e2565b506000858152600360205260409081902080546001600160a01b0319166001600160a01b0389811691821790925591518792918a16907fb333c813a7426a7a11e2b190cad52c44119421594b47f6f32ace6d8c7207b2bf906114629033908a908a906128cd565b60405180910390a460003388888887604051602001611485959493929190612902565b60405160208183030381529060405290506114a08882611aa3565b6114ab8786836118ee565b5050505050505050565b60008181526001602052604090208054606091906114d29061286a565b80601f01602080910402602001604051908101604052809291908181526020018280546114fe9061286a565b801561154b5780601f106115205761010080835404028352916020019161154b565b820191906000526020600020905b81548152906001019060200180831161152e57829003601f168201915b50505050509050919050565b600061060b825490565b336115746000546001600160a01b031690565b6001600160a01b031614610985573360405163bf1169c560e01b81526004016101889190612057565b6000546001600160a01b03828116911614610f9757600080546040516001600160a01b03808516939216917f8be0079c531659141344cd1fd0a4f28419497f9722a3daafe3b4186f6b6457e091a3600080546001600160a01b0383166001600160a01b031990911617905550565b7f098a16c9e50e3e99b3e797305c146898d294e5aec55a47e213cb3611ccf17e73820161164b57604051631b32400560e11b815260040160405180910390fd5b6107ae8282611ace565b6000610651836001600160a01b038416611ad8565b6107ae827f8a1c15a8799f71b547e08e2bcb2e85257e81b0a07eee2ce6712549eef1f0097083611b27565b600083815260066020908152604080832085845290915290206116b88282612983565b5081837fa6e4251f855f750545fe414f120db91c76b88def14d120969e5bb2d3f05debbb836040516116ea9190611e92565b60405180910390a3505050565b600083815260056020526040812061170f9087611b74565b905080611741576040516312a8c6a360e21b81526001600160a01b038716600482015260248101859052604401610188565b83856001600160a01b0316876001600160a01b03167fc78cd419d6136f9f1c1c6aec1d3fae098cffaf8bc86314a8f2685e32fe574e3c8686604051611787929190612a42565b60405180910390a4505050505050565b604080516001600160b01b0319841660208201526000602a82018190526001600160601b03198416602c830152918291016040516020818303038152906040529050806117e390612a5d565b949350505050565b60006001600160e01b031982166318a6a9a560e21b148061060b57506301ffc9a760e01b6001600160e01b031983161461060b565b600080826040516024016118349190612708565b60408051601f19818403018152919052602080820180516001600160e01b03166301ffc9a760e01b178152825192935060009283928392909183918a617530fa92503d9150600051905082801561188c575060208210155b80156118985750600081115b979650505050505050565b6001600160a01b03811660009081526001830160205260408120541515610651565b6000908152600360205260409020546001600160a01b0316151590565b60006106518383611ad8565b6118ff83631aed5a8560e21b611820565b1561199957604051631aed5a8560e21b81526001600160a01b03841690636bb56a1490611952907f0b084a55ebf70fd3c06fd755269dac2212c4d3f0f4d09079780bfa50c1b2984d908590600401612a81565b6000604051808303816000875af1158015611971573d6000803e3d6000fd5b505050506040513d6000823e601f3d908101601f19168201604052610db89190810190612a9a565b81610cca576001600160a01b0383163b156119c95782604051634349776d60e01b81526004016101889190612057565b82604051630317313760e01b81526004016101889190612057565b60608160000180548060200260200160405190810160405280929190818152602001828054801561154b57602002820191906000526020600020905b815481526020019060010190808311611a205750505050509050919050565b600081815260056020526040812090611a5782611557565b90506000805b82811015610c0757611a70846000611b89565b9150611a8f8287876000604051806020016040528060008152506116f7565b600101611a5d565b60006106518383611b95565b6107ae827fb23eae7e6d1564b295b4c3e3be402d9a2f0776c57bdf365903496f6fa481ab0083611b27565b6107ae8282611c88565b6000818152600183016020526040812054611b1f5750815460018181018455600084815260208082209093018490558454848252828601909352604090209190915561060b565b50600061060b565b611b416001600160a01b038416631aed5a8560e21b611820565b15610cca57604051631aed5a8560e21b81526001600160a01b03841690636bb56a14906119529085908590600401612a81565b6000610651836001600160a01b038416611b95565b60006106518383611d9d565b60008181526001830160205260408120548015611c7e576000611bb9600183612b07565b8554909150600090611bcd90600190612b07565b9050808214611c32576000866000018281548110611bed57611bed612764565b9060005260206000200154905080876000018481548110611c1057611c10612764565b6000918252602080832090910192909255918252600188019052604090208390555b8554869080611c4357611c43612b1a565b60019003818190600052602060002001600090559055856001016000868152602001908152602001600020600090556001935050505061060b565b600091505061060b565b7f2145e1d6d074577dc71ef54c3807742b41b053a9352ae6b491331509acb9750f8201611cc8576040516385c169bd60e01b815260040160405180910390fd5b7fd0f59754f88971fe6bc5a6618cc9d5f1e859c58d16b22d1c7b2d3e2b246cd8aa8201611d0857604051630eceab6760e31b815260040160405180910390fd5b7f1fd9e056a24d14c4abc642fcc325992a946906d0dbc57dd70278aaf12842024d8201611d4857604051634ef6d7fb60e01b815260040160405180910390fd5b6000828152600160205260409020611d608282612983565b50817fece574603820d07bc9b91f2a932baadf4628aabcb8afba49776529c14a6104b282604051611d919190611e92565b60405180910390a25050565b6000826000018281548110611db457611db4612764565b9060005260206000200154905092915050565b60208152816020820152818360408301376000818301604090810191909152601f909201601f19160101919050565b600060208284031215611e0857600080fd5b81356001600160e01b03198116811461065157600080fd5b60008060408385031215611e3357600080fd5b50508035926020909101359150565b60005b83811015611e5d578181015183820152602001611e45565b50506000910152565b60008151808452611e7e816020860160208601611e42565b601f01601f19169290920160200192915050565b6020815260006106516020830184611e66565b634e487b7160e01b600052604160045260246000fd5b604051601f8201601f191681016001600160401b0381118282101715611ee357611ee3611ea5565b604052919050565b60006001600160401b03821115611f0457611f04611ea5565b5060051b60200190565b600082601f830112611f1f57600080fd5b81356020611f34611f2f83611eeb565b611ebb565b82815260059290921b84018101918181019086841115611f5357600080fd5b8286015b84811015611f6e5780358352918301918301611f57565b509695505050505050565b60008060408385031215611f8c57600080fd5b82356001600160401b0380821115611fa357600080fd5b611faf86838701611f0e565b93506020850135915080821115611fc557600080fd5b50611fd285828601611f0e565b9150509250929050565b6000602080830181845280855180835260408601915060408160051b870101925083870160005b8281101561203157603f1988860301845261201f858351611e66565b94509285019290850190600101612003565b5092979650505050505050565b60006020828403121561205057600080fd5b5035919050565b6001600160a01b0391909116815260200190565b80356001600160a01b038116811461208257600080fd5b919050565b6000806040838503121561209a57600080fd5b6120a38361206b565b946020939093013593505050565b6020808252825182820181905260009190848201906040850190845b818110156120f25783516001600160a01b0316835292840192918401916001016120cd565b50909695505050505050565b8035801515811461208257600080fd5b60006001600160401b0382111561212757612127611ea5565b50601f01601f191660200190565b600082601f83011261214657600080fd5b8135612154611f2f8261210e565b81815284602083860101111561216957600080fd5b816020850160208301376000918101602001919091529392505050565b600080600080600060a0868803121561219e57600080fd5b6121a78661206b565b94506121b56020870161206b565b9350604086013592506121ca606087016120fe565b915060808601356001600160401b038111156121e557600080fd5b6121f188828901612135565b9150509295509295909350565b6000806020838503121561221157600080fd5b82356001600160401b038082111561222857600080fd5b818501915085601f83011261223c57600080fd5b81358181111561224b57600080fd5b8660208260051b850101111561226057600080fd5b60209290920196919550909350505050565b60006020828403121561228457600080fd5b6106518261206b565b600082601f83011261229e57600080fd5b813560206122ae611f2f83611eeb565b82815260059290921b840181019181810190868411156122cd57600080fd5b8286015b84811015611f6e576122e28161206b565b83529183019183016122d1565b600082601f83011261230057600080fd5b81356020612310611f2f83611eeb565b82815260059290921b8401810191818101908684111561232f57600080fd5b8286015b84811015611f6e57612344816120fe565b8352918301918301612333565b600082601f83011261236257600080fd5b81356020612372611f2f83611eeb565b82815260059290921b8401810191818101908684111561239157600080fd5b8286015b84811015611f6e5780356001600160401b038111156123b45760008081fd5b6123c28986838b0101612135565b845250918301918301612395565b600080600080600060a086880312156123e857600080fd5b85356001600160401b03808211156123ff57600080fd5b61240b89838a0161228d565b9650602088013591508082111561242157600080fd5b61242d89838a0161228d565b9550604088013591508082111561244357600080fd5b61244f89838a01611f0e565b9450606088013591508082111561246557600080fd5b61247189838a016122ef565b9350608088013591508082111561248757600080fd5b506121f188828901612351565b600080604083850312156124a757600080fd5b8235915060208301356001600160401b038111156124c457600080fd5b611fd285828601612135565b6000806000606084860312156124e557600080fd5b6124ee8461206b565b92506020840135915060408401356001600160401b0381111561251057600080fd5b61251c86828701612135565b9150509250925092565b6000806040838503121561253957600080fd5b82356001600160401b038082111561255057600080fd5b61255c86838701611f0e565b9350602085013591508082111561257257600080fd5b50611fd285828601612351565b6020808252825182820181905260009190848201906040850190845b818110156120f25783518352928401929184019160010161259b565b6000806000606084860312156125cc57600080fd5b83356001600160401b03808211156125e357600080fd5b6125ef87838801611f0e565b9450602086013591508082111561260557600080fd5b61261187838801611f0e565b9350604086013591508082111561262757600080fd5b5061251c86828701612351565b60008060006060848603121561264957600080fd5b833592506020840135915060408401356001600160401b0381111561251057600080fd5b6000806000806080858703121561268357600080fd5b61268c8561206b565b9350602085013592506126a1604086016120fe565b915060608501356001600160401b038111156126bc57600080fd5b6126c887828801612135565b91505092959194509250565b6000602082840312156126e657600080fd5b81356001600160401b038111156126fc57600080fd5b6117e384828501611f0e565b6001600160e01b031991909116815260200190565b8385823760609290921b6001600160601b031916919092019081526014810191909152603401919050565b6000825161275a818460208701611e42565b9190910192915050565b634e487b7160e01b600052603260045260246000fd5b6000808335601e1984360301811261279157600080fd5b8301803591506001600160401b038211156127ab57600080fd5b6020019150368190038213156127c057600080fd5b9250929050565b8183823760009101908152919050565b6001600160a01b0393841681526020810192909252909116604082015260600190565b60018060a01b038516815283602082015282151560408201526080606082015260006128296080830184611e66565b9695505050505050565b805160208201516001600160601b031980821692919060148310156128625780818460140360031b1b83161693505b505050919050565b600181811c9082168061287e57607f821691505b602082108103610f5957634e487b7160e01b600052602260045260246000fd5b634e487b7160e01b600052601160045260246000fd5b6000600182016128c6576128c661289e565b5060010190565b6001600160a01b038416815282151560208201526060604082018190526000906128f990830184611e66565b95945050505050565b6001600160a01b0386811682528581166020830152841660408201526060810183905260a06080820181905260009061189890830184611e66565b601f821115610cca57600081815260208120601f850160051c810160208610156129645750805b601f850160051c820191505b81811015610c0757828155600101612970565b81516001600160401b0381111561299c5761299c611ea5565b6129b0816129aa845461286a565b8461293d565b602080601f8311600181146129e557600084156129cd5750858301515b600019600386901b1c1916600185901b178555610c07565b600085815260208120601f198616915b82811015612a14578886015182559484019460019091019084016129f5565b5085821015612a325787850151600019600388901b60f8161c191681555b5050505050600190811b01905550565b82151581526040602082015260006117e36040830184611e66565b80516020808301519190811015610f595760001960209190910360031b1b16919050565b8281526040602082015260006117e36040830184611e66565b600060208284031215612aac57600080fd5b81516001600160401b03811115612ac257600080fd5b8201601f81018413612ad357600080fd5b8051612ae1611f2f8261210e565b818152856020838501011115612af657600080fd5b6128f9826020830160208601611e42565b8181038181111561060b5761060b61289e565b634e487b7160e01b600052603160045260246000fdfea2646970667358221220cf82b5cce38283002a82b55f5540067099ab0c521a4b076284add834a818558a64736f6c63430008140033",
  "linkReferences": {},
  "deployedLinkReferences": {}
}