{
  "_format": "hh-sol-artifact-1",
  "contractName": "OrderExtension",
  "sourceName": "contracts/OrderExtension.sol",
  "abi": [
    {
      "inputs": [
        {
          "internalType": "address",
          "name": "target_",
          "type": "address"
        }
      ],
      "stateMutability": "nonpayable",
      "type": "constructor"
    },
    {
      "inputs": [],
      "name": "BlockAlreadyConfirmed",
      "type": "error"
    },
    {
      "inputs": [],
      "name": "CallerNotPerkOwner",
      "type": "error"
    },
    {
      "inputs": [],
      "name": "CallerNotTarget",
      "type": "error"
    },
    {
      "inputs": [],
      "name": "IncorrectValue",
      "type": "error"
    },
    {
      "inputs": [],
      "name": "InvalidNonce",
      "type": "error"
    },
    {
      "inputs": [],
      "name": "InvalidSignature",
      "type": "error"
    },
    {
      "inputs": [],
      "name": "PerkAlreadyClaimed",
      "type": "error"
    },
    {
      "anonymous": false,
      "inputs": [
        {
          "indexed": false,
          "internalType": "bytes",
          "name": "orderId",
          "type": "bytes"
        }
      ],
      "name": "OrderCreated",
      "type": "event"
    },
    {
      "anonymous": false,
      "inputs": [
        {
          "indexed": true,
          "internalType": "address",
          "name": "previousOwner",
          "type": "address"
        },
        {
          "indexed": true,
          "internalType": "address",
          "name": "newOwner",
          "type": "address"
        }
      ],
      "name": "OwnershipTransferred",
      "type": "event"
    },
    {
      "anonymous": false,
      "inputs": [
        {
          "indexed": false,
          "internalType": "address",
          "name": "newTarget",
          "type": "address"
        }
      ],
      "name": "TargetChanged",
      "type": "event"
    },
    {
      "inputs": [],
      "name": "VERSION",
      "outputs": [
        {
          "internalType": "string",
          "name": "",
          "type": "string"
        }
      ],
      "stateMutability": "view",
      "type": "function"
    },
    {
      "inputs": [
        {
          "internalType": "address",
          "name": "collection",
          "type": "address"
        },
        {
          "internalType": "uint256",
          "name": "value",
          "type": "uint256"
        },
        {
          "internalType": "uint256",
          "name": "maxBlockNumber",
          "type": "uint256"
        },
        {
          "internalType": "bytes32",
          "name": "nonce",
          "type": "bytes32"
        },
        {
          "internalType": "bytes",
          "name": "data",
          "type": "bytes"
        },
        {
          "internalType": "bytes",
          "name": "orderId",
          "type": "bytes"
        }
      ],
      "name": "getOrderHash",
      "outputs": [
        {
          "internalType": "bytes",
          "name": "message",
          "type": "bytes"
        }
      ],
      "stateMutability": "pure",
      "type": "function"
    },
    {
      "inputs": [
        {
          "internalType": "address",
          "name": "collection",
          "type": "address"
        },
        {
          "internalType": "uint256",
          "name": "value",
          "type": "uint256"
        },
        {
          "internalType": "uint256",
          "name": "maxBlockNumber",
          "type": "uint256"
        },
        {
          "internalType": "address",
          "name": "perkAddress",
          "type": "address"
        },
        {
          "internalType": "bytes32",
          "name": "perkTokenId",
          "type": "bytes32"
        },
        {
          "internalType": "bytes32",
          "name": "nonce",
          "type": "bytes32"
        },
        {
          "internalType": "bytes",
          "name": "data",
          "type": "bytes"
        },
        {
          "internalType": "bytes",
          "name": "orderId",
          "type": "bytes"
        }
      ],
      "name": "getRedeemPerkHash",
      "outputs": [
        {
          "internalType": "bytes",
          "name": "message",
          "type": "bytes"
        }
      ],
      "stateMutability": "pure",
      "type": "function"
    },
    {
      "inputs": [
        {
          "internalType": "address",
          "name": "perkAddress",
          "type": "address"
        },
        {
          "internalType": "address",
          "name": "collection",
          "type": "address"
        },
        {
          "internalType": "bytes32",
          "name": "perkTokenId",
          "type": "bytes32"
        }
      ],
      "name": "isPerkClaimed",
      "outputs": [
        {
          "internalType": "bool",
          "name": "",
          "type": "bool"
        }
      ],
      "stateMutability": "view",
      "type": "function"
    },
    {
      "inputs": [],
      "name": "owner",
      "outputs": [
        {
          "internalType": "address",
          "name": "",
          "type": "address"
        }
      ],
      "stateMutability": "view",
      "type": "function"
    },
    {
      "inputs": [
        {
          "internalType": "address",
          "name": "collection",
          "type": "address"
        },
        {
          "internalType": "uint256",
          "name": "value",
          "type": "uint256"
        },
        {
          "internalType": "uint256",
          "name": "maxBlockNumber",
          "type": "uint256"
        },
        {
          "internalType": "bytes32",
          "name": "nonce",
          "type": "bytes32"
        },
        {
          "internalType": "bytes",
          "name": "data",
          "type": "bytes"
        },
        {
          "internalType": "bytes",
          "name": "signature",
          "type": "bytes"
        },
        {
          "internalType": "bytes",
          "name": "orderId",
          "type": "bytes"
        }
      ],
      "name": "placeOrder",
      "outputs": [],
      "stateMutability": "nonpayable",
      "type": "function"
    },
    {
      "inputs": [
        {
          "internalType": "address",
          "name": "collection",
          "type": "address"
        },
        {
          "internalType": "address",
          "name": "perkAddress",
          "type": "address"
        },
        {
          "internalType": "bytes32",
          "name": "perkTokenId",
          "type": "bytes32"
        },
        {
          "internalType": "uint256",
          "name": "value",
          "type": "uint256"
        },
        {
          "internalType": "uint256",
          "name": "maxBlockNumber",
          "type": "uint256"
        },
        {
          "internalType": "bytes32",
          "name": "nonce",
          "type": "bytes32"
        },
        {
          "internalType": "bytes",
          "name": "data",
          "type": "bytes"
        },
        {
          "internalType": "bytes",
          "name": "signature",
          "type": "bytes"
        },
        {
          "internalType": "bytes",
          "name": "orderId",
          "type": "bytes"
        }
      ],
      "name": "redeemPerk",
      "outputs": [],
      "stateMutability": "nonpayable",
      "type": "function"
    },
    {
      "inputs": [],
      "name": "renounceOwnership",
      "outputs": [],
      "stateMutability": "nonpayable",
      "type": "function"
    },
    {
      "inputs": [
        {
          "internalType": "bytes4",
          "name": "interfaceId",
          "type": "bytes4"
        }
      ],
      "name": "supportsInterface",
      "outputs": [
        {
          "internalType": "bool",
          "name": "",
          "type": "bool"
        }
      ],
      "stateMutability": "view",
      "type": "function"
    },
    {
      "inputs": [
        {
          "internalType": "address",
          "name": "newOwner",
          "type": "address"
        }
      ],
      "name": "transferOwnership",
      "outputs": [],
      "stateMutability": "nonpayable",
      "type": "function"
    },
    {
      "inputs": [
        {
          "internalType": "address",
          "name": "_newTarget",
          "type": "address"
        }
      ],
      "name": "updateTarget",
      "outputs": [],
      "stateMutability": "nonpayable",
      "type": "function"
    }
  ],
  "bytecode": "0x608060405234801561001057600080fd5b506040516118a33803806118a383398101604081905261002f916100ad565b6100383361005d565b600180546001600160a01b0319166001600160a01b03929092169190911790556100dd565b600080546001600160a01b038381166001600160a01b0319831681178455604051919092169283917f8be0079c531659141344cd1fd0a4f28419497f9722a3daafe3b4186f6b6457e09190a35050565b6000602082840312156100bf57600080fd5b81516001600160a01b03811681146100d657600080fd5b9392505050565b6117b7806100ec6000396000f3fe608060405234801561001057600080fd5b50600436106100a95760003560e01c8063bfb6e08b11610071578063bfb6e08b14610121578063d5212e3c14610141578063db1e3ef314610154578063ea1b495f14610167578063f2fde38b1461017a578063ffa1ad741461018d57600080fd5b806301ffc9a7146100ae578063285ac885146100d6578063715018a6146100e95780638da5cb5b146100f3578063bbb9ddd31461010e575b600080fd5b6100c16100bc366004610fac565b6101b2565b60405190151581526020015b60405180910390f35b6100c16100e4366004610ff6565b6101e9565b6100f1610262565b005b6000546040516001600160a01b0390911681526020016100cd565b6100f161011c3660046110fa565b610276565b61013461012f3660046111ca565b610761565b6040516100cd91906112ab565b61013461014f3660046112be565b6107d3565b6100f161016236600461136d565b610850565b6100f1610175366004611424565b610a85565b6100f1610188366004611424565b610ae1565b610134604051806040016040528060068152602001650302e31352e360d41b81525081565b60006001600160e01b0319821663033b9e2d60e61b14806101e357506301ffc9a760e01b6001600160e01b03198316145b92915050565b60008060405180604001604052808560601b6001600160601b03191681526020018481525060405160200161021e9190611441565b60408051601f1981840301815291815281516020928301206001600160a01b0388166000908152600390935291209091506102599082610b5f565b95945050505050565b61026a610b7a565b6102746000610bd4565b565b60008960601b8760405160200161028f91815260200190565b60408051601f19818403018152828252602083018a905291016040516020818303038152906040528b60601b8b868a8a6040516020016102d6989796959493929190611475565b604051602081830303815290604052905060006102f98280519060200120610c24565b6001549091506001600160a01b0316331461032757604051633ed2200160e11b815260040160405180910390fd5b8643111561034857604051631d389b0b60e11b815260040160405180910390fd5b630b135d3f60e11b61035a8286610c57565b6001600160e01b0319161461038257604051638baa579f60e01b815260040160405180910390fd5b8761038b610df1565b146103a957604051636956f2ab60e11b815260040160405180910390fd5b60008681526002602052604090205460ff16156103d957604051633ab3447f60e11b815260040160405180910390fd5b604051630217b22760e41b8152600481018a90526000906001600160a01b038c169063217b227090602401602060405180830381865afa158015610421573d6000803e3d6000fd5b505050506040513d601f19601f820116820180604052508101906104459190611505565b905061044f610e19565b6001600160a01b0316816001600160a01b0316146104805760405163f458de7160e01b815260040160405180910390fd5b600060405180604001604052808e60601b6001600160601b03191681526020018c8152506040516020016104b49190611441565b60408051601f1981840301815291815281516020928301206001600160a01b038f166000908152600390935291209091506104ef9082610b5f565b1561050d5760405163f4249fb360e01b815260040160405180910390fd5b6001600160a01b038c16600090815260036020526040902061052f9082610e52565b50600160009054906101000a90046001600160a01b03166001600160a01b03166344c028fe60008f60008b6040518563ffffffff1660e01b81526004016105799493929190611522565b6000604051808303816000875af1158015610598573d6000803e3d6000fd5b505050506040513d6000823e601f3d908101601f191682016040526105c09190810190611559565b5060008881526002602052604090819020805460ff19166001179055517fe4a6407979da9518dfbc88bfe7f0f53a52c4c16e1f54a90bf1ff721d341ef4439061060a9087906112ab565b60405180910390a160408051808201909152600c81526b4275726e416674657255736560a01b60209091015260007ffbdb7422394d0d1e5a42ce23325710e31f051fe0ac8874d7818c181a294a86316040516354f6127f60e01b8152600481018290529091506000906001600160a01b038f16906354f6127f90602401600060405180830381865afa1580156106a4573d6000803e3d6000fd5b505050506040513d6000823e601f3d908101601f191682016040526106cc9190810190611559565b90506001600160f01b03196106e0826115c6565b6001600160f01b03191603610750578d6001600160a01b0316636c79b70b8e896040518363ffffffff1660e01b815260040161071d9291906115fd565b600060405180830381600087803b15801561073757600080fd5b505af115801561074b573d6000803e3d6000fd5b505050505b505050505050505050505050505050565b60608660601b8660405160200161077a91815260200190565b60408051601f1981840301815282825260208301899052910160408051601f19818403018152908290526107b893929188908890889060200161161e565b60405160208183030381529060405290509695505050505050565b60608860601b886040516020016107ec91815260200190565b60408051601f19818403018152828252602083018b905291016040516020818303038152906040528860601b88868989604051602001610833989796959493929190611475565b604051602081830303815290604052905098975050505050505050565b60008760601b8760405160200161086991815260200190565b60408051601f19818403018152828252602083018a9052910160408051601f19818403018152908290526108a793929189908990889060200161161e565b604051602081830303815290604052905060006108ca8280519060200120610c24565b6001549091506001600160a01b031633146108f857604051633ed2200160e11b815260040160405180910390fd5b8643111561091957604051631d389b0b60e11b815260040160405180910390fd5b630b135d3f60e11b61092b8286610c57565b6001600160e01b0319161461095357604051638baa579f60e01b815260040160405180910390fd5b8761095c610df1565b1461097a57604051636956f2ab60e11b815260040160405180910390fd5b60008681526002602052604090205460ff16156109aa57604051633ab3447f60e11b815260040160405180910390fd5b600154604051632260147f60e11b81526001600160a01b03909116906344c028fe906109e1906000908d9082908b90600401611522565b6000604051808303816000875af1158015610a00573d6000803e3d6000fd5b505050506040513d6000823e601f3d908101601f19168201604052610a289190810190611559565b5060008681526002602052604090819020805460ff19166001179055517fe4a6407979da9518dfbc88bfe7f0f53a52c4c16e1f54a90bf1ff721d341ef44390610a729085906112ab565b60405180910390a1505050505050505050565b610a8d610b7a565b600180546001600160a01b0319166001600160a01b0383169081179091556040519081527f7f8cffd58ac96898bdd25ab64868bd933141d15ad1cd4a0df228fd3fcba2a26d9060200160405180910390a150565b610ae9610b7a565b6001600160a01b038116610b535760405162461bcd60e51b815260206004820152602660248201527f4f776e61626c653a206e6577206f776e657220697320746865207a65726f206160448201526564647265737360d01b60648201526084015b60405180910390fd5b610b5c81610bd4565b50565b600081815260018301602052604081205415155b9392505050565b6000546001600160a01b031633146102745760405162461bcd60e51b815260206004820181905260248201527f4f776e61626c653a2063616c6c6572206973206e6f7420746865206f776e65726044820152606401610b4a565b600080546001600160a01b038381166001600160a01b0319831681178455604051919092169283917f8be0079c531659141344cd1fd0a4f28419497f9722a3daafe3b4186f6b6457e09190a35050565b7f19457468657265756d205369676e6564204d6573736167653a0a3332000000006000908152601c91909152603c902090565b6001546000906001600160a01b03163b15610d7e5760015460405160009182916001600160a01b0390911690630b135d3f60e11b90610c9c90889088906024016115fd565b60408051601f198184030181529181526020820180516001600160e01b03166001600160e01b0319909416939093179092529051610cda9190611698565b600060405180830381855afa9150503d8060008114610d15576040519150601f19603f3d011682016040523d82523d6000602084013e610d1a565b606091505b50915091506000828015610d2f575081516020145b8015610d5657508151630b135d3f60e11b90610d5490840160209081019085016116b4565b145b905080610d6b576001600160e01b0319610d74565b630b135d3f60e11b5b93505050506101e3565b600080610d8b8585610e5e565b90925090506000816004811115610da457610da46116cd565b14610dbc57506001600160e01b031991506101e39050565b6001546001600160a01b03838116911614610ddf576001600160e01b0319610de8565b630b135d3f60e11b5b925050506101e3565b60008036610e006020826116e3565b610e0b928290611704565b610e149161172e565b919050565b60008036610e286034826116e3565b90610e346020366116e3565b92610e4193929190611704565b610e4a9161174c565b60601c905090565b6000610b738383610ea3565b6000808251604103610e945760208301516040840151606085015160001a610e8887828585610ef2565b94509450505050610e9c565b506000905060025b9250929050565b6000818152600183016020526040812054610eea575081546001818101845560008481526020808220909301849055845484825282860190935260409020919091556101e3565b5060006101e3565b6000806fa2a8918ca85bafe22016d0b997e4df60600160ff1b03831115610f1f5750600090506003610fa3565b6040805160008082526020820180845289905260ff881692820192909252606081018690526080810185905260019060a0016020604051602081039080840390855afa158015610f73573d6000803e3d6000fd5b5050604051601f1901519150506001600160a01b038116610f9c57600060019250925050610fa3565b9150600090505b94509492505050565b600060208284031215610fbe57600080fd5b81356001600160e01b031981168114610b7357600080fd5b6001600160a01b0381168114610b5c57600080fd5b8035610e1481610fd6565b60008060006060848603121561100b57600080fd5b833561101681610fd6565b9250602084013561102681610fd6565b929592945050506040919091013590565b634e487b7160e01b600052604160045260246000fd5b604051601f8201601f191681016001600160401b038111828210171561107557611075611037565b604052919050565b60006001600160401b0382111561109657611096611037565b50601f01601f191660200190565b600082601f8301126110b557600080fd5b81356110c86110c38261107d565b61104d565b8181528460208386010111156110dd57600080fd5b816020850160208301376000918101602001919091529392505050565b60008060008060008060008060006101208a8c03121561111957600080fd5b6111228a610feb565b985061113060208b01610feb565b975060408a0135965060608a0135955060808a0135945060a08a0135935060c08a01356001600160401b038082111561116857600080fd5b6111748d838e016110a4565b945060e08c013591508082111561118a57600080fd5b6111968d838e016110a4565b93506101008c01359150808211156111ad57600080fd5b506111ba8c828d016110a4565b9150509295985092959850929598565b60008060008060008060c087890312156111e357600080fd5b86356111ee81610fd6565b955060208701359450604087013593506060870135925060808701356001600160401b038082111561121f57600080fd5b61122b8a838b016110a4565b935060a089013591508082111561124157600080fd5b5061124e89828a016110a4565b9150509295509295509295565b60005b8381101561127657818101518382015260200161125e565b50506000910152565b6000815180845261129781602086016020860161125b565b601f01601f19169290920160200192915050565b602081526000610b73602083018461127f565b600080600080600080600080610100898b0312156112db57600080fd5b88356112e681610fd6565b97506020890135965060408901359550606089013561130481610fd6565b94506080890135935060a0890135925060c08901356001600160401b038082111561132e57600080fd5b61133a8c838d016110a4565b935060e08b013591508082111561135057600080fd5b5061135d8b828c016110a4565b9150509295985092959890939650565b600080600080600080600060e0888a03121561138857600080fd5b873561139381610fd6565b965060208801359550604088013594506060880135935060808801356001600160401b03808211156113c457600080fd5b6113d08b838c016110a4565b945060a08a01359150808211156113e657600080fd5b6113f28b838c016110a4565b935060c08a013591508082111561140857600080fd5b506114158a828b016110a4565b91505092959891949750929550565b60006020828403121561143657600080fd5b8135610b7381610fd6565b60008183825b6002811015611466578151835260209283019290910190600101611447565b50505060408201905092915050565b60006001600160601b0319808b1683528951611498816014860160208e0161125b565b8951908401906114af816014840160208e0161125b565b8082019150508189166014820152876028820152865191506114d8826048830160208a0161125b565b016048810185905283516114f381606884016020880161125b565b016068019a9950505050505050505050565b60006020828403121561151757600080fd5b8151610b7381610fd6565b84815260018060a01b038416602082015282604082015260806060820152600061154f608083018461127f565b9695505050505050565b60006020828403121561156b57600080fd5b81516001600160401b0381111561158157600080fd5b8201601f8101841361159257600080fd5b80516115a06110c38261107d565b8181528560208385010111156115b557600080fd5b61025982602083016020860161125b565b805160208201516001600160f01b031980821692919060028310156115f55780818460020360031b1b83161693505b505050919050565b828152604060208201526000611616604083018461127f565b949350505050565b6001600160601b03198716815260008651611640816014850160208b0161125b565b865190830190611657816014840160208b0161125b565b0160148101869052845161167281603484016020890161125b565b845191019061168881603484016020880161125b565b0160340198975050505050505050565b600082516116aa81846020870161125b565b9190910192915050565b6000602082840312156116c657600080fd5b5051919050565b634e487b7160e01b600052602160045260246000fd5b818103818111156101e357634e487b7160e01b600052601160045260246000fd5b6000808585111561171457600080fd5b8386111561172157600080fd5b5050820193919092039150565b803560208310156101e357600019602084900360031b1b1692915050565b6bffffffffffffffffffffffff1981358181169160148510156117795780818660140360031b1b83161692505b50509291505056fea264697066735822122086b76df625392d2a15b7336dde345a87d95e9f60c3e9729323d922b53fcc4f8564736f6c63430008140033",
  "linkReferences": {},
  "deployedLinkReferences": {}
}