{
  "_format": "hh-sol-artifact-1",
  "contractName": "OrderExtension",
  "sourceName": "contracts/OrderExtension.sol",
  "abi": [
    {
      "inputs": [
        {
          "internalType": "address",
          "name": "target_",
          "type": "address"
        }
      ],
      "stateMutability": "nonpayable",
      "type": "constructor"
    },
    {
      "inputs": [],
      "name": "BlockAlreadyConfirmed",
      "type": "error"
    },
    {
      "inputs": [],
      "name": "CallerNotPerkOwner",
      "type": "error"
    },
    {
      "inputs": [],
      "name": "CallerNotTarget",
      "type": "error"
    },
    {
      "inputs": [],
      "name": "IncorrectValue",
      "type": "error"
    },
    {
      "inputs": [],
      "name": "InvalidNonce",
      "type": "error"
    },
    {
      "inputs": [],
      "name": "InvalidSignature",
      "type": "error"
    },
    {
      "inputs": [],
      "name": "PerkAlreadyClaimed",
      "type": "error"
    },
    {
      "anonymous": false,
      "inputs": [
        {
          "indexed": false,
          "internalType": "bytes",
          "name": "orderId",
          "type": "bytes"
        }
      ],
      "name": "OrderCreated",
      "type": "event"
    },
    {
      "anonymous": false,
      "inputs": [
        {
          "indexed": true,
          "internalType": "address",
          "name": "previousOwner",
          "type": "address"
        },
        {
          "indexed": true,
          "internalType": "address",
          "name": "newOwner",
          "type": "address"
        }
      ],
      "name": "OwnershipTransferred",
      "type": "event"
    },
    {
      "anonymous": false,
      "inputs": [
        {
          "indexed": false,
          "internalType": "address",
          "name": "newTarget",
          "type": "address"
        }
      ],
      "name": "TargetChanged",
      "type": "event"
    },
    {
      "inputs": [],
      "name": "VERSION",
      "outputs": [
        {
          "internalType": "string",
          "name": "",
          "type": "string"
        }
      ],
      "stateMutability": "view",
      "type": "function"
    },
    {
      "inputs": [
        {
          "internalType": "address",
          "name": "collection",
          "type": "address"
        },
        {
          "internalType": "uint256",
          "name": "value",
          "type": "uint256"
        },
        {
          "internalType": "uint256",
          "name": "maxBlockNumber",
          "type": "uint256"
        },
        {
          "internalType": "bytes32",
          "name": "nonce",
          "type": "bytes32"
        },
        {
          "internalType": "bytes",
          "name": "data",
          "type": "bytes"
        },
        {
          "internalType": "bytes",
          "name": "orderId",
          "type": "bytes"
        }
      ],
      "name": "getOrderHash",
      "outputs": [
        {
          "internalType": "bytes",
          "name": "message",
          "type": "bytes"
        }
      ],
      "stateMutability": "pure",
      "type": "function"
    },
    {
      "inputs": [
        {
          "internalType": "address",
          "name": "collection",
          "type": "address"
        },
        {
          "internalType": "uint256",
          "name": "value",
          "type": "uint256"
        },
        {
          "internalType": "uint256",
          "name": "maxBlockNumber",
          "type": "uint256"
        },
        {
          "internalType": "address",
          "name": "perkAddress",
          "type": "address"
        },
        {
          "internalType": "bytes32",
          "name": "perkTokenId",
          "type": "bytes32"
        },
        {
          "internalType": "bytes32",
          "name": "nonce",
          "type": "bytes32"
        },
        {
          "internalType": "bytes",
          "name": "data",
          "type": "bytes"
        },
        {
          "internalType": "bytes",
          "name": "orderId",
          "type": "bytes"
        }
      ],
      "name": "getRedeemPerkHash",
      "outputs": [
        {
          "internalType": "bytes",
          "name": "message",
          "type": "bytes"
        }
      ],
      "stateMutability": "pure",
      "type": "function"
    },
    {
      "inputs": [],
      "name": "owner",
      "outputs": [
        {
          "internalType": "address",
          "name": "",
          "type": "address"
        }
      ],
      "stateMutability": "view",
      "type": "function"
    },
    {
      "inputs": [
        {
          "internalType": "address",
          "name": "collection",
          "type": "address"
        },
        {
          "internalType": "uint256",
          "name": "value",
          "type": "uint256"
        },
        {
          "internalType": "uint256",
          "name": "maxBlockNumber",
          "type": "uint256"
        },
        {
          "internalType": "bytes32",
          "name": "nonce",
          "type": "bytes32"
        },
        {
          "internalType": "bytes",
          "name": "data",
          "type": "bytes"
        },
        {
          "internalType": "bytes",
          "name": "signature",
          "type": "bytes"
        },
        {
          "internalType": "bytes",
          "name": "orderId",
          "type": "bytes"
        }
      ],
      "name": "placeOrder",
      "outputs": [],
      "stateMutability": "nonpayable",
      "type": "function"
    },
    {
      "inputs": [
        {
          "internalType": "address",
          "name": "collection",
          "type": "address"
        },
        {
          "internalType": "address",
          "name": "perkAddress",
          "type": "address"
        },
        {
          "internalType": "bytes32",
          "name": "perkTokenId",
          "type": "bytes32"
        },
        {
          "internalType": "uint256",
          "name": "value",
          "type": "uint256"
        },
        {
          "internalType": "uint256",
          "name": "maxBlockNumber",
          "type": "uint256"
        },
        {
          "internalType": "bytes32",
          "name": "nonce",
          "type": "bytes32"
        },
        {
          "internalType": "bytes",
          "name": "data",
          "type": "bytes"
        },
        {
          "internalType": "bytes",
          "name": "signature",
          "type": "bytes"
        },
        {
          "internalType": "bytes",
          "name": "orderId",
          "type": "bytes"
        }
      ],
      "name": "redeemPerk",
      "outputs": [],
      "stateMutability": "nonpayable",
      "type": "function"
    },
    {
      "inputs": [],
      "name": "renounceOwnership",
      "outputs": [],
      "stateMutability": "nonpayable",
      "type": "function"
    },
    {
      "inputs": [
        {
          "internalType": "bytes4",
          "name": "interfaceId",
          "type": "bytes4"
        }
      ],
      "name": "supportsInterface",
      "outputs": [
        {
          "internalType": "bool",
          "name": "",
          "type": "bool"
        }
      ],
      "stateMutability": "view",
      "type": "function"
    },
    {
      "inputs": [
        {
          "internalType": "address",
          "name": "newOwner",
          "type": "address"
        }
      ],
      "name": "transferOwnership",
      "outputs": [],
      "stateMutability": "nonpayable",
      "type": "function"
    },
    {
      "inputs": [
        {
          "internalType": "address",
          "name": "_newTarget",
          "type": "address"
        }
      ],
      "name": "updateTarget",
      "outputs": [],
      "stateMutability": "nonpayable",
      "type": "function"
    }
  ],
  "bytecode": "0x608060405234801561001057600080fd5b5060405161174938038061174983398101604081905261002f916100ad565b6100383361005d565b600180546001600160a01b0319166001600160a01b03929092169190911790556100dd565b600080546001600160a01b038381166001600160a01b0319831681178455604051919092169283917f8be0079c531659141344cd1fd0a4f28419497f9722a3daafe3b4186f6b6457e09190a35050565b6000602082840312156100bf57600080fd5b81516001600160a01b03811681146100d657600080fd5b9392505050565b61165d806100ec6000396000f3fe608060405234801561001057600080fd5b506004361061009e5760003560e01c8063d5212e3c11610066578063d5212e3c14610123578063db1e3ef314610136578063ea1b495f14610149578063f2fde38b1461015c578063ffa1ad741461016f57600080fd5b806301ffc9a7146100a3578063715018a6146100cb5780638da5cb5b146100d5578063bbb9ddd3146100f0578063bfb6e08b14610103575b600080fd5b6100b66100b1366004610ec7565b610194565b60405190151581526020015b60405180910390f35b6100d36101cb565b005b6000546040516001600160a01b0390911681526020016100c2565b6100d36100fe366004610fd4565b6101df565b6101166101113660046110a4565b61067c565b6040516100c29190611185565b610116610131366004611198565b6106ee565b6100d3610144366004611247565b61076b565b6100d36101573660046112fe565b6109a0565b6100d361016a3660046112fe565b6109fc565b610116604051806040016040528060068152602001650302e31352e360d41b81525081565b60006001600160e01b0319821663033b9e2d60e61b14806101c557506301ffc9a760e01b6001600160e01b03198316145b92915050565b6101d3610a7a565b6101dd6000610ad4565b565b60008960601b876040516020016101f891815260200190565b60408051601f19818403018152828252602083018a905291016040516020818303038152906040528b60601b8b868a8a60405160200161023f98979695949392919061131b565b604051602081830303815290604052905060006102628280519060200120610b24565b6001549091506001600160a01b0316331461029057604051633ed2200160e11b815260040160405180910390fd5b864311156102b157604051631d389b0b60e11b815260040160405180910390fd5b630b135d3f60e11b6102c38286610b57565b6001600160e01b031916146102eb57604051638baa579f60e01b815260040160405180910390fd5b876102f4610cf1565b1461031257604051636956f2ab60e11b815260040160405180910390fd5b60008681526002602052604090205460ff161561034257604051633ab3447f60e11b815260040160405180910390fd5b604051630217b22760e41b8152600481018a90526000906001600160a01b038c169063217b227090602401602060405180830381865afa15801561038a573d6000803e3d6000fd5b505050506040513d601f19601f820116820180604052508101906103ae91906113ab565b90506103b8610d19565b6001600160a01b0316816001600160a01b0316146103e95760405163f458de7160e01b815260040160405180910390fd5b6001600160a01b038c16600090815260036020526040902061040b908b610d52565b156104295760405163f4249fb360e01b815260040160405180910390fd5b6001600160a01b038c16600090815260036020526040902061044b908b610d6d565b50600160009054906101000a90046001600160a01b03166001600160a01b03166344c028fe60008e60008a6040518563ffffffff1660e01b815260040161049594939291906113c8565b6000604051808303816000875af11580156104b4573d6000803e3d6000fd5b505050506040513d6000823e601f3d908101601f191682016040526104dc91908101906113ff565b5060008781526002602052604090819020805460ff19166001179055517fe4a6407979da9518dfbc88bfe7f0f53a52c4c16e1f54a90bf1ff721d341ef44390610526908690611185565b60405180910390a160408051808201909152600c81526b4275726e416674657255736560a01b60209091015260007ffbdb7422394d0d1e5a42ce23325710e31f051fe0ac8874d7818c181a294a86316040516354f6127f60e01b8152600481018290529091506000906001600160a01b038e16906354f6127f90602401600060405180830381865afa1580156105c0573d6000803e3d6000fd5b505050506040513d6000823e601f3d908101601f191682016040526105e891908101906113ff565b90506001600160f01b03196105fc8261146c565b6001600160f01b0319160361066c57604051636c79b70b60e01b81526001600160a01b038e1690636c79b70b90610639908f908a906004016114a3565b600060405180830381600087803b15801561065357600080fd5b505af1158015610667573d6000803e3d6000fd5b505050505b5050505050505050505050505050565b60608660601b8660405160200161069591815260200190565b60408051601f1981840301815282825260208301899052910160408051601f19818403018152908290526106d39392918890889088906020016114c4565b60405160208183030381529060405290509695505050505050565b60608860601b8860405160200161070791815260200190565b60408051601f19818403018152828252602083018b905291016040516020818303038152906040528860601b8886898960405160200161074e98979695949392919061131b565b604051602081830303815290604052905098975050505050505050565b60008760601b8760405160200161078491815260200190565b60408051601f19818403018152828252602083018a9052910160408051601f19818403018152908290526107c29392918990899088906020016114c4565b604051602081830303815290604052905060006107e58280519060200120610b24565b6001549091506001600160a01b0316331461081357604051633ed2200160e11b815260040160405180910390fd5b8643111561083457604051631d389b0b60e11b815260040160405180910390fd5b630b135d3f60e11b6108468286610b57565b6001600160e01b0319161461086e57604051638baa579f60e01b815260040160405180910390fd5b87610877610cf1565b1461089557604051636956f2ab60e11b815260040160405180910390fd5b60008681526002602052604090205460ff16156108c557604051633ab3447f60e11b815260040160405180910390fd5b600154604051632260147f60e11b81526001600160a01b03909116906344c028fe906108fc906000908d9082908b906004016113c8565b6000604051808303816000875af115801561091b573d6000803e3d6000fd5b505050506040513d6000823e601f3d908101601f1916820160405261094391908101906113ff565b5060008681526002602052604090819020805460ff19166001179055517fe4a6407979da9518dfbc88bfe7f0f53a52c4c16e1f54a90bf1ff721d341ef4439061098d908590611185565b60405180910390a1505050505050505050565b6109a8610a7a565b600180546001600160a01b0319166001600160a01b0383169081179091556040519081527f7f8cffd58ac96898bdd25ab64868bd933141d15ad1cd4a0df228fd3fcba2a26d9060200160405180910390a150565b610a04610a7a565b6001600160a01b038116610a6e5760405162461bcd60e51b815260206004820152602660248201527f4f776e61626c653a206e6577206f776e657220697320746865207a65726f206160448201526564647265737360d01b60648201526084015b60405180910390fd5b610a7781610ad4565b50565b6000546001600160a01b031633146101dd5760405162461bcd60e51b815260206004820181905260248201527f4f776e61626c653a2063616c6c6572206973206e6f7420746865206f776e65726044820152606401610a65565b600080546001600160a01b038381166001600160a01b0319831681178455604051919092169283917f8be0079c531659141344cd1fd0a4f28419497f9722a3daafe3b4186f6b6457e09190a35050565b7f19457468657265756d205369676e6564204d6573736167653a0a3332000000006000908152601c91909152603c902090565b6001546000906001600160a01b03163b15610c7e5760015460405160009182916001600160a01b0390911690630b135d3f60e11b90610b9c90889088906024016114a3565b60408051601f198184030181529181526020820180516001600160e01b03166001600160e01b0319909416939093179092529051610bda919061153e565b600060405180830381855afa9150503d8060008114610c15576040519150601f19603f3d011682016040523d82523d6000602084013e610c1a565b606091505b50915091506000828015610c2f575081516020145b8015610c5657508151630b135d3f60e11b90610c54908401602090810190850161155a565b145b905080610c6b576001600160e01b0319610c74565b630b135d3f60e11b5b93505050506101c5565b600080610c8b8585610d79565b90925090506000816004811115610ca457610ca4611573565b14610cbc57506001600160e01b031991506101c59050565b6001546001600160a01b03838116911614610cdf576001600160e01b0319610ce8565b630b135d3f60e11b5b95945050505050565b60008036610d00602082611589565b610d0b9282906115aa565b610d14916115d4565b919050565b60008036610d28603482611589565b90610d34602036611589565b92610d41939291906115aa565b610d4a916115f2565b60601c905090565b600081815260018301602052604081205415155b9392505050565b6000610d668383610dbe565b6000808251604103610daf5760208301516040840151606085015160001a610da387828585610e0d565b94509450505050610db7565b506000905060025b9250929050565b6000818152600183016020526040812054610e05575081546001818101845560008481526020808220909301849055845484825282860190935260409020919091556101c5565b5060006101c5565b6000806fa2a8918ca85bafe22016d0b997e4df60600160ff1b03831115610e3a5750600090506003610ebe565b6040805160008082526020820180845289905260ff881692820192909252606081018690526080810185905260019060a0016020604051602081039080840390855afa158015610e8e573d6000803e3d6000fd5b5050604051601f1901519150506001600160a01b038116610eb757600060019250925050610ebe565b9150600090505b94509492505050565b600060208284031215610ed957600080fd5b81356001600160e01b031981168114610d6657600080fd5b6001600160a01b0381168114610a7757600080fd5b8035610d1481610ef1565b634e487b7160e01b600052604160045260246000fd5b604051601f8201601f191681016001600160401b0381118282101715610f4f57610f4f610f11565b604052919050565b60006001600160401b03821115610f7057610f70610f11565b50601f01601f191660200190565b600082601f830112610f8f57600080fd5b8135610fa2610f9d82610f57565b610f27565b818152846020838601011115610fb757600080fd5b816020850160208301376000918101602001919091529392505050565b60008060008060008060008060006101208a8c031215610ff357600080fd5b610ffc8a610f06565b985061100a60208b01610f06565b975060408a0135965060608a0135955060808a0135945060a08a0135935060c08a01356001600160401b038082111561104257600080fd5b61104e8d838e01610f7e565b945060e08c013591508082111561106457600080fd5b6110708d838e01610f7e565b93506101008c013591508082111561108757600080fd5b506110948c828d01610f7e565b9150509295985092959850929598565b60008060008060008060c087890312156110bd57600080fd5b86356110c881610ef1565b955060208701359450604087013593506060870135925060808701356001600160401b03808211156110f957600080fd5b6111058a838b01610f7e565b935060a089013591508082111561111b57600080fd5b5061112889828a01610f7e565b9150509295509295509295565b60005b83811015611150578181015183820152602001611138565b50506000910152565b60008151808452611171816020860160208601611135565b601f01601f19169290920160200192915050565b602081526000610d666020830184611159565b600080600080600080600080610100898b0312156111b557600080fd5b88356111c081610ef1565b9750602089013596506040890135955060608901356111de81610ef1565b94506080890135935060a0890135925060c08901356001600160401b038082111561120857600080fd5b6112148c838d01610f7e565b935060e08b013591508082111561122a57600080fd5b506112378b828c01610f7e565b9150509295985092959890939650565b600080600080600080600060e0888a03121561126257600080fd5b873561126d81610ef1565b965060208801359550604088013594506060880135935060808801356001600160401b038082111561129e57600080fd5b6112aa8b838c01610f7e565b945060a08a01359150808211156112c057600080fd5b6112cc8b838c01610f7e565b935060c08a01359150808211156112e257600080fd5b506112ef8a828b01610f7e565b91505092959891949750929550565b60006020828403121561131057600080fd5b8135610d6681610ef1565b60006001600160601b0319808b168352895161133e816014860160208e01611135565b895190840190611355816014840160208e01611135565b80820191505081891660148201528760288201528651915061137e826048830160208a01611135565b01604881018590528351611399816068840160208801611135565b016068019a9950505050505050505050565b6000602082840312156113bd57600080fd5b8151610d6681610ef1565b84815260018060a01b03841660208201528260408201526080606082015260006113f56080830184611159565b9695505050505050565b60006020828403121561141157600080fd5b81516001600160401b0381111561142757600080fd5b8201601f8101841361143857600080fd5b8051611446610f9d82610f57565b81815285602083850101111561145b57600080fd5b610ce8826020830160208601611135565b805160208201516001600160f01b0319808216929190600283101561149b5780818460020360031b1b83161693505b505050919050565b8281526040602082015260006114bc6040830184611159565b949350505050565b6001600160601b031987168152600086516114e6816014850160208b01611135565b8651908301906114fd816014840160208b01611135565b01601481018690528451611518816034840160208901611135565b845191019061152e816034840160208801611135565b0160340198975050505050505050565b60008251611550818460208701611135565b9190910192915050565b60006020828403121561156c57600080fd5b5051919050565b634e487b7160e01b600052602160045260246000fd5b818103818111156101c557634e487b7160e01b600052601160045260246000fd5b600080858511156115ba57600080fd5b838611156115c757600080fd5b5050820193919092039150565b803560208310156101c557600019602084900360031b1b1692915050565b6bffffffffffffffffffffffff19813581811691601485101561161f5780818660140360031b1b83161692505b50509291505056fea26469706673582212209299b748665ce62cb002aca6c530a17f33b8339711153428e445edf076eb3e8064736f6c63430008140033",
  "linkReferences": {},
  "deployedLinkReferences": {}
}