{
  "_format": "hh-sol-artifact-1",
  "contractName": "OrderExtension",
  "sourceName": "contracts/OrderExtension.sol",
  "abi": [
    {
      "inputs": [
        {
          "internalType": "address",
          "name": "target_",
          "type": "address"
        }
      ],
      "stateMutability": "nonpayable",
      "type": "constructor"
    },
    {
      "inputs": [],
      "name": "BlockAlreadyConfirmed",
      "type": "error"
    },
    {
      "inputs": [],
      "name": "CallerNotTarget",
      "type": "error"
    },
    {
      "inputs": [],
      "name": "IncorrectValue",
      "type": "error"
    },
    {
      "inputs": [],
      "name": "InvalidNonce",
      "type": "error"
    },
    {
      "inputs": [],
      "name": "InvalidSignature",
      "type": "error"
    },
    {
      "anonymous": false,
      "inputs": [
        {
          "indexed": true,
          "internalType": "address",
          "name": "previousOwner",
          "type": "address"
        },
        {
          "indexed": true,
          "internalType": "address",
          "name": "newOwner",
          "type": "address"
        }
      ],
      "name": "OwnershipTransferred",
      "type": "event"
    },
    {
      "anonymous": false,
      "inputs": [
        {
          "indexed": false,
          "internalType": "address",
          "name": "newTarget",
          "type": "address"
        }
      ],
      "name": "TargetChanged",
      "type": "event"
    },
    {
      "inputs": [],
      "name": "VERSION",
      "outputs": [
        {
          "internalType": "string",
          "name": "",
          "type": "string"
        }
      ],
      "stateMutability": "view",
      "type": "function"
    },
    {
      "inputs": [
        {
          "internalType": "address",
          "name": "collection",
          "type": "address"
        },
        {
          "internalType": "uint256",
          "name": "value",
          "type": "uint256"
        },
        {
          "internalType": "uint256",
          "name": "maxBlockNumber",
          "type": "uint256"
        },
        {
          "internalType": "bytes32",
          "name": "nonce",
          "type": "bytes32"
        },
        {
          "internalType": "bytes",
          "name": "data",
          "type": "bytes"
        }
      ],
      "name": "getOrderHash",
      "outputs": [
        {
          "internalType": "bytes",
          "name": "message",
          "type": "bytes"
        }
      ],
      "stateMutability": "pure",
      "type": "function"
    },
    {
      "inputs": [],
      "name": "owner",
      "outputs": [
        {
          "internalType": "address",
          "name": "",
          "type": "address"
        }
      ],
      "stateMutability": "view",
      "type": "function"
    },
    {
      "inputs": [
        {
          "internalType": "address",
          "name": "collection",
          "type": "address"
        },
        {
          "internalType": "uint256",
          "name": "value",
          "type": "uint256"
        },
        {
          "internalType": "uint256",
          "name": "maxBlockNumber",
          "type": "uint256"
        },
        {
          "internalType": "bytes32",
          "name": "nonce",
          "type": "bytes32"
        },
        {
          "internalType": "bytes",
          "name": "data",
          "type": "bytes"
        },
        {
          "internalType": "bytes",
          "name": "signature",
          "type": "bytes"
        }
      ],
      "name": "placeOrder",
      "outputs": [],
      "stateMutability": "nonpayable",
      "type": "function"
    },
    {
      "inputs": [],
      "name": "renounceOwnership",
      "outputs": [],
      "stateMutability": "nonpayable",
      "type": "function"
    },
    {
      "inputs": [
        {
          "internalType": "bytes4",
          "name": "interfaceId",
          "type": "bytes4"
        }
      ],
      "name": "supportsInterface",
      "outputs": [
        {
          "internalType": "bool",
          "name": "",
          "type": "bool"
        }
      ],
      "stateMutability": "view",
      "type": "function"
    },
    {
      "inputs": [
        {
          "internalType": "address",
          "name": "newOwner",
          "type": "address"
        }
      ],
      "name": "transferOwnership",
      "outputs": [],
      "stateMutability": "nonpayable",
      "type": "function"
    },
    {
      "inputs": [
        {
          "internalType": "address",
          "name": "_newTarget",
          "type": "address"
        }
      ],
      "name": "updateTarget",
      "outputs": [],
      "stateMutability": "nonpayable",
      "type": "function"
    }
  ],
  "bytecode": "0x608060405234801561001057600080fd5b50604051610df8380380610df883398101604081905261002f916100ad565b6100383361005d565b600180546001600160a01b0319166001600160a01b03929092169190911790556100dd565b600080546001600160a01b038381166001600160a01b0319831681178455604051919092169283917f8be0079c531659141344cd1fd0a4f28419497f9722a3daafe3b4186f6b6457e09190a35050565b6000602082840312156100bf57600080fd5b81516001600160a01b03811681146100d657600080fd5b9392505050565b610d0c806100ec6000396000f3fe608060405234801561001057600080fd5b50600436106100785760003560e01c806301ffc9a71461007d5780630c32b3bc146100a5578063715018a6146100c55780638da5cb5b146100cf578063e6ac5189146100ea578063ea1b495f146100fd578063f2fde38b14610110578063ffa1ad7414610123575b600080fd5b61009061008b36600461086e565b610148565b60405190151581526020015b60405180910390f35b6100b86100b336600461097b565b61017f565b60405161009c9190610a36565b6100cd6101ee565b005b6000546040516001600160a01b03909116815260200161009c565b6100cd6100f8366004610a49565b610202565b6100cd61010b366004610ad9565b610429565b6100cd61011e366004610ad9565b610485565b6100b860405180604001604052806006815260200165302e31322e3160d01b81525081565b60006001600160e01b0319821663033b9e2d60e61b148061017957506301ffc9a760e01b6001600160e01b03198316145b92915050565b60608560601b8560405160200161019891815260200190565b60408051601f1981840301815282825260208301889052910160408051601f19818403018152908290526101d493929187908790602001610af4565b604051602081830303815290604052905095945050505050565b6101f6610503565b610200600061055d565b565b60008660601b8660405160200161021b91815260200190565b60408051601f1981840301815282825260208301899052910160408051601f198184030181529082905261025793929188908890602001610af4565b604051602081830303815290604052905060006102a882805190602001207f19457468657265756d205369676e6564204d6573736167653a0a3332000000006000908152601c91909152603c902090565b6001549091506001600160a01b031633146102d657604051633ed2200160e11b815260040160405180910390fd5b854311156102f757604051631d389b0b60e11b815260040160405180910390fd5b630b135d3f60e11b61030982856105ad565b6001600160e01b0319161461033157604051638baa579f60e01b815260040160405180910390fd5b8661033a610747565b1461035857604051636956f2ab60e11b815260040160405180910390fd5b60008581526002602052604090205460ff161561038857604051633ab3447f60e11b815260040160405180910390fd5b600154604051632260147f60e11b81526001600160a01b03909116906344c028fe906103bf906000908c9082908a90600401610b5c565b6000604051808303816000875af11580156103de573d6000803e3d6000fd5b505050506040513d6000823e601f3d908101601f191682016040526104069190810190610b93565b50505060009283525050600260205260409020805460ff19166001179055505050565b610431610503565b600180546001600160a01b0319166001600160a01b0383169081179091556040519081527f7f8cffd58ac96898bdd25ab64868bd933141d15ad1cd4a0df228fd3fcba2a26d9060200160405180910390a150565b61048d610503565b6001600160a01b0381166104f75760405162461bcd60e51b815260206004820152602660248201527f4f776e61626c653a206e6577206f776e657220697320746865207a65726f206160448201526564647265737360d01b60648201526084015b60405180910390fd5b6105008161055d565b50565b6000546001600160a01b031633146102005760405162461bcd60e51b815260206004820181905260248201527f4f776e61626c653a2063616c6c6572206973206e6f7420746865206f776e657260448201526064016104ee565b600080546001600160a01b038381166001600160a01b0319831681178455604051919092169283917f8be0079c531659141344cd1fd0a4f28419497f9722a3daafe3b4186f6b6457e09190a35050565b6001546000906001600160a01b03163b156106d45760015460405160009182916001600160a01b0390911690630b135d3f60e11b906105f29088908890602401610c01565b60408051601f198184030181529181526020820180516001600160e01b03166001600160e01b03199094169390931790925290516106309190610c22565b600060405180830381855afa9150503d806000811461066b576040519150601f19603f3d011682016040523d82523d6000602084013e610670565b606091505b50915091506000828015610685575081516020145b80156106ac57508151630b135d3f60e11b906106aa9084016020908101908501610c3e565b145b9050806106c1576001600160e01b03196106ca565b630b135d3f60e11b5b9350505050610179565b6000806106e1858561076f565b909250905060008160048111156106fa576106fa610c57565b1461071257506001600160e01b031991506101799050565b6001546001600160a01b03838116911614610735576001600160e01b031961073e565b630b135d3f60e11b5b95945050505050565b60008036610756602082610c6d565b610761928290610c8e565b61076a91610cb8565b919050565b60008082516041036107a55760208301516040840151606085015160001a610799878285856107b4565b945094505050506107ad565b506000905060025b9250929050565b6000806fa2a8918ca85bafe22016d0b997e4df60600160ff1b038311156107e15750600090506003610865565b6040805160008082526020820180845289905260ff881692820192909252606081018690526080810185905260019060a0016020604051602081039080840390855afa158015610835573d6000803e3d6000fd5b5050604051601f1901519150506001600160a01b03811661085e57600060019250925050610865565b9150600090505b94509492505050565b60006020828403121561088057600080fd5b81356001600160e01b03198116811461089857600080fd5b9392505050565b80356001600160a01b038116811461076a57600080fd5b634e487b7160e01b600052604160045260246000fd5b604051601f8201601f1916810167ffffffffffffffff811182821017156108f5576108f56108b6565b604052919050565b600067ffffffffffffffff821115610917576109176108b6565b50601f01601f191660200190565b600082601f83011261093657600080fd5b8135610949610944826108fd565b6108cc565b81815284602083860101111561095e57600080fd5b816020850160208301376000918101602001919091529392505050565b600080600080600060a0868803121561099357600080fd5b61099c8661089f565b9450602086013593506040860135925060608601359150608086013567ffffffffffffffff8111156109cd57600080fd5b6109d988828901610925565b9150509295509295909350565b60005b83811015610a015781810151838201526020016109e9565b50506000910152565b60008151808452610a228160208601602086016109e6565b601f01601f19169290920160200192915050565b6020815260006108986020830184610a0a565b60008060008060008060c08789031215610a6257600080fd5b610a6b8761089f565b9550602087013594506040870135935060608701359250608087013567ffffffffffffffff80821115610a9d57600080fd5b610aa98a838b01610925565b935060a0890135915080821115610abf57600080fd5b50610acc89828a01610925565b9150509295509295509295565b600060208284031215610aeb57600080fd5b6108988261089f565b6bffffffffffffffffffffffff198616815260008551610b1b816014850160208a016109e6565b855190830190610b32816014840160208a016109e6565b01601481018590528351610b4d8160348401602088016109e6565b01603401979650505050505050565b84815260018060a01b0384166020820152826040820152608060608201526000610b896080830184610a0a565b9695505050505050565b600060208284031215610ba557600080fd5b815167ffffffffffffffff811115610bbc57600080fd5b8201601f81018413610bcd57600080fd5b8051610bdb610944826108fd565b818152856020838501011115610bf057600080fd5b61073e8260208301602086016109e6565b828152604060208201526000610c1a6040830184610a0a565b949350505050565b60008251610c348184602087016109e6565b9190910192915050565b600060208284031215610c5057600080fd5b5051919050565b634e487b7160e01b600052602160045260246000fd5b8181038181111561017957634e487b7160e01b600052601160045260246000fd5b60008085851115610c9e57600080fd5b83861115610cab57600080fd5b5050820193919092039150565b8035602083101561017957600019602084900360031b1b169291505056fea2646970667358221220ef87e06e6d9d4924a7b7da426f95744e98528bb0efac2d64005146a12cf0641e64736f6c63430008130033",
  "linkReferences": {},
  "deployedLinkReferences": {}
}