{
  "_format": "hh-sol-artifact-1",
  "contractName": "OrderExtension",
  "sourceName": "contracts/OrderExtension.sol",
  "abi": [
    {
      "inputs": [
        {
          "internalType": "address",
          "name": "target_",
          "type": "address"
        }
      ],
      "stateMutability": "nonpayable",
      "type": "constructor"
    },
    {
      "inputs": [],
      "name": "BlockAlreadyConfirmed",
      "type": "error"
    },
    {
      "inputs": [],
      "name": "CallerNotTarget",
      "type": "error"
    },
    {
      "inputs": [],
      "name": "IncorrectValue",
      "type": "error"
    },
    {
      "inputs": [],
      "name": "InvalidNonce",
      "type": "error"
    },
    {
      "inputs": [],
      "name": "InvalidSignature",
      "type": "error"
    },
    {
      "anonymous": false,
      "inputs": [
        {
          "indexed": true,
          "internalType": "address",
          "name": "previousOwner",
          "type": "address"
        },
        {
          "indexed": true,
          "internalType": "address",
          "name": "newOwner",
          "type": "address"
        }
      ],
      "name": "OwnershipTransferred",
      "type": "event"
    },
    {
      "anonymous": false,
      "inputs": [
        {
          "indexed": false,
          "internalType": "address",
          "name": "newTarget",
          "type": "address"
        }
      ],
      "name": "TargetChanged",
      "type": "event"
    },
    {
      "inputs": [
        {
          "internalType": "address",
          "name": "collection",
          "type": "address"
        },
        {
          "internalType": "uint256",
          "name": "value",
          "type": "uint256"
        },
        {
          "internalType": "uint256",
          "name": "maxBlockNumber",
          "type": "uint256"
        },
        {
          "internalType": "bytes32",
          "name": "nonce",
          "type": "bytes32"
        },
        {
          "internalType": "bytes",
          "name": "data",
          "type": "bytes"
        }
      ],
      "name": "getOrderHash",
      "outputs": [
        {
          "internalType": "bytes",
          "name": "message",
          "type": "bytes"
        }
      ],
      "stateMutability": "pure",
      "type": "function"
    },
    {
      "inputs": [],
      "name": "owner",
      "outputs": [
        {
          "internalType": "address",
          "name": "",
          "type": "address"
        }
      ],
      "stateMutability": "view",
      "type": "function"
    },
    {
      "inputs": [
        {
          "internalType": "address",
          "name": "collection",
          "type": "address"
        },
        {
          "internalType": "uint256",
          "name": "value",
          "type": "uint256"
        },
        {
          "internalType": "uint256",
          "name": "maxBlockNumber",
          "type": "uint256"
        },
        {
          "internalType": "bytes32",
          "name": "nonce",
          "type": "bytes32"
        },
        {
          "internalType": "bytes",
          "name": "data",
          "type": "bytes"
        },
        {
          "internalType": "bytes",
          "name": "signature",
          "type": "bytes"
        }
      ],
      "name": "placeOrder",
      "outputs": [],
      "stateMutability": "nonpayable",
      "type": "function"
    },
    {
      "inputs": [],
      "name": "renounceOwnership",
      "outputs": [],
      "stateMutability": "nonpayable",
      "type": "function"
    },
    {
      "inputs": [
        {
          "internalType": "bytes4",
          "name": "interfaceId",
          "type": "bytes4"
        }
      ],
      "name": "supportsInterface",
      "outputs": [
        {
          "internalType": "bool",
          "name": "",
          "type": "bool"
        }
      ],
      "stateMutability": "view",
      "type": "function"
    },
    {
      "inputs": [
        {
          "internalType": "address",
          "name": "newOwner",
          "type": "address"
        }
      ],
      "name": "transferOwnership",
      "outputs": [],
      "stateMutability": "nonpayable",
      "type": "function"
    },
    {
      "inputs": [
        {
          "internalType": "address",
          "name": "_newTarget",
          "type": "address"
        }
      ],
      "name": "updateTarget",
      "outputs": [],
      "stateMutability": "nonpayable",
      "type": "function"
    }
  ],
  "bytecode": "0x608060405234801561001057600080fd5b50604051610dc8380380610dc883398101604081905261002f916100ad565b6100383361005d565b600180546001600160a01b0319166001600160a01b03929092169190911790556100dd565b600080546001600160a01b038381166001600160a01b0319831681178455604051919092169283917f8be0079c531659141344cd1fd0a4f28419497f9722a3daafe3b4186f6b6457e09190a35050565b6000602082840312156100bf57600080fd5b81516001600160a01b03811681146100d657600080fd5b9392505050565b610cdc806100ec6000396000f3fe608060405234801561001057600080fd5b506004361061006d5760003560e01c806301ffc9a7146100725780630c32b3bc1461009a578063715018a6146100ba5780638da5cb5b146100c4578063e6ac5189146100df578063ea1b495f146100f2578063f2fde38b14610105575b600080fd5b61008561008036600461083e565b610118565b60405190151581526020015b60405180910390f35b6100ad6100a836600461094b565b61014f565b6040516100919190610a06565b6100c26101be565b005b6000546040516001600160a01b039091168152602001610091565b6100c26100ed366004610a19565b6101d2565b6100c2610100366004610aa9565b6103f9565b6100c2610113366004610aa9565b610455565b60006001600160e01b0319821663033b9e2d60e61b148061014957506301ffc9a760e01b6001600160e01b03198316145b92915050565b60608560601b8560405160200161016891815260200190565b60408051601f1981840301815282825260208301889052910160408051601f19818403018152908290526101a493929187908790602001610ac4565b604051602081830303815290604052905095945050505050565b6101c66104d3565b6101d0600061052d565b565b60008660601b866040516020016101eb91815260200190565b60408051601f1981840301815282825260208301899052910160408051601f198184030181529082905261022793929188908890602001610ac4565b6040516020818303038152906040529050600061027882805190602001207f19457468657265756d205369676e6564204d6573736167653a0a3332000000006000908152601c91909152603c902090565b6001549091506001600160a01b031633146102a657604051633ed2200160e11b815260040160405180910390fd5b854311156102c757604051631d389b0b60e11b815260040160405180910390fd5b630b135d3f60e11b6102d9828561057d565b6001600160e01b0319161461030157604051638baa579f60e01b815260040160405180910390fd5b8661030a610717565b1461032857604051636956f2ab60e11b815260040160405180910390fd5b60008581526002602052604090205460ff161561035857604051633ab3447f60e11b815260040160405180910390fd5b600154604051632260147f60e11b81526001600160a01b03909116906344c028fe9061038f906000908c9082908a90600401610b2c565b6000604051808303816000875af11580156103ae573d6000803e3d6000fd5b505050506040513d6000823e601f3d908101601f191682016040526103d69190810190610b63565b50505060009283525050600260205260409020805460ff19166001179055505050565b6104016104d3565b600180546001600160a01b0319166001600160a01b0383169081179091556040519081527f7f8cffd58ac96898bdd25ab64868bd933141d15ad1cd4a0df228fd3fcba2a26d9060200160405180910390a150565b61045d6104d3565b6001600160a01b0381166104c75760405162461bcd60e51b815260206004820152602660248201527f4f776e61626c653a206e6577206f776e657220697320746865207a65726f206160448201526564647265737360d01b60648201526084015b60405180910390fd5b6104d08161052d565b50565b6000546001600160a01b031633146101d05760405162461bcd60e51b815260206004820181905260248201527f4f776e61626c653a2063616c6c6572206973206e6f7420746865206f776e657260448201526064016104be565b600080546001600160a01b038381166001600160a01b0319831681178455604051919092169283917f8be0079c531659141344cd1fd0a4f28419497f9722a3daafe3b4186f6b6457e09190a35050565b6001546000906001600160a01b03163b156106a45760015460405160009182916001600160a01b0390911690630b135d3f60e11b906105c29088908890602401610bd1565b60408051601f198184030181529181526020820180516001600160e01b03166001600160e01b03199094169390931790925290516106009190610bf2565b600060405180830381855afa9150503d806000811461063b576040519150601f19603f3d011682016040523d82523d6000602084013e610640565b606091505b50915091506000828015610655575081516020145b801561067c57508151630b135d3f60e11b9061067a9084016020908101908501610c0e565b145b905080610691576001600160e01b031961069a565b630b135d3f60e11b5b9350505050610149565b6000806106b1858561073f565b909250905060008160048111156106ca576106ca610c27565b146106e257506001600160e01b031991506101499050565b6001546001600160a01b03838116911614610705576001600160e01b031961070e565b630b135d3f60e11b5b95945050505050565b60008036610726602082610c3d565b610731928290610c5e565b61073a91610c88565b919050565b60008082516041036107755760208301516040840151606085015160001a61076987828585610784565b9450945050505061077d565b506000905060025b9250929050565b6000806fa2a8918ca85bafe22016d0b997e4df60600160ff1b038311156107b15750600090506003610835565b6040805160008082526020820180845289905260ff881692820192909252606081018690526080810185905260019060a0016020604051602081039080840390855afa158015610805573d6000803e3d6000fd5b5050604051601f1901519150506001600160a01b03811661082e57600060019250925050610835565b9150600090505b94509492505050565b60006020828403121561085057600080fd5b81356001600160e01b03198116811461086857600080fd5b9392505050565b80356001600160a01b038116811461073a57600080fd5b634e487b7160e01b600052604160045260246000fd5b604051601f8201601f1916810167ffffffffffffffff811182821017156108c5576108c5610886565b604052919050565b600067ffffffffffffffff8211156108e7576108e7610886565b50601f01601f191660200190565b600082601f83011261090657600080fd5b8135610919610914826108cd565b61089c565b81815284602083860101111561092e57600080fd5b816020850160208301376000918101602001919091529392505050565b600080600080600060a0868803121561096357600080fd5b61096c8661086f565b9450602086013593506040860135925060608601359150608086013567ffffffffffffffff81111561099d57600080fd5b6109a9888289016108f5565b9150509295509295909350565b60005b838110156109d15781810151838201526020016109b9565b50506000910152565b600081518084526109f28160208601602086016109b6565b601f01601f19169290920160200192915050565b60208152600061086860208301846109da565b60008060008060008060c08789031215610a3257600080fd5b610a3b8761086f565b9550602087013594506040870135935060608701359250608087013567ffffffffffffffff80821115610a6d57600080fd5b610a798a838b016108f5565b935060a0890135915080821115610a8f57600080fd5b50610a9c89828a016108f5565b9150509295509295509295565b600060208284031215610abb57600080fd5b6108688261086f565b6bffffffffffffffffffffffff198616815260008551610aeb816014850160208a016109b6565b855190830190610b02816014840160208a016109b6565b01601481018590528351610b1d8160348401602088016109b6565b01603401979650505050505050565b84815260018060a01b0384166020820152826040820152608060608201526000610b5960808301846109da565b9695505050505050565b600060208284031215610b7557600080fd5b815167ffffffffffffffff811115610b8c57600080fd5b8201601f81018413610b9d57600080fd5b8051610bab610914826108cd565b818152856020838501011115610bc057600080fd5b61070e8260208301602086016109b6565b828152604060208201526000610bea60408301846109da565b949350505050565b60008251610c048184602087016109b6565b9190910192915050565b600060208284031215610c2057600080fd5b5051919050565b634e487b7160e01b600052602160045260246000fd5b8181038181111561014957634e487b7160e01b600052601160045260246000fd5b60008085851115610c6e57600080fd5b83861115610c7b57600080fd5b5050820193919092039150565b8035602083101561014957600019602084900360031b1b169291505056fea264697066735822122017bc4040d03dae42266ac1d36c86c967cec5c418f70d2f83693fc75784afeac064736f6c63430008130033",
  "linkReferences": {},
  "deployedLinkReferences": {}
}