{
  "_format": "hh-sol-artifact-1",
  "contractName": "LSP9VaultInit",
  "sourceName": "@lukso/lsp-smart-contracts/contracts/LSP9Vault/LSP9VaultInit.sol",
  "abi": [
    {
      "inputs": [],
      "stateMutability": "nonpayable",
      "type": "constructor"
    },
    {
      "inputs": [],
      "name": "CannotTransferOwnershipToSelf",
      "type": "error"
    },
    {
      "inputs": [],
      "name": "ERC725X_ContractDeploymentFailed",
      "type": "error"
    },
    {
      "inputs": [],
      "name": "ERC725X_CreateOperationsRequireEmptyRecipientAddress",
      "type": "error"
    },
    {
      "inputs": [],
      "name": "ERC725X_ExecuteParametersEmptyArray",
      "type": "error"
    },
    {
      "inputs": [],
      "name": "ERC725X_ExecuteParametersLengthMismatch",
      "type": "error"
    },
    {
      "inputs": [
        {
          "internalType": "uint256",
          "name": "balance",
          "type": "uint256"
        },
        {
          "internalType": "uint256",
          "name": "value",
          "type": "uint256"
        }
      ],
      "name": "ERC725X_InsufficientBalance",
      "type": "error"
    },
    {
      "inputs": [],
      "name": "ERC725X_MsgValueDisallowedInStaticCall",
      "type": "error"
    },
    {
      "inputs": [],
      "name": "ERC725X_NoContractBytecodeProvided",
      "type": "error"
    },
    {
      "inputs": [
        {
          "internalType": "uint256",
          "name": "operationTypeProvided",
          "type": "uint256"
        }
      ],
      "name": "ERC725X_UnknownOperationType",
      "type": "error"
    },
    {
      "inputs": [],
      "name": "ERC725Y_DataKeysValuesLengthMismatch",
      "type": "error"
    },
    {
      "inputs": [],
      "name": "ERC725Y_MsgValueDisallowed",
      "type": "error"
    },
    {
      "inputs": [],
      "name": "LSP14MustAcceptOwnershipInSeparateTransaction",
      "type": "error"
    },
    {
      "inputs": [
        {
          "internalType": "bytes32",
          "name": "dataKey",
          "type": "bytes32"
        }
      ],
      "name": "LSP1DelegateNotAllowedToSetDataKey",
      "type": "error"
    },
    {
      "inputs": [
        {
          "internalType": "bytes4",
          "name": "functionSelector",
          "type": "bytes4"
        }
      ],
      "name": "NoExtensionFoundForFunctionSelector",
      "type": "error"
    },
    {
      "inputs": [
        {
          "internalType": "uint256",
          "name": "renounceOwnershipStart",
          "type": "uint256"
        },
        {
          "internalType": "uint256",
          "name": "renounceOwnershipEnd",
          "type": "uint256"
        }
      ],
      "name": "NotInRenounceOwnershipInterval",
      "type": "error"
    },
    {
      "anonymous": false,
      "inputs": [
        {
          "indexed": true,
          "internalType": "uint256",
          "name": "operationType",
          "type": "uint256"
        },
        {
          "indexed": true,
          "internalType": "address",
          "name": "contractAddress",
          "type": "address"
        },
        {
          "indexed": true,
          "internalType": "uint256",
          "name": "value",
          "type": "uint256"
        },
        {
          "indexed": false,
          "internalType": "bytes32",
          "name": "salt",
          "type": "bytes32"
        }
      ],
      "name": "ContractCreated",
      "type": "event"
    },
    {
      "anonymous": false,
      "inputs": [
        {
          "indexed": true,
          "internalType": "bytes32",
          "name": "dataKey",
          "type": "bytes32"
        },
        {
          "indexed": false,
          "internalType": "bytes",
          "name": "dataValue",
          "type": "bytes"
        }
      ],
      "name": "DataChanged",
      "type": "event"
    },
    {
      "anonymous": false,
      "inputs": [
        {
          "indexed": true,
          "internalType": "uint256",
          "name": "operationType",
          "type": "uint256"
        },
        {
          "indexed": true,
          "internalType": "address",
          "name": "target",
          "type": "address"
        },
        {
          "indexed": true,
          "internalType": "uint256",
          "name": "value",
          "type": "uint256"
        },
        {
          "indexed": false,
          "internalType": "bytes4",
          "name": "selector",
          "type": "bytes4"
        }
      ],
      "name": "Executed",
      "type": "event"
    },
    {
      "anonymous": false,
      "inputs": [
        {
          "indexed": false,
          "internalType": "uint8",
          "name": "version",
          "type": "uint8"
        }
      ],
      "name": "Initialized",
      "type": "event"
    },
    {
      "anonymous": false,
      "inputs": [],
      "name": "OwnershipRenounced",
      "type": "event"
    },
    {
      "anonymous": false,
      "inputs": [
        {
          "indexed": true,
          "internalType": "address",
          "name": "previousOwner",
          "type": "address"
        },
        {
          "indexed": true,
          "internalType": "address",
          "name": "newOwner",
          "type": "address"
        }
      ],
      "name": "OwnershipTransferStarted",
      "type": "event"
    },
    {
      "anonymous": false,
      "inputs": [
        {
          "indexed": true,
          "internalType": "address",
          "name": "previousOwner",
          "type": "address"
        },
        {
          "indexed": true,
          "internalType": "address",
          "name": "newOwner",
          "type": "address"
        }
      ],
      "name": "OwnershipTransferred",
      "type": "event"
    },
    {
      "anonymous": false,
      "inputs": [],
      "name": "RenounceOwnershipStarted",
      "type": "event"
    },
    {
      "anonymous": false,
      "inputs": [
        {
          "indexed": true,
          "internalType": "address",
          "name": "from",
          "type": "address"
        },
        {
          "indexed": true,
          "internalType": "uint256",
          "name": "value",
          "type": "uint256"
        },
        {
          "indexed": true,
          "internalType": "bytes32",
          "name": "typeId",
          "type": "bytes32"
        },
        {
          "indexed": false,
          "internalType": "bytes",
          "name": "receivedData",
          "type": "bytes"
        },
        {
          "indexed": false,
          "internalType": "bytes",
          "name": "returnedValue",
          "type": "bytes"
        }
      ],
      "name": "UniversalReceiver",
      "type": "event"
    },
    {
      "anonymous": false,
      "inputs": [
        {
          "indexed": true,
          "internalType": "address",
          "name": "sender",
          "type": "address"
        },
        {
          "indexed": true,
          "internalType": "uint256",
          "name": "value",
          "type": "uint256"
        }
      ],
      "name": "ValueReceived",
      "type": "event"
    },
    {
      "stateMutability": "payable",
      "type": "fallback"
    },
    {
      "inputs": [],
      "name": "RENOUNCE_OWNERSHIP_CONFIRMATION_DELAY",
      "outputs": [
        {
          "internalType": "uint256",
          "name": "",
          "type": "uint256"
        }
      ],
      "stateMutability": "view",
      "type": "function"
    },
    {
      "inputs": [],
      "name": "RENOUNCE_OWNERSHIP_CONFIRMATION_PERIOD",
      "outputs": [
        {
          "internalType": "uint256",
          "name": "",
          "type": "uint256"
        }
      ],
      "stateMutability": "view",
      "type": "function"
    },
    {
      "inputs": [],
      "name": "acceptOwnership",
      "outputs": [],
      "stateMutability": "nonpayable",
      "type": "function"
    },
    {
      "inputs": [
        {
          "internalType": "bytes[]",
          "name": "data",
          "type": "bytes[]"
        }
      ],
      "name": "batchCalls",
      "outputs": [
        {
          "internalType": "bytes[]",
          "name": "results",
          "type": "bytes[]"
        }
      ],
      "stateMutability": "nonpayable",
      "type": "function"
    },
    {
      "inputs": [
        {
          "internalType": "uint256",
          "name": "operationType",
          "type": "uint256"
        },
        {
          "internalType": "address",
          "name": "target",
          "type": "address"
        },
        {
          "internalType": "uint256",
          "name": "value",
          "type": "uint256"
        },
        {
          "internalType": "bytes",
          "name": "data",
          "type": "bytes"
        }
      ],
      "name": "execute",
      "outputs": [
        {
          "internalType": "bytes",
          "name": "",
          "type": "bytes"
        }
      ],
      "stateMutability": "payable",
      "type": "function"
    },
    {
      "inputs": [
        {
          "internalType": "uint256[]",
          "name": "operationsType",
          "type": "uint256[]"
        },
        {
          "internalType": "address[]",
          "name": "targets",
          "type": "address[]"
        },
        {
          "internalType": "uint256[]",
          "name": "values",
          "type": "uint256[]"
        },
        {
          "internalType": "bytes[]",
          "name": "datas",
          "type": "bytes[]"
        }
      ],
      "name": "executeBatch",
      "outputs": [
        {
          "internalType": "bytes[]",
          "name": "",
          "type": "bytes[]"
        }
      ],
      "stateMutability": "payable",
      "type": "function"
    },
    {
      "inputs": [
        {
          "internalType": "bytes32",
          "name": "dataKey",
          "type": "bytes32"
        }
      ],
      "name": "getData",
      "outputs": [
        {
          "internalType": "bytes",
          "name": "dataValue",
          "type": "bytes"
        }
      ],
      "stateMutability": "view",
      "type": "function"
    },
    {
      "inputs": [
        {
          "internalType": "bytes32[]",
          "name": "dataKeys",
          "type": "bytes32[]"
        }
      ],
      "name": "getDataBatch",
      "outputs": [
        {
          "internalType": "bytes[]",
          "name": "dataValues",
          "type": "bytes[]"
        }
      ],
      "stateMutability": "view",
      "type": "function"
    },
    {
      "inputs": [
        {
          "internalType": "address",
          "name": "newOwner",
          "type": "address"
        }
      ],
      "name": "initialize",
      "outputs": [],
      "stateMutability": "payable",
      "type": "function"
    },
    {
      "inputs": [],
      "name": "owner",
      "outputs": [
        {
          "internalType": "address",
          "name": "",
          "type": "address"
        }
      ],
      "stateMutability": "view",
      "type": "function"
    },
    {
      "inputs": [],
      "name": "pendingOwner",
      "outputs": [
        {
          "internalType": "address",
          "name": "",
          "type": "address"
        }
      ],
      "stateMutability": "view",
      "type": "function"
    },
    {
      "inputs": [],
      "name": "renounceOwnership",
      "outputs": [],
      "stateMutability": "nonpayable",
      "type": "function"
    },
    {
      "inputs": [
        {
          "internalType": "bytes32",
          "name": "dataKey",
          "type": "bytes32"
        },
        {
          "internalType": "bytes",
          "name": "dataValue",
          "type": "bytes"
        }
      ],
      "name": "setData",
      "outputs": [],
      "stateMutability": "payable",
      "type": "function"
    },
    {
      "inputs": [
        {
          "internalType": "bytes32[]",
          "name": "dataKeys",
          "type": "bytes32[]"
        },
        {
          "internalType": "bytes[]",
          "name": "dataValues",
          "type": "bytes[]"
        }
      ],
      "name": "setDataBatch",
      "outputs": [],
      "stateMutability": "payable",
      "type": "function"
    },
    {
      "inputs": [
        {
          "internalType": "bytes4",
          "name": "interfaceId",
          "type": "bytes4"
        }
      ],
      "name": "supportsInterface",
      "outputs": [
        {
          "internalType": "bool",
          "name": "",
          "type": "bool"
        }
      ],
      "stateMutability": "view",
      "type": "function"
    },
    {
      "inputs": [
        {
          "internalType": "address",
          "name": "newOwner",
          "type": "address"
        }
      ],
      "name": "transferOwnership",
      "outputs": [],
      "stateMutability": "nonpayable",
      "type": "function"
    },
    {
      "inputs": [
        {
          "internalType": "bytes32",
          "name": "typeId",
          "type": "bytes32"
        },
        {
          "internalType": "bytes",
          "name": "receivedData",
          "type": "bytes"
        }
      ],
      "name": "universalReceiver",
      "outputs": [
        {
          "internalType": "bytes",
          "name": "returnedValues",
          "type": "bytes"
        }
      ],
      "stateMutability": "payable",
      "type": "function"
    },
    {
      "stateMutability": "payable",
      "type": "receive"
    }
  ],
  "bytecode": "0x60806040523480156200001157600080fd5b506200001c62000022565b620000e3565b600054610100900460ff16156200008f5760405162461bcd60e51b815260206004820152602760248201527f496e697469616c697a61626c653a20636f6e747261637420697320696e697469604482015266616c697a696e6760c81b606482015260840160405180910390fd5b60005460ff90811614620000e1576000805460ff191660ff9081179091556040519081527f7f26b83ff96e1f2b6a682f133852f6798a09c465da95921460cefb38474024989060200160405180910390a15b565b612b6280620000f36000396000f3fe6080604052600436106100e25760003560e01c806379ba50971161008557806379ba5097146102685780637f23690c1461027d5780638da5cb5b1461029057806397902421146102bd578063c4d66de8146102d0578063dedff9c6146102e3578063e30c397814610303578063ead3fbdf14610168578063f2fde38b146103215761010b565b806301bfba611461016857806301ffc9a71461019057806331858452146101c057806344c028fe146101e057806354f6127f146102005780636963d438146102205780636bb56a1414610240578063715018a6146102535761010b565b3661010b5734156101095760405134903390600080516020612b0d83398151915290600090a35b005b600036606034156101325760405134903390600080516020612b0d83398151915290600090a35b6004361015610150575060408051602081019091526000815261015d565b61015a8383610341565b90505b915050805190602001f35b34801561017457600080fd5b5061017d60c881565b6040519081526020015b60405180910390f35b34801561019c57600080fd5b506101b06101ab3660046120a5565b61047a565b6040519015158152602001610187565b6101d36101ce3660046122b6565b6104e4565b604051610187919061240d565b6101f36101ee36600461246f565b610527565b60405161018791906124c3565b34801561020c57600080fd5b506101f361021b3660046124d6565b61055f565b34801561022c57600080fd5b506101d361023b3660046124ef565b61056a565b6101f361024e366004612563565b6106c8565b34801561025f57600080fd5b5061010961088c565b34801561027457600080fd5b50610109610908565b61010961028b3660046125de565b6109c8565b34801561029c57600080fd5b506102a5610a81565b6040516001600160a01b039091168152602001610187565b6101096102cb366004612624565b610a96565b6101096102de36600461267d565b610c26565b3480156102ef57600080fd5b506101d36102fe366004612698565b610d39565b34801561030f57600080fd5b506003546001600160a01b03166102a5565b34801561032d57600080fd5b5061010961033c36600461267d565b610de3565b6060600061035a6000356001600160e01b031916610ea9565b90506000356001600160e01b03191615801561037d57506001600160a01b038116155b15610398575050604080516020810190915260008152610474565b6001600160a01b0381166103d6576000356001600160e01b03191660405163bb370b2b60e01b81526004016103cd91906126cc565b60405180910390fd5b600080826001600160a01b0316868633346040516020016103fa94939291906126e1565b60408051601f19818403018152908290526104149161270c565b6000604051808303816000865af19150503d8060008114610451576040519150601f19603f3d011682016040523d82523d6000602084013e610456565b606091505b5091509150811561046b579250610474915050565b80518060208301fd5b92915050565b60006001600160e01b031982166314578bf360e11b14806104ab57506001600160e01b03198216631aed5a8560e21b145b806104c657506001600160e01b031982166394be599960e01b145b806104d557506104d582610eee565b80610474575061047482610f13565b60606104ee610f50565b34156105105760405134903390600080516020612b0d83398151915290600090a35b61051c85858585610fb1565b90505b949350505050565b6060610531610f50565b34156105535760405134903390600080516020612b0d83398151915290600090a35b61051c8585858561110e565b6060610474826111e8565b6060816001600160401b03811115610584576105846120cf565b6040519080825280602002602001820160405280156105b757816020015b60608152602001906001900390816105a25790505b50905060005b828110156106c157600080308686858181106105db576105db612728565b90506020028101906105ed919061273e565b6040516105fb92919061278b565b600060405180830381855af49150503d8060008114610636576040519150601f19603f3d011682016040523d82523d6000602084013e61063b565b606091505b509150915081610699578051156106555780518082602001fd5b60405162461bcd60e51b81526020600482015260196024820152781314d40e4e8818985d18da10d85b1b1cc81c995d995c9d1959603a1b60448201526064016103cd565b808484815181106106ac576106ac612728565b602090810291909101015250506001016105bd565b5092915050565b606034156106ec5760405134903390600080516020612b0d83398151915290600090a35b60006107177f0cfc51aec37c55a4d0b1a65c6255c4bf2fbdf6277f3cc0730c45b828b6db8b476111e8565b90506060601482511061077b57600061072f8361279b565b60601c905061074581631aed5a8560e21b61128a565b1561077957600480546001600160a01b0319166001600160a01b03831690811790915561077690888888333461131e565b91505b505b6000610794690cfc51aec37c55a4d0b160b01b88611466565b905060006107a1826111e8565b9050606060148251106108055760006107b98361279b565b60601c90506107cf81631aed5a8560e21b61128a565b1561080357600480546001600160a01b0319166001600160a01b038316908117909155610800908b8b8b333461131e565b91505b505b600480546001600160a01b031916905560405161082890859083906020016127d2565b60405160208183030381529060405295508834336001600160a01b03167f9c3ba68eb5742b8e3961aea0afc7371a71bf433c8a67a831803b64c064a178c28b8b8b60405161087893929190612820565b60405180910390a450505050509392505050565b610894610f50565b600061089e610a81565b90506108a86114b2565b60006108b2610a81565b6001600160a01b03160361090557604080516020810190915260008152610905906001600160a01b038316907f0c622e58e6b7089ae35f1af1c86d997be92fcdd8c9509652022d41aa65169471906115a5565b50565b600354600160a01b900460ff161561093357604051635758dd0760e01b815260040160405180910390fd5b600061093d610a81565b9050610947611630565b60408051602081019091526000815261098c906001600160a01b038316907f0c622e58e6b7089ae35f1af1c86d997be92fcdd8c9509652022d41aa65169471906115a5565b6040805160208101909152600081526109059033907f79855c97dbc259ce395421d933d7bc0699b0f1561f988f09a9e8633fd542fe5c906115a5565b34156109e75760405163f36ba73760e01b815260040160405180910390fd5b60006109f16116b3565b90508015610a72576001600160a01b03198316690cfc51aec37c55a4d0b160b01b1480610a3057506001600160d01b03198316654b80742de2bf60d01b145b80610a5157506001600160a01b03198316696773c5a04a6d4300884b60b11b145b15610a725760405163199611f160e01b8152600481018490526024016103cd565b610a7c838361175c565b505050565b6000546201000090046001600160a01b031690565b6000610aa06116b3565b90508151835114610ac457604051633bcc897960e01b815260040160405180910390fd5b3415610ae35760405163f36ba73760e01b815260040160405180910390fd5b60005b8351811015610c20578115610bdc578351690cfc51aec37c55a4d0b160b01b90859083908110610b1857610b18612728565b60200260200101516001600160a01b0319161480610b6457508351654b80742de2bf60d01b90859083908110610b5057610b50612728565b60200260200101516001600160d01b031916145b80610ba157508351696773c5a04a6d4300884b60b11b90859083908110610b8d57610b8d612728565b60200260200101516001600160a01b031916145b15610bdc57838181518110610bb857610bb8612728565b602002602001015160405163199611f160e01b81526004016103cd91815260200190565b610c18848281518110610bf157610bf1612728565b6020026020010151848381518110610c0b57610c0b612728565b602002602001015161175c565b600101610ae6565b50505050565b600054610100900460ff1615808015610c465750600054600160ff909116105b80610c605750303b158015610c60575060005460ff166001145b610cc35760405162461bcd60e51b815260206004820152602e60248201527f496e697469616c697a61626c653a20636f6e747261637420697320616c72656160448201526d191e481a5b9a5d1a585b1a5e995960921b60648201526084016103cd565b6000805460ff191660011790558015610ce6576000805461ff0019166101001790555b610cef826117d0565b8015610d35576000805461ff0019169055604051600181527f7f26b83ff96e1f2b6a682f133852f6798a09c465da95921460cefb38474024989060200160405180910390a15b5050565b606081516001600160401b03811115610d5457610d546120cf565b604051908082528060200260200182016040528015610d8757816020015b6060815260200190600190039081610d725790505b50905060005b8251811015610ddd57610db8838281518110610dab57610dab612728565b60200260200101516111e8565b828281518110610dca57610dca612728565b6020908102919091010152600101610d8d565b50919050565b610deb610f50565b6003805460ff60a01b1916600160a01b179055610e07816118f4565b6000610e11610a81565b9050816001600160a01b0316816001600160a01b03167f38d16b8cac22d99fc7c124b9cd0de2d3fa1faef420bfe791d8c362d765e2270060405160405180910390a3604080516020810190915260008152610e98906001600160a01b038416907faefd43f45fed1bcd8992f23c803b6f4ec45cf6b62b0d404d565f290a471e763f906115a5565b50506003805460ff60a01b19169055565b600080610ecd696773c5a04a6d4300884b60b11b6001600160e01b03198516611466565b90506000610eda826111e8565b610ee39061279b565b60601c949350505050565b60006001600160e01b0319821663a918fa6b60e01b1480610474575061047482611944565b600080610f266301ffc9a760e01b610ea9565b90506001600160a01b038116610f3f5750600092915050565b610f49818461128a565b9392505050565b33610f59610a81565b6001600160a01b031614610faf5760405162461bcd60e51b815260206004820181905260248201527f4f776e61626c653a2063616c6c6572206973206e6f7420746865206f776e657260448201526064016103cd565b565b606083518551141580610fd2575082518451141580610fd257508151835114155b15610ff057604051633ff55f4d60e01b815260040160405180910390fd5b84516000036110125760405163e9ad2b5f60e01b815260040160405180910390fd5b600085516001600160401b0381111561102d5761102d6120cf565b60405190808252806020026020018201604052801561106057816020015b606081526020019060019003908161104b5790505b50905060005b8651811015611104576110df87828151811061108457611084612728565b602002602001015187838151811061109e5761109e612728565b60200260200101518784815181106110b8576110b8612728565b60200260200101518785815181106110d2576110d2612728565b602002602001015161110e565b8282815181106110f1576110f1612728565b6020908102919091010152600101611066565b5095945050505050565b60608461112757611120848484611969565b905061051f565b60018503611161576001600160a01b0384161561115757604051631820c12560e11b815260040160405180910390fd5b6111208383611a87565b6002850361119b576001600160a01b0384161561119157604051631820c12560e11b815260040160405180910390fd5b6111208383611b7a565b600385036111cc5782156111c2576040516339795e3560e11b815260040160405180910390fd5b6111208483611c56565b604051631d60ecef60e21b8152600481018690526024016103cd565b600081815260016020526040902080546060919061120590612846565b80601f016020809104026020016040519081016040528092919081815260200182805461123190612846565b801561127e5780601f106112535761010080835404028352916020019161127e565b820191906000526020600020905b81548152906001019060200180831161126157829003601f168201915b50505050509050919050565b6000806301ffc9a760e01b836040516024016112a691906126cc565b604051602081830303815290604052906001600160e01b0319166020820180516001600160e01b03838183161783525050505090506000806000602060008551602087018a617530fa92503d91506000519050828015611307575060208210155b80156113135750600081115b979650505050505050565b60606000636bb56a1460e01b87878760405160240161133f9392919061287a565b60408051601f19818403018152918152602080830180516001600160e01b03166001600160e01b03199095169490941790935251611381928791879101612894565b6040516020818303038152906040529050600080896001600160a01b0316836040516113ad919061270c565b6000604051808303816000865af19150503d80600081146113ea576040519150601f19603f3d011682016040523d82523d6000602084013e6113ef565b606091505b509150915061143482826040518060400160405280602081526020017f43616c6c20746f20756e6976657273616c5265636569766572206661696c6564815250611d47565b5080516000036114445780611458565b8080602001905181019061145891906128ce565b9a9950505050505050505050565b604080516001600160b01b0319841660208201526000602a82018190526001600160601b03198416602c8301529182910160405160208183030381529060405290508061051f9061293b565b60025443906000906114c69060c890612975565b905060006114d560c883612975565b9050808311806114e55750600254155b1561152d576002839055600380546001600160a01b03191690556040517f81b7f830f1f0084db6497c486cbe6974c86488dcc4e3738eab94ab6d6b1653e790600090a1505050565b8183101561155857604051638b9bf50760e01b815260048101839052602481018290526044016103cd565b6115626000611d60565b60006002819055600380546001600160a01b03191690556040517fd1f66c3d2bc1993a86be5e3d33709d98f0442381befcedd29f578b9b2506b1ce9190a1505050565b6115b683631aed5a8560e21b61128a565b15610a7c57604051631aed5a8560e21b81526001600160a01b03841690636bb56a14906115e99085908590600401612988565b6000604051808303816000875af1158015611608573d6000803e3d6000fd5b505050506040513d6000823e601f3d908101601f19168201604052610c2091908101906128ce565b6003546001600160a01b031633146116985760405162461bcd60e51b815260206004820152602560248201527f4c535031343a2063616c6c6572206973206e6f74207468652070656e64696e6760448201526427bbb732b960d91b60648201526084016103cd565b6116a133611d60565b600380546001600160a01b0319169055565b60006116bd610a81565b6001600160a01b0316336001600160a01b031614611759576004546001600160a01b031633146117555760405162461bcd60e51b815260206004820152603b60248201527f4f6e6c79204f776e6572206f72207265656e746572656420556e69766572736160448201527f6c2052656365697665722044656c656761746520616c6c6f776564000000000060648201526084016103cd565b5060015b90565b600082815260016020526040902061177482826129ef565b50817fece574603820d07bc9b91f2a932baadf4628aabcb8afba49776529c14a6104b2610100835111156117b5576117b0836000610100611ddb565b6117b7565b825b6040516117c491906124c3565b60405180910390a25050565b600054610100900460ff1661183b5760405162461bcd60e51b815260206004820152602b60248201527f496e697469616c697a61626c653a20636f6e7472616374206973206e6f74206960448201526a6e697469616c697a696e6760a81b60648201526084016103cd565b341561185d5760405134903390600080516020612b0d83398151915290600090a35b61186681611d60565b6118af7feafec4d89fa9619884b600007c0334a14085fefa8b51ae5a40895018882bdb9060001b604051806040016040528060048152602001637c0334a160e01b81525061175c565b604080516020810190915260008152610905906001600160a01b038316907f79855c97dbc259ce395421d933d7bc0699b0f1561f988f09a9e8633fd542fe5c906115a5565b306001600160a01b0382160361191d576040516343b248cd60e01b815260040160405180910390fd5b600380546001600160a01b0319166001600160a01b03929092169190911790556000600255565b60006001600160e01b031982166318a6a9a560e21b1480610474575061047482611ee8565b606082471015611995576040516301bf351f60e31b8152476004820152602481018490526044016103cd565b826001600160a01b03851660007f4810874456b8e6487bd861375cf6abd8e1c8bb5858c8ce36a86a04dabfac199e6119cc86612aae565b6040516119d991906126cc565b60405180910390a4600080856001600160a01b031685856040516119fd919061270c565b60006040518083038185875af1925050503d8060008114611a3a576040519150601f19603f3d011682016040523d82523d6000602084013e611a3f565b606091505b5091509150611a7d82826040518060400160405280601681526020017522a9219b991aac1d102ab735b737bbb71022b93937b960511b815250611d47565b9695505050505050565b606082471015611ab3576040516301bf351f60e31b8152476004820152602481018490526044016103cd565b8151600003611ad55760405163b81cd8d960e01b815260040160405180910390fd5b600082516020840185f090506001600160a01b038116611b0857604051630b07489b60e01b815260040160405180910390fd5b83816001600160a01b031660017fa1fb700aaee2ae4a2ff6f91ce7eba292f89c2f5488b8ec4c5c5c8150692595c36000801b604051611b4991815260200190565b60405180910390a480604051602001611b629190612ae1565b60405160208183030381529060405291505092915050565b60608151600003611b9e5760405163b81cd8d960e01b815260040160405180910390fd5b6000611bb78360208551611bb29190612af9565b611f1d565b90506000611bd484600060208751611bcf9190612af9565b611ddb565b90506000611be3868484611f7b565b905085816001600160a01b031660027fa1fb700aaee2ae4a2ff6f91ce7eba292f89c2f5488b8ec4c5c5c8150692595c386604051611c2391815260200190565b60405180910390a480604051602001611c3c9190612ae1565b604051602081830303815290604052935050505092915050565b606060006001600160a01b03841660037f4810874456b8e6487bd861375cf6abd8e1c8bb5858c8ce36a86a04dabfac199e611c9086612aae565b604051611c9d91906126cc565b60405180910390a4600080846001600160a01b031684604051611cc0919061270c565b600060405180830381855afa9150503d8060008114611cfb576040519150601f19603f3d011682016040523d82523d6000602084013e611d00565b606091505b5091509150611d3e82826040518060400160405280601681526020017522a9219b991aac1d102ab735b737bbb71022b93937b960511b815250611d47565b95945050505050565b60608315611d56575081610f49565b610f49838361207b565b611d68610a81565b6001600160a01b0316816001600160a01b03161461090557600080546001600160a01b038381166201000081810262010000600160b01b0319851617855560405193049190911692909183917f8be0079c531659141344cd1fd0a4f28419497f9722a3daafe3b4186f6b6457e091a35050565b606081611de981601f612975565b1015611e285760405162461bcd60e51b815260206004820152600e60248201526d736c6963655f6f766572666c6f7760901b60448201526064016103cd565b611e328284612975565b84511015611e765760405162461bcd60e51b8152602060048201526011602482015270736c6963655f6f75744f66426f756e647360781b60448201526064016103cd565b606082158015611e955760405191506000825260208201604052611edf565b6040519150601f8416801560200281840101858101878315602002848b0101015b81831015611ece578051835260209283019201611eb6565b5050858452601f01601f1916604052505b50949350505050565b60006001600160e01b03198216631d516b2b60e21b148061047457506301ffc9a760e01b6001600160e01b0319831614610474565b6000611f2a826020612975565b83511015611f725760405162461bcd60e51b8152602060048201526015602482015274746f427974657333325f6f75744f66426f756e647360581b60448201526064016103cd565b50016020015190565b600083471015611fcd5760405162461bcd60e51b815260206004820152601d60248201527f437265617465323a20696e73756666696369656e742062616c616e636500000060448201526064016103cd565b815160000361201e5760405162461bcd60e51b815260206004820181905260248201527f437265617465323a2062797465636f6465206c656e677468206973207a65726f60448201526064016103cd565b8282516020840186f590506001600160a01b038116610f495760405162461bcd60e51b8152602060048201526019602482015278437265617465323a204661696c6564206f6e206465706c6f7960381b60448201526064016103cd565b81511561208b5781518083602001fd5b8060405162461bcd60e51b81526004016103cd91906124c3565b6000602082840312156120b757600080fd5b81356001600160e01b031981168114610f4957600080fd5b634e487b7160e01b600052604160045260246000fd5b604051601f8201601f191681016001600160401b038111828210171561210d5761210d6120cf565b604052919050565b60006001600160401b0382111561212e5761212e6120cf565b5060051b60200190565b600082601f83011261214957600080fd5b8135602061215e61215983612115565b6120e5565b82815260059290921b8401810191818101908684111561217d57600080fd5b8286015b848110156121985780358352918301918301612181565b509695505050505050565b80356001600160a01b03811681146121ba57600080fd5b919050565b60006001600160401b038211156121d8576121d86120cf565b50601f01601f191660200190565b600082601f8301126121f757600080fd5b8135612205612159826121bf565b81815284602083860101111561221a57600080fd5b816020850160208301376000918101602001919091529392505050565b600082601f83011261224857600080fd5b8135602061225861215983612115565b82815260059290921b8401810191818101908684111561227757600080fd5b8286015b848110156121985780356001600160401b0381111561229a5760008081fd5b6122a88986838b01016121e6565b84525091830191830161227b565b600080600080608085870312156122cc57600080fd5b84356001600160401b03808211156122e357600080fd5b6122ef88838901612138565b955060209150818701358181111561230657600080fd5b8701601f8101891361231757600080fd5b803561232561215982612115565b81815260059190911b8201840190848101908b83111561234457600080fd5b928501925b828410156123695761235a846121a3565b82529285019290850190612349565b9750505050604087013591508082111561238257600080fd5b61238e88838901612138565b935060608701359150808211156123a457600080fd5b506123b187828801612237565b91505092959194509250565b60005b838110156123d85781810151838201526020016123c0565b50506000910152565b600081518084526123f98160208601602086016123bd565b601f01601f19169290920160200192915050565b6000602080830181845280855180835260408601915060408160051b870101925083870160005b8281101561246257603f198886030184526124508583516123e1565b94509285019290850190600101612434565b5092979650505050505050565b6000806000806080858703121561248557600080fd5b84359350612495602086016121a3565b92506040850135915060608501356001600160401b038111156124b757600080fd5b6123b1878288016121e6565b602081526000610f4960208301846123e1565b6000602082840312156124e857600080fd5b5035919050565b6000806020838503121561250257600080fd5b82356001600160401b038082111561251957600080fd5b818501915085601f83011261252d57600080fd5b81358181111561253c57600080fd5b8660208260051b850101111561255157600080fd5b60209290920196919550909350505050565b60008060006040848603121561257857600080fd5b8335925060208401356001600160401b038082111561259657600080fd5b818601915086601f8301126125aa57600080fd5b8135818111156125b957600080fd5b8760208285010111156125cb57600080fd5b6020830194508093505050509250925092565b600080604083850312156125f157600080fd5b8235915060208301356001600160401b0381111561260e57600080fd5b61261a858286016121e6565b9150509250929050565b6000806040838503121561263757600080fd5b82356001600160401b038082111561264e57600080fd5b61265a86838701612138565b9350602085013591508082111561267057600080fd5b5061261a85828601612237565b60006020828403121561268f57600080fd5b610f49826121a3565b6000602082840312156126aa57600080fd5b81356001600160401b038111156126c057600080fd5b61051f84828501612138565b6001600160e01b031991909116815260200190565b8385823760609290921b6001600160601b031916919092019081526014810191909152603401919050565b6000825161271e8184602087016123bd565b9190910192915050565b634e487b7160e01b600052603260045260246000fd5b6000808335601e1984360301811261275557600080fd5b8301803591506001600160401b0382111561276f57600080fd5b60200191503681900382131561278457600080fd5b9250929050565b8183823760009101908152919050565b805160208201516001600160601b031980821692919060148310156127ca5780818460140360031b1b83161693505b505050919050565b6040815260006127e560408301856123e1565b8281036020840152611d3e81856123e1565b81835281816020850137506000828201602090810191909152601f909101601f19169091010190565b6040815260006128346040830185876127f7565b8281036020840152611a7d81856123e1565b600181811c9082168061285a57607f821691505b602082108103610ddd57634e487b7160e01b600052602260045260246000fd5b83815260406020820152600061051c6040830184866127f7565b600084516128a68184602089016123bd565b60609490941b6001600160601b03191691909301908152601481019190915260340192915050565b6000602082840312156128e057600080fd5b81516001600160401b038111156128f657600080fd5b8201601f8101841361290757600080fd5b8051612915612159826121bf565b81815285602083850101111561292a57600080fd5b611d3e8260208301602086016123bd565b80516020808301519190811015610ddd5760001960209190910360031b1b16919050565b634e487b7160e01b600052601160045260246000fd5b808201808211156104745761047461295f565b82815260406020820152600061051f60408301846123e1565b601f821115610a7c57600081815260208120601f850160051c810160208610156129c85750805b601f850160051c820191505b818110156129e7578281556001016129d4565b505050505050565b81516001600160401b03811115612a0857612a086120cf565b612a1c81612a168454612846565b846129a1565b602080601f831160018114612a515760008415612a395750858301515b600019600386901b1c1916600185901b1785556129e7565b600085815260208120601f198616915b82811015612a8057888601518255948401946001909101908401612a61565b5085821015612a9e5787850151600019600388901b60f8161c191681555b5050505050600190811b01905550565b805160208201516001600160e01b031980821692919060048310156127ca5760049290920360031b82901b161692915050565b60609190911b6001600160601b031916815260140190565b818103818111156104745761047461295f56fe7e71433ddf847725166244795048ecf3e3f9f35628254ecbf736056664233493a26469706673582212202fd3e96f72e4dfc97a9c9cb3f056f05ed99ce5af05cb07d7b806b2a3f6265c5f64736f6c63430008130033",
  "linkReferences": {},
  "deployedLinkReferences": {}
}