{
  "_format": "hh-sol-artifact-1",
  "contractName": "LSP6KeyManager",
  "sourceName": "@lukso/lsp-smart-contracts/contracts/LSP6KeyManager/LSP6KeyManager.sol",
  "abi": [
    {
      "inputs": [
        {
          "internalType": "address",
          "name": "target_",
          "type": "address"
        }
      ],
      "stateMutability": "nonpayable",
      "type": "constructor"
    },
    {
      "inputs": [],
      "name": "BatchExecuteParamsLengthMismatch",
      "type": "error"
    },
    {
      "inputs": [],
      "name": "BatchExecuteRelayCallParamsLengthMismatch",
      "type": "error"
    },
    {
      "inputs": [],
      "name": "CallingKeyManagerNotAllowed",
      "type": "error"
    },
    {
      "inputs": [],
      "name": "CannotSendValueToSetData",
      "type": "error"
    },
    {
      "inputs": [],
      "name": "DelegateCallDisallowedViaKeyManager",
      "type": "error"
    },
    {
      "inputs": [],
      "name": "ERC725Y_DataKeysValuesLengthMismatch",
      "type": "error"
    },
    {
      "inputs": [
        {
          "internalType": "bytes32",
          "name": "dataKey",
          "type": "bytes32"
        },
        {
          "internalType": "bytes",
          "name": "dataValue",
          "type": "bytes"
        }
      ],
      "name": "InvalidDataValuesForDataKeys",
      "type": "error"
    },
    {
      "inputs": [
        {
          "internalType": "bytes4",
          "name": "invalidFunction",
          "type": "bytes4"
        }
      ],
      "name": "InvalidERC725Function",
      "type": "error"
    },
    {
      "inputs": [
        {
          "internalType": "bytes",
          "name": "allowedCallsValue",
          "type": "bytes"
        }
      ],
      "name": "InvalidEncodedAllowedCalls",
      "type": "error"
    },
    {
      "inputs": [
        {
          "internalType": "bytes",
          "name": "value",
          "type": "bytes"
        },
        {
          "internalType": "string",
          "name": "context",
          "type": "string"
        }
      ],
      "name": "InvalidEncodedAllowedERC725YDataKeys",
      "type": "error"
    },
    {
      "inputs": [],
      "name": "InvalidLSP6Target",
      "type": "error"
    },
    {
      "inputs": [
        {
          "internalType": "bytes",
          "name": "payload",
          "type": "bytes"
        }
      ],
      "name": "InvalidPayload",
      "type": "error"
    },
    {
      "inputs": [
        {
          "internalType": "address",
          "name": "signer",
          "type": "address"
        },
        {
          "internalType": "uint256",
          "name": "invalidNonce",
          "type": "uint256"
        },
        {
          "internalType": "bytes",
          "name": "signature",
          "type": "bytes"
        }
      ],
      "name": "InvalidRelayNonce",
      "type": "error"
    },
    {
      "inputs": [
        {
          "internalType": "address",
          "name": "from",
          "type": "address"
        }
      ],
      "name": "InvalidWhitelistedCall",
      "type": "error"
    },
    {
      "inputs": [],
      "name": "KeyManagerCannotBeSetAsExtensionForLSP20Functions",
      "type": "error"
    },
    {
      "inputs": [
        {
          "internalType": "uint256",
          "name": "totalValues",
          "type": "uint256"
        },
        {
          "internalType": "uint256",
          "name": "msgValue",
          "type": "uint256"
        }
      ],
      "name": "LSP6BatchExcessiveValueSent",
      "type": "error"
    },
    {
      "inputs": [
        {
          "internalType": "uint256",
          "name": "totalValues",
          "type": "uint256"
        },
        {
          "internalType": "uint256",
          "name": "msgValue",
          "type": "uint256"
        }
      ],
      "name": "LSP6BatchInsufficientValueSent",
      "type": "error"
    },
    {
      "inputs": [
        {
          "internalType": "address",
          "name": "from",
          "type": "address"
        }
      ],
      "name": "NoCallsAllowed",
      "type": "error"
    },
    {
      "inputs": [
        {
          "internalType": "address",
          "name": "from",
          "type": "address"
        }
      ],
      "name": "NoERC725YDataKeysAllowed",
      "type": "error"
    },
    {
      "inputs": [
        {
          "internalType": "address",
          "name": "from",
          "type": "address"
        }
      ],
      "name": "NoPermissionsSet",
      "type": "error"
    },
    {
      "inputs": [
        {
          "internalType": "address",
          "name": "from",
          "type": "address"
        },
        {
          "internalType": "address",
          "name": "to",
          "type": "address"
        },
        {
          "internalType": "bytes4",
          "name": "selector",
          "type": "bytes4"
        }
      ],
      "name": "NotAllowedCall",
      "type": "error"
    },
    {
      "inputs": [
        {
          "internalType": "address",
          "name": "from",
          "type": "address"
        },
        {
          "internalType": "bytes32",
          "name": "disallowedKey",
          "type": "bytes32"
        }
      ],
      "name": "NotAllowedERC725YDataKey",
      "type": "error"
    },
    {
      "inputs": [
        {
          "internalType": "address",
          "name": "from",
          "type": "address"
        },
        {
          "internalType": "string",
          "name": "permission",
          "type": "string"
        }
      ],
      "name": "NotAuthorised",
      "type": "error"
    },
    {
      "inputs": [
        {
          "internalType": "bytes32",
          "name": "dataKey",
          "type": "bytes32"
        }
      ],
      "name": "NotRecognisedPermissionKey",
      "type": "error"
    },
    {
      "inputs": [],
      "name": "RelayCallBeforeStartTime",
      "type": "error"
    },
    {
      "inputs": [],
      "name": "RelayCallExpired",
      "type": "error"
    },
    {
      "anonymous": false,
      "inputs": [
        {
          "indexed": true,
          "internalType": "address",
          "name": "signer",
          "type": "address"
        },
        {
          "indexed": true,
          "internalType": "uint256",
          "name": "value",
          "type": "uint256"
        },
        {
          "indexed": true,
          "internalType": "bytes4",
          "name": "selector",
          "type": "bytes4"
        }
      ],
      "name": "PermissionsVerified",
      "type": "event"
    },
    {
      "inputs": [
        {
          "internalType": "bytes",
          "name": "payload",
          "type": "bytes"
        }
      ],
      "name": "execute",
      "outputs": [
        {
          "internalType": "bytes",
          "name": "",
          "type": "bytes"
        }
      ],
      "stateMutability": "payable",
      "type": "function"
    },
    {
      "inputs": [
        {
          "internalType": "uint256[]",
          "name": "values",
          "type": "uint256[]"
        },
        {
          "internalType": "bytes[]",
          "name": "payloads",
          "type": "bytes[]"
        }
      ],
      "name": "executeBatch",
      "outputs": [
        {
          "internalType": "bytes[]",
          "name": "",
          "type": "bytes[]"
        }
      ],
      "stateMutability": "payable",
      "type": "function"
    },
    {
      "inputs": [
        {
          "internalType": "bytes",
          "name": "signature",
          "type": "bytes"
        },
        {
          "internalType": "uint256",
          "name": "nonce",
          "type": "uint256"
        },
        {
          "internalType": "uint256",
          "name": "validityTimestamps",
          "type": "uint256"
        },
        {
          "internalType": "bytes",
          "name": "payload",
          "type": "bytes"
        }
      ],
      "name": "executeRelayCall",
      "outputs": [
        {
          "internalType": "bytes",
          "name": "",
          "type": "bytes"
        }
      ],
      "stateMutability": "payable",
      "type": "function"
    },
    {
      "inputs": [
        {
          "internalType": "bytes[]",
          "name": "signatures",
          "type": "bytes[]"
        },
        {
          "internalType": "uint256[]",
          "name": "nonces",
          "type": "uint256[]"
        },
        {
          "internalType": "uint256[]",
          "name": "validityTimestamps",
          "type": "uint256[]"
        },
        {
          "internalType": "uint256[]",
          "name": "values",
          "type": "uint256[]"
        },
        {
          "internalType": "bytes[]",
          "name": "payloads",
          "type": "bytes[]"
        }
      ],
      "name": "executeRelayCallBatch",
      "outputs": [
        {
          "internalType": "bytes[]",
          "name": "",
          "type": "bytes[]"
        }
      ],
      "stateMutability": "payable",
      "type": "function"
    },
    {
      "inputs": [
        {
          "internalType": "address",
          "name": "from",
          "type": "address"
        },
        {
          "internalType": "uint128",
          "name": "channelId",
          "type": "uint128"
        }
      ],
      "name": "getNonce",
      "outputs": [
        {
          "internalType": "uint256",
          "name": "",
          "type": "uint256"
        }
      ],
      "stateMutability": "view",
      "type": "function"
    },
    {
      "inputs": [
        {
          "internalType": "bytes32",
          "name": "dataHash",
          "type": "bytes32"
        },
        {
          "internalType": "bytes",
          "name": "signature",
          "type": "bytes"
        }
      ],
      "name": "isValidSignature",
      "outputs": [
        {
          "internalType": "bytes4",
          "name": "magicValue",
          "type": "bytes4"
        }
      ],
      "stateMutability": "view",
      "type": "function"
    },
    {
      "inputs": [
        {
          "internalType": "address",
          "name": "caller",
          "type": "address"
        },
        {
          "internalType": "uint256",
          "name": "msgValue",
          "type": "uint256"
        },
        {
          "internalType": "bytes",
          "name": "data",
          "type": "bytes"
        }
      ],
      "name": "lsp20VerifyCall",
      "outputs": [
        {
          "internalType": "bytes4",
          "name": "",
          "type": "bytes4"
        }
      ],
      "stateMutability": "nonpayable",
      "type": "function"
    },
    {
      "inputs": [
        {
          "internalType": "bytes32",
          "name": "",
          "type": "bytes32"
        },
        {
          "internalType": "bytes",
          "name": "",
          "type": "bytes"
        }
      ],
      "name": "lsp20VerifyCallResult",
      "outputs": [
        {
          "internalType": "bytes4",
          "name": "",
          "type": "bytes4"
        }
      ],
      "stateMutability": "nonpayable",
      "type": "function"
    },
    {
      "inputs": [
        {
          "internalType": "bytes4",
          "name": "interfaceId",
          "type": "bytes4"
        }
      ],
      "name": "supportsInterface",
      "outputs": [
        {
          "internalType": "bool",
          "name": "",
          "type": "bool"
        }
      ],
      "stateMutability": "view",
      "type": "function"
    },
    {
      "inputs": [],
      "name": "target",
      "outputs": [
        {
          "internalType": "address",
          "name": "",
          "type": "address"
        }
      ],
      "stateMutability": "view",
      "type": "function"
    }
  ],
  "bytecode": "0x60806040523480156200001157600080fd5b50604051620037f0380380620037f083398101604081905262000034916200007e565b6001600160a01b0381166200005c5760405163fc85457960e01b815260040160405180910390fd5b600180546001600160a81b0319166001600160a01b03831617905550620000b0565b6000602082840312156200009157600080fd5b81516001600160a01b0381168114620000a957600080fd5b9392505050565b61373080620000c06000396000f3fe6080604052600436106100915760003560e01c8063a20856a511610059578063a20856a514610157578063b44581d914610177578063bf0176ff146101a5578063d3fc45d3146101b8578063d4b83992146101d857600080fd5b806301ffc9a71461009657806309c5eabe146100cb5780631626ba7e146100eb5780634c8a4e74146101245780639bf04b1114610137575b600080fd5b3480156100a257600080fd5b506100b66100b1366004612b91565b610200565b60405190151581526020015b60405180910390f35b6100de6100d9366004612bfc565b610288565b6040516100c29190612c8d565b3480156100f757600080fd5b5061010b610106366004612d63565b61029c565b6040516001600160e01b031990911681526020016100c2565b6100de610132366004612da9565b610325565b34801561014357600080fd5b5061010b610152366004612e3b565b61033f565b61016a610165366004612f87565b610491565b6040516100c29190613071565b34801561018357600080fd5b506101976101923660046130d3565b610679565b6040519081526020016100c2565b61016a6101b3366004613118565b6106b9565b3480156101c457600080fd5b5061010b6101d3366004612d63565b610826565b3480156101e457600080fd5b506001546040516001600160a01b0390911681526020016100c2565b60006001600160e01b03198216636691886760e01b148061023157506001600160e01b03198216630b135d3f60e11b145b8061024c57506001600160e01b03198216632406076160e11b145b8061026757506001600160e01b03198216630b58f32160e31b145b8061028257506301ffc9a760e01b6001600160e01b03198316145b92915050565b606061029534848461085c565b9392505050565b60008060006102ab8585610967565b909250905060008160048111156102c4576102c4613177565b146102dc57506001600160e01b031991506102829050565b6001546103019062200000906102fb906001600160a01b0316856109ac565b81161490565b610313576001600160e01b031961031c565b630b135d3f60e11b5b95945050505050565b6060610335868686348787610a47565b9695505050505050565b600080631fc8da4360e21b610354848661318d565b6001600160e01b03191614806103835750639790242160e01b610377848661318d565b6001600160e01b031916145b1561038c575060015b6001546001600160a01b0316330361042e5760006103aa8288610c06565b90506103b887878787610c58565b6103c2848661318d565b6001600160e01b03191686886001600160a01b03167fc0a62328f6bf5e3172bb1fcb2019f54b2c523b6a48e3513a2298fbf0150b781e60405160405180910390a4818061040c5750805b61041d57639bf04b0160e01b610425565b629bf04b60e81b5b92505050610489565b600154600160a01b900460ff1680156104645760015461046490889061045d906001600160a01b0316826109ac565b6080610e6a565b61047087878787610c58565b818061040c57508061041d57639bf04b0160e01b610425565b949350505050565b8851606090881415806104a45750878614155b806104af5750858414155b806104ba5750838214155b156104d85760405163b4d50d2160e01b815260040160405180910390fd5b6000826001600160401b038111156104f2576104f2612ca0565b60405190808252806020026020018201604052801561052557816020015b60608152602001906001900390816105105790505b5090506000805b8481101561063f5734888883818110610547576105476131bd565b905060200201358361055991906131e9565b925082111561058957604051630c28c92b60e21b8152600481018390523460248201526044015b60405180910390fd5b61061a8d828151811061059e5761059e6131bd565b60200260200101518d8d848181106105b8576105b86131bd565b905060200201358c8c858181106105d1576105d16131bd565b905060200201358b8b868181106105ea576105ea6131bd565b905060200201358a8a87818110610603576106036131bd565b905060200281019061061591906131fc565b610a47565b83828151811061062c5761062c6131bd565b602090810291909101015260010161052c565b503481101561066a5760405163528c345b60e11b815260048101829052346024820152604401610580565b509a9950505050505050505050565b6001600160a01b0382166000908152602081815260408083206001600160801b0385168452909152812054608083901b6001600160801b03191617610295565b60608382146106db576040516355a187db60e01b815260040160405180910390fd5b6000826001600160401b038111156106f5576106f5612ca0565b60405190808252806020026020018201604052801561072857816020015b60608152602001906001900390816107135790505b5090506000805b848110156107f1573488888381811061074a5761074a6131bd565b905060200201358361075c91906131e9565b925082111561078757604051630c28c92b60e21b815260048101839052346024820152604401610580565b6107cc88888381811061079c5761079c6131bd565b905060200201358787848181106107b5576107b56131bd565b90506020028101906107c791906131fc565b61085c565b8382815181106107de576107de6131bd565b602090810291909101015260010161072f565b503481101561081c5760405163528c345b60e11b815260048101829052346024820152604401610580565b5095945050505050565b6001546000906001600160a01b0316330361084d5761084d6001805460ff60a01b19169055565b5063d3fc45d360e01b92915050565b60606004821015610884578282604051630d886ef360e21b8152600401610580929190613242565b6000631fc8da4360e21b610898848661318d565b6001600160e01b03191614806108c75750639790242160e01b6108bb848661318d565b6001600160e01b031916145b156108d0575060015b60006108dc8233610c06565b90506108ea33878787610c58565b6108f4848661318d565b6001600160e01b03191686336001600160a01b03167fc0a62328f6bf5e3172bb1fcb2019f54b2c523b6a48e3513a2298fbf0150b781e60405160405180910390a46000610942878787610e7a565b905081158015610950575082155b15610335576103356001805460ff60a01b19169055565b600080825160410361099d5760208301516040840151606085015160001a61099187828585610f5b565b945094505050506109a5565b506000905060025b9250929050565b6000806001600160a01b0384166354f6127f6109d9694b80742de2bf82acb36360b01b606087901b61101f565b6040518263ffffffff1660e01b81526004016109f791815260200190565b600060405180830381865afa158015610a14573d6000803e3d6000fd5b505050506040513d6000823e601f3d908101601f19168201604052610a3c9190810190613271565b9050610489816132de565b60606004821015610a6f578282604051630d886ef360e21b8152600401610580929190613242565b6000610a7f88888888888861106b565b6001600160a01b03811660009081526020818152604080832060808c901c84529091529020549091506001600160801b03881614610ad65780878960405163c9bd9eb960e01b815260040161058093929190613305565b6001600160a01b03811660009081526020818152604080832060808b901c84529091528120805491610b078361332c565b9190505550610b15866110c3565b6000631fc8da4360e21b610b29858761318d565b6001600160e01b0319161480610b585750639790242160e01b610b4c858761318d565b6001600160e01b031916145b15610b61575060015b6000610b6d8284610c06565b9050610b7b83888888610c58565b610b85858761318d565b6001600160e01b03191687846001600160a01b03167fc0a62328f6bf5e3172bb1fcb2019f54b2c523b6a48e3513a2298fbf0150b781e60405160405180910390a46000610bd3888888610e7a565b905081158015610be1575082155b15610bf857610bf86001805460ff60a01b19169055565b9a9950505050505050505050565b600154600160a01b900460ff168015610c3a57600154610c3590839061045d906001600160a01b0316826109ac565b610282565b82610282576001805460ff60a01b1916600160a01b17905592915050565b600154600090610c71906001600160a01b0316866109ac565b905080610c9c57604051637949029560e11b81526001600160a01b0386166004820152602401610580565b6000610ca8838561318d565b905063203725bd60e21b6001600160e01b0319821601610d23578415610ce1576040516316694a7f60e21b815260040160405180910390fd5b600080610cf18560048189613345565b810190610cfe9190612d63565b6001549193509150610d1c906001600160a01b03168986858561111e565b5050610e62565b63686fdbdf60e01b6001600160e01b0319821601610d95578415610d5a576040516316694a7f60e21b815260040160405180910390fd5b600080610d6a8560048189613345565b810190610d77919061336f565b6001549193509150610d1c906001600160a01b031689868585611193565b635d9feb8160e11b6001600160e01b0319821601610dfa576000808080610dbf876004818b613345565b810190610dcc919061341d565b60015493975091955093509150610df1906001600160a01b03168b88878787876112fc565b50505050610e62565b6001600160e01b0319811663f2fde38b60e01b1480610e2957506001600160e01b031981166379ba509760e01b145b15610e3d57610e3886836113a5565b610e62565b604051630aea214760e21b81526001600160e01b031982166004820152602401610580565b505050505050565b610e758383836113de565b505050565b60015460609060009081906001600160a01b0316865a908787604051610ea192919061347f565b600060405180830381858888f193505050503d8060008114610edf576040519150601f19603f3d011682016040523d82523d6000602084013e610ee4565b606091505b50915091506000610f2b83836040518060400160405280601e81526020017f4c5350363a206661696c656420657865637574696e67207061796c6f61640000815250611411565b90508051600003610f3c5780610f50565b80806020019051810190610f509190613271565b979650505050505050565b6000807f7fffffffffffffffffffffffffffffff5d576e7357a4501ddfe92f46681b20a0831115610f925750600090506003611016565b6040805160008082526020820180845289905260ff881692820192909252606081018690526080810185905260019060a0016020604051602081039080840390855afa158015610fe6573d6000803e3d6000fd5b5050604051601f1901519150506001600160a01b03811661100f57600060019250925050611016565b9150600090505b94509492505050565b604080516001600160b01b0319841660208201526000602a82018190526001600160601b03198416602c83015291829101604051602081830303815290604052905080610489906132de565b600080601946888888888860405160200161108c979695949392919061348f565b60408051601f19818403018152919052905060006110aa308361142a565b90506110b6818a61145d565b9998505050505050505050565b806000036110ce5750565b608081901c81428211156110f457604051626f25c560e11b815260040160405180910390fd5b806001600160801b0316421115610e7557604051631714ea6360e21b815260040160405180910390fd5b600061112c86858585611481565b90506203ffff19810161117657620200008085160361114b575061118c565b611159858562040000610e6a565b610e3885846111716001600160a01b038a168361173b565b6117c8565b80611181575061118c565b610e62858583610e6a565b5050505050565b80518251146111b557604051633bcc897960e01b815260040160405180910390fd5b60008083516001600160401b038111156111d1576111d1612ca0565b6040519080825280602002602001820160405280156111fa578160200160208202803683370190505b509050600080805b6112408a89898481518110611219576112196131bd565b6020026020010151898581518110611233576112336131bd565b6020026020010151611481565b91506203ffff1982016112565760019450611299565b811561126757611267898984610e6a565b600184828151811061127b5761127b6131bd565b91151560209283029190910190910152826112958161332c565b9350505b806001019050865181106112025784156112f05762020000808916036112c357505050505061118c565b6112d1898962040000610e6a565b6112f089886112e96001600160a01b038e168361173b565b878761191b565b50505050505050505050565b306001600160a01b0384160361132557604051635218d91b60e11b815260040160405180910390fd5b8361133d57611338878787868686611b52565b61139c565b600184148061134c5750600284145b156113655781151561135f878783611c2e565b5061139c565b6003840361137b57611338878787868686611ca9565b6004840361139c5760405163406b75d760e11b815260040160405180910390fd5b50505050505050565b6001808216146113da5760006113bb6001611cd8565b90508281604051631ded6b7360e11b81526004016105809291906134c5565b5050565b8082168114610e755760006113f282611cd8565b90508381604051631ded6b7360e11b81526004016105809291906134c5565b60608315611420575081610295565b6102958383611fe8565b6000828260405160200161143f9291906134e9565b60405160208183030381529060405280519060200120905092915050565b600080600061146c8585610967565b9150915061147981612012565b509392505050565b60006f1067922fc924ae78cd655932cd9cfb3d60811b6001600160801b03198416016114c1576006848116146114b98685858461215f565b915050610489565b65b47f8bd21d4160d01b6001600160d01b03198416016115bd576006848116146001600160a01b0319841669b47f8bd21d407d534c9d60b01b0161154d5782516020141580156115115750825115155b15611533578383604051631fa4139760e01b8152600401610580929190613528565b8015611543575060009050610489565b6114b98685612340565b69b47f8bd21d40c6c59b3960b01b6001600160a01b0319851601611577576114b9868585846123d0565b69b47f8bd21d407993d6ef60b01b6001600160a01b03198516016115a1576114b9868585846123fa565b604051630f7d735b60e01b815260048101859052602401610580565b7f0cfc51aec37c55a4d0b1a65c6255c4bf2fbdf6277f3cc0730c45b828b6db8b4783148061160157506001600160a01b03198316690cfc51aec37c55a4d0b160b01b145b1561165d5781516014141580156116185750815115155b1561163a578282604051631fa4139760e01b8152600401610580929190613528565b60608085160361164c57506000610489565b6116568584612424565b9050610489565b69188c3a5fb592bcff77b560b11b6001600160a01b031984160161173157815160141415801561168d5750815115155b156116af578282604051631fa4139760e01b8152600401610580929190613528565b606083901b6001600160e01b03198116639bf04b1160e01b14806116e357506001600160e01b0319811663d3fc45d360e01b145b1561171357306116f284613541565b60601c0361171357604051634a9fa8cf60e01b815260040160405180910390fd5b601880861603611727575060009050610489565b6114b986856124aa565b5062040000610489565b60606001600160a01b0383166354f6127f611765694b80742de2bf866c291160b01b85851b61101f565b6040518263ffffffff1660e01b815260040161178391815260200190565b600060405180830381865afa1580156117a0573d6000803e3d6000fd5b505050506040513d6000823e601f3d908101601f191682016040526102959190810190613271565b80516000036117f55760405163ed7fa50960e01b81526001600160a01b0384166004820152602401610580565b6000806000805b84518410156118f057848481518110611817576118176131bd565b01602001516001600160f81b031916856118328660016131e9565b81518110611842576118426131bd565b602001015160f81c60f81b60405160200161185e929190613578565b60405160208183030381529060405261187690613593565b60f01c92508215806118885750602083115b156118a8578460405163ae6cbd3760e01b815260040161058091906135c6565b6118b3836020613618565b6118be90600861362b565b8585016022015160001990911b9081169250905085811682036118e45750505050505050565b928201600201926117fc565b60405163557ae07960e01b81526001600160a01b038816600482015260248101879052604401610580565b82516000036119485760405163ed7fa50960e01b81526001600160a01b0386166004820152602401610580565b835160008080805b8751841015611acc5787848151811061196b5761196b6131bd565b01602001516001600160f81b031916886119868660016131e9565b81518110611996576119966131bd565b602001015160f81c60f81b6040516020016119b2929190613578565b6040516020818303038152906040526119ca90613593565b60f01c92508215806119dc5750602083115b156119fc578760405163ae6cbd3760e01b815260040161058091906135c6565b611a07836020613618565b611a1290600861362b565b8885016022015160001990911b9081169250905060005b85811015611abf57878181518110611a4357611a436131bd565b602002602001015115611a5857600101611a29565b82828b8381518110611a6c57611a6c6131bd565b60200260200101511603611ab7576001888281518110611a8e57611a8e6131bd565b9115156020928302919091019091015260018088019787900301611ab75750505050505061118c565b600101611a29565b5092820160020192611950565b60005b85811015611b4557878181518110611ae957611ae96131bd565b6020026020010151611b3d578a8a8281518110611b0857611b086131bd565b602090810291909101015160405163557ae07960e01b81526001600160a01b0390921660048301526024820152604401610580565b600101611acf565b5050505050505050505050565b80518215801591610100878116149190159061040080891614908490611b76575082155b15611b8857611b888989610200610e6a565b818015611b93575083155b8015611b9d575080155b15611baf57611baf8989610800610e6a565b81158015611bbb575080155b15611bcd57611bcd8989610800610e6a565b83158015611bd85750805b15611be65750505050610e62565b818015611bf05750835b8015611bf95750825b15611c075750505050610e62565b808015611c115750825b15611c1f5750505050610e62565b6112f08a8a60008a8a8a612530565b611c3c838362010000610e6a565b61010082811614818015611c4e575080155b15611ca35760408051631ded6b7360e11b81526001600160a01b03861660048201526024810191909152601360448201527253555045525f5452414e5346455256414c554560681b6064820152608401610580565b50505050565b611000848116148015611cbc5750610e62565b611cc98686612000610e6a565b61139c87876003878787612530565b60606000198201611d1057505060408051808201909152601181527005452414e534645524f574e45525348495607c1b602082015290565b6003198201611d4457505060408051808201909152600f81526e454449545045524d495353494f4e5360881b602082015290565b6001198201611d7657505060408051808201909152600d81526c20a22221a7a72a2927a62622a960991b602082015290565b6007198201611da857505060408051808201909152600d81526c414444455854454e53494f4e5360981b602082015290565b600f198201611ddd57505060408051808201909152601081526f4348414e4745455854454e53494f4e5360801b602082015290565b601f198201611e1f57505060408051808201909152601c81527f414444554e4956455253414c524543454956455244454c454741544500000000602082015290565b603f198201611e6157505060408051808201909152601f81527f4348414e4745554e4956455253414c524543454956455244454c454741544500602082015290565b607f198201611e9057505060408051808201909152600a8152695245454e5452414e435960b01b602082015290565b6203ffff198201611ebe5750506040805180820190915260078152665345544441544160c81b602082015290565b6107ff198201611ee857505060408051808201909152600481526310d0531360e21b602082015290565b611fff198201611f1857505060408051808201909152600a81526914d510551250d0d0531360b21b602082015290565b617fff198201611f4a57505060408051808201909152600c81526b1111531151d0551150d0531360a21b602082015290565b61ffff198201611f765750506040805180820190915260068152654445504c4f5960d01b602082015290565b6101ff198201611fa957505060408051808201909152600d81526c5452414e5346455256414c554560981b602082015290565b621fffff198201611fd457505060408051808201909152600481526329a4a3a760e11b602082015290565b505060408051602081019091526000815290565b815115611ff85781518083602001fd5b8060405162461bcd60e51b81526004016105809190612c8d565b600081600481111561202657612026613177565b0361202e5750565b600181600481111561204257612042613177565b0361208f5760405162461bcd60e51b815260206004820152601860248201527f45434453413a20696e76616c6964207369676e617475726500000000000000006044820152606401610580565b60028160048111156120a3576120a3613177565b036120f05760405162461bcd60e51b815260206004820152601f60248201527f45434453413a20696e76616c6964207369676e6174757265206c656e677468006044820152606401610580565b600381600481111561210457612104613177565b0361215c5760405162461bcd60e51b815260206004820152602260248201527f45434453413a20696e76616c6964207369676e6174757265202773272076616c604482015261756560f01b6064820152608401610580565b50565b60007f20cf245f92495cf19acab2659b39f679e0f76aba35a7394b241ce5a0cc734f1d840161227957825160101415801561219a5750825115155b156121bc578383604051631fa4139760e01b8152600401610580929190613528565b81156121ca57506000610489565b60006121d584613642565b60801c9050856001600160a01b03166354f6127f866040518263ffffffff1660e01b815260040161220891815260200190565b600060405180830381865afa158015612225573d6000803e3d6000fd5b505050506040513d6000823e601f3d908101601f1916820160405261224d9190810190613271565b61225690613642565b60801c6001600160801b0382161161226f5760046114b9565b6002915050610489565b82511580159061228b57508251601414155b156122ad578383604051631fa4139760e01b8152600401610580929190613528565b81156122bb57506000610489565b6040516354f6127f60e01b8152600481018590526001600160a01b038616906354f6127f90602401600060405180830381865afa158015612300573d6000803e3d6000fd5b505050506040513d6000823e601f3d908101601f191682016040526123289190810190613271565b511561233557600461031c565b600295945050505050565b6040516354f6127f60e01b81526004810182905260009081906001600160a01b038516906354f6127f90602401600060405180830381865afa15801561238a573d6000803e3d6000fd5b505050506040513d6000823e601f3d908101601f191682016040526123b29190810190613271565b6123bb906132de565b146123c7576004610295565b50600292915050565b60006123db836126d9565b6122ad578260405163187e77ab60e01b81526004016105809190612c8d565b6000612405836127c2565b6122ad578260405163ae6cbd3760e01b81526004016105809190613675565b6040516354f6127f60e01b8152600481018290526000906001600160a01b038416906354f6127f90602401600060405180830381865afa15801561246c573d6000803e3d6000fd5b505050506040513d6000823e601f3d908101601f191682016040526124949190810190613271565b51156124a1576040610295565b50602092915050565b6040516354f6127f60e01b8152600481018290526000906001600160a01b038416906354f6127f90602401600060405180830381865afa1580156124f2573d6000803e3d6000fd5b505050506040513d6000823e601f3d908101601f1916820160405261251a9190810190613271565b5115612527576010610295565b50600892915050565b60006125456001600160a01b0388168761289b565b9050805160000361257457604051636cb6058760e01b81526001600160a01b0387166004820152602401610580565b81518015906000906004111561258b576000612594565b612594846136c7565b905060006125a38887856128c5565b905060005b845181101561269c5784516125be8260226131e9565b11156125df578460405163187e77ab60e01b81526004016105809190612c8d565b60006125f7866125f08460026131e9565b6020612911565b905063ffffffff19602061260a836132de565b63ffffffff19911b160361263c57604051636fd203c560e01b81526001600160a01b038c166004820152602401610580565b6126468184612a1e565b80156126575750612657818a612a45565b80156126685750612668818a612a88565b801561267957506126798185612ac0565b1561268957505050505050610e62565b506126956022826131e9565b90506125a8565b5060405163228a3de760e11b81526001600160a01b03808b166004830152881660248201526001600160e01b031983166044820152606401610580565b6000805b82518110156127a85782516126f38260016131e9565b106127015750600092915050565b6000838281518110612715576127156131bd565b01602001516001600160f81b031916846127308460016131e9565b81518110612740576127406131bd565b602001015160f81c60f81b60405160200161275c929190613578565b60405160208183030381529060405261277490613593565b60f01c90506020811461278b575060009392505050565b6127968160026131e9565b6127a090836131e9565b9150506126dd565b825181036127b95750600192915050565b50600092915050565b6000805b82518110156127a85782516127dc8260016131e9565b106127ea5750600092915050565b60008382815181106127fe576127fe6131bd565b01602001516001600160f81b031916846128198460016131e9565b81518110612829576128296131bd565b602001015160f81c60f81b604051602001612845929190613578565b60405160208183030381529060405261285d90613593565b60f01c905080158061286f5750602081115b1561287e575060009392505050565b6128898160026131e9565b61289390836131e9565b9150506127c6565b60606001600160a01b0383166354f6127f611765694b80742de2bf393a64c760b01b85851b61101f565b600082156128d457600160e01b175b8161029557836128e957600160e11b17610295565b600384036128fc57600160e21b17610295565b6004840361029557600160e31b179392505050565b60608161291f81601f6131e9565b101561295e5760405162461bcd60e51b815260206004820152600e60248201526d736c6963655f6f766572666c6f7760901b6044820152606401610580565b61296882846131e9565b845110156129ac5760405162461bcd60e51b8152602060048201526011602482015270736c6963655f6f75744f66426f756e647360781b6044820152606401610580565b6060821580156129cb5760405191506000825260208201604052612a15565b6040519150601f8416801560200281840101858101878315602002848b0101015b81831015612a045780518352602092830192016129ec565b5050858452601f01601f1916604052505b50949350505050565b600080612a2a846136c7565b83166001600160e01b03199081169084161491505092915050565b6000806020612a53856132de565b901b60601c90506001600160a01b038114806104895750806001600160a01b0316836001600160a01b03161491505092915050565b60008060c0612a96856132de565b901b90506001600160e01b0319808216148061048957506104896001600160a01b03841682612b0c565b60008060e0612ace856132de565b901b90506001600160e01b0319838116151590808316148061031c575080801561031c5750506001600160e01b031990811692169190911492915050565b604080516001600160e01b03198316602480830191909152825180830390910181526044909101909152602080820180516001600160e01b03166301ffc9a760e01b178152825160009392849283928392918391908a617530fa92503d91506000519050828015612b7e575060208210155b8015610f50575015159695505050505050565b600060208284031215612ba357600080fd5b81356001600160e01b03198116811461029557600080fd5b60008083601f840112612bcd57600080fd5b5081356001600160401b03811115612be457600080fd5b6020830191508360208285010111156109a557600080fd5b60008060208385031215612c0f57600080fd5b82356001600160401b03811115612c2557600080fd5b612c3185828601612bbb565b90969095509350505050565b60005b83811015612c58578181015183820152602001612c40565b50506000910152565b60008151808452612c79816020860160208601612c3d565b601f01601f19169290920160200192915050565b6020815260006102956020830184612c61565b634e487b7160e01b600052604160045260246000fd5b604051601f8201601f191681016001600160401b0381118282101715612cde57612cde612ca0565b604052919050565b60006001600160401b03821115612cff57612cff612ca0565b50601f01601f191660200190565b600082601f830112612d1e57600080fd5b8135612d31612d2c82612ce6565b612cb6565b818152846020838601011115612d4657600080fd5b816020850160208301376000918101602001919091529392505050565b60008060408385031215612d7657600080fd5b8235915060208301356001600160401b03811115612d9357600080fd5b612d9f85828601612d0d565b9150509250929050565b600080600080600060808688031215612dc157600080fd5b85356001600160401b0380821115612dd857600080fd5b612de489838a01612d0d565b965060208801359550604088013594506060880135915080821115612e0857600080fd5b50612e1588828901612bbb565b969995985093965092949392505050565b6001600160a01b038116811461215c57600080fd5b60008060008060608587031215612e5157600080fd5b8435612e5c81612e26565b93506020850135925060408501356001600160401b03811115612e7e57600080fd5b612e8a87828801612bbb565b95989497509550505050565b60006001600160401b03821115612eaf57612eaf612ca0565b5060051b60200190565b600082601f830112612eca57600080fd5b81356020612eda612d2c83612e96565b82815260059290921b84018101918181019086841115612ef957600080fd5b8286015b84811015612f385780356001600160401b03811115612f1c5760008081fd5b612f2a8986838b0101612d0d565b845250918301918301612efd565b509695505050505050565b60008083601f840112612f5557600080fd5b5081356001600160401b03811115612f6c57600080fd5b6020830191508360208260051b85010111156109a557600080fd5b600080600080600080600080600060a08a8c031215612fa557600080fd5b89356001600160401b0380821115612fbc57600080fd5b612fc88d838e01612eb9565b9a5060208c0135915080821115612fde57600080fd5b612fea8d838e01612f43565b909a50985060408c013591508082111561300357600080fd5b61300f8d838e01612f43565b909850965060608c013591508082111561302857600080fd5b6130348d838e01612f43565b909650945060808c013591508082111561304d57600080fd5b5061305a8c828d01612f43565b915080935050809150509295985092959850929598565b6000602080830181845280855180835260408601915060408160051b870101925083870160005b828110156130c657603f198886030184526130b4858351612c61565b94509285019290850190600101613098565b5092979650505050505050565b600080604083850312156130e657600080fd5b82356130f181612e26565b915060208301356001600160801b038116811461310d57600080fd5b809150509250929050565b6000806000806040858703121561312e57600080fd5b84356001600160401b038082111561314557600080fd5b61315188838901612f43565b9096509450602087013591508082111561316a57600080fd5b50612e8a87828801612f43565b634e487b7160e01b600052602160045260246000fd5b6001600160e01b031981358181169160048510156131b55780818660040360031b1b83161692505b505092915050565b634e487b7160e01b600052603260045260246000fd5b634e487b7160e01b600052601160045260246000fd5b80820180821115610282576102826131d3565b6000808335601e1984360301811261321357600080fd5b8301803591506001600160401b0382111561322d57600080fd5b6020019150368190038213156109a557600080fd5b60208152816020820152818360408301376000818301604090810191909152601f909201601f19160101919050565b60006020828403121561328357600080fd5b81516001600160401b0381111561329957600080fd5b8201601f810184136132aa57600080fd5b80516132b8612d2c82612ce6565b8181528560208385010111156132cd57600080fd5b61031c826020830160208601612c3d565b805160208083015191908110156132ff576000198160200360031b1b821691505b50919050565b60018060a01b038416815282602082015260606040820152600061031c6060830184612c61565b60006001820161333e5761333e6131d3565b5060010190565b6000808585111561335557600080fd5b8386111561336257600080fd5b5050820193919092039150565b6000806040838503121561338257600080fd5b82356001600160401b038082111561339957600080fd5b818501915085601f8301126133ad57600080fd5b813560206133bd612d2c83612e96565b82815260059290921b840181019181810190898411156133dc57600080fd5b948201945b838610156133fa578535825294820194908201906133e1565b9650508601359250508082111561341057600080fd5b50612d9f85828601612eb9565b6000806000806080858703121561343357600080fd5b84359350602085013561344581612e26565b92506040850135915060608501356001600160401b0381111561346757600080fd5b61347387828801612d0d565b91505092959194509250565b8183823760009101908152919050565b878152866020820152856040820152846060820152836080820152818360a08301376000910160a0019081529695505050505050565b6001600160a01b038316815260406020820181905260009061048990830184612c61565b601960f81b8152606083901b6001600160601b0319166002820152815160009061351a816016850160208701612c3d565b919091016016019392505050565b8281526040602082015260006104896040830184612c61565b805160208201516001600160601b031980821692919060148310156135705780818460140360031b1b83161693505b505050919050565b6001600160f81b031992831681529116600182015260020190565b805160208201516001600160f01b031980821692919060028310156135705760029290920360031b82901b161692915050565b6040815260006135d96040830184612c61565b8281036020840152601c81527f636f756c646e2774204445434f44452066726f6d2073746f726167650000000060208201526040810191505092915050565b81810381811115610282576102826131d3565b8082028115828204841417610282576102826131d3565b805160208201516001600160801b031980821692919060108310156135705760109290920360031b82901b161692915050565b6040815260006136886040830184612c61565b8281036020840152602081527f636f756c646e27742056414c49444154452074686520646174612076616c756560208201526040810191505092915050565b805160208201516001600160e01b031980821692919060048310156135705760049290920360031b82901b16169291505056fea264697066735822122051e77c4032504bc5b24472ae8c00a53c02dddfd691c251e84a3a2e9fcfc8f39564736f6c63430008130033",
  "linkReferences": {},
  "deployedLinkReferences": {}
}