{
  "_format": "hh-sol-artifact-1",
  "contractName": "LSP9VaultCore",
  "sourceName": "@lukso/lsp-smart-contracts/contracts/LSP9Vault/LSP9VaultCore.sol",
  "abi": [
    {
      "inputs": [],
      "name": "CannotTransferOwnershipToSelf",
      "type": "error"
    },
    {
      "inputs": [],
      "name": "ERC725X_ContractDeploymentFailed",
      "type": "error"
    },
    {
      "inputs": [],
      "name": "ERC725X_CreateOperationsRequireEmptyRecipientAddress",
      "type": "error"
    },
    {
      "inputs": [],
      "name": "ERC725X_ExecuteParametersEmptyArray",
      "type": "error"
    },
    {
      "inputs": [],
      "name": "ERC725X_ExecuteParametersLengthMismatch",
      "type": "error"
    },
    {
      "inputs": [
        {
          "internalType": "uint256",
          "name": "balance",
          "type": "uint256"
        },
        {
          "internalType": "uint256",
          "name": "value",
          "type": "uint256"
        }
      ],
      "name": "ERC725X_InsufficientBalance",
      "type": "error"
    },
    {
      "inputs": [],
      "name": "ERC725X_MsgValueDisallowedInStaticCall",
      "type": "error"
    },
    {
      "inputs": [],
      "name": "ERC725X_NoContractBytecodeProvided",
      "type": "error"
    },
    {
      "inputs": [
        {
          "internalType": "uint256",
          "name": "operationTypeProvided",
          "type": "uint256"
        }
      ],
      "name": "ERC725X_UnknownOperationType",
      "type": "error"
    },
    {
      "inputs": [],
      "name": "ERC725Y_DataKeysValuesLengthMismatch",
      "type": "error"
    },
    {
      "inputs": [],
      "name": "ERC725Y_MsgValueDisallowed",
      "type": "error"
    },
    {
      "inputs": [],
      "name": "LSP14MustAcceptOwnershipInSeparateTransaction",
      "type": "error"
    },
    {
      "inputs": [
        {
          "internalType": "bytes32",
          "name": "dataKey",
          "type": "bytes32"
        }
      ],
      "name": "LSP1DelegateNotAllowedToSetDataKey",
      "type": "error"
    },
    {
      "inputs": [
        {
          "internalType": "bytes4",
          "name": "functionSelector",
          "type": "bytes4"
        }
      ],
      "name": "NoExtensionFoundForFunctionSelector",
      "type": "error"
    },
    {
      "inputs": [
        {
          "internalType": "uint256",
          "name": "renounceOwnershipStart",
          "type": "uint256"
        },
        {
          "internalType": "uint256",
          "name": "renounceOwnershipEnd",
          "type": "uint256"
        }
      ],
      "name": "NotInRenounceOwnershipInterval",
      "type": "error"
    },
    {
      "anonymous": false,
      "inputs": [
        {
          "indexed": true,
          "internalType": "uint256",
          "name": "operationType",
          "type": "uint256"
        },
        {
          "indexed": true,
          "internalType": "address",
          "name": "contractAddress",
          "type": "address"
        },
        {
          "indexed": true,
          "internalType": "uint256",
          "name": "value",
          "type": "uint256"
        },
        {
          "indexed": false,
          "internalType": "bytes32",
          "name": "salt",
          "type": "bytes32"
        }
      ],
      "name": "ContractCreated",
      "type": "event"
    },
    {
      "anonymous": false,
      "inputs": [
        {
          "indexed": true,
          "internalType": "bytes32",
          "name": "dataKey",
          "type": "bytes32"
        },
        {
          "indexed": false,
          "internalType": "bytes",
          "name": "dataValue",
          "type": "bytes"
        }
      ],
      "name": "DataChanged",
      "type": "event"
    },
    {
      "anonymous": false,
      "inputs": [
        {
          "indexed": true,
          "internalType": "uint256",
          "name": "operationType",
          "type": "uint256"
        },
        {
          "indexed": true,
          "internalType": "address",
          "name": "target",
          "type": "address"
        },
        {
          "indexed": true,
          "internalType": "uint256",
          "name": "value",
          "type": "uint256"
        },
        {
          "indexed": false,
          "internalType": "bytes4",
          "name": "selector",
          "type": "bytes4"
        }
      ],
      "name": "Executed",
      "type": "event"
    },
    {
      "anonymous": false,
      "inputs": [],
      "name": "OwnershipRenounced",
      "type": "event"
    },
    {
      "anonymous": false,
      "inputs": [
        {
          "indexed": true,
          "internalType": "address",
          "name": "previousOwner",
          "type": "address"
        },
        {
          "indexed": true,
          "internalType": "address",
          "name": "newOwner",
          "type": "address"
        }
      ],
      "name": "OwnershipTransferStarted",
      "type": "event"
    },
    {
      "anonymous": false,
      "inputs": [
        {
          "indexed": true,
          "internalType": "address",
          "name": "previousOwner",
          "type": "address"
        },
        {
          "indexed": true,
          "internalType": "address",
          "name": "newOwner",
          "type": "address"
        }
      ],
      "name": "OwnershipTransferred",
      "type": "event"
    },
    {
      "anonymous": false,
      "inputs": [],
      "name": "RenounceOwnershipStarted",
      "type": "event"
    },
    {
      "anonymous": false,
      "inputs": [
        {
          "indexed": true,
          "internalType": "address",
          "name": "from",
          "type": "address"
        },
        {
          "indexed": true,
          "internalType": "uint256",
          "name": "value",
          "type": "uint256"
        },
        {
          "indexed": true,
          "internalType": "bytes32",
          "name": "typeId",
          "type": "bytes32"
        },
        {
          "indexed": false,
          "internalType": "bytes",
          "name": "receivedData",
          "type": "bytes"
        },
        {
          "indexed": false,
          "internalType": "bytes",
          "name": "returnedValue",
          "type": "bytes"
        }
      ],
      "name": "UniversalReceiver",
      "type": "event"
    },
    {
      "anonymous": false,
      "inputs": [
        {
          "indexed": true,
          "internalType": "address",
          "name": "sender",
          "type": "address"
        },
        {
          "indexed": true,
          "internalType": "uint256",
          "name": "value",
          "type": "uint256"
        }
      ],
      "name": "ValueReceived",
      "type": "event"
    },
    {
      "stateMutability": "payable",
      "type": "fallback"
    },
    {
      "inputs": [],
      "name": "RENOUNCE_OWNERSHIP_CONFIRMATION_DELAY",
      "outputs": [
        {
          "internalType": "uint256",
          "name": "",
          "type": "uint256"
        }
      ],
      "stateMutability": "view",
      "type": "function"
    },
    {
      "inputs": [],
      "name": "RENOUNCE_OWNERSHIP_CONFIRMATION_PERIOD",
      "outputs": [
        {
          "internalType": "uint256",
          "name": "",
          "type": "uint256"
        }
      ],
      "stateMutability": "view",
      "type": "function"
    },
    {
      "inputs": [],
      "name": "acceptOwnership",
      "outputs": [],
      "stateMutability": "nonpayable",
      "type": "function"
    },
    {
      "inputs": [
        {
          "internalType": "bytes[]",
          "name": "data",
          "type": "bytes[]"
        }
      ],
      "name": "batchCalls",
      "outputs": [
        {
          "internalType": "bytes[]",
          "name": "results",
          "type": "bytes[]"
        }
      ],
      "stateMutability": "nonpayable",
      "type": "function"
    },
    {
      "inputs": [
        {
          "internalType": "uint256",
          "name": "operationType",
          "type": "uint256"
        },
        {
          "internalType": "address",
          "name": "target",
          "type": "address"
        },
        {
          "internalType": "uint256",
          "name": "value",
          "type": "uint256"
        },
        {
          "internalType": "bytes",
          "name": "data",
          "type": "bytes"
        }
      ],
      "name": "execute",
      "outputs": [
        {
          "internalType": "bytes",
          "name": "",
          "type": "bytes"
        }
      ],
      "stateMutability": "payable",
      "type": "function"
    },
    {
      "inputs": [
        {
          "internalType": "uint256[]",
          "name": "operationsType",
          "type": "uint256[]"
        },
        {
          "internalType": "address[]",
          "name": "targets",
          "type": "address[]"
        },
        {
          "internalType": "uint256[]",
          "name": "values",
          "type": "uint256[]"
        },
        {
          "internalType": "bytes[]",
          "name": "datas",
          "type": "bytes[]"
        }
      ],
      "name": "executeBatch",
      "outputs": [
        {
          "internalType": "bytes[]",
          "name": "",
          "type": "bytes[]"
        }
      ],
      "stateMutability": "payable",
      "type": "function"
    },
    {
      "inputs": [
        {
          "internalType": "bytes32",
          "name": "dataKey",
          "type": "bytes32"
        }
      ],
      "name": "getData",
      "outputs": [
        {
          "internalType": "bytes",
          "name": "dataValue",
          "type": "bytes"
        }
      ],
      "stateMutability": "view",
      "type": "function"
    },
    {
      "inputs": [
        {
          "internalType": "bytes32[]",
          "name": "dataKeys",
          "type": "bytes32[]"
        }
      ],
      "name": "getDataBatch",
      "outputs": [
        {
          "internalType": "bytes[]",
          "name": "dataValues",
          "type": "bytes[]"
        }
      ],
      "stateMutability": "view",
      "type": "function"
    },
    {
      "inputs": [],
      "name": "owner",
      "outputs": [
        {
          "internalType": "address",
          "name": "",
          "type": "address"
        }
      ],
      "stateMutability": "view",
      "type": "function"
    },
    {
      "inputs": [],
      "name": "pendingOwner",
      "outputs": [
        {
          "internalType": "address",
          "name": "",
          "type": "address"
        }
      ],
      "stateMutability": "view",
      "type": "function"
    },
    {
      "inputs": [],
      "name": "renounceOwnership",
      "outputs": [],
      "stateMutability": "nonpayable",
      "type": "function"
    },
    {
      "inputs": [
        {
          "internalType": "bytes32",
          "name": "dataKey",
          "type": "bytes32"
        },
        {
          "internalType": "bytes",
          "name": "dataValue",
          "type": "bytes"
        }
      ],
      "name": "setData",
      "outputs": [],
      "stateMutability": "payable",
      "type": "function"
    },
    {
      "inputs": [
        {
          "internalType": "bytes32[]",
          "name": "dataKeys",
          "type": "bytes32[]"
        },
        {
          "internalType": "bytes[]",
          "name": "dataValues",
          "type": "bytes[]"
        }
      ],
      "name": "setDataBatch",
      "outputs": [],
      "stateMutability": "payable",
      "type": "function"
    },
    {
      "inputs": [
        {
          "internalType": "bytes4",
          "name": "interfaceId",
          "type": "bytes4"
        }
      ],
      "name": "supportsInterface",
      "outputs": [
        {
          "internalType": "bool",
          "name": "",
          "type": "bool"
        }
      ],
      "stateMutability": "view",
      "type": "function"
    },
    {
      "inputs": [
        {
          "internalType": "address",
          "name": "newOwner",
          "type": "address"
        }
      ],
      "name": "transferOwnership",
      "outputs": [],
      "stateMutability": "nonpayable",
      "type": "function"
    },
    {
      "inputs": [
        {
          "internalType": "bytes32",
          "name": "typeId",
          "type": "bytes32"
        },
        {
          "internalType": "bytes",
          "name": "receivedData",
          "type": "bytes"
        }
      ],
      "name": "universalReceiver",
      "outputs": [
        {
          "internalType": "bytes",
          "name": "returnedValues",
          "type": "bytes"
        }
      ],
      "stateMutability": "payable",
      "type": "function"
    },
    {
      "stateMutability": "payable",
      "type": "receive"
    }
  ],
  "bytecode": "0x608060405234801561001057600080fd5b506128fc806100206000396000f3fe6080604052600436106100d75760003560e01c806379ba50971161007a57806379ba50971461025d5780637f23690c146102725780638da5cb5b1461028557806397902421146102b2578063dedff9c6146102c5578063e30c3978146102e5578063ead3fbdf1461015d578063f2fde38b1461030357610100565b806301bfba611461015d57806301ffc9a71461018557806331858452146101b557806344c028fe146101d557806354f6127f146101f55780636963d438146102155780636bb56a1414610235578063715018a61461024857610100565b366101005734156100fe57604051349033906000805160206128a783398151915290600090a35b005b6000366060341561012757604051349033906000805160206128a783398151915290600090a35b60043610156101455750604080516020810190915260008152610152565b61014f8383610323565b90505b915050805190602001f35b34801561016957600080fd5b5061017260c881565b6040519081526020015b60405180910390f35b34801561019157600080fd5b506101a56101a0366004611e3f565b61045c565b604051901515815260200161017c565b6101c86101c3366004612050565b6104c6565b60405161017c91906121a7565b6101e86101e3366004612209565b610509565b60405161017c919061225d565b34801561020157600080fd5b506101e8610210366004612270565b610541565b34801561022157600080fd5b506101c8610230366004612289565b61054c565b6101e86102433660046122fd565b6106aa565b34801561025457600080fd5b506100fe61086e565b34801561026957600080fd5b506100fe6108ea565b6100fe610280366004612378565b6109aa565b34801561029157600080fd5b5061029a610a63565b6040516001600160a01b03909116815260200161017c565b6100fe6102c03660046123be565b610a72565b3480156102d157600080fd5b506101c86102e0366004612417565b610c02565b3480156102f157600080fd5b506003546001600160a01b031661029a565b34801561030f57600080fd5b506100fe61031e36600461244b565b610cac565b6060600061033c6000356001600160e01b031916610d72565b90506000356001600160e01b03191615801561035f57506001600160a01b038116155b1561037a575050604080516020810190915260008152610456565b6001600160a01b0381166103b8576000356001600160e01b03191660405163bb370b2b60e01b81526004016103af9190612466565b60405180910390fd5b600080826001600160a01b0316868633346040516020016103dc949392919061247b565b60408051601f19818403018152908290526103f6916124a6565b6000604051808303816000865af19150503d8060008114610433576040519150601f19603f3d011682016040523d82523d6000602084013e610438565b606091505b5091509150811561044d579250610456915050565b80518060208301fd5b92915050565b60006001600160e01b031982166314578bf360e11b148061048d57506001600160e01b03198216631aed5a8560e21b145b806104a857506001600160e01b031982166394be599960e01b145b806104b757506104b782610db7565b80610456575061045682610ddc565b60606104d0610e19565b34156104f257604051349033906000805160206128a783398151915290600090a35b6104fe85858585610e7a565b90505b949350505050565b6060610513610e19565b341561053557604051349033906000805160206128a783398151915290600090a35b6104fe85858585610fd7565b6060610456826110b1565b6060816001600160401b0381111561056657610566611e69565b60405190808252806020026020018201604052801561059957816020015b60608152602001906001900390816105845790505b50905060005b828110156106a357600080308686858181106105bd576105bd6124c2565b90506020028101906105cf91906124d8565b6040516105dd929190612525565b600060405180830381855af49150503d8060008114610618576040519150601f19603f3d011682016040523d82523d6000602084013e61061d565b606091505b50915091508161067b578051156106375780518082602001fd5b60405162461bcd60e51b81526020600482015260196024820152781314d40e4e8818985d18da10d85b1b1cc81c995d995c9d1959603a1b60448201526064016103af565b8084848151811061068e5761068e6124c2565b6020908102919091010152505060010161059f565b5092915050565b606034156106ce57604051349033906000805160206128a783398151915290600090a35b60006106f97f0cfc51aec37c55a4d0b1a65c6255c4bf2fbdf6277f3cc0730c45b828b6db8b476110b1565b90506060601482511061075d57600061071183612535565b60601c905061072781631aed5a8560e21b611153565b1561075b57600480546001600160a01b0319166001600160a01b0383169081179091556107589088888833346111e7565b91505b505b6000610776690cfc51aec37c55a4d0b160b01b8861132f565b90506000610783826110b1565b9050606060148251106107e757600061079b83612535565b60601c90506107b181631aed5a8560e21b611153565b156107e557600480546001600160a01b0319166001600160a01b0383169081179091556107e2908b8b8b33346111e7565b91505b505b600480546001600160a01b031916905560405161080a908590839060200161256c565b60405160208183030381529060405295508834336001600160a01b03167f9c3ba68eb5742b8e3961aea0afc7371a71bf433c8a67a831803b64c064a178c28b8b8b60405161085a939291906125ba565b60405180910390a450505050509392505050565b610876610e19565b6000610880610a63565b905061088a61137b565b6000610894610a63565b6001600160a01b0316036108e7576040805160208101909152600081526108e7906001600160a01b038316907f0c622e58e6b7089ae35f1af1c86d997be92fcdd8c9509652022d41aa651694719061146e565b50565b600354600160a01b900460ff161561091557604051635758dd0760e01b815260040160405180910390fd5b600061091f610a63565b90506109296114f9565b60408051602081019091526000815261096e906001600160a01b038316907f0c622e58e6b7089ae35f1af1c86d997be92fcdd8c9509652022d41aa651694719061146e565b6040805160208101909152600081526108e79033907f79855c97dbc259ce395421d933d7bc0699b0f1561f988f09a9e8633fd542fe5c9061146e565b34156109c95760405163f36ba73760e01b815260040160405180910390fd5b60006109d361157c565b90508015610a54576001600160a01b03198316690cfc51aec37c55a4d0b160b01b1480610a1257506001600160d01b03198316654b80742de2bf60d01b145b80610a3357506001600160a01b03198316696773c5a04a6d4300884b60b11b145b15610a545760405163199611f160e01b8152600481018490526024016103af565b610a5e8383611625565b505050565b6000546001600160a01b031690565b6000610a7c61157c565b90508151835114610aa057604051633bcc897960e01b815260040160405180910390fd5b3415610abf5760405163f36ba73760e01b815260040160405180910390fd5b60005b8351811015610bfc578115610bb8578351690cfc51aec37c55a4d0b160b01b90859083908110610af457610af46124c2565b60200260200101516001600160a01b0319161480610b4057508351654b80742de2bf60d01b90859083908110610b2c57610b2c6124c2565b60200260200101516001600160d01b031916145b80610b7d57508351696773c5a04a6d4300884b60b11b90859083908110610b6957610b696124c2565b60200260200101516001600160a01b031916145b15610bb857838181518110610b9457610b946124c2565b602002602001015160405163199611f160e01b81526004016103af91815260200190565b610bf4848281518110610bcd57610bcd6124c2565b6020026020010151848381518110610be757610be76124c2565b6020026020010151611625565b600101610ac2565b50505050565b606081516001600160401b03811115610c1d57610c1d611e69565b604051908082528060200260200182016040528015610c5057816020015b6060815260200190600190039081610c3b5790505b50905060005b8251811015610ca657610c81838281518110610c7457610c746124c2565b60200260200101516110b1565b828281518110610c9357610c936124c2565b6020908102919091010152600101610c56565b50919050565b610cb4610e19565b6003805460ff60a01b1916600160a01b179055610cd081611699565b6000610cda610a63565b9050816001600160a01b0316816001600160a01b03167f38d16b8cac22d99fc7c124b9cd0de2d3fa1faef420bfe791d8c362d765e2270060405160405180910390a3604080516020810190915260008152610d61906001600160a01b038416907faefd43f45fed1bcd8992f23c803b6f4ec45cf6b62b0d404d565f290a471e763f9061146e565b50506003805460ff60a01b19169055565b600080610d96696773c5a04a6d4300884b60b11b6001600160e01b0319851661132f565b90506000610da3826110b1565b610dac90612535565b60601c949350505050565b60006001600160e01b0319821663a918fa6b60e01b14806104565750610456826116e9565b600080610def6301ffc9a760e01b610d72565b90506001600160a01b038116610e085750600092915050565b610e128184611153565b9392505050565b33610e22610a63565b6001600160a01b031614610e785760405162461bcd60e51b815260206004820181905260248201527f4f776e61626c653a2063616c6c6572206973206e6f7420746865206f776e657260448201526064016103af565b565b606083518551141580610e9b575082518451141580610e9b57508151835114155b15610eb957604051633ff55f4d60e01b815260040160405180910390fd5b8451600003610edb5760405163e9ad2b5f60e01b815260040160405180910390fd5b600085516001600160401b03811115610ef657610ef6611e69565b604051908082528060200260200182016040528015610f2957816020015b6060815260200190600190039081610f145790505b50905060005b8651811015610fcd57610fa8878281518110610f4d57610f4d6124c2565b6020026020010151878381518110610f6757610f676124c2565b6020026020010151878481518110610f8157610f816124c2565b6020026020010151878581518110610f9b57610f9b6124c2565b6020026020010151610fd7565b828281518110610fba57610fba6124c2565b6020908102919091010152600101610f2f565b5095945050505050565b606084610ff057610fe984848461170e565b9050610501565b6001850361102a576001600160a01b0384161561102057604051631820c12560e11b815260040160405180910390fd5b610fe9838361182c565b60028503611064576001600160a01b0384161561105a57604051631820c12560e11b815260040160405180910390fd5b610fe9838361191f565b6003850361109557821561108b576040516339795e3560e11b815260040160405180910390fd5b610fe984836119fb565b604051631d60ecef60e21b8152600481018690526024016103af565b60008181526001602052604090208054606091906110ce906125e0565b80601f01602080910402602001604051908101604052809291908181526020018280546110fa906125e0565b80156111475780601f1061111c57610100808354040283529160200191611147565b820191906000526020600020905b81548152906001019060200180831161112a57829003601f168201915b50505050509050919050565b6000806301ffc9a760e01b8360405160240161116f9190612466565b604051602081830303815290604052906001600160e01b0319166020820180516001600160e01b03838183161783525050505090506000806000602060008551602087018a617530fa92503d915060005190508280156111d0575060208210155b80156111dc5750600081115b979650505050505050565b60606000636bb56a1460e01b87878760405160240161120893929190612614565b60408051601f19818403018152918152602080830180516001600160e01b03166001600160e01b0319909516949094179093525161124a92879187910161262e565b6040516020818303038152906040529050600080896001600160a01b03168360405161127691906124a6565b6000604051808303816000865af19150503d80600081146112b3576040519150601f19603f3d011682016040523d82523d6000602084013e6112b8565b606091505b50915091506112fd82826040518060400160405280602081526020017f43616c6c20746f20756e6976657273616c5265636569766572206661696c6564815250611aec565b50805160000361130d5780611321565b808060200190518101906113219190612668565b9a9950505050505050505050565b604080516001600160b01b0319841660208201526000602a82018190526001600160601b03198416602c83015291829101604051602081830303815290604052905080610501906126d5565b600254439060009061138f9060c89061270f565b9050600061139e60c88361270f565b9050808311806113ae5750600254155b156113f6576002839055600380546001600160a01b03191690556040517f81b7f830f1f0084db6497c486cbe6974c86488dcc4e3738eab94ab6d6b1653e790600090a1505050565b8183101561142157604051638b9bf50760e01b815260048101839052602481018290526044016103af565b61142b6000611b05565b60006002819055600380546001600160a01b03191690556040517fd1f66c3d2bc1993a86be5e3d33709d98f0442381befcedd29f578b9b2506b1ce9190a1505050565b61147f83631aed5a8560e21b611153565b15610a5e57604051631aed5a8560e21b81526001600160a01b03841690636bb56a14906114b29085908590600401612722565b6000604051808303816000875af11580156114d1573d6000803e3d6000fd5b505050506040513d6000823e601f3d908101601f19168201604052610bfc9190810190612668565b6003546001600160a01b031633146115615760405162461bcd60e51b815260206004820152602560248201527f4c535031343a2063616c6c6572206973206e6f74207468652070656e64696e6760448201526427bbb732b960d91b60648201526084016103af565b61156a33611b05565b600380546001600160a01b0319169055565b6000611586610a63565b6001600160a01b0316336001600160a01b031614611622576004546001600160a01b0316331461161e5760405162461bcd60e51b815260206004820152603b60248201527f4f6e6c79204f776e6572206f72207265656e746572656420556e69766572736160448201527f6c2052656365697665722044656c656761746520616c6c6f776564000000000060648201526084016103af565b5060015b90565b600082815260016020526040902061163d8282612789565b50817fece574603820d07bc9b91f2a932baadf4628aabcb8afba49776529c14a6104b26101008351111561167e57611679836000610100611b75565b611680565b825b60405161168d919061225d565b60405180910390a25050565b306001600160a01b038216036116c2576040516343b248cd60e01b815260040160405180910390fd5b600380546001600160a01b0319166001600160a01b03929092169190911790556000600255565b60006001600160e01b031982166318a6a9a560e21b1480610456575061045682611c82565b60608247101561173a576040516301bf351f60e31b8152476004820152602481018490526044016103af565b826001600160a01b03851660007f4810874456b8e6487bd861375cf6abd8e1c8bb5858c8ce36a86a04dabfac199e61177186612848565b60405161177e9190612466565b60405180910390a4600080856001600160a01b031685856040516117a291906124a6565b60006040518083038185875af1925050503d80600081146117df576040519150601f19603f3d011682016040523d82523d6000602084013e6117e4565b606091505b509150915061182282826040518060400160405280601681526020017522a9219b991aac1d102ab735b737bbb71022b93937b960511b815250611aec565b9695505050505050565b606082471015611858576040516301bf351f60e31b8152476004820152602481018490526044016103af565b815160000361187a5760405163b81cd8d960e01b815260040160405180910390fd5b600082516020840185f090506001600160a01b0381166118ad57604051630b07489b60e01b815260040160405180910390fd5b83816001600160a01b031660017fa1fb700aaee2ae4a2ff6f91ce7eba292f89c2f5488b8ec4c5c5c8150692595c36000801b6040516118ee91815260200190565b60405180910390a480604051602001611907919061287b565b60405160208183030381529060405291505092915050565b606081516000036119435760405163b81cd8d960e01b815260040160405180910390fd5b600061195c83602085516119579190612893565b611cb7565b90506000611979846000602087516119749190612893565b611b75565b90506000611988868484611d15565b905085816001600160a01b031660027fa1fb700aaee2ae4a2ff6f91ce7eba292f89c2f5488b8ec4c5c5c8150692595c3866040516119c891815260200190565b60405180910390a4806040516020016119e1919061287b565b604051602081830303815290604052935050505092915050565b606060006001600160a01b03841660037f4810874456b8e6487bd861375cf6abd8e1c8bb5858c8ce36a86a04dabfac199e611a3586612848565b604051611a429190612466565b60405180910390a4600080846001600160a01b031684604051611a6591906124a6565b600060405180830381855afa9150503d8060008114611aa0576040519150601f19603f3d011682016040523d82523d6000602084013e611aa5565b606091505b5091509150611ae382826040518060400160405280601681526020017522a9219b991aac1d102ab735b737bbb71022b93937b960511b815250611aec565b95945050505050565b60608315611afb575081610e12565b610e128383611e15565b611b0d610a63565b6001600160a01b0316816001600160a01b0316146108e757600080546001600160a01b038381166001600160a01b0319831681178455604051919092169283917f8be0079c531659141344cd1fd0a4f28419497f9722a3daafe3b4186f6b6457e09190a35050565b606081611b8381601f61270f565b1015611bc25760405162461bcd60e51b815260206004820152600e60248201526d736c6963655f6f766572666c6f7760901b60448201526064016103af565b611bcc828461270f565b84511015611c105760405162461bcd60e51b8152602060048201526011602482015270736c6963655f6f75744f66426f756e647360781b60448201526064016103af565b606082158015611c2f5760405191506000825260208201604052611c79565b6040519150601f8416801560200281840101858101878315602002848b0101015b81831015611c68578051835260209283019201611c50565b5050858452601f01601f1916604052505b50949350505050565b60006001600160e01b03198216631d516b2b60e21b148061045657506301ffc9a760e01b6001600160e01b0319831614610456565b6000611cc482602061270f565b83511015611d0c5760405162461bcd60e51b8152602060048201526015602482015274746f427974657333325f6f75744f66426f756e647360581b60448201526064016103af565b50016020015190565b600083471015611d675760405162461bcd60e51b815260206004820152601d60248201527f437265617465323a20696e73756666696369656e742062616c616e636500000060448201526064016103af565b8151600003611db85760405162461bcd60e51b815260206004820181905260248201527f437265617465323a2062797465636f6465206c656e677468206973207a65726f60448201526064016103af565b8282516020840186f590506001600160a01b038116610e125760405162461bcd60e51b8152602060048201526019602482015278437265617465323a204661696c6564206f6e206465706c6f7960381b60448201526064016103af565b815115611e255781518083602001fd5b8060405162461bcd60e51b81526004016103af919061225d565b600060208284031215611e5157600080fd5b81356001600160e01b031981168114610e1257600080fd5b634e487b7160e01b600052604160045260246000fd5b604051601f8201601f191681016001600160401b0381118282101715611ea757611ea7611e69565b604052919050565b60006001600160401b03821115611ec857611ec8611e69565b5060051b60200190565b600082601f830112611ee357600080fd5b81356020611ef8611ef383611eaf565b611e7f565b82815260059290921b84018101918181019086841115611f1757600080fd5b8286015b84811015611f325780358352918301918301611f1b565b509695505050505050565b80356001600160a01b0381168114611f5457600080fd5b919050565b60006001600160401b03821115611f7257611f72611e69565b50601f01601f191660200190565b600082601f830112611f9157600080fd5b8135611f9f611ef382611f59565b818152846020838601011115611fb457600080fd5b816020850160208301376000918101602001919091529392505050565b600082601f830112611fe257600080fd5b81356020611ff2611ef383611eaf565b82815260059290921b8401810191818101908684111561201157600080fd5b8286015b84811015611f325780356001600160401b038111156120345760008081fd5b6120428986838b0101611f80565b845250918301918301612015565b6000806000806080858703121561206657600080fd5b84356001600160401b038082111561207d57600080fd5b61208988838901611ed2565b95506020915081870135818111156120a057600080fd5b8701601f810189136120b157600080fd5b80356120bf611ef382611eaf565b81815260059190911b8201840190848101908b8311156120de57600080fd5b928501925b82841015612103576120f484611f3d565b825292850192908501906120e3565b9750505050604087013591508082111561211c57600080fd5b61212888838901611ed2565b9350606087013591508082111561213e57600080fd5b5061214b87828801611fd1565b91505092959194509250565b60005b8381101561217257818101518382015260200161215a565b50506000910152565b60008151808452612193816020860160208601612157565b601f01601f19169290920160200192915050565b6000602080830181845280855180835260408601915060408160051b870101925083870160005b828110156121fc57603f198886030184526121ea85835161217b565b945092850192908501906001016121ce565b5092979650505050505050565b6000806000806080858703121561221f57600080fd5b8435935061222f60208601611f3d565b92506040850135915060608501356001600160401b0381111561225157600080fd5b61214b87828801611f80565b602081526000610e12602083018461217b565b60006020828403121561228257600080fd5b5035919050565b6000806020838503121561229c57600080fd5b82356001600160401b03808211156122b357600080fd5b818501915085601f8301126122c757600080fd5b8135818111156122d657600080fd5b8660208260051b85010111156122eb57600080fd5b60209290920196919550909350505050565b60008060006040848603121561231257600080fd5b8335925060208401356001600160401b038082111561233057600080fd5b818601915086601f83011261234457600080fd5b81358181111561235357600080fd5b87602082850101111561236557600080fd5b6020830194508093505050509250925092565b6000806040838503121561238b57600080fd5b8235915060208301356001600160401b038111156123a857600080fd5b6123b485828601611f80565b9150509250929050565b600080604083850312156123d157600080fd5b82356001600160401b03808211156123e857600080fd5b6123f486838701611ed2565b9350602085013591508082111561240a57600080fd5b506123b485828601611fd1565b60006020828403121561242957600080fd5b81356001600160401b0381111561243f57600080fd5b61050184828501611ed2565b60006020828403121561245d57600080fd5b610e1282611f3d565b6001600160e01b031991909116815260200190565b8385823760609290921b6001600160601b031916919092019081526014810191909152603401919050565b600082516124b8818460208701612157565b9190910192915050565b634e487b7160e01b600052603260045260246000fd5b6000808335601e198436030181126124ef57600080fd5b8301803591506001600160401b0382111561250957600080fd5b60200191503681900382131561251e57600080fd5b9250929050565b8183823760009101908152919050565b805160208201516001600160601b031980821692919060148310156125645780818460140360031b1b83161693505b505050919050565b60408152600061257f604083018561217b565b8281036020840152611ae3818561217b565b81835281816020850137506000828201602090810191909152601f909101601f19169091010190565b6040815260006125ce604083018587612591565b8281036020840152611822818561217b565b600181811c908216806125f457607f821691505b602082108103610ca657634e487b7160e01b600052602260045260246000fd5b8381526040602082015260006104fe604083018486612591565b60008451612640818460208901612157565b60609490941b6001600160601b03191691909301908152601481019190915260340192915050565b60006020828403121561267a57600080fd5b81516001600160401b0381111561269057600080fd5b8201601f810184136126a157600080fd5b80516126af611ef382611f59565b8181528560208385010111156126c457600080fd5b611ae3826020830160208601612157565b80516020808301519190811015610ca65760001960209190910360031b1b16919050565b634e487b7160e01b600052601160045260246000fd5b80820180821115610456576104566126f9565b828152604060208201526000610501604083018461217b565b601f821115610a5e57600081815260208120601f850160051c810160208610156127625750805b601f850160051c820191505b818110156127815782815560010161276e565b505050505050565b81516001600160401b038111156127a2576127a2611e69565b6127b6816127b084546125e0565b8461273b565b602080601f8311600181146127eb57600084156127d35750858301515b600019600386901b1c1916600185901b178555612781565b600085815260208120601f198616915b8281101561281a578886015182559484019460019091019084016127fb565b50858210156128385787850151600019600388901b60f8161c191681555b5050505050600190811b01905550565b805160208201516001600160e01b031980821692919060048310156125645760049290920360031b82901b161692915050565b60609190911b6001600160601b031916815260140190565b81810381811115610456576104566126f956fe7e71433ddf847725166244795048ecf3e3f9f35628254ecbf736056664233493a2646970667358221220e5232b9a49607cbb90677e656b73d78d1457d3907183bf7da2615c3a7070d01c64736f6c63430008130033",
  "linkReferences": {},
  "deployedLinkReferences": {}
}