{
  "_format": "hh-sol-artifact-1",
  "contractName": "GenesisPerk",
  "sourceName": "contracts/GenesisPerk.sol",
  "abi": [
    {
      "inputs": [
        {
          "internalType": "string",
          "name": "name_",
          "type": "string"
        },
        {
          "internalType": "string",
          "name": "symbol_",
          "type": "string"
        },
        {
          "internalType": "address",
          "name": "newOwner_",
          "type": "address"
        },
        {
          "internalType": "address",
          "name": "minter_",
          "type": "address"
        }
      ],
      "stateMutability": "nonpayable",
      "type": "constructor"
    },
    {
      "inputs": [],
      "name": "ERC725Y_DataKeysValuesEmptyArray",
      "type": "error"
    },
    {
      "inputs": [],
      "name": "ERC725Y_DataKeysValuesLengthMismatch",
      "type": "error"
    },
    {
      "inputs": [],
      "name": "ERC725Y_MsgValueDisallowed",
      "type": "error"
    },
    {
      "inputs": [
        {
          "internalType": "bytes",
          "name": "storedData",
          "type": "bytes"
        }
      ],
      "name": "InvalidExtensionAddress",
      "type": "error"
    },
    {
      "inputs": [
        {
          "internalType": "bytes",
          "name": "data",
          "type": "bytes"
        }
      ],
      "name": "InvalidFunctionSelector",
      "type": "error"
    },
    {
      "inputs": [],
      "name": "LSP4TokenNameNotEditable",
      "type": "error"
    },
    {
      "inputs": [],
      "name": "LSP4TokenSymbolNotEditable",
      "type": "error"
    },
    {
      "inputs": [],
      "name": "LSP4TokenTypeNotEditable",
      "type": "error"
    },
    {
      "inputs": [
        {
          "internalType": "uint256",
          "name": "callIndex",
          "type": "uint256"
        }
      ],
      "name": "LSP8BatchCallFailed",
      "type": "error"
    },
    {
      "inputs": [],
      "name": "LSP8CannotSendToAddressZero",
      "type": "error"
    },
    {
      "inputs": [],
      "name": "LSP8CannotUseAddressZeroAsOperator",
      "type": "error"
    },
    {
      "inputs": [],
      "name": "LSP8InvalidTransferBatch",
      "type": "error"
    },
    {
      "inputs": [
        {
          "internalType": "bytes32",
          "name": "tokenId",
          "type": "bytes32"
        }
      ],
      "name": "LSP8NonExistentTokenId",
      "type": "error"
    },
    {
      "inputs": [
        {
          "internalType": "address",
          "name": "operator",
          "type": "address"
        },
        {
          "internalType": "bytes32",
          "name": "tokenId",
          "type": "bytes32"
        }
      ],
      "name": "LSP8NonExistingOperator",
      "type": "error"
    },
    {
      "inputs": [
        {
          "internalType": "bytes32",
          "name": "tokenId",
          "type": "bytes32"
        },
        {
          "internalType": "address",
          "name": "caller",
          "type": "address"
        }
      ],
      "name": "LSP8NotTokenOperator",
      "type": "error"
    },
    {
      "inputs": [
        {
          "internalType": "address",
          "name": "tokenOwner",
          "type": "address"
        },
        {
          "internalType": "bytes32",
          "name": "tokenId",
          "type": "bytes32"
        },
        {
          "internalType": "address",
          "name": "caller",
          "type": "address"
        }
      ],
      "name": "LSP8NotTokenOwner",
      "type": "error"
    },
    {
      "inputs": [
        {
          "internalType": "address",
          "name": "tokenReceiver",
          "type": "address"
        }
      ],
      "name": "LSP8NotifyTokenReceiverContractMissingLSP1Interface",
      "type": "error"
    },
    {
      "inputs": [
        {
          "internalType": "address",
          "name": "tokenReceiver",
          "type": "address"
        }
      ],
      "name": "LSP8NotifyTokenReceiverIsEOA",
      "type": "error"
    },
    {
      "inputs": [
        {
          "internalType": "address",
          "name": "operator",
          "type": "address"
        },
        {
          "internalType": "bytes32",
          "name": "tokenId",
          "type": "bytes32"
        }
      ],
      "name": "LSP8OperatorAlreadyAuthorized",
      "type": "error"
    },
    {
      "inputs": [
        {
          "internalType": "address",
          "name": "caller",
          "type": "address"
        },
        {
          "internalType": "address",
          "name": "tokenOwner",
          "type": "address"
        },
        {
          "internalType": "bytes32",
          "name": "tokenId",
          "type": "bytes32"
        }
      ],
      "name": "LSP8RevokeOperatorNotAuthorized",
      "type": "error"
    },
    {
      "inputs": [],
      "name": "LSP8TokenContractCannotHoldValue",
      "type": "error"
    },
    {
      "inputs": [
        {
          "internalType": "bytes32",
          "name": "tokenId",
          "type": "bytes32"
        }
      ],
      "name": "LSP8TokenIdAlreadyMinted",
      "type": "error"
    },
    {
      "inputs": [],
      "name": "LSP8TokenIdFormatNotEditable",
      "type": "error"
    },
    {
      "inputs": [],
      "name": "LSP8TokenIdsDataEmptyArray",
      "type": "error"
    },
    {
      "inputs": [],
      "name": "LSP8TokenIdsDataLengthMismatch",
      "type": "error"
    },
    {
      "inputs": [],
      "name": "LSP8TokenOwnerCannotBeOperator",
      "type": "error"
    },
    {
      "inputs": [
        {
          "internalType": "bytes32",
          "name": "tokenId",
          "type": "bytes32"
        },
        {
          "internalType": "address",
          "name": "oldOwner",
          "type": "address"
        },
        {
          "internalType": "address",
          "name": "newOwner",
          "type": "address"
        }
      ],
      "name": "LSP8TokenOwnerChanged",
      "type": "error"
    },
    {
      "inputs": [
        {
          "internalType": "bytes4",
          "name": "functionSelector",
          "type": "bytes4"
        }
      ],
      "name": "NoExtensionFoundForFunctionSelector",
      "type": "error"
    },
    {
      "anonymous": false,
      "inputs": [
        {
          "indexed": true,
          "internalType": "bytes32",
          "name": "dataKey",
          "type": "bytes32"
        },
        {
          "indexed": false,
          "internalType": "bytes",
          "name": "dataValue",
          "type": "bytes"
        }
      ],
      "name": "DataChanged",
      "type": "event"
    },
    {
      "anonymous": false,
      "inputs": [
        {
          "indexed": false,
          "internalType": "bytes",
          "name": "newTokenUri",
          "type": "bytes"
        }
      ],
      "name": "DefaultTokenDataChanged",
      "type": "event"
    },
    {
      "anonymous": false,
      "inputs": [
        {
          "indexed": true,
          "internalType": "address",
          "name": "operator",
          "type": "address"
        },
        {
          "indexed": true,
          "internalType": "address",
          "name": "tokenOwner",
          "type": "address"
        },
        {
          "indexed": true,
          "internalType": "bytes32",
          "name": "tokenId",
          "type": "bytes32"
        },
        {
          "indexed": false,
          "internalType": "bytes",
          "name": "operatorNotificationData",
          "type": "bytes"
        }
      ],
      "name": "OperatorAuthorizationChanged",
      "type": "event"
    },
    {
      "anonymous": false,
      "inputs": [
        {
          "indexed": true,
          "internalType": "address",
          "name": "operator",
          "type": "address"
        },
        {
          "indexed": true,
          "internalType": "address",
          "name": "tokenOwner",
          "type": "address"
        },
        {
          "indexed": true,
          "internalType": "bytes32",
          "name": "tokenId",
          "type": "bytes32"
        },
        {
          "indexed": false,
          "internalType": "bool",
          "name": "notified",
          "type": "bool"
        },
        {
          "indexed": false,
          "internalType": "bytes",
          "name": "operatorNotificationData",
          "type": "bytes"
        }
      ],
      "name": "OperatorRevoked",
      "type": "event"
    },
    {
      "anonymous": false,
      "inputs": [
        {
          "indexed": true,
          "internalType": "address",
          "name": "previousOwner",
          "type": "address"
        },
        {
          "indexed": true,
          "internalType": "address",
          "name": "newOwner",
          "type": "address"
        }
      ],
      "name": "OwnershipTransferred",
      "type": "event"
    },
    {
      "anonymous": false,
      "inputs": [
        {
          "indexed": false,
          "internalType": "address",
          "name": "",
          "type": "address"
        },
        {
          "indexed": false,
          "internalType": "uint256",
          "name": "",
          "type": "uint256"
        }
      ],
      "name": "Received",
      "type": "event"
    },
    {
      "anonymous": false,
      "inputs": [
        {
          "indexed": true,
          "internalType": "bytes32",
          "name": "tokenId",
          "type": "bytes32"
        },
        {
          "indexed": true,
          "internalType": "bytes32",
          "name": "dataKey",
          "type": "bytes32"
        },
        {
          "indexed": false,
          "internalType": "bytes",
          "name": "dataValue",
          "type": "bytes"
        }
      ],
      "name": "TokenIdDataChanged",
      "type": "event"
    },
    {
      "anonymous": false,
      "inputs": [
        {
          "indexed": false,
          "internalType": "address",
          "name": "operator",
          "type": "address"
        },
        {
          "indexed": true,
          "internalType": "address",
          "name": "from",
          "type": "address"
        },
        {
          "indexed": true,
          "internalType": "address",
          "name": "to",
          "type": "address"
        },
        {
          "indexed": true,
          "internalType": "bytes32",
          "name": "tokenId",
          "type": "bytes32"
        },
        {
          "indexed": false,
          "internalType": "bool",
          "name": "force",
          "type": "bool"
        },
        {
          "indexed": false,
          "internalType": "bytes",
          "name": "data",
          "type": "bytes"
        }
      ],
      "name": "Transfer",
      "type": "event"
    },
    {
      "stateMutability": "payable",
      "type": "fallback"
    },
    {
      "inputs": [
        {
          "internalType": "address",
          "name": "operator",
          "type": "address"
        },
        {
          "internalType": "bytes32",
          "name": "tokenId",
          "type": "bytes32"
        },
        {
          "internalType": "bytes",
          "name": "operatorNotificationData",
          "type": "bytes"
        }
      ],
      "name": "authorizeOperator",
      "outputs": [],
      "stateMutability": "nonpayable",
      "type": "function"
    },
    {
      "inputs": [
        {
          "internalType": "address",
          "name": "tokenOwner",
          "type": "address"
        }
      ],
      "name": "balanceOf",
      "outputs": [
        {
          "internalType": "uint256",
          "name": "",
          "type": "uint256"
        }
      ],
      "stateMutability": "view",
      "type": "function"
    },
    {
      "inputs": [
        {
          "internalType": "bytes[]",
          "name": "data",
          "type": "bytes[]"
        }
      ],
      "name": "batchCalls",
      "outputs": [
        {
          "internalType": "bytes[]",
          "name": "results",
          "type": "bytes[]"
        }
      ],
      "stateMutability": "nonpayable",
      "type": "function"
    },
    {
      "inputs": [],
      "name": "defaultTokenUri",
      "outputs": [
        {
          "internalType": "bytes",
          "name": "",
          "type": "bytes"
        }
      ],
      "stateMutability": "view",
      "type": "function"
    },
    {
      "inputs": [
        {
          "internalType": "bytes32",
          "name": "dataKey",
          "type": "bytes32"
        }
      ],
      "name": "getData",
      "outputs": [
        {
          "internalType": "bytes",
          "name": "dataValue",
          "type": "bytes"
        }
      ],
      "stateMutability": "view",
      "type": "function"
    },
    {
      "inputs": [
        {
          "internalType": "bytes32[]",
          "name": "dataKeys",
          "type": "bytes32[]"
        }
      ],
      "name": "getDataBatch",
      "outputs": [
        {
          "internalType": "bytes[]",
          "name": "dataValues",
          "type": "bytes[]"
        }
      ],
      "stateMutability": "view",
      "type": "function"
    },
    {
      "inputs": [
        {
          "internalType": "bytes32[]",
          "name": "tokenIds",
          "type": "bytes32[]"
        },
        {
          "internalType": "bytes32[]",
          "name": "dataKeys",
          "type": "bytes32[]"
        }
      ],
      "name": "getDataBatchForTokenIds",
      "outputs": [
        {
          "internalType": "bytes[]",
          "name": "dataValues",
          "type": "bytes[]"
        }
      ],
      "stateMutability": "view",
      "type": "function"
    },
    {
      "inputs": [
        {
          "internalType": "bytes32",
          "name": "tokenId",
          "type": "bytes32"
        },
        {
          "internalType": "bytes32",
          "name": "dataKey",
          "type": "bytes32"
        }
      ],
      "name": "getDataForTokenId",
      "outputs": [
        {
          "internalType": "bytes",
          "name": "dataValue",
          "type": "bytes"
        }
      ],
      "stateMutability": "view",
      "type": "function"
    },
    {
      "inputs": [
        {
          "internalType": "bytes32",
          "name": "tokenId",
          "type": "bytes32"
        }
      ],
      "name": "getOperatorsOf",
      "outputs": [
        {
          "internalType": "address[]",
          "name": "",
          "type": "address[]"
        }
      ],
      "stateMutability": "view",
      "type": "function"
    },
    {
      "inputs": [
        {
          "internalType": "address",
          "name": "operator",
          "type": "address"
        },
        {
          "internalType": "bytes32",
          "name": "tokenId",
          "type": "bytes32"
        }
      ],
      "name": "isOperatorFor",
      "outputs": [
        {
          "internalType": "bool",
          "name": "",
          "type": "bool"
        }
      ],
      "stateMutability": "view",
      "type": "function"
    },
    {
      "inputs": [
        {
          "internalType": "address",
          "name": "receiver",
          "type": "address"
        },
        {
          "internalType": "uint256",
          "name": "amount",
          "type": "uint256"
        }
      ],
      "name": "mint",
      "outputs": [],
      "stateMutability": "nonpayable",
      "type": "function"
    },
    {
      "inputs": [],
      "name": "owner",
      "outputs": [
        {
          "internalType": "address",
          "name": "",
          "type": "address"
        }
      ],
      "stateMutability": "view",
      "type": "function"
    },
    {
      "inputs": [],
      "name": "renounceOwnership",
      "outputs": [],
      "stateMutability": "nonpayable",
      "type": "function"
    },
    {
      "inputs": [
        {
          "internalType": "address",
          "name": "operator",
          "type": "address"
        },
        {
          "internalType": "bytes32",
          "name": "tokenId",
          "type": "bytes32"
        },
        {
          "internalType": "bool",
          "name": "notify",
          "type": "bool"
        },
        {
          "internalType": "bytes",
          "name": "operatorNotificationData",
          "type": "bytes"
        }
      ],
      "name": "revokeOperator",
      "outputs": [],
      "stateMutability": "nonpayable",
      "type": "function"
    },
    {
      "inputs": [
        {
          "internalType": "bytes32",
          "name": "dataKey",
          "type": "bytes32"
        },
        {
          "internalType": "bytes",
          "name": "dataValue",
          "type": "bytes"
        }
      ],
      "name": "setData",
      "outputs": [],
      "stateMutability": "payable",
      "type": "function"
    },
    {
      "inputs": [
        {
          "internalType": "bytes32[]",
          "name": "dataKeys",
          "type": "bytes32[]"
        },
        {
          "internalType": "bytes[]",
          "name": "dataValues",
          "type": "bytes[]"
        }
      ],
      "name": "setDataBatch",
      "outputs": [],
      "stateMutability": "payable",
      "type": "function"
    },
    {
      "inputs": [
        {
          "internalType": "bytes32[]",
          "name": "tokenIds",
          "type": "bytes32[]"
        },
        {
          "internalType": "bytes32[]",
          "name": "dataKeys",
          "type": "bytes32[]"
        },
        {
          "internalType": "bytes[]",
          "name": "dataValues",
          "type": "bytes[]"
        }
      ],
      "name": "setDataBatchForTokenIds",
      "outputs": [],
      "stateMutability": "nonpayable",
      "type": "function"
    },
    {
      "inputs": [
        {
          "internalType": "bytes32",
          "name": "tokenId",
          "type": "bytes32"
        },
        {
          "internalType": "bytes32",
          "name": "dataKey",
          "type": "bytes32"
        },
        {
          "internalType": "bytes",
          "name": "dataValue",
          "type": "bytes"
        }
      ],
      "name": "setDataForTokenId",
      "outputs": [],
      "stateMutability": "nonpayable",
      "type": "function"
    },
    {
      "inputs": [
        {
          "internalType": "bytes",
          "name": "newTokenUri",
          "type": "bytes"
        }
      ],
      "name": "setDefaultTokenUri",
      "outputs": [],
      "stateMutability": "nonpayable",
      "type": "function"
    },
    {
      "inputs": [
        {
          "internalType": "bytes4",
          "name": "interfaceId",
          "type": "bytes4"
        }
      ],
      "name": "supportsInterface",
      "outputs": [
        {
          "internalType": "bool",
          "name": "",
          "type": "bool"
        }
      ],
      "stateMutability": "view",
      "type": "function"
    },
    {
      "inputs": [
        {
          "internalType": "uint256",
          "name": "index",
          "type": "uint256"
        }
      ],
      "name": "tokenAt",
      "outputs": [
        {
          "internalType": "bytes32",
          "name": "",
          "type": "bytes32"
        }
      ],
      "stateMutability": "view",
      "type": "function"
    },
    {
      "inputs": [
        {
          "internalType": "address",
          "name": "tokenOwner",
          "type": "address"
        }
      ],
      "name": "tokenIdsOf",
      "outputs": [
        {
          "internalType": "bytes32[]",
          "name": "",
          "type": "bytes32[]"
        }
      ],
      "stateMutability": "view",
      "type": "function"
    },
    {
      "inputs": [
        {
          "internalType": "bytes32",
          "name": "tokenId",
          "type": "bytes32"
        }
      ],
      "name": "tokenOwnerOf",
      "outputs": [
        {
          "internalType": "address",
          "name": "",
          "type": "address"
        }
      ],
      "stateMutability": "view",
      "type": "function"
    },
    {
      "inputs": [],
      "name": "totalSupply",
      "outputs": [
        {
          "internalType": "uint256",
          "name": "",
          "type": "uint256"
        }
      ],
      "stateMutability": "view",
      "type": "function"
    },
    {
      "inputs": [
        {
          "internalType": "address",
          "name": "from",
          "type": "address"
        },
        {
          "internalType": "address",
          "name": "to",
          "type": "address"
        },
        {
          "internalType": "bytes32",
          "name": "tokenId",
          "type": "bytes32"
        },
        {
          "internalType": "bool",
          "name": "force",
          "type": "bool"
        },
        {
          "internalType": "bytes",
          "name": "data",
          "type": "bytes"
        }
      ],
      "name": "transfer",
      "outputs": [],
      "stateMutability": "nonpayable",
      "type": "function"
    },
    {
      "inputs": [
        {
          "internalType": "address[]",
          "name": "from",
          "type": "address[]"
        },
        {
          "internalType": "address[]",
          "name": "to",
          "type": "address[]"
        },
        {
          "internalType": "bytes32[]",
          "name": "tokenId",
          "type": "bytes32[]"
        },
        {
          "internalType": "bool[]",
          "name": "force",
          "type": "bool[]"
        },
        {
          "internalType": "bytes[]",
          "name": "data",
          "type": "bytes[]"
        }
      ],
      "name": "transferBatch",
      "outputs": [],
      "stateMutability": "nonpayable",
      "type": "function"
    },
    {
      "inputs": [
        {
          "internalType": "address",
          "name": "newOwner",
          "type": "address"
        }
      ],
      "name": "transferOwnership",
      "outputs": [],
      "stateMutability": "nonpayable",
      "type": "function"
    },
    {
      "stateMutability": "payable",
      "type": "receive"
    }
  ],
  "bytecode": "0x60806040523480156200001157600080fd5b50604051620037be380380620037be833981016040819052620000349162000499565b8383836001600084848484816001600160a01b038116620000aa5760405162461bcd60e51b815260206004820152602660248201527f4f776e61626c653a206e6577206f776e657220697320746865207a65726f206160448201526564647265737360d01b606482015260840160405180910390fd5b620000b5816200021c565b506040805180820190915260048152632936598960e21b6020820152620000fe907feafec4d89fa9619884b60000a4d96624a38f7ac2d8d9a604ecf07c12c77e480c9062000283565b6200012a7fdeba1e292f8ba88238e10ab3c7f88bd4be4fac56cad5194b6ecceaf653468af18562000283565b620001567f2f0a68ab07768e01943a599e73362a0e17a63a72e94dd2e384d2c1d4db9327568462000283565b60408051602081018390526200019f917fe0261fa95db2eb3b5439bd033cda66d56b96f92f243a8228fd87550ed7bdfdb3910160408051601f1981840301815291905262000283565b50506040805160208101859052620001ec93507ff675e9361af1c1664c1868cfa3eb97672d6b1a513aa5b81dec34c9ee330e818d92500160408051601f19818403018152919052620002dc565b5050600980546001600160a01b0319166001600160a01b03959095169490941790935550620006b8945050505050565b6000546001600160a01b038281169116146200028057600080546001600160a01b038381166001600160a01b0319831681178455604051919092169283917f8be0079c531659141344cd1fd0a4f28419497f9722a3daafe3b4186f6b6457e09190a3505b50565b60008281526001602052604090206200029d8282620005b7565b50817fece574603820d07bc9b91f2a932baadf4628aabcb8afba49776529c14a6104b282604051620002d0919062000683565b60405180910390a25050565b620002e88282620002ec565b5050565b7f2145e1d6d074577dc71ef54c3807742b41b053a9352ae6b491331509acb9750f82016200032d576040516385c169bd60e01b815260040160405180910390fd5b7fd0f59754f88971fe6bc5a6618cc9d5f1e859c58d16b22d1c7b2d3e2b246cd8aa82016200036e57604051630eceab6760e31b815260040160405180910390fd5b7f1fd9e056a24d14c4abc642fcc325992a946906d0dbc57dd70278aaf12842024d82016200028357604051634ef6d7fb60e01b815260040160405180910390fd5b634e487b7160e01b600052604160045260246000fd5b60005b83811015620003e2578181015183820152602001620003c8565b50506000910152565b600082601f830112620003fd57600080fd5b81516001600160401b03808211156200041a576200041a620003af565b604051601f8301601f19908116603f01168101908282118183101715620004455762000445620003af565b816040528381528660208588010111156200045f57600080fd5b62000472846020830160208901620003c5565b9695505050505050565b80516001600160a01b03811681146200049457600080fd5b919050565b60008060008060808587031215620004b057600080fd5b84516001600160401b0380821115620004c857600080fd5b620004d688838901620003eb565b95506020870151915080821115620004ed57600080fd5b50620004fc87828801620003eb565b9350506200050d604086016200047c565b91506200051d606086016200047c565b905092959194509250565b600181811c908216806200053d57607f821691505b6020821081036200055e57634e487b7160e01b600052602260045260246000fd5b50919050565b601f821115620005b257600081815260208120601f850160051c810160208610156200058d5750805b601f850160051c820191505b81811015620005ae5782815560010162000599565b5050505b505050565b81516001600160401b03811115620005d357620005d3620003af565b620005eb81620005e4845462000528565b8462000564565b602080601f8311600181146200062357600084156200060a5750858301515b600019600386901b1c1916600185901b178555620005ae565b600085815260208120601f198616915b82811015620006545788860151825594840194600190910190840162000633565b5085821015620006735787850151600019600388901b60f8161c191681555b5050505050600190811b01905550565b6020815260008251806020840152620006a4816040850160208701620003c5565b601f01601f19169190910160400192915050565b6130f680620006c86000396000f3fe6080604052600436106101705760003560e01c8063715018a6116100cc578063a3b261f21161007a578063a3b261f2146104bc578063be9f0e6f146104e9578063d6c1407c14610509578063db8c966314610529578063dd5ffa1e14610549578063dedff9c61461055e578063f2fde38b1461057e576101cb565b8063715018a6146103f65780637e87632c1461040b5780637f23690c1461042b57806386a10ddd1461043e5780638da5cb5b1461045e57806392a91a3a1461047c57806397902421146104a9576101cb565b806337e3f8dc1161012957806337e3f8dc1461030757806340c10f191461032957806349a6078d14610349578063511b69521461037657806354f6127f146103965780636963d438146103b657806370a08231146103d6576101cb565b806301ffc9a71461020c57806316e023b31461024157806318160ddd1461026e5780631d26fce61461028d578063217b2270146102ba5780632a3654a4146102e7576101cb565b366101cb57346000036101b25760405163e5099ee360e01b81526004016101a99060208082526004908201526000604082015260600190565b60405180910390fd5b6040516330fa4a2160e11b815260040160405180910390fd5b600036606060048210156101f657828260405163e5099ee360e01b81526004016101a992919061221d565b610200838361059e565b80519350602001915050f35b34801561021857600080fd5b5061022c61022736600461224c565b610694565b60405190151581526020015b60405180910390f35b34801561024d57600080fd5b5061026161025c366004612276565b6106c8565b60405161023891906122e8565b34801561027a57600080fd5b506002545b604051908152602001610238565b34801561029957600080fd5b506102ad6102a83660046123cf565b6106db565b6040516102389190612432565b3480156102c657600080fd5b506102da6102d5366004612494565b6107c2565b60405161023891906124ad565b3480156102f357600080fd5b5061022c6103023660046124dd565b6107fb565b34801561031357600080fd5b50610327610322366004612507565b610807565b005b34801561033557600080fd5b506103276103443660046124dd565b61085a565b34801561035557600080fd5b50610369610364366004612494565b610913565b6040516102389190612578565b34801561038257600080fd5b5061032761039136600461264d565b610935565b3480156103a257600080fd5b506102616103b1366004612494565b610979565b3480156103c257600080fd5b506102ad6103d13660046126c5565b610984565b3480156103e257600080fd5b5061027f6103f1366004612727565b610ab3565b34801561040257600080fd5b50610327610ad4565b34801561041757600080fd5b50610327610426366004612885565b610ae8565b610327610439366004612949565b610bd7565b34801561044a57600080fd5b50610327610459366004612985565b610c0c565b34801561046a57600080fd5b506000546001600160a01b03166102da565b34801561048857600080fd5b5061027f610497366004612494565b60009081526007602052604090205490565b6103276104b73660046129db565b610d74565b3480156104c857600080fd5b506104dc6104d7366004612727565b610e2f565b6040516102389190612a34565b3480156104f557600080fd5b50610327610504366004612a6c565b610e53565b34801561051557600080fd5b50610327610524366004612ae9565b610f1e565b34801561053557600080fd5b50610327610544366004612b22565b610f31565b34801561055557600080fd5b50610261611015565b34801561056a57600080fd5b506102ad610579366004612b89565b6110a3565b34801561058a57600080fd5b50610327610599366004612727565b61114d565b606060006105b76000356001600160e01b0319166111c6565b5090506001600160a01b0381166105ef576000356001600160e01b03191660405163bb370b2b60e01b81526004016101a99190612bbd565b600080826001600160a01b031634878733346040516020016106149493929190612bd2565b60408051601f198184030181529082905261062e91612bfd565b60006040518083038185875af1925050503d806000811461066b576040519150601f19603f3d011682016040523d82523d6000602084013e610670565b606091505b5091509150811561068557925061068e915050565b80518060208301fd5b92915050565b60006001600160e01b03198216631d138b8360e11b14806106b957506106b982611244565b8061068e575061068e82611269565b60606106d483836112a0565b9392505050565b606081518351146106ff576040516317d38eff60e11b815260040160405180910390fd5b82516001600160401b03811115610718576107186122fb565b60405190808252806020026020018201604052801561074b57816020015b60608152602001906001900390816107365790505b50905060005b83518110156107bb5761079684828151811061076f5761076f612c19565b602002602001015184838151811061078957610789612c19565b60200260200101516112a0565b8282815181106107a8576107a8612c19565b6020908102919091010152600101610751565b5092915050565b6000818152600360205260408120546001600160a01b03168061068e57604051635747cd1b60e11b8152600481018490526024016101a9565b60006106d483836113b5565b61080f6113f2565b600a61081c828483612cbe565b507ff85f74f3190acca77203c20a6d4934fd0908afeec893df8bc8c9ca6edfbf9be8828260405161084e92919061221d565b60405180910390a15050565b6000546001600160a01b031633148061087d57506009546001600160a01b031633145b6108bd5760405162461bcd60e51b815260206004820152601160248201527029b2b73232b9103737ba1036b4b73a32b960791b60448201526064016101a9565b60005b8181101561090e57600060025460016108d99190612d8d565b9050610905848260001b600060405180604001604052806002815260200161060f60f31b81525061145b565b506001016108c0565b505050565b606061091e826115ba565b600082815260056020526040902061068e906115e3565b61093f33846113b5565b61096557604051631294d2a960e01b8152600481018490523360248201526044016101a9565b61097285858585856115f0565b5050505050565b606061068e826117ca565b6060816001600160401b0381111561099e5761099e6122fb565b6040519080825280602002602001820160405280156109d157816020015b60608152602001906001900390816109bc5790505b50905060005b828110156107bb57600080308686858181106109f5576109f5612c19565b9050602002810190610a079190612da0565b604051610a15929190612ded565b600060405180830381855af49150503d8060008114610a50576040519150601f19603f3d011682016040523d82523d6000602084013e610a55565b606091505b509150915081610a8b57805115610a6f5780518082602001fd5b60405163234eb81960e01b8152600481018490526024016101a9565b80848481518110610a9e57610a9e612c19565b602090810291909101015250506001016109d7565b6001600160a01b038116600090815260046020526040812061068e9061186c565b610adc6113f2565b610ae66000611876565b565b8451845181141580610afb575083518114155b80610b07575082518114155b80610b13575081518114155b15610b31576040516393a8311960e01b815260040160405180910390fd5b60005b81811015610bce57610bc6878281518110610b5157610b51612c19565b6020026020010151878381518110610b6b57610b6b612c19565b6020026020010151878481518110610b8557610b85612c19565b6020026020010151878581518110610b9f57610b9f612c19565b6020026020010151878681518110610bb957610bb9612c19565b6020026020010151610935565b600101610b34565b50505050505050565b610bdf6113f2565b3415610bfe5760405163f36ba73760e01b815260040160405180910390fd5b610c0882826118db565b5050565b6000610c17836107c2565b90506001600160a01b0381163314610c4857808333604051632d938f5160e11b81526004016101a993929190612dfd565b6001600160a01b038416610c6f57604051639577b8b360e01b815260040160405180910390fd5b836001600160a01b0316816001600160a01b031603610ca1576040516344fed6b160e11b815260040160405180910390fd5b6000838152600560205260408120610cb99086611925565b905080610ceb576040516314ec4d6d60e31b81526001600160a01b0386166004820152602481018590526044016101a9565b83826001600160a01b0316866001600160a01b03167f1b1b58aa2ec0cec2228b2d37124556d41f5a1f7b12f089171f896cc23667121586604051610d2f91906122e8565b60405180910390a460003385600186604051602001610d519493929190612e20565b6040516020818303038152906040529050610d6c868261193a565b505050505050565b610d7c6113f2565b3415610d9b5760405163f36ba73760e01b815260040160405180910390fd5b8051825114610dbd57604051633bcc897960e01b815260040160405180910390fd5b8151600003610ddf576040516397da5f9560e01b815260040160405180910390fd5b60005b825181101561090e57610e27838281518110610e0057610e00612c19565b6020026020010151838381518110610e1a57610e1a612c19565b60200260200101516118db565b600101610de2565b6001600160a01b038116600090815260046020526040902060609061068e906115e3565b610e5b6113f2565b81518351141580610e6e57508051825114155b15610e8c576040516317d38eff60e11b815260040160405180910390fd5b8251600003610eae576040516380c9830560e01b815260040160405180910390fd5b60005b8351811015610f1857610f10848281518110610ecf57610ecf612c19565b6020026020010151848381518110610ee957610ee9612c19565b6020026020010151848481518110610f0357610f03612c19565b6020026020010151611965565b600101610eb1565b50505050565b610f266113f2565b61090e838383611965565b6000610f3c846107c2565b9050336001600160a01b03821614610f8f576001600160a01b0385163314610f8f5760405163760b5acd60e01b81523360048201526001600160a01b0382166024820152604481018590526064016101a9565b6001600160a01b038516610fb657604051639577b8b360e01b815260040160405180910390fd5b846001600160a01b0316816001600160a01b031603610fe8576040516344fed6b160e11b815260040160405180910390fd5b610ff585828686866119c7565b82156109725760008185600085604051602001610d519493929190612e20565b600a805461102290612c2f565b80601f016020809104026020016040519081016040528092919081815260200182805461104e90612c2f565b801561109b5780601f106110705761010080835404028352916020019161109b565b820191906000526020600020905b81548152906001019060200180831161107e57829003601f168201915b505050505081565b606081516001600160401b038111156110be576110be6122fb565b6040519080825280602002602001820160405280156110f157816020015b60608152602001906001900390816110dc5790505b50905060005b82518110156111475761112283828151811061111557611115612c19565b60200260200101516117ca565b82828151811061113457611134612c19565b60209081029190910101526001016110f7565b50919050565b6111556113f2565b6001600160a01b0381166111ba5760405162461bcd60e51b815260206004820152602660248201527f4f776e61626c653a206e6577206f776e657220697320746865207a65726f206160448201526564647265737360d01b60648201526084016101a9565b6111c381611876565b50565b600080806111eb696773c5a04a6d4300884b60b11b6001600160e01b03198616611a67565b905060006111f8826117ca565b9050805160141415801561120c5750805115155b1561122c57806040516342bfe79f60e01b81526004016101a991906122e8565b61123581612e59565b60601c95600195509350505050565b60006001600160e01b0319821663a918fa6b60e01b148061068e575061068e82611abb565b60008061127c6301ffc9a760e01b6111c6565b5090506001600160a01b0381166112965750600092915050565b6106d48184611af0565b606060006112ae8484611b84565b90507f9afb95cacc9f95858ec44aa8c3b685511002e30ae54415823f406128b85b238e831480156112de57508051155b156106d457600061130e7f1a7628600c3bac7101f53697f48df381ddc36b9015e7d7c9c5633d1252aa28436117ca565b905080516000036113ad57600a805461132690612c2f565b80601f016020809104026020016040519081016040528092919081815260200182805461135290612c2f565b801561139f5780601f106113745761010080835404028352916020019161139f565b820191906000526020600020905b81548152906001019060200180831161138257829003601f168201915b50505050509250505061068e565b509392505050565b60006113c0826107c2565b6001600160a01b0316836001600160a01b031614806106d4575060008281526005602052604090206106d49084611c32565b336114056000546001600160a01b031690565b6001600160a01b031614610ae65760405162461bcd60e51b815260206004820181905260248201527f4f776e61626c653a2063616c6c6572206973206e6f7420746865206f776e657260448201526064016101a9565b6001600160a01b038416611482576040516324ecef4d60e01b815260040160405180910390fd5b61148b83611c54565b156114ac576040516334c7b51160e01b8152600481018490526024016101a9565b6114b96000858584611c71565b6114c283611c54565b156114e3576040516334c7b51160e01b8152600481018490526024016101a9565b6002600081546114f290612e90565b909155506001600160a01b03841660009081526004602052604090206115189084611d38565b5060008381526003602052604080822080546001600160a01b0319166001600160a01b03881690811790915590518592907fb333c813a7426a7a11e2b190cad52c44119421594b47f6f32ace6d8c7207b2bf9061157a90339088908890612ea9565b60405180910390a4600033600086868560405160200161159e959493929190612ede565b6040516020818303038152906040529050610972858483611d44565b6115c381611c54565b6111c357604051635747cd1b60e11b8152600481018290526024016101a9565b606060006106d483611e3a565b60006115fb846107c2565b9050856001600160a01b0316816001600160a01b03161461163557808487604051632d938f5160e11b81526004016101a993929190612dfd565b6001600160a01b03851661165c576040516324ecef4d60e01b815260040160405180910390fd5b61166886868685611c71565b6000611673856107c2565b9050806001600160a01b0316826001600160a01b0316146116c157604051635a9c31d360e01b8152600481018690526001600160a01b038084166024830152821660448201526064016101a9565b6116cb8786611e95565b6001600160a01b03871660009081526004602052604090206116ed9086611eed565b506001600160a01b03861660009081526004602052604090206117109086611d38565b506000858152600360205260409081902080546001600160a01b0319166001600160a01b0389811691821790925591518792918a16907fb333c813a7426a7a11e2b190cad52c44119421594b47f6f32ace6d8c7207b2bf906117779033908a908a90612ea9565b60405180910390a46000338888888760405160200161179a959493929190612ede565b60405160208183030381529060405290506117b58882611ef9565b6117c0878683611d44565b5050505050505050565b60008181526001602052604090208054606091906117e790612c2f565b80601f016020809104026020016040519081016040528092919081815260200182805461181390612c2f565b80156118605780601f1061183557610100808354040283529160200191611860565b820191906000526020600020905b81548152906001019060200180831161184357829003601f168201915b50505050509050919050565b600061068e825490565b6000546001600160a01b038281169116146111c357600080546001600160a01b038381166001600160a01b0319831681178455604051919092169283917f8be0079c531659141344cd1fd0a4f28419497f9722a3daafe3b4186f6b6457e09190a35050565b7f098a16c9e50e3e99b3e797305c146898d294e5aec55a47e213cb3611ccf17e73820161191b57604051631b32400560e11b815260040160405180910390fd5b610c088282611f24565b60006106d4836001600160a01b038416611f2e565b610c08827f8a1c15a8799f71b547e08e2bcb2e85257e81b0a07eee2ce6712549eef1f0097083611f7d565b600083815260066020908152604080832085845290915290206119888282612f19565b5081837fa6e4251f855f750545fe414f120db91c76b88def14d120969e5bb2d3f05debbb836040516119ba91906122e8565b60405180910390a3505050565b60008381526005602052604081206119df9087611fca565b905080611a11576040516312a8c6a360e21b81526001600160a01b0387166004820152602481018590526044016101a9565b83856001600160a01b0316876001600160a01b03167fc78cd419d6136f9f1c1c6aec1d3fae098cffaf8bc86314a8f2685e32fe574e3c8686604051611a57929190612fd2565b60405180910390a4505050505050565b604080516001600160b01b0319841660208201526000602a82018190526001600160601b03198416602c83015291829101604051602081830303815290604052905080611ab390612fed565b949350505050565b60006001600160e01b031982166318a6a9a560e21b148061068e57506301ffc9a760e01b6001600160e01b031983161461068e565b6000806301ffc9a760e01b83604051602401611b0c9190612bbd565b604051602081830303815290604052906001600160e01b0319166020820180516001600160e01b03838183161783525050505090506000806000602060008551602087018a617530fa92503d91506000519050828015611b6d575060208210155b8015611b795750600081115b979650505050505050565b60008281526006602090815260408083208484529091529020805460609190611bac90612c2f565b80601f0160208091040260200160405190810160405280929190818152602001828054611bd890612c2f565b8015611c255780601f10611bfa57610100808354040283529160200191611c25565b820191906000526020600020905b815481529060010190602001808311611c0857829003601f168201915b5050505050905092915050565b6001600160a01b038116600090815260018301602052604081205415156106d4565b6000908152600360205260409020546001600160a01b0316151590565b6001600160a01b038416611cab576000611c8a60025490565b60008181526007602090815260408083208790558683526008909152902055505b6001600160a01b038316611d335760006001611cc660025490565b611cd09190613011565b60008481526008602052604090205490915081811015611d12576000828152600760209081526040808320548484528184208190558352600890915290208190555b50600090815260076020908152604080832083905584835260089091528120555b610f18565b60006106d48383611f2e565b611d5583631aed5a8560e21b611af0565b15611def57604051631aed5a8560e21b81526001600160a01b03841690636bb56a1490611da8907f0b084a55ebf70fd3c06fd755269dac2212c4d3f0f4d09079780bfa50c1b2984d908590600401613024565b6000604051808303816000875af1158015611dc7573d6000803e3d6000fd5b505050506040513d6000823e601f3d908101601f19168201604052610f18919081019061303d565b8161090e576001600160a01b0383163b15611e1f5782604051634349776d60e01b81526004016101a991906124ad565b82604051630317313760e01b81526004016101a991906124ad565b60608160000180548060200260200160405190810160405280929190818152602001828054801561186057602002820191906000526020600020905b815481526020019060010190808311611e765750505050509050919050565b600081815260056020526040812090611ead8261186c565b90506000805b82811015610d6c57611ec6846000611fdf565b9150611ee58287876000604051806020016040528060008152506119c7565b600101611eb3565b60006106d48383611feb565b610c08827fb23eae7e6d1564b295b4c3e3be402d9a2f0776c57bdf365903496f6fa481ab0083611f7d565b610c0882826120de565b6000818152600183016020526040812054611f755750815460018181018455600084815260208082209093018490558454848252828601909352604090209190915561068e565b50600061068e565b611f976001600160a01b038416631aed5a8560e21b611af0565b1561090e57604051631aed5a8560e21b81526001600160a01b03841690636bb56a1490611da89085908590600401613024565b60006106d4836001600160a01b038416611feb565b60006106d483836121f3565b600081815260018301602052604081205480156120d457600061200f600183613011565b855490915060009061202390600190613011565b905081811461208857600086600001828154811061204357612043612c19565b906000526020600020015490508087600001848154811061206657612066612c19565b6000918252602080832090910192909255918252600188019052604090208390555b8554869080612099576120996130aa565b60019003818190600052602060002001600090559055856001016000868152602001908152602001600020600090556001935050505061068e565b600091505061068e565b7f2145e1d6d074577dc71ef54c3807742b41b053a9352ae6b491331509acb9750f820161211e576040516385c169bd60e01b815260040160405180910390fd5b7fd0f59754f88971fe6bc5a6618cc9d5f1e859c58d16b22d1c7b2d3e2b246cd8aa820161215e57604051630eceab6760e31b815260040160405180910390fd5b7f1fd9e056a24d14c4abc642fcc325992a946906d0dbc57dd70278aaf12842024d820161219e57604051634ef6d7fb60e01b815260040160405180910390fd5b60008281526001602052604090206121b68282612f19565b50817fece574603820d07bc9b91f2a932baadf4628aabcb8afba49776529c14a6104b2826040516121e791906122e8565b60405180910390a25050565b600082600001828154811061220a5761220a612c19565b9060005260206000200154905092915050565b60208152816020820152818360408301376000818301604090810191909152601f909201601f19160101919050565b60006020828403121561225e57600080fd5b81356001600160e01b0319811681146106d457600080fd5b6000806040838503121561228957600080fd5b50508035926020909101359150565b60005b838110156122b357818101518382015260200161229b565b50506000910152565b600081518084526122d4816020860160208601612298565b601f01601f19169290920160200192915050565b6020815260006106d460208301846122bc565b634e487b7160e01b600052604160045260246000fd5b604051601f8201601f191681016001600160401b0381118282101715612339576123396122fb565b604052919050565b60006001600160401b0382111561235a5761235a6122fb565b5060051b60200190565b600082601f83011261237557600080fd5b8135602061238a61238583612341565b612311565b82815260059290921b840181019181810190868411156123a957600080fd5b8286015b848110156123c457803583529183019183016123ad565b509695505050505050565b600080604083850312156123e257600080fd5b82356001600160401b03808211156123f957600080fd5b61240586838701612364565b9350602085013591508082111561241b57600080fd5b5061242885828601612364565b9150509250929050565b6000602080830181845280855180835260408601915060408160051b870101925083870160005b8281101561248757603f198886030184526124758583516122bc565b94509285019290850190600101612459565b5092979650505050505050565b6000602082840312156124a657600080fd5b5035919050565b6001600160a01b0391909116815260200190565b80356001600160a01b03811681146124d857600080fd5b919050565b600080604083850312156124f057600080fd5b6124f9836124c1565b946020939093013593505050565b6000806020838503121561251a57600080fd5b82356001600160401b038082111561253157600080fd5b818501915085601f83011261254557600080fd5b81358181111561255457600080fd5b86602082850101111561256657600080fd5b60209290920196919550909350505050565b6020808252825182820181905260009190848201906040850190845b818110156125b95783516001600160a01b031683529284019291840191600101612594565b50909695505050505050565b803580151581146124d857600080fd5b60006001600160401b038211156125ee576125ee6122fb565b50601f01601f191660200190565b600082601f83011261260d57600080fd5b813561261b612385826125d5565b81815284602083860101111561263057600080fd5b816020850160208301376000918101602001919091529392505050565b600080600080600060a0868803121561266557600080fd5b61266e866124c1565b945061267c602087016124c1565b935060408601359250612691606087016125c5565b915060808601356001600160401b038111156126ac57600080fd5b6126b8888289016125fc565b9150509295509295909350565b600080602083850312156126d857600080fd5b82356001600160401b03808211156126ef57600080fd5b818501915085601f83011261270357600080fd5b81358181111561271257600080fd5b8660208260051b850101111561256657600080fd5b60006020828403121561273957600080fd5b6106d4826124c1565b600082601f83011261275357600080fd5b8135602061276361238583612341565b82815260059290921b8401810191818101908684111561278257600080fd5b8286015b848110156123c457612797816124c1565b8352918301918301612786565b600082601f8301126127b557600080fd5b813560206127c561238583612341565b82815260059290921b840181019181810190868411156127e457600080fd5b8286015b848110156123c4576127f9816125c5565b83529183019183016127e8565b600082601f83011261281757600080fd5b8135602061282761238583612341565b82815260059290921b8401810191818101908684111561284657600080fd5b8286015b848110156123c45780356001600160401b038111156128695760008081fd5b6128778986838b01016125fc565b84525091830191830161284a565b600080600080600060a0868803121561289d57600080fd5b85356001600160401b03808211156128b457600080fd5b6128c089838a01612742565b965060208801359150808211156128d657600080fd5b6128e289838a01612742565b955060408801359150808211156128f857600080fd5b61290489838a01612364565b9450606088013591508082111561291a57600080fd5b61292689838a016127a4565b9350608088013591508082111561293c57600080fd5b506126b888828901612806565b6000806040838503121561295c57600080fd5b8235915060208301356001600160401b0381111561297957600080fd5b612428858286016125fc565b60008060006060848603121561299a57600080fd5b6129a3846124c1565b92506020840135915060408401356001600160401b038111156129c557600080fd5b6129d1868287016125fc565b9150509250925092565b600080604083850312156129ee57600080fd5b82356001600160401b0380821115612a0557600080fd5b612a1186838701612364565b93506020850135915080821115612a2757600080fd5b5061242885828601612806565b6020808252825182820181905260009190848201906040850190845b818110156125b957835183529284019291840191600101612a50565b600080600060608486031215612a8157600080fd5b83356001600160401b0380821115612a9857600080fd5b612aa487838801612364565b94506020860135915080821115612aba57600080fd5b612ac687838801612364565b93506040860135915080821115612adc57600080fd5b506129d186828701612806565b600080600060608486031215612afe57600080fd5b833592506020840135915060408401356001600160401b038111156129c557600080fd5b60008060008060808587031215612b3857600080fd5b612b41856124c1565b935060208501359250612b56604086016125c5565b915060608501356001600160401b03811115612b7157600080fd5b612b7d878288016125fc565b91505092959194509250565b600060208284031215612b9b57600080fd5b81356001600160401b03811115612bb157600080fd5b611ab384828501612364565b6001600160e01b031991909116815260200190565b8385823760609290921b6001600160601b031916919092019081526014810191909152603401919050565b60008251612c0f818460208701612298565b9190910192915050565b634e487b7160e01b600052603260045260246000fd5b600181811c90821680612c4357607f821691505b60208210810361114757634e487b7160e01b600052602260045260246000fd5b601f82111561090e57600081815260208120601f850160051c81016020861015612c8a5750805b601f850160051c820191505b81811015610d6c57828155600101612c96565b600019600383901b1c191660019190911b1790565b6001600160401b03831115612cd557612cd56122fb565b612ce983612ce38354612c2f565b83612c63565b6000601f841160018114612d175760008515612d055750838201355b612d0f8682612ca9565b845550610972565b600083815260209020601f19861690835b82811015612d485786850135825560209485019460019092019101612d28565b5086821015612d655760001960f88860031b161c19848701351681555b505060018560011b0183555050505050565b634e487b7160e01b600052601160045260246000fd5b8082018082111561068e5761068e612d77565b6000808335601e19843603018112612db757600080fd5b8301803591506001600160401b03821115612dd157600080fd5b602001915036819003821315612de657600080fd5b9250929050565b8183823760009101908152919050565b6001600160a01b0393841681526020810192909252909116604082015260600190565b60018060a01b03851681528360208201528215156040820152608060608201526000612e4f60808301846122bc565b9695505050505050565b805160208201516001600160601b03198082169291906014831015612e885780818460140360031b1b83161693505b505050919050565b600060018201612ea257612ea2612d77565b5060010190565b6001600160a01b03841681528215156020820152606060408201819052600090612ed5908301846122bc565b95945050505050565b6001600160a01b0386811682528581166020830152841660408201526060810183905260a060808201819052600090611b79908301846122bc565b81516001600160401b03811115612f3257612f326122fb565b612f4681612f408454612c2f565b84612c63565b602080601f831160018114612f755760008415612f635750858301515b612f6d8582612ca9565b865550610d6c565b600085815260208120601f198616915b82811015612fa457888601518255948401946001909101908401612f85565b5085821015612fc25787850151600019600388901b60f8161c191681555b5050505050600190811b01905550565b8215158152604060208201526000611ab360408301846122bc565b805160208083015191908110156111475760001960209190910360031b1b16919050565b8181038181111561068e5761068e612d77565b828152604060208201526000611ab360408301846122bc565b60006020828403121561304f57600080fd5b81516001600160401b0381111561306557600080fd5b8201601f8101841361307657600080fd5b8051613084612385826125d5565b81815285602083850101111561309957600080fd5b612ed5826020830160208601612298565b634e487b7160e01b600052603160045260246000fdfea2646970667358221220d55e9e5ed0bf1abf09ec56877bc1c05cf1f93cb2bf7b1c946ca75e9d40c9ae1f64736f6c63430008140033",
  "linkReferences": {},
  "deployedLinkReferences": {}
}