{
  "_format": "hh-sol-artifact-1",
  "contractName": "IdentifiablePhygitalAsset",
  "sourceName": "contracts/IdentifiablePhygitalAsset.sol",
  "abi": [
    {
      "inputs": [
        {
          "internalType": "string",
          "name": "name_",
          "type": "string"
        },
        {
          "internalType": "string",
          "name": "symbol_",
          "type": "string"
        },
        {
          "internalType": "address",
          "name": "newOwner_",
          "type": "address"
        },
        {
          "internalType": "uint256",
          "name": "maxLimit",
          "type": "uint256"
        },
        {
          "internalType": "address",
          "name": "placeholderCollection",
          "type": "address"
        }
      ],
      "stateMutability": "nonpayable",
      "type": "constructor"
    },
    {
      "inputs": [],
      "name": "AssetAlreadyRegistered",
      "type": "error"
    },
    {
      "inputs": [],
      "name": "AssetIdCannotBeZero",
      "type": "error"
    },
    {
      "inputs": [],
      "name": "ERC725Y_DataKeysValuesEmptyArray",
      "type": "error"
    },
    {
      "inputs": [],
      "name": "ERC725Y_DataKeysValuesLengthMismatch",
      "type": "error"
    },
    {
      "inputs": [],
      "name": "ERC725Y_MsgValueDisallowed",
      "type": "error"
    },
    {
      "inputs": [
        {
          "internalType": "bytes",
          "name": "storedData",
          "type": "bytes"
        }
      ],
      "name": "InvalidExtensionAddress",
      "type": "error"
    },
    {
      "inputs": [
        {
          "internalType": "bytes",
          "name": "data",
          "type": "bytes"
        }
      ],
      "name": "InvalidFunctionSelector",
      "type": "error"
    },
    {
      "inputs": [],
      "name": "LSP4TokenNameNotEditable",
      "type": "error"
    },
    {
      "inputs": [],
      "name": "LSP4TokenSymbolNotEditable",
      "type": "error"
    },
    {
      "inputs": [],
      "name": "LSP4TokenTypeNotEditable",
      "type": "error"
    },
    {
      "inputs": [
        {
          "internalType": "uint256",
          "name": "callIndex",
          "type": "uint256"
        }
      ],
      "name": "LSP8BatchCallFailed",
      "type": "error"
    },
    {
      "inputs": [],
      "name": "LSP8CannotSendToAddressZero",
      "type": "error"
    },
    {
      "inputs": [],
      "name": "LSP8CannotUseAddressZeroAsOperator",
      "type": "error"
    },
    {
      "inputs": [],
      "name": "LSP8CappedSupplyCannotMintOverCap",
      "type": "error"
    },
    {
      "inputs": [],
      "name": "LSP8CappedSupplyRequired",
      "type": "error"
    },
    {
      "inputs": [],
      "name": "LSP8InvalidTransferBatch",
      "type": "error"
    },
    {
      "inputs": [
        {
          "internalType": "bytes32",
          "name": "tokenId",
          "type": "bytes32"
        }
      ],
      "name": "LSP8NonExistentTokenId",
      "type": "error"
    },
    {
      "inputs": [
        {
          "internalType": "address",
          "name": "operator",
          "type": "address"
        },
        {
          "internalType": "bytes32",
          "name": "tokenId",
          "type": "bytes32"
        }
      ],
      "name": "LSP8NonExistingOperator",
      "type": "error"
    },
    {
      "inputs": [
        {
          "internalType": "bytes32",
          "name": "tokenId",
          "type": "bytes32"
        },
        {
          "internalType": "address",
          "name": "caller",
          "type": "address"
        }
      ],
      "name": "LSP8NotTokenOperator",
      "type": "error"
    },
    {
      "inputs": [
        {
          "internalType": "address",
          "name": "tokenOwner",
          "type": "address"
        },
        {
          "internalType": "bytes32",
          "name": "tokenId",
          "type": "bytes32"
        },
        {
          "internalType": "address",
          "name": "caller",
          "type": "address"
        }
      ],
      "name": "LSP8NotTokenOwner",
      "type": "error"
    },
    {
      "inputs": [
        {
          "internalType": "address",
          "name": "tokenReceiver",
          "type": "address"
        }
      ],
      "name": "LSP8NotifyTokenReceiverContractMissingLSP1Interface",
      "type": "error"
    },
    {
      "inputs": [
        {
          "internalType": "address",
          "name": "tokenReceiver",
          "type": "address"
        }
      ],
      "name": "LSP8NotifyTokenReceiverIsEOA",
      "type": "error"
    },
    {
      "inputs": [
        {
          "internalType": "address",
          "name": "operator",
          "type": "address"
        },
        {
          "internalType": "bytes32",
          "name": "tokenId",
          "type": "bytes32"
        }
      ],
      "name": "LSP8OperatorAlreadyAuthorized",
      "type": "error"
    },
    {
      "inputs": [
        {
          "internalType": "address",
          "name": "caller",
          "type": "address"
        },
        {
          "internalType": "address",
          "name": "tokenOwner",
          "type": "address"
        },
        {
          "internalType": "bytes32",
          "name": "tokenId",
          "type": "bytes32"
        }
      ],
      "name": "LSP8RevokeOperatorNotAuthorized",
      "type": "error"
    },
    {
      "inputs": [],
      "name": "LSP8TokenContractCannotHoldValue",
      "type": "error"
    },
    {
      "inputs": [
        {
          "internalType": "bytes32",
          "name": "tokenId",
          "type": "bytes32"
        }
      ],
      "name": "LSP8TokenIdAlreadyMinted",
      "type": "error"
    },
    {
      "inputs": [],
      "name": "LSP8TokenIdFormatNotEditable",
      "type": "error"
    },
    {
      "inputs": [],
      "name": "LSP8TokenIdsDataEmptyArray",
      "type": "error"
    },
    {
      "inputs": [],
      "name": "LSP8TokenIdsDataLengthMismatch",
      "type": "error"
    },
    {
      "inputs": [],
      "name": "LSP8TokenOwnerCannotBeOperator",
      "type": "error"
    },
    {
      "inputs": [
        {
          "internalType": "bytes32",
          "name": "tokenId",
          "type": "bytes32"
        },
        {
          "internalType": "address",
          "name": "oldOwner",
          "type": "address"
        },
        {
          "internalType": "address",
          "name": "newOwner",
          "type": "address"
        }
      ],
      "name": "LSP8TokenOwnerChanged",
      "type": "error"
    },
    {
      "inputs": [
        {
          "internalType": "bytes4",
          "name": "functionSelector",
          "type": "bytes4"
        }
      ],
      "name": "NoExtensionFoundForFunctionSelector",
      "type": "error"
    },
    {
      "inputs": [],
      "name": "OnlyPlaceholderCanMint",
      "type": "error"
    },
    {
      "inputs": [],
      "name": "VariantAlreadyRegistered",
      "type": "error"
    },
    {
      "inputs": [],
      "name": "VariantIdCannotBeZero",
      "type": "error"
    },
    {
      "inputs": [],
      "name": "VariantNotRegistered",
      "type": "error"
    },
    {
      "anonymous": false,
      "inputs": [
        {
          "indexed": true,
          "internalType": "bytes12",
          "name": "variantId",
          "type": "bytes12"
        },
        {
          "indexed": true,
          "internalType": "bytes12",
          "name": "assetId",
          "type": "bytes12"
        },
        {
          "indexed": true,
          "internalType": "bytes32",
          "name": "tokenId",
          "type": "bytes32"
        }
      ],
      "name": "AssetMinted",
      "type": "event"
    },
    {
      "anonymous": false,
      "inputs": [
        {
          "indexed": true,
          "internalType": "bytes32",
          "name": "dataKey",
          "type": "bytes32"
        },
        {
          "indexed": false,
          "internalType": "bytes",
          "name": "dataValue",
          "type": "bytes"
        }
      ],
      "name": "DataChanged",
      "type": "event"
    },
    {
      "anonymous": false,
      "inputs": [
        {
          "indexed": true,
          "internalType": "address",
          "name": "operator",
          "type": "address"
        },
        {
          "indexed": true,
          "internalType": "address",
          "name": "tokenOwner",
          "type": "address"
        },
        {
          "indexed": true,
          "internalType": "bytes32",
          "name": "tokenId",
          "type": "bytes32"
        },
        {
          "indexed": false,
          "internalType": "bytes",
          "name": "operatorNotificationData",
          "type": "bytes"
        }
      ],
      "name": "OperatorAuthorizationChanged",
      "type": "event"
    },
    {
      "anonymous": false,
      "inputs": [
        {
          "indexed": true,
          "internalType": "address",
          "name": "operator",
          "type": "address"
        },
        {
          "indexed": true,
          "internalType": "address",
          "name": "tokenOwner",
          "type": "address"
        },
        {
          "indexed": true,
          "internalType": "bytes32",
          "name": "tokenId",
          "type": "bytes32"
        },
        {
          "indexed": false,
          "internalType": "bool",
          "name": "notified",
          "type": "bool"
        },
        {
          "indexed": false,
          "internalType": "bytes",
          "name": "operatorNotificationData",
          "type": "bytes"
        }
      ],
      "name": "OperatorRevoked",
      "type": "event"
    },
    {
      "anonymous": false,
      "inputs": [
        {
          "indexed": true,
          "internalType": "address",
          "name": "previousOwner",
          "type": "address"
        },
        {
          "indexed": true,
          "internalType": "address",
          "name": "newOwner",
          "type": "address"
        }
      ],
      "name": "OwnershipTransferred",
      "type": "event"
    },
    {
      "anonymous": false,
      "inputs": [
        {
          "indexed": false,
          "internalType": "address",
          "name": "",
          "type": "address"
        },
        {
          "indexed": false,
          "internalType": "uint256",
          "name": "",
          "type": "uint256"
        }
      ],
      "name": "Received",
      "type": "event"
    },
    {
      "anonymous": false,
      "inputs": [
        {
          "indexed": true,
          "internalType": "bytes32",
          "name": "tokenId",
          "type": "bytes32"
        },
        {
          "indexed": true,
          "internalType": "bytes32",
          "name": "dataKey",
          "type": "bytes32"
        },
        {
          "indexed": false,
          "internalType": "bytes",
          "name": "dataValue",
          "type": "bytes"
        }
      ],
      "name": "TokenIdDataChanged",
      "type": "event"
    },
    {
      "anonymous": false,
      "inputs": [
        {
          "indexed": false,
          "internalType": "address",
          "name": "operator",
          "type": "address"
        },
        {
          "indexed": true,
          "internalType": "address",
          "name": "from",
          "type": "address"
        },
        {
          "indexed": true,
          "internalType": "address",
          "name": "to",
          "type": "address"
        },
        {
          "indexed": true,
          "internalType": "bytes32",
          "name": "tokenId",
          "type": "bytes32"
        },
        {
          "indexed": false,
          "internalType": "bool",
          "name": "force",
          "type": "bool"
        },
        {
          "indexed": false,
          "internalType": "bytes",
          "name": "data",
          "type": "bytes"
        }
      ],
      "name": "Transfer",
      "type": "event"
    },
    {
      "anonymous": false,
      "inputs": [
        {
          "indexed": false,
          "internalType": "bytes12",
          "name": "variantId",
          "type": "bytes12"
        }
      ],
      "name": "VariantRegistered",
      "type": "event"
    },
    {
      "anonymous": false,
      "inputs": [
        {
          "indexed": false,
          "internalType": "bytes12",
          "name": "variantId",
          "type": "bytes12"
        }
      ],
      "name": "VariantUnregistered",
      "type": "event"
    },
    {
      "stateMutability": "payable",
      "type": "fallback"
    },
    {
      "inputs": [
        {
          "internalType": "address",
          "name": "operator",
          "type": "address"
        },
        {
          "internalType": "bytes32",
          "name": "tokenId",
          "type": "bytes32"
        },
        {
          "internalType": "bytes",
          "name": "operatorNotificationData",
          "type": "bytes"
        }
      ],
      "name": "authorizeOperator",
      "outputs": [],
      "stateMutability": "nonpayable",
      "type": "function"
    },
    {
      "inputs": [
        {
          "internalType": "address",
          "name": "tokenOwner",
          "type": "address"
        }
      ],
      "name": "balanceOf",
      "outputs": [
        {
          "internalType": "uint256",
          "name": "",
          "type": "uint256"
        }
      ],
      "stateMutability": "view",
      "type": "function"
    },
    {
      "inputs": [
        {
          "internalType": "bytes[]",
          "name": "data",
          "type": "bytes[]"
        }
      ],
      "name": "batchCalls",
      "outputs": [
        {
          "internalType": "bytes[]",
          "name": "results",
          "type": "bytes[]"
        }
      ],
      "stateMutability": "nonpayable",
      "type": "function"
    },
    {
      "inputs": [
        {
          "internalType": "bytes12",
          "name": "variantId",
          "type": "bytes12"
        }
      ],
      "name": "checkVariant",
      "outputs": [
        {
          "internalType": "bool",
          "name": "",
          "type": "bool"
        }
      ],
      "stateMutability": "view",
      "type": "function"
    },
    {
      "inputs": [
        {
          "internalType": "bytes12",
          "name": "variantId",
          "type": "bytes12"
        },
        {
          "internalType": "bytes12",
          "name": "assetId",
          "type": "bytes12"
        }
      ],
      "name": "getAssetTokenId",
      "outputs": [
        {
          "internalType": "bytes32",
          "name": "",
          "type": "bytes32"
        }
      ],
      "stateMutability": "view",
      "type": "function"
    },
    {
      "inputs": [
        {
          "internalType": "bytes32",
          "name": "dataKey",
          "type": "bytes32"
        }
      ],
      "name": "getData",
      "outputs": [
        {
          "internalType": "bytes",
          "name": "dataValue",
          "type": "bytes"
        }
      ],
      "stateMutability": "view",
      "type": "function"
    },
    {
      "inputs": [
        {
          "internalType": "bytes32[]",
          "name": "dataKeys",
          "type": "bytes32[]"
        }
      ],
      "name": "getDataBatch",
      "outputs": [
        {
          "internalType": "bytes[]",
          "name": "dataValues",
          "type": "bytes[]"
        }
      ],
      "stateMutability": "view",
      "type": "function"
    },
    {
      "inputs": [
        {
          "internalType": "bytes32[]",
          "name": "tokenIds",
          "type": "bytes32[]"
        },
        {
          "internalType": "bytes32[]",
          "name": "dataKeys",
          "type": "bytes32[]"
        }
      ],
      "name": "getDataBatchForTokenIds",
      "outputs": [
        {
          "internalType": "bytes[]",
          "name": "dataValues",
          "type": "bytes[]"
        }
      ],
      "stateMutability": "view",
      "type": "function"
    },
    {
      "inputs": [
        {
          "internalType": "bytes32",
          "name": "tokenId",
          "type": "bytes32"
        },
        {
          "internalType": "bytes32",
          "name": "dataKey",
          "type": "bytes32"
        }
      ],
      "name": "getDataForTokenId",
      "outputs": [
        {
          "internalType": "bytes",
          "name": "dataValue",
          "type": "bytes"
        }
      ],
      "stateMutability": "view",
      "type": "function"
    },
    {
      "inputs": [
        {
          "internalType": "bytes32",
          "name": "tokenId",
          "type": "bytes32"
        }
      ],
      "name": "getOperatorsOf",
      "outputs": [
        {
          "internalType": "address[]",
          "name": "",
          "type": "address[]"
        }
      ],
      "stateMutability": "view",
      "type": "function"
    },
    {
      "inputs": [
        {
          "internalType": "address",
          "name": "operator",
          "type": "address"
        },
        {
          "internalType": "bytes32",
          "name": "tokenId",
          "type": "bytes32"
        }
      ],
      "name": "isOperatorFor",
      "outputs": [
        {
          "internalType": "bool",
          "name": "",
          "type": "bool"
        }
      ],
      "stateMutability": "view",
      "type": "function"
    },
    {
      "inputs": [
        {
          "internalType": "address",
          "name": "to",
          "type": "address"
        },
        {
          "internalType": "bytes12",
          "name": "assetId",
          "type": "bytes12"
        },
        {
          "internalType": "bytes12",
          "name": "variantId",
          "type": "bytes12"
        },
        {
          "internalType": "bool",
          "name": "allowNonLSP1Recipient",
          "type": "bool"
        },
        {
          "internalType": "bytes",
          "name": "data",
          "type": "bytes"
        }
      ],
      "name": "mint",
      "outputs": [],
      "stateMutability": "nonpayable",
      "type": "function"
    },
    {
      "inputs": [],
      "name": "owner",
      "outputs": [
        {
          "internalType": "address",
          "name": "",
          "type": "address"
        }
      ],
      "stateMutability": "view",
      "type": "function"
    },
    {
      "inputs": [],
      "name": "placeholder",
      "outputs": [
        {
          "internalType": "address",
          "name": "",
          "type": "address"
        }
      ],
      "stateMutability": "view",
      "type": "function"
    },
    {
      "inputs": [
        {
          "internalType": "bytes12",
          "name": "variantId",
          "type": "bytes12"
        },
        {
          "internalType": "bytes",
          "name": "metadataUrl",
          "type": "bytes"
        }
      ],
      "name": "registerVariant",
      "outputs": [],
      "stateMutability": "nonpayable",
      "type": "function"
    },
    {
      "inputs": [],
      "name": "renounceOwnership",
      "outputs": [],
      "stateMutability": "nonpayable",
      "type": "function"
    },
    {
      "inputs": [
        {
          "internalType": "address",
          "name": "operator",
          "type": "address"
        },
        {
          "internalType": "bytes32",
          "name": "tokenId",
          "type": "bytes32"
        },
        {
          "internalType": "bool",
          "name": "notify",
          "type": "bool"
        },
        {
          "internalType": "bytes",
          "name": "operatorNotificationData",
          "type": "bytes"
        }
      ],
      "name": "revokeOperator",
      "outputs": [],
      "stateMutability": "nonpayable",
      "type": "function"
    },
    {
      "inputs": [
        {
          "internalType": "bytes32",
          "name": "dataKey",
          "type": "bytes32"
        },
        {
          "internalType": "bytes",
          "name": "dataValue",
          "type": "bytes"
        }
      ],
      "name": "setData",
      "outputs": [],
      "stateMutability": "payable",
      "type": "function"
    },
    {
      "inputs": [
        {
          "internalType": "bytes32[]",
          "name": "dataKeys",
          "type": "bytes32[]"
        },
        {
          "internalType": "bytes[]",
          "name": "dataValues",
          "type": "bytes[]"
        }
      ],
      "name": "setDataBatch",
      "outputs": [],
      "stateMutability": "payable",
      "type": "function"
    },
    {
      "inputs": [
        {
          "internalType": "bytes32[]",
          "name": "tokenIds",
          "type": "bytes32[]"
        },
        {
          "internalType": "bytes32[]",
          "name": "dataKeys",
          "type": "bytes32[]"
        },
        {
          "internalType": "bytes[]",
          "name": "dataValues",
          "type": "bytes[]"
        }
      ],
      "name": "setDataBatchForTokenIds",
      "outputs": [],
      "stateMutability": "nonpayable",
      "type": "function"
    },
    {
      "inputs": [
        {
          "internalType": "bytes32",
          "name": "tokenId",
          "type": "bytes32"
        },
        {
          "internalType": "bytes32",
          "name": "dataKey",
          "type": "bytes32"
        },
        {
          "internalType": "bytes",
          "name": "dataValue",
          "type": "bytes"
        }
      ],
      "name": "setDataForTokenId",
      "outputs": [],
      "stateMutability": "nonpayable",
      "type": "function"
    },
    {
      "inputs": [
        {
          "internalType": "bytes4",
          "name": "_interfaceId",
          "type": "bytes4"
        }
      ],
      "name": "supportsInterface",
      "outputs": [
        {
          "internalType": "bool",
          "name": "",
          "type": "bool"
        }
      ],
      "stateMutability": "view",
      "type": "function"
    },
    {
      "inputs": [
        {
          "internalType": "uint256",
          "name": "index",
          "type": "uint256"
        }
      ],
      "name": "tokenAt",
      "outputs": [
        {
          "internalType": "bytes32",
          "name": "",
          "type": "bytes32"
        }
      ],
      "stateMutability": "view",
      "type": "function"
    },
    {
      "inputs": [
        {
          "internalType": "address",
          "name": "tokenOwner",
          "type": "address"
        }
      ],
      "name": "tokenIdsOf",
      "outputs": [
        {
          "internalType": "bytes32[]",
          "name": "",
          "type": "bytes32[]"
        }
      ],
      "stateMutability": "view",
      "type": "function"
    },
    {
      "inputs": [
        {
          "internalType": "bytes32",
          "name": "tokenId",
          "type": "bytes32"
        }
      ],
      "name": "tokenOwnerOf",
      "outputs": [
        {
          "internalType": "address",
          "name": "",
          "type": "address"
        }
      ],
      "stateMutability": "view",
      "type": "function"
    },
    {
      "inputs": [],
      "name": "tokenSupplyCap",
      "outputs": [
        {
          "internalType": "uint256",
          "name": "",
          "type": "uint256"
        }
      ],
      "stateMutability": "view",
      "type": "function"
    },
    {
      "inputs": [],
      "name": "totalSupply",
      "outputs": [
        {
          "internalType": "uint256",
          "name": "",
          "type": "uint256"
        }
      ],
      "stateMutability": "view",
      "type": "function"
    },
    {
      "inputs": [
        {
          "internalType": "address",
          "name": "from",
          "type": "address"
        },
        {
          "internalType": "address",
          "name": "to",
          "type": "address"
        },
        {
          "internalType": "bytes32",
          "name": "tokenId",
          "type": "bytes32"
        },
        {
          "internalType": "bool",
          "name": "force",
          "type": "bool"
        },
        {
          "internalType": "bytes",
          "name": "data",
          "type": "bytes"
        }
      ],
      "name": "transfer",
      "outputs": [],
      "stateMutability": "nonpayable",
      "type": "function"
    },
    {
      "inputs": [
        {
          "internalType": "address[]",
          "name": "from",
          "type": "address[]"
        },
        {
          "internalType": "address[]",
          "name": "to",
          "type": "address[]"
        },
        {
          "internalType": "bytes32[]",
          "name": "tokenId",
          "type": "bytes32[]"
        },
        {
          "internalType": "bool[]",
          "name": "force",
          "type": "bool[]"
        },
        {
          "internalType": "bytes[]",
          "name": "data",
          "type": "bytes[]"
        }
      ],
      "name": "transferBatch",
      "outputs": [],
      "stateMutability": "nonpayable",
      "type": "function"
    },
    {
      "inputs": [
        {
          "internalType": "address",
          "name": "newOwner",
          "type": "address"
        }
      ],
      "name": "transferOwnership",
      "outputs": [],
      "stateMutability": "nonpayable",
      "type": "function"
    },
    {
      "inputs": [
        {
          "internalType": "bytes12",
          "name": "variantId",
          "type": "bytes12"
        }
      ],
      "name": "unregisterVariant",
      "outputs": [],
      "stateMutability": "nonpayable",
      "type": "function"
    },
    {
      "stateMutability": "payable",
      "type": "receive"
    }
  ],
  "bytecode": "0x60a06040523480156200001157600080fd5b5060405162003d6538038062003d658339810160408190526200003491620004bf565b818585856001600384848484816001600160a01b038116620000ab5760405162461bcd60e51b815260206004820152602660248201527f4f776e61626c653a206e6577206f776e657220697320746865207a65726f206160448201526564647265737360d01b606482015260840160405180910390fd5b620000b68162000242565b506040805180820190915260048152632936598960e21b6020820152620000ff907feafec4d89fa9619884b60000a4d96624a38f7ac2d8d9a604ecf07c12c77e480c90620002a9565b6200012b7fdeba1e292f8ba88238e10ab3c7f88bd4be4fac56cad5194b6ecceaf653468af185620002a9565b620001577f2f0a68ab07768e01943a599e73362a0e17a63a72e94dd2e384d2c1d4db93275684620002a9565b6040805160208101839052620001a0917fe0261fa95db2eb3b5439bd033cda66d56b96f92f243a8228fd87550ed7bdfdb3910160408051601f19818403018152919052620002a9565b50506040805160208101859052620001ed93507ff675e9361af1c1664c1868cfa3eb97672d6b1a513aa5b81dec34c9ee330e818d92500160408051601f1981840301815291905262000302565b505050505080600003620002145760405163038d9fc360e41b815260040160405180910390fd5b608052600980546001600160a01b0319166001600160a01b039290921691909117905550620006e892505050565b6000546001600160a01b03828116911614620002a657600080546001600160a01b038381166001600160a01b0319831681178455604051919092169283917f8be0079c531659141344cd1fd0a4f28419497f9722a3daafe3b4186f6b6457e09190a3505b50565b6000828152600160205260409020620002c38282620005e7565b50817fece574603820d07bc9b91f2a932baadf4628aabcb8afba49776529c14a6104b282604051620002f69190620006b3565b60405180910390a25050565b6200030e828262000312565b5050565b7f2145e1d6d074577dc71ef54c3807742b41b053a9352ae6b491331509acb9750f820162000353576040516385c169bd60e01b815260040160405180910390fd5b7fd0f59754f88971fe6bc5a6618cc9d5f1e859c58d16b22d1c7b2d3e2b246cd8aa82016200039457604051630eceab6760e31b815260040160405180910390fd5b7f1fd9e056a24d14c4abc642fcc325992a946906d0dbc57dd70278aaf12842024d8201620002a957604051634ef6d7fb60e01b815260040160405180910390fd5b634e487b7160e01b600052604160045260246000fd5b60005b8381101562000408578181015183820152602001620003ee565b50506000910152565b600082601f8301126200042357600080fd5b81516001600160401b0380821115620004405762000440620003d5565b604051601f8301601f19908116603f011681019082821181831017156200046b576200046b620003d5565b816040528381528660208588010111156200048557600080fd5b62000498846020830160208901620003eb565b9695505050505050565b80516001600160a01b0381168114620004ba57600080fd5b919050565b600080600080600060a08688031215620004d857600080fd5b85516001600160401b0380821115620004f057600080fd5b620004fe89838a0162000411565b965060208801519150808211156200051557600080fd5b50620005248882890162000411565b9450506200053560408701620004a2565b9250606086015191506200054c60808701620004a2565b90509295509295909350565b600181811c908216806200056d57607f821691505b6020821081036200058e57634e487b7160e01b600052602260045260246000fd5b50919050565b601f821115620005e257600081815260208120601f850160051c81016020861015620005bd5750805b601f850160051c820191505b81811015620005de57828155600101620005c9565b5050505b505050565b81516001600160401b03811115620006035762000603620003d5565b6200061b8162000614845462000558565b8462000594565b602080601f8311600181146200065357600084156200063a5750858301515b600019600386901b1c1916600185901b178555620005de565b600085815260208120601f198616915b82811015620006845788860151825594840194600190910190840162000663565b5085821015620006a35787850151600019600388901b60f8161c191681555b5050505050600190811b01905550565b6020815260008251806020840152620006d4816040850160208701620003eb565b601f01601f19169190910160400192915050565b60805161365a6200070b600039600081816103b10152611eea015261365a6000f3fe60806040526004361061019c5760003560e01c8063715018a6116100e2578063a3b261f211610085578063a3b261f21461055b578063be9f0e6f14610588578063cd4977c8146105a8578063d6c1407c146105c8578063db8c9663146105e8578063dedff9c614610608578063f18776a014610628578063f2fde38b14610648576101f7565b8063715018a6146104755780637e87632c1461048a5780637f23690c146104aa57806386a10ddd146104bd5780638da5cb5b146104dd57806392a91a3a146104fb57806397902421146105285780639e75143c1461053b576101f7565b806349a6078d1161014a57806349a6078d14610355578063511b69521461038257806352058d8a146103a257806354f6127f146103d5578063674986ff146103f55780636963d438146104155780636cb1c9491461043557806370a0823114610455576101f7565b806301ffc9a71461023857806316e023b31461026d57806318160ddd1461029a5780631d26fce6146102b9578063217b2270146102e65780632a3654a4146103135780632b7c023c14610333576101f7565b366101f757346000036101de5760405163e5099ee360e01b81526004016101d59060208082526004908201526000604082015260600190565b60405180910390fd5b6040516330fa4a2160e11b815260040160405180910390fd5b6000366060600482101561022257828260405163e5099ee360e01b81526004016101d592919061270a565b61022c8383610668565b80519350602001915050f35b34801561024457600080fd5b50610258610253366004612739565b61075e565b60405190151581526020015b60405180910390f35b34801561027957600080fd5b5061028d610288366004612763565b61079e565b60405161026491906127d5565b3480156102a657600080fd5b506002545b604051908152602001610264565b3480156102c557600080fd5b506102d96102d43660046128bc565b6107b1565b604051610264919061291f565b3480156102f257600080fd5b50610306610301366004612981565b610898565b604051610264919061299a565b34801561031f57600080fd5b5061025861032e3660046129ca565b6108d1565b34801561033f57600080fd5b5061035361034e366004612a94565b6108dd565b005b34801561036157600080fd5b50610375610370366004612981565b610bad565b6040516102649190612b13565b34801561038e57600080fd5b5061035361039d366004612b60565b610bcf565b3480156103ae57600080fd5b507f00000000000000000000000000000000000000000000000000000000000000006102ab565b3480156103e157600080fd5b5061028d6103f0366004612981565b610c13565b34801561040157600080fd5b50610258610410366004612ba4565b610c1e565b34801561042157600080fd5b506102d9610430366004612bbf565b610ca8565b34801561044157600080fd5b50610353610450366004612ba4565b610dd7565b34801561046157600080fd5b506102ab610470366004612c33565b610ecd565b34801561048157600080fd5b50610353610eee565b34801561049657600080fd5b506103536104a5366004612d91565b610f02565b6103536104b8366004612e55565b610ff1565b3480156104c957600080fd5b506103536104d8366004612e91565b611026565b3480156104e957600080fd5b506000546001600160a01b0316610306565b34801561050757600080fd5b506102ab610516366004612981565b60009081526007602052604090205490565b610353610536366004612ee7565b61118e565b34801561054757600080fd5b50600954610306906001600160a01b031681565b34801561056757600080fd5b5061057b610576366004612c33565b61124e565b6040516102649190612f40565b34801561059457600080fd5b506103536105a3366004612f78565b611272565b3480156105b457600080fd5b506103536105c3366004612ff5565b61133d565b3480156105d457600080fd5b506103536105e336600461302c565b611467565b3480156105f457600080fd5b50610353610603366004613065565b61147a565b34801561061457600080fd5b506102d96106233660046130cc565b61155e565b34801561063457600080fd5b506102ab610643366004613100565b611608565b34801561065457600080fd5b50610353610663366004612c33565b611696565b606060006106816000356001600160e01b03191661170f565b5090506001600160a01b0381166106b9576000356001600160e01b03191660405163bb370b2b60e01b81526004016101d59190613133565b600080826001600160a01b031634878733346040516020016106de9493929190613148565b60408051601f19818403018152908290526106f891613173565b60006040518083038185875af1925050503d8060008114610735576040519150601f19603f3d011682016040523d82523d6000602084013e61073a565b606091505b5091509150811561074f579250610758915050565b80518060208301fd5b92915050565b60006001600160e01b03198216630e25267160e11b148061078f57506001600160e01b03198216632902c6c560e11b145b8061075857506107588261178d565b60606107aa83836117c1565b9392505050565b606081518351146107d5576040516317d38eff60e11b815260040160405180910390fd5b82516001600160401b038111156107ee576107ee6127e8565b60405190808252806020026020018201604052801561082157816020015b606081526020019060019003908161080c5790505b50905060005b83518110156108915761086c8482815181106108455761084561318f565b602002602001015184838151811061085f5761085f61318f565b60200260200101516117c1565b82828151811061087e5761087e61318f565b6020908102919091010152600101610827565b5092915050565b6000818152600360205260408120546001600160a01b03168061075857604051635747cd1b60e11b8152600481018490526024016101d5565b60006107aa838361186f565b6009546001600160a01b0316331461090857604051634281885f60e11b815260040160405180910390fd5b6001600160a01b031984166109305760405163baceb31160e01b815260040160405180910390fd5b6040805160608101918290526316b96e9360e31b9091526000908073__$032f01bb2624c0993c8bfa756ae89be841$__63b5cb7498610972306064850161299a565b602060405180830381865af415801561098f573d6000803e3d6000fd5b505050506040513d601f19601f820116820180604052508101906109b391906131a5565b6001600160d01b03191681526001600160a01b03198087166020830152871660409182015251630849ed4d60e11b815290915060009073__$032f01bb2624c0993c8bfa756ae89be841$__90631093da9a90610a139085906004016131cf565b602060405180830381865af4158015610a30573d6000803e3d6000fd5b505050506040513d601f19601f82011682018060405250810190610a54919061320a565b9050610a61600a826118c9565b610a7e5760405163b103414760e01b815260040160405180910390fd5b6040516320e5304f60e01b815260009073__$032f01bb2624c0993c8bfa756ae89be841$__906320e5304f90610ab89086906004016131cf565b602060405180830381865af4158015610ad5573d6000803e3d6000fd5b505050506040513d601f19601f82011682018060405250810190610af9919061320a565b9050610b04816118e1565b15610b225760405163136d457160e21b815260040160405180910390fd5b6000610b2d836118fe565b9050610b5a827f9afb95cacc9f95858ec44aa8c3b685511002e30ae54415823f406128b85b238e836119a0565b610b6689838888611a02565b60405182906001600160a01b0319808b1691908a16907f8846f9de517619441451dee05d1a37b152ac31ba0b8b22c0635005860b90c40090600090a4505050505050505050565b6060610bb882611a0e565b600082815260056020526040902061075890611a37565b610bd9338461186f565b610bff57604051631294d2a960e01b8152600481018490523360248201526044016101d5565b610c0c8585858585611a44565b5050505050565b6060610758826118fe565b60008073__$032f01bb2624c0993c8bfa756ae89be841$__63c27407d030856040518363ffffffff1660e01b8152600401610c5a929190613223565b602060405180830381865af4158015610c77573d6000803e3d6000fd5b505050506040513d601f19601f82011682018060405250810190610c9b919061320a565b90506107aa600a826118c9565b6060816001600160401b03811115610cc257610cc26127e8565b604051908082528060200260200182016040528015610cf557816020015b6060815260200190600190039081610ce05790505b50905060005b828110156108915760008030868685818110610d1957610d1961318f565b9050602002810190610d2b9190613246565b604051610d39929190613293565b600060405180830381855af49150503d8060008114610d74576040519150601f19603f3d011682016040523d82523d6000602084013e610d79565b606091505b509150915081610daf57805115610d935780518082602001fd5b60405163234eb81960e01b8152600481018490526024016101d5565b80848481518110610dc257610dc261318f565b60209081029190910101525050600101610cfb565b610ddf611c1e565b604051630c27407d60e41b815260009073__$032f01bb2624c0993c8bfa756ae89be841$__9063c27407d090610e1b9030908690600401613223565b602060405180830381865af4158015610e38573d6000803e3d6000fd5b505050506040513d601f19601f82011682018060405250810190610e5c919061320a565b9050610e69600a826118c9565b610e865760405163b103414760e01b815260040160405180910390fd5b610e91600a82611c87565b507fee0b0acde00de9a1c6e66517c637f4a59a543dff15739ad2200659454001896f82604051610ec191906132a3565b60405180910390a15050565b6001600160a01b038116600090815260046020526040812061075890611c93565b610ef6611c1e565b610f006000611c9d565b565b8451845181141580610f15575083518114155b80610f21575082518114155b80610f2d575081518114155b15610f4b576040516393a8311960e01b815260040160405180910390fd5b60005b81811015610fe857610fe0878281518110610f6b57610f6b61318f565b6020026020010151878381518110610f8557610f8561318f565b6020026020010151878481518110610f9f57610f9f61318f565b6020026020010151878581518110610fb957610fb961318f565b6020026020010151878681518110610fd357610fd361318f565b6020026020010151610bcf565b600101610f4e565b50505050505050565b610ff9611c1e565b34156110185760405163f36ba73760e01b815260040160405180910390fd5b6110228282611d02565b5050565b600061103183610898565b90506001600160a01b038116331461106257808333604051632d938f5160e11b81526004016101d5939291906132b8565b6001600160a01b03841661108957604051639577b8b360e01b815260040160405180910390fd5b836001600160a01b0316816001600160a01b0316036110bb576040516344fed6b160e11b815260040160405180910390fd5b60008381526005602052604081206110d39086611d4c565b905080611105576040516314ec4d6d60e31b81526001600160a01b0386166004820152602481018590526044016101d5565b83826001600160a01b0316866001600160a01b03167f1b1b58aa2ec0cec2228b2d37124556d41f5a1f7b12f089171f896cc2366712158660405161114991906127d5565b60405180910390a46000338560018660405160200161116b94939291906132db565b60405160208183030381529060405290506111868682611d61565b505050505050565b611196611c1e565b34156111b55760405163f36ba73760e01b815260040160405180910390fd5b80518251146111d757604051633bcc897960e01b815260040160405180910390fd5b81516000036111f9576040516397da5f9560e01b815260040160405180910390fd5b60005b82518110156112495761124183828151811061121a5761121a61318f565b60200260200101518383815181106112345761123461318f565b6020026020010151611d02565b6001016111fc565b505050565b6001600160a01b038116600090815260046020526040902060609061075890611a37565b61127a611c1e565b8151835114158061128d57508051825114155b156112ab576040516317d38eff60e11b815260040160405180910390fd5b82516000036112cd576040516380c9830560e01b815260040160405180910390fd5b60005b83518110156113375761132f8482815181106112ee576112ee61318f565b60200260200101518483815181106113085761130861318f565b60200260200101518484815181106113225761132261318f565b60200260200101516119a0565b6001016112d0565b50505050565b611345611c1e565b604051630c27407d60e41b815260009073__$032f01bb2624c0993c8bfa756ae89be841$__9063c27407d0906113819030908790600401613223565b602060405180830381865af415801561139e573d6000803e3d6000fd5b505050506040513d601f19601f820116820180604052508101906113c2919061320a565b90506001600160a01b031983166113ec57604051633f0bb8a360e01b815260040160405180910390fd5b6113f7600a826118c9565b15611415576040516376996b1f60e01b815260040160405180910390fd5b611420600a82611d8c565b5061142b8183611d02565b7fcd698deeac260311b9d0b77d8c223846316aec4961b01b0cdc1f26e666cd25038360405161145a91906132a3565b60405180910390a1505050565b61146f611c1e565b6112498383836119a0565b600061148584610898565b9050336001600160a01b038216146114d8576001600160a01b03851633146114d85760405163760b5acd60e01b81523360048201526001600160a01b0382166024820152604481018590526064016101d5565b6001600160a01b0385166114ff57604051639577b8b360e01b815260040160405180910390fd5b846001600160a01b0316816001600160a01b031603611531576040516344fed6b160e11b815260040160405180910390fd5b61153e8582868686611d98565b8215610c0c576000818560008560405160200161116b94939291906132db565b606081516001600160401b03811115611579576115796127e8565b6040519080825280602002602001820160405280156115ac57816020015b60608152602001906001900390816115975790505b50905060005b8251811015611602576115dd8382815181106115d0576115d061318f565b60200260200101516118fe565b8282815181106115ef576115ef61318f565b60209081029190910101526001016115b2565b50919050565b6040516332e33fa360e11b81523060048201526001600160a01b031980841660248301528216604482015260009073__$032f01bb2624c0993c8bfa756ae89be841$__906365c67f4690606401602060405180830381865af4158015611672573d6000803e3d6000fd5b505050506040513d601f19601f820116820180604052508101906107aa919061320a565b61169e611c1e565b6001600160a01b0381166117035760405162461bcd60e51b815260206004820152602660248201527f4f776e61626c653a206e6577206f776e657220697320746865207a65726f206160448201526564647265737360d01b60648201526084016101d5565b61170c81611c9d565b50565b60008080611734696773c5a04a6d4300884b60b11b6001600160e01b03198616611e38565b90506000611741826118fe565b905080516014141580156117555750805115155b1561177557806040516342bfe79f60e01b81526004016101d591906127d5565b61177e81613314565b60601c95600195509350505050565b60006001600160e01b03198216631d138b8360e11b14806117b257506117b282611e8c565b80610758575061075882611eb1565b600082815260066020908152604080832084845290915290208054606091906117e99061334b565b80601f01602080910402602001604051908101604052809291908181526020018280546118159061334b565b80156118625780601f1061183757610100808354040283529160200191611862565b820191906000526020600020905b81548152906001019060200180831161184557829003601f168201915b5050505050905092915050565b600061187a82610898565b6001600160a01b0316836001600160a01b031614806107aa575060008281526005602052604090206107aa90846001600160a01b038116600090815260018301602052604081205415156107aa565b600081815260018301602052604081205415156107aa565b6000908152600360205260409020546001600160a01b0316151590565b600081815260016020526040902080546060919061191b9061334b565b80601f01602080910402602001604051908101604052809291908181526020018280546119479061334b565b80156119945780601f1061196957610100808354040283529160200191611994565b820191906000526020600020905b81548152906001019060200180831161197757829003601f168201915b50505050509050919050565b600083815260066020908152604080832085845290915290206119c382826133c5565b5081837fa6e4251f855f750545fe414f120db91c76b88def14d120969e5bb2d3f05debbb836040516119f591906127d5565b60405180910390a3505050565b61133784848484611ee8565b611a17816118e1565b61170c57604051635747cd1b60e11b8152600481018290526024016101d5565b606060006107aa83611f42565b6000611a4f84610898565b9050856001600160a01b0316816001600160a01b031614611a8957808487604051632d938f5160e11b81526004016101d5939291906132b8565b6001600160a01b038516611ab0576040516324ecef4d60e01b815260040160405180910390fd5b611abc86868685611f9d565b6000611ac785610898565b9050806001600160a01b0316826001600160a01b031614611b1557604051635a9c31d360e01b8152600481018690526001600160a01b038084166024830152821660448201526064016101d5565b611b1f8786611fa9565b6001600160a01b0387166000908152600460205260409020611b419086611c87565b506001600160a01b0386166000908152600460205260409020611b649086611d8c565b506000858152600360205260409081902080546001600160a01b0319166001600160a01b0389811691821790925591518792918a16907fb333c813a7426a7a11e2b190cad52c44119421594b47f6f32ace6d8c7207b2bf90611bcb9033908a908a90613484565b60405180910390a460003388888887604051602001611bee9594939291906134b9565b6040516020818303038152906040529050611c098882612001565b611c1487868361202c565b5050505050505050565b33611c316000546001600160a01b031690565b6001600160a01b031614610f005760405162461bcd60e51b815260206004820181905260248201527f4f776e61626c653a2063616c6c6572206973206e6f7420746865206f776e657260448201526064016101d5565b60006107aa8383612122565b6000610758825490565b6000546001600160a01b0382811691161461170c57600080546001600160a01b038381166001600160a01b0319831681178455604051919092169283917f8be0079c531659141344cd1fd0a4f28419497f9722a3daafe3b4186f6b6457e09190a35050565b7f098a16c9e50e3e99b3e797305c146898d294e5aec55a47e213cb3611ccf17e738201611d4257604051631b32400560e11b815260040160405180910390fd5b6110228282612215565b60006107aa836001600160a01b03841661221f565b611022827f8a1c15a8799f71b547e08e2bcb2e85257e81b0a07eee2ce6712549eef1f009708361226e565b60006107aa838361221f565b6000838152600560205260408120611db090876122bb565b905080611de2576040516312a8c6a360e21b81526001600160a01b0387166004820152602481018590526044016101d5565b83856001600160a01b0316876001600160a01b03167fc78cd419d6136f9f1c1c6aec1d3fae098cffaf8bc86314a8f2685e32fe574e3c8686604051611e289291906134f4565b60405180910390a4505050505050565b604080516001600160b01b0319841660208201526000602a82018190526001600160601b03198416602c83015291829101604051602081830303815290604052905080611e849061350f565b949350505050565b60006001600160e01b0319821663a918fa6b60e01b14806107585750610758826122d0565b600080611ec46301ffc9a760e01b61170f565b5090506001600160a01b038116611ede5750600092915050565b6107aa8184612305565b7f0000000000000000000000000000000000000000000000000000000000000000600254611f17906001613549565b1115611f365760405163e8ba229160e01b815260040160405180910390fd5b61133784848484612399565b60608160000180548060200260200160405190810160405280929190818152602001828054801561199457602002820191906000526020600020905b815481526020019060010190808311611f7e5750505050509050919050565b611337848484846124f8565b600081815260056020526040812090611fc182611c93565b90506000805b8281101561118657611fda8460006125bf565b9150611ff9828787600060405180602001604052806000815250611d98565b600101611fc7565b611022827fb23eae7e6d1564b295b4c3e3be402d9a2f0776c57bdf365903496f6fa481ab008361226e565b61203d83631aed5a8560e21b612305565b156120d757604051631aed5a8560e21b81526001600160a01b03841690636bb56a1490612090907f0b084a55ebf70fd3c06fd755269dac2212c4d3f0f4d09079780bfa50c1b2984d90859060040161355c565b6000604051808303816000875af11580156120af573d6000803e3d6000fd5b505050506040513d6000823e601f3d908101601f191682016040526113379190810190613575565b81611249576001600160a01b0383163b156121075782604051634349776d60e01b81526004016101d5919061299a565b82604051630317313760e01b81526004016101d5919061299a565b6000818152600183016020526040812054801561220b5760006121466001836135e2565b855490915060009061215a906001906135e2565b90508181146121bf57600086600001828154811061217a5761217a61318f565b906000526020600020015490508087600001848154811061219d5761219d61318f565b6000918252602080832090910192909255918252600188019052604090208390555b85548690806121d0576121d06135f5565b600190038181906000526020600020016000905590558560010160008681526020019081526020016000206000905560019350505050610758565b6000915050610758565b61102282826125cb565b600081815260018301602052604081205461226657508154600181810184556000848152602080822090930184905584548482528286019093526040902091909155610758565b506000610758565b6122886001600160a01b038416631aed5a8560e21b612305565b1561124957604051631aed5a8560e21b81526001600160a01b03841690636bb56a1490612090908590859060040161355c565b60006107aa836001600160a01b038416612122565b60006001600160e01b031982166318a6a9a560e21b148061075857506301ffc9a760e01b6001600160e01b0319831614610758565b6000806301ffc9a760e01b836040516024016123219190613133565b604051602081830303815290604052906001600160e01b0319166020820180516001600160e01b03838183161783525050505090506000806000602060008551602087018a617530fa92503d91506000519050828015612382575060208210155b801561238e5750600081115b979650505050505050565b6001600160a01b0384166123c0576040516324ecef4d60e01b815260040160405180910390fd5b6123c9836118e1565b156123ea576040516334c7b51160e01b8152600481018490526024016101d5565b6123f76000858584611f9d565b612400836118e1565b15612421576040516334c7b51160e01b8152600481018490526024016101d5565b6002600081546124309061360b565b909155506001600160a01b03841660009081526004602052604090206124569084611d8c565b5060008381526003602052604080822080546001600160a01b0319166001600160a01b03881690811790915590518592907fb333c813a7426a7a11e2b190cad52c44119421594b47f6f32ace6d8c7207b2bf906124b890339088908890613484565b60405180910390a460003360008686856040516020016124dc9594939291906134b9565b6040516020818303038152906040529050610c0c85848361202c565b6001600160a01b03841661253257600061251160025490565b60008181526007602090815260408083208790558683526008909152902055505b6001600160a01b0383166125ba576000600161254d60025490565b61255791906135e2565b60008481526008602052604090205490915081811015612599576000828152600760209081526040808320548484528184208190558352600890915290208190555b50600090815260076020908152604080832083905584835260089091528120555b611337565b60006107aa83836126e0565b7f2145e1d6d074577dc71ef54c3807742b41b053a9352ae6b491331509acb9750f820161260b576040516385c169bd60e01b815260040160405180910390fd5b7fd0f59754f88971fe6bc5a6618cc9d5f1e859c58d16b22d1c7b2d3e2b246cd8aa820161264b57604051630eceab6760e31b815260040160405180910390fd5b7f1fd9e056a24d14c4abc642fcc325992a946906d0dbc57dd70278aaf12842024d820161268b57604051634ef6d7fb60e01b815260040160405180910390fd5b60008281526001602052604090206126a382826133c5565b50817fece574603820d07bc9b91f2a932baadf4628aabcb8afba49776529c14a6104b2826040516126d491906127d5565b60405180910390a25050565b60008260000182815481106126f7576126f761318f565b9060005260206000200154905092915050565b60208152816020820152818360408301376000818301604090810191909152601f909201601f19160101919050565b60006020828403121561274b57600080fd5b81356001600160e01b0319811681146107aa57600080fd5b6000806040838503121561277657600080fd5b50508035926020909101359150565b60005b838110156127a0578181015183820152602001612788565b50506000910152565b600081518084526127c1816020860160208601612785565b601f01601f19169290920160200192915050565b6020815260006107aa60208301846127a9565b634e487b7160e01b600052604160045260246000fd5b604051601f8201601f191681016001600160401b0381118282101715612826576128266127e8565b604052919050565b60006001600160401b03821115612847576128476127e8565b5060051b60200190565b600082601f83011261286257600080fd5b813560206128776128728361282e565b6127fe565b82815260059290921b8401810191818101908684111561289657600080fd5b8286015b848110156128b1578035835291830191830161289a565b509695505050505050565b600080604083850312156128cf57600080fd5b82356001600160401b03808211156128e657600080fd5b6128f286838701612851565b9350602085013591508082111561290857600080fd5b5061291585828601612851565b9150509250929050565b6000602080830181845280855180835260408601915060408160051b870101925083870160005b8281101561297457603f198886030184526129628583516127a9565b94509285019290850190600101612946565b5092979650505050505050565b60006020828403121561299357600080fd5b5035919050565b6001600160a01b0391909116815260200190565b80356001600160a01b03811681146129c557600080fd5b919050565b600080604083850312156129dd57600080fd5b6129e6836129ae565b946020939093013593505050565b80356001600160a01b0319811681146129c557600080fd5b803580151581146129c557600080fd5b60006001600160401b03821115612a3557612a356127e8565b50601f01601f191660200190565b600082601f830112612a5457600080fd5b8135612a6261287282612a1c565b818152846020838601011115612a7757600080fd5b816020850160208301376000918101602001919091529392505050565b600080600080600060a08688031215612aac57600080fd5b612ab5866129ae565b9450612ac3602087016129f4565b9350612ad1604087016129f4565b9250612adf60608701612a0c565b915060808601356001600160401b03811115612afa57600080fd5b612b0688828901612a43565b9150509295509295909350565b6020808252825182820181905260009190848201906040850190845b81811015612b545783516001600160a01b031683529284019291840191600101612b2f565b50909695505050505050565b600080600080600060a08688031215612b7857600080fd5b612b81866129ae565b9450612b8f602087016129ae565b935060408601359250612adf60608701612a0c565b600060208284031215612bb657600080fd5b6107aa826129f4565b60008060208385031215612bd257600080fd5b82356001600160401b0380821115612be957600080fd5b818501915085601f830112612bfd57600080fd5b813581811115612c0c57600080fd5b8660208260051b8501011115612c2157600080fd5b60209290920196919550909350505050565b600060208284031215612c4557600080fd5b6107aa826129ae565b600082601f830112612c5f57600080fd5b81356020612c6f6128728361282e565b82815260059290921b84018101918181019086841115612c8e57600080fd5b8286015b848110156128b157612ca3816129ae565b8352918301918301612c92565b600082601f830112612cc157600080fd5b81356020612cd16128728361282e565b82815260059290921b84018101918181019086841115612cf057600080fd5b8286015b848110156128b157612d0581612a0c565b8352918301918301612cf4565b600082601f830112612d2357600080fd5b81356020612d336128728361282e565b82815260059290921b84018101918181019086841115612d5257600080fd5b8286015b848110156128b15780356001600160401b03811115612d755760008081fd5b612d838986838b0101612a43565b845250918301918301612d56565b600080600080600060a08688031215612da957600080fd5b85356001600160401b0380821115612dc057600080fd5b612dcc89838a01612c4e565b96506020880135915080821115612de257600080fd5b612dee89838a01612c4e565b95506040880135915080821115612e0457600080fd5b612e1089838a01612851565b94506060880135915080821115612e2657600080fd5b612e3289838a01612cb0565b93506080880135915080821115612e4857600080fd5b50612b0688828901612d12565b60008060408385031215612e6857600080fd5b8235915060208301356001600160401b03811115612e8557600080fd5b61291585828601612a43565b600080600060608486031215612ea657600080fd5b612eaf846129ae565b92506020840135915060408401356001600160401b03811115612ed157600080fd5b612edd86828701612a43565b9150509250925092565b60008060408385031215612efa57600080fd5b82356001600160401b0380821115612f1157600080fd5b612f1d86838701612851565b93506020850135915080821115612f3357600080fd5b5061291585828601612d12565b6020808252825182820181905260009190848201906040850190845b81811015612b5457835183529284019291840191600101612f5c565b600080600060608486031215612f8d57600080fd5b83356001600160401b0380821115612fa457600080fd5b612fb087838801612851565b94506020860135915080821115612fc657600080fd5b612fd287838801612851565b93506040860135915080821115612fe857600080fd5b50612edd86828701612d12565b6000806040838503121561300857600080fd5b613011836129f4565b915060208301356001600160401b03811115612e8557600080fd5b60008060006060848603121561304157600080fd5b833592506020840135915060408401356001600160401b03811115612ed157600080fd5b6000806000806080858703121561307b57600080fd5b613084856129ae565b93506020850135925061309960408601612a0c565b915060608501356001600160401b038111156130b457600080fd5b6130c087828801612a43565b91505092959194509250565b6000602082840312156130de57600080fd5b81356001600160401b038111156130f457600080fd5b611e8484828501612851565b6000806040838503121561311357600080fd5b61311c836129f4565b915061312a602084016129f4565b90509250929050565b6001600160e01b031991909116815260200190565b8385823760609290921b6001600160601b031916919092019081526014810191909152603401919050565b60008251613185818460208701612785565b9190910192915050565b634e487b7160e01b600052603260045260246000fd5b6000602082840312156131b757600080fd5b81516001600160d01b0319811681146107aa57600080fd5b81516001600160d01b03191681526020808301516001600160a01b031990811691830191909152604092830151169181019190915260600190565b60006020828403121561321c57600080fd5b5051919050565b6001600160a01b039290921682526001600160a01b031916602082015260400190565b6000808335601e1984360301811261325d57600080fd5b8301803591506001600160401b0382111561327757600080fd5b60200191503681900382131561328c57600080fd5b9250929050565b8183823760009101908152919050565b6001600160a01b031991909116815260200190565b6001600160a01b0393841681526020810192909252909116604082015260600190565b60018060a01b0385168152836020820152821515604082015260806060820152600061330a60808301846127a9565b9695505050505050565b805160208201516001600160601b031980821692919060148310156133435780818460140360031b1b83161693505b505050919050565b600181811c9082168061335f57607f821691505b60208210810361160257634e487b7160e01b600052602260045260246000fd5b601f82111561124957600081815260208120601f850160051c810160208610156133a65750805b601f850160051c820191505b81811015611186578281556001016133b2565b81516001600160401b038111156133de576133de6127e8565b6133f2816133ec845461334b565b8461337f565b602080601f831160018114613427576000841561340f5750858301515b600019600386901b1c1916600185901b178555611186565b600085815260208120601f198616915b8281101561345657888601518255948401946001909101908401613437565b50858210156134745787850151600019600388901b60f8161c191681555b5050505050600190811b01905550565b6001600160a01b038416815282151560208201526060604082018190526000906134b0908301846127a9565b95945050505050565b6001600160a01b0386811682528581166020830152841660408201526060810183905260a06080820181905260009061238e908301846127a9565b8215158152604060208201526000611e8460408301846127a9565b805160208083015191908110156116025760001960209190910360031b1b16919050565b634e487b7160e01b600052601160045260246000fd5b8082018082111561075857610758613533565b828152604060208201526000611e8460408301846127a9565b60006020828403121561358757600080fd5b81516001600160401b0381111561359d57600080fd5b8201601f810184136135ae57600080fd5b80516135bc61287282612a1c565b8181528560208385010111156135d157600080fd5b6134b0826020830160208601612785565b8181038181111561075857610758613533565b634e487b7160e01b600052603160045260246000fd5b60006001820161361d5761361d613533565b506001019056fea26469706673582212206e39d2f23625fbf2acadb2a6dcba308451ba12cf69b67d03de7ccb7a89c9838864736f6c63430008140033",
  "linkReferences": {
    "contracts/TokenUtils.sol": {
      "TokenUtils": [
        {
          "length": 20,
          "start": 4184
        },
        {
          "length": 20,
          "start": 4342
        },
        {
          "length": 20,
          "start": 4507
        },
        {
          "length": 20,
          "start": 4910
        },
        {
          "length": 20,
          "start": 5372
        },
        {
          "length": 20,
          "start": 6754
        },
        {
          "length": 20,
          "start": 7491
        }
      ]
    }
  },
  "deployedLinkReferences": {
    "contracts/TokenUtils.sol": {
      "TokenUtils": [
        {
          "length": 20,
          "start": 2381
        },
        {
          "length": 20,
          "start": 2539
        },
        {
          "length": 20,
          "start": 2704
        },
        {
          "length": 20,
          "start": 3107
        },
        {
          "length": 20,
          "start": 3569
        },
        {
          "length": 20,
          "start": 4951
        },
        {
          "length": 20,
          "start": 5688
        }
      ]
    }
  }
}