{
  "_format": "hh-sol-artifact-1",
  "contractName": "IdentifiablePhygitalAsset",
  "sourceName": "contracts/IdentifiablePhygitalAsset.sol",
  "abi": [
    {
      "inputs": [
        {
          "internalType": "string",
          "name": "name_",
          "type": "string"
        },
        {
          "internalType": "string",
          "name": "symbol_",
          "type": "string"
        },
        {
          "internalType": "address",
          "name": "newOwner_",
          "type": "address"
        },
        {
          "internalType": "uint256",
          "name": "maxLimit",
          "type": "uint256"
        },
        {
          "internalType": "address",
          "name": "placeholderCollection",
          "type": "address"
        }
      ],
      "stateMutability": "nonpayable",
      "type": "constructor"
    },
    {
      "inputs": [],
      "name": "AssetAlreadyRegistered",
      "type": "error"
    },
    {
      "inputs": [],
      "name": "AssetIdCannotBeZero",
      "type": "error"
    },
    {
      "inputs": [],
      "name": "ERC725Y_DataKeysValuesEmptyArray",
      "type": "error"
    },
    {
      "inputs": [],
      "name": "ERC725Y_DataKeysValuesLengthMismatch",
      "type": "error"
    },
    {
      "inputs": [],
      "name": "ERC725Y_MsgValueDisallowed",
      "type": "error"
    },
    {
      "inputs": [
        {
          "internalType": "bytes",
          "name": "storedData",
          "type": "bytes"
        }
      ],
      "name": "InvalidExtensionAddress",
      "type": "error"
    },
    {
      "inputs": [
        {
          "internalType": "bytes",
          "name": "data",
          "type": "bytes"
        }
      ],
      "name": "InvalidFunctionSelector",
      "type": "error"
    },
    {
      "inputs": [],
      "name": "LSP4TokenNameNotEditable",
      "type": "error"
    },
    {
      "inputs": [],
      "name": "LSP4TokenSymbolNotEditable",
      "type": "error"
    },
    {
      "inputs": [],
      "name": "LSP8CannotSendToAddressZero",
      "type": "error"
    },
    {
      "inputs": [],
      "name": "LSP8CannotSendToSelf",
      "type": "error"
    },
    {
      "inputs": [],
      "name": "LSP8CannotUseAddressZeroAsOperator",
      "type": "error"
    },
    {
      "inputs": [],
      "name": "LSP8CappedSupplyCannotMintOverCap",
      "type": "error"
    },
    {
      "inputs": [],
      "name": "LSP8CappedSupplyRequired",
      "type": "error"
    },
    {
      "inputs": [],
      "name": "LSP8InvalidTransferBatch",
      "type": "error"
    },
    {
      "inputs": [
        {
          "internalType": "bytes32",
          "name": "tokenId",
          "type": "bytes32"
        }
      ],
      "name": "LSP8NonExistentTokenId",
      "type": "error"
    },
    {
      "inputs": [
        {
          "internalType": "address",
          "name": "operator",
          "type": "address"
        },
        {
          "internalType": "bytes32",
          "name": "tokenId",
          "type": "bytes32"
        }
      ],
      "name": "LSP8NonExistingOperator",
      "type": "error"
    },
    {
      "inputs": [
        {
          "internalType": "bytes32",
          "name": "tokenId",
          "type": "bytes32"
        },
        {
          "internalType": "address",
          "name": "caller",
          "type": "address"
        }
      ],
      "name": "LSP8NotTokenOperator",
      "type": "error"
    },
    {
      "inputs": [
        {
          "internalType": "address",
          "name": "tokenOwner",
          "type": "address"
        },
        {
          "internalType": "bytes32",
          "name": "tokenId",
          "type": "bytes32"
        },
        {
          "internalType": "address",
          "name": "caller",
          "type": "address"
        }
      ],
      "name": "LSP8NotTokenOwner",
      "type": "error"
    },
    {
      "inputs": [
        {
          "internalType": "address",
          "name": "tokenReceiver",
          "type": "address"
        }
      ],
      "name": "LSP8NotifyTokenReceiverContractMissingLSP1Interface",
      "type": "error"
    },
    {
      "inputs": [
        {
          "internalType": "address",
          "name": "tokenReceiver",
          "type": "address"
        }
      ],
      "name": "LSP8NotifyTokenReceiverIsEOA",
      "type": "error"
    },
    {
      "inputs": [
        {
          "internalType": "address",
          "name": "operator",
          "type": "address"
        },
        {
          "internalType": "bytes32",
          "name": "tokenId",
          "type": "bytes32"
        }
      ],
      "name": "LSP8OperatorAlreadyAuthorized",
      "type": "error"
    },
    {
      "inputs": [],
      "name": "LSP8TokenContractCannotHoldValue",
      "type": "error"
    },
    {
      "inputs": [
        {
          "internalType": "bytes32",
          "name": "tokenId",
          "type": "bytes32"
        }
      ],
      "name": "LSP8TokenIdAlreadyMinted",
      "type": "error"
    },
    {
      "inputs": [],
      "name": "LSP8TokenIdTypeNotEditable",
      "type": "error"
    },
    {
      "inputs": [],
      "name": "LSP8TokenOwnerCannotBeOperator",
      "type": "error"
    },
    {
      "inputs": [
        {
          "internalType": "bytes4",
          "name": "functionSelector",
          "type": "bytes4"
        }
      ],
      "name": "NoExtensionFoundForFunctionSelector",
      "type": "error"
    },
    {
      "inputs": [],
      "name": "OnlyPlaceholderCanMint",
      "type": "error"
    },
    {
      "inputs": [],
      "name": "VariantAlreadyRegistered",
      "type": "error"
    },
    {
      "inputs": [],
      "name": "VariantIdCannotBeZero",
      "type": "error"
    },
    {
      "inputs": [],
      "name": "VariantNotRegistered",
      "type": "error"
    },
    {
      "anonymous": false,
      "inputs": [
        {
          "indexed": true,
          "internalType": "bytes12",
          "name": "variantId",
          "type": "bytes12"
        },
        {
          "indexed": true,
          "internalType": "bytes12",
          "name": "assetId",
          "type": "bytes12"
        },
        {
          "indexed": true,
          "internalType": "bytes32",
          "name": "tokenId",
          "type": "bytes32"
        }
      ],
      "name": "AssetMinted",
      "type": "event"
    },
    {
      "anonymous": false,
      "inputs": [
        {
          "indexed": true,
          "internalType": "address",
          "name": "operator",
          "type": "address"
        },
        {
          "indexed": true,
          "internalType": "address",
          "name": "tokenOwner",
          "type": "address"
        },
        {
          "indexed": true,
          "internalType": "bytes32",
          "name": "tokenId",
          "type": "bytes32"
        },
        {
          "indexed": false,
          "internalType": "bytes",
          "name": "operatorNotificationData",
          "type": "bytes"
        }
      ],
      "name": "AuthorizedOperator",
      "type": "event"
    },
    {
      "anonymous": false,
      "inputs": [
        {
          "indexed": true,
          "internalType": "bytes32",
          "name": "dataKey",
          "type": "bytes32"
        },
        {
          "indexed": false,
          "internalType": "bytes",
          "name": "dataValue",
          "type": "bytes"
        }
      ],
      "name": "DataChanged",
      "type": "event"
    },
    {
      "anonymous": false,
      "inputs": [
        {
          "indexed": true,
          "internalType": "address",
          "name": "previousOwner",
          "type": "address"
        },
        {
          "indexed": true,
          "internalType": "address",
          "name": "newOwner",
          "type": "address"
        }
      ],
      "name": "OwnershipTransferred",
      "type": "event"
    },
    {
      "anonymous": false,
      "inputs": [
        {
          "indexed": false,
          "internalType": "address",
          "name": "",
          "type": "address"
        },
        {
          "indexed": false,
          "internalType": "uint256",
          "name": "",
          "type": "uint256"
        }
      ],
      "name": "Received",
      "type": "event"
    },
    {
      "anonymous": false,
      "inputs": [
        {
          "indexed": true,
          "internalType": "address",
          "name": "operator",
          "type": "address"
        },
        {
          "indexed": true,
          "internalType": "address",
          "name": "tokenOwner",
          "type": "address"
        },
        {
          "indexed": true,
          "internalType": "bytes32",
          "name": "tokenId",
          "type": "bytes32"
        },
        {
          "indexed": false,
          "internalType": "bool",
          "name": "notified",
          "type": "bool"
        },
        {
          "indexed": false,
          "internalType": "bytes",
          "name": "operatorNotificationData",
          "type": "bytes"
        }
      ],
      "name": "RevokedOperator",
      "type": "event"
    },
    {
      "anonymous": false,
      "inputs": [
        {
          "indexed": false,
          "internalType": "address",
          "name": "operator",
          "type": "address"
        },
        {
          "indexed": true,
          "internalType": "address",
          "name": "from",
          "type": "address"
        },
        {
          "indexed": true,
          "internalType": "address",
          "name": "to",
          "type": "address"
        },
        {
          "indexed": true,
          "internalType": "bytes32",
          "name": "tokenId",
          "type": "bytes32"
        },
        {
          "indexed": false,
          "internalType": "bool",
          "name": "force",
          "type": "bool"
        },
        {
          "indexed": false,
          "internalType": "bytes",
          "name": "data",
          "type": "bytes"
        }
      ],
      "name": "Transfer",
      "type": "event"
    },
    {
      "anonymous": false,
      "inputs": [
        {
          "indexed": false,
          "internalType": "bytes12",
          "name": "variantId",
          "type": "bytes12"
        }
      ],
      "name": "VariantRegistered",
      "type": "event"
    },
    {
      "anonymous": false,
      "inputs": [
        {
          "indexed": false,
          "internalType": "bytes12",
          "name": "variantId",
          "type": "bytes12"
        }
      ],
      "name": "VariantUnregistered",
      "type": "event"
    },
    {
      "stateMutability": "payable",
      "type": "fallback"
    },
    {
      "inputs": [
        {
          "internalType": "address",
          "name": "operator",
          "type": "address"
        },
        {
          "internalType": "bytes32",
          "name": "tokenId",
          "type": "bytes32"
        },
        {
          "internalType": "bytes",
          "name": "operatorNotificationData",
          "type": "bytes"
        }
      ],
      "name": "authorizeOperator",
      "outputs": [],
      "stateMutability": "nonpayable",
      "type": "function"
    },
    {
      "inputs": [
        {
          "internalType": "address",
          "name": "tokenOwner",
          "type": "address"
        }
      ],
      "name": "balanceOf",
      "outputs": [
        {
          "internalType": "uint256",
          "name": "",
          "type": "uint256"
        }
      ],
      "stateMutability": "view",
      "type": "function"
    },
    {
      "inputs": [
        {
          "internalType": "bytes12",
          "name": "variantId",
          "type": "bytes12"
        }
      ],
      "name": "checkVariant",
      "outputs": [
        {
          "internalType": "bool",
          "name": "",
          "type": "bool"
        }
      ],
      "stateMutability": "view",
      "type": "function"
    },
    {
      "inputs": [
        {
          "internalType": "bytes12",
          "name": "variantId",
          "type": "bytes12"
        },
        {
          "internalType": "bytes12",
          "name": "assetId",
          "type": "bytes12"
        }
      ],
      "name": "getAssetTokenId",
      "outputs": [
        {
          "internalType": "bytes32",
          "name": "",
          "type": "bytes32"
        }
      ],
      "stateMutability": "view",
      "type": "function"
    },
    {
      "inputs": [
        {
          "internalType": "bytes32",
          "name": "dataKey",
          "type": "bytes32"
        }
      ],
      "name": "getData",
      "outputs": [
        {
          "internalType": "bytes",
          "name": "dataValue",
          "type": "bytes"
        }
      ],
      "stateMutability": "view",
      "type": "function"
    },
    {
      "inputs": [
        {
          "internalType": "bytes32[]",
          "name": "dataKeys",
          "type": "bytes32[]"
        }
      ],
      "name": "getDataBatch",
      "outputs": [
        {
          "internalType": "bytes[]",
          "name": "dataValues",
          "type": "bytes[]"
        }
      ],
      "stateMutability": "view",
      "type": "function"
    },
    {
      "inputs": [
        {
          "internalType": "bytes32",
          "name": "tokenId",
          "type": "bytes32"
        }
      ],
      "name": "getOperatorsOf",
      "outputs": [
        {
          "internalType": "address[]",
          "name": "",
          "type": "address[]"
        }
      ],
      "stateMutability": "view",
      "type": "function"
    },
    {
      "inputs": [
        {
          "internalType": "address",
          "name": "operator",
          "type": "address"
        },
        {
          "internalType": "bytes32",
          "name": "tokenId",
          "type": "bytes32"
        }
      ],
      "name": "isOperatorFor",
      "outputs": [
        {
          "internalType": "bool",
          "name": "",
          "type": "bool"
        }
      ],
      "stateMutability": "view",
      "type": "function"
    },
    {
      "inputs": [
        {
          "internalType": "address",
          "name": "to",
          "type": "address"
        },
        {
          "internalType": "bytes12",
          "name": "assetId",
          "type": "bytes12"
        },
        {
          "internalType": "bytes12",
          "name": "variantId",
          "type": "bytes12"
        },
        {
          "internalType": "bool",
          "name": "allowNonLSP1Recipient",
          "type": "bool"
        },
        {
          "internalType": "bytes",
          "name": "data",
          "type": "bytes"
        }
      ],
      "name": "mint",
      "outputs": [],
      "stateMutability": "nonpayable",
      "type": "function"
    },
    {
      "inputs": [],
      "name": "owner",
      "outputs": [
        {
          "internalType": "address",
          "name": "",
          "type": "address"
        }
      ],
      "stateMutability": "view",
      "type": "function"
    },
    {
      "inputs": [],
      "name": "placeholder",
      "outputs": [
        {
          "internalType": "address",
          "name": "",
          "type": "address"
        }
      ],
      "stateMutability": "view",
      "type": "function"
    },
    {
      "inputs": [
        {
          "internalType": "bytes12",
          "name": "variantId",
          "type": "bytes12"
        },
        {
          "internalType": "bytes",
          "name": "metadataUrl",
          "type": "bytes"
        }
      ],
      "name": "registerVariant",
      "outputs": [],
      "stateMutability": "nonpayable",
      "type": "function"
    },
    {
      "inputs": [],
      "name": "renounceOwnership",
      "outputs": [],
      "stateMutability": "nonpayable",
      "type": "function"
    },
    {
      "inputs": [
        {
          "internalType": "address",
          "name": "operator",
          "type": "address"
        },
        {
          "internalType": "bytes32",
          "name": "tokenId",
          "type": "bytes32"
        },
        {
          "internalType": "bool",
          "name": "notify",
          "type": "bool"
        },
        {
          "internalType": "bytes",
          "name": "operatorNotificationData",
          "type": "bytes"
        }
      ],
      "name": "revokeOperator",
      "outputs": [],
      "stateMutability": "nonpayable",
      "type": "function"
    },
    {
      "inputs": [
        {
          "internalType": "bytes32",
          "name": "dataKey",
          "type": "bytes32"
        },
        {
          "internalType": "bytes",
          "name": "dataValue",
          "type": "bytes"
        }
      ],
      "name": "setData",
      "outputs": [],
      "stateMutability": "payable",
      "type": "function"
    },
    {
      "inputs": [
        {
          "internalType": "bytes32[]",
          "name": "dataKeys",
          "type": "bytes32[]"
        },
        {
          "internalType": "bytes[]",
          "name": "dataValues",
          "type": "bytes[]"
        }
      ],
      "name": "setDataBatch",
      "outputs": [],
      "stateMutability": "payable",
      "type": "function"
    },
    {
      "inputs": [
        {
          "internalType": "bytes4",
          "name": "_interfaceId",
          "type": "bytes4"
        }
      ],
      "name": "supportsInterface",
      "outputs": [
        {
          "internalType": "bool",
          "name": "",
          "type": "bool"
        }
      ],
      "stateMutability": "view",
      "type": "function"
    },
    {
      "inputs": [
        {
          "internalType": "uint256",
          "name": "index",
          "type": "uint256"
        }
      ],
      "name": "tokenAt",
      "outputs": [
        {
          "internalType": "bytes32",
          "name": "",
          "type": "bytes32"
        }
      ],
      "stateMutability": "view",
      "type": "function"
    },
    {
      "inputs": [
        {
          "internalType": "address",
          "name": "tokenOwner",
          "type": "address"
        }
      ],
      "name": "tokenIdsOf",
      "outputs": [
        {
          "internalType": "bytes32[]",
          "name": "",
          "type": "bytes32[]"
        }
      ],
      "stateMutability": "view",
      "type": "function"
    },
    {
      "inputs": [
        {
          "internalType": "bytes32",
          "name": "tokenId",
          "type": "bytes32"
        }
      ],
      "name": "tokenOwnerOf",
      "outputs": [
        {
          "internalType": "address",
          "name": "",
          "type": "address"
        }
      ],
      "stateMutability": "view",
      "type": "function"
    },
    {
      "inputs": [],
      "name": "tokenSupplyCap",
      "outputs": [
        {
          "internalType": "uint256",
          "name": "",
          "type": "uint256"
        }
      ],
      "stateMutability": "view",
      "type": "function"
    },
    {
      "inputs": [],
      "name": "totalSupply",
      "outputs": [
        {
          "internalType": "uint256",
          "name": "",
          "type": "uint256"
        }
      ],
      "stateMutability": "view",
      "type": "function"
    },
    {
      "inputs": [
        {
          "internalType": "address",
          "name": "from",
          "type": "address"
        },
        {
          "internalType": "address",
          "name": "to",
          "type": "address"
        },
        {
          "internalType": "bytes32",
          "name": "tokenId",
          "type": "bytes32"
        },
        {
          "internalType": "bool",
          "name": "force",
          "type": "bool"
        },
        {
          "internalType": "bytes",
          "name": "data",
          "type": "bytes"
        }
      ],
      "name": "transfer",
      "outputs": [],
      "stateMutability": "nonpayable",
      "type": "function"
    },
    {
      "inputs": [
        {
          "internalType": "address[]",
          "name": "from",
          "type": "address[]"
        },
        {
          "internalType": "address[]",
          "name": "to",
          "type": "address[]"
        },
        {
          "internalType": "bytes32[]",
          "name": "tokenId",
          "type": "bytes32[]"
        },
        {
          "internalType": "bool[]",
          "name": "force",
          "type": "bool[]"
        },
        {
          "internalType": "bytes[]",
          "name": "data",
          "type": "bytes[]"
        }
      ],
      "name": "transferBatch",
      "outputs": [],
      "stateMutability": "nonpayable",
      "type": "function"
    },
    {
      "inputs": [
        {
          "internalType": "address",
          "name": "newOwner",
          "type": "address"
        }
      ],
      "name": "transferOwnership",
      "outputs": [],
      "stateMutability": "nonpayable",
      "type": "function"
    },
    {
      "inputs": [
        {
          "internalType": "bytes12",
          "name": "variantId",
          "type": "bytes12"
        }
      ],
      "name": "unregisterVariant",
      "outputs": [],
      "stateMutability": "nonpayable",
      "type": "function"
    },
    {
      "stateMutability": "payable",
      "type": "receive"
    }
  ],
  "bytecode": "0x60a06040523480156200001157600080fd5b50604051620037ce380380620037ce833981016040819052620000349162000588565b818585856003838383806001600160a01b038116620000a95760405162461bcd60e51b815260206004820152602660248201527f4f776e61626c653a206e6577206f776e657220697320746865207a65726f206160448201526564647265737360d01b60648201526084015b60405180910390fd5b620000b481620001f5565b506040805180820190915260048152632936598960e21b6020820152620000fd907feafec4d89fa9619884b60000a4d96624a38f7ac2d8d9a604ecf07c12c77e480c906200025c565b620001297fdeba1e292f8ba88238e10ab3c7f88bd4be4fac56cad5194b6ecceaf653468af1846200025c565b620001557f2f0a68ab07768e01943a599e73362a0e17a63a72e94dd2e384d2c1d4db932756836200025c565b50506040805160208101849052620001a192507f715f248956de7ce65e94d9d836bfead479f7e70d69b718d47bfe7b00e05b4fe4910160408051601f19818403018152919052620002a4565b5050505080600003620001c75760405163038d9fc360e41b815260040160405180910390fd5b608052600980546001600160a01b0319166001600160a01b039290921691909117905550620007d992505050565b6000546001600160a01b038281169116146200025957600080546001600160a01b038381166001600160a01b0319831681178455604051919092169283917f8be0079c531659141344cd1fd0a4f28419497f9722a3daafe3b4186f6b6457e09190a3505b50565b6000828152600160205260409020620002768282620006b0565b5081600080516020620037ae833981519152826040516200029891906200077c565b60405180910390a25050565b7f2145e1d6d074577dc71ef54c3807742b41b053a9352ae6b491331509acb9750f8201620002e5576040516385c169bd60e01b815260040160405180910390fd5b7fd0f59754f88971fe6bc5a6618cc9d5f1e859c58d16b22d1c7b2d3e2b246cd8aa82016200032657604051630eceab6760e31b815260040160405180910390fd5b6000828152600160205260409020620003408282620006b0565b5081600080516020620037ae8339815191526101008351111562000374576200036e83600061010062000385565b62000376565b825b6040516200029891906200077c565b6060816200039581601f620007b1565b1015620003d65760405162461bcd60e51b815260206004820152600e60248201526d736c6963655f6f766572666c6f7760901b6044820152606401620000a0565b620003e28284620007b1565b84511015620004285760405162461bcd60e51b8152602060048201526011602482015270736c6963655f6f75744f66426f756e647360781b6044820152606401620000a0565b60608215801562000449576040519150600082526020820160405262000495565b6040519150601f8416801560200281840101858101878315602002848b0101015b81831015620004845780518352602092830192016200046a565b5050858452601f01601f1916604052505b50949350505050565b634e487b7160e01b600052604160045260246000fd5b60005b83811015620004d1578181015183820152602001620004b7565b50506000910152565b600082601f830112620004ec57600080fd5b81516001600160401b03808211156200050957620005096200049e565b604051601f8301601f19908116603f011681019082821181831017156200053457620005346200049e565b816040528381528660208588010111156200054e57600080fd5b62000561846020830160208901620004b4565b9695505050505050565b80516001600160a01b03811681146200058357600080fd5b919050565b600080600080600060a08688031215620005a157600080fd5b85516001600160401b0380821115620005b957600080fd5b620005c789838a01620004da565b96506020880151915080821115620005de57600080fd5b50620005ed88828901620004da565b945050620005fe604087016200056b565b92506060860151915062000615608087016200056b565b90509295509295909350565b600181811c908216806200063657607f821691505b6020821081036200065757634e487b7160e01b600052602260045260246000fd5b50919050565b601f821115620006ab57600081815260208120601f850160051c81016020861015620006865750805b601f850160051c820191505b81811015620006a75782815560010162000692565b5050505b505050565b81516001600160401b03811115620006cc57620006cc6200049e565b620006e481620006dd845462000621565b846200065d565b602080601f8311600181146200071c5760008415620007035750858301515b600019600386901b1c1916600185901b178555620006a7565b600085815260208120601f198616915b828110156200074d578886015182559484019460019091019084016200072c565b50858210156200076c5787850151600019600388901b60f8161c191681555b5050505050600190811b01905550565b60208152600082518060208401526200079d816040850160208701620004b4565b601f01601f19169190910160400192915050565b80820180821115620007d357634e487b7160e01b600052601160045260246000fd5b92915050565b608051612fb2620007fc600039600081816103200152611a4d0152612fb26000f3fe6080604052600436106101655760003560e01c80637e87632c116100c15780639e75143c1161007a5780639e75143c14610497578063a3b261f2146104b7578063cd4977c8146104e4578063db8c966314610504578063dedff9c614610524578063f18776a014610551578063f2fde38b14610571576101c0565b80637e87632c146103e65780637f23690c1461040657806386a10ddd146104195780638da5cb5b1461043957806392a91a3a146104575780639790242114610484576101c0565b8063511b69521161011e578063511b6952146102f157806352058d8a1461031157806354f6127f14610344578063674986ff146103715780636cb1c9491461039157806370a08231146103b1578063715018a6146103d1576101c0565b806301ffc9a71461020157806318160ddd14610236578063217b2270146102555780632a3654a4146102825780632b7c023c146102a257806349a6078d146102c4576101c0565b366101c057346000036101a75760405163e5099ee360e01b815260040161019e9060208082526004908201526000604082015260600190565b60405180910390fd5b6040516330fa4a2160e11b815260040160405180910390fd5b600036606060048210156101eb57828260405163e5099ee360e01b815260040161019e92919061226c565b6101f58383610591565b80519350602001915050f35b34801561020d57600080fd5b5061022161021c36600461229b565b610687565b60405190151581526020015b60405180910390f35b34801561024257600080fd5b506002545b60405190815260200161022d565b34801561026157600080fd5b506102756102703660046122c5565b6106c7565b60405161022d91906122de565b34801561028e57600080fd5b5061022161029d36600461230e565b610700565b3480156102ae57600080fd5b506102c26102bd366004612423565b61071c565b005b3480156102d057600080fd5b506102e46102df3660046122c5565b6109b3565b60405161022d91906124a2565b3480156102fd57600080fd5b506102c261030c3660046124ef565b6109d5565b34801561031d57600080fd5b507f0000000000000000000000000000000000000000000000000000000000000000610247565b34801561035057600080fd5b5061036461035f3660046122c5565b610a19565b60405161022d9190612583565b34801561037d57600080fd5b5061022161038c366004612596565b610a24565b34801561039d57600080fd5b506102c26103ac366004612596565b610aae565b3480156103bd57600080fd5b506102476103cc3660046125b1565b610ba4565b3480156103dd57600080fd5b506102c2610bc5565b3480156103f257600080fd5b506102c2610401366004612798565b610bd9565b6102c261041436600461285c565b610cc8565b34801561042557600080fd5b506102c26104343660046128a2565b610cfd565b34801561044557600080fd5b506000546001600160a01b0316610275565b34801561046357600080fd5b506102476104723660046122c5565b60009081526007602052604090205490565b6102c26104923660046128f8565b610e8f565b3480156104a357600080fd5b50600954610275906001600160a01b031681565b3480156104c357600080fd5b506104d76104d23660046125b1565b610f4f565b60405161022d9190612951565b3480156104f057600080fd5b506102c26104ff366004612989565b610f73565b34801561051057600080fd5b506102c261051f3660046129c0565b61109d565b34801561053057600080fd5b5061054461053f366004612a27565b61115f565b60405161022d9190612a5b565b34801561055d57600080fd5b5061024761056c366004612abd565b611209565b34801561057d57600080fd5b506102c261058c3660046125b1565b611297565b606060006105aa6000356001600160e01b031916611310565b5090506001600160a01b0381166105e2576000356001600160e01b03191660405163bb370b2b60e01b815260040161019e9190612af0565b600080826001600160a01b031634878733346040516020016106079493929190612b05565b60408051601f198184030181529082905261062191612b30565b60006040518083038185875af1925050503d806000811461065e576040519150601f19603f3d011682016040523d82523d6000602084013e610663565b606091505b50915091508115610678579250610681915050565b80518060208301fd5b92915050565b60006001600160e01b03198216630e25267160e11b14806106b857506001600160e01b03198216632902c6c560e11b145b8061068157506106818261138e565b6000818152600360205260408120546001600160a01b03168061068157604051635747cd1b60e11b81526004810184905260240161019e565b600061070b826113c2565b61071583836113eb565b9392505050565b6009546001600160a01b0316331461074757604051634281885f60e11b815260040160405180910390fd5b6001600160a01b0319841661076f5760405163baceb31160e01b815260040160405180910390fd5b6040805160608101918290526316b96e9360e31b9091526000908073__$032f01bb2624c0993c8bfa756ae89be841$__63b5cb74986107b130606485016122de565b602060405180830381865af41580156107ce573d6000803e3d6000fd5b505050506040513d601f19601f820116820180604052508101906107f29190612b4c565b6001600160d01b03191681526001600160a01b03198087166020830152871660409182015251630849ed4d60e11b815290915060009073__$032f01bb2624c0993c8bfa756ae89be841$__90631093da9a90610852908590600401612b76565b602060405180830381865af415801561086f573d6000803e3d6000fd5b505050506040513d601f19601f820116820180604052508101906108939190612bb1565b90506108a0600a82611445565b6108bd5760405163b103414760e01b815260040160405180910390fd5b6040516320e5304f60e01b815260009073__$032f01bb2624c0993c8bfa756ae89be841$__906320e5304f906108f7908690600401612b76565b602060405180830381865af4158015610914573d6000803e3d6000fd5b505050506040513d601f19601f820116820180604052508101906109389190612bb1565b90506109438161145d565b156109615760405163136d457160e21b815260040160405180910390fd5b61096d8882878761147a565b60405181906001600160a01b0319808a1691908916907f8846f9de517619441451dee05d1a37b152ac31ba0b8b22c0635005860b90c40090600090a45050505050505050565b60606109be826113c2565b60008281526005602052604090206106819061148c565b6109df33846113eb565b610a0557604051631294d2a960e01b81526004810184905233602482015260440161019e565b610a128585858585611499565b5050505050565b606061068182611676565b60008073__$032f01bb2624c0993c8bfa756ae89be841$__63c27407d030856040518363ffffffff1660e01b8152600401610a60929190612bca565b602060405180830381865af4158015610a7d573d6000803e3d6000fd5b505050506040513d601f19601f82011682018060405250810190610aa19190612bb1565b9050610715600a82611445565b610ab6611718565b604051630c27407d60e41b815260009073__$032f01bb2624c0993c8bfa756ae89be841$__9063c27407d090610af29030908690600401612bca565b602060405180830381865af4158015610b0f573d6000803e3d6000fd5b505050506040513d601f19601f82011682018060405250810190610b339190612bb1565b9050610b40600a82611445565b610b5d5760405163b103414760e01b815260040160405180910390fd5b610b68600a82611781565b507fee0b0acde00de9a1c6e66517c637f4a59a543dff15739ad2200659454001896f82604051610b989190612bed565b60405180910390a15050565b6001600160a01b03811660009081526004602052604081206106819061178d565b610bcd611718565b610bd76000611797565b565b8451845181141580610bec575083518114155b80610bf8575082518114155b80610c04575081518114155b15610c22576040516393a8311960e01b815260040160405180910390fd5b60005b81811015610cbf57610cb7878281518110610c4257610c42612c02565b6020026020010151878381518110610c5c57610c5c612c02565b6020026020010151878481518110610c7657610c76612c02565b6020026020010151878581518110610c9057610c90612c02565b6020026020010151878681518110610caa57610caa612c02565b60200260200101516109d5565b600101610c25565b50505050505050565b610cd0611718565b3415610cef5760405163f36ba73760e01b815260040160405180910390fd5b610cf982826117fc565b5050565b6000610d08836106c7565b90506001600160a01b0381163314610d3957808333604051632d938f5160e11b815260040161019e93929190612c18565b6001600160a01b038416610d6057604051639577b8b360e01b815260040160405180910390fd5b836001600160a01b0316816001600160a01b031603610d92576040516344fed6b160e11b815260040160405180910390fd5b6000838152600560205260408120610daa9086611846565b905080610ddc576040516314ec4d6d60e31b81526001600160a01b03861660048201526024810185905260440161019e565b83826001600160a01b0316866001600160a01b03167e52e433f2d4225671bc164dd1cdc9a76044356091f27ad234798bd0cbf0834986604051610e1f9190612583565b60405180910390a460003385600186604051602001610e419493929190612c3b565b60408051601f198184030181529190529050610e876001600160a01b0387167f8a1c15a8799f71b547e08e2bcb2e85257e81b0a07eee2ce6712549eef1f009708361185b565b505050505050565b610e97611718565b3415610eb65760405163f36ba73760e01b815260040160405180910390fd5b8051825114610ed857604051633bcc897960e01b815260040160405180910390fd5b8151600003610efa576040516397da5f9560e01b815260040160405180910390fd5b60005b8251811015610f4a57610f42838281518110610f1b57610f1b612c02565b6020026020010151838381518110610f3557610f35612c02565b60200260200101516117fc565b600101610efd565b505050565b6001600160a01b03811660009081526004602052604090206060906106819061148c565b610f7b611718565b604051630c27407d60e41b815260009073__$032f01bb2624c0993c8bfa756ae89be841$__9063c27407d090610fb79030908790600401612bca565b602060405180830381865af4158015610fd4573d6000803e3d6000fd5b505050506040513d601f19601f82011682018060405250810190610ff89190612bb1565b90506001600160a01b0319831661102257604051633f0bb8a360e01b815260040160405180910390fd5b61102d600a82611445565b1561104b576040516376996b1f60e01b815260040160405180910390fd5b611056600a826118ef565b5061106181836117fc565b7fcd698deeac260311b9d0b77d8c223846316aec4961b01b0cdc1f26e666cd2503836040516110909190612bed565b60405180910390a1505050565b60006110a8846106c7565b90506001600160a01b03811633146110d957808433604051632d938f5160e11b815260040161019e93929190612c18565b6001600160a01b03851661110057604051639577b8b360e01b815260040160405180910390fd5b846001600160a01b0316816001600160a01b031603611132576040516344fed6b160e11b815260040160405180910390fd5b61113f85828686866118fb565b8215610a125760003385600085604051602001610e419493929190612c3b565b606081516001600160401b0381111561117a5761117a612360565b6040519080825280602002602001820160405280156111ad57816020015b60608152602001906001900390816111985790505b50905060005b8251811015611203576111de8382815181106111d1576111d1612c02565b6020026020010151611676565b8282815181106111f0576111f0612c02565b60209081029190910101526001016111b3565b50919050565b6040516332e33fa360e11b81523060048201526001600160a01b031980841660248301528216604482015260009073__$032f01bb2624c0993c8bfa756ae89be841$__906365c67f4690606401602060405180830381865af4158015611273573d6000803e3d6000fd5b505050506040513d601f19601f820116820180604052508101906107159190612bb1565b61129f611718565b6001600160a01b0381166113045760405162461bcd60e51b815260206004820152602660248201527f4f776e61626c653a206e6577206f776e657220697320746865207a65726f206160448201526564647265737360d01b606482015260840161019e565b61130d81611797565b50565b60008080611335696773c5a04a6d4300884b60b11b6001600160e01b0319861661199b565b9050600061134282611676565b905080516014141580156113565750805115155b1561137657806040516342bfe79f60e01b815260040161019e9190612583565b61137f81612c74565b60601c95600195509350505050565b60006001600160e01b0319821663061b8a4f60e31b14806113b357506113b3826119ef565b80610681575061068182611a14565b6113cb8161145d565b61130d57604051635747cd1b60e11b81526004810182905260240161019e565b60006113f6826106c7565b6001600160a01b0316836001600160a01b031614806107155750600082815260056020526040902061071590846001600160a01b03811660009081526001830160205260408120541515610715565b60008181526001830160205260408120541515610715565b6000908152600360205260409020546001600160a01b0316151590565b61148684848484611a4b565b50505050565b6060600061071583611aa5565b836001600160a01b0316856001600160a01b0316036114cb57604051635d67d6c160e01b815260040160405180910390fd5b60006114d6846106c7565b9050856001600160a01b0316816001600160a01b03161461151057808487604051632d938f5160e11b815260040161019e93929190612c18565b6001600160a01b038516611537576040516324ecef4d60e01b815260040160405180910390fd5b61154386868685611b00565b61154c846106c7565b90506115588685611b0c565b6001600160a01b038616600090815260046020526040902061157a9085611781565b506001600160a01b038516600090815260046020526040902061159d90856118ef565b506000848152600360205260409081902080546001600160a01b0319166001600160a01b0388811691821790925591518692918916907fb333c813a7426a7a11e2b190cad52c44119421594b47f6f32ace6d8c7207b2bf9061160490339089908990612cab565b60405180910390a46000868686856040516020016116259493929190612ce0565b60408051601f19818403018152919052905061166b6001600160a01b0388167fb23eae7e6d1564b295b4c3e3be402d9a2f0776c57bdf365903496f6fa481ab008361185b565b610cbf868583611b64565b600081815260016020526040902080546060919061169390612d13565b80601f01602080910402602001604051908101604052809291908181526020018280546116bf90612d13565b801561170c5780601f106116e15761010080835404028352916020019161170c565b820191906000526020600020905b8154815290600101906020018083116116ef57829003601f168201915b50505050509050919050565b3361172b6000546001600160a01b031690565b6001600160a01b031614610bd75760405162461bcd60e51b815260206004820181905260248201527f4f776e61626c653a2063616c6c6572206973206e6f7420746865206f776e6572604482015260640161019e565b60006107158383611c1c565b6000610681825490565b6000546001600160a01b0382811691161461130d57600080546001600160a01b038381166001600160a01b0319831681178455604051919092169283917f8be0079c531659141344cd1fd0a4f28419497f9722a3daafe3b4186f6b6457e09190a35050565b7f8ea0db76a9218319a16b2627c940152b860818f29648e72b840184ff1fa4b01c820161183c576040516329de089160e11b815260040160405180910390fd5b610cf98282611d0f565b6000610715836001600160a01b038416611e03565b6118756001600160a01b038416631aed5a8560e21b611e52565b15610f4a57604051631aed5a8560e21b81526001600160a01b03841690636bb56a14906118a89085908590600401612d47565b6000604051808303816000875af11580156118c7573d6000803e3d6000fd5b505050506040513d6000823e601f3d908101601f191682016040526114869190810190612d60565b60006107158383611e03565b60008381526005602052604081206119139087611ee6565b905080611945576040516312a8c6a360e21b81526001600160a01b03871660048201526024810185905260440161019e565b83856001600160a01b0316876001600160a01b03167f3ee932cea40ebbbfd8577d47156cc17cce8683802c57bbd1fb8c131c6f07af0a868660405161198b929190612dcd565b60405180910390a4505050505050565b604080516001600160b01b0319841660208201526000602a82018190526001600160601b03198416602c830152918291016040516020818303038152906040529050806119e790612de8565b949350505050565b60006001600160e01b0319821663a918fa6b60e01b1480610681575061068182611efb565b600080611a276301ffc9a760e01b611310565b5090506001600160a01b038116611a415750600092915050565b6107158184611e52565b7f0000000000000000000000000000000000000000000000000000000000000000600254611a7a906001612e22565b1115611a995760405163e8ba229160e01b815260040160405180910390fd5b61148684848484611f30565b60608160000180548060200260200160405190810160405280929190818152602001828054801561170c57602002820191906000526020600020905b815481526020019060010190808311611ae15750505050509050919050565b61148684848484612062565b600081815260056020526040812090611b248261178d565b90506000805b82811015610e8757611b3d846000612129565b9150611b5c8287876000604051806020016040528060008152506118fb565b600101611b2a565b611b7e6001600160a01b038416631aed5a8560e21b611e52565b15611bd157604051631aed5a8560e21b81526001600160a01b03841690636bb56a14906118a8907f0b084a55ebf70fd3c06fd755269dac2212c4d3f0f4d09079780bfa50c1b2984d908590600401612d47565b81610f4a576001600160a01b0383163b15611c015782604051634349776d60e01b815260040161019e91906122de565b82604051630317313760e01b815260040161019e91906122de565b60008181526001830160205260408120548015611d05576000611c40600183612e35565b8554909150600090611c5490600190612e35565b9050818114611cb9576000866000018281548110611c7457611c74612c02565b9060005260206000200154905080876000018481548110611c9757611c97612c02565b6000918252602080832090910192909255918252600188019052604090208390555b8554869080611cca57611cca612e48565b600190038181906000526020600020016000905590558560010160008681526020019081526020016000206000905560019350505050610681565b6000915050610681565b7f2145e1d6d074577dc71ef54c3807742b41b053a9352ae6b491331509acb9750f8201611d4f576040516385c169bd60e01b815260040160405180910390fd5b7fd0f59754f88971fe6bc5a6618cc9d5f1e859c58d16b22d1c7b2d3e2b246cd8aa8201611d8f57604051630eceab6760e31b815260040160405180910390fd5b6000828152600160205260409020611da78282612ea4565b50817fece574603820d07bc9b91f2a932baadf4628aabcb8afba49776529c14a6104b261010083511115611de857611de3836000610100612135565b611dea565b825b604051611df79190612583565b60405180910390a25050565b6000818152600183016020526040812054611e4a57508154600181810184556000848152602080822090930184905584548482528286019093526040902091909155610681565b506000610681565b6000806301ffc9a760e01b83604051602401611e6e9190612af0565b604051602081830303815290604052906001600160e01b0319166020820180516001600160e01b03838183161783525050505090506000806000602060008551602087018a617530fa92503d91506000519050828015611ecf575060208210155b8015611edb5750600081115b979650505050505050565b6000610715836001600160a01b038416611c1c565b60006001600160e01b031982166318a6a9a560e21b148061068157506301ffc9a760e01b6001600160e01b0319831614610681565b6001600160a01b038416611f57576040516324ecef4d60e01b815260040160405180910390fd5b611f646000858584611b00565b611f6d8361145d565b15611f8e576040516334c7b51160e01b81526004810184905260240161019e565b600260008154611f9d90612f63565b909155506001600160a01b0384166000908152600460205260409020611fc390846118ef565b5060008381526003602052604080822080546001600160a01b0319166001600160a01b03881690811790915590518592907fb333c813a7426a7a11e2b190cad52c44119421594b47f6f32ace6d8c7207b2bf9061202590339088908890612cab565b60405180910390a46000808585846040516020016120469493929190612ce0565b6040516020818303038152906040529050610a12858483611b64565b6001600160a01b03841661209c57600061207b60025490565b60008181526007602090815260408083208790558683526008909152902055505b6001600160a01b03831661212457600060016120b760025490565b6120c19190612e35565b60008481526008602052604090205490915081811015612103576000828152600760209081526040808320548484528184208190558352600890915290208190555b50600090815260076020908152604080832083905584835260089091528120555b611486565b60006107158383612242565b60608161214381601f612e22565b10156121825760405162461bcd60e51b815260206004820152600e60248201526d736c6963655f6f766572666c6f7760901b604482015260640161019e565b61218c8284612e22565b845110156121d05760405162461bcd60e51b8152602060048201526011602482015270736c6963655f6f75744f66426f756e647360781b604482015260640161019e565b6060821580156121ef5760405191506000825260208201604052612239565b6040519150601f8416801560200281840101858101878315602002848b0101015b81831015612228578051835260209283019201612210565b5050858452601f01601f1916604052505b50949350505050565b600082600001828154811061225957612259612c02565b9060005260206000200154905092915050565b60208152816020820152818360408301376000818301604090810191909152601f909201601f19160101919050565b6000602082840312156122ad57600080fd5b81356001600160e01b03198116811461071557600080fd5b6000602082840312156122d757600080fd5b5035919050565b6001600160a01b0391909116815260200190565b80356001600160a01b038116811461230957600080fd5b919050565b6000806040838503121561232157600080fd5b61232a836122f2565b946020939093013593505050565b80356001600160a01b03198116811461230957600080fd5b8035801515811461230957600080fd5b634e487b7160e01b600052604160045260246000fd5b604051601f8201601f191681016001600160401b038111828210171561239e5761239e612360565b604052919050565b60006001600160401b038211156123bf576123bf612360565b50601f01601f191660200190565b600082601f8301126123de57600080fd5b81356123f16123ec826123a6565b612376565b81815284602083860101111561240657600080fd5b816020850160208301376000918101602001919091529392505050565b600080600080600060a0868803121561243b57600080fd5b612444866122f2565b945061245260208701612338565b935061246060408701612338565b925061246e60608701612350565b915060808601356001600160401b0381111561248957600080fd5b612495888289016123cd565b9150509295509295909350565b6020808252825182820181905260009190848201906040850190845b818110156124e35783516001600160a01b0316835292840192918401916001016124be565b50909695505050505050565b600080600080600060a0868803121561250757600080fd5b612510866122f2565b945061251e602087016122f2565b93506040860135925061246e60608701612350565b60005b8381101561254e578181015183820152602001612536565b50506000910152565b6000815180845261256f816020860160208601612533565b601f01601f19169290920160200192915050565b6020815260006107156020830184612557565b6000602082840312156125a857600080fd5b61071582612338565b6000602082840312156125c357600080fd5b610715826122f2565b60006001600160401b038211156125e5576125e5612360565b5060051b60200190565b600082601f83011261260057600080fd5b813560206126106123ec836125cc565b82815260059290921b8401810191818101908684111561262f57600080fd5b8286015b8481101561265157612644816122f2565b8352918301918301612633565b509695505050505050565b600082601f83011261266d57600080fd5b8135602061267d6123ec836125cc565b82815260059290921b8401810191818101908684111561269c57600080fd5b8286015b8481101561265157803583529183019183016126a0565b600082601f8301126126c857600080fd5b813560206126d86123ec836125cc565b82815260059290921b840181019181810190868411156126f757600080fd5b8286015b848110156126515761270c81612350565b83529183019183016126fb565b600082601f83011261272a57600080fd5b8135602061273a6123ec836125cc565b82815260059290921b8401810191818101908684111561275957600080fd5b8286015b848110156126515780356001600160401b0381111561277c5760008081fd5b61278a8986838b01016123cd565b84525091830191830161275d565b600080600080600060a086880312156127b057600080fd5b85356001600160401b03808211156127c757600080fd5b6127d389838a016125ef565b965060208801359150808211156127e957600080fd5b6127f589838a016125ef565b9550604088013591508082111561280b57600080fd5b61281789838a0161265c565b9450606088013591508082111561282d57600080fd5b61283989838a016126b7565b9350608088013591508082111561284f57600080fd5b5061249588828901612719565b6000806040838503121561286f57600080fd5b8235915060208301356001600160401b0381111561288c57600080fd5b612898858286016123cd565b9150509250929050565b6000806000606084860312156128b757600080fd5b6128c0846122f2565b92506020840135915060408401356001600160401b038111156128e257600080fd5b6128ee868287016123cd565b9150509250925092565b6000806040838503121561290b57600080fd5b82356001600160401b038082111561292257600080fd5b61292e8683870161265c565b9350602085013591508082111561294457600080fd5b5061289885828601612719565b6020808252825182820181905260009190848201906040850190845b818110156124e35783518352928401929184019160010161296d565b6000806040838503121561299c57600080fd5b6129a583612338565b915060208301356001600160401b0381111561288c57600080fd5b600080600080608085870312156129d657600080fd5b6129df856122f2565b9350602085013592506129f460408601612350565b915060608501356001600160401b03811115612a0f57600080fd5b612a1b878288016123cd565b91505092959194509250565b600060208284031215612a3957600080fd5b81356001600160401b03811115612a4f57600080fd5b6119e78482850161265c565b6000602080830181845280855180835260408601915060408160051b870101925083870160005b82811015612ab057603f19888603018452612a9e858351612557565b94509285019290850190600101612a82565b5092979650505050505050565b60008060408385031215612ad057600080fd5b612ad983612338565b9150612ae760208401612338565b90509250929050565b6001600160e01b031991909116815260200190565b8385823760609290921b6001600160601b031916919092019081526014810191909152603401919050565b60008251612b42818460208701612533565b9190910192915050565b600060208284031215612b5e57600080fd5b81516001600160d01b03198116811461071557600080fd5b81516001600160d01b03191681526020808301516001600160a01b031990811691830191909152604092830151169181019190915260600190565b600060208284031215612bc357600080fd5b5051919050565b6001600160a01b039290921682526001600160a01b031916602082015260400190565b6001600160a01b031991909116815260200190565b634e487b7160e01b600052603260045260246000fd5b6001600160a01b0393841681526020810192909252909116604082015260600190565b60018060a01b03851681528360208201528215156040820152608060608201526000612c6a6080830184612557565b9695505050505050565b805160208201516001600160601b03198082169291906014831015612ca35780818460140360031b1b83161693505b505050919050565b6001600160a01b03841681528215156020820152606060408201819052600090612cd790830184612557565b95945050505050565b6001600160a01b0385811682528416602082015260408101839052608060608201819052600090612c6a90830184612557565b600181811c90821680612d2757607f821691505b60208210810361120357634e487b7160e01b600052602260045260246000fd5b8281526040602082015260006119e76040830184612557565b600060208284031215612d7257600080fd5b81516001600160401b03811115612d8857600080fd5b8201601f81018413612d9957600080fd5b8051612da76123ec826123a6565b818152856020838501011115612dbc57600080fd5b612cd7826020830160208601612533565b82151581526040602082015260006119e76040830184612557565b805160208083015191908110156112035760001960209190910360031b1b16919050565b634e487b7160e01b600052601160045260246000fd5b8082018082111561068157610681612e0c565b8181038181111561068157610681612e0c565b634e487b7160e01b600052603160045260246000fd5b601f821115610f4a57600081815260208120601f850160051c81016020861015612e855750805b601f850160051c820191505b81811015610e8757828155600101612e91565b81516001600160401b03811115612ebd57612ebd612360565b612ed181612ecb8454612d13565b84612e5e565b602080601f831160018114612f065760008415612eee5750858301515b600019600386901b1c1916600185901b178555610e87565b600085815260208120601f198616915b82811015612f3557888601518255948401946001909101908401612f16565b5085821015612f535787850151600019600388901b60f8161c191681555b5050505050600190811b01905550565b600060018201612f7557612f75612e0c565b506001019056fea2646970667358221220249584599c608202451633e7a907b5aadb7f904816b968b3ff903e625b093f3f64736f6c63430008130033ece574603820d07bc9b91f2a932baadf4628aabcb8afba49776529c14a6104b2",
  "linkReferences": {
    "contracts/TokenUtils.sol": {
      "TokenUtils": [
        {
          "length": 20,
          "start": 3976
        },
        {
          "length": 20,
          "start": 4134
        },
        {
          "length": 20,
          "start": 4299
        },
        {
          "length": 20,
          "start": 4645
        },
        {
          "length": 20,
          "start": 4804
        },
        {
          "length": 20,
          "start": 6025
        },
        {
          "length": 20,
          "start": 6709
        }
      ]
    }
  },
  "deployedLinkReferences": {
    "contracts/TokenUtils.sol": {
      "TokenUtils": [
        {
          "length": 20,
          "start": 1932
        },
        {
          "length": 20,
          "start": 2090
        },
        {
          "length": 20,
          "start": 2255
        },
        {
          "length": 20,
          "start": 2601
        },
        {
          "length": 20,
          "start": 2760
        },
        {
          "length": 20,
          "start": 3981
        },
        {
          "length": 20,
          "start": 4665
        }
      ]
    }
  }
}