{
  "_format": "hh-sol-artifact-1",
  "contractName": "Pass",
  "sourceName": "contracts/Pass.sol",
  "abi": [
    {
      "inputs": [
        {
          "internalType": "string",
          "name": "name_",
          "type": "string"
        },
        {
          "internalType": "string",
          "name": "symbol_",
          "type": "string"
        },
        {
          "internalType": "address",
          "name": "newOwner_",
          "type": "address"
        },
        {
          "internalType": "address",
          "name": "receiver",
          "type": "address"
        },
        {
          "internalType": "address",
          "name": "extension",
          "type": "address"
        }
      ],
      "stateMutability": "nonpayable",
      "type": "constructor"
    },
    {
      "inputs": [],
      "name": "ERC725Y_DataKeysValuesEmptyArray",
      "type": "error"
    },
    {
      "inputs": [],
      "name": "ERC725Y_DataKeysValuesLengthMismatch",
      "type": "error"
    },
    {
      "inputs": [],
      "name": "ERC725Y_MsgValueDisallowed",
      "type": "error"
    },
    {
      "inputs": [
        {
          "internalType": "bytes",
          "name": "storedData",
          "type": "bytes"
        }
      ],
      "name": "InvalidExtensionAddress",
      "type": "error"
    },
    {
      "inputs": [],
      "name": "InvalidFamilySignature",
      "type": "error"
    },
    {
      "inputs": [
        {
          "internalType": "bytes",
          "name": "data",
          "type": "bytes"
        }
      ],
      "name": "InvalidFunctionSelector",
      "type": "error"
    },
    {
      "inputs": [],
      "name": "LSP4TokenNameNotEditable",
      "type": "error"
    },
    {
      "inputs": [],
      "name": "LSP4TokenSymbolNotEditable",
      "type": "error"
    },
    {
      "inputs": [],
      "name": "LSP4TokenTypeNotEditable",
      "type": "error"
    },
    {
      "inputs": [
        {
          "internalType": "uint256",
          "name": "callIndex",
          "type": "uint256"
        }
      ],
      "name": "LSP8BatchCallFailed",
      "type": "error"
    },
    {
      "inputs": [],
      "name": "LSP8CannotSendToAddressZero",
      "type": "error"
    },
    {
      "inputs": [],
      "name": "LSP8CannotUseAddressZeroAsOperator",
      "type": "error"
    },
    {
      "inputs": [],
      "name": "LSP8CappedSupplyCannotMintOverCap",
      "type": "error"
    },
    {
      "inputs": [],
      "name": "LSP8CappedSupplyRequired",
      "type": "error"
    },
    {
      "inputs": [],
      "name": "LSP8InvalidTransferBatch",
      "type": "error"
    },
    {
      "inputs": [
        {
          "internalType": "bytes32",
          "name": "tokenId",
          "type": "bytes32"
        }
      ],
      "name": "LSP8NonExistentTokenId",
      "type": "error"
    },
    {
      "inputs": [
        {
          "internalType": "address",
          "name": "operator",
          "type": "address"
        },
        {
          "internalType": "bytes32",
          "name": "tokenId",
          "type": "bytes32"
        }
      ],
      "name": "LSP8NonExistingOperator",
      "type": "error"
    },
    {
      "inputs": [
        {
          "internalType": "bytes32",
          "name": "tokenId",
          "type": "bytes32"
        },
        {
          "internalType": "address",
          "name": "caller",
          "type": "address"
        }
      ],
      "name": "LSP8NotTokenOperator",
      "type": "error"
    },
    {
      "inputs": [
        {
          "internalType": "address",
          "name": "tokenOwner",
          "type": "address"
        },
        {
          "internalType": "bytes32",
          "name": "tokenId",
          "type": "bytes32"
        },
        {
          "internalType": "address",
          "name": "caller",
          "type": "address"
        }
      ],
      "name": "LSP8NotTokenOwner",
      "type": "error"
    },
    {
      "inputs": [
        {
          "internalType": "address",
          "name": "tokenReceiver",
          "type": "address"
        }
      ],
      "name": "LSP8NotifyTokenReceiverContractMissingLSP1Interface",
      "type": "error"
    },
    {
      "inputs": [
        {
          "internalType": "address",
          "name": "tokenReceiver",
          "type": "address"
        }
      ],
      "name": "LSP8NotifyTokenReceiverIsEOA",
      "type": "error"
    },
    {
      "inputs": [
        {
          "internalType": "address",
          "name": "operator",
          "type": "address"
        },
        {
          "internalType": "bytes32",
          "name": "tokenId",
          "type": "bytes32"
        }
      ],
      "name": "LSP8OperatorAlreadyAuthorized",
      "type": "error"
    },
    {
      "inputs": [
        {
          "internalType": "address",
          "name": "caller",
          "type": "address"
        },
        {
          "internalType": "address",
          "name": "tokenOwner",
          "type": "address"
        },
        {
          "internalType": "bytes32",
          "name": "tokenId",
          "type": "bytes32"
        }
      ],
      "name": "LSP8RevokeOperatorNotAuthorized",
      "type": "error"
    },
    {
      "inputs": [],
      "name": "LSP8TokenContractCannotHoldValue",
      "type": "error"
    },
    {
      "inputs": [
        {
          "internalType": "bytes32",
          "name": "tokenId",
          "type": "bytes32"
        }
      ],
      "name": "LSP8TokenIdAlreadyMinted",
      "type": "error"
    },
    {
      "inputs": [],
      "name": "LSP8TokenIdFormatNotEditable",
      "type": "error"
    },
    {
      "inputs": [],
      "name": "LSP8TokenIdsDataEmptyArray",
      "type": "error"
    },
    {
      "inputs": [],
      "name": "LSP8TokenIdsDataLengthMismatch",
      "type": "error"
    },
    {
      "inputs": [],
      "name": "LSP8TokenOwnerCannotBeOperator",
      "type": "error"
    },
    {
      "inputs": [
        {
          "internalType": "bytes32",
          "name": "tokenId",
          "type": "bytes32"
        },
        {
          "internalType": "address",
          "name": "oldOwner",
          "type": "address"
        },
        {
          "internalType": "address",
          "name": "newOwner",
          "type": "address"
        }
      ],
      "name": "LSP8TokenOwnerChanged",
      "type": "error"
    },
    {
      "inputs": [
        {
          "internalType": "bytes4",
          "name": "functionSelector",
          "type": "bytes4"
        }
      ],
      "name": "NoExtensionFoundForFunctionSelector",
      "type": "error"
    },
    {
      "anonymous": false,
      "inputs": [
        {
          "indexed": true,
          "internalType": "bytes32",
          "name": "dataKey",
          "type": "bytes32"
        },
        {
          "indexed": false,
          "internalType": "bytes",
          "name": "dataValue",
          "type": "bytes"
        }
      ],
      "name": "DataChanged",
      "type": "event"
    },
    {
      "anonymous": false,
      "inputs": [
        {
          "indexed": false,
          "internalType": "bytes",
          "name": "newTokenUri",
          "type": "bytes"
        }
      ],
      "name": "DefaultTokenDataChanged",
      "type": "event"
    },
    {
      "anonymous": false,
      "inputs": [
        {
          "indexed": true,
          "internalType": "address",
          "name": "operator",
          "type": "address"
        },
        {
          "indexed": true,
          "internalType": "address",
          "name": "tokenOwner",
          "type": "address"
        },
        {
          "indexed": true,
          "internalType": "bytes32",
          "name": "tokenId",
          "type": "bytes32"
        },
        {
          "indexed": false,
          "internalType": "bytes",
          "name": "operatorNotificationData",
          "type": "bytes"
        }
      ],
      "name": "OperatorAuthorizationChanged",
      "type": "event"
    },
    {
      "anonymous": false,
      "inputs": [
        {
          "indexed": true,
          "internalType": "address",
          "name": "operator",
          "type": "address"
        },
        {
          "indexed": true,
          "internalType": "address",
          "name": "tokenOwner",
          "type": "address"
        },
        {
          "indexed": true,
          "internalType": "bytes32",
          "name": "tokenId",
          "type": "bytes32"
        },
        {
          "indexed": false,
          "internalType": "bool",
          "name": "notified",
          "type": "bool"
        },
        {
          "indexed": false,
          "internalType": "bytes",
          "name": "operatorNotificationData",
          "type": "bytes"
        }
      ],
      "name": "OperatorRevoked",
      "type": "event"
    },
    {
      "anonymous": false,
      "inputs": [
        {
          "indexed": true,
          "internalType": "address",
          "name": "previousOwner",
          "type": "address"
        },
        {
          "indexed": true,
          "internalType": "address",
          "name": "newOwner",
          "type": "address"
        }
      ],
      "name": "OwnershipTransferred",
      "type": "event"
    },
    {
      "anonymous": false,
      "inputs": [
        {
          "indexed": false,
          "internalType": "address",
          "name": "",
          "type": "address"
        },
        {
          "indexed": false,
          "internalType": "uint256",
          "name": "",
          "type": "uint256"
        }
      ],
      "name": "Received",
      "type": "event"
    },
    {
      "anonymous": false,
      "inputs": [
        {
          "indexed": true,
          "internalType": "bytes32",
          "name": "tokenId",
          "type": "bytes32"
        },
        {
          "indexed": true,
          "internalType": "bytes32",
          "name": "dataKey",
          "type": "bytes32"
        },
        {
          "indexed": false,
          "internalType": "bytes",
          "name": "dataValue",
          "type": "bytes"
        }
      ],
      "name": "TokenIdDataChanged",
      "type": "event"
    },
    {
      "anonymous": false,
      "inputs": [
        {
          "indexed": false,
          "internalType": "address",
          "name": "operator",
          "type": "address"
        },
        {
          "indexed": true,
          "internalType": "address",
          "name": "from",
          "type": "address"
        },
        {
          "indexed": true,
          "internalType": "address",
          "name": "to",
          "type": "address"
        },
        {
          "indexed": true,
          "internalType": "bytes32",
          "name": "tokenId",
          "type": "bytes32"
        },
        {
          "indexed": false,
          "internalType": "bool",
          "name": "force",
          "type": "bool"
        },
        {
          "indexed": false,
          "internalType": "bytes",
          "name": "data",
          "type": "bytes"
        }
      ],
      "name": "Transfer",
      "type": "event"
    },
    {
      "stateMutability": "payable",
      "type": "fallback"
    },
    {
      "inputs": [
        {
          "internalType": "address",
          "name": "operator",
          "type": "address"
        },
        {
          "internalType": "bytes32",
          "name": "tokenId",
          "type": "bytes32"
        },
        {
          "internalType": "bytes",
          "name": "operatorNotificationData",
          "type": "bytes"
        }
      ],
      "name": "authorizeOperator",
      "outputs": [],
      "stateMutability": "nonpayable",
      "type": "function"
    },
    {
      "inputs": [
        {
          "internalType": "address",
          "name": "tokenOwner",
          "type": "address"
        }
      ],
      "name": "balanceOf",
      "outputs": [
        {
          "internalType": "uint256",
          "name": "",
          "type": "uint256"
        }
      ],
      "stateMutability": "view",
      "type": "function"
    },
    {
      "inputs": [
        {
          "internalType": "bytes[]",
          "name": "data",
          "type": "bytes[]"
        }
      ],
      "name": "batchCalls",
      "outputs": [
        {
          "internalType": "bytes[]",
          "name": "results",
          "type": "bytes[]"
        }
      ],
      "stateMutability": "nonpayable",
      "type": "function"
    },
    {
      "inputs": [
        {
          "internalType": "bytes32",
          "name": "tokenId",
          "type": "bytes32"
        },
        {
          "internalType": "bytes",
          "name": "data",
          "type": "bytes"
        }
      ],
      "name": "burn",
      "outputs": [],
      "stateMutability": "nonpayable",
      "type": "function"
    },
    {
      "inputs": [],
      "name": "defaultTokenUri",
      "outputs": [
        {
          "internalType": "bytes",
          "name": "",
          "type": "bytes"
        }
      ],
      "stateMutability": "view",
      "type": "function"
    },
    {
      "inputs": [],
      "name": "familyReceiver",
      "outputs": [
        {
          "internalType": "address",
          "name": "",
          "type": "address"
        }
      ],
      "stateMutability": "view",
      "type": "function"
    },
    {
      "inputs": [
        {
          "internalType": "bytes32",
          "name": "dataKey",
          "type": "bytes32"
        }
      ],
      "name": "getData",
      "outputs": [
        {
          "internalType": "bytes",
          "name": "dataValue",
          "type": "bytes"
        }
      ],
      "stateMutability": "view",
      "type": "function"
    },
    {
      "inputs": [
        {
          "internalType": "bytes32[]",
          "name": "dataKeys",
          "type": "bytes32[]"
        }
      ],
      "name": "getDataBatch",
      "outputs": [
        {
          "internalType": "bytes[]",
          "name": "dataValues",
          "type": "bytes[]"
        }
      ],
      "stateMutability": "view",
      "type": "function"
    },
    {
      "inputs": [
        {
          "internalType": "bytes32[]",
          "name": "tokenIds",
          "type": "bytes32[]"
        },
        {
          "internalType": "bytes32[]",
          "name": "dataKeys",
          "type": "bytes32[]"
        }
      ],
      "name": "getDataBatchForTokenIds",
      "outputs": [
        {
          "internalType": "bytes[]",
          "name": "dataValues",
          "type": "bytes[]"
        }
      ],
      "stateMutability": "view",
      "type": "function"
    },
    {
      "inputs": [
        {
          "internalType": "bytes32",
          "name": "tokenId",
          "type": "bytes32"
        },
        {
          "internalType": "bytes32",
          "name": "dataKey",
          "type": "bytes32"
        }
      ],
      "name": "getDataForTokenId",
      "outputs": [
        {
          "internalType": "bytes",
          "name": "dataValue",
          "type": "bytes"
        }
      ],
      "stateMutability": "view",
      "type": "function"
    },
    {
      "inputs": [
        {
          "internalType": "address",
          "name": "minter",
          "type": "address"
        },
        {
          "internalType": "uint256",
          "name": "maxBlock",
          "type": "uint256"
        },
        {
          "internalType": "uint256",
          "name": "price",
          "type": "uint256"
        }
      ],
      "name": "getMintHash",
      "outputs": [
        {
          "internalType": "bytes",
          "name": "message",
          "type": "bytes"
        }
      ],
      "stateMutability": "pure",
      "type": "function"
    },
    {
      "inputs": [
        {
          "internalType": "bytes32",
          "name": "tokenId",
          "type": "bytes32"
        }
      ],
      "name": "getOperatorsOf",
      "outputs": [
        {
          "internalType": "address[]",
          "name": "",
          "type": "address[]"
        }
      ],
      "stateMutability": "view",
      "type": "function"
    },
    {
      "inputs": [],
      "name": "getTotalMint",
      "outputs": [
        {
          "internalType": "uint256",
          "name": "number",
          "type": "uint256"
        }
      ],
      "stateMutability": "view",
      "type": "function"
    },
    {
      "inputs": [
        {
          "internalType": "address",
          "name": "user",
          "type": "address"
        }
      ],
      "name": "hasMinted",
      "outputs": [
        {
          "internalType": "bool",
          "name": "minted",
          "type": "bool"
        }
      ],
      "stateMutability": "view",
      "type": "function"
    },
    {
      "inputs": [
        {
          "internalType": "address",
          "name": "operator",
          "type": "address"
        },
        {
          "internalType": "bytes32",
          "name": "tokenId",
          "type": "bytes32"
        }
      ],
      "name": "isOperatorFor",
      "outputs": [
        {
          "internalType": "bool",
          "name": "",
          "type": "bool"
        }
      ],
      "stateMutability": "view",
      "type": "function"
    },
    {
      "inputs": [
        {
          "internalType": "address",
          "name": "to",
          "type": "address"
        }
      ],
      "name": "mintFiat",
      "outputs": [],
      "stateMutability": "nonpayable",
      "type": "function"
    },
    {
      "inputs": [
        {
          "internalType": "bytes",
          "name": "signature",
          "type": "bytes"
        },
        {
          "internalType": "uint256",
          "name": "maxBlock",
          "type": "uint256"
        },
        {
          "internalType": "uint256",
          "name": "price",
          "type": "uint256"
        }
      ],
      "name": "mintLYX",
      "outputs": [],
      "stateMutability": "payable",
      "type": "function"
    },
    {
      "inputs": [],
      "name": "orderExtension",
      "outputs": [
        {
          "internalType": "address",
          "name": "",
          "type": "address"
        }
      ],
      "stateMutability": "view",
      "type": "function"
    },
    {
      "inputs": [],
      "name": "owner",
      "outputs": [
        {
          "internalType": "address",
          "name": "",
          "type": "address"
        }
      ],
      "stateMutability": "view",
      "type": "function"
    },
    {
      "inputs": [],
      "name": "renounceOwnership",
      "outputs": [],
      "stateMutability": "nonpayable",
      "type": "function"
    },
    {
      "inputs": [
        {
          "internalType": "address",
          "name": "operator",
          "type": "address"
        },
        {
          "internalType": "bytes32",
          "name": "tokenId",
          "type": "bytes32"
        },
        {
          "internalType": "bool",
          "name": "notify",
          "type": "bool"
        },
        {
          "internalType": "bytes",
          "name": "operatorNotificationData",
          "type": "bytes"
        }
      ],
      "name": "revokeOperator",
      "outputs": [],
      "stateMutability": "nonpayable",
      "type": "function"
    },
    {
      "inputs": [
        {
          "internalType": "bytes32",
          "name": "dataKey",
          "type": "bytes32"
        },
        {
          "internalType": "bytes",
          "name": "dataValue",
          "type": "bytes"
        }
      ],
      "name": "setData",
      "outputs": [],
      "stateMutability": "payable",
      "type": "function"
    },
    {
      "inputs": [
        {
          "internalType": "bytes32[]",
          "name": "dataKeys",
          "type": "bytes32[]"
        },
        {
          "internalType": "bytes[]",
          "name": "dataValues",
          "type": "bytes[]"
        }
      ],
      "name": "setDataBatch",
      "outputs": [],
      "stateMutability": "payable",
      "type": "function"
    },
    {
      "inputs": [
        {
          "internalType": "bytes32[]",
          "name": "tokenIds",
          "type": "bytes32[]"
        },
        {
          "internalType": "bytes32[]",
          "name": "dataKeys",
          "type": "bytes32[]"
        },
        {
          "internalType": "bytes[]",
          "name": "dataValues",
          "type": "bytes[]"
        }
      ],
      "name": "setDataBatchForTokenIds",
      "outputs": [],
      "stateMutability": "nonpayable",
      "type": "function"
    },
    {
      "inputs": [
        {
          "internalType": "bytes32",
          "name": "tokenId",
          "type": "bytes32"
        },
        {
          "internalType": "bytes32",
          "name": "dataKey",
          "type": "bytes32"
        },
        {
          "internalType": "bytes",
          "name": "dataValue",
          "type": "bytes"
        }
      ],
      "name": "setDataForTokenId",
      "outputs": [],
      "stateMutability": "nonpayable",
      "type": "function"
    },
    {
      "inputs": [
        {
          "internalType": "bytes",
          "name": "newTokenUri",
          "type": "bytes"
        }
      ],
      "name": "setDefaultTokenUri",
      "outputs": [],
      "stateMutability": "nonpayable",
      "type": "function"
    },
    {
      "inputs": [
        {
          "internalType": "bytes4",
          "name": "interfaceId",
          "type": "bytes4"
        }
      ],
      "name": "supportsInterface",
      "outputs": [
        {
          "internalType": "bool",
          "name": "",
          "type": "bool"
        }
      ],
      "stateMutability": "view",
      "type": "function"
    },
    {
      "inputs": [
        {
          "internalType": "address",
          "name": "tokenOwner",
          "type": "address"
        }
      ],
      "name": "tokenIdsOf",
      "outputs": [
        {
          "internalType": "bytes32[]",
          "name": "",
          "type": "bytes32[]"
        }
      ],
      "stateMutability": "view",
      "type": "function"
    },
    {
      "inputs": [
        {
          "internalType": "bytes32",
          "name": "tokenId",
          "type": "bytes32"
        }
      ],
      "name": "tokenOwnerOf",
      "outputs": [
        {
          "internalType": "address",
          "name": "",
          "type": "address"
        }
      ],
      "stateMutability": "view",
      "type": "function"
    },
    {
      "inputs": [],
      "name": "tokenSupplyCap",
      "outputs": [
        {
          "internalType": "uint256",
          "name": "",
          "type": "uint256"
        }
      ],
      "stateMutability": "view",
      "type": "function"
    },
    {
      "inputs": [],
      "name": "totalSupply",
      "outputs": [
        {
          "internalType": "uint256",
          "name": "",
          "type": "uint256"
        }
      ],
      "stateMutability": "view",
      "type": "function"
    },
    {
      "inputs": [
        {
          "internalType": "address",
          "name": "from",
          "type": "address"
        },
        {
          "internalType": "address",
          "name": "to",
          "type": "address"
        },
        {
          "internalType": "bytes32",
          "name": "tokenId",
          "type": "bytes32"
        },
        {
          "internalType": "bool",
          "name": "force",
          "type": "bool"
        },
        {
          "internalType": "bytes",
          "name": "data",
          "type": "bytes"
        }
      ],
      "name": "transfer",
      "outputs": [],
      "stateMutability": "nonpayable",
      "type": "function"
    },
    {
      "inputs": [
        {
          "internalType": "address[]",
          "name": "from",
          "type": "address[]"
        },
        {
          "internalType": "address[]",
          "name": "to",
          "type": "address[]"
        },
        {
          "internalType": "bytes32[]",
          "name": "tokenId",
          "type": "bytes32[]"
        },
        {
          "internalType": "bool[]",
          "name": "force",
          "type": "bool[]"
        },
        {
          "internalType": "bytes[]",
          "name": "data",
          "type": "bytes[]"
        }
      ],
      "name": "transferBatch",
      "outputs": [],
      "stateMutability": "nonpayable",
      "type": "function"
    },
    {
      "inputs": [
        {
          "internalType": "address",
          "name": "newOwner",
          "type": "address"
        }
      ],
      "name": "transferOwnership",
      "outputs": [],
      "stateMutability": "nonpayable",
      "type": "function"
    },
    {
      "inputs": [
        {
          "internalType": "address",
          "name": "extension",
          "type": "address"
        }
      ],
      "name": "updateOrderExtension",
      "outputs": [],
      "stateMutability": "nonpayable",
      "type": "function"
    },
    {
      "stateMutability": "payable",
      "type": "receive"
    }
  ],
  "bytecode": "0x60a06040523480156200001157600080fd5b5060405162004131380380620041318339810160408190526200003491620004cc565b6101018585856001600084848484816001600160a01b038116620000ad5760405162461bcd60e51b815260206004820152602660248201527f4f776e61626c653a206e6577206f776e657220697320746865207a65726f206160448201526564647265737360d01b606482015260840160405180910390fd5b620000b8816200024f565b506040805180820190915260048152632936598960e21b602082015262000101907feafec4d89fa9619884b60000a4d96624a38f7ac2d8d9a604ecf07c12c77e480c90620002b6565b6200012d7fdeba1e292f8ba88238e10ab3c7f88bd4be4fac56cad5194b6ecceaf653468af185620002b6565b620001597f2f0a68ab07768e01943a599e73362a0e17a63a72e94dd2e384d2c1d4db93275684620002b6565b6040805160208101839052620001a2917fe0261fa95db2eb3b5439bd033cda66d56b96f92f243a8228fd87550ed7bdfdb3910160408051601f19818403018152919052620002b6565b50506040805160208101859052620001ef93507ff675e9361af1c1664c1868cfa3eb97672d6b1a513aa5b81dec34c9ee330e818d92500160408051601f198184030181529190526200030f565b505050505080600003620002165760405163038d9fc360e41b815260040160405180910390fd5b608052600980546001600160a01b039384166001600160a01b031991821617909155600a805492909316911617905550620006fe915050565b6000546001600160a01b03828116911614620002b357600080546001600160a01b038381166001600160a01b0319831681178455604051919092169283917f8be0079c531659141344cd1fd0a4f28419497f9722a3daafe3b4186f6b6457e09190a3505b50565b6000828152600160205260409020620002d08282620005fd565b50817fece574603820d07bc9b91f2a932baadf4628aabcb8afba49776529c14a6104b282604051620003039190620006c9565b60405180910390a25050565b6200031b82826200031f565b5050565b7f2145e1d6d074577dc71ef54c3807742b41b053a9352ae6b491331509acb9750f820162000360576040516385c169bd60e01b815260040160405180910390fd5b7fd0f59754f88971fe6bc5a6618cc9d5f1e859c58d16b22d1c7b2d3e2b246cd8aa8201620003a157604051630eceab6760e31b815260040160405180910390fd5b7f1fd9e056a24d14c4abc642fcc325992a946906d0dbc57dd70278aaf12842024d8201620002b657604051634ef6d7fb60e01b815260040160405180910390fd5b634e487b7160e01b600052604160045260246000fd5b60005b8381101562000415578181015183820152602001620003fb565b50506000910152565b600082601f8301126200043057600080fd5b81516001600160401b03808211156200044d576200044d620003e2565b604051601f8301601f19908116603f01168101908282118183101715620004785762000478620003e2565b816040528381528660208588010111156200049257600080fd5b620004a5846020830160208901620003f8565b9695505050505050565b80516001600160a01b0381168114620004c757600080fd5b919050565b600080600080600060a08688031215620004e557600080fd5b85516001600160401b0380821115620004fd57600080fd5b6200050b89838a016200041e565b965060208801519150808211156200052257600080fd5b5062000531888289016200041e565b9450506200054260408701620004af565b92506200055260608701620004af565b91506200056260808701620004af565b90509295509295909350565b600181811c908216806200058357607f821691505b602082108103620005a457634e487b7160e01b600052602260045260246000fd5b50919050565b601f821115620005f857600081815260208120601f850160051c81016020861015620005d35750805b601f850160051c820191505b81811015620005f457828155600101620005df565b5050505b505050565b81516001600160401b03811115620006195762000619620003e2565b62000631816200062a84546200056e565b84620005aa565b602080601f831160018114620006695760008415620006505750858301515b600019600386901b1c1916600185901b178555620005f4565b600085815260208120601f198616915b828110156200069a5788860151825594840194600190910190840162000679565b5085821015620006b95787850151600019600388901b60f8161c191681555b5050505050600190811b01905550565b6020815260008251806020840152620006ea816040850160208701620003f8565b601f01601f19169190910160400192915050565b608051613a1062000721600039600081816104300152611b000152613a106000f3fe6080604052600436106101c85760003560e01c8063715018a6116100f8578063a3b261f211610090578063a3b261f2146105cd578063b7231c6f146105fa578063be9f0e6f1461061a578063d6c1407c1461063a578063d795cdb71461065a578063db8c96631461066f578063dd5ffa1e1461068f578063dedff9c6146106a4578063f2fde38b146106c457610223565b8063715018a6146104d45780637db4b78f146104e95780637e87632c146105095780637f23690c1461052957806382664be01461053c57806386a10ddd1461055c5780638da5cb5b1461057c578063979024211461059a578063a3ab4aac146105ad57610223565b806342789c5b1161016b57806342789c5b146103a157806349a6078d146103b45780634ffd7d54146103e1578063511b69521461040157806352058d8a1461042157806354f6127f146104545780636963d438146104745780636c79b70b1461049457806370a08231146104b457610223565b806301ffc9a71461026457806316e023b31461029957806318160ddd146102c65780631d26fce6146102e5578063217b2270146103125780632a3654a41461033f57806337e3f8dc1461035f57806338e21cce1461038157610223565b36610223573460000361020a5760405163e5099ee360e01b81526004016102019060208082526004908201526000604082015260600190565b60405180910390fd5b6040516330fa4a2160e11b815260040160405180910390fd5b6000366060600482101561024e57828260405163e5099ee360e01b81526004016102019291906129cb565b61025883836106e4565b80519350602001915050f35b34801561027057600080fd5b5061028461027f3660046129fa565b6107da565b60405190151581526020015b60405180910390f35b3480156102a557600080fd5b506102b96102b4366004612a24565b61080e565b6040516102909190612a96565b3480156102d257600080fd5b506002545b604051908152602001610290565b3480156102f157600080fd5b50610305610300366004612b7d565b610821565b6040516102909190612be0565b34801561031e57600080fd5b5061033261032d366004612c42565b610908565b6040516102909190612c5b565b34801561034b57600080fd5b5061028461035a366004612c8b565b610941565b34801561036b57600080fd5b5061037f61037a366004612cb5565b61094d565b005b34801561038d57600080fd5b5061028461039c366004612d26565b6109a0565b61037f6103af366004612db9565b6109ad565b3480156103c057600080fd5b506103d46103cf366004612c42565b610c61565b6040516102909190612e06565b3480156103ed57600080fd5b506102b96103fc366004612e53565b610c83565b34801561040d57600080fd5b5061037f61041c366004612e96565b610cff565b34801561042d57600080fd5b507f00000000000000000000000000000000000000000000000000000000000000006102d7565b34801561046057600080fd5b506102b961046f366004612c42565b610d43565b34801561048057600080fd5b5061030561048f366004612f0e565b610d4e565b3480156104a057600080fd5b5061037f6104af366004612f70565b610e7d565b3480156104c057600080fd5b506102d76104cf366004612d26565b610ed5565b3480156104e057600080fd5b5061037f610ef6565b3480156104f557600080fd5b5061037f610504366004612d26565b610f0a565b34801561051557600080fd5b5061037f6105243660046130ef565b610f87565b61037f610537366004612f70565b611076565b34801561054857600080fd5b5061037f610557366004612d26565b6110a7565b34801561056857600080fd5b5061037f6105773660046131b3565b6110d1565b34801561058857600080fd5b506000546001600160a01b0316610332565b61037f6105a8366004613209565b611239565b3480156105b957600080fd5b50600a54610332906001600160a01b031681565b3480156105d957600080fd5b506105ed6105e8366004612d26565b6112f4565b6040516102909190613262565b34801561060657600080fd5b50600954610332906001600160a01b031681565b34801561062657600080fd5b5061037f61063536600461329a565b611318565b34801561064657600080fd5b5061037f610655366004613317565b6113e3565b34801561066657600080fd5b506102d76113f6565b34801561067b57600080fd5b5061037f61068a366004613350565b611407565b34801561069b57600080fd5b506102b96114eb565b3480156106b057600080fd5b506103056106bf3660046133b7565b611579565b3480156106d057600080fd5b5061037f6106df366004612d26565b611623565b606060006106fd6000356001600160e01b03191661169c565b5090506001600160a01b038116610735576000356001600160e01b03191660405163bb370b2b60e01b815260040161020191906133eb565b600080826001600160a01b0316348787333460405160200161075a9493929190613400565b60408051601f19818403018152908290526107749161342b565b60006040518083038185875af1925050503d80600081146107b1576040519150601f19603f3d011682016040523d82523d6000602084013e6107b6565b606091505b509150915081156107cb5792506107d4915050565b80518060208301fd5b92915050565b60006001600160e01b03198216631d138b8360e11b14806107ff57506107ff8261171a565b806107d457506107d48261173f565b606061081a8383611776565b9392505050565b60608151835114610845576040516317d38eff60e11b815260040160405180910390fd5b82516001600160401b0381111561085e5761085e612aa9565b60405190808252806020026020018201604052801561089157816020015b606081526020019060019003908161087c5790505b50905060005b8351811015610901576108dc8482815181106108b5576108b5613447565b60200260200101518483815181106108cf576108cf613447565b6020026020010151611776565b8282815181106108ee576108ee613447565b6020908102919091010152600101610897565b5092915050565b6000818152600360205260408120546001600160a01b0316806107d457604051635747cd1b60e11b815260048101849052602401610201565b600061081a838361188b565b6109556118c8565b600b6109628284836134ec565b507ff85f74f3190acca77203c20a6d4934fd0908afeec893df8bc8c9ca6edfbf9be882826040516109949291906129cb565b60405180910390a15050565b60006107d4600783611931565b6109b8600733611931565b156109d55760405162461bcd60e51b8152600401610201906135a5565b81431115610a1c5760405162461bcd60e51b8152602060048201526014602482015273109b1bd8dac81b1a5b5a5d08195e18d95959195960621b6044820152606401610201565b803414610a5b5760405162461bcd60e51b815260206004820152600d60248201526c496e76616c696420707269636560981b6044820152606401610201565b60006002546001610a6c91906135ed565b6009546040519192506000916001600160a01b039091169084908381818185875af1925050503d8060008114610abe576040519150601f19603f3d011682016040523d82523d6000602084013e610ac3565b606091505b5050905080610b315760405162461bcd60e51b815260206004820152603460248201527f5472616e7366657248656c7065723a3a736166655472616e736665724c59583a60448201527308131656081d1c985b9cd9995c8819985a5b195960621b6064820152608401610201565b600033604051602001610b449190613600565b60408051601f1981840301815282825260208301889052910160408051601f1981840301815282825260208301889052910160408051601f1981840301815290829052610b95939291602001613618565b60405160208183030381529060405290506000610be682805190602001207f19457468657265756d205369676e6564204d6573736167653a0a3332000000006000908152601c91909152603c902090565b9050630b135d3f60e11b610bfa8289611953565b6001600160e01b03191614610c2257604051632f86bfc360e11b815260040160405180910390fd5b610c4c338560001b600160405180604001604052806002815260200161060f60f31b815250611afe565b610c57600733611b58565b5050505050505050565b6060610c6c82611b6d565b60008281526005602052604090206107d490611b96565b606083604051602001610c969190613600565b60408051601f1981840301815282825260208301869052910160408051601f1981840301815282825260208301869052910160408051601f1981840301815290829052610ce7939291602001613618565b60405160208183030381529060405290509392505050565b610d09338461188b565b610d2f57604051631294d2a960e01b815260048101849052336024820152604401610201565b610d3c8585858585611ba3565b5050505050565b60606107d482611d55565b6060816001600160401b03811115610d6857610d68612aa9565b604051908082528060200260200182016040528015610d9b57816020015b6060815260200190600190039081610d865790505b50905060005b828110156109015760008030868685818110610dbf57610dbf613447565b9050602002810190610dd1919061365b565b604051610ddf9291906136a1565b600060405180830381855af49150503d8060008114610e1a576040519150601f19603f3d011682016040523d82523d6000602084013e610e1f565b606091505b509150915081610e5557805115610e395780518082602001fd5b60405163234eb81960e01b815260048101849052602401610201565b80848481518110610e6857610e68613447565b60209081029190910101525050600101610da1565b600a546001600160a01b03163314610ec75760405162461bcd60e51b815260206004820152600d60248201526c1058d8d95cdcc811195b9a5959609a1b6044820152606401610201565b610ed18282611df7565b5050565b6001600160a01b03811660009081526004602052604081206107d490611ed9565b610efe6118c8565b610f086000611ee3565b565b610f126118c8565b610f1d600782611931565b15610f3a5760405162461bcd60e51b8152600401610201906135a5565b60006002546001610f4b91906135ed565b9050610f77828260001b600160405180604001604052806002815260200161060f60f31b815250611afe565b610f82600783611b58565b505050565b8451845181141580610f9a575083518114155b80610fa6575082518114155b80610fb2575081518114155b15610fd0576040516393a8311960e01b815260040160405180910390fd5b60005b8181101561106d57611065878281518110610ff057610ff0613447565b602002602001015187838151811061100a5761100a613447565b602002602001015187848151811061102457611024613447565b602002602001015187858151811061103e5761103e613447565b602002602001015187868151811061105857611058613447565b6020026020010151610cff565b600101610fd3565b50505050505050565b61107e6118c8565b341561109d5760405163f36ba73760e01b815260040160405180910390fd5b610ed18282611f48565b6110af6118c8565b600a80546001600160a01b0319166001600160a01b0392909216919091179055565b60006110dc83610908565b90506001600160a01b038116331461110d57808333604051632d938f5160e11b8152600401610201939291906136b1565b6001600160a01b03841661113457604051639577b8b360e01b815260040160405180910390fd5b836001600160a01b0316816001600160a01b031603611166576040516344fed6b160e11b815260040160405180910390fd5b600083815260056020526040812061117e9086611b58565b9050806111b0576040516314ec4d6d60e31b81526001600160a01b038616600482015260248101859052604401610201565b83826001600160a01b0316866001600160a01b03167f1b1b58aa2ec0cec2228b2d37124556d41f5a1f7b12f089171f896cc236671215866040516111f49190612a96565b60405180910390a46000338560018660405160200161121694939291906136d4565b60405160208183030381529060405290506112318682611f92565b505050505050565b6112416118c8565b34156112605760405163f36ba73760e01b815260040160405180910390fd5b805182511461128257604051633bcc897960e01b815260040160405180910390fd5b81516000036112a4576040516397da5f9560e01b815260040160405180910390fd5b60005b8251811015610f82576112ec8382815181106112c5576112c5613447565b60200260200101518383815181106112df576112df613447565b6020026020010151611f48565b6001016112a7565b6001600160a01b03811660009081526004602052604090206060906107d490611b96565b6113206118c8565b8151835114158061133357508051825114155b15611351576040516317d38eff60e11b815260040160405180910390fd5b8251600003611373576040516380c9830560e01b815260040160405180910390fd5b60005b83518110156113dd576113d584828151811061139457611394613447565b60200260200101518483815181106113ae576113ae613447565b60200260200101518484815181106113c8576113c8613447565b6020026020010151611fbd565b600101611376565b50505050565b6113eb6118c8565b610f82838383611fbd565b60006114026007611ed9565b905090565b600061141284610908565b9050336001600160a01b03821614611465576001600160a01b03851633146114655760405163760b5acd60e01b81523360048201526001600160a01b038216602482015260448101859052606401610201565b6001600160a01b03851661148c57604051639577b8b360e01b815260040160405180910390fd5b846001600160a01b0316816001600160a01b0316036114be576040516344fed6b160e11b815260040160405180910390fd5b6114cb858286868661201f565b8215610d3c576000818560008560405160200161121694939291906136d4565b600b80546114f89061345d565b80601f01602080910402602001604051908101604052809291908181526020018280546115249061345d565b80156115715780601f1061154657610100808354040283529160200191611571565b820191906000526020600020905b81548152906001019060200180831161155457829003601f168201915b505050505081565b606081516001600160401b0381111561159457611594612aa9565b6040519080825280602002602001820160405280156115c757816020015b60608152602001906001900390816115b25790505b50905060005b825181101561161d576115f88382815181106115eb576115eb613447565b6020026020010151611d55565b82828151811061160a5761160a613447565b60209081029190910101526001016115cd565b50919050565b61162b6118c8565b6001600160a01b0381166116905760405162461bcd60e51b815260206004820152602660248201527f4f776e61626c653a206e6577206f776e657220697320746865207a65726f206160448201526564647265737360d01b6064820152608401610201565b61169981611ee3565b50565b600080806116c1696773c5a04a6d4300884b60b11b6001600160e01b031986166120bf565b905060006116ce82611d55565b905080516014141580156116e25750805115155b1561170257806040516342bfe79f60e01b81526004016102019190612a96565b61170b8161370d565b60601c95600195509350505050565b60006001600160e01b0319821663a918fa6b60e01b14806107d457506107d482612113565b6000806117526301ffc9a760e01b61169c565b5090506001600160a01b03811661176c5750600092915050565b61081a8184612148565b6060600061178484846121dc565b90507f9afb95cacc9f95858ec44aa8c3b685511002e30ae54415823f406128b85b238e831480156117b457508051155b1561081a5760006117e47f1a7628600c3bac7101f53697f48df381ddc36b9015e7d7c9c5633d1252aa2843611d55565b9050805160000361188357600b80546117fc9061345d565b80601f01602080910402602001604051908101604052809291908181526020018280546118289061345d565b80156118755780601f1061184a57610100808354040283529160200191611875565b820191906000526020600020905b81548152906001019060200180831161185857829003601f168201915b5050505050925050506107d4565b509392505050565b600061189682610908565b6001600160a01b0316836001600160a01b0316148061081a5750600082815260056020526040902061081a9084611931565b336118db6000546001600160a01b031690565b6001600160a01b031614610f085760405162461bcd60e51b815260206004820181905260248201527f4f776e61626c653a2063616c6c6572206973206e6f7420746865206f776e65726044820152606401610201565b6001600160a01b0381166000908152600183016020526040812054151561081a565b6000806119686000546001600160a01b031690565b90506001600160a01b0381163b15611a8557600080826001600160a01b0316631626ba7e60e01b87876040516024016119a2929190613744565b60408051601f198184030181529181526020820180516001600160e01b03166001600160e01b03199094169390931790925290516119e0919061342b565b600060405180830381855afa9150503d8060008114611a1b576040519150601f19603f3d011682016040523d82523d6000602084013e611a20565b606091505b50915091506000828015611a35575081516020145b8015611a5c57508151630b135d3f60e11b90611a5a908401602090810190850161375d565b145b905080611a71576001600160e01b0319611a7a565b630b135d3f60e11b5b9450505050506107d4565b600080611a92868661228a565b90925090506000816004811115611aab57611aab613776565b14611ac457506001600160e01b031992506107d4915050565b826001600160a01b0316826001600160a01b031614611aeb576001600160e01b0319611af4565b630b135d3f60e11b5b93505050506107d4565b7f0000000000000000000000000000000000000000000000000000000000000000600254611b2d9060016135ed565b1115611b4c5760405163e8ba229160e01b815260040160405180910390fd5b6113dd848484846122cf565b600061081a836001600160a01b03841661240f565b611b768161245e565b61169957604051635747cd1b60e11b815260048101829052602401610201565b6060600061081a8361247b565b6000611bae84610908565b9050856001600160a01b0316816001600160a01b031614611be857808487604051632d938f5160e11b8152600401610201939291906136b1565b6001600160a01b038516611c0f576040516324ecef4d60e01b815260040160405180910390fd5b6000611c1a85610908565b9050806001600160a01b0316826001600160a01b031614611c6857604051635a9c31d360e01b8152600481018690526001600160a01b03808416602483015282166044820152606401610201565b611c7287866124d6565b6001600160a01b0387166000908152600460205260409020611c94908661252e565b506001600160a01b0386166000908152600460205260409020611cb7908661253a565b506000858152600360205260409081902080546001600160a01b0319166001600160a01b0389811691821790925591518792918a16906000805160206139bb83398151915290611d0c9033908a908a9061378c565b60405180910390a460003388888887604051602001611d2f9594939291906137c1565b6040516020818303038152906040529050611d4a8882612546565b610c57878683612571565b6000818152600160205260409020805460609190611d729061345d565b80601f0160208091040260200160405190810160405280929190818152602001828054611d9e9061345d565b8015611deb5780601f10611dc057610100808354040283529160200191611deb565b820191906000526020600020905b815481529060010190602001808311611dce57829003601f168201915b50505050509050919050565b6000611e0283610908565b9050611e0d83610908565b9050600260008154611e1e906137fc565b90915550611e2c81846124d6565b6001600160a01b0381166000908152600460205260409020611e4e908461252e565b5060008381526003602052604080822080546001600160a01b0319169055518491906001600160a01b038416906000805160206139bb83398151915290611e9a9033908590899061378c565b60405180910390a46000338260008686604051602001611ebe9594939291906137c1565b60405160208183030381529060405290506113dd8282612546565b60006107d4825490565b6000546001600160a01b0382811691161461169957600080546001600160a01b038381166001600160a01b0319831681178455604051919092169283917f8be0079c531659141344cd1fd0a4f28419497f9722a3daafe3b4186f6b6457e09190a35050565b7f098a16c9e50e3e99b3e797305c146898d294e5aec55a47e213cb3611ccf17e738201611f8857604051631b32400560e11b815260040160405180910390fd5b610ed18282612667565b610ed1827f8a1c15a8799f71b547e08e2bcb2e85257e81b0a07eee2ce6712549eef1f0097083612671565b60008381526006602090815260408083208584529091529020611fe08282613813565b5081837fa6e4251f855f750545fe414f120db91c76b88def14d120969e5bb2d3f05debbb836040516120129190612a96565b60405180910390a3505050565b600083815260056020526040812061203790876126be565b905080612069576040516312a8c6a360e21b81526001600160a01b038716600482015260248101859052604401610201565b83856001600160a01b0316876001600160a01b03167fc78cd419d6136f9f1c1c6aec1d3fae098cffaf8bc86314a8f2685e32fe574e3c86866040516120af9291906138cc565b60405180910390a4505050505050565b604080516001600160b01b0319841660208201526000602a82018190526001600160601b03198416602c8301529182910160405160208183030381529060405290508061210b906138e7565b949350505050565b60006001600160e01b031982166318a6a9a560e21b14806107d457506301ffc9a760e01b6001600160e01b03198316146107d4565b6000806301ffc9a760e01b8360405160240161216491906133eb565b604051602081830303815290604052906001600160e01b0319166020820180516001600160e01b03838183161783525050505090506000806000602060008551602087018a617530fa92503d915060005190508280156121c5575060208210155b80156121d15750600081115b979650505050505050565b600082815260066020908152604080832084845290915290208054606091906122049061345d565b80601f01602080910402602001604051908101604052809291908181526020018280546122309061345d565b801561227d5780601f106122525761010080835404028352916020019161227d565b820191906000526020600020905b81548152906001019060200180831161226057829003601f168201915b5050505050905092915050565b60008082516041036122c05760208301516040840151606085015160001a6122b4878285856126d3565b945094505050506122c8565b506000905060025b9250929050565b6001600160a01b0384166122f6576040516324ecef4d60e01b815260040160405180910390fd5b6122ff8361245e565b15612320576040516334c7b51160e01b815260048101849052602401610201565b6123298361245e565b1561234a576040516334c7b51160e01b815260048101849052602401610201565b6002600081546123599061390b565b909155506001600160a01b038416600090815260046020526040902061237f908461253a565b5060008381526003602052604080822080546001600160a01b0319166001600160a01b03881690811790915590518592906000805160206139bb833981519152906123cf9033908890889061378c565b60405180910390a460003360008686856040516020016123f39594939291906137c1565b6040516020818303038152906040529050610d3c858483612571565b6000818152600183016020526040812054612456575081546001818101845560008481526020808220909301849055845484825282860190935260409020919091556107d4565b5060006107d4565b6000908152600360205260409020546001600160a01b0316151590565b606081600001805480602002602001604051908101604052809291908181526020018280548015611deb57602002820191906000526020600020905b8154815260200190600101908083116124b75750505050509050919050565b6000818152600560205260408120906124ee82611ed9565b90506000805b828110156112315761250784600061278d565b915061252682878760006040518060200160405280600081525061201f565b6001016124f4565b600061081a8383612799565b600061081a838361240f565b610ed1827fb23eae7e6d1564b295b4c3e3be402d9a2f0776c57bdf365903496f6fa481ab0083612671565b61258283631aed5a8560e21b612148565b1561261c57604051631aed5a8560e21b81526001600160a01b03841690636bb56a14906125d5907f0b084a55ebf70fd3c06fd755269dac2212c4d3f0f4d09079780bfa50c1b2984d908590600401613744565b6000604051808303816000875af11580156125f4573d6000803e3d6000fd5b505050506040513d6000823e601f3d908101601f191682016040526113dd9190810190613924565b81610f82576001600160a01b0383163b1561264c5782604051634349776d60e01b81526004016102019190612c5b565b82604051630317313760e01b81526004016102019190612c5b565b610ed1828261288c565b61268b6001600160a01b038416631aed5a8560e21b612148565b15610f8257604051631aed5a8560e21b81526001600160a01b03841690636bb56a14906125d59085908590600401613744565b600061081a836001600160a01b038416612799565b6000806fa2a8918ca85bafe22016d0b997e4df60600160ff1b038311156127005750600090506003612784565b6040805160008082526020820180845289905260ff881692820192909252606081018690526080810185905260019060a0016020604051602081039080840390855afa158015612754573d6000803e3d6000fd5b5050604051601f1901519150506001600160a01b03811661277d57600060019250925050612784565b9150600090505b94509492505050565b600061081a83836129a1565b600081815260018301602052604081205480156128825760006127bd600183613991565b85549091506000906127d190600190613991565b90508181146128365760008660000182815481106127f1576127f1613447565b906000526020600020015490508087600001848154811061281457612814613447565b6000918252602080832090910192909255918252600188019052604090208390555b8554869080612847576128476139a4565b6001900381819060005260206000200160009055905585600101600086815260200190815260200160002060009055600193505050506107d4565b60009150506107d4565b7f2145e1d6d074577dc71ef54c3807742b41b053a9352ae6b491331509acb9750f82016128cc576040516385c169bd60e01b815260040160405180910390fd5b7fd0f59754f88971fe6bc5a6618cc9d5f1e859c58d16b22d1c7b2d3e2b246cd8aa820161290c57604051630eceab6760e31b815260040160405180910390fd5b7f1fd9e056a24d14c4abc642fcc325992a946906d0dbc57dd70278aaf12842024d820161294c57604051634ef6d7fb60e01b815260040160405180910390fd5b60008281526001602052604090206129648282613813565b50817fece574603820d07bc9b91f2a932baadf4628aabcb8afba49776529c14a6104b2826040516129959190612a96565b60405180910390a25050565b60008260000182815481106129b8576129b8613447565b9060005260206000200154905092915050565b60208152816020820152818360408301376000818301604090810191909152601f909201601f19160101919050565b600060208284031215612a0c57600080fd5b81356001600160e01b03198116811461081a57600080fd5b60008060408385031215612a3757600080fd5b50508035926020909101359150565b60005b83811015612a61578181015183820152602001612a49565b50506000910152565b60008151808452612a82816020860160208601612a46565b601f01601f19169290920160200192915050565b60208152600061081a6020830184612a6a565b634e487b7160e01b600052604160045260246000fd5b604051601f8201601f191681016001600160401b0381118282101715612ae757612ae7612aa9565b604052919050565b60006001600160401b03821115612b0857612b08612aa9565b5060051b60200190565b600082601f830112612b2357600080fd5b81356020612b38612b3383612aef565b612abf565b82815260059290921b84018101918181019086841115612b5757600080fd5b8286015b84811015612b725780358352918301918301612b5b565b509695505050505050565b60008060408385031215612b9057600080fd5b82356001600160401b0380821115612ba757600080fd5b612bb386838701612b12565b93506020850135915080821115612bc957600080fd5b50612bd685828601612b12565b9150509250929050565b6000602080830181845280855180835260408601915060408160051b870101925083870160005b82811015612c3557603f19888603018452612c23858351612a6a565b94509285019290850190600101612c07565b5092979650505050505050565b600060208284031215612c5457600080fd5b5035919050565b6001600160a01b0391909116815260200190565b80356001600160a01b0381168114612c8657600080fd5b919050565b60008060408385031215612c9e57600080fd5b612ca783612c6f565b946020939093013593505050565b60008060208385031215612cc857600080fd5b82356001600160401b0380821115612cdf57600080fd5b818501915085601f830112612cf357600080fd5b813581811115612d0257600080fd5b866020828501011115612d1457600080fd5b60209290920196919550909350505050565b600060208284031215612d3857600080fd5b61081a82612c6f565b60006001600160401b03821115612d5a57612d5a612aa9565b50601f01601f191660200190565b600082601f830112612d7957600080fd5b8135612d87612b3382612d41565b818152846020838601011115612d9c57600080fd5b816020850160208301376000918101602001919091529392505050565b600080600060608486031215612dce57600080fd5b83356001600160401b03811115612de457600080fd5b612df086828701612d68565b9660208601359650604090950135949350505050565b6020808252825182820181905260009190848201906040850190845b81811015612e475783516001600160a01b031683529284019291840191600101612e22565b50909695505050505050565b600080600060608486031215612e6857600080fd5b612e7184612c6f565b95602085013595506040909401359392505050565b80358015158114612c8657600080fd5b600080600080600060a08688031215612eae57600080fd5b612eb786612c6f565b9450612ec560208701612c6f565b935060408601359250612eda60608701612e86565b915060808601356001600160401b03811115612ef557600080fd5b612f0188828901612d68565b9150509295509295909350565b60008060208385031215612f2157600080fd5b82356001600160401b0380821115612f3857600080fd5b818501915085601f830112612f4c57600080fd5b813581811115612f5b57600080fd5b8660208260051b8501011115612d1457600080fd5b60008060408385031215612f8357600080fd5b8235915060208301356001600160401b03811115612fa057600080fd5b612bd685828601612d68565b600082601f830112612fbd57600080fd5b81356020612fcd612b3383612aef565b82815260059290921b84018101918181019086841115612fec57600080fd5b8286015b84811015612b725761300181612c6f565b8352918301918301612ff0565b600082601f83011261301f57600080fd5b8135602061302f612b3383612aef565b82815260059290921b8401810191818101908684111561304e57600080fd5b8286015b84811015612b725761306381612e86565b8352918301918301613052565b600082601f83011261308157600080fd5b81356020613091612b3383612aef565b82815260059290921b840181019181810190868411156130b057600080fd5b8286015b84811015612b725780356001600160401b038111156130d35760008081fd5b6130e18986838b0101612d68565b8452509183019183016130b4565b600080600080600060a0868803121561310757600080fd5b85356001600160401b038082111561311e57600080fd5b61312a89838a01612fac565b9650602088013591508082111561314057600080fd5b61314c89838a01612fac565b9550604088013591508082111561316257600080fd5b61316e89838a01612b12565b9450606088013591508082111561318457600080fd5b61319089838a0161300e565b935060808801359150808211156131a657600080fd5b50612f0188828901613070565b6000806000606084860312156131c857600080fd5b6131d184612c6f565b92506020840135915060408401356001600160401b038111156131f357600080fd5b6131ff86828701612d68565b9150509250925092565b6000806040838503121561321c57600080fd5b82356001600160401b038082111561323357600080fd5b61323f86838701612b12565b9350602085013591508082111561325557600080fd5b50612bd685828601613070565b6020808252825182820181905260009190848201906040850190845b81811015612e475783518352928401929184019160010161327e565b6000806000606084860312156132af57600080fd5b83356001600160401b03808211156132c657600080fd5b6132d287838801612b12565b945060208601359150808211156132e857600080fd5b6132f487838801612b12565b9350604086013591508082111561330a57600080fd5b506131ff86828701613070565b60008060006060848603121561332c57600080fd5b833592506020840135915060408401356001600160401b038111156131f357600080fd5b6000806000806080858703121561336657600080fd5b61336f85612c6f565b93506020850135925061338460408601612e86565b915060608501356001600160401b0381111561339f57600080fd5b6133ab87828801612d68565b91505092959194509250565b6000602082840312156133c957600080fd5b81356001600160401b038111156133df57600080fd5b61210b84828501612b12565b6001600160e01b031991909116815260200190565b8385823760609290921b6001600160601b031916919092019081526014810191909152603401919050565b6000825161343d818460208701612a46565b9190910192915050565b634e487b7160e01b600052603260045260246000fd5b600181811c9082168061347157607f821691505b60208210810361161d57634e487b7160e01b600052602260045260246000fd5b601f821115610f8257600081815260208120601f850160051c810160208610156134b85750805b601f850160051c820191505b81811015611231578281556001016134c4565b600019600383901b1c191660019190911b1790565b6001600160401b0383111561350357613503612aa9565b61351783613511835461345d565b83613491565b6000601f84116001811461354557600085156135335750838201355b61353d86826134d7565b845550610d3c565b600083815260209020601f19861690835b828110156135765786850135825560209485019460019092019101613556565b50868210156135935760001960f88860031b161c19848701351681555b505060018560011b0183555050505050565b60208082526018908201527755736572206d696e746564207061737320416c726561647960401b604082015260600190565b634e487b7160e01b600052601160045260246000fd5b808201808211156107d4576107d46135d7565b60609190911b6001600160601b031916815260140190565b6000845161362a818460208901612a46565b84519083019061363e818360208901612a46565b8451910190613651818360208801612a46565b0195945050505050565b6000808335601e1984360301811261367257600080fd5b8301803591506001600160401b0382111561368c57600080fd5b6020019150368190038213156122c857600080fd5b8183823760009101908152919050565b6001600160a01b0393841681526020810192909252909116604082015260600190565b60018060a01b038516815283602082015282151560408201526080606082015260006137036080830184612a6a565b9695505050505050565b805160208201516001600160601b0319808216929190601483101561373c5780818460140360031b1b83161693505b505050919050565b82815260406020820152600061210b6040830184612a6a565b60006020828403121561376f57600080fd5b5051919050565b634e487b7160e01b600052602160045260246000fd5b6001600160a01b038416815282151560208201526060604082018190526000906137b890830184612a6a565b95945050505050565b6001600160a01b0386811682528581166020830152841660408201526060810183905260a0608082018190526000906121d190830184612a6a565b60008161380b5761380b6135d7565b506000190190565b81516001600160401b0381111561382c5761382c612aa9565b6138408161383a845461345d565b84613491565b602080601f83116001811461386f576000841561385d5750858301515b61386785826134d7565b865550611231565b600085815260208120601f198616915b8281101561389e5788860151825594840194600190910190840161387f565b50858210156138bc5787850151600019600388901b60f8161c191681555b5050505050600190811b01905550565b821515815260406020820152600061210b6040830184612a6a565b8051602080830151919081101561161d5760001960209190910360031b1b16919050565b60006001820161391d5761391d6135d7565b5060010190565b60006020828403121561393657600080fd5b81516001600160401b0381111561394c57600080fd5b8201601f8101841361395d57600080fd5b805161396b612b3382612d41565b81815285602083850101111561398057600080fd5b6137b8826020830160208601612a46565b818103818111156107d4576107d46135d7565b634e487b7160e01b600052603160045260246000fdfeb333c813a7426a7a11e2b190cad52c44119421594b47f6f32ace6d8c7207b2bfa2646970667358221220730b263374baa562b006ae00b2f86fd66952756763d5612905e6b57f421e06b164736f6c63430008140033",
  "linkReferences": {},
  "deployedLinkReferences": {}
}