{
  "_format": "hh-sol-artifact-1",
  "contractName": "AssetPlaceholder",
  "sourceName": "contracts/AssetPlaceholder.sol",
  "abi": [
    {
      "inputs": [
        {
          "internalType": "string",
          "name": "name_",
          "type": "string"
        },
        {
          "internalType": "string",
          "name": "symbol_",
          "type": "string"
        },
        {
          "internalType": "address",
          "name": "newOwner_",
          "type": "address"
        },
        {
          "internalType": "address",
          "name": "assetRegistry_",
          "type": "address"
        }
      ],
      "stateMutability": "nonpayable",
      "type": "constructor"
    },
    {
      "inputs": [],
      "name": "CollectionAddressCannotBeZero",
      "type": "error"
    },
    {
      "inputs": [],
      "name": "CollectionAlreadyRegistered",
      "type": "error"
    },
    {
      "inputs": [],
      "name": "CollectionNotRegistered",
      "type": "error"
    },
    {
      "inputs": [],
      "name": "ERC725Y_DataKeysValuesEmptyArray",
      "type": "error"
    },
    {
      "inputs": [],
      "name": "ERC725Y_DataKeysValuesLengthMismatch",
      "type": "error"
    },
    {
      "inputs": [],
      "name": "ERC725Y_MsgValueDisallowed",
      "type": "error"
    },
    {
      "inputs": [
        {
          "internalType": "bytes",
          "name": "storedData",
          "type": "bytes"
        }
      ],
      "name": "InvalidExtensionAddress",
      "type": "error"
    },
    {
      "inputs": [],
      "name": "InvalidFamilySignature",
      "type": "error"
    },
    {
      "inputs": [
        {
          "internalType": "bytes",
          "name": "data",
          "type": "bytes"
        }
      ],
      "name": "InvalidFunctionSelector",
      "type": "error"
    },
    {
      "inputs": [],
      "name": "LSP4TokenNameNotEditable",
      "type": "error"
    },
    {
      "inputs": [],
      "name": "LSP4TokenSymbolNotEditable",
      "type": "error"
    },
    {
      "inputs": [],
      "name": "LSP8CannotSendToAddressZero",
      "type": "error"
    },
    {
      "inputs": [],
      "name": "LSP8CannotSendToSelf",
      "type": "error"
    },
    {
      "inputs": [],
      "name": "LSP8CannotUseAddressZeroAsOperator",
      "type": "error"
    },
    {
      "inputs": [],
      "name": "LSP8InvalidTransferBatch",
      "type": "error"
    },
    {
      "inputs": [
        {
          "internalType": "bytes32",
          "name": "tokenId",
          "type": "bytes32"
        }
      ],
      "name": "LSP8NonExistentTokenId",
      "type": "error"
    },
    {
      "inputs": [
        {
          "internalType": "address",
          "name": "operator",
          "type": "address"
        },
        {
          "internalType": "bytes32",
          "name": "tokenId",
          "type": "bytes32"
        }
      ],
      "name": "LSP8NonExistingOperator",
      "type": "error"
    },
    {
      "inputs": [
        {
          "internalType": "bytes32",
          "name": "tokenId",
          "type": "bytes32"
        },
        {
          "internalType": "address",
          "name": "caller",
          "type": "address"
        }
      ],
      "name": "LSP8NotTokenOperator",
      "type": "error"
    },
    {
      "inputs": [
        {
          "internalType": "address",
          "name": "tokenOwner",
          "type": "address"
        },
        {
          "internalType": "bytes32",
          "name": "tokenId",
          "type": "bytes32"
        },
        {
          "internalType": "address",
          "name": "caller",
          "type": "address"
        }
      ],
      "name": "LSP8NotTokenOwner",
      "type": "error"
    },
    {
      "inputs": [
        {
          "internalType": "address",
          "name": "operator",
          "type": "address"
        },
        {
          "internalType": "bytes32",
          "name": "tokenId",
          "type": "bytes32"
        }
      ],
      "name": "LSP8OperatorAlreadyAuthorized",
      "type": "error"
    },
    {
      "inputs": [],
      "name": "LSP8TokenContractCannotHoldValue",
      "type": "error"
    },
    {
      "inputs": [
        {
          "internalType": "bytes32",
          "name": "tokenId",
          "type": "bytes32"
        }
      ],
      "name": "LSP8TokenIdAlreadyMinted",
      "type": "error"
    },
    {
      "inputs": [],
      "name": "LSP8TokenIdTypeNotEditable",
      "type": "error"
    },
    {
      "inputs": [],
      "name": "LSP8TokenOwnerCannotBeOperator",
      "type": "error"
    },
    {
      "inputs": [],
      "name": "MintLimitReachedForCollection",
      "type": "error"
    },
    {
      "inputs": [],
      "name": "MintingPeriodEnded",
      "type": "error"
    },
    {
      "inputs": [],
      "name": "MintingPeriodNotStarted",
      "type": "error"
    },
    {
      "inputs": [
        {
          "internalType": "bytes4",
          "name": "functionSelector",
          "type": "bytes4"
        }
      ],
      "name": "NoExtensionFoundForFunctionSelector",
      "type": "error"
    },
    {
      "inputs": [],
      "name": "TokenIsFrozen",
      "type": "error"
    },
    {
      "inputs": [],
      "name": "TokenNotReadyToBeRegistered",
      "type": "error"
    },
    {
      "inputs": [],
      "name": "VariantNotRegistered",
      "type": "error"
    },
    {
      "anonymous": false,
      "inputs": [
        {
          "indexed": true,
          "internalType": "address",
          "name": "operator",
          "type": "address"
        },
        {
          "indexed": true,
          "internalType": "address",
          "name": "tokenOwner",
          "type": "address"
        },
        {
          "indexed": true,
          "internalType": "bytes32",
          "name": "tokenId",
          "type": "bytes32"
        },
        {
          "indexed": false,
          "internalType": "bytes",
          "name": "operatorNotificationData",
          "type": "bytes"
        }
      ],
      "name": "AuthorizedOperator",
      "type": "event"
    },
    {
      "anonymous": false,
      "inputs": [
        {
          "indexed": true,
          "internalType": "bytes32",
          "name": "dataKey",
          "type": "bytes32"
        },
        {
          "indexed": false,
          "internalType": "bytes",
          "name": "dataValue",
          "type": "bytes"
        }
      ],
      "name": "DataChanged",
      "type": "event"
    },
    {
      "anonymous": false,
      "inputs": [
        {
          "indexed": true,
          "internalType": "address",
          "name": "previousOwner",
          "type": "address"
        },
        {
          "indexed": true,
          "internalType": "address",
          "name": "newOwner",
          "type": "address"
        }
      ],
      "name": "OwnershipTransferred",
      "type": "event"
    },
    {
      "anonymous": false,
      "inputs": [
        {
          "indexed": false,
          "internalType": "address",
          "name": "",
          "type": "address"
        },
        {
          "indexed": false,
          "internalType": "uint256",
          "name": "",
          "type": "uint256"
        }
      ],
      "name": "Received",
      "type": "event"
    },
    {
      "anonymous": false,
      "inputs": [
        {
          "indexed": true,
          "internalType": "address",
          "name": "operator",
          "type": "address"
        },
        {
          "indexed": true,
          "internalType": "address",
          "name": "tokenOwner",
          "type": "address"
        },
        {
          "indexed": true,
          "internalType": "bytes32",
          "name": "tokenId",
          "type": "bytes32"
        },
        {
          "indexed": false,
          "internalType": "bool",
          "name": "notified",
          "type": "bool"
        },
        {
          "indexed": false,
          "internalType": "bytes",
          "name": "operatorNotificationData",
          "type": "bytes"
        }
      ],
      "name": "RevokedOperator",
      "type": "event"
    },
    {
      "anonymous": false,
      "inputs": [
        {
          "indexed": false,
          "internalType": "address",
          "name": "operator",
          "type": "address"
        },
        {
          "indexed": true,
          "internalType": "address",
          "name": "from",
          "type": "address"
        },
        {
          "indexed": true,
          "internalType": "address",
          "name": "to",
          "type": "address"
        },
        {
          "indexed": true,
          "internalType": "bytes32",
          "name": "tokenId",
          "type": "bytes32"
        },
        {
          "indexed": false,
          "internalType": "bool",
          "name": "force",
          "type": "bool"
        },
        {
          "indexed": false,
          "internalType": "bytes",
          "name": "data",
          "type": "bytes"
        }
      ],
      "name": "Transfer",
      "type": "event"
    },
    {
      "stateMutability": "payable",
      "type": "fallback"
    },
    {
      "inputs": [],
      "name": "assetRegistry",
      "outputs": [
        {
          "internalType": "address",
          "name": "",
          "type": "address"
        }
      ],
      "stateMutability": "view",
      "type": "function"
    },
    {
      "inputs": [
        {
          "internalType": "address",
          "name": "operator",
          "type": "address"
        },
        {
          "internalType": "bytes32",
          "name": "tokenId",
          "type": "bytes32"
        },
        {
          "internalType": "bytes",
          "name": "operatorNotificationData",
          "type": "bytes"
        }
      ],
      "name": "authorizeOperator",
      "outputs": [],
      "stateMutability": "nonpayable",
      "type": "function"
    },
    {
      "inputs": [
        {
          "internalType": "address",
          "name": "tokenOwner",
          "type": "address"
        }
      ],
      "name": "balanceOf",
      "outputs": [
        {
          "internalType": "uint256",
          "name": "",
          "type": "uint256"
        }
      ],
      "stateMutability": "view",
      "type": "function"
    },
    {
      "inputs": [
        {
          "internalType": "address",
          "name": "",
          "type": "address"
        }
      ],
      "name": "collectionMeta",
      "outputs": [
        {
          "internalType": "uint48",
          "name": "startAt",
          "type": "uint48"
        },
        {
          "internalType": "uint48",
          "name": "endAt",
          "type": "uint48"
        },
        {
          "internalType": "uint96",
          "name": "count",
          "type": "uint96"
        },
        {
          "internalType": "bool",
          "name": "digital",
          "type": "bool"
        }
      ],
      "stateMutability": "view",
      "type": "function"
    },
    {
      "inputs": [
        {
          "internalType": "bytes6",
          "name": "",
          "type": "bytes6"
        }
      ],
      "name": "collections",
      "outputs": [
        {
          "internalType": "address",
          "name": "",
          "type": "address"
        }
      ],
      "stateMutability": "view",
      "type": "function"
    },
    {
      "inputs": [
        {
          "internalType": "bytes32",
          "name": "tokenId",
          "type": "bytes32"
        }
      ],
      "name": "freeze",
      "outputs": [],
      "stateMutability": "nonpayable",
      "type": "function"
    },
    {
      "inputs": [
        {
          "internalType": "bytes32",
          "name": "dataKey",
          "type": "bytes32"
        }
      ],
      "name": "getData",
      "outputs": [
        {
          "internalType": "bytes",
          "name": "dataValue",
          "type": "bytes"
        }
      ],
      "stateMutability": "view",
      "type": "function"
    },
    {
      "inputs": [
        {
          "internalType": "bytes32[]",
          "name": "dataKeys",
          "type": "bytes32[]"
        }
      ],
      "name": "getDataBatch",
      "outputs": [
        {
          "internalType": "bytes[]",
          "name": "dataValues",
          "type": "bytes[]"
        }
      ],
      "stateMutability": "view",
      "type": "function"
    },
    {
      "inputs": [
        {
          "internalType": "bytes32",
          "name": "tokenId",
          "type": "bytes32"
        }
      ],
      "name": "getOperatorsOf",
      "outputs": [
        {
          "internalType": "address[]",
          "name": "",
          "type": "address[]"
        }
      ],
      "stateMutability": "view",
      "type": "function"
    },
    {
      "inputs": [
        {
          "internalType": "address",
          "name": "operator",
          "type": "address"
        },
        {
          "internalType": "bytes32",
          "name": "tokenId",
          "type": "bytes32"
        }
      ],
      "name": "isOperatorFor",
      "outputs": [
        {
          "internalType": "bool",
          "name": "",
          "type": "bool"
        }
      ],
      "stateMutability": "view",
      "type": "function"
    },
    {
      "inputs": [
        {
          "internalType": "address",
          "name": "to",
          "type": "address"
        },
        {
          "internalType": "address",
          "name": "collection",
          "type": "address"
        },
        {
          "internalType": "bytes12",
          "name": "variantId",
          "type": "bytes12"
        },
        {
          "internalType": "bool",
          "name": "allowNonLSP1Recipient",
          "type": "bool"
        },
        {
          "internalType": "bytes",
          "name": "data",
          "type": "bytes"
        },
        {
          "internalType": "bool",
          "name": "frozen",
          "type": "bool"
        }
      ],
      "name": "mint",
      "outputs": [],
      "stateMutability": "nonpayable",
      "type": "function"
    },
    {
      "inputs": [],
      "name": "owner",
      "outputs": [
        {
          "internalType": "address",
          "name": "",
          "type": "address"
        }
      ],
      "stateMutability": "view",
      "type": "function"
    },
    {
      "inputs": [
        {
          "internalType": "string",
          "name": "uid",
          "type": "string"
        },
        {
          "internalType": "bytes",
          "name": "signature",
          "type": "bytes"
        },
        {
          "internalType": "bytes32",
          "name": "_tokenId",
          "type": "bytes32"
        }
      ],
      "name": "register",
      "outputs": [],
      "stateMutability": "nonpayable",
      "type": "function"
    },
    {
      "inputs": [
        {
          "internalType": "address",
          "name": "collection",
          "type": "address"
        },
        {
          "internalType": "uint48",
          "name": "startAt",
          "type": "uint48"
        },
        {
          "internalType": "uint48",
          "name": "duration",
          "type": "uint48"
        },
        {
          "internalType": "bool",
          "name": "digital",
          "type": "bool"
        }
      ],
      "name": "registerCollection",
      "outputs": [],
      "stateMutability": "nonpayable",
      "type": "function"
    },
    {
      "inputs": [],
      "name": "renounceOwnership",
      "outputs": [],
      "stateMutability": "nonpayable",
      "type": "function"
    },
    {
      "inputs": [
        {
          "internalType": "address",
          "name": "operator",
          "type": "address"
        },
        {
          "internalType": "bytes32",
          "name": "tokenId",
          "type": "bytes32"
        },
        {
          "internalType": "bool",
          "name": "notify",
          "type": "bool"
        },
        {
          "internalType": "bytes",
          "name": "operatorNotificationData",
          "type": "bytes"
        }
      ],
      "name": "revokeOperator",
      "outputs": [],
      "stateMutability": "nonpayable",
      "type": "function"
    },
    {
      "inputs": [
        {
          "internalType": "bytes32",
          "name": "dataKey",
          "type": "bytes32"
        },
        {
          "internalType": "bytes",
          "name": "dataValue",
          "type": "bytes"
        }
      ],
      "name": "setData",
      "outputs": [],
      "stateMutability": "payable",
      "type": "function"
    },
    {
      "inputs": [
        {
          "internalType": "bytes32[]",
          "name": "dataKeys",
          "type": "bytes32[]"
        },
        {
          "internalType": "bytes[]",
          "name": "dataValues",
          "type": "bytes[]"
        }
      ],
      "name": "setDataBatch",
      "outputs": [],
      "stateMutability": "payable",
      "type": "function"
    },
    {
      "inputs": [
        {
          "internalType": "bytes4",
          "name": "_interfaceId",
          "type": "bytes4"
        }
      ],
      "name": "supportsInterface",
      "outputs": [
        {
          "internalType": "bool",
          "name": "",
          "type": "bool"
        }
      ],
      "stateMutability": "view",
      "type": "function"
    },
    {
      "inputs": [
        {
          "internalType": "address",
          "name": "tokenOwner",
          "type": "address"
        }
      ],
      "name": "tokenIdsOf",
      "outputs": [
        {
          "internalType": "bytes32[]",
          "name": "",
          "type": "bytes32[]"
        }
      ],
      "stateMutability": "view",
      "type": "function"
    },
    {
      "inputs": [
        {
          "internalType": "bytes32",
          "name": "tokenId",
          "type": "bytes32"
        }
      ],
      "name": "tokenOwnerOf",
      "outputs": [
        {
          "internalType": "address",
          "name": "",
          "type": "address"
        }
      ],
      "stateMutability": "view",
      "type": "function"
    },
    {
      "inputs": [],
      "name": "totalSupply",
      "outputs": [
        {
          "internalType": "uint256",
          "name": "",
          "type": "uint256"
        }
      ],
      "stateMutability": "view",
      "type": "function"
    },
    {
      "inputs": [
        {
          "internalType": "address",
          "name": "from",
          "type": "address"
        },
        {
          "internalType": "address",
          "name": "to",
          "type": "address"
        },
        {
          "internalType": "bytes32",
          "name": "tokenId",
          "type": "bytes32"
        },
        {
          "internalType": "bool",
          "name": "allowNonLSP1Recipient",
          "type": "bool"
        },
        {
          "internalType": "bytes",
          "name": "data",
          "type": "bytes"
        }
      ],
      "name": "transfer",
      "outputs": [],
      "stateMutability": "nonpayable",
      "type": "function"
    },
    {
      "inputs": [
        {
          "internalType": "address[]",
          "name": "from",
          "type": "address[]"
        },
        {
          "internalType": "address[]",
          "name": "to",
          "type": "address[]"
        },
        {
          "internalType": "bytes32[]",
          "name": "tokenId",
          "type": "bytes32[]"
        },
        {
          "internalType": "bool[]",
          "name": "force",
          "type": "bool[]"
        },
        {
          "internalType": "bytes[]",
          "name": "data",
          "type": "bytes[]"
        }
      ],
      "name": "transferBatch",
      "outputs": [],
      "stateMutability": "nonpayable",
      "type": "function"
    },
    {
      "inputs": [
        {
          "internalType": "address",
          "name": "newOwner",
          "type": "address"
        }
      ],
      "name": "transferOwnership",
      "outputs": [],
      "stateMutability": "nonpayable",
      "type": "function"
    },
    {
      "inputs": [
        {
          "internalType": "address",
          "name": "collection",
          "type": "address"
        },
        {
          "internalType": "uint48",
          "name": "duration",
          "type": "uint48"
        }
      ],
      "name": "updateMintDuration",
      "outputs": [],
      "stateMutability": "nonpayable",
      "type": "function"
    },
    {
      "stateMutability": "payable",
      "type": "receive"
    }
  ],
  "bytecode": "0x60806040523480156200001157600080fd5b506040516200447b3803806200447b833981016040819052620000349162000562565b8383836003838383806001600160a01b038116620000a85760405162461bcd60e51b815260206004820152602660248201527f4f776e61626c653a206e6577206f776e657220697320746865207a65726f206160448201526564647265737360d01b60648201526084015b60405180910390fd5b620000b381620001cf565b506040805180820190915260048152632936598960e21b6020820152620000fc907feafec4d89fa9619884b60000a4d96624a38f7ac2d8d9a604ecf07c12c77e480c9062000236565b620001287fdeba1e292f8ba88238e10ab3c7f88bd4be4fac56cad5194b6ecceaf653468af18462000236565b620001547f2f0a68ab07768e01943a599e73362a0e17a63a72e94dd2e384d2c1d4db9327568362000236565b50506040805160208101849052620001a092507f715f248956de7ce65e94d9d836bfead479f7e70d69b718d47bfe7b00e05b4fe4910160408051601f198184030181529190526200027e565b5050600780546001600160a01b0319166001600160a01b03949094169390931790925550620007a99350505050565b6000546001600160a01b038281169116146200023357600080546001600160a01b038381166001600160a01b0319831681178455604051919092169283917f8be0079c531659141344cd1fd0a4f28419497f9722a3daafe3b4186f6b6457e09190a3505b50565b600082815260016020526040902062000250828262000680565b50816000805160206200445b833981519152826040516200027291906200074c565b60405180910390a25050565b7f2145e1d6d074577dc71ef54c3807742b41b053a9352ae6b491331509acb9750f8201620002bf576040516385c169bd60e01b815260040160405180910390fd5b7fd0f59754f88971fe6bc5a6618cc9d5f1e859c58d16b22d1c7b2d3e2b246cd8aa82016200030057604051630eceab6760e31b815260040160405180910390fd5b60008281526001602052604090206200031a828262000680565b50816000805160206200445b833981519152610100835111156200034e57620003488360006101006200035f565b62000350565b825b6040516200027291906200074c565b6060816200036f81601f62000781565b1015620003b05760405162461bcd60e51b815260206004820152600e60248201526d736c6963655f6f766572666c6f7760901b60448201526064016200009f565b620003bc828462000781565b84511015620004025760405162461bcd60e51b8152602060048201526011602482015270736c6963655f6f75744f66426f756e647360781b60448201526064016200009f565b6060821580156200042357604051915060008252602082016040526200046f565b6040519150601f8416801560200281840101858101878315602002848b0101015b818310156200045e57805183526020928301920162000444565b5050858452601f01601f1916604052505b50949350505050565b634e487b7160e01b600052604160045260246000fd5b60005b83811015620004ab57818101518382015260200162000491565b50506000910152565b600082601f830112620004c657600080fd5b81516001600160401b0380821115620004e357620004e362000478565b604051601f8301601f19908116603f011681019082821181831017156200050e576200050e62000478565b816040528381528660208588010111156200052857600080fd5b6200053b8460208301602089016200048e565b9695505050505050565b80516001600160a01b03811681146200055d57600080fd5b919050565b600080600080608085870312156200057957600080fd5b84516001600160401b03808211156200059157600080fd5b6200059f88838901620004b4565b95506020870151915080821115620005b657600080fd5b50620005c587828801620004b4565b935050620005d66040860162000545565b9150620005e66060860162000545565b905092959194509250565b600181811c908216806200060657607f821691505b6020821081036200062757634e487b7160e01b600052602260045260246000fd5b50919050565b601f8211156200067b57600081815260208120601f850160051c81016020861015620006565750805b601f850160051c820191505b81811015620006775782815560010162000662565b5050505b505050565b81516001600160401b038111156200069c576200069c62000478565b620006b481620006ad8454620005f1565b846200062d565b602080601f831160018114620006ec5760008415620006d35750858301515b600019600386901b1c1916600185901b17855562000677565b600085815260208120601f198616915b828110156200071d57888601518255948401946001909101908401620006fc565b50858210156200073c5787850151600019600388901b60f8161c191681555b5050505050600190811b01905550565b60208152600082518060208401526200076d8160408501602087016200048e565b601f01601f19169190910160400192915050565b80820180821115620007a357634e487b7160e01b600052601160045260246000fd5b92915050565b613ca280620007b96000396000f3fe6080604052600436106101655760003560e01c80637e659ea3116100c1578063979d7e861161007a578063979d7e8614610505578063a3b261f214610525578063bb9308b914610552578063db8c966314610572578063dedff9c614610592578063ec13cc7b146105bf578063f2fde38b146105df576101c0565b80637e659ea3146104615780637e87632c146104815780637f23690c146104a157806386a10ddd146104b45780638da5cb5b146104d457806397902421146104f2576101c0565b80634127ed5d1161011e5780634127ed5d146102fa57806349a6078d14610392578063511b6952146103bf57806354f6127f146103df578063599610f21461040c57806370a082311461042c578063715018a61461044c576101c0565b806301ffc9a7146102015780630eeb86d114610236578063170b65f01461025857806318160ddd1461029b578063217b2270146102ba5780632a3654a4146102da576101c0565b366101c057346000036101a75760405163e5099ee360e01b815260040161019e9060208082526004908201526000604082015260600190565b60405180910390fd5b6040516330fa4a2160e11b815260040160405180910390fd5b600036606060048210156101eb57828260405163e5099ee360e01b815260040161019e929190612cfa565b6101f583836105ff565b80519350602001915050f35b34801561020d57600080fd5b5061022161021c366004612d29565b6106f5565b60405190151581526020015b60405180910390f35b34801561024257600080fd5b50610256610251366004612e1e565b61071a565b005b34801561026457600080fd5b5061028e610273366004612eb7565b6009602052600090815260409020546001600160a01b031681565b60405161022d9190612ed4565b3480156102a757600080fd5b506002545b60405190815260200161022d565b3480156102c657600080fd5b5061028e6102d5366004612ee8565b6109b5565b3480156102e657600080fd5b506102216102f5366004612f1d565b6109ee565b34801561030657600080fd5b50610358610315366004612f47565b60086020526000908152604090205465ffffffffffff80821691600160301b810490911690600160601b81046001600160601b031690600160c01b900460ff1684565b6040805165ffffffffffff95861681529490931660208501526001600160601b03909116918301919091521515606082015260800161022d565b34801561039e57600080fd5b506103b26103ad366004612ee8565b610a0a565b60405161022d9190612f62565b3480156103cb57600080fd5b506102566103da366004612fbd565b610a2c565b3480156103eb57600080fd5b506103ff6103fa366004612ee8565b610a69565b60405161022d9190613087565b34801561041857600080fd5b506102566104273660046130b0565b610a74565b34801561043857600080fd5b506102ac610447366004612f47565b610d4f565b34801561045857600080fd5b50610256610d70565b34801561046d57600080fd5b5061025661047c36600461315c565b610d84565b34801561048d57600080fd5b5061025661049c366004613380565b610f63565b6102566104af366004613444565b611052565b3480156104c057600080fd5b506102566104cf36600461348a565b611087565b3480156104e057600080fd5b506000546001600160a01b031661028e565b6102566105003660046134e0565b611219565b34801561051157600080fd5b5060075461028e906001600160a01b031681565b34801561053157600080fd5b50610545610540366004612f47565b6112d9565b60405161022d9190613539565b34801561055e57600080fd5b5061025661056d366004613571565b6112fd565b34801561057e57600080fd5b5061025661058d3660046135a4565b611437565b34801561059e57600080fd5b506105b26105ad36600461360d565b6114f9565b60405161022d9190613641565b3480156105cb57600080fd5b506102566105da366004612ee8565b6115a3565b3480156105eb57600080fd5b506102566105fa366004612f47565b6115b6565b606060006106186000356001600160e01b03191661162f565b5090506001600160a01b038116610650576000356001600160e01b03191660405163bb370b2b60e01b815260040161019e91906136a3565b600080826001600160a01b0316348787333460405160200161067594939291906136b8565b60408051601f198184030181529082905261068f916136e3565b60006040518083038185875af1925050503d80600081146106cc576040519150601f19603f3d011682016040523d82523d6000602084013e6106d1565b606091505b509150915081156106e65792506106ef915050565b80518060208301fd5b92915050565b60006001600160e01b03198216630bd6448160e11b14806106ef57506106ef826116ad565b6040513390600090610752907f19457468657265756d205369676e6564204d6573736167653a0a3232000000009087906020016136ff565b60408051601f1981840301815291905280516020909101209050630b135d3f60e11b61077e82866116e1565b6001600160e01b031916146107a657604051632f86bfc360e11b815260040160405180910390fd5b6107b08284611893565b6107df57604051631294d2a960e01b8152600481018490526001600160a01b038316602482015260440161019e565b6107ea600a846118ed565b610807576040516308f6249b60e41b815260040160405180910390fd5b60405163044aa5bf60e51b81526004810184905260009073__$032f01bb2624c0993c8bfa756ae89be841$__90638954b7e090602401606060405180830381865af415801561085a573d6000803e3d6000fd5b505050506040513d601f19601f8201168201806040525081019061087e919061372c565b80516001600160d01b031916600090815260096020908152604091829020548951918a01919091206007549251630bd6448160e11b8152600481018290526001600160a01b0392831660248201819052604482018a9052949550909291909116906317ac890290606401600060405180830381600087803b15801561090257600080fd5b505af1158015610916573d6000803e3d6000fd5b50505050816001600160a01b0316632b7c023c338560400151866020015160016040518563ffffffff1660e01b8152600401610955949392919061379d565b600060405180830381600087803b15801561096f57600080fd5b505af1158015610983573d6000803e3d6000fd5b505050506109ab8660405180604001604052806002815260200161060f60f31b815250611905565b5050505050505050565b6000818152600360205260408120546001600160a01b0316806106ef57604051635747cd1b60e11b81526004810184905260240161019e565b60006109f982611a16565b610a038383611893565b9392505050565b6060610a1582611a16565b60008281526005602052604090206106ef90611a4e565b610a37600a846118ed565b15610a5557604051631caa93c560e01b815260040160405180910390fd5b610a628585858585611a5b565b5050505050565b60606106ef82611c14565b610a7c611f36565b6040516316b96e9360e31b815260009073__$032f01bb2624c0993c8bfa756ae89be841$__9063b5cb749890610ab6908990600401612ed4565b602060405180830381865af4158015610ad3573d6000803e3d6000fd5b505050506040513d601f19601f82011682018060405250810190610af791906137ea565b6001600160a01b0387166000908152600860209081526040918290208251608081018452905465ffffffffffff808216808452600160301b830490911693830193909352600160601b81046001600160601b031693820193909352600160c01b90920460ff161515606083015291925090421015610b8857604051633700559760e21b815260040160405180910390fd5b806020015165ffffffffffff16421115610bb557604051633ba7278d60e11b815260040160405180910390fd5b610bbf8287611f9f565b6001600160a01b0387166000908152600860209081526040808320549051600160601b90910460a01b6001600160a01b03191691810191909152602c01604051602081830303815290604052610c1490613807565b6040516332e33fa360e11b81526001600160a01b038a1660048201526001600160a01b0319808a1660248301528216604482015290915060009073__$032f01bb2624c0993c8bfa756ae89be841$__906365c67f4690606401602060405180830381865af4158015610c8a573d6000803e3d6000fd5b505050506040513d601f19601f82011682018060405250810190610cae919061383e565b9050826060015115610d2457604051630adf008f60e21b81526001600160a01b038a1690632b7c023c90610ced908d9086908d9060019060040161379d565b600060405180830381600087803b158015610d0757600080fd5b505af1158015610d1b573d6000803e3d6000fd5b50505050610d30565b610d308a828989612269565b8415610d4357610d41600a82612385565b505b50505050505050505050565b6001600160a01b03811660009081526004602052604081206106ef90612391565b610d78611f36565b610d82600061239b565b565b610d8c611f36565b6040516316b96e9360e31b815260009073__$032f01bb2624c0993c8bfa756ae89be841$__9063b5cb749890610dc6908890600401612ed4565b602060405180830381865af4158015610de3573d6000803e3d6000fd5b505050506040513d601f19601f82011682018060405250810190610e0791906137ea565b90506001600160a01b038516610e2f5760405162db1a2360e21b815260040160405180910390fd5b6001600160d01b031981166000908152600960205260409020546001600160a01b031615610e70576040516341ab882d60e01b815260040160405180910390fd5b600060405180608001604052808665ffffffffffff1681526020018587610e97919061386d565b65ffffffffffff9081168252600060208084018290529615156040938401526001600160a01b03909916808a5260088752828a2084518154868a0151878701516060909801511515600160c01b0260ff60c01b196001600160601b0399909916600160601b0298909816600160601b600160c81b0319918716600160301b026001600160601b031990931693909616929092171716929092179390931790556001600160d01b0319909316875260099093525090932080546001600160a01b0319169093179092555050565b8451845181141580610f76575083518114155b80610f82575082518114155b80610f8e575081518114155b15610fac576040516393a8311960e01b815260040160405180910390fd5b60005b8181101561104957611041878281518110610fcc57610fcc61388c565b6020026020010151878381518110610fe657610fe661388c565b60200260200101518784815181106110005761100061388c565b602002602001015187858151811061101a5761101a61388c565b60200260200101518786815181106110345761103461388c565b6020026020010151610a2c565b600101610faf565b50505050505050565b61105a611f36565b34156110795760405163f36ba73760e01b815260040160405180910390fd5b6110838282612400565b5050565b6000611092836109b5565b90506001600160a01b03811633146110c357808333604051632d938f5160e11b815260040161019e939291906138a2565b6001600160a01b0384166110ea57604051639577b8b360e01b815260040160405180910390fd5b836001600160a01b0316816001600160a01b03160361111c576040516344fed6b160e11b815260040160405180910390fd5b6000838152600560205260408120611134908661244a565b905080611166576040516314ec4d6d60e31b81526001600160a01b03861660048201526024810185905260440161019e565b83826001600160a01b0316866001600160a01b03167e52e433f2d4225671bc164dd1cdc9a76044356091f27ad234798bd0cbf08349866040516111a99190613087565b60405180910390a4600033856001866040516020016111cb94939291906138c5565b60408051601f1981840301815291905290506112116001600160a01b0387167f8a1c15a8799f71b547e08e2bcb2e85257e81b0a07eee2ce6712549eef1f009708361245f565b505050505050565b611221611f36565b34156112405760405163f36ba73760e01b815260040160405180910390fd5b805182511461126257604051633bcc897960e01b815260040160405180910390fd5b8151600003611284576040516397da5f9560e01b815260040160405180910390fd5b60005b82518110156112d4576112cc8382815181106112a5576112a561388c565b60200260200101518383815181106112bf576112bf61388c565b6020026020010151612400565b600101611287565b505050565b6001600160a01b03811660009081526004602052604090206060906106ef90611a4e565b611305611f36565b6040516316b96e9360e31b815260009073__$032f01bb2624c0993c8bfa756ae89be841$__9063b5cb74989061133f908690600401612ed4565b602060405180830381865af415801561135c573d6000803e3d6000fd5b505050506040513d601f19601f8201168201806040525081019061138091906137ea565b6001600160d01b031981166000908152600960205260409020549091506001600160a01b03166113c357604051632a5cc95960e21b815260040160405180910390fd5b6001600160a01b0383166000908152600860205260409020546113ef90839065ffffffffffff1661386d565b6001600160a01b039093166000908152600860205260409020805465ffffffffffff94909416600160301b026bffffffffffff00000000000019909416939093179092555050565b6000611442846109b5565b90506001600160a01b038116331461147357808433604051632d938f5160e11b815260040161019e939291906138a2565b6001600160a01b03851661149a57604051639577b8b360e01b815260040160405180910390fd5b846001600160a01b0316816001600160a01b0316036114cc576040516344fed6b160e11b815260040160405180910390fd5b6114d985828686866124f3565b8215610a6257600033856000856040516020016111cb94939291906138c5565b606081516001600160401b0381111561151457611514612d53565b60405190808252806020026020018201604052801561154757816020015b60608152602001906001900390816115325790505b50905060005b825181101561159d5761157883828151811061156b5761156b61388c565b6020026020010151611c14565b82828151811061158a5761158a61388c565b602090810291909101015260010161154d565b50919050565b6115ab611f36565b611083600a82612385565b6115be611f36565b6001600160a01b0381166116235760405162461bcd60e51b815260206004820152602660248201527f4f776e61626c653a206e6577206f776e657220697320746865207a65726f206160448201526564647265737360d01b606482015260840161019e565b61162c8161239b565b50565b60008080611654696773c5a04a6d4300884b60b11b6001600160e01b03198616612593565b90506000611661826125e7565b905080516014141580156116755750805115155b1561169557806040516342bfe79f60e01b815260040161019e9190613087565b61169e816138f4565b60601c95600195509350505050565b60006001600160e01b0319821663061b8a4f60e31b14806116d257506116d282612689565b806106ef57506106ef826126ae565b6000806116f66000546001600160a01b031690565b90506001600160a01b0381163b1561181357600080826001600160a01b0316631626ba7e60e01b8787604051602401611730929190613927565b60408051601f198184030181529181526020820180516001600160e01b03166001600160e01b031990941693909317909252905161176e91906136e3565b600060405180830381855afa9150503d80600081146117a9576040519150601f19603f3d011682016040523d82523d6000602084013e6117ae565b606091505b509150915060008280156117c3575081516020145b80156117ea57508151630b135d3f60e11b906117e8908401602090810190850161383e565b145b9050806117ff576001600160e01b0319611808565b630b135d3f60e11b5b9450505050506106ef565b60008061182086866126e5565b9092509050600081600481111561183957611839613940565b1461185257506001600160e01b031992506106ef915050565b826001600160a01b0316826001600160a01b031614611879576001600160e01b0319611882565b630b135d3f60e11b5b93505050506106ef565b5092915050565b600061189e826109b5565b6001600160a01b0316836001600160a01b03161480610a0357506000828152600560205260409020610a0390846001600160a01b03811660009081526001830160205260408120541515610a03565b60008181526001830160205260408120541515610a03565b6000611910836109b5565b905061191b836109b5565b905060026000815461192c90613956565b9091555061193a818461272a565b6001600160a01b038116600090815260046020526040902061195c9084612782565b5060008381526003602052604080822080546001600160a01b0319169055518491906001600160a01b03841690600080516020613c4d833981519152906119a89033908590899061396d565b60405180910390a4600081600085856040516020016119ca94939291906139a2565b60408051601f198184030181529190529050611a106001600160a01b0383167fb23eae7e6d1564b295b4c3e3be402d9a2f0776c57bdf365903496f6fa481ab008361245f565b50505050565b6000818152600360205260409020546001600160a01b031661162c57604051635747cd1b60e11b81526004810182905260240161019e565b60606000610a038361278e565b836001600160a01b0316856001600160a01b031603611a8d57604051635d67d6c160e01b815260040160405180910390fd5b6000611a98846109b5565b9050856001600160a01b0316816001600160a01b031614611ad257808487604051632d938f5160e11b815260040161019e939291906138a2565b6001600160a01b038516611af9576040516324ecef4d60e01b815260040160405180910390fd5b611b02846109b5565b9050611b0e868561272a565b6001600160a01b0386166000908152600460205260409020611b309085612782565b506001600160a01b0385166000908152600460205260409020611b539085612385565b506000848152600360205260409081902080546001600160a01b0319166001600160a01b038881169182179092559151869291891690600080516020613c4d83398151915290611ba89033908990899061396d565b60405180910390a4600086868685604051602001611bc994939291906139a2565b60408051601f198184030181529190529050611c0f6001600160a01b0388167fb23eae7e6d1564b295b4c3e3be402d9a2f0776c57bdf365903496f6fa481ab008361245f565b611049565b60608169ecc61895c6f4846136ff60b01b6001600160b01b0319821601611e97576040516343baf82960e01b81526004810184905260009073__$032f01bb2624c0993c8bfa756ae89be841$__906343baf82990602401606060405180830381865af4158015611c88573d6000803e3d6000fd5b505050506040513d601f19601f82011682018060405250810190611cac919061372c565b80516001600160d01b0319166000908152600960205260409020549091506001600160a01b031680611d795760008581526001602052604090208054611cf1906139d5565b80601f0160208091040260200160405190810160405280929190818152602001828054611d1d906139d5565b8015611d6a5780601f10611d3f57610100808354040283529160200191611d6a565b820191906000526020600020905b815481529060010190602001808311611d4d57829003601f168201915b50505050509350505050919050565b60408051630849ed4d60e11b815283516001600160d01b031916600482015260208401516001600160a01b0319908116602483015291840151909116604482015260009073__$032f01bb2624c0993c8bfa756ae89be841$__90631093da9a90606401602060405180830381865af4158015611df9573d6000803e3d6000fd5b505050506040513d601f19601f82011682018060405250810190611e1d919061383e565b6040516354f6127f60e01b8152600481018290529091506001600160a01b038316906354f6127f90602401600060405180830381865afa158015611e65573d6000803e3d6000fd5b505050506040513d6000823e601f3d908101601f19168201604052611e8d9190810190613a09565b9695505050505050565b60008381526001602052604090208054611eb0906139d5565b80601f0160208091040260200160405190810160405280929190818152602001828054611edc906139d5565b8015611f295780601f10611efe57610100808354040283529160200191611f29565b820191906000526020600020905b815481529060010190602001808311611f0c57829003601f168201915b5050505050915050919050565b33611f496000546001600160a01b031690565b6001600160a01b031614610d825760405162461bcd60e51b815260206004820181905260248201527f4f776e61626c653a2063616c6c6572206973206e6f7420746865206f776e6572604482015260640161019e565b6001600160d01b031982166000908152600960209081526040808320546001600160a01b0316808452600890925290912054600160601b90046001600160601b031681611fff57604051632a5cc95960e21b815260040160405180910390fd5b6040516301ffc9a760e01b81526001600160a01b038316906301ffc9a79061203290632902c6c560e11b906004016136a3565b602060405180830381865afa15801561204f573d6000803e3d6000fd5b505050506040513d601f19601f820116820180604052508101906120739190613a76565b15612109576000826001600160a01b03166352058d8a6040518163ffffffff1660e01b8152600401602060405180830381865afa1580156120b8573d6000803e3d6000fd5b505050506040513d601f19601f820116820180604052508101906120dc919061383e565b905080826001600160601b03160361210757604051636011602d60e01b815260040160405180910390fd5b505b6040516301ffc9a760e01b81526001600160a01b038316906301ffc9a79061213c90630e25267160e11b906004016136a3565b602060405180830381865afa158015612159573d6000803e3d6000fd5b505050506040513d601f19601f8201168201806040525081019061217d9190613a76565b156122115760405163674986ff60e01b81526001600160a01b0319841660048201526001600160a01b0383169063674986ff90602401602060405180830381865afa1580156121d0573d6000803e3d6000fd5b505050506040513d601f19601f820116820180604052508101906121f49190613a76565b6122115760405163b103414760e01b815260040160405180910390fd5b61221c816001613a93565b6001600160a01b03909216600090815260086020526040902080546001600160601b0393909316600160601b026bffffffffffffffffffffffff60601b1990931692909217909155505050565b6001600160a01b038416612290576040516324ecef4d60e01b815260040160405180910390fd5b6000838152600360205260409020546001600160a01b0316156122c9576040516334c7b51160e01b81526004810184905260240161019e565b6002600081546122d890613ab3565b909155506001600160a01b03841660009081526004602052604090206122fe9084612385565b5060008381526003602052604080822080546001600160a01b0319166001600160a01b0388169081179091559051859290600080516020613c4d8339815191529061234e9033908890889061396d565b60405180910390a460008085858460405160200161236f94939291906139a2565b6040516020818303038152906040529050610a62565b6000610a0383836127e9565b60006106ef825490565b6000546001600160a01b0382811691161461162c57600080546001600160a01b038381166001600160a01b0319831681178455604051919092169283917f8be0079c531659141344cd1fd0a4f28419497f9722a3daafe3b4186f6b6457e09190a35050565b7f8ea0db76a9218319a16b2627c940152b860818f29648e72b840184ff1fa4b01c8201612440576040516329de089160e11b815260040160405180910390fd5b6110838282612838565b6000610a03836001600160a01b0384166127e9565b6124796001600160a01b038416631aed5a8560e21b61292c565b156112d457604051631aed5a8560e21b81526001600160a01b03841690636bb56a14906124ac9085908590600401613927565b6000604051808303816000875af11580156124cb573d6000803e3d6000fd5b505050506040513d6000823e601f3d908101601f19168201604052611a109190810190613a09565b600083815260056020526040812061250b90876129c0565b90508061253d576040516312a8c6a360e21b81526001600160a01b03871660048201526024810185905260440161019e565b83856001600160a01b0316876001600160a01b03167f3ee932cea40ebbbfd8577d47156cc17cce8683802c57bbd1fb8c131c6f07af0a8686604051612583929190613acc565b60405180910390a4505050505050565b604080516001600160b01b0319841660208201526000602a82018190526001600160601b03198416602c830152918291016040516020818303038152906040529050806125df90613ae7565b949350505050565b6000818152600160205260409020805460609190612604906139d5565b80601f0160208091040260200160405190810160405280929190818152602001828054612630906139d5565b801561267d5780601f106126525761010080835404028352916020019161267d565b820191906000526020600020905b81548152906001019060200180831161266057829003601f168201915b50505050509050919050565b60006001600160e01b0319821663a918fa6b60e01b14806106ef57506106ef826129d5565b6000806126c16301ffc9a760e01b61162f565b5090506001600160a01b0381166126db5750600092915050565b610a03818461292c565b600080825160410361271b5760208301516040840151606085015160001a61270f87828585612a0a565b94509450505050612723565b506000905060025b9250929050565b60008181526005602052604081209061274282612391565b90506000805b828110156112115761275b846000612ac4565b915061277a8287876000604051806020016040528060008152506124f3565b600101612748565b6000610a038383612ad0565b60608160000180548060200260200160405190810160405280929190818152602001828054801561267d57602002820191906000526020600020905b8154815260200190600101908083116127ca5750505050509050919050565b6000818152600183016020526040812054612830575081546001818101845560008481526020808220909301849055845484825282860190935260409020919091556106ef565b5060006106ef565b7f2145e1d6d074577dc71ef54c3807742b41b053a9352ae6b491331509acb9750f8201612878576040516385c169bd60e01b815260040160405180910390fd5b7fd0f59754f88971fe6bc5a6618cc9d5f1e859c58d16b22d1c7b2d3e2b246cd8aa82016128b857604051630eceab6760e31b815260040160405180910390fd5b60008281526001602052604090206128d08282613b51565b50817fece574603820d07bc9b91f2a932baadf4628aabcb8afba49776529c14a6104b2610100835111156129115761290c836000610100612bc3565b612913565b825b6040516129209190613087565b60405180910390a25050565b6000806301ffc9a760e01b8360405160240161294891906136a3565b604051602081830303815290604052906001600160e01b0319166020820180516001600160e01b03838183161783525050505090506000806000602060008551602087018a617530fa92503d915060005190508280156129a9575060208210155b80156129b55750600081115b979650505050505050565b6000610a03836001600160a01b038416612ad0565b60006001600160e01b031982166318a6a9a560e21b14806106ef57506301ffc9a760e01b6001600160e01b03198316146106ef565b6000806fa2a8918ca85bafe22016d0b997e4df60600160ff1b03831115612a375750600090506003612abb565b6040805160008082526020820180845289905260ff881692820192909252606081018690526080810185905260019060a0016020604051602081039080840390855afa158015612a8b573d6000803e3d6000fd5b5050604051601f1901519150506001600160a01b038116612ab457600060019250925050612abb565b9150600090505b94509492505050565b6000610a038383612cd0565b60008181526001830160205260408120548015612bb9576000612af4600183613c10565b8554909150600090612b0890600190613c10565b9050818114612b6d576000866000018281548110612b2857612b2861388c565b9060005260206000200154905080876000018481548110612b4b57612b4b61388c565b6000918252602080832090910192909255918252600188019052604090208390555b8554869080612b7e57612b7e613c23565b6001900381819060005260206000200160009055905585600101600086815260200190815260200160002060009055600193505050506106ef565b60009150506106ef565b606081612bd181601f613c39565b1015612c105760405162461bcd60e51b815260206004820152600e60248201526d736c6963655f6f766572666c6f7760901b604482015260640161019e565b612c1a8284613c39565b84511015612c5e5760405162461bcd60e51b8152602060048201526011602482015270736c6963655f6f75744f66426f756e647360781b604482015260640161019e565b606082158015612c7d5760405191506000825260208201604052612cc7565b6040519150601f8416801560200281840101858101878315602002848b0101015b81831015612cb6578051835260209283019201612c9e565b5050858452601f01601f1916604052505b50949350505050565b6000826000018281548110612ce757612ce761388c565b9060005260206000200154905092915050565b60208152816020820152818360408301376000818301604090810191909152601f909201601f19160101919050565b600060208284031215612d3b57600080fd5b81356001600160e01b031981168114610a0357600080fd5b634e487b7160e01b600052604160045260246000fd5b604051601f8201601f191681016001600160401b0381118282101715612d9157612d91612d53565b604052919050565b60006001600160401b03821115612db257612db2612d53565b50601f01601f191660200190565b6000612dd3612dce84612d99565b612d69565b9050828152838383011115612de757600080fd5b828260208301376000602084830101529392505050565b600082601f830112612e0f57600080fd5b610a0383833560208501612dc0565b600080600060608486031215612e3357600080fd5b83356001600160401b0380821115612e4a57600080fd5b818601915086601f830112612e5e57600080fd5b612e6d87833560208501612dc0565b94506020860135915080821115612e8357600080fd5b50612e9086828701612dfe565b925050604084013590509250925092565b6001600160d01b03198116811461162c57600080fd5b600060208284031215612ec957600080fd5b8135610a0381612ea1565b6001600160a01b0391909116815260200190565b600060208284031215612efa57600080fd5b5035919050565b80356001600160a01b0381168114612f1857600080fd5b919050565b60008060408385031215612f3057600080fd5b612f3983612f01565b946020939093013593505050565b600060208284031215612f5957600080fd5b610a0382612f01565b6020808252825182820181905260009190848201906040850190845b81811015612fa35783516001600160a01b031683529284019291840191600101612f7e565b50909695505050505050565b801515811461162c57600080fd5b600080600080600060a08688031215612fd557600080fd5b612fde86612f01565b9450612fec60208701612f01565b935060408601359250606086013561300381612faf565b915060808601356001600160401b0381111561301e57600080fd5b61302a88828901612dfe565b9150509295509295909350565b60005b8381101561305257818101518382015260200161303a565b50506000910152565b60008151808452613073816020860160208601613037565b601f01601f19169290920160200192915050565b602081526000610a03602083018461305b565b6001600160a01b03198116811461162c57600080fd5b60008060008060008060c087890312156130c957600080fd5b6130d287612f01565b95506130e060208801612f01565b945060408701356130f08161309a565b9350606087013561310081612faf565b925060808701356001600160401b0381111561311b57600080fd5b61312789828a01612dfe565b92505060a087013561313881612faf565b809150509295509295509295565b803565ffffffffffff81168114612f1857600080fd5b6000806000806080858703121561317257600080fd5b61317b85612f01565b935061318960208601613146565b925061319760408601613146565b915060608501356131a781612faf565b939692955090935050565b60006001600160401b038211156131cb576131cb612d53565b5060051b60200190565b600082601f8301126131e657600080fd5b813560206131f6612dce836131b2565b82815260059290921b8401810191818101908684111561321557600080fd5b8286015b848110156132375761322a81612f01565b8352918301918301613219565b509695505050505050565b600082601f83011261325357600080fd5b81356020613263612dce836131b2565b82815260059290921b8401810191818101908684111561328257600080fd5b8286015b848110156132375780358352918301918301613286565b600082601f8301126132ae57600080fd5b813560206132be612dce836131b2565b82815260059290921b840181019181810190868411156132dd57600080fd5b8286015b848110156132375780356132f481612faf565b83529183019183016132e1565b600082601f83011261331257600080fd5b81356020613322612dce836131b2565b82815260059290921b8401810191818101908684111561334157600080fd5b8286015b848110156132375780356001600160401b038111156133645760008081fd5b6133728986838b0101612dfe565b845250918301918301613345565b600080600080600060a0868803121561339857600080fd5b85356001600160401b03808211156133af57600080fd5b6133bb89838a016131d5565b965060208801359150808211156133d157600080fd5b6133dd89838a016131d5565b955060408801359150808211156133f357600080fd5b6133ff89838a01613242565b9450606088013591508082111561341557600080fd5b61342189838a0161329d565b9350608088013591508082111561343757600080fd5b5061302a88828901613301565b6000806040838503121561345757600080fd5b8235915060208301356001600160401b0381111561347457600080fd5b61348085828601612dfe565b9150509250929050565b60008060006060848603121561349f57600080fd5b6134a884612f01565b92506020840135915060408401356001600160401b038111156134ca57600080fd5b6134d686828701612dfe565b9150509250925092565b600080604083850312156134f357600080fd5b82356001600160401b038082111561350a57600080fd5b61351686838701613242565b9350602085013591508082111561352c57600080fd5b5061348085828601613301565b6020808252825182820181905260009190848201906040850190845b81811015612fa357835183529284019291840191600101613555565b6000806040838503121561358457600080fd5b61358d83612f01565b915061359b60208401613146565b90509250929050565b600080600080608085870312156135ba57600080fd5b6135c385612f01565b93506020850135925060408501356135da81612faf565b915060608501356001600160401b038111156135f557600080fd5b61360187828801612dfe565b91505092959194509250565b60006020828403121561361f57600080fd5b81356001600160401b0381111561363557600080fd5b6125df84828501613242565b6000602080830181845280855180835260408601915060408160051b870101925083870160005b8281101561369657603f1988860301845261368485835161305b565b94509285019290850190600101613668565b5092979650505050505050565b6001600160e01b031991909116815260200190565b8385823760609290921b6001600160601b031916919092019081526014810191909152603401919050565b600082516136f5818460208701613037565b9190910192915050565b63ffffffff19831681526000825161371e81601c850160208701613037565b91909101601c019392505050565b60006060828403121561373e57600080fd5b604051606081018181106001600160401b038211171561376057613760612d53565b604052825161376e81612ea1565b8152602083015161377e8161309a565b602082015260408301516137918161309a565b60408201529392505050565b6001600160a01b039490941684526001600160a01b03199283166020850152911660408301521515606082015260a06080820181905260029082015261060f60f31b60c082015260e00190565b6000602082840312156137fc57600080fd5b8151610a0381612ea1565b805160208201516001600160a01b0319808216929190600c83101561383657808184600c0360031b1b83161693505b505050919050565b60006020828403121561385057600080fd5b5051919050565b634e487b7160e01b600052601160045260246000fd5b65ffffffffffff81811683821601908082111561188c5761188c613857565b634e487b7160e01b600052603260045260246000fd5b6001600160a01b0393841681526020810192909252909116604082015260600190565b60018060a01b03851681528360208201528215156040820152608060608201526000611e8d608083018461305b565b805160208201516001600160601b031980821692919060148310156138365760149290920360031b82901b161692915050565b8281526040602082015260006125df604083018461305b565b634e487b7160e01b600052602160045260246000fd5b60008161396557613965613857565b506000190190565b6001600160a01b038416815282151560208201526060604082018190526000906139999083018461305b565b95945050505050565b6001600160a01b0385811682528416602082015260408101839052608060608201819052600090611e8d9083018461305b565b600181811c908216806139e957607f821691505b60208210810361159d57634e487b7160e01b600052602260045260246000fd5b600060208284031215613a1b57600080fd5b81516001600160401b03811115613a3157600080fd5b8201601f81018413613a4257600080fd5b8051613a50612dce82612d99565b818152856020838501011115613a6557600080fd5b613999826020830160208601613037565b600060208284031215613a8857600080fd5b8151610a0381612faf565b6001600160601b0381811683821601908082111561188c5761188c613857565b600060018201613ac557613ac5613857565b5060010190565b82151581526040602082015260006125df604083018461305b565b8051602080830151919081101561159d5760001960209190910360031b1b16919050565b601f8211156112d457600081815260208120601f850160051c81016020861015613b325750805b601f850160051c820191505b8181101561121157828155600101613b3e565b81516001600160401b03811115613b6a57613b6a612d53565b613b7e81613b7884546139d5565b84613b0b565b602080601f831160018114613bb35760008415613b9b5750858301515b600019600386901b1c1916600185901b178555611211565b600085815260208120601f198616915b82811015613be257888601518255948401946001909101908401613bc3565b5085821015613c005787850151600019600388901b60f8161c191681555b5050505050600190811b01905550565b818103818111156106ef576106ef613857565b634e487b7160e01b600052603160045260246000fd5b808201808211156106ef576106ef61385756feb333c813a7426a7a11e2b190cad52c44119421594b47f6f32ace6d8c7207b2bfa26469706673582212202d83a9114878b53adcd22c43d3d6aa2ccbe2449889089e0a748ccc42b79469ed64736f6c63430008130033ece574603820d07bc9b91f2a932baadf4628aabcb8afba49776529c14a6104b2",
  "linkReferences": {
    "contracts/TokenUtils.sol": {
      "TokenUtils": [
        {
          "length": 20,
          "start": 4057
        },
        {
          "length": 20,
          "start": 4679
        },
        {
          "length": 20,
          "start": 5129
        },
        {
          "length": 20,
          "start": 5463
        },
        {
          "length": 20,
          "start": 6864
        },
        {
          "length": 20,
          "start": 9223
        },
        {
          "length": 20,
          "start": 9592
        }
      ]
    }
  },
  "deployedLinkReferences": {
    "contracts/TokenUtils.sol": {
      "TokenUtils": [
        {
          "length": 20,
          "start": 2080
        },
        {
          "length": 20,
          "start": 2702
        },
        {
          "length": 20,
          "start": 3152
        },
        {
          "length": 20,
          "start": 3486
        },
        {
          "length": 20,
          "start": 4887
        },
        {
          "length": 20,
          "start": 7246
        },
        {
          "length": 20,
          "start": 7615
        }
      ]
    }
  }
}