{
  "_format": "hh-sol-artifact-1",
  "contractName": "AssetPlaceholder",
  "sourceName": "contracts/AssetPlaceholder.sol",
  "abi": [
    {
      "inputs": [
        {
          "internalType": "string",
          "name": "name_",
          "type": "string"
        },
        {
          "internalType": "string",
          "name": "symbol_",
          "type": "string"
        },
        {
          "internalType": "address",
          "name": "newOwner_",
          "type": "address"
        },
        {
          "internalType": "address",
          "name": "assetRegistry_",
          "type": "address"
        }
      ],
      "stateMutability": "nonpayable",
      "type": "constructor"
    },
    {
      "inputs": [],
      "name": "CollectionAddressCannotBeZero",
      "type": "error"
    },
    {
      "inputs": [],
      "name": "CollectionAlreadyRegistered",
      "type": "error"
    },
    {
      "inputs": [],
      "name": "CollectionNotRegistered",
      "type": "error"
    },
    {
      "inputs": [],
      "name": "ERC725Y_DataKeysValuesEmptyArray",
      "type": "error"
    },
    {
      "inputs": [],
      "name": "ERC725Y_DataKeysValuesLengthMismatch",
      "type": "error"
    },
    {
      "inputs": [],
      "name": "ERC725Y_MsgValueDisallowed",
      "type": "error"
    },
    {
      "inputs": [
        {
          "internalType": "bytes",
          "name": "storedData",
          "type": "bytes"
        }
      ],
      "name": "InvalidExtensionAddress",
      "type": "error"
    },
    {
      "inputs": [],
      "name": "InvalidFamilySignature",
      "type": "error"
    },
    {
      "inputs": [
        {
          "internalType": "bytes",
          "name": "data",
          "type": "bytes"
        }
      ],
      "name": "InvalidFunctionSelector",
      "type": "error"
    },
    {
      "inputs": [],
      "name": "LSP4TokenNameNotEditable",
      "type": "error"
    },
    {
      "inputs": [],
      "name": "LSP4TokenSymbolNotEditable",
      "type": "error"
    },
    {
      "inputs": [],
      "name": "LSP8CannotSendToAddressZero",
      "type": "error"
    },
    {
      "inputs": [],
      "name": "LSP8CannotSendToSelf",
      "type": "error"
    },
    {
      "inputs": [],
      "name": "LSP8CannotUseAddressZeroAsOperator",
      "type": "error"
    },
    {
      "inputs": [],
      "name": "LSP8InvalidTransferBatch",
      "type": "error"
    },
    {
      "inputs": [
        {
          "internalType": "bytes32",
          "name": "tokenId",
          "type": "bytes32"
        }
      ],
      "name": "LSP8NonExistentTokenId",
      "type": "error"
    },
    {
      "inputs": [
        {
          "internalType": "address",
          "name": "operator",
          "type": "address"
        },
        {
          "internalType": "bytes32",
          "name": "tokenId",
          "type": "bytes32"
        }
      ],
      "name": "LSP8NonExistingOperator",
      "type": "error"
    },
    {
      "inputs": [
        {
          "internalType": "bytes32",
          "name": "tokenId",
          "type": "bytes32"
        },
        {
          "internalType": "address",
          "name": "caller",
          "type": "address"
        }
      ],
      "name": "LSP8NotTokenOperator",
      "type": "error"
    },
    {
      "inputs": [
        {
          "internalType": "address",
          "name": "tokenOwner",
          "type": "address"
        },
        {
          "internalType": "bytes32",
          "name": "tokenId",
          "type": "bytes32"
        },
        {
          "internalType": "address",
          "name": "caller",
          "type": "address"
        }
      ],
      "name": "LSP8NotTokenOwner",
      "type": "error"
    },
    {
      "inputs": [
        {
          "internalType": "address",
          "name": "tokenReceiver",
          "type": "address"
        }
      ],
      "name": "LSP8NotifyTokenReceiverContractMissingLSP1Interface",
      "type": "error"
    },
    {
      "inputs": [
        {
          "internalType": "address",
          "name": "tokenReceiver",
          "type": "address"
        }
      ],
      "name": "LSP8NotifyTokenReceiverIsEOA",
      "type": "error"
    },
    {
      "inputs": [
        {
          "internalType": "address",
          "name": "operator",
          "type": "address"
        },
        {
          "internalType": "bytes32",
          "name": "tokenId",
          "type": "bytes32"
        }
      ],
      "name": "LSP8OperatorAlreadyAuthorized",
      "type": "error"
    },
    {
      "inputs": [
        {
          "internalType": "bytes32",
          "name": "tokenId",
          "type": "bytes32"
        }
      ],
      "name": "LSP8TokenIdAlreadyMinted",
      "type": "error"
    },
    {
      "inputs": [],
      "name": "LSP8TokenOwnerCannotBeOperator",
      "type": "error"
    },
    {
      "inputs": [],
      "name": "MintLimitReachedForCollection",
      "type": "error"
    },
    {
      "inputs": [],
      "name": "MintingPeriodEnded",
      "type": "error"
    },
    {
      "inputs": [],
      "name": "MintingPeriodNotStarted",
      "type": "error"
    },
    {
      "inputs": [
        {
          "internalType": "bytes4",
          "name": "functionSelector",
          "type": "bytes4"
        }
      ],
      "name": "NoExtensionFoundForFunctionSelector",
      "type": "error"
    },
    {
      "inputs": [],
      "name": "TokenIsFrozen",
      "type": "error"
    },
    {
      "inputs": [],
      "name": "TokenNotReadyToBeRegistered",
      "type": "error"
    },
    {
      "inputs": [],
      "name": "VariantNotRegistered",
      "type": "error"
    },
    {
      "anonymous": false,
      "inputs": [
        {
          "indexed": true,
          "internalType": "address",
          "name": "operator",
          "type": "address"
        },
        {
          "indexed": true,
          "internalType": "address",
          "name": "tokenOwner",
          "type": "address"
        },
        {
          "indexed": true,
          "internalType": "bytes32",
          "name": "tokenId",
          "type": "bytes32"
        },
        {
          "indexed": false,
          "internalType": "bytes",
          "name": "operatorNotificationData",
          "type": "bytes"
        }
      ],
      "name": "AuthorizedOperator",
      "type": "event"
    },
    {
      "anonymous": false,
      "inputs": [
        {
          "indexed": true,
          "internalType": "bytes32",
          "name": "dataKey",
          "type": "bytes32"
        },
        {
          "indexed": false,
          "internalType": "bytes",
          "name": "dataValue",
          "type": "bytes"
        }
      ],
      "name": "DataChanged",
      "type": "event"
    },
    {
      "anonymous": false,
      "inputs": [
        {
          "indexed": true,
          "internalType": "address",
          "name": "previousOwner",
          "type": "address"
        },
        {
          "indexed": true,
          "internalType": "address",
          "name": "newOwner",
          "type": "address"
        }
      ],
      "name": "OwnershipTransferred",
      "type": "event"
    },
    {
      "anonymous": false,
      "inputs": [
        {
          "indexed": false,
          "internalType": "address",
          "name": "",
          "type": "address"
        },
        {
          "indexed": false,
          "internalType": "uint256",
          "name": "",
          "type": "uint256"
        }
      ],
      "name": "Received",
      "type": "event"
    },
    {
      "anonymous": false,
      "inputs": [
        {
          "indexed": true,
          "internalType": "address",
          "name": "operator",
          "type": "address"
        },
        {
          "indexed": true,
          "internalType": "address",
          "name": "tokenOwner",
          "type": "address"
        },
        {
          "indexed": true,
          "internalType": "bytes32",
          "name": "tokenId",
          "type": "bytes32"
        },
        {
          "indexed": false,
          "internalType": "bytes",
          "name": "operatorNotificationData",
          "type": "bytes"
        }
      ],
      "name": "RevokedOperator",
      "type": "event"
    },
    {
      "anonymous": false,
      "inputs": [
        {
          "indexed": false,
          "internalType": "address",
          "name": "operator",
          "type": "address"
        },
        {
          "indexed": true,
          "internalType": "address",
          "name": "from",
          "type": "address"
        },
        {
          "indexed": true,
          "internalType": "address",
          "name": "to",
          "type": "address"
        },
        {
          "indexed": true,
          "internalType": "bytes32",
          "name": "tokenId",
          "type": "bytes32"
        },
        {
          "indexed": false,
          "internalType": "bool",
          "name": "allowNonLSP1Recipient",
          "type": "bool"
        },
        {
          "indexed": false,
          "internalType": "bytes",
          "name": "data",
          "type": "bytes"
        }
      ],
      "name": "Transfer",
      "type": "event"
    },
    {
      "stateMutability": "payable",
      "type": "fallback"
    },
    {
      "inputs": [],
      "name": "assetRegistry",
      "outputs": [
        {
          "internalType": "address",
          "name": "",
          "type": "address"
        }
      ],
      "stateMutability": "view",
      "type": "function"
    },
    {
      "inputs": [
        {
          "internalType": "address",
          "name": "operator",
          "type": "address"
        },
        {
          "internalType": "bytes32",
          "name": "tokenId",
          "type": "bytes32"
        },
        {
          "internalType": "bytes",
          "name": "operatorNotificationData",
          "type": "bytes"
        }
      ],
      "name": "authorizeOperator",
      "outputs": [],
      "stateMutability": "nonpayable",
      "type": "function"
    },
    {
      "inputs": [
        {
          "internalType": "address",
          "name": "tokenOwner",
          "type": "address"
        }
      ],
      "name": "balanceOf",
      "outputs": [
        {
          "internalType": "uint256",
          "name": "",
          "type": "uint256"
        }
      ],
      "stateMutability": "view",
      "type": "function"
    },
    {
      "inputs": [
        {
          "internalType": "address",
          "name": "",
          "type": "address"
        }
      ],
      "name": "collectionMeta",
      "outputs": [
        {
          "internalType": "uint48",
          "name": "startAt",
          "type": "uint48"
        },
        {
          "internalType": "uint48",
          "name": "endAt",
          "type": "uint48"
        },
        {
          "internalType": "uint96",
          "name": "count",
          "type": "uint96"
        }
      ],
      "stateMutability": "view",
      "type": "function"
    },
    {
      "inputs": [
        {
          "internalType": "bytes6",
          "name": "",
          "type": "bytes6"
        }
      ],
      "name": "collections",
      "outputs": [
        {
          "internalType": "address",
          "name": "",
          "type": "address"
        }
      ],
      "stateMutability": "view",
      "type": "function"
    },
    {
      "inputs": [
        {
          "internalType": "bytes32",
          "name": "tokenId",
          "type": "bytes32"
        }
      ],
      "name": "freeze",
      "outputs": [],
      "stateMutability": "nonpayable",
      "type": "function"
    },
    {
      "inputs": [
        {
          "internalType": "bytes32",
          "name": "dataKey",
          "type": "bytes32"
        }
      ],
      "name": "getData",
      "outputs": [
        {
          "internalType": "bytes",
          "name": "dataValue",
          "type": "bytes"
        }
      ],
      "stateMutability": "view",
      "type": "function"
    },
    {
      "inputs": [
        {
          "internalType": "bytes32[]",
          "name": "dataKeys",
          "type": "bytes32[]"
        }
      ],
      "name": "getDataBatch",
      "outputs": [
        {
          "internalType": "bytes[]",
          "name": "dataValues",
          "type": "bytes[]"
        }
      ],
      "stateMutability": "view",
      "type": "function"
    },
    {
      "inputs": [
        {
          "internalType": "bytes32",
          "name": "tokenId",
          "type": "bytes32"
        }
      ],
      "name": "getOperatorsOf",
      "outputs": [
        {
          "internalType": "address[]",
          "name": "",
          "type": "address[]"
        }
      ],
      "stateMutability": "view",
      "type": "function"
    },
    {
      "inputs": [
        {
          "internalType": "address",
          "name": "operator",
          "type": "address"
        },
        {
          "internalType": "bytes32",
          "name": "tokenId",
          "type": "bytes32"
        }
      ],
      "name": "isOperatorFor",
      "outputs": [
        {
          "internalType": "bool",
          "name": "",
          "type": "bool"
        }
      ],
      "stateMutability": "view",
      "type": "function"
    },
    {
      "inputs": [
        {
          "internalType": "address",
          "name": "to",
          "type": "address"
        },
        {
          "internalType": "address",
          "name": "collection",
          "type": "address"
        },
        {
          "internalType": "bytes12",
          "name": "variantId",
          "type": "bytes12"
        },
        {
          "internalType": "bool",
          "name": "allowNonLSP1Recipient",
          "type": "bool"
        },
        {
          "internalType": "bytes",
          "name": "data",
          "type": "bytes"
        },
        {
          "internalType": "bool",
          "name": "frozen",
          "type": "bool"
        }
      ],
      "name": "mint",
      "outputs": [],
      "stateMutability": "nonpayable",
      "type": "function"
    },
    {
      "inputs": [],
      "name": "owner",
      "outputs": [
        {
          "internalType": "address",
          "name": "",
          "type": "address"
        }
      ],
      "stateMutability": "view",
      "type": "function"
    },
    {
      "inputs": [
        {
          "internalType": "string",
          "name": "uid",
          "type": "string"
        },
        {
          "internalType": "bytes",
          "name": "signature",
          "type": "bytes"
        },
        {
          "internalType": "bytes32",
          "name": "_tokenId",
          "type": "bytes32"
        }
      ],
      "name": "register",
      "outputs": [],
      "stateMutability": "nonpayable",
      "type": "function"
    },
    {
      "inputs": [
        {
          "internalType": "address",
          "name": "collection",
          "type": "address"
        },
        {
          "internalType": "uint48",
          "name": "startAt",
          "type": "uint48"
        },
        {
          "internalType": "uint48",
          "name": "duration",
          "type": "uint48"
        }
      ],
      "name": "registerCollection",
      "outputs": [],
      "stateMutability": "nonpayable",
      "type": "function"
    },
    {
      "inputs": [],
      "name": "renounceOwnership",
      "outputs": [],
      "stateMutability": "nonpayable",
      "type": "function"
    },
    {
      "inputs": [
        {
          "internalType": "address",
          "name": "operator",
          "type": "address"
        },
        {
          "internalType": "bytes32",
          "name": "tokenId",
          "type": "bytes32"
        },
        {
          "internalType": "bytes",
          "name": "operatorNotificationData",
          "type": "bytes"
        }
      ],
      "name": "revokeOperator",
      "outputs": [],
      "stateMutability": "nonpayable",
      "type": "function"
    },
    {
      "inputs": [
        {
          "internalType": "bytes32",
          "name": "dataKey",
          "type": "bytes32"
        },
        {
          "internalType": "bytes",
          "name": "dataValue",
          "type": "bytes"
        }
      ],
      "name": "setData",
      "outputs": [],
      "stateMutability": "payable",
      "type": "function"
    },
    {
      "inputs": [
        {
          "internalType": "bytes32[]",
          "name": "dataKeys",
          "type": "bytes32[]"
        },
        {
          "internalType": "bytes[]",
          "name": "dataValues",
          "type": "bytes[]"
        }
      ],
      "name": "setDataBatch",
      "outputs": [],
      "stateMutability": "payable",
      "type": "function"
    },
    {
      "inputs": [
        {
          "internalType": "bytes4",
          "name": "_interfaceId",
          "type": "bytes4"
        }
      ],
      "name": "supportsInterface",
      "outputs": [
        {
          "internalType": "bool",
          "name": "",
          "type": "bool"
        }
      ],
      "stateMutability": "view",
      "type": "function"
    },
    {
      "inputs": [
        {
          "internalType": "address",
          "name": "tokenOwner",
          "type": "address"
        }
      ],
      "name": "tokenIdsOf",
      "outputs": [
        {
          "internalType": "bytes32[]",
          "name": "",
          "type": "bytes32[]"
        }
      ],
      "stateMutability": "view",
      "type": "function"
    },
    {
      "inputs": [
        {
          "internalType": "bytes32",
          "name": "tokenId",
          "type": "bytes32"
        }
      ],
      "name": "tokenOwnerOf",
      "outputs": [
        {
          "internalType": "address",
          "name": "",
          "type": "address"
        }
      ],
      "stateMutability": "view",
      "type": "function"
    },
    {
      "inputs": [],
      "name": "totalSupply",
      "outputs": [
        {
          "internalType": "uint256",
          "name": "",
          "type": "uint256"
        }
      ],
      "stateMutability": "view",
      "type": "function"
    },
    {
      "inputs": [
        {
          "internalType": "address",
          "name": "from",
          "type": "address"
        },
        {
          "internalType": "address",
          "name": "to",
          "type": "address"
        },
        {
          "internalType": "bytes32",
          "name": "tokenId",
          "type": "bytes32"
        },
        {
          "internalType": "bool",
          "name": "allowNonLSP1Recipient",
          "type": "bool"
        },
        {
          "internalType": "bytes",
          "name": "data",
          "type": "bytes"
        }
      ],
      "name": "transfer",
      "outputs": [],
      "stateMutability": "nonpayable",
      "type": "function"
    },
    {
      "inputs": [
        {
          "internalType": "address[]",
          "name": "from",
          "type": "address[]"
        },
        {
          "internalType": "address[]",
          "name": "to",
          "type": "address[]"
        },
        {
          "internalType": "bytes32[]",
          "name": "tokenId",
          "type": "bytes32[]"
        },
        {
          "internalType": "bool[]",
          "name": "allowNonLSP1Recipient",
          "type": "bool[]"
        },
        {
          "internalType": "bytes[]",
          "name": "data",
          "type": "bytes[]"
        }
      ],
      "name": "transferBatch",
      "outputs": [],
      "stateMutability": "nonpayable",
      "type": "function"
    },
    {
      "inputs": [
        {
          "internalType": "address",
          "name": "newOwner",
          "type": "address"
        }
      ],
      "name": "transferOwnership",
      "outputs": [],
      "stateMutability": "nonpayable",
      "type": "function"
    },
    {
      "inputs": [
        {
          "internalType": "address",
          "name": "collection",
          "type": "address"
        },
        {
          "internalType": "uint48",
          "name": "duration",
          "type": "uint48"
        }
      ],
      "name": "updateMintDuration",
      "outputs": [],
      "stateMutability": "nonpayable",
      "type": "function"
    },
    {
      "stateMutability": "payable",
      "type": "receive"
    }
  ],
  "bytecode": "0x60806040523480156200001157600080fd5b506040516200415a3803806200415a83398101604081905262000034916200032c565b838383828282806001600160a01b038116620000a55760405162461bcd60e51b815260206004820152602660248201527f4f776e61626c653a206e6577206f776e657220697320746865207a65726f206160448201526564647265737360d01b606482015260840160405180910390fd5b620000b08162000182565b506040805180820190915260048152632936598960e21b6020820152620000f9907feafec4d89fa9619884b60000a4d96624a38f7ac2d8d9a604ecf07c12c77e480c90620001e9565b620001257fdeba1e292f8ba88238e10ab3c7f88bd4be4fac56cad5194b6ecceaf653468af184620001e9565b620001517f2f0a68ab07768e01943a599e73362a0e17a63a72e94dd2e384d2c1d4db93275683620001e9565b5050600780546001600160a01b0319166001600160a01b039690961695909517909455506200054b95505050505050565b6000546001600160a01b03828116911614620001e657600080546001600160a01b038381166001600160a01b0319831681178455604051919092169283917f8be0079c531659141344cd1fd0a4f28419497f9722a3daafe3b4186f6b6457e09190a3505b50565b60008281526001602052604090206200020382826200044a565b50817fece574603820d07bc9b91f2a932baadf4628aabcb8afba49776529c14a6104b28260405162000236919062000516565b60405180910390a25050565b634e487b7160e01b600052604160045260246000fd5b60005b83811015620002755781810151838201526020016200025b565b50506000910152565b600082601f8301126200029057600080fd5b81516001600160401b0380821115620002ad57620002ad62000242565b604051601f8301601f19908116603f01168101908282118183101715620002d857620002d862000242565b81604052838152866020858801011115620002f257600080fd5b6200030584602083016020890162000258565b9695505050505050565b80516001600160a01b03811681146200032757600080fd5b919050565b600080600080608085870312156200034357600080fd5b84516001600160401b03808211156200035b57600080fd5b62000369888389016200027e565b955060208701519150808211156200038057600080fd5b506200038f878288016200027e565b935050620003a0604086016200030f565b9150620003b0606086016200030f565b905092959194509250565b600181811c90821680620003d057607f821691505b602082108103620003f157634e487b7160e01b600052602260045260246000fd5b50919050565b601f8211156200044557600081815260208120601f850160051c81016020861015620004205750805b601f850160051c820191505b8181101562000441578281556001016200042c565b5050505b505050565b81516001600160401b0381111562000466576200046662000242565b6200047e81620004778454620003bb565b84620003f7565b602080601f831160018114620004b657600084156200049d5750858301515b600019600386901b1c1916600185901b17855562000441565b600085815260208120601f198616915b82811015620004e757888601518255948401946001909101908401620004c6565b5085821015620005065787850151600019600388901b60f8161c191681555b5050505050600190811b01905550565b60208152600082518060208401526200053781604085016020870162000258565b601f01601f19169190910160400192915050565b613bff806200055b6000396000f3fe6080604052600436106101655760003560e01c8063715018a6116100c1578063979d7e861161007a578063979d7e86146104dc578063a3b261f2146104fc578063bb9308b914610529578063dedff9c614610549578063ec13cc7b14610576578063f1b97e0414610596578063f2fde38b146105b6576101a5565b8063715018a6146104435780637e87632c146104585780637f23690c1461047857806386a10ddd1461048b5780638da5cb5b146104ab57806397902421146104c9576101a5565b80632a3654a41161011e5780632a3654a4146102e85780634127ed5d1461030857806349a6078d14610389578063511b6952146103b657806354f6127f146103d6578063599610f21461040357806370a0823114610423576101a5565b806301ffc9a7146101ef5780630b51bf5b146102245780630eeb86d114610246578063170b65f01461026657806318160ddd146102a9578063217b2270146102c8576101a5565b366101a5577f88a5966d370b9919b20f3e2c13ff65706f196a4e32cc2c12bf57088f88525874333460405161019b929190612d5a565b60405180910390a1005b600036606060048210156101d957828260405163e5099ee360e01b81526004016101d0929190612d73565b60405180910390fd5b6101e383836105d6565b80519350602001915050f35b3480156101fb57600080fd5b5061020f61020a366004612da2565b6106cb565b60405190151581526020015b60405180910390f35b34801561023057600080fd5b5061024461023f366004612dfe565b6106f0565b005b34801561025257600080fd5b50610244610261366004612f0c565b6108ac565b34801561027257600080fd5b5061029c610281366004612fa5565b6009602052600090815260409020546001600160a01b031681565b60405161021b9190612fc2565b3480156102b557600080fd5b506002545b60405190815260200161021b565b3480156102d457600080fd5b5061029c6102e3366004612fd6565b610b75565b3480156102f457600080fd5b5061020f610303366004612fef565b610bae565b34801561031457600080fd5b5061035b610323366004613019565b60086020526000908152604090205465ffffffffffff80821691600160301b810490911690600160601b90046001600160601b031683565b6040805165ffffffffffff94851681529390921660208401526001600160601b03169082015260600161021b565b34801561039557600080fd5b506103a96103a4366004612fd6565b610bca565b60405161021b9190613034565b3480156103c257600080fd5b506102446103d136600461308f565b610bec565b3480156103e257600080fd5b506103f66103f1366004612fd6565b610c29565b60405161021b9190613159565b34801561040f57600080fd5b5061024461041e366004613182565b610c34565b34801561042f57600080fd5b506102ba61043e366004613019565b610e89565b34801561044f57600080fd5b50610244610eaa565b34801561046457600080fd5b506102446104733660046133e6565b610ebe565b6102446104863660046134aa565b610fad565b34801561049757600080fd5b506102446104a63660046134f0565b610fe2565b3480156104b757600080fd5b506000546001600160a01b031661029c565b6102446104d7366004613546565b611138565b3480156104e857600080fd5b5060075461029c906001600160a01b031681565b34801561050857600080fd5b5061051c610517366004613019565b6111f8565b60405161021b919061359f565b34801561053557600080fd5b506102446105443660046135d7565b61121c565b34801561055557600080fd5b5061056961056436600461360a565b611356565b60405161021b919061363e565b34801561058257600080fd5b50610244610591366004612fd6565b611400565b3480156105a257600080fd5b506102446105b13660046134f0565b611413565b3480156105c257600080fd5b506102446105d1366004613019565b6114e6565b606060006105ef6000356001600160e01b03191661155f565b90506001600160a01b038116610626576000356001600160e01b03191660405163bb370b2b60e01b81526004016101d091906136a0565b600080826001600160a01b0316348787333460405160200161064b94939291906136b5565b60408051601f1981840301815290829052610665916136e0565b60006040518083038185875af1925050503d80600081146106a2576040519150601f19603f3d011682016040523d82523d6000602084013e6106a7565b606091505b509150915081156106bc5792506106c5915050565b80518060208301fd5b92915050565b60006001600160e01b03198216630bd6448160e11b14806106c557506106c5826115d8565b6106f861160c565b6040516316b96e9360e31b815260009073__$032f01bb2624c0993c8bfa756ae89be841$__9063b5cb749890610732908790600401612fc2565b602060405180830381865af415801561074f573d6000803e3d6000fd5b505050506040513d601f19601f8201168201806040525081019061077391906136fc565b90506001600160a01b03841661079b5760405162db1a2360e21b815260040160405180910390fd5b6001600160d01b031981166000908152600960205260409020546001600160a01b0316156107dc576040516341ab882d60e01b815260040160405180910390fd5b600060405180606001604052808565ffffffffffff1681526020018486610803919061372f565b65ffffffffffff9081168252600060209283018190526001600160a01b03909816808952600883526040808a208551815487870151978401516001600160601b0316600160601b02600160601b600160c01b0319988716600160301b026001600160601b031990921692909616919091171795909516929092179093556001600160d01b03199094168752600990529190942080546001600160a01b0319169091179055505050565b60405133906000906108e4907f19457468657265756d205369676e6564204d6573736167653a0a32320000000090879060200161374e565b60408051601f1981840301815291905280516020909101209050630b135d3f60e11b6109108286611675565b6001600160e01b0319161461093857604051632f86bfc360e11b815260040160405180910390fd5b6109428284611827565b61097157604051631294d2a960e01b8152600481018490526001600160a01b03831660248201526044016101d0565b61097c600a8461188d565b610999576040516308f6249b60e41b815260040160405180910390fd5b60405163044aa5bf60e51b81526004810184905260009073__$032f01bb2624c0993c8bfa756ae89be841$__90638954b7e090602401606060405180830381865af41580156109ec573d6000803e3d6000fd5b505050506040513d601f19601f82011682018060405250810190610a10919061377b565b80516001600160d01b031916600090815260096020908152604091829020548951918a01919091206007549251630bd6448160e11b8152600481018290526001600160a01b0392831660248201819052604482018a9052949550909291909116906317ac890290606401600060405180830381600087803b158015610a9457600080fd5b505af1158015610aa8573d6000803e3d6000fd5b50505060408085015160208601519151630adf008f60e21b81523360048201526001600160a01b03199182166024820152911660448201526001606482015260a06084820152600260a482015261060f60f31b60c48201526001600160a01b0384169150632b7c023c9060e401600060405180830381600087803b158015610b2f57600080fd5b505af1158015610b43573d6000803e3d6000fd5b50505050610b6b8660405180604001604052806002815260200161060f60f31b8152506118a5565b5050505050505050565b6000818152600360205260408120546001600160a01b0316806106c557604051635747cd1b60e11b8152600481018490526024016101d0565b6000610bb982611981565b610bc38383611827565b9392505050565b6060610bd582611981565b60008281526005602052604090206106c5906119b9565b610bf7600a8461188d565b15610c1557604051631caa93c560e01b815260040160405180910390fd5b610c2285858585856119c6565b5050505050565b60606106c582611b50565b610c3c61160c565b6040516316b96e9360e31b815260009073__$032f01bb2624c0993c8bfa756ae89be841$__9063b5cb749890610c76908990600401612fc2565b602060405180830381865af4158015610c93573d6000803e3d6000fd5b505050506040513d601f19601f82011682018060405250810190610cb791906136fc565b6001600160a01b0387166000908152600860209081526040918290208251606081018452905465ffffffffffff808216808452600160301b830490911693830193909352600160601b90046001600160601b03169281019290925291925090421015610d3657604051633700559760e21b815260040160405180910390fd5b806020015165ffffffffffff16421115610d6357604051633ba7278d60e11b815260040160405180910390fd5b610d6d8287611e72565b6001600160a01b0387166000908152600860209081526040808320549051600160601b90910460a01b6001600160a01b03191691810191909152602c01604051602081830303815290604052610dc2906137ec565b6040516332e33fa360e11b81526001600160a01b038a1660048201526001600160a01b0319808a1660248301528216604482015290915060009073__$032f01bb2624c0993c8bfa756ae89be841$__906365c67f4690606401602060405180830381865af4158015610e38573d6000803e3d6000fd5b505050506040513d601f19601f82011682018060405250810190610e5c9190613823565b9050610e6a8a828989612137565b8415610e7d57610e7b600a8261225f565b505b50505050505050505050565b6001600160a01b03811660009081526004602052604081206106c59061226b565b610eb261160c565b610ebc6000612275565b565b8451845181141580610ed1575083518114155b80610edd575082518114155b80610ee9575081518114155b15610f07576040516393a8311960e01b815260040160405180910390fd5b60005b81811015610fa457610f9c878281518110610f2757610f2761383c565b6020026020010151878381518110610f4157610f4161383c565b6020026020010151878481518110610f5b57610f5b61383c565b6020026020010151878581518110610f7557610f7561383c565b6020026020010151878681518110610f8f57610f8f61383c565b6020026020010151610bec565b600101610f0a565b50505050505050565b610fb561160c565b3415610fd45760405163f36ba73760e01b815260040160405180910390fd5b610fde82826122da565b5050565b6000610fed83610b75565b90506001600160a01b038116331461101e57808333604051632d938f5160e11b81526004016101d093929190613852565b6001600160a01b03841661104557604051639577b8b360e01b815260040160405180910390fd5b836001600160a01b0316816001600160a01b031603611077576040516344fed6b160e11b815260040160405180910390fd5b600083815260056020526040812061108f90866123ce565b9050806110b35784846040516314ec4d6d60e31b81526004016101d0929190612d5a565b83826001600160a01b0316866001600160a01b03167e52e433f2d4225671bc164dd1cdc9a76044356091f27ad234798bd0cbf08349866040516110f69190613159565b60405180910390a4600033858560405160200161111593929190613875565b604051602081830303815290604052905061113086826123e3565b505050505050565b61114061160c565b341561115f5760405163f36ba73760e01b815260040160405180910390fd5b805182511461118157604051633bcc897960e01b815260040160405180910390fd5b81516000036111a3576040516397da5f9560e01b815260040160405180910390fd5b60005b82518110156111f3576111eb8382815181106111c4576111c461383c565b60200260200101518383815181106111de576111de61383c565b60200260200101516122da565b6001016111a6565b505050565b6001600160a01b03811660009081526004602052604090206060906106c5906119b9565b61122461160c565b6040516316b96e9360e31b815260009073__$032f01bb2624c0993c8bfa756ae89be841$__9063b5cb74989061125e908690600401612fc2565b602060405180830381865af415801561127b573d6000803e3d6000fd5b505050506040513d601f19601f8201168201806040525081019061129f91906136fc565b6001600160d01b031981166000908152600960205260409020549091506001600160a01b03166112e257604051632a5cc95960e21b815260040160405180910390fd5b6001600160a01b03831660009081526008602052604090205461130e90839065ffffffffffff1661372f565b6001600160a01b039093166000908152600860205260409020805465ffffffffffff94909416600160301b026bffffffffffff00000000000019909416939093179092555050565b606081516001600160401b0381111561137157611371612e41565b6040519080825280602002602001820160405280156113a457816020015b606081526020019060019003908161138f5790505b50905060005b82518110156113fa576113d58382815181106113c8576113c861383c565b6020026020010151611b50565b8282815181106113e7576113e761383c565b60209081029190910101526001016113aa565b50919050565b61140861160c565b610fde600a8261225f565b600061141e83610b75565b90506001600160a01b038116331461144f57808333604051632d938f5160e11b81526004016101d093929190613852565b6001600160a01b03841661147657604051639577b8b360e01b815260040160405180910390fd5b836001600160a01b0316816001600160a01b0316036114a8576040516344fed6b160e11b815260040160405180910390fd5b6114b4848285856124bb565b60003384846040516020016114cb93929190613875565b6040516020818303038152906040529050610c2285826123e3565b6114ee61160c565b6001600160a01b0381166115535760405162461bcd60e51b815260206004820152602660248201527f4f776e61626c653a206e6577206f776e657220697320746865207a65726f206160448201526564647265737360d01b60648201526084016101d0565b61155c81612275565b50565b600080611583696773c5a04a6d4300884b60b11b6001600160e01b0319851661254a565b9050600061159082612596565b905080516014141580156115a45750805115155b156115c457806040516342bfe79f60e01b81526004016101d09190613159565b6115cd816138a5565b60601c949350505050565b60006001600160e01b03198216631ae9ba1f60e01b14806115fd57506115fd82612638565b806106c557506106c58261265d565b3361161f6000546001600160a01b031690565b6001600160a01b031614610ebc5760405162461bcd60e51b815260206004820181905260248201527f4f776e61626c653a2063616c6c6572206973206e6f7420746865206f776e657260448201526064016101d0565b60008061168a6000546001600160a01b031690565b90506001600160a01b0381163b156117a757600080826001600160a01b0316631626ba7e60e01b87876040516024016116c49291906138d8565b60408051601f198184030181529181526020820180516001600160e01b03166001600160e01b031990941693909317909252905161170291906136e0565b600060405180830381855afa9150503d806000811461173d576040519150601f19603f3d011682016040523d82523d6000602084013e611742565b606091505b50915091506000828015611757575081516020145b801561177e57508151630b135d3f60e11b9061177c9084016020908101908501613823565b145b905080611793576001600160e01b031961179c565b630b135d3f60e11b5b9450505050506106c5565b6000806117b48686612693565b909250905060008160048111156117cd576117cd6138f1565b146117e657506001600160e01b031992506106c5915050565b826001600160a01b0316826001600160a01b03161461180d576001600160e01b0319611816565b630b135d3f60e11b5b93505050506106c5565b5092915050565b60008061183383610b75565b9050806001600160a01b0316846001600160a01b031614806118855750600083815260056020526040902061188590856001600160a01b03811660009081526001830160205260408120541515610bc3565b949350505050565b60008181526001830160205260408120541515610bc3565b60006118b083610b75565b9050336001600260008282546118c69190613907565b909155506118d6905082856126d8565b6001600160a01b03821660009081526004602052604090206118f8908561272f565b5060008481526003602052604080822080546001600160a01b0319169055518591906001600160a01b03851690600080516020613baa8339815191529061194490869085908a9061391a565b60405180910390a4600082600086866040516020016119669493929190613946565b6040516020818303038152906040529050610c22838261273b565b6000818152600360205260409020546001600160a01b031661155c57604051635747cd1b60e11b8152600481018290526024016101d0565b60606000610bc3836127e6565b836001600160a01b0316856001600160a01b0316036119f857604051635d67d6c160e01b815260040160405180910390fd5b6000611a0384610b75565b9050856001600160a01b0316816001600160a01b031614611a3d57808487604051632d938f5160e11b81526004016101d093929190613852565b6001600160a01b038516611a64576040516324ecef4d60e01b815260040160405180910390fd5b33611a6f87866126d8565b6001600160a01b0387166000908152600460205260409020611a91908661272f565b506001600160a01b0386166000908152600460205260409020611ab4908661225f565b506000858152600360205260409081902080546001600160a01b0319166001600160a01b0389811691821790925591518792918a1690600080516020613baa83398151915290611b099086908a908a9061391a565b60405180910390a4600087878786604051602001611b2a9493929190613946565b6040516020818303038152906040529050611b45888261273b565b610b6b878683612841565b60608169ecc61895c6f4846136ff60b01b6001600160b01b0319821601611dd3576040516343baf82960e01b81526004810184905260009073__$032f01bb2624c0993c8bfa756ae89be841$__906343baf82990602401606060405180830381865af4158015611bc4573d6000803e3d6000fd5b505050506040513d601f19601f82011682018060405250810190611be8919061377b565b80516001600160d01b0319166000908152600960205260409020549091506001600160a01b031680611cb55760008581526001602052604090208054611c2d90613979565b80601f0160208091040260200160405190810160405280929190818152602001828054611c5990613979565b8015611ca65780601f10611c7b57610100808354040283529160200191611ca6565b820191906000526020600020905b815481529060010190602001808311611c8957829003601f168201915b50505050509350505050919050565b60408051630849ed4d60e11b815283516001600160d01b031916600482015260208401516001600160a01b0319908116602483015291840151909116604482015260009073__$032f01bb2624c0993c8bfa756ae89be841$__90631093da9a90606401602060405180830381865af4158015611d35573d6000803e3d6000fd5b505050506040513d601f19601f82011682018060405250810190611d599190613823565b6040516354f6127f60e01b8152600481018290529091506001600160a01b038316906354f6127f90602401600060405180830381865afa158015611da1573d6000803e3d6000fd5b505050506040513d6000823e601f3d908101601f19168201604052611dc991908101906139ad565b9695505050505050565b60008381526001602052604090208054611dec90613979565b80601f0160208091040260200160405190810160405280929190818152602001828054611e1890613979565b8015611e655780601f10611e3a57610100808354040283529160200191611e65565b820191906000526020600020905b815481529060010190602001808311611e4857829003601f168201915b5050505050915050919050565b6001600160d01b031982166000908152600960209081526040808320546001600160a01b0316808452600890925290912054600160601b90046001600160601b031681611ed257604051632a5cc95960e21b815260040160405180910390fd5b6040516301ffc9a760e01b81526001600160a01b038316906301ffc9a790611f0590632902c6c560e11b906004016136a0565b602060405180830381865afa158015611f22573d6000803e3d6000fd5b505050506040513d601f19601f82011682018060405250810190611f469190613a1a565b15611fdc576000826001600160a01b03166352058d8a6040518163ffffffff1660e01b8152600401602060405180830381865afa158015611f8b573d6000803e3d6000fd5b505050506040513d601f19601f82011682018060405250810190611faf9190613823565b905080826001600160601b031603611fda57604051636011602d60e01b815260040160405180910390fd5b505b6040516301ffc9a760e01b81526001600160a01b038316906301ffc9a79061200f90630e25267160e11b906004016136a0565b602060405180830381865afa15801561202c573d6000803e3d6000fd5b505050506040513d601f19601f820116820180604052508101906120509190613a1a565b156120e45760405163674986ff60e01b81526001600160a01b0319841660048201526001600160a01b0383169063674986ff90602401602060405180830381865afa1580156120a3573d6000803e3d6000fd5b505050506040513d601f19601f820116820180604052508101906120c79190613a1a565b6120e45760405163b103414760e01b815260040160405180910390fd5b6120ef816001613a37565b6001600160a01b03909216600090815260086020526040902080546001600160601b0393909316600160601b02600160601b600160c01b031990931692909217909155505050565b6001600160a01b03841661215e576040516324ecef4d60e01b815260040160405180910390fd5b6000838152600360205260409020546001600160a01b031615612197576040516334c7b51160e01b8152600481018490526024016101d0565b336001600260008282546121ab9190613a57565b90915550506001600160a01b03851660009081526004602052604090206121d2908561225f565b5060008481526003602052604080822080546001600160a01b0319166001600160a01b0389169081179091559051869290600080516020613baa833981519152906122229086908990899061391a565b60405180910390a46000808686856040516020016122439493929190613946565b6040516020818303038152906040529050611130868583612841565b6000610bc3838361293d565b60006106c5825490565b6000546001600160a01b0382811691161461155c57600080546001600160a01b038381166001600160a01b0319831681178455604051919092169283917f8be0079c531659141344cd1fd0a4f28419497f9722a3daafe3b4186f6b6457e09190a35050565b7f2145e1d6d074577dc71ef54c3807742b41b053a9352ae6b491331509acb9750f820161231a576040516385c169bd60e01b815260040160405180910390fd5b7fd0f59754f88971fe6bc5a6618cc9d5f1e859c58d16b22d1c7b2d3e2b246cd8aa820161235a57604051630eceab6760e31b815260040160405180910390fd5b60008281526001602052604090206123728282613ab0565b50817fece574603820d07bc9b91f2a932baadf4628aabcb8afba49776529c14a6104b2610100835111156123b3576123ae83600061010061298c565b6123b5565b825b6040516123c29190613159565b60405180910390a25050565b6000610bc3836001600160a01b03841661293d565b6123f482631aed5a8560e21b612a99565b15610fde576040516001600160a01b03831690631aed5a8560e21b90612440907f8a1c15a8799f71b547e08e2bcb2e85257e81b0a07eee2ce6712549eef1f009709085906024016138d8565b60408051601f198184030181529181526020820180516001600160e01b03166001600160e01b031990941693909317909252905161247e91906136e0565b6000604051808303816000865af19150503d8060008114610c22576040519150601f19603f3d011682016040523d82523d6000602084013e610c22565b60008281526005602052604081206124d39086612b2d565b9050806124f75784836040516312a8c6a360e21b81526004016101d0929190612d5a565b82846001600160a01b0316866001600160a01b03167f501bc920d7f604417e315bcf29247652b2327fa1076b27b7f132bd8927cb15ea8560405161253b9190613159565b60405180910390a45050505050565b604080516001600160b01b0319841660208201526000602a82018190526001600160601b03198416602c8301529182910160405160208183030381529060405290508061188590613b6f565b60008181526001602052604090208054606091906125b390613979565b80601f01602080910402602001604051908101604052809291908181526020018280546125df90613979565b801561262c5780601f106126015761010080835404028352916020019161262c565b820191906000526020600020905b81548152906001019060200180831161260f57829003601f168201915b50505050509050919050565b60006001600160e01b0319821663a918fa6b60e01b14806106c557506106c582612b42565b6000806126706301ffc9a760e01b61155f565b90506001600160a01b0381166126895750600092915050565b610bc38184612a99565b60008082516041036126c95760208301516040840151606085015160001a6126bd87828585612b77565b945094505050506126d1565b506000905060025b9250929050565b6000818152600560205260408120906126f08261226b565b905060005b81811015610c225760006127098482612c31565b9050612726818787604051806020016040528060008152506124bb565b506001016126f5565b6000610bc38383612c3d565b61274c82631aed5a8560e21b612a99565b15610fde57604051631aed5a8560e21b81526001600160a01b03831690636bb56a149061279f907fb23eae7e6d1564b295b4c3e3be402d9a2f0776c57bdf365903496f6fa481ab009085906004016138d8565b6000604051808303816000875af11580156127be573d6000803e3d6000fd5b505050506040513d6000823e601f3d908101601f191682016040526111f391908101906139ad565b60608160000180548060200260200160405190810160405280929190818152602001828054801561262c57602002820191906000526020600020905b8154815260200190600101908083116128225750505050509050919050565b61285283631aed5a8560e21b612a99565b156128f257604051631aed5a8560e21b81526001600160a01b03841690636bb56a14906128a5907f0b084a55ebf70fd3c06fd755269dac2212c4d3f0f4d09079780bfa50c1b2984d9085906004016138d8565b6000604051808303816000875af11580156128c4573d6000803e3d6000fd5b505050506040513d6000823e601f3d908101601f191682016040526128ec91908101906139ad565b50505050565b816111f3576001600160a01b0383163b156129225782604051634349776d60e01b81526004016101d09190612fc2565b82604051630317313760e01b81526004016101d09190612fc2565b6000818152600183016020526040812054612984575081546001818101845560008481526020808220909301849055845484825282860190935260409020919091556106c5565b5060006106c5565b60608161299a81601f613a57565b10156129d95760405162461bcd60e51b815260206004820152600e60248201526d736c6963655f6f766572666c6f7760901b60448201526064016101d0565b6129e38284613a57565b84511015612a275760405162461bcd60e51b8152602060048201526011602482015270736c6963655f6f75744f66426f756e647360781b60448201526064016101d0565b606082158015612a465760405191506000825260208201604052612a90565b6040519150601f8416801560200281840101858101878315602002848b0101015b81831015612a7f578051835260209283019201612a67565b5050858452601f01601f1916604052505b50949350505050565b6000806301ffc9a760e01b83604051602401612ab591906136a0565b604051602081830303815290604052906001600160e01b0319166020820180516001600160e01b03838183161783525050505090506000806000602060008551602087018a617530fa92503d91506000519050828015612b16575060208210155b8015612b225750600081115b979650505050505050565b6000610bc3836001600160a01b038416612c3d565b60006001600160e01b031982166318a6a9a560e21b14806106c557506301ffc9a760e01b6001600160e01b03198316146106c5565b6000806fa2a8918ca85bafe22016d0b997e4df60600160ff1b03831115612ba45750600090506003612c28565b6040805160008082526020820180845289905260ff881692820192909252606081018690526080810185905260019060a0016020604051602081039080840390855afa158015612bf8573d6000803e3d6000fd5b5050604051601f1901519150506001600160a01b038116612c2157600060019250925050612c28565b9150600090505b94509492505050565b6000610bc38383612d30565b60008181526001830160205260408120548015612d26576000612c61600183613907565b8554909150600090612c7590600190613907565b9050818114612cda576000866000018281548110612c9557612c9561383c565b9060005260206000200154905080876000018481548110612cb857612cb861383c565b6000918252602080832090910192909255918252600188019052604090208390555b8554869080612ceb57612ceb613b93565b6001900381819060005260206000200160009055905585600101600086815260200190815260200160002060009055600193505050506106c5565b60009150506106c5565b6000826000018281548110612d4757612d4761383c565b9060005260206000200154905092915050565b6001600160a01b03929092168252602082015260400190565b60208152816020820152818360408301376000818301604090810191909152601f909201601f19160101919050565b600060208284031215612db457600080fd5b81356001600160e01b031981168114610bc357600080fd5b80356001600160a01b0381168114612de357600080fd5b919050565b803565ffffffffffff81168114612de357600080fd5b600080600060608486031215612e1357600080fd5b612e1c84612dcc565b9250612e2a60208501612de8565b9150612e3860408501612de8565b90509250925092565b634e487b7160e01b600052604160045260246000fd5b604051601f8201601f191681016001600160401b0381118282101715612e7f57612e7f612e41565b604052919050565b60006001600160401b03821115612ea057612ea0612e41565b50601f01601f191660200190565b6000612ec1612ebc84612e87565b612e57565b9050828152838383011115612ed557600080fd5b828260208301376000602084830101529392505050565b600082601f830112612efd57600080fd5b610bc383833560208501612eae565b600080600060608486031215612f2157600080fd5b83356001600160401b0380821115612f3857600080fd5b818601915086601f830112612f4c57600080fd5b612f5b87833560208501612eae565b94506020860135915080821115612f7157600080fd5b50612f7e86828701612eec565b925050604084013590509250925092565b6001600160d01b03198116811461155c57600080fd5b600060208284031215612fb757600080fd5b8135610bc381612f8f565b6001600160a01b0391909116815260200190565b600060208284031215612fe857600080fd5b5035919050565b6000806040838503121561300257600080fd5b61300b83612dcc565b946020939093013593505050565b60006020828403121561302b57600080fd5b610bc382612dcc565b6020808252825182820181905260009190848201906040850190845b818110156130755783516001600160a01b031683529284019291840191600101613050565b50909695505050505050565b801515811461155c57600080fd5b600080600080600060a086880312156130a757600080fd5b6130b086612dcc565b94506130be60208701612dcc565b93506040860135925060608601356130d581613081565b915060808601356001600160401b038111156130f057600080fd5b6130fc88828901612eec565b9150509295509295909350565b60005b8381101561312457818101518382015260200161310c565b50506000910152565b60008151808452613145816020860160208601613109565b601f01601f19169290920160200192915050565b602081526000610bc3602083018461312d565b6001600160a01b03198116811461155c57600080fd5b60008060008060008060c0878903121561319b57600080fd5b6131a487612dcc565b95506131b260208801612dcc565b945060408701356131c28161316c565b935060608701356131d281613081565b925060808701356001600160401b038111156131ed57600080fd5b6131f989828a01612eec565b92505060a087013561320a81613081565b809150509295509295509295565b60006001600160401b0382111561323157613231612e41565b5060051b60200190565b600082601f83011261324c57600080fd5b8135602061325c612ebc83613218565b82815260059290921b8401810191818101908684111561327b57600080fd5b8286015b8481101561329d5761329081612dcc565b835291830191830161327f565b509695505050505050565b600082601f8301126132b957600080fd5b813560206132c9612ebc83613218565b82815260059290921b840181019181810190868411156132e857600080fd5b8286015b8481101561329d57803583529183019183016132ec565b600082601f83011261331457600080fd5b81356020613324612ebc83613218565b82815260059290921b8401810191818101908684111561334357600080fd5b8286015b8481101561329d57803561335a81613081565b8352918301918301613347565b600082601f83011261337857600080fd5b81356020613388612ebc83613218565b82815260059290921b840181019181810190868411156133a757600080fd5b8286015b8481101561329d5780356001600160401b038111156133ca5760008081fd5b6133d88986838b0101612eec565b8452509183019183016133ab565b600080600080600060a086880312156133fe57600080fd5b85356001600160401b038082111561341557600080fd5b61342189838a0161323b565b9650602088013591508082111561343757600080fd5b61344389838a0161323b565b9550604088013591508082111561345957600080fd5b61346589838a016132a8565b9450606088013591508082111561347b57600080fd5b61348789838a01613303565b9350608088013591508082111561349d57600080fd5b506130fc88828901613367565b600080604083850312156134bd57600080fd5b8235915060208301356001600160401b038111156134da57600080fd5b6134e685828601612eec565b9150509250929050565b60008060006060848603121561350557600080fd5b61350e84612dcc565b92506020840135915060408401356001600160401b0381111561353057600080fd5b61353c86828701612eec565b9150509250925092565b6000806040838503121561355957600080fd5b82356001600160401b038082111561357057600080fd5b61357c868387016132a8565b9350602085013591508082111561359257600080fd5b506134e685828601613367565b6020808252825182820181905260009190848201906040850190845b81811015613075578351835292840192918401916001016135bb565b600080604083850312156135ea57600080fd5b6135f383612dcc565b915061360160208401612de8565b90509250929050565b60006020828403121561361c57600080fd5b81356001600160401b0381111561363257600080fd5b611885848285016132a8565b6000602080830181845280855180835260408601915060408160051b870101925083870160005b8281101561369357603f1988860301845261368185835161312d565b94509285019290850190600101613665565b5092979650505050505050565b6001600160e01b031991909116815260200190565b8385823760609290921b6001600160601b031916919092019081526014810191909152603401919050565b600082516136f2818460208701613109565b9190910192915050565b60006020828403121561370e57600080fd5b8151610bc381612f8f565b634e487b7160e01b600052601160045260246000fd5b65ffffffffffff81811683821601908082111561182057611820613719565b63ffffffff19831681526000825161376d81601c850160208701613109565b91909101601c019392505050565b60006060828403121561378d57600080fd5b604051606081018181106001600160401b03821117156137af576137af612e41565b60405282516137bd81612f8f565b815260208301516137cd8161316c565b602082015260408301516137e08161316c565b60408201529392505050565b805160208201516001600160a01b0319808216929190600c83101561381b57808184600c0360031b1b83161693505b505050919050565b60006020828403121561383557600080fd5b5051919050565b634e487b7160e01b600052603260045260246000fd5b6001600160a01b0393841681526020810192909252909116604082015260600190565b60018060a01b038416815282602082015260606040820152600061389c606083018461312d565b95945050505050565b805160208201516001600160601b0319808216929190601483101561381b5760149290920360031b82901b161692915050565b828152604060208201526000611885604083018461312d565b634e487b7160e01b600052602160045260246000fd5b818103818111156106c5576106c5613719565b6001600160a01b0384168152821515602082015260606040820181905260009061389c9083018461312d565b6001600160a01b0385811682528416602082015260408101839052608060608201819052600090611dc99083018461312d565b600181811c9082168061398d57607f821691505b6020821081036113fa57634e487b7160e01b600052602260045260246000fd5b6000602082840312156139bf57600080fd5b81516001600160401b038111156139d557600080fd5b8201601f810184136139e657600080fd5b80516139f4612ebc82612e87565b818152856020838501011115613a0957600080fd5b61389c826020830160208601613109565b600060208284031215613a2c57600080fd5b8151610bc381613081565b6001600160601b0381811683821601908082111561182057611820613719565b808201808211156106c5576106c5613719565b601f8211156111f357600081815260208120601f850160051c81016020861015613a915750805b601f850160051c820191505b8181101561113057828155600101613a9d565b81516001600160401b03811115613ac957613ac9612e41565b613add81613ad78454613979565b84613a6a565b602080601f831160018114613b125760008415613afa5750858301515b600019600386901b1c1916600185901b178555611130565b600085815260208120601f198616915b82811015613b4157888601518255948401946001909101908401613b22565b5085821015613b5f5787850151600019600388901b60f8161c191681555b5050505050600190811b01905550565b805160208083015191908110156113fa5760001960209190910360031b1b16919050565b634e487b7160e01b600052603160045260246000fdfeb333c813a7426a7a11e2b190cad52c44119421594b47f6f32ace6d8c7207b2bfa2646970667358221220bf376f5af1b19f2a7a9922601167dee96445a03cc1c3e49ab52f388f854b0e2564736f6c63430008130033",
  "linkReferences": {
    "contracts/TokenUtils.sol": {
      "TokenUtils": [
        {
          "length": 20,
          "start": 3173
        },
        {
          "length": 20,
          "start": 3853
        },
        {
          "length": 20,
          "start": 4521
        },
        {
          "length": 20,
          "start": 4953
        },
        {
          "length": 20,
          "start": 6033
        },
        {
          "length": 20,
          "start": 8421
        },
        {
          "length": 20,
          "start": 8790
        }
      ]
    }
  },
  "deployedLinkReferences": {
    "contracts/TokenUtils.sol": {
      "TokenUtils": [
        {
          "length": 20,
          "start": 1802
        },
        {
          "length": 20,
          "start": 2482
        },
        {
          "length": 20,
          "start": 3150
        },
        {
          "length": 20,
          "start": 3582
        },
        {
          "length": 20,
          "start": 4662
        },
        {
          "length": 20,
          "start": 7050
        },
        {
          "length": 20,
          "start": 7419
        }
      ]
    }
  }
}