{
  "_format": "hh-sol-artifact-1",
  "contractName": "AssetPlaceholder",
  "sourceName": "contracts/AssetPlaceholder.sol",
  "abi": [
    {
      "inputs": [
        {
          "internalType": "string",
          "name": "name_",
          "type": "string"
        },
        {
          "internalType": "string",
          "name": "symbol_",
          "type": "string"
        },
        {
          "internalType": "address",
          "name": "newOwner_",
          "type": "address"
        },
        {
          "internalType": "address",
          "name": "assetRegistry_",
          "type": "address"
        }
      ],
      "stateMutability": "nonpayable",
      "type": "constructor"
    },
    {
      "inputs": [],
      "name": "CollectionAddressCannotBeZero",
      "type": "error"
    },
    {
      "inputs": [],
      "name": "CollectionAlreadyRegistered",
      "type": "error"
    },
    {
      "inputs": [],
      "name": "CollectionNotRegistered",
      "type": "error"
    },
    {
      "inputs": [],
      "name": "ERC725Y_DataKeysValuesEmptyArray",
      "type": "error"
    },
    {
      "inputs": [],
      "name": "ERC725Y_DataKeysValuesLengthMismatch",
      "type": "error"
    },
    {
      "inputs": [],
      "name": "ERC725Y_MsgValueDisallowed",
      "type": "error"
    },
    {
      "inputs": [
        {
          "internalType": "bytes",
          "name": "storedData",
          "type": "bytes"
        }
      ],
      "name": "InvalidExtensionAddress",
      "type": "error"
    },
    {
      "inputs": [],
      "name": "InvalidFamilySignature",
      "type": "error"
    },
    {
      "inputs": [
        {
          "internalType": "bytes",
          "name": "data",
          "type": "bytes"
        }
      ],
      "name": "InvalidFunctionSelector",
      "type": "error"
    },
    {
      "inputs": [],
      "name": "LSP4TokenNameNotEditable",
      "type": "error"
    },
    {
      "inputs": [],
      "name": "LSP4TokenSymbolNotEditable",
      "type": "error"
    },
    {
      "inputs": [],
      "name": "LSP4TokenTypeNotEditable",
      "type": "error"
    },
    {
      "inputs": [
        {
          "internalType": "uint256",
          "name": "callIndex",
          "type": "uint256"
        }
      ],
      "name": "LSP8BatchCallFailed",
      "type": "error"
    },
    {
      "inputs": [],
      "name": "LSP8CannotSendToAddressZero",
      "type": "error"
    },
    {
      "inputs": [],
      "name": "LSP8CannotUseAddressZeroAsOperator",
      "type": "error"
    },
    {
      "inputs": [],
      "name": "LSP8InvalidTransferBatch",
      "type": "error"
    },
    {
      "inputs": [
        {
          "internalType": "bytes32",
          "name": "tokenId",
          "type": "bytes32"
        }
      ],
      "name": "LSP8NonExistentTokenId",
      "type": "error"
    },
    {
      "inputs": [
        {
          "internalType": "address",
          "name": "operator",
          "type": "address"
        },
        {
          "internalType": "bytes32",
          "name": "tokenId",
          "type": "bytes32"
        }
      ],
      "name": "LSP8NonExistingOperator",
      "type": "error"
    },
    {
      "inputs": [
        {
          "internalType": "bytes32",
          "name": "tokenId",
          "type": "bytes32"
        },
        {
          "internalType": "address",
          "name": "caller",
          "type": "address"
        }
      ],
      "name": "LSP8NotTokenOperator",
      "type": "error"
    },
    {
      "inputs": [
        {
          "internalType": "address",
          "name": "tokenOwner",
          "type": "address"
        },
        {
          "internalType": "bytes32",
          "name": "tokenId",
          "type": "bytes32"
        },
        {
          "internalType": "address",
          "name": "caller",
          "type": "address"
        }
      ],
      "name": "LSP8NotTokenOwner",
      "type": "error"
    },
    {
      "inputs": [
        {
          "internalType": "address",
          "name": "operator",
          "type": "address"
        },
        {
          "internalType": "bytes32",
          "name": "tokenId",
          "type": "bytes32"
        }
      ],
      "name": "LSP8OperatorAlreadyAuthorized",
      "type": "error"
    },
    {
      "inputs": [
        {
          "internalType": "address",
          "name": "caller",
          "type": "address"
        },
        {
          "internalType": "address",
          "name": "tokenOwner",
          "type": "address"
        },
        {
          "internalType": "bytes32",
          "name": "tokenId",
          "type": "bytes32"
        }
      ],
      "name": "LSP8RevokeOperatorNotAuthorized",
      "type": "error"
    },
    {
      "inputs": [],
      "name": "LSP8TokenContractCannotHoldValue",
      "type": "error"
    },
    {
      "inputs": [
        {
          "internalType": "bytes32",
          "name": "tokenId",
          "type": "bytes32"
        }
      ],
      "name": "LSP8TokenIdAlreadyMinted",
      "type": "error"
    },
    {
      "inputs": [],
      "name": "LSP8TokenIdFormatNotEditable",
      "type": "error"
    },
    {
      "inputs": [],
      "name": "LSP8TokenIdsDataEmptyArray",
      "type": "error"
    },
    {
      "inputs": [],
      "name": "LSP8TokenIdsDataLengthMismatch",
      "type": "error"
    },
    {
      "inputs": [],
      "name": "LSP8TokenOwnerCannotBeOperator",
      "type": "error"
    },
    {
      "inputs": [
        {
          "internalType": "bytes32",
          "name": "tokenId",
          "type": "bytes32"
        },
        {
          "internalType": "address",
          "name": "oldOwner",
          "type": "address"
        },
        {
          "internalType": "address",
          "name": "newOwner",
          "type": "address"
        }
      ],
      "name": "LSP8TokenOwnerChanged",
      "type": "error"
    },
    {
      "inputs": [],
      "name": "MintLimitReachedForCollection",
      "type": "error"
    },
    {
      "inputs": [],
      "name": "MintingPeriodEnded",
      "type": "error"
    },
    {
      "inputs": [],
      "name": "MintingPeriodNotStarted",
      "type": "error"
    },
    {
      "inputs": [
        {
          "internalType": "bytes4",
          "name": "functionSelector",
          "type": "bytes4"
        }
      ],
      "name": "NoExtensionFoundForFunctionSelector",
      "type": "error"
    },
    {
      "inputs": [],
      "name": "TokenIsFrozen",
      "type": "error"
    },
    {
      "inputs": [],
      "name": "TokenNotReadyToBeRegistered",
      "type": "error"
    },
    {
      "inputs": [],
      "name": "VariantNotRegistered",
      "type": "error"
    },
    {
      "anonymous": false,
      "inputs": [
        {
          "indexed": true,
          "internalType": "bytes32",
          "name": "dataKey",
          "type": "bytes32"
        },
        {
          "indexed": false,
          "internalType": "bytes",
          "name": "dataValue",
          "type": "bytes"
        }
      ],
      "name": "DataChanged",
      "type": "event"
    },
    {
      "anonymous": false,
      "inputs": [
        {
          "indexed": true,
          "internalType": "address",
          "name": "operator",
          "type": "address"
        },
        {
          "indexed": true,
          "internalType": "address",
          "name": "tokenOwner",
          "type": "address"
        },
        {
          "indexed": true,
          "internalType": "bytes32",
          "name": "tokenId",
          "type": "bytes32"
        },
        {
          "indexed": false,
          "internalType": "bytes",
          "name": "operatorNotificationData",
          "type": "bytes"
        }
      ],
      "name": "OperatorAuthorizationChanged",
      "type": "event"
    },
    {
      "anonymous": false,
      "inputs": [
        {
          "indexed": true,
          "internalType": "address",
          "name": "operator",
          "type": "address"
        },
        {
          "indexed": true,
          "internalType": "address",
          "name": "tokenOwner",
          "type": "address"
        },
        {
          "indexed": true,
          "internalType": "bytes32",
          "name": "tokenId",
          "type": "bytes32"
        },
        {
          "indexed": false,
          "internalType": "bool",
          "name": "notified",
          "type": "bool"
        },
        {
          "indexed": false,
          "internalType": "bytes",
          "name": "operatorNotificationData",
          "type": "bytes"
        }
      ],
      "name": "OperatorRevoked",
      "type": "event"
    },
    {
      "anonymous": false,
      "inputs": [
        {
          "indexed": true,
          "internalType": "address",
          "name": "previousOwner",
          "type": "address"
        },
        {
          "indexed": true,
          "internalType": "address",
          "name": "newOwner",
          "type": "address"
        }
      ],
      "name": "OwnershipTransferred",
      "type": "event"
    },
    {
      "anonymous": false,
      "inputs": [
        {
          "indexed": false,
          "internalType": "address",
          "name": "",
          "type": "address"
        },
        {
          "indexed": false,
          "internalType": "uint256",
          "name": "",
          "type": "uint256"
        }
      ],
      "name": "Received",
      "type": "event"
    },
    {
      "anonymous": false,
      "inputs": [
        {
          "indexed": true,
          "internalType": "bytes32",
          "name": "tokenId",
          "type": "bytes32"
        },
        {
          "indexed": true,
          "internalType": "bytes32",
          "name": "dataKey",
          "type": "bytes32"
        },
        {
          "indexed": false,
          "internalType": "bytes",
          "name": "dataValue",
          "type": "bytes"
        }
      ],
      "name": "TokenIdDataChanged",
      "type": "event"
    },
    {
      "anonymous": false,
      "inputs": [
        {
          "indexed": false,
          "internalType": "address",
          "name": "operator",
          "type": "address"
        },
        {
          "indexed": true,
          "internalType": "address",
          "name": "from",
          "type": "address"
        },
        {
          "indexed": true,
          "internalType": "address",
          "name": "to",
          "type": "address"
        },
        {
          "indexed": true,
          "internalType": "bytes32",
          "name": "tokenId",
          "type": "bytes32"
        },
        {
          "indexed": false,
          "internalType": "bool",
          "name": "force",
          "type": "bool"
        },
        {
          "indexed": false,
          "internalType": "bytes",
          "name": "data",
          "type": "bytes"
        }
      ],
      "name": "Transfer",
      "type": "event"
    },
    {
      "stateMutability": "payable",
      "type": "fallback"
    },
    {
      "inputs": [],
      "name": "assetRegistry",
      "outputs": [
        {
          "internalType": "address",
          "name": "",
          "type": "address"
        }
      ],
      "stateMutability": "view",
      "type": "function"
    },
    {
      "inputs": [
        {
          "internalType": "address",
          "name": "operator",
          "type": "address"
        },
        {
          "internalType": "bytes32",
          "name": "tokenId",
          "type": "bytes32"
        },
        {
          "internalType": "bytes",
          "name": "operatorNotificationData",
          "type": "bytes"
        }
      ],
      "name": "authorizeOperator",
      "outputs": [],
      "stateMutability": "nonpayable",
      "type": "function"
    },
    {
      "inputs": [
        {
          "internalType": "address",
          "name": "tokenOwner",
          "type": "address"
        }
      ],
      "name": "balanceOf",
      "outputs": [
        {
          "internalType": "uint256",
          "name": "",
          "type": "uint256"
        }
      ],
      "stateMutability": "view",
      "type": "function"
    },
    {
      "inputs": [
        {
          "internalType": "bytes[]",
          "name": "data",
          "type": "bytes[]"
        }
      ],
      "name": "batchCalls",
      "outputs": [
        {
          "internalType": "bytes[]",
          "name": "results",
          "type": "bytes[]"
        }
      ],
      "stateMutability": "nonpayable",
      "type": "function"
    },
    {
      "inputs": [
        {
          "internalType": "address",
          "name": "",
          "type": "address"
        }
      ],
      "name": "collectionMeta",
      "outputs": [
        {
          "internalType": "uint48",
          "name": "startAt",
          "type": "uint48"
        },
        {
          "internalType": "uint48",
          "name": "endAt",
          "type": "uint48"
        },
        {
          "internalType": "uint96",
          "name": "count",
          "type": "uint96"
        },
        {
          "internalType": "bool",
          "name": "digital",
          "type": "bool"
        }
      ],
      "stateMutability": "view",
      "type": "function"
    },
    {
      "inputs": [
        {
          "internalType": "bytes6",
          "name": "",
          "type": "bytes6"
        }
      ],
      "name": "collections",
      "outputs": [
        {
          "internalType": "address",
          "name": "",
          "type": "address"
        }
      ],
      "stateMutability": "view",
      "type": "function"
    },
    {
      "inputs": [
        {
          "internalType": "bytes32",
          "name": "tokenId",
          "type": "bytes32"
        }
      ],
      "name": "freeze",
      "outputs": [],
      "stateMutability": "nonpayable",
      "type": "function"
    },
    {
      "inputs": [
        {
          "internalType": "bytes32",
          "name": "dataKey",
          "type": "bytes32"
        }
      ],
      "name": "getData",
      "outputs": [
        {
          "internalType": "bytes",
          "name": "dataValue",
          "type": "bytes"
        }
      ],
      "stateMutability": "view",
      "type": "function"
    },
    {
      "inputs": [
        {
          "internalType": "bytes32[]",
          "name": "dataKeys",
          "type": "bytes32[]"
        }
      ],
      "name": "getDataBatch",
      "outputs": [
        {
          "internalType": "bytes[]",
          "name": "dataValues",
          "type": "bytes[]"
        }
      ],
      "stateMutability": "view",
      "type": "function"
    },
    {
      "inputs": [
        {
          "internalType": "bytes32[]",
          "name": "tokenIds",
          "type": "bytes32[]"
        },
        {
          "internalType": "bytes32[]",
          "name": "dataKeys",
          "type": "bytes32[]"
        }
      ],
      "name": "getDataBatchForTokenIds",
      "outputs": [
        {
          "internalType": "bytes[]",
          "name": "dataValues",
          "type": "bytes[]"
        }
      ],
      "stateMutability": "view",
      "type": "function"
    },
    {
      "inputs": [
        {
          "internalType": "bytes32",
          "name": "tokenId",
          "type": "bytes32"
        },
        {
          "internalType": "bytes32",
          "name": "dataKey",
          "type": "bytes32"
        }
      ],
      "name": "getDataForTokenId",
      "outputs": [
        {
          "internalType": "bytes",
          "name": "dataValue",
          "type": "bytes"
        }
      ],
      "stateMutability": "view",
      "type": "function"
    },
    {
      "inputs": [
        {
          "internalType": "bytes32",
          "name": "tokenId",
          "type": "bytes32"
        }
      ],
      "name": "getOperatorsOf",
      "outputs": [
        {
          "internalType": "address[]",
          "name": "",
          "type": "address[]"
        }
      ],
      "stateMutability": "view",
      "type": "function"
    },
    {
      "inputs": [
        {
          "internalType": "address",
          "name": "operator",
          "type": "address"
        },
        {
          "internalType": "bytes32",
          "name": "tokenId",
          "type": "bytes32"
        }
      ],
      "name": "isOperatorFor",
      "outputs": [
        {
          "internalType": "bool",
          "name": "",
          "type": "bool"
        }
      ],
      "stateMutability": "view",
      "type": "function"
    },
    {
      "inputs": [
        {
          "internalType": "address",
          "name": "to",
          "type": "address"
        },
        {
          "internalType": "address",
          "name": "collection",
          "type": "address"
        },
        {
          "internalType": "bytes12",
          "name": "variantId",
          "type": "bytes12"
        },
        {
          "internalType": "bool",
          "name": "allowNonLSP1Recipient",
          "type": "bool"
        },
        {
          "internalType": "bytes",
          "name": "data",
          "type": "bytes"
        },
        {
          "internalType": "bool",
          "name": "frozen",
          "type": "bool"
        }
      ],
      "name": "mint",
      "outputs": [],
      "stateMutability": "nonpayable",
      "type": "function"
    },
    {
      "inputs": [],
      "name": "owner",
      "outputs": [
        {
          "internalType": "address",
          "name": "",
          "type": "address"
        }
      ],
      "stateMutability": "view",
      "type": "function"
    },
    {
      "inputs": [
        {
          "internalType": "string",
          "name": "uid",
          "type": "string"
        },
        {
          "internalType": "bytes",
          "name": "signature",
          "type": "bytes"
        },
        {
          "internalType": "bytes32",
          "name": "_tokenId",
          "type": "bytes32"
        }
      ],
      "name": "register",
      "outputs": [],
      "stateMutability": "nonpayable",
      "type": "function"
    },
    {
      "inputs": [
        {
          "internalType": "address",
          "name": "collection",
          "type": "address"
        },
        {
          "internalType": "uint48",
          "name": "startAt",
          "type": "uint48"
        },
        {
          "internalType": "uint48",
          "name": "duration",
          "type": "uint48"
        },
        {
          "internalType": "bool",
          "name": "digital",
          "type": "bool"
        }
      ],
      "name": "registerCollection",
      "outputs": [],
      "stateMutability": "nonpayable",
      "type": "function"
    },
    {
      "inputs": [],
      "name": "renounceOwnership",
      "outputs": [],
      "stateMutability": "nonpayable",
      "type": "function"
    },
    {
      "inputs": [
        {
          "internalType": "address",
          "name": "operator",
          "type": "address"
        },
        {
          "internalType": "bytes32",
          "name": "tokenId",
          "type": "bytes32"
        },
        {
          "internalType": "bool",
          "name": "notify",
          "type": "bool"
        },
        {
          "internalType": "bytes",
          "name": "operatorNotificationData",
          "type": "bytes"
        }
      ],
      "name": "revokeOperator",
      "outputs": [],
      "stateMutability": "nonpayable",
      "type": "function"
    },
    {
      "inputs": [
        {
          "internalType": "bytes32",
          "name": "dataKey",
          "type": "bytes32"
        },
        {
          "internalType": "bytes",
          "name": "dataValue",
          "type": "bytes"
        }
      ],
      "name": "setData",
      "outputs": [],
      "stateMutability": "payable",
      "type": "function"
    },
    {
      "inputs": [
        {
          "internalType": "bytes32[]",
          "name": "dataKeys",
          "type": "bytes32[]"
        },
        {
          "internalType": "bytes[]",
          "name": "dataValues",
          "type": "bytes[]"
        }
      ],
      "name": "setDataBatch",
      "outputs": [],
      "stateMutability": "payable",
      "type": "function"
    },
    {
      "inputs": [
        {
          "internalType": "bytes32[]",
          "name": "tokenIds",
          "type": "bytes32[]"
        },
        {
          "internalType": "bytes32[]",
          "name": "dataKeys",
          "type": "bytes32[]"
        },
        {
          "internalType": "bytes[]",
          "name": "dataValues",
          "type": "bytes[]"
        }
      ],
      "name": "setDataBatchForTokenIds",
      "outputs": [],
      "stateMutability": "nonpayable",
      "type": "function"
    },
    {
      "inputs": [
        {
          "internalType": "bytes32",
          "name": "tokenId",
          "type": "bytes32"
        },
        {
          "internalType": "bytes32",
          "name": "dataKey",
          "type": "bytes32"
        },
        {
          "internalType": "bytes",
          "name": "dataValue",
          "type": "bytes"
        }
      ],
      "name": "setDataForTokenId",
      "outputs": [],
      "stateMutability": "nonpayable",
      "type": "function"
    },
    {
      "inputs": [
        {
          "internalType": "bytes4",
          "name": "_interfaceId",
          "type": "bytes4"
        }
      ],
      "name": "supportsInterface",
      "outputs": [
        {
          "internalType": "bool",
          "name": "",
          "type": "bool"
        }
      ],
      "stateMutability": "view",
      "type": "function"
    },
    {
      "inputs": [
        {
          "internalType": "address",
          "name": "tokenOwner",
          "type": "address"
        }
      ],
      "name": "tokenIdsOf",
      "outputs": [
        {
          "internalType": "bytes32[]",
          "name": "",
          "type": "bytes32[]"
        }
      ],
      "stateMutability": "view",
      "type": "function"
    },
    {
      "inputs": [
        {
          "internalType": "bytes32",
          "name": "tokenId",
          "type": "bytes32"
        }
      ],
      "name": "tokenOwnerOf",
      "outputs": [
        {
          "internalType": "address",
          "name": "",
          "type": "address"
        }
      ],
      "stateMutability": "view",
      "type": "function"
    },
    {
      "inputs": [],
      "name": "totalSupply",
      "outputs": [
        {
          "internalType": "uint256",
          "name": "",
          "type": "uint256"
        }
      ],
      "stateMutability": "view",
      "type": "function"
    },
    {
      "inputs": [
        {
          "internalType": "address",
          "name": "from",
          "type": "address"
        },
        {
          "internalType": "address",
          "name": "to",
          "type": "address"
        },
        {
          "internalType": "bytes32",
          "name": "tokenId",
          "type": "bytes32"
        },
        {
          "internalType": "bool",
          "name": "allowNonLSP1Recipient",
          "type": "bool"
        },
        {
          "internalType": "bytes",
          "name": "data",
          "type": "bytes"
        }
      ],
      "name": "transfer",
      "outputs": [],
      "stateMutability": "nonpayable",
      "type": "function"
    },
    {
      "inputs": [
        {
          "internalType": "address[]",
          "name": "from",
          "type": "address[]"
        },
        {
          "internalType": "address[]",
          "name": "to",
          "type": "address[]"
        },
        {
          "internalType": "bytes32[]",
          "name": "tokenId",
          "type": "bytes32[]"
        },
        {
          "internalType": "bool[]",
          "name": "force",
          "type": "bool[]"
        },
        {
          "internalType": "bytes[]",
          "name": "data",
          "type": "bytes[]"
        }
      ],
      "name": "transferBatch",
      "outputs": [],
      "stateMutability": "nonpayable",
      "type": "function"
    },
    {
      "inputs": [
        {
          "internalType": "address",
          "name": "newOwner",
          "type": "address"
        }
      ],
      "name": "transferOwnership",
      "outputs": [],
      "stateMutability": "nonpayable",
      "type": "function"
    },
    {
      "inputs": [
        {
          "internalType": "address",
          "name": "collection",
          "type": "address"
        },
        {
          "internalType": "uint48",
          "name": "duration",
          "type": "uint48"
        }
      ],
      "name": "updateMintDuration",
      "outputs": [],
      "stateMutability": "nonpayable",
      "type": "function"
    },
    {
      "stateMutability": "payable",
      "type": "receive"
    }
  ],
  "bytecode": "0x60806040523480156200001157600080fd5b506040516200496838038062004968833981016040819052620000349162000499565b8383836001600384848484816001600160a01b038116620000aa5760405162461bcd60e51b815260206004820152602660248201527f4f776e61626c653a206e6577206f776e657220697320746865207a65726f206160448201526564647265737360d01b606482015260840160405180910390fd5b620000b5816200021c565b506040805180820190915260048152632936598960e21b6020820152620000fe907feafec4d89fa9619884b60000a4d96624a38f7ac2d8d9a604ecf07c12c77e480c9062000283565b6200012a7fdeba1e292f8ba88238e10ab3c7f88bd4be4fac56cad5194b6ecceaf653468af18562000283565b620001567f2f0a68ab07768e01943a599e73362a0e17a63a72e94dd2e384d2c1d4db9327568462000283565b60408051602081018390526200019f917fe0261fa95db2eb3b5439bd033cda66d56b96f92f243a8228fd87550ed7bdfdb3910160408051601f1981840301815291905262000283565b50506040805160208101859052620001ec93507ff675e9361af1c1664c1868cfa3eb97672d6b1a513aa5b81dec34c9ee330e818d92500160408051601f19818403018152919052620002dc565b5050600780546001600160a01b0319166001600160a01b03959095169490941790935550620006b8945050505050565b6000546001600160a01b038281169116146200028057600080546001600160a01b038381166001600160a01b0319831681178455604051919092169283917f8be0079c531659141344cd1fd0a4f28419497f9722a3daafe3b4186f6b6457e09190a3505b50565b60008281526001602052604090206200029d8282620005b7565b50817fece574603820d07bc9b91f2a932baadf4628aabcb8afba49776529c14a6104b282604051620002d0919062000683565b60405180910390a25050565b620002e88282620002ec565b5050565b7f2145e1d6d074577dc71ef54c3807742b41b053a9352ae6b491331509acb9750f82016200032d576040516385c169bd60e01b815260040160405180910390fd5b7fd0f59754f88971fe6bc5a6618cc9d5f1e859c58d16b22d1c7b2d3e2b246cd8aa82016200036e57604051630eceab6760e31b815260040160405180910390fd5b7f1fd9e056a24d14c4abc642fcc325992a946906d0dbc57dd70278aaf12842024d82016200028357604051634ef6d7fb60e01b815260040160405180910390fd5b634e487b7160e01b600052604160045260246000fd5b60005b83811015620003e2578181015183820152602001620003c8565b50506000910152565b600082601f830112620003fd57600080fd5b81516001600160401b03808211156200041a576200041a620003af565b604051601f8301601f19908116603f01168101908282118183101715620004455762000445620003af565b816040528381528660208588010111156200045f57600080fd5b62000472846020830160208901620003c5565b9695505050505050565b80516001600160a01b03811681146200049457600080fd5b919050565b60008060008060808587031215620004b057600080fd5b84516001600160401b0380821115620004c857600080fd5b620004d688838901620003eb565b95506020870151915080821115620004ed57600080fd5b50620004fc87828801620003eb565b9350506200050d604086016200047c565b91506200051d606086016200047c565b905092959194509250565b600181811c908216806200053d57607f821691505b6020821081036200055e57634e487b7160e01b600052602260045260246000fd5b50919050565b601f821115620005b257600081815260208120601f850160051c810160208610156200058d5750805b601f850160051c820191505b81811015620005ae5782815560010162000599565b5050505b505050565b81516001600160401b03811115620005d357620005d3620003af565b620005eb81620005e4845462000528565b8462000564565b602080601f8311600181146200062357600084156200060a5750858301515b600019600386901b1c1916600185901b178555620005ae565b600085815260208120601f198616915b82811015620006545788860151825594840194600190910190840162000633565b5085821015620006735787850151600019600388901b60f8161c191681555b5050505050600190811b01905550565b6020815260008251806020840152620006a4816040850160208701620003c5565b601f01601f19169190910160400192915050565b6142a080620006c86000396000f3fe60806040526004361061019c5760003560e01c8063715018a6116100e2578063a3b261f211610085578063a3b261f2146105c9578063bb9308b9146105f6578063be9f0e6f14610616578063d6c1407c14610636578063db8c966314610656578063dedff9c614610676578063ec13cc7b14610696578063f2fde38b146106b6576101f7565b8063715018a6146104f05780637e659ea3146105055780637e87632c146105255780637f23690c1461054557806386a10ddd146105585780638da5cb5b146105785780639790242114610596578063979d7e86146105a9576101f7565b80632a3654a41161014a5780632a3654a41461036b5780634127ed5d1461038b57806349a6078d14610423578063511b69521461045057806354f6127f14610470578063599610f2146104905780636963d438146104b057806370a08231146104d0576101f7565b806301ffc9a7146102385780630eeb86d11461026d57806316e023b31461028f578063170b65f0146102bc57806318160ddd146102ff5780631d26fce61461031e578063217b22701461034b576101f7565b366101f757346000036101de5760405163e5099ee360e01b81526004016101d59060208082526004908201526000604082015260600190565b60405180910390fd5b6040516330fa4a2160e11b815260040160405180910390fd5b6000366060600482101561022257828260405163e5099ee360e01b81526004016101d5929190613108565b61022c83836106d6565b80519350602001915050f35b34801561024457600080fd5b50610258610253366004613137565b6107cc565b60405190151581526020015b60405180910390f35b34801561027957600080fd5b5061028d61028836600461322c565b6107f1565b005b34801561029b57600080fd5b506102af6102aa3660046132af565b610a8c565b6040516102649190613321565b3480156102c857600080fd5b506102f26102d736600461334a565b6009602052600090815260409020546001600160a01b031681565b6040516102649190613367565b34801561030b57600080fd5b506002545b604051908152602001610264565b34801561032a57600080fd5b5061033e610339366004613404565b610a9f565b6040516102649190613467565b34801561035757600080fd5b506102f26103663660046134c9565b610b86565b34801561037757600080fd5b506102586103863660046134fe565b610bbf565b34801561039757600080fd5b506103e96103a6366004613528565b60086020526000908152604090205465ffffffffffff80821691600160301b810490911690600160601b81046001600160601b031690600160c01b900460ff1684565b6040805165ffffffffffff95861681529490931660208501526001600160601b039091169183019190915215156060820152608001610264565b34801561042f57600080fd5b5061044361043e3660046134c9565b610bcb565b6040516102649190613543565b34801561045c57600080fd5b5061028d61046b36600461359e565b610bed565b34801561047c57600080fd5b506102af61048b3660046134c9565b610c2a565b34801561049c57600080fd5b5061028d6104ab36600461362e565b610c35565b3480156104bc57600080fd5b5061033e6104cb3660046136c4565b610f10565b3480156104dc57600080fd5b506103106104eb366004613528565b61103f565b3480156104fc57600080fd5b5061028d611060565b34801561051157600080fd5b5061028d61052036600461374e565b611074565b34801561053157600080fd5b5061028d6105403660046138e9565b61122e565b61028d6105533660046139ad565b61131d565b34801561056457600080fd5b5061028d6105733660046139e9565b611352565b34801561058457600080fd5b506000546001600160a01b03166102f2565b61028d6105a4366004613a3f565b6114ba565b3480156105b557600080fd5b506007546102f2906001600160a01b031681565b3480156105d557600080fd5b506105e96105e4366004613528565b61157a565b6040516102649190613a98565b34801561060257600080fd5b5061028d610611366004613ad0565b61159e565b34801561062257600080fd5b5061028d610631366004613b03565b6116d8565b34801561064257600080fd5b5061028d610651366004613b80565b6117a3565b34801561066257600080fd5b5061028d610671366004613bb9565b6117b6565b34801561068257600080fd5b5061033e610691366004613c22565b61189a565b3480156106a257600080fd5b5061028d6106b13660046134c9565b611944565b3480156106c257600080fd5b5061028d6106d1366004613528565b611957565b606060006106ef6000356001600160e01b0319166119d0565b5090506001600160a01b038116610727576000356001600160e01b03191660405163bb370b2b60e01b81526004016101d59190613c56565b600080826001600160a01b0316348787333460405160200161074c9493929190613c6b565b60408051601f198184030181529082905261076691613c96565b60006040518083038185875af1925050503d80600081146107a3576040519150601f19603f3d011682016040523d82523d6000602084013e6107a8565b606091505b509150915081156107bd5792506107c6915050565b80518060208301fd5b92915050565b60006001600160e01b03198216630bd6448160e11b14806107c657506107c682611a4e565b6040513390600090610829907f19457468657265756d205369676e6564204d6573736167653a0a323200000000908790602001613cb2565b60408051601f1981840301815291905280516020909101209050630b135d3f60e11b6108558286611a82565b6001600160e01b0319161461087d57604051632f86bfc360e11b815260040160405180910390fd5b6108878284611c2d565b6108b657604051631294d2a960e01b8152600481018490526001600160a01b03831660248201526044016101d5565b6108c1600a84611c87565b6108de576040516308f6249b60e41b815260040160405180910390fd5b60405163044aa5bf60e51b81526004810184905260009073__$032f01bb2624c0993c8bfa756ae89be841$__90638954b7e090602401606060405180830381865af4158015610931573d6000803e3d6000fd5b505050506040513d601f19601f820116820180604052508101906109559190613cdf565b80516001600160d01b031916600090815260096020908152604091829020548951918a01919091206007549251630bd6448160e11b8152600481018290526001600160a01b0392831660248201819052604482018a9052949550909291909116906317ac890290606401600060405180830381600087803b1580156109d957600080fd5b505af11580156109ed573d6000803e3d6000fd5b50505050816001600160a01b0316632b7c023c338560400151866020015160016040518563ffffffff1660e01b8152600401610a2c9493929190613d50565b600060405180830381600087803b158015610a4657600080fd5b505af1158015610a5a573d6000803e3d6000fd5b50505050610a828660405180604001604052806002815260200161060f60f31b815250611c9f565b5050505050505050565b6060610a988383611d81565b9392505050565b60608151835114610ac3576040516317d38eff60e11b815260040160405180910390fd5b82516001600160401b03811115610adc57610adc613161565b604051908082528060200260200182016040528015610b0f57816020015b6060815260200190600190039081610afa5790505b50905060005b8351811015610b7f57610b5a848281518110610b3357610b33613d9d565b6020026020010151848381518110610b4d57610b4d613d9d565b6020026020010151611d81565b828281518110610b6c57610b6c613d9d565b6020908102919091010152600101610b15565b5092915050565b6000818152600360205260408120546001600160a01b0316806107c657604051635747cd1b60e11b8152600481018490526024016101d5565b6000610a988383611c2d565b6060610bd682611e2f565b60008281526005602052604090206107c690611e58565b610bf8600a84611c87565b15610c1657604051631caa93c560e01b815260040160405180910390fd5b610c238585858585611e65565b5050505050565b60606107c682612011565b610c3d612333565b6040516316b96e9360e31b815260009073__$032f01bb2624c0993c8bfa756ae89be841$__9063b5cb749890610c77908990600401613367565b602060405180830381865af4158015610c94573d6000803e3d6000fd5b505050506040513d601f19601f82011682018060405250810190610cb89190613db3565b6001600160a01b0387166000908152600860209081526040918290208251608081018452905465ffffffffffff808216808452600160301b830490911693830193909352600160601b81046001600160601b031693820193909352600160c01b90920460ff161515606083015291925090421015610d4957604051633700559760e21b815260040160405180910390fd5b806020015165ffffffffffff16421115610d7657604051633ba7278d60e11b815260040160405180910390fd5b610d80828761239c565b6001600160a01b0387166000908152600860209081526040808320549051600160601b90910460a01b6001600160a01b03191691810191909152602c01604051602081830303815290604052610dd590613dd0565b6040516332e33fa360e11b81526001600160a01b038a1660048201526001600160a01b0319808a1660248301528216604482015290915060009073__$032f01bb2624c0993c8bfa756ae89be841$__906365c67f4690606401602060405180830381865af4158015610e4b573d6000803e3d6000fd5b505050506040513d601f19601f82011682018060405250810190610e6f9190613e07565b9050826060015115610ee557604051630adf008f60e21b81526001600160a01b038a1690632b7c023c90610eae908d9086908d90600190600401613d50565b600060405180830381600087803b158015610ec857600080fd5b505af1158015610edc573d6000803e3d6000fd5b50505050610ef1565b610ef18a828989612666565b8415610f0457610f02600a826127a0565b505b50505050505050505050565b6060816001600160401b03811115610f2a57610f2a613161565b604051908082528060200260200182016040528015610f5d57816020015b6060815260200190600190039081610f485790505b50905060005b82811015610b7f5760008030868685818110610f8157610f81613d9d565b9050602002810190610f939190613e20565b604051610fa1929190613e66565b600060405180830381855af49150503d8060008114610fdc576040519150601f19603f3d011682016040523d82523d6000602084013e610fe1565b606091505b50915091508161101757805115610ffb5780518082602001fd5b60405163234eb81960e01b8152600481018490526024016101d5565b8084848151811061102a5761102a613d9d565b60209081029190910101525050600101610f63565b6001600160a01b03811660009081526004602052604081206107c6906127ac565b611068612333565b61107260006127b6565b565b61107c612333565b6040516316b96e9360e31b815260009073__$032f01bb2624c0993c8bfa756ae89be841$__9063b5cb7498906110b6908890600401613367565b602060405180830381865af41580156110d3573d6000803e3d6000fd5b505050506040513d601f19601f820116820180604052508101906110f79190613db3565b6001600160d01b031981166000908152600960205260409020549091506001600160a01b03161561113b576040516341ab882d60e01b815260040160405180910390fd5b600060405180608001604052808665ffffffffffff16815260200185876111629190613e8c565b65ffffffffffff9081168252600060208084018290529615156040938401526001600160a01b03909916808a5260088752828a2084518154868a0151878701516060909801511515600160c01b0260ff60c01b196001600160601b0399909916600160601b0298909816600160601b600160c81b0319918716600160301b026001600160601b031990931693909616929092171716929092179390931790556001600160d01b0319909316875260099093525090932080546001600160a01b0319169093179092555050565b8451845181141580611241575083518114155b8061124d575082518114155b80611259575081518114155b15611277576040516393a8311960e01b815260040160405180910390fd5b60005b818110156113145761130c87828151811061129757611297613d9d565b60200260200101518783815181106112b1576112b1613d9d565b60200260200101518784815181106112cb576112cb613d9d565b60200260200101518785815181106112e5576112e5613d9d565b60200260200101518786815181106112ff576112ff613d9d565b6020026020010151610bed565b60010161127a565b50505050505050565b611325612333565b34156113445760405163f36ba73760e01b815260040160405180910390fd5b61134e828261281b565b5050565b600061135d83610b86565b90506001600160a01b038116331461138e57808333604051632d938f5160e11b81526004016101d593929190613eab565b6001600160a01b0384166113b557604051639577b8b360e01b815260040160405180910390fd5b836001600160a01b0316816001600160a01b0316036113e7576040516344fed6b160e11b815260040160405180910390fd5b60008381526005602052604081206113ff9086612865565b905080611431576040516314ec4d6d60e31b81526001600160a01b0386166004820152602481018590526044016101d5565b83826001600160a01b0316866001600160a01b03167f1b1b58aa2ec0cec2228b2d37124556d41f5a1f7b12f089171f896cc236671215866040516114759190613321565b60405180910390a4600033856001866040516020016114979493929190613ece565b60405160208183030381529060405290506114b2868261287a565b505050505050565b6114c2612333565b34156114e15760405163f36ba73760e01b815260040160405180910390fd5b805182511461150357604051633bcc897960e01b815260040160405180910390fd5b8151600003611525576040516397da5f9560e01b815260040160405180910390fd5b60005b82518110156115755761156d83828151811061154657611546613d9d565b602002602001015183838151811061156057611560613d9d565b602002602001015161281b565b600101611528565b505050565b6001600160a01b03811660009081526004602052604090206060906107c690611e58565b6115a6612333565b6040516316b96e9360e31b815260009073__$032f01bb2624c0993c8bfa756ae89be841$__9063b5cb7498906115e0908690600401613367565b602060405180830381865af41580156115fd573d6000803e3d6000fd5b505050506040513d601f19601f820116820180604052508101906116219190613db3565b6001600160d01b031981166000908152600960205260409020549091506001600160a01b031661166457604051632a5cc95960e21b815260040160405180910390fd5b6001600160a01b03831660009081526008602052604090205461169090839065ffffffffffff16613e8c565b6001600160a01b039093166000908152600860205260409020805465ffffffffffff94909416600160301b026bffffffffffff00000000000019909416939093179092555050565b6116e0612333565b815183511415806116f357508051825114155b15611711576040516317d38eff60e11b815260040160405180910390fd5b8251600003611733576040516380c9830560e01b815260040160405180910390fd5b60005b835181101561179d5761179584828151811061175457611754613d9d565b602002602001015184838151811061176e5761176e613d9d565b602002602001015184848151811061178857611788613d9d565b60200260200101516128a5565b600101611736565b50505050565b6117ab612333565b6115758383836128a5565b60006117c184610b86565b9050336001600160a01b03821614611814576001600160a01b03851633146118145760405163760b5acd60e01b81523360048201526001600160a01b0382166024820152604481018590526064016101d5565b6001600160a01b03851661183b57604051639577b8b360e01b815260040160405180910390fd5b846001600160a01b0316816001600160a01b03160361186d576040516344fed6b160e11b815260040160405180910390fd5b61187a8582868686612907565b8215610c2357600081856000856040516020016114979493929190613ece565b606081516001600160401b038111156118b5576118b5613161565b6040519080825280602002602001820160405280156118e857816020015b60608152602001906001900390816118d35790505b50905060005b825181101561193e5761191983828151811061190c5761190c613d9d565b6020026020010151612011565b82828151811061192b5761192b613d9d565b60209081029190910101526001016118ee565b50919050565b61194c612333565b61134e600a826127a0565b61195f612333565b6001600160a01b0381166119c45760405162461bcd60e51b815260206004820152602660248201527f4f776e61626c653a206e6577206f776e657220697320746865207a65726f206160448201526564647265737360d01b60648201526084016101d5565b6119cd816127b6565b50565b600080806119f5696773c5a04a6d4300884b60b11b6001600160e01b031986166129a7565b90506000611a02826129fb565b90508051601414158015611a165750805115155b15611a3657806040516342bfe79f60e01b81526004016101d59190613321565b611a3f81613efd565b60601c95600195509350505050565b60006001600160e01b03198216631d138b8360e11b1480611a735750611a7382612a9d565b806107c657506107c682612ac2565b600080611a976000546001600160a01b031690565b90506001600160a01b0381163b15611bb457600080826001600160a01b0316631626ba7e60e01b8787604051602401611ad1929190613f30565b60408051601f198184030181529181526020820180516001600160e01b03166001600160e01b0319909416939093179092529051611b0f9190613c96565b600060405180830381855afa9150503d8060008114611b4a576040519150601f19603f3d011682016040523d82523d6000602084013e611b4f565b606091505b50915091506000828015611b64575081516020145b8015611b8b57508151630b135d3f60e11b90611b899084016020908101908501613e07565b145b905080611ba0576001600160e01b0319611ba9565b630b135d3f60e11b5b9450505050506107c6565b600080611bc18686612af9565b90925090506000816004811115611bda57611bda613f49565b14611bf357506001600160e01b031992506107c6915050565b826001600160a01b0316826001600160a01b031614611c1a576001600160e01b0319611c23565b630b135d3f60e11b5b93505050506107c6565b6000611c3882610b86565b6001600160a01b0316836001600160a01b03161480610a9857506000828152600560205260409020610a9890846001600160a01b03811660009081526001830160205260408120541515610a98565b60008181526001830160205260408120541515610a98565b6000611caa83610b86565b9050611cb583610b86565b9050600260008154611cc690613f5f565b90915550611cd48184612b3e565b6001600160a01b0381166000908152600460205260409020611cf69084612b96565b5060008381526003602052604080822080546001600160a01b0319169055518491906001600160a01b0384169060008051602061424b83398151915290611d4290339085908990613f76565b60405180910390a46000338260008686604051602001611d66959493929190613fab565b604051602081830303815290604052905061179d8282612ba2565b60008281526006602090815260408083208484529091529020805460609190611da990613fe6565b80601f0160208091040260200160405190810160405280929190818152602001828054611dd590613fe6565b8015611e225780601f10611df757610100808354040283529160200191611e22565b820191906000526020600020905b815481529060010190602001808311611e0557829003601f168201915b5050505050905092915050565b611e3881612bcd565b6119cd57604051635747cd1b60e11b8152600481018290526024016101d5565b60606000610a9883612bea565b6000611e7084610b86565b9050856001600160a01b0316816001600160a01b031614611eaa57808487604051632d938f5160e11b81526004016101d593929190613eab565b6001600160a01b038516611ed1576040516324ecef4d60e01b815260040160405180910390fd5b6000611edc85610b86565b9050806001600160a01b0316826001600160a01b031614611f2a57604051635a9c31d360e01b8152600481018690526001600160a01b038084166024830152821660448201526064016101d5565b611f348786612b3e565b6001600160a01b0387166000908152600460205260409020611f569086612b96565b506001600160a01b0386166000908152600460205260409020611f7990866127a0565b506000858152600360205260409081902080546001600160a01b0319166001600160a01b0389811691821790925591518792918a169060008051602061424b83398151915290611fce9033908a908a90613f76565b60405180910390a460003388888887604051602001611ff1959493929190613fab565b604051602081830303815290604052905061200c8882612ba2565b610a82565b60608169ecc61895c6f4846136ff60b01b6001600160b01b0319821601612294576040516343baf82960e01b81526004810184905260009073__$032f01bb2624c0993c8bfa756ae89be841$__906343baf82990602401606060405180830381865af4158015612085573d6000803e3d6000fd5b505050506040513d601f19601f820116820180604052508101906120a99190613cdf565b80516001600160d01b0319166000908152600960205260409020549091506001600160a01b03168061217657600085815260016020526040902080546120ee90613fe6565b80601f016020809104026020016040519081016040528092919081815260200182805461211a90613fe6565b80156121675780601f1061213c57610100808354040283529160200191612167565b820191906000526020600020905b81548152906001019060200180831161214a57829003601f168201915b50505050509350505050919050565b60408051630849ed4d60e11b815283516001600160d01b031916600482015260208401516001600160a01b0319908116602483015291840151909116604482015260009073__$032f01bb2624c0993c8bfa756ae89be841$__90631093da9a90606401602060405180830381865af41580156121f6573d6000803e3d6000fd5b505050506040513d601f19601f8201168201806040525081019061221a9190613e07565b6040516354f6127f60e01b8152600481018290529091506001600160a01b038316906354f6127f90602401600060405180830381865afa158015612262573d6000803e3d6000fd5b505050506040513d6000823e601f3d908101601f1916820160405261228a919081019061401a565b9695505050505050565b600083815260016020526040902080546122ad90613fe6565b80601f01602080910402602001604051908101604052809291908181526020018280546122d990613fe6565b80156123265780601f106122fb57610100808354040283529160200191612326565b820191906000526020600020905b81548152906001019060200180831161230957829003601f168201915b5050505050915050919050565b336123466000546001600160a01b031690565b6001600160a01b0316146110725760405162461bcd60e51b815260206004820181905260248201527f4f776e61626c653a2063616c6c6572206973206e6f7420746865206f776e657260448201526064016101d5565b6001600160d01b031982166000908152600960209081526040808320546001600160a01b0316808452600890925290912054600160601b90046001600160601b0316816123fc57604051632a5cc95960e21b815260040160405180910390fd5b6040516301ffc9a760e01b81526001600160a01b038316906301ffc9a79061242f90632902c6c560e11b90600401613c56565b602060405180830381865afa15801561244c573d6000803e3d6000fd5b505050506040513d601f19601f820116820180604052508101906124709190614087565b15612506576000826001600160a01b03166352058d8a6040518163ffffffff1660e01b8152600401602060405180830381865afa1580156124b5573d6000803e3d6000fd5b505050506040513d601f19601f820116820180604052508101906124d99190613e07565b905080826001600160601b03160361250457604051636011602d60e01b815260040160405180910390fd5b505b6040516301ffc9a760e01b81526001600160a01b038316906301ffc9a79061253990630e25267160e11b90600401613c56565b602060405180830381865afa158015612556573d6000803e3d6000fd5b505050506040513d601f19601f8201168201806040525081019061257a9190614087565b1561260e5760405163674986ff60e01b81526001600160a01b0319841660048201526001600160a01b0383169063674986ff90602401602060405180830381865afa1580156125cd573d6000803e3d6000fd5b505050506040513d601f19601f820116820180604052508101906125f19190614087565b61260e5760405163b103414760e01b815260040160405180910390fd5b6126198160016140a4565b6001600160a01b03909216600090815260086020526040902080546001600160601b0393909316600160601b026bffffffffffffffffffffffff60601b1990931692909217909155505050565b6001600160a01b03841661268d576040516324ecef4d60e01b815260040160405180910390fd5b61269683612bcd565b156126b7576040516334c7b51160e01b8152600481018490526024016101d5565b6126c083612bcd565b156126e1576040516334c7b51160e01b8152600481018490526024016101d5565b6002600081546126f0906140c4565b909155506001600160a01b038416600090815260046020526040902061271690846127a0565b5060008381526003602052604080822080546001600160a01b0319166001600160a01b038816908117909155905185929060008051602061424b8339815191529061276690339088908890613f76565b60405180910390a4600033600086868560405160200161278a959493929190613fab565b6040516020818303038152906040529050610c23565b6000610a988383612c45565b60006107c6825490565b6000546001600160a01b038281169116146119cd57600080546001600160a01b038381166001600160a01b0319831681178455604051919092169283917f8be0079c531659141344cd1fd0a4f28419497f9722a3daafe3b4186f6b6457e09190a35050565b7f098a16c9e50e3e99b3e797305c146898d294e5aec55a47e213cb3611ccf17e73820161285b57604051631b32400560e11b815260040160405180910390fd5b61134e8282612c94565b6000610a98836001600160a01b038416612c45565b61134e827f8a1c15a8799f71b547e08e2bcb2e85257e81b0a07eee2ce6712549eef1f0097083612c9e565b600083815260066020908152604080832085845290915290206128c88282614123565b5081837fa6e4251f855f750545fe414f120db91c76b88def14d120969e5bb2d3f05debbb836040516128fa9190613321565b60405180910390a3505050565b600083815260056020526040812061291f9087612d32565b905080612951576040516312a8c6a360e21b81526001600160a01b0387166004820152602481018590526044016101d5565b83856001600160a01b0316876001600160a01b03167fc78cd419d6136f9f1c1c6aec1d3fae098cffaf8bc86314a8f2685e32fe574e3c86866040516129979291906141e2565b60405180910390a4505050505050565b604080516001600160b01b0319841660208201526000602a82018190526001600160601b03198416602c830152918291016040516020818303038152906040529050806129f3906141fd565b949350505050565b6000818152600160205260409020805460609190612a1890613fe6565b80601f0160208091040260200160405190810160405280929190818152602001828054612a4490613fe6565b8015612a915780601f10612a6657610100808354040283529160200191612a91565b820191906000526020600020905b815481529060010190602001808311612a7457829003601f168201915b50505050509050919050565b60006001600160e01b0319821663a918fa6b60e01b14806107c657506107c682612d47565b600080612ad56301ffc9a760e01b6119d0565b5090506001600160a01b038116612aef5750600092915050565b610a988184612d7c565b6000808251604103612b2f5760208301516040840151606085015160001a612b2387828585612e10565b94509450505050612b37565b506000905060025b9250929050565b600081815260056020526040812090612b56826127ac565b90506000805b828110156114b257612b6f846000612eca565b9150612b8e828787600060405180602001604052806000815250612907565b600101612b5c565b6000610a988383612ed6565b61134e827fb23eae7e6d1564b295b4c3e3be402d9a2f0776c57bdf365903496f6fa481ab0083612c9e565b6000908152600360205260409020546001600160a01b0316151590565b606081600001805480602002602001604051908101604052809291908181526020018280548015612a9157602002820191906000526020600020905b815481526020019060010190808311612c265750505050509050919050565b6000818152600183016020526040812054612c8c575081546001818101845560008481526020808220909301849055845484825282860190935260409020919091556107c6565b5060006107c6565b61134e8282612fc9565b612cb86001600160a01b038416631aed5a8560e21b612d7c565b1561157557604051631aed5a8560e21b81526001600160a01b03841690636bb56a1490612ceb9085908590600401613f30565b6000604051808303816000875af1158015612d0a573d6000803e3d6000fd5b505050506040513d6000823e601f3d908101601f1916820160405261179d919081019061401a565b6000610a98836001600160a01b038416612ed6565b60006001600160e01b031982166318a6a9a560e21b14806107c657506301ffc9a760e01b6001600160e01b03198316146107c6565b6000806301ffc9a760e01b83604051602401612d989190613c56565b604051602081830303815290604052906001600160e01b0319166020820180516001600160e01b03838183161783525050505090506000806000602060008551602087018a617530fa92503d91506000519050828015612df9575060208210155b8015612e055750600081115b979650505050505050565b6000806fa2a8918ca85bafe22016d0b997e4df60600160ff1b03831115612e3d5750600090506003612ec1565b6040805160008082526020820180845289905260ff881692820192909252606081018690526080810185905260019060a0016020604051602081039080840390855afa158015612e91573d6000803e3d6000fd5b5050604051601f1901519150506001600160a01b038116612eba57600060019250925050612ec1565b9150600090505b94509492505050565b6000610a9883836130de565b60008181526001830160205260408120548015612fbf576000612efa600183614221565b8554909150600090612f0e90600190614221565b9050818114612f73576000866000018281548110612f2e57612f2e613d9d565b9060005260206000200154905080876000018481548110612f5157612f51613d9d565b6000918252602080832090910192909255918252600188019052604090208390555b8554869080612f8457612f84614234565b6001900381819060005260206000200160009055905585600101600086815260200190815260200160002060009055600193505050506107c6565b60009150506107c6565b7f2145e1d6d074577dc71ef54c3807742b41b053a9352ae6b491331509acb9750f8201613009576040516385c169bd60e01b815260040160405180910390fd5b7fd0f59754f88971fe6bc5a6618cc9d5f1e859c58d16b22d1c7b2d3e2b246cd8aa820161304957604051630eceab6760e31b815260040160405180910390fd5b7f1fd9e056a24d14c4abc642fcc325992a946906d0dbc57dd70278aaf12842024d820161308957604051634ef6d7fb60e01b815260040160405180910390fd5b60008281526001602052604090206130a18282614123565b50817fece574603820d07bc9b91f2a932baadf4628aabcb8afba49776529c14a6104b2826040516130d29190613321565b60405180910390a25050565b60008260000182815481106130f5576130f5613d9d565b9060005260206000200154905092915050565b60208152816020820152818360408301376000818301604090810191909152601f909201601f19160101919050565b60006020828403121561314957600080fd5b81356001600160e01b031981168114610a9857600080fd5b634e487b7160e01b600052604160045260246000fd5b604051601f8201601f191681016001600160401b038111828210171561319f5761319f613161565b604052919050565b60006001600160401b038211156131c0576131c0613161565b50601f01601f191660200190565b60006131e16131dc846131a7565b613177565b90508281528383830111156131f557600080fd5b828260208301376000602084830101529392505050565b600082601f83011261321d57600080fd5b610a98838335602085016131ce565b60008060006060848603121561324157600080fd5b83356001600160401b038082111561325857600080fd5b818601915086601f83011261326c57600080fd5b61327b878335602085016131ce565b9450602086013591508082111561329157600080fd5b5061329e8682870161320c565b925050604084013590509250925092565b600080604083850312156132c257600080fd5b50508035926020909101359150565b60005b838110156132ec5781810151838201526020016132d4565b50506000910152565b6000815180845261330d8160208601602086016132d1565b601f01601f19169290920160200192915050565b602081526000610a9860208301846132f5565b6001600160d01b0319811681146119cd57600080fd5b60006020828403121561335c57600080fd5b8135610a9881613334565b6001600160a01b0391909116815260200190565b60006001600160401b0382111561339457613394613161565b5060051b60200190565b600082601f8301126133af57600080fd5b813560206133bf6131dc8361337b565b82815260059290921b840181019181810190868411156133de57600080fd5b8286015b848110156133f957803583529183019183016133e2565b509695505050505050565b6000806040838503121561341757600080fd5b82356001600160401b038082111561342e57600080fd5b61343a8683870161339e565b9350602085013591508082111561345057600080fd5b5061345d8582860161339e565b9150509250929050565b6000602080830181845280855180835260408601915060408160051b870101925083870160005b828110156134bc57603f198886030184526134aa8583516132f5565b9450928501929085019060010161348e565b5092979650505050505050565b6000602082840312156134db57600080fd5b5035919050565b80356001600160a01b03811681146134f957600080fd5b919050565b6000806040838503121561351157600080fd5b61351a836134e2565b946020939093013593505050565b60006020828403121561353a57600080fd5b610a98826134e2565b6020808252825182820181905260009190848201906040850190845b818110156135845783516001600160a01b03168352928401929184019160010161355f565b50909695505050505050565b80151581146119cd57600080fd5b600080600080600060a086880312156135b657600080fd5b6135bf866134e2565b94506135cd602087016134e2565b93506040860135925060608601356135e481613590565b915060808601356001600160401b038111156135ff57600080fd5b61360b8882890161320c565b9150509295509295909350565b6001600160a01b0319811681146119cd57600080fd5b60008060008060008060c0878903121561364757600080fd5b613650876134e2565b955061365e602088016134e2565b9450604087013561366e81613618565b9350606087013561367e81613590565b925060808701356001600160401b0381111561369957600080fd5b6136a589828a0161320c565b92505060a08701356136b681613590565b809150509295509295509295565b600080602083850312156136d757600080fd5b82356001600160401b03808211156136ee57600080fd5b818501915085601f83011261370257600080fd5b81358181111561371157600080fd5b8660208260051b850101111561372657600080fd5b60209290920196919550909350505050565b803565ffffffffffff811681146134f957600080fd5b6000806000806080858703121561376457600080fd5b61376d856134e2565b935061377b60208601613738565b925061378960408601613738565b9150606085013561379981613590565b939692955090935050565b600082601f8301126137b557600080fd5b813560206137c56131dc8361337b565b82815260059290921b840181019181810190868411156137e457600080fd5b8286015b848110156133f9576137f9816134e2565b83529183019183016137e8565b600082601f83011261381757600080fd5b813560206138276131dc8361337b565b82815260059290921b8401810191818101908684111561384657600080fd5b8286015b848110156133f957803561385d81613590565b835291830191830161384a565b600082601f83011261387b57600080fd5b8135602061388b6131dc8361337b565b82815260059290921b840181019181810190868411156138aa57600080fd5b8286015b848110156133f95780356001600160401b038111156138cd5760008081fd5b6138db8986838b010161320c565b8452509183019183016138ae565b600080600080600060a0868803121561390157600080fd5b85356001600160401b038082111561391857600080fd5b61392489838a016137a4565b9650602088013591508082111561393a57600080fd5b61394689838a016137a4565b9550604088013591508082111561395c57600080fd5b61396889838a0161339e565b9450606088013591508082111561397e57600080fd5b61398a89838a01613806565b935060808801359150808211156139a057600080fd5b5061360b8882890161386a565b600080604083850312156139c057600080fd5b8235915060208301356001600160401b038111156139dd57600080fd5b61345d8582860161320c565b6000806000606084860312156139fe57600080fd5b613a07846134e2565b92506020840135915060408401356001600160401b03811115613a2957600080fd5b613a358682870161320c565b9150509250925092565b60008060408385031215613a5257600080fd5b82356001600160401b0380821115613a6957600080fd5b613a758683870161339e565b93506020850135915080821115613a8b57600080fd5b5061345d8582860161386a565b6020808252825182820181905260009190848201906040850190845b8181101561358457835183529284019291840191600101613ab4565b60008060408385031215613ae357600080fd5b613aec836134e2565b9150613afa60208401613738565b90509250929050565b600080600060608486031215613b1857600080fd5b83356001600160401b0380821115613b2f57600080fd5b613b3b8783880161339e565b94506020860135915080821115613b5157600080fd5b613b5d8783880161339e565b93506040860135915080821115613b7357600080fd5b50613a358682870161386a565b600080600060608486031215613b9557600080fd5b833592506020840135915060408401356001600160401b03811115613a2957600080fd5b60008060008060808587031215613bcf57600080fd5b613bd8856134e2565b9350602085013592506040850135613bef81613590565b915060608501356001600160401b03811115613c0a57600080fd5b613c168782880161320c565b91505092959194509250565b600060208284031215613c3457600080fd5b81356001600160401b03811115613c4a57600080fd5b6129f38482850161339e565b6001600160e01b031991909116815260200190565b8385823760609290921b6001600160601b031916919092019081526014810191909152603401919050565b60008251613ca88184602087016132d1565b9190910192915050565b63ffffffff198316815260008251613cd181601c8501602087016132d1565b91909101601c019392505050565b600060608284031215613cf157600080fd5b604051606081018181106001600160401b0382111715613d1357613d13613161565b6040528251613d2181613334565b81526020830151613d3181613618565b60208201526040830151613d4481613618565b60408201529392505050565b6001600160a01b039490941684526001600160a01b03199283166020850152911660408301521515606082015260a06080820181905260029082015261060f60f31b60c082015260e00190565b634e487b7160e01b600052603260045260246000fd5b600060208284031215613dc557600080fd5b8151610a9881613334565b805160208201516001600160a01b0319808216929190600c831015613dff57808184600c0360031b1b83161693505b505050919050565b600060208284031215613e1957600080fd5b5051919050565b6000808335601e19843603018112613e3757600080fd5b8301803591506001600160401b03821115613e5157600080fd5b602001915036819003821315612b3757600080fd5b8183823760009101908152919050565b634e487b7160e01b600052601160045260246000fd5b65ffffffffffff818116838216019080821115610b7f57610b7f613e76565b6001600160a01b0393841681526020810192909252909116604082015260600190565b60018060a01b0385168152836020820152821515604082015260806060820152600061228a60808301846132f5565b805160208201516001600160601b03198082169291906014831015613dff5760149290920360031b82901b161692915050565b8281526040602082015260006129f360408301846132f5565b634e487b7160e01b600052602160045260246000fd5b600081613f6e57613f6e613e76565b506000190190565b6001600160a01b03841681528215156020820152606060408201819052600090613fa2908301846132f5565b95945050505050565b6001600160a01b0386811682528581166020830152841660408201526060810183905260a060808201819052600090612e05908301846132f5565b600181811c90821680613ffa57607f821691505b60208210810361193e57634e487b7160e01b600052602260045260246000fd5b60006020828403121561402c57600080fd5b81516001600160401b0381111561404257600080fd5b8201601f8101841361405357600080fd5b80516140616131dc826131a7565b81815285602083850101111561407657600080fd5b613fa28260208301602086016132d1565b60006020828403121561409957600080fd5b8151610a9881613590565b6001600160601b03818116838216019080821115610b7f57610b7f613e76565b6000600182016140d6576140d6613e76565b5060010190565b601f82111561157557600081815260208120601f850160051c810160208610156141045750805b601f850160051c820191505b818110156114b257828155600101614110565b81516001600160401b0381111561413c5761413c613161565b6141508161414a8454613fe6565b846140dd565b602080601f831160018114614185576000841561416d5750858301515b600019600386901b1c1916600185901b1785556114b2565b600085815260208120601f198616915b828110156141b457888601518255948401946001909101908401614195565b50858210156141d25787850151600019600388901b60f8161c191681555b5050505050600190811b01905550565b82151581526040602082015260006129f360408301846132f5565b8051602080830151919081101561193e5760001960209190910360031b1b16919050565b818103818111156107c6576107c6613e76565b634e487b7160e01b600052603160045260246000fdfeb333c813a7426a7a11e2b190cad52c44119421594b47f6f32ace6d8c7207b2bfa26469706673582212201da42574e3dad4531b2a5052e822db37f575333dd06ba676308b2770be6c310e64736f6c63430008140033",
  "linkReferences": {
    "contracts/TokenUtils.sol": {
      "TokenUtils": [
        {
          "length": 20,
          "start": 4031
        },
        {
          "length": 20,
          "start": 4887
        },
        {
          "length": 20,
          "start": 5337
        },
        {
          "length": 20,
          "start": 5974
        },
        {
          "length": 20,
          "start": 7296
        },
        {
          "length": 20,
          "start": 10003
        },
        {
          "length": 20,
          "start": 10372
        }
      ]
    }
  },
  "deployedLinkReferences": {
    "contracts/TokenUtils.sol": {
      "TokenUtils": [
        {
          "length": 20,
          "start": 2295
        },
        {
          "length": 20,
          "start": 3151
        },
        {
          "length": 20,
          "start": 3601
        },
        {
          "length": 20,
          "start": 4238
        },
        {
          "length": 20,
          "start": 5560
        },
        {
          "length": 20,
          "start": 8267
        },
        {
          "length": 20,
          "start": 8636
        }
      ]
    }
  }
}