{
  "_format": "hh-sol-artifact-1",
  "contractName": "UniversalProfile",
  "sourceName": "@lukso/lsp-smart-contracts/contracts/UniversalProfile.sol",
  "abi": [
    {
      "inputs": [
        {
          "internalType": "address",
          "name": "initialOwner",
          "type": "address"
        }
      ],
      "stateMutability": "payable",
      "type": "constructor"
    },
    {
      "inputs": [],
      "name": "CannotTransferOwnershipToSelf",
      "type": "error"
    },
    {
      "inputs": [],
      "name": "ERC725X_ContractDeploymentFailed",
      "type": "error"
    },
    {
      "inputs": [],
      "name": "ERC725X_CreateOperationsRequireEmptyRecipientAddress",
      "type": "error"
    },
    {
      "inputs": [],
      "name": "ERC725X_ExecuteParametersEmptyArray",
      "type": "error"
    },
    {
      "inputs": [],
      "name": "ERC725X_ExecuteParametersLengthMismatch",
      "type": "error"
    },
    {
      "inputs": [
        {
          "internalType": "uint256",
          "name": "balance",
          "type": "uint256"
        },
        {
          "internalType": "uint256",
          "name": "value",
          "type": "uint256"
        }
      ],
      "name": "ERC725X_InsufficientBalance",
      "type": "error"
    },
    {
      "inputs": [],
      "name": "ERC725X_MsgValueDisallowedInDelegateCall",
      "type": "error"
    },
    {
      "inputs": [],
      "name": "ERC725X_MsgValueDisallowedInStaticCall",
      "type": "error"
    },
    {
      "inputs": [],
      "name": "ERC725X_NoContractBytecodeProvided",
      "type": "error"
    },
    {
      "inputs": [
        {
          "internalType": "uint256",
          "name": "operationTypeProvided",
          "type": "uint256"
        }
      ],
      "name": "ERC725X_UnknownOperationType",
      "type": "error"
    },
    {
      "inputs": [],
      "name": "ERC725Y_DataKeysValuesLengthMismatch",
      "type": "error"
    },
    {
      "inputs": [],
      "name": "LSP14MustAcceptOwnershipInSeparateTransaction",
      "type": "error"
    },
    {
      "inputs": [
        {
          "internalType": "bool",
          "name": "postCall",
          "type": "bool"
        }
      ],
      "name": "LSP20CallingVerifierFailed",
      "type": "error"
    },
    {
      "inputs": [
        {
          "internalType": "bool",
          "name": "postCall",
          "type": "bool"
        },
        {
          "internalType": "bytes",
          "name": "returnedData",
          "type": "bytes"
        }
      ],
      "name": "LSP20InvalidMagicValue",
      "type": "error"
    },
    {
      "inputs": [
        {
          "internalType": "bytes4",
          "name": "functionSelector",
          "type": "bytes4"
        }
      ],
      "name": "NoExtensionFoundForFunctionSelector",
      "type": "error"
    },
    {
      "inputs": [
        {
          "internalType": "uint256",
          "name": "renounceOwnershipStart",
          "type": "uint256"
        },
        {
          "internalType": "uint256",
          "name": "renounceOwnershipEnd",
          "type": "uint256"
        }
      ],
      "name": "NotInRenounceOwnershipInterval",
      "type": "error"
    },
    {
      "anonymous": false,
      "inputs": [
        {
          "indexed": true,
          "internalType": "uint256",
          "name": "operationType",
          "type": "uint256"
        },
        {
          "indexed": true,
          "internalType": "address",
          "name": "contractAddress",
          "type": "address"
        },
        {
          "indexed": true,
          "internalType": "uint256",
          "name": "value",
          "type": "uint256"
        },
        {
          "indexed": false,
          "internalType": "bytes32",
          "name": "salt",
          "type": "bytes32"
        }
      ],
      "name": "ContractCreated",
      "type": "event"
    },
    {
      "anonymous": false,
      "inputs": [
        {
          "indexed": true,
          "internalType": "bytes32",
          "name": "dataKey",
          "type": "bytes32"
        },
        {
          "indexed": false,
          "internalType": "bytes",
          "name": "dataValue",
          "type": "bytes"
        }
      ],
      "name": "DataChanged",
      "type": "event"
    },
    {
      "anonymous": false,
      "inputs": [
        {
          "indexed": true,
          "internalType": "uint256",
          "name": "operationType",
          "type": "uint256"
        },
        {
          "indexed": true,
          "internalType": "address",
          "name": "target",
          "type": "address"
        },
        {
          "indexed": true,
          "internalType": "uint256",
          "name": "value",
          "type": "uint256"
        },
        {
          "indexed": false,
          "internalType": "bytes4",
          "name": "selector",
          "type": "bytes4"
        }
      ],
      "name": "Executed",
      "type": "event"
    },
    {
      "anonymous": false,
      "inputs": [],
      "name": "OwnershipRenounced",
      "type": "event"
    },
    {
      "anonymous": false,
      "inputs": [
        {
          "indexed": true,
          "internalType": "address",
          "name": "previousOwner",
          "type": "address"
        },
        {
          "indexed": true,
          "internalType": "address",
          "name": "newOwner",
          "type": "address"
        }
      ],
      "name": "OwnershipTransferStarted",
      "type": "event"
    },
    {
      "anonymous": false,
      "inputs": [
        {
          "indexed": true,
          "internalType": "address",
          "name": "previousOwner",
          "type": "address"
        },
        {
          "indexed": true,
          "internalType": "address",
          "name": "newOwner",
          "type": "address"
        }
      ],
      "name": "OwnershipTransferred",
      "type": "event"
    },
    {
      "anonymous": false,
      "inputs": [],
      "name": "RenounceOwnershipStarted",
      "type": "event"
    },
    {
      "anonymous": false,
      "inputs": [
        {
          "indexed": true,
          "internalType": "address",
          "name": "from",
          "type": "address"
        },
        {
          "indexed": true,
          "internalType": "uint256",
          "name": "value",
          "type": "uint256"
        },
        {
          "indexed": true,
          "internalType": "bytes32",
          "name": "typeId",
          "type": "bytes32"
        },
        {
          "indexed": false,
          "internalType": "bytes",
          "name": "receivedData",
          "type": "bytes"
        },
        {
          "indexed": false,
          "internalType": "bytes",
          "name": "returnedValue",
          "type": "bytes"
        }
      ],
      "name": "UniversalReceiver",
      "type": "event"
    },
    {
      "anonymous": false,
      "inputs": [
        {
          "indexed": true,
          "internalType": "address",
          "name": "sender",
          "type": "address"
        },
        {
          "indexed": true,
          "internalType": "uint256",
          "name": "value",
          "type": "uint256"
        }
      ],
      "name": "ValueReceived",
      "type": "event"
    },
    {
      "stateMutability": "payable",
      "type": "fallback"
    },
    {
      "inputs": [],
      "name": "RENOUNCE_OWNERSHIP_CONFIRMATION_DELAY",
      "outputs": [
        {
          "internalType": "uint256",
          "name": "",
          "type": "uint256"
        }
      ],
      "stateMutability": "view",
      "type": "function"
    },
    {
      "inputs": [],
      "name": "RENOUNCE_OWNERSHIP_CONFIRMATION_PERIOD",
      "outputs": [
        {
          "internalType": "uint256",
          "name": "",
          "type": "uint256"
        }
      ],
      "stateMutability": "view",
      "type": "function"
    },
    {
      "inputs": [],
      "name": "acceptOwnership",
      "outputs": [],
      "stateMutability": "nonpayable",
      "type": "function"
    },
    {
      "inputs": [
        {
          "internalType": "bytes[]",
          "name": "data",
          "type": "bytes[]"
        }
      ],
      "name": "batchCalls",
      "outputs": [
        {
          "internalType": "bytes[]",
          "name": "results",
          "type": "bytes[]"
        }
      ],
      "stateMutability": "nonpayable",
      "type": "function"
    },
    {
      "inputs": [
        {
          "internalType": "uint256",
          "name": "operationType",
          "type": "uint256"
        },
        {
          "internalType": "address",
          "name": "target",
          "type": "address"
        },
        {
          "internalType": "uint256",
          "name": "value",
          "type": "uint256"
        },
        {
          "internalType": "bytes",
          "name": "data",
          "type": "bytes"
        }
      ],
      "name": "execute",
      "outputs": [
        {
          "internalType": "bytes",
          "name": "",
          "type": "bytes"
        }
      ],
      "stateMutability": "payable",
      "type": "function"
    },
    {
      "inputs": [
        {
          "internalType": "uint256[]",
          "name": "operationsType",
          "type": "uint256[]"
        },
        {
          "internalType": "address[]",
          "name": "targets",
          "type": "address[]"
        },
        {
          "internalType": "uint256[]",
          "name": "values",
          "type": "uint256[]"
        },
        {
          "internalType": "bytes[]",
          "name": "datas",
          "type": "bytes[]"
        }
      ],
      "name": "executeBatch",
      "outputs": [
        {
          "internalType": "bytes[]",
          "name": "",
          "type": "bytes[]"
        }
      ],
      "stateMutability": "payable",
      "type": "function"
    },
    {
      "inputs": [
        {
          "internalType": "bytes32",
          "name": "dataKey",
          "type": "bytes32"
        }
      ],
      "name": "getData",
      "outputs": [
        {
          "internalType": "bytes",
          "name": "dataValue",
          "type": "bytes"
        }
      ],
      "stateMutability": "view",
      "type": "function"
    },
    {
      "inputs": [
        {
          "internalType": "bytes32[]",
          "name": "dataKeys",
          "type": "bytes32[]"
        }
      ],
      "name": "getDataBatch",
      "outputs": [
        {
          "internalType": "bytes[]",
          "name": "dataValues",
          "type": "bytes[]"
        }
      ],
      "stateMutability": "view",
      "type": "function"
    },
    {
      "inputs": [
        {
          "internalType": "bytes32",
          "name": "dataHash",
          "type": "bytes32"
        },
        {
          "internalType": "bytes",
          "name": "signature",
          "type": "bytes"
        }
      ],
      "name": "isValidSignature",
      "outputs": [
        {
          "internalType": "bytes4",
          "name": "magicValue",
          "type": "bytes4"
        }
      ],
      "stateMutability": "view",
      "type": "function"
    },
    {
      "inputs": [],
      "name": "owner",
      "outputs": [
        {
          "internalType": "address",
          "name": "",
          "type": "address"
        }
      ],
      "stateMutability": "view",
      "type": "function"
    },
    {
      "inputs": [],
      "name": "pendingOwner",
      "outputs": [
        {
          "internalType": "address",
          "name": "",
          "type": "address"
        }
      ],
      "stateMutability": "view",
      "type": "function"
    },
    {
      "inputs": [],
      "name": "renounceOwnership",
      "outputs": [],
      "stateMutability": "nonpayable",
      "type": "function"
    },
    {
      "inputs": [
        {
          "internalType": "bytes32",
          "name": "dataKey",
          "type": "bytes32"
        },
        {
          "internalType": "bytes",
          "name": "dataValue",
          "type": "bytes"
        }
      ],
      "name": "setData",
      "outputs": [],
      "stateMutability": "payable",
      "type": "function"
    },
    {
      "inputs": [
        {
          "internalType": "bytes32[]",
          "name": "dataKeys",
          "type": "bytes32[]"
        },
        {
          "internalType": "bytes[]",
          "name": "dataValues",
          "type": "bytes[]"
        }
      ],
      "name": "setDataBatch",
      "outputs": [],
      "stateMutability": "payable",
      "type": "function"
    },
    {
      "inputs": [
        {
          "internalType": "bytes4",
          "name": "interfaceId",
          "type": "bytes4"
        }
      ],
      "name": "supportsInterface",
      "outputs": [
        {
          "internalType": "bool",
          "name": "",
          "type": "bool"
        }
      ],
      "stateMutability": "view",
      "type": "function"
    },
    {
      "inputs": [
        {
          "internalType": "address",
          "name": "pendingNewOwner",
          "type": "address"
        }
      ],
      "name": "transferOwnership",
      "outputs": [],
      "stateMutability": "nonpayable",
      "type": "function"
    },
    {
      "inputs": [
        {
          "internalType": "bytes32",
          "name": "typeId",
          "type": "bytes32"
        },
        {
          "internalType": "bytes",
          "name": "receivedData",
          "type": "bytes"
        }
      ],
      "name": "universalReceiver",
      "outputs": [
        {
          "internalType": "bytes",
          "name": "returnedValues",
          "type": "bytes"
        }
      ],
      "stateMutability": "payable",
      "type": "function"
    },
    {
      "stateMutability": "payable",
      "type": "receive"
    }
  ],
  "bytecode": "0x60806040526040516200355b3803806200355b8339810160408190526200002691620002b7565b8034156200005c57604051349033907f7e71433ddf847725166244795048ecf3e3f9f35628254ecbf73605666423349390600090a35b6200006781620000b7565b506040805180820190915260048152635ef83ad960e01b6020820152620000b0907feafec4d89fa9619884b600005ef83ad9559033e6e941db7d7c495acdce616347906200011e565b50620004d2565b6000546001600160a01b038281169116146200011b57600080546001600160a01b038381166001600160a01b0319831681178455604051919092169283917f8be0079c531659141344cd1fd0a4f28419497f9722a3daafe3b4186f6b6457e09190a3505b50565b60008281526001602052604090206200013882826200038e565b50817fece574603820d07bc9b91f2a932baadf4628aabcb8afba49776529c14a6104b2610100835111156200017d57620001778360006101006200019a565b6200017f565b825b6040516200018e91906200045a565b60405180910390a25050565b606081620001aa81601f620004aa565b1015620001ef5760405162461bcd60e51b815260206004820152600e60248201526d736c6963655f6f766572666c6f7760901b60448201526064015b60405180910390fd5b620001fb8284620004aa565b84511015620002415760405162461bcd60e51b8152602060048201526011602482015270736c6963655f6f75744f66426f756e647360781b6044820152606401620001e6565b606082158015620002625760405191506000825260208201604052620002ae565b6040519150601f8416801560200281840101858101878315602002848b0101015b818310156200029d57805183526020928301920162000283565b5050858452601f01601f1916604052505b50949350505050565b600060208284031215620002ca57600080fd5b81516001600160a01b0381168114620002e257600080fd5b9392505050565b634e487b7160e01b600052604160045260246000fd5b600181811c908216806200031457607f821691505b6020821081036200033557634e487b7160e01b600052602260045260246000fd5b50919050565b601f8211156200038957600081815260208120601f850160051c81016020861015620003645750805b601f850160051c820191505b81811015620003855782815560010162000370565b5050505b505050565b81516001600160401b03811115620003aa57620003aa620002e9565b620003c281620003bb8454620002ff565b846200033b565b602080601f831160018114620003fa5760008415620003e15750858301515b600019600386901b1c1916600185901b17855562000385565b600085815260208120601f198616915b828110156200042b578886015182559484019460019091019084016200040a565b50858210156200044a5787850151600019600388901b60f8161c191681555b5050505050600190811b01905550565b600060208083528351808285015260005b8181101562000489578581018301518582016040015282016200046b565b506000604082860101526040601f19601f8301168501019250505092915050565b80820180821115620004cc57634e487b7160e01b600052601160045260246000fd5b92915050565b61307980620004e26000396000f3fe6080604052600436106101025760003560e01c8063715018a6116100955780639790242111610064578063979024211461030f578063dedff9c614610322578063e30c397814610342578063ead3fbdf14610188578063f2fde38b146103605761012b565b8063715018a6146102a057806379ba5097146102b55780637f23690c146102ca5780638da5cb5b146102dd5761012b565b806344c028fe116100d157806344c028fe1461022d57806354f6127f1461024d5780636963d4381461026d5780636bb56a141461028d5761012b565b806301bfba611461018857806301ffc9a7146101b05780631626ba7e146101e0578063318584521461020d5761012b565b3661012b573415610129576040513490339060008051602061302483398151915290600090a35b005b60003660603415610152576040513490339060008051602061302483398151915290600090a35b6004361015610170575060408051602081019091526000815261017d565b61017a8383610380565b90505b915050805190602001f35b34801561019457600080fd5b5061019d60c881565b6040519081526020015b60405180910390f35b3480156101bc57600080fd5b506101d06101cb366004612526565b6104b9565b60405190151581526020016101a7565b3480156101ec57600080fd5b506102006101fb366004612606565b610559565b6040516101a7919061264c565b61022061021b366004612785565b61070b565b6040516101a791906128dc565b61024061023b36600461293e565b6107b0565b6040516101a79190612992565b34801561025957600080fd5b506102406102683660046129a5565b61082c565b34801561027957600080fd5b506102206102883660046129be565b610837565b61024061029b366004612a32565b610992565b3480156102ac57600080fd5b50610129610b1c565b3480156102c157600080fd5b50610129610bdf565b6101296102d8366004612606565b610c9f565b3480156102e957600080fd5b506000546001600160a01b03165b6040516001600160a01b0390911681526020016101a7565b61012961031d366004612aad565b610d1b565b34801561032e57600080fd5b5061022061033d366004612b06565b610e33565b34801561034e57600080fd5b506003546001600160a01b03166102f7565b34801561036c57600080fd5b5061012961037b366004612b3a565b610edd565b606060006103996000356001600160e01b03191661107d565b90506000356001600160e01b0319161580156103bc57506001600160a01b038116155b156103d75750506040805160208101909152600081526104b3565b6001600160a01b038116610415576000356001600160e01b03191660405163bb370b2b60e01b815260040161040c919061264c565b60405180910390fd5b600080826001600160a01b0316868633346040516020016104399493929190612b55565b60408051601f198184030181529082905261045391612b80565b6000604051808303816000865af19150503d8060008114610490576040519150601f19603f3d011682016040523d82523d6000602084013e610495565b606091505b509150915081156104aa5792506104b3915050565b80518060208301fd5b92915050565b60006001600160e01b03198216630b135d3f60e11b14806104ea57506001600160e01b031982166324871b3d60e01b145b8061050557506001600160e01b03198216631aed5a8560e21b145b8061052057506001600160e01b031982166394be599960e01b145b8061053b57506001600160e01b03198216631a0eb6a560e01b145b8061054a575061054a826110c2565b806104b357506104b3826110e7565b60008061056e6000546001600160a01b031690565b90506001600160a01b0381163b1561068b57600080826001600160a01b0316631626ba7e60e01b87876040516024016105a8929190612b9c565b60408051601f198184030181529181526020820180516001600160e01b03166001600160e01b03199094169390931790925290516105e69190612b80565b600060405180830381855afa9150503d8060008114610621576040519150601f19603f3d011682016040523d82523d6000602084013e610626565b606091505b5091509150600082801561063b575081516020145b801561066257508151630b135d3f60e11b906106609084016020908101908501612bb5565b145b905080610677576001600160e01b0319610680565b630b135d3f60e11b5b9450505050506104b3565b6000806106988686611124565b909250905060008160048111156106b1576106b1612bce565b146106ca57506001600160e01b031992506104b3915050565b826001600160a01b0316826001600160a01b0316146106f1576001600160e01b03196106fa565b630b135d3f60e11b5b93505050506104b3565b5092915050565b6060341561072f576040513490339060008051602061302483398151915290600090a35b6000546001600160a01b0316338190036107575761074f86868686611169565b9150506107a8565b6000610762826112c6565b9050600061077288888888611169565b905081156107a3576107a3838260405160200161078f91906128dc565b604051602081830303815290604052611402565b925050505b949350505050565b606034156107d4576040513490339060008051602061302483398151915290600090a35b6000546001600160a01b0316338190036107f45761074f86868686611533565b60006107ff826112c6565b9050600061080f88888888611533565b905081156107a3576107a3838260405160200161078f9190612992565b60606104b38261163e565b6060816001600160401b0381111561085157610851612543565b60405190808252806020026020018201604052801561088457816020015b606081526020019060019003908161086f5790505b50905060005b8281101561070457600080308686858181106108a8576108a8612be4565b90506020028101906108ba9190612bfa565b6040516108c8929190612c40565b600060405180830381855af49150503d8060008114610903576040519150601f19603f3d011682016040523d82523d6000602084013e610908565b606091505b50915091508161096a578051156109225780518082602001fd5b60405162461bcd60e51b815260206004820152601960248201527f4c5350303a20626174636843616c6c7320726576657274656400000000000000604482015260640161040c565b8084848151811061097d5761097d612be4565b6020908102919091010152505060010161088a565b606034156109b6576040513490339060008051602061302483398151915290600090a35b60006109e17f0cfc51aec37c55a4d0b1a65c6255c4bf2fbdf6277f3cc0730c45b828b6db8b4761163e565b905060606014825110610a305760006109f983612c50565b60601c9050610a0f81631aed5a8560e21b6116e0565b15610a2e57610a2b6001600160a01b0382168888883334611774565b91505b505b6000610a49690cfc51aec37c55a4d0b160b01b886118bc565b90506000610a568261163e565b905060606014825110610aa5576000610a6e83612c50565b60601c9050610a8481631aed5a8560e21b6116e0565b15610aa357610aa06001600160a01b0382168b8b8b3334611774565b91505b505b8381604051602001610ab8929190612c87565b60405160208183030381529060405295508834336001600160a01b03167f9c3ba68eb5742b8e3961aea0afc7371a71bf433c8a67a831803b64c064a178c28b8b8b604051610b0893929190612cd5565b60405180910390a450505050509392505050565b6000546001600160a01b031633819003610b3b57610b38611908565b50565b6000610b46826112c6565b90506000610b5c6000546001600160a01b031690565b9050610b66611908565b6000546001600160a01b0316610bbb57604080516020810190915260008152610bbb906001600160a01b038316907fa4e59c931d14f7c8a7a35027f92ee40b5f2886b9fdcdb78f30bc5ecce5a2f814906119fb565b8115610bda57610bda8360405180602001604052806000815250611402565b505050565b600354600160a01b900460ff1615610c0a57604051635758dd0760e01b815260040160405180910390fd5b6000546001600160a01b0316610c1e611a86565b604080516020810190915260008152610c63906001600160a01b038316907fa4e59c931d14f7c8a7a35027f92ee40b5f2886b9fdcdb78f30bc5ecce5a2f814906119fb565b604080516020810190915260008152610b389033907fceca317f109c43507871523e82dc2a3cc64dfa18f12da0b6db14f6e23f995538906119fb565b3415610cc1576040513490339060008051602061302483398151915290600090a35b6000546001600160a01b031633819003610cdf57610bda8383611b09565b6000610cea826112c6565b9050610cf68484611b09565b8015610d1557610d158260405180602001604052806000815250611402565b50505050565b3415610d3d576040513490339060008051602061302483398151915290600090a35b8051825114610d5f57604051633bcc897960e01b815260040160405180910390fd5b6000546001600160a01b031633819003610dc35760005b8351811015610d1557610dbb848281518110610d9457610d94612be4565b6020026020010151848381518110610dae57610dae612be4565b6020026020010151611b09565b600101610d76565b6000610dce826112c6565b905060005b8451811015610e1357610e0b858281518110610df157610df1612be4565b6020026020010151858381518110610dae57610dae612be4565b600101610dd3565b508015610d1557610d158260405180602001604052806000815250611402565b606081516001600160401b03811115610e4e57610e4e612543565b604051908082528060200260200182016040528015610e8157816020015b6060815260200190600190039081610e6c5790505b50905060005b8251811015610ed757610eb2838281518110610ea557610ea5612be4565b602002602001015161163e565b828281518110610ec457610ec4612be4565b6020908102919091010152600101610e87565b50919050565b6000546001600160a01b031633819003610fa3576003805460ff60a01b1916600160a01b179055610f0d82611b7d565b816001600160a01b0316816001600160a01b03167f38d16b8cac22d99fc7c124b9cd0de2d3fa1faef420bfe791d8c362d765e2270060405160405180910390a3604080516020810190915260008152610f92906001600160a01b038416907fe17117c9d2665d1dbeb479ed8058bbebde3c50ac50e2e65619f60006caac6926906119fb565b6003805460ff60a01b191690555050565b6000610fae826112c6565b6003805460ff60a01b1916600160a01b1790559050610fcc83611b7d565b826001600160a01b0316826001600160a01b03167f38d16b8cac22d99fc7c124b9cd0de2d3fa1faef420bfe791d8c362d765e2270060405160405180910390a3604080516020810190915260008152611051906001600160a01b038516907fe17117c9d2665d1dbeb479ed8058bbebde3c50ac50e2e65619f60006caac6926906119fb565b6003805460ff60a01b191690558015610bda57610bda8260405180602001604052806000815250611402565b6000806110a1696773c5a04a6d4300884b60b11b6001600160e01b031985166118bc565b905060006110ae8261163e565b6110b790612c50565b60601c949350505050565b60006001600160e01b0319821663a918fa6b60e01b14806104b357506104b382611bcd565b6000806110fa6301ffc9a760e01b61107d565b90506001600160a01b0381166111135750600092915050565b61111d81846116e0565b9392505050565b600080825160410361115a5760208301516040840151606085015160001a61114e87828585611bf2565b94509450505050611162565b506000905060025b9250929050565b60608351855114158061118a57508251845114158061118a57508151835114155b156111a857604051633ff55f4d60e01b815260040160405180910390fd5b84516000036111ca5760405163e9ad2b5f60e01b815260040160405180910390fd5b600085516001600160401b038111156111e5576111e5612543565b60405190808252806020026020018201604052801561121857816020015b60608152602001906001900390816112035790505b50905060005b86518110156112bc5761129787828151811061123c5761123c612be4565b602002602001015187838151811061125657611256612be4565b602002602001015187848151811061127057611270612be4565b602002602001015187858151811061128a5761128a612be4565b6020026020010151611533565b8282815181106112a9576112a9612be4565b602090810291909101015260010161121e565b5095945050505050565b6000806000836001600160a01b0316639bf04b1160e01b33346000366040516024016112f59493929190612cfb565b60408051601f198184030181529181526020820180516001600160e01b03166001600160e01b03199094169390931790925290516113339190612b80565b6000604051808303816000865af19150503d8060008114611370576040519150601f19603f3d011682016040523d82523d6000602084013e611375565b606091505b509150915061138660008383611cb6565b60008180602001905181019061139c9190612d23565b90506001600160e81b03198116629bf04b60e81b146113d35760008260405163034223b160e61b815260040161040c929190612d40565b600160f81b6001600160f81b0319600383901a60f81b16146113f65760006113f9565b60015b95945050505050565b600080836001600160a01b031663d3fc45d360e01b333460003660405160200161142f9493929190612d5b565b6040516020818303038152906040528051906020012085604051602401611457929190612b9c565b60408051601f198184030181529181526020820180516001600160e01b03166001600160e01b03199094169390931790925290516114959190612b80565b6000604051808303816000865af19150503d80600081146114d2576040519150601f19603f3d011682016040523d82523d6000602084013e6114d7565b606091505b50915091506114e860018383611cb6565b805163d3fc45d360e01b906115069083016020908101908401612d23565b6001600160e01b03191614610d155760018160405163034223b160e61b815260040161040c929190612d40565b60608461154c57611545848484611d0b565b90506107a8565b60018503611586576001600160a01b0384161561157c57604051631820c12560e11b815260040160405180910390fd5b6115458383611e29565b600285036115c0576001600160a01b038416156115b657604051631820c12560e11b815260040160405180910390fd5b6115458383611f25565b600385036115f15782156115e7576040516339795e3560e11b815260040160405180910390fd5b611545848361200a565b6004850361162257821561161857604051635ac8313560e01b815260040160405180910390fd5b61154584836120f2565b604051631d60ecef60e21b81526004810186905260240161040c565b600081815260016020526040902080546060919061165b90612d8e565b80601f016020809104026020016040519081016040528092919081815260200182805461168790612d8e565b80156116d45780601f106116a9576101008083540402835291602001916116d4565b820191906000526020600020905b8154815290600101906020018083116116b757829003601f168201915b50505050509050919050565b6000806301ffc9a760e01b836040516024016116fc919061264c565b604051602081830303815290604052906001600160e01b0319166020820180516001600160e01b03838183161783525050505090506000806000602060008551602087018a617530fa92503d9150600051905082801561175d575060208210155b80156117695750600081115b979650505050505050565b60606000636bb56a1460e01b87878760405160240161179593929190612dc2565b60408051601f19818403018152918152602080830180516001600160e01b03166001600160e01b031990951694909417909352516117d7928791879101612ddc565b6040516020818303038152906040529050600080896001600160a01b0316836040516118039190612b80565b6000604051808303816000865af19150503d8060008114611840576040519150601f19603f3d011682016040523d82523d6000602084013e611845565b606091505b509150915061188a82826040518060400160405280602081526020017f43616c6c20746f20756e6976657273616c5265636569766572206661696c6564815250612197565b50805160000361189a57806118ae565b808060200190518101906118ae9190612e16565b9a9950505050505050505050565b604080516001600160b01b0319841660208201526000602a82018190526001600160601b03198416602c830152918291016040516020818303038152906040529050806107a890612e83565b600254439060009061191c9060c890612ebd565b9050600061192b60c883612ebd565b90508083118061193b5750600254155b15611983576002839055600380546001600160a01b03191690556040517f81b7f830f1f0084db6497c486cbe6974c86488dcc4e3738eab94ab6d6b1653e790600090a1505050565b818310156119ae57604051638b9bf50760e01b8152600481018390526024810182905260440161040c565b6119b860006121b0565b60006002819055600380546001600160a01b03191690556040517fd1f66c3d2bc1993a86be5e3d33709d98f0442381befcedd29f578b9b2506b1ce9190a1505050565b611a0c83631aed5a8560e21b6116e0565b15610bda57604051631aed5a8560e21b81526001600160a01b03841690636bb56a1490611a3f9085908590600401612b9c565b6000604051808303816000875af1158015611a5e573d6000803e3d6000fd5b505050506040513d6000823e601f3d908101601f19168201604052610d159190810190612e16565b6003546001600160a01b03163314611aee5760405162461bcd60e51b815260206004820152602560248201527f4c535031343a2063616c6c6572206973206e6f74207468652070656e64696e6760448201526427bbb732b960d91b606482015260840161040c565b611af7336121b0565b600380546001600160a01b0319169055565b6000828152600160205260409020611b218282612f1e565b50817fece574603820d07bc9b91f2a932baadf4628aabcb8afba49776529c14a6104b261010083511115611b6257611b5d836000610100612215565b611b64565b825b604051611b719190612992565b60405180910390a25050565b306001600160a01b03821603611ba6576040516343b248cd60e01b815260040160405180910390fd5b600380546001600160a01b0319166001600160a01b03929092169190911790556000600255565b60006001600160e01b031982166318a6a9a560e21b14806104b357506104b382612322565b6000807f7fffffffffffffffffffffffffffffff5d576e7357a4501ddfe92f46681b20a0831115611c295750600090506003611cad565b6040805160008082526020820180845289905260ff881692820192909252606081018690526080810185905260019060a0016020604051602081039080840390855afa158015611c7d573d6000803e3d6000fd5b5050604051601f1901519150506001600160a01b038116611ca657600060019250925050611cad565b9150600090505b94509492505050565b81611cc557611cc58382612357565b602081511080611ce9575060006020611cdd83612e83565b63ffffffff19911b1614155b15610bda57828160405163034223b160e61b815260040161040c929190612d40565b606082471015611d37576040516301bf351f60e31b81524760048201526024810184905260440161040c565b826001600160a01b03851660007f4810874456b8e6487bd861375cf6abd8e1c8bb5858c8ce36a86a04dabfac199e611d6e86612fdd565b604051611d7b919061264c565b60405180910390a4600080856001600160a01b03168585604051611d9f9190612b80565b60006040518083038185875af1925050503d8060008114611ddc576040519150601f19603f3d011682016040523d82523d6000602084013e611de1565b606091505b5091509150611e1f82826040518060400160405280601681526020017522a9219b991aac1d102ab735b737bbb71022b93937b960511b815250612197565b9695505050505050565b606082471015611e55576040516301bf351f60e31b81524760048201526024810184905260440161040c565b8151600003611e775760405163b81cd8d960e01b815260040160405180910390fd5b600082516020840185f090506001600160a01b038116611eaa57604051630b07489b60e01b815260040160405180910390fd5b83816001600160a01b031660017fa1fb700aaee2ae4a2ff6f91ce7eba292f89c2f5488b8ec4c5c5c8150692595c36000801b604051611eeb91815260200190565b60405180910390a46040516001600160601b0319606083901b16602082015260340160405160208183030381529060405291505092915050565b60608151600003611f495760405163b81cd8d960e01b815260040160405180910390fd5b6000611f628360208551611f5d9190613010565b612384565b90506000611f7f84600060208751611f7a9190613010565b612215565b90506000611f8e8684846123e2565b905085816001600160a01b031660027fa1fb700aaee2ae4a2ff6f91ce7eba292f89c2f5488b8ec4c5c5c8150692595c386604051611fce91815260200190565b60405180910390a46040516001600160601b0319606083901b166020820152603401604051602081830303815290604052935050505092915050565b606060006001600160a01b03841660037f4810874456b8e6487bd861375cf6abd8e1c8bb5858c8ce36a86a04dabfac199e61204486612fdd565b604051612051919061264c565b60405180910390a4600080846001600160a01b0316846040516120749190612b80565b600060405180830381855afa9150503d80600081146120af576040519150601f19603f3d011682016040523d82523d6000602084013e6120b4565b606091505b50915091506113f982826040518060400160405280601681526020017522a9219b991aac1d102ab735b737bbb71022b93937b960511b815250612197565b606060006001600160a01b03841660047f4810874456b8e6487bd861375cf6abd8e1c8bb5858c8ce36a86a04dabfac199e61212c86612fdd565b604051612139919061264c565b60405180910390a4600080846001600160a01b03168460405161215c9190612b80565b600060405180830381855af49150503d80600081146120af576040519150601f19603f3d011682016040523d82523d6000602084013e6120b4565b606083156121a657508161111d565b61111d83836124e6565b6000546001600160a01b03828116911614610b3857600080546001600160a01b038381166001600160a01b0319831681178455604051919092169283917f8be0079c531659141344cd1fd0a4f28419497f9722a3daafe3b4186f6b6457e09190a35050565b60608161222381601f612ebd565b10156122625760405162461bcd60e51b815260206004820152600e60248201526d736c6963655f6f766572666c6f7760901b604482015260640161040c565b61226c8284612ebd565b845110156122b05760405162461bcd60e51b8152602060048201526011602482015270736c6963655f6f75744f66426f756e647360781b604482015260640161040c565b6060821580156122cf5760405191506000825260208201604052612319565b6040519150601f8416801560200281840101858101878315602002848b0101015b818310156123085780518352602092830192016122f0565b5050858452601f01601f1916604052505b50949350505050565b60006001600160e01b03198216631d516b2b60e21b14806104b357506301ffc9a760e01b6001600160e01b03198316146104b3565b8051156123675780518082602001fd5b604051638c6a8ae360e01b8152821515600482015260240161040c565b6000612391826020612ebd565b835110156123d95760405162461bcd60e51b8152602060048201526015602482015274746f427974657333325f6f75744f66426f756e647360581b604482015260640161040c565b50016020015190565b6000834710156124345760405162461bcd60e51b815260206004820152601d60248201527f437265617465323a20696e73756666696369656e742062616c616e6365000000604482015260640161040c565b81516000036124855760405162461bcd60e51b815260206004820181905260248201527f437265617465323a2062797465636f6465206c656e677468206973207a65726f604482015260640161040c565b8282516020840186f590506001600160a01b03811661111d5760405162461bcd60e51b815260206004820152601960248201527f437265617465323a204661696c6564206f6e206465706c6f7900000000000000604482015260640161040c565b8151156124f65781518083602001fd5b8060405162461bcd60e51b815260040161040c9190612992565b6001600160e01b031981168114610b3857600080fd5b60006020828403121561253857600080fd5b813561111d81612510565b634e487b7160e01b600052604160045260246000fd5b604051601f8201601f191681016001600160401b038111828210171561258157612581612543565b604052919050565b60006001600160401b038211156125a2576125a2612543565b50601f01601f191660200190565b600082601f8301126125c157600080fd5b81356125d46125cf82612589565b612559565b8181528460208386010111156125e957600080fd5b816020850160208301376000918101602001919091529392505050565b6000806040838503121561261957600080fd5b8235915060208301356001600160401b0381111561263657600080fd5b612642858286016125b0565b9150509250929050565b6001600160e01b031991909116815260200190565b60006001600160401b0382111561267a5761267a612543565b5060051b60200190565b600082601f83011261269557600080fd5b813560206126a56125cf83612661565b82815260059290921b840181019181810190868411156126c457600080fd5b8286015b848110156126df57803583529183019183016126c8565b509695505050505050565b80356001600160a01b038116811461270157600080fd5b919050565b600082601f83011261271757600080fd5b813560206127276125cf83612661565b82815260059290921b8401810191818101908684111561274657600080fd5b8286015b848110156126df5780356001600160401b038111156127695760008081fd5b6127778986838b01016125b0565b84525091830191830161274a565b6000806000806080858703121561279b57600080fd5b84356001600160401b03808211156127b257600080fd5b6127be88838901612684565b95506020915081870135818111156127d557600080fd5b8701601f810189136127e657600080fd5b80356127f46125cf82612661565b81815260059190911b8201840190848101908b83111561281357600080fd5b928501925b8284101561283857612829846126ea565b82529285019290850190612818565b9750505050604087013591508082111561285157600080fd5b61285d88838901612684565b9350606087013591508082111561287357600080fd5b5061288087828801612706565b91505092959194509250565b60005b838110156128a757818101518382015260200161288f565b50506000910152565b600081518084526128c881602086016020860161288c565b601f01601f19169290920160200192915050565b6000602080830181845280855180835260408601915060408160051b870101925083870160005b8281101561293157603f1988860301845261291f8583516128b0565b94509285019290850190600101612903565b5092979650505050505050565b6000806000806080858703121561295457600080fd5b84359350612964602086016126ea565b92506040850135915060608501356001600160401b0381111561298657600080fd5b612880878288016125b0565b60208152600061111d60208301846128b0565b6000602082840312156129b757600080fd5b5035919050565b600080602083850312156129d157600080fd5b82356001600160401b03808211156129e857600080fd5b818501915085601f8301126129fc57600080fd5b813581811115612a0b57600080fd5b8660208260051b8501011115612a2057600080fd5b60209290920196919550909350505050565b600080600060408486031215612a4757600080fd5b8335925060208401356001600160401b0380821115612a6557600080fd5b818601915086601f830112612a7957600080fd5b813581811115612a8857600080fd5b876020828501011115612a9a57600080fd5b6020830194508093505050509250925092565b60008060408385031215612ac057600080fd5b82356001600160401b0380821115612ad757600080fd5b612ae386838701612684565b93506020850135915080821115612af957600080fd5b5061264285828601612706565b600060208284031215612b1857600080fd5b81356001600160401b03811115612b2e57600080fd5b6107a884828501612684565b600060208284031215612b4c57600080fd5b61111d826126ea565b8385823760609290921b6001600160601b031916919092019081526014810191909152603401919050565b60008251612b9281846020870161288c565b9190910192915050565b8281526040602082015260006107a860408301846128b0565b600060208284031215612bc757600080fd5b5051919050565b634e487b7160e01b600052602160045260246000fd5b634e487b7160e01b600052603260045260246000fd5b6000808335601e19843603018112612c1157600080fd5b8301803591506001600160401b03821115612c2b57600080fd5b60200191503681900382131561116257600080fd5b8183823760009101908152919050565b805160208201516001600160601b03198082169291906014831015612c7f5780818460140360031b1b83161693505b505050919050565b604081526000612c9a60408301856128b0565b82810360208401526113f981856128b0565b81835281816020850137506000828201602090810191909152601f909101601f19169091010190565b604081526000612ce9604083018587612cac565b8281036020840152611e1f81856128b0565b60018060a01b0385168152836020820152606060408201526000611e1f606083018486612cac565b600060208284031215612d3557600080fd5b815161111d81612510565b82151581526040602082015260006107a860408301846128b0565b6bffffffffffffffffffffffff198560601b16815283601482015281836034830137600091016034019081529392505050565b600181811c90821680612da257607f821691505b602082108103610ed757634e487b7160e01b600052602260045260246000fd5b8381526040602082015260006113f9604083018486612cac565b60008451612dee81846020890161288c565b60609490941b6001600160601b03191691909301908152601481019190915260340192915050565b600060208284031215612e2857600080fd5b81516001600160401b03811115612e3e57600080fd5b8201601f81018413612e4f57600080fd5b8051612e5d6125cf82612589565b818152856020838501011115612e7257600080fd5b6113f982602083016020860161288c565b80516020808301519190811015610ed75760001960209190910360031b1b16919050565b634e487b7160e01b600052601160045260246000fd5b808201808211156104b3576104b3612ea7565b601f821115610bda57600081815260208120601f850160051c81016020861015612ef75750805b601f850160051c820191505b81811015612f1657828155600101612f03565b505050505050565b81516001600160401b03811115612f3757612f37612543565b612f4b81612f458454612d8e565b84612ed0565b602080601f831160018114612f805760008415612f685750858301515b600019600386901b1c1916600185901b178555612f16565b600085815260208120601f198616915b82811015612faf57888601518255948401946001909101908401612f90565b5085821015612fcd5787850151600019600388901b60f8161c191681555b5050505050600190811b01905550565b805160208201516001600160e01b03198082169291906004831015612c7f5760049290920360031b82901b161692915050565b818103818111156104b3576104b3612ea756fe7e71433ddf847725166244795048ecf3e3f9f35628254ecbf736056664233493a264697066735822122084676b68c5c20c6cd4c60c3bf4dc343f1197510013b0900de4fffd03af51865664736f6c63430008130033",
  "linkReferences": {},
  "deployedLinkReferences": {}
}