{
  "_format": "hh-sol-artifact-1",
  "contractName": "LSP9VaultCore",
  "sourceName": "@lukso/lsp9-contracts/contracts/LSP9VaultCore.sol",
  "abi": [
    {
      "inputs": [],
      "name": "ERC725X_ContractDeploymentFailed",
      "type": "error"
    },
    {
      "inputs": [],
      "name": "ERC725X_CreateOperationsRequireEmptyRecipientAddress",
      "type": "error"
    },
    {
      "inputs": [],
      "name": "ERC725X_ExecuteParametersEmptyArray",
      "type": "error"
    },
    {
      "inputs": [],
      "name": "ERC725X_ExecuteParametersLengthMismatch",
      "type": "error"
    },
    {
      "inputs": [
        {
          "internalType": "uint256",
          "name": "balance",
          "type": "uint256"
        },
        {
          "internalType": "uint256",
          "name": "value",
          "type": "uint256"
        }
      ],
      "name": "ERC725X_InsufficientBalance",
      "type": "error"
    },
    {
      "inputs": [],
      "name": "ERC725X_MsgValueDisallowedInStaticCall",
      "type": "error"
    },
    {
      "inputs": [],
      "name": "ERC725X_NoContractBytecodeProvided",
      "type": "error"
    },
    {
      "inputs": [
        {
          "internalType": "uint256",
          "name": "operationTypeProvided",
          "type": "uint256"
        }
      ],
      "name": "ERC725X_UnknownOperationType",
      "type": "error"
    },
    {
      "inputs": [],
      "name": "ERC725Y_DataKeysValuesLengthMismatch",
      "type": "error"
    },
    {
      "inputs": [],
      "name": "ERC725Y_MsgValueDisallowed",
      "type": "error"
    },
    {
      "inputs": [
        {
          "internalType": "address",
          "name": "caller",
          "type": "address"
        }
      ],
      "name": "LSP14CallerNotPendingOwner",
      "type": "error"
    },
    {
      "inputs": [],
      "name": "LSP14CannotTransferOwnershipToSelf",
      "type": "error"
    },
    {
      "inputs": [],
      "name": "LSP14MustAcceptOwnershipInSeparateTransaction",
      "type": "error"
    },
    {
      "inputs": [
        {
          "internalType": "uint256",
          "name": "renounceOwnershipStart",
          "type": "uint256"
        },
        {
          "internalType": "uint256",
          "name": "renounceOwnershipEnd",
          "type": "uint256"
        }
      ],
      "name": "LSP14NotInRenounceOwnershipInterval",
      "type": "error"
    },
    {
      "inputs": [
        {
          "internalType": "bytes32",
          "name": "dataKey",
          "type": "bytes32"
        }
      ],
      "name": "LSP1DelegateNotAllowedToSetDataKey",
      "type": "error"
    },
    {
      "inputs": [
        {
          "internalType": "bytes4",
          "name": "functionSelector",
          "type": "bytes4"
        }
      ],
      "name": "NoExtensionFoundForFunctionSelector",
      "type": "error"
    },
    {
      "anonymous": false,
      "inputs": [
        {
          "indexed": true,
          "internalType": "uint256",
          "name": "operationType",
          "type": "uint256"
        },
        {
          "indexed": true,
          "internalType": "address",
          "name": "contractAddress",
          "type": "address"
        },
        {
          "indexed": true,
          "internalType": "uint256",
          "name": "value",
          "type": "uint256"
        },
        {
          "indexed": false,
          "internalType": "bytes32",
          "name": "salt",
          "type": "bytes32"
        }
      ],
      "name": "ContractCreated",
      "type": "event"
    },
    {
      "anonymous": false,
      "inputs": [
        {
          "indexed": true,
          "internalType": "bytes32",
          "name": "dataKey",
          "type": "bytes32"
        },
        {
          "indexed": false,
          "internalType": "bytes",
          "name": "dataValue",
          "type": "bytes"
        }
      ],
      "name": "DataChanged",
      "type": "event"
    },
    {
      "anonymous": false,
      "inputs": [
        {
          "indexed": true,
          "internalType": "uint256",
          "name": "operationType",
          "type": "uint256"
        },
        {
          "indexed": true,
          "internalType": "address",
          "name": "target",
          "type": "address"
        },
        {
          "indexed": true,
          "internalType": "uint256",
          "name": "value",
          "type": "uint256"
        },
        {
          "indexed": false,
          "internalType": "bytes4",
          "name": "selector",
          "type": "bytes4"
        }
      ],
      "name": "Executed",
      "type": "event"
    },
    {
      "anonymous": false,
      "inputs": [],
      "name": "OwnershipRenounced",
      "type": "event"
    },
    {
      "anonymous": false,
      "inputs": [
        {
          "indexed": true,
          "internalType": "address",
          "name": "previousOwner",
          "type": "address"
        },
        {
          "indexed": true,
          "internalType": "address",
          "name": "newOwner",
          "type": "address"
        }
      ],
      "name": "OwnershipTransferStarted",
      "type": "event"
    },
    {
      "anonymous": false,
      "inputs": [
        {
          "indexed": true,
          "internalType": "address",
          "name": "previousOwner",
          "type": "address"
        },
        {
          "indexed": true,
          "internalType": "address",
          "name": "newOwner",
          "type": "address"
        }
      ],
      "name": "OwnershipTransferred",
      "type": "event"
    },
    {
      "anonymous": false,
      "inputs": [],
      "name": "RenounceOwnershipStarted",
      "type": "event"
    },
    {
      "anonymous": false,
      "inputs": [
        {
          "indexed": true,
          "internalType": "address",
          "name": "from",
          "type": "address"
        },
        {
          "indexed": true,
          "internalType": "uint256",
          "name": "value",
          "type": "uint256"
        },
        {
          "indexed": true,
          "internalType": "bytes32",
          "name": "typeId",
          "type": "bytes32"
        },
        {
          "indexed": false,
          "internalType": "bytes",
          "name": "receivedData",
          "type": "bytes"
        },
        {
          "indexed": false,
          "internalType": "bytes",
          "name": "returnedValue",
          "type": "bytes"
        }
      ],
      "name": "UniversalReceiver",
      "type": "event"
    },
    {
      "stateMutability": "payable",
      "type": "fallback"
    },
    {
      "inputs": [],
      "name": "RENOUNCE_OWNERSHIP_CONFIRMATION_DELAY",
      "outputs": [
        {
          "internalType": "uint256",
          "name": "",
          "type": "uint256"
        }
      ],
      "stateMutability": "view",
      "type": "function"
    },
    {
      "inputs": [],
      "name": "RENOUNCE_OWNERSHIP_CONFIRMATION_PERIOD",
      "outputs": [
        {
          "internalType": "uint256",
          "name": "",
          "type": "uint256"
        }
      ],
      "stateMutability": "view",
      "type": "function"
    },
    {
      "inputs": [],
      "name": "acceptOwnership",
      "outputs": [],
      "stateMutability": "nonpayable",
      "type": "function"
    },
    {
      "inputs": [
        {
          "internalType": "bytes[]",
          "name": "data",
          "type": "bytes[]"
        }
      ],
      "name": "batchCalls",
      "outputs": [
        {
          "internalType": "bytes[]",
          "name": "results",
          "type": "bytes[]"
        }
      ],
      "stateMutability": "nonpayable",
      "type": "function"
    },
    {
      "inputs": [
        {
          "internalType": "uint256",
          "name": "operationType",
          "type": "uint256"
        },
        {
          "internalType": "address",
          "name": "target",
          "type": "address"
        },
        {
          "internalType": "uint256",
          "name": "value",
          "type": "uint256"
        },
        {
          "internalType": "bytes",
          "name": "data",
          "type": "bytes"
        }
      ],
      "name": "execute",
      "outputs": [
        {
          "internalType": "bytes",
          "name": "",
          "type": "bytes"
        }
      ],
      "stateMutability": "payable",
      "type": "function"
    },
    {
      "inputs": [
        {
          "internalType": "uint256[]",
          "name": "operationsType",
          "type": "uint256[]"
        },
        {
          "internalType": "address[]",
          "name": "targets",
          "type": "address[]"
        },
        {
          "internalType": "uint256[]",
          "name": "values",
          "type": "uint256[]"
        },
        {
          "internalType": "bytes[]",
          "name": "datas",
          "type": "bytes[]"
        }
      ],
      "name": "executeBatch",
      "outputs": [
        {
          "internalType": "bytes[]",
          "name": "",
          "type": "bytes[]"
        }
      ],
      "stateMutability": "payable",
      "type": "function"
    },
    {
      "inputs": [
        {
          "internalType": "bytes32",
          "name": "dataKey",
          "type": "bytes32"
        }
      ],
      "name": "getData",
      "outputs": [
        {
          "internalType": "bytes",
          "name": "dataValue",
          "type": "bytes"
        }
      ],
      "stateMutability": "view",
      "type": "function"
    },
    {
      "inputs": [
        {
          "internalType": "bytes32[]",
          "name": "dataKeys",
          "type": "bytes32[]"
        }
      ],
      "name": "getDataBatch",
      "outputs": [
        {
          "internalType": "bytes[]",
          "name": "dataValues",
          "type": "bytes[]"
        }
      ],
      "stateMutability": "view",
      "type": "function"
    },
    {
      "inputs": [],
      "name": "owner",
      "outputs": [
        {
          "internalType": "address",
          "name": "",
          "type": "address"
        }
      ],
      "stateMutability": "view",
      "type": "function"
    },
    {
      "inputs": [],
      "name": "pendingOwner",
      "outputs": [
        {
          "internalType": "address",
          "name": "",
          "type": "address"
        }
      ],
      "stateMutability": "view",
      "type": "function"
    },
    {
      "inputs": [],
      "name": "renounceOwnership",
      "outputs": [],
      "stateMutability": "nonpayable",
      "type": "function"
    },
    {
      "inputs": [
        {
          "internalType": "bytes32",
          "name": "dataKey",
          "type": "bytes32"
        },
        {
          "internalType": "bytes",
          "name": "dataValue",
          "type": "bytes"
        }
      ],
      "name": "setData",
      "outputs": [],
      "stateMutability": "payable",
      "type": "function"
    },
    {
      "inputs": [
        {
          "internalType": "bytes32[]",
          "name": "dataKeys",
          "type": "bytes32[]"
        },
        {
          "internalType": "bytes[]",
          "name": "dataValues",
          "type": "bytes[]"
        }
      ],
      "name": "setDataBatch",
      "outputs": [],
      "stateMutability": "payable",
      "type": "function"
    },
    {
      "inputs": [
        {
          "internalType": "bytes4",
          "name": "interfaceId",
          "type": "bytes4"
        }
      ],
      "name": "supportsInterface",
      "outputs": [
        {
          "internalType": "bool",
          "name": "",
          "type": "bool"
        }
      ],
      "stateMutability": "view",
      "type": "function"
    },
    {
      "inputs": [
        {
          "internalType": "address",
          "name": "newOwner",
          "type": "address"
        }
      ],
      "name": "transferOwnership",
      "outputs": [],
      "stateMutability": "nonpayable",
      "type": "function"
    },
    {
      "inputs": [
        {
          "internalType": "bytes32",
          "name": "typeId",
          "type": "bytes32"
        },
        {
          "internalType": "bytes",
          "name": "receivedData",
          "type": "bytes"
        }
      ],
      "name": "universalReceiver",
      "outputs": [
        {
          "internalType": "bytes",
          "name": "returnedValues",
          "type": "bytes"
        }
      ],
      "stateMutability": "payable",
      "type": "function"
    },
    {
      "stateMutability": "payable",
      "type": "receive"
    }
  ],
  "bytecode": "0x608060405234801561001057600080fd5b506129f4806100206000396000f3fe6080604052600436106100d75760003560e01c806379ba50971161007a57806379ba5097146102a45780637f23690c146102b95780638da5cb5b146102cc57806397902421146102f9578063dedff9c61461030c578063e30c39781461032c578063ead3fbdf146101a4578063f2fde38b1461034a57610110565b806301bfba61146101a457806301ffc9a7146101cc57806331858452146101fc57806344c028fe1461021c57806354f6127f1461023c5780636963d4381461025c5780636bb56a141461027c578063715018a61461028f57610110565b3661011057341561010e5761010c60008051602061299f83398151915260001b6040518060200160405280600081525061036a565b505b005b6000366060600482101561018c5734156101775761017560008051602061299f83398151915260001b84848080601f01602080910402602001604051908101604052809392919081815260200183838082843760009201919091525061036a92505050565b505b50604080516020810190915260008152610199565b610196838361062b565b90505b915050805190602001f35b3480156101b057600080fd5b506101b960c881565b6040519081526020015b60405180910390f35b3480156101d857600080fd5b506101ec6101e7366004611faf565b6107e0565b60405190151581526020016101c3565b61020f61020a3660046121c0565b61084a565b6040516101c39190612317565b61022f61022a366004612379565b6108dd565b6040516101c391906123cd565b34801561024857600080fd5b5061022f6102573660046123e0565b610965565b34801561026857600080fd5b5061020f6102773660046123f9565b610970565b61022f61028a36600461246d565b61036a565b34801561029b57600080fd5b5061010e610ace565b3480156102b057600080fd5b5061010e610b61565b61010e6102c736600461246d565b610c2c565b3480156102d857600080fd5b506102e1610ce5565b6040516001600160a01b0390911681526020016101c3565b61010e6103073660046124b3565b610cf4565b34801561031857600080fd5b5061020f61032736600461250c565b610e84565b34801561033857600080fd5b506003546001600160a01b03166102e1565b34801561035657600080fd5b5061010e610365366004612540565b610f2e565b60603415801590610389575060008051602061299f8339815191528314155b156103e2576103e060008051602061299f83398151915260001b6000368080601f01602080910402602001604051908101604052809392919081815260200183838082843760009201919091525061036a92505050565b505b600061040d7f0cfc51aec37c55a4d0b1a65c6255c4bf2fbdf6277f3cc0730c45b828b6db8b4761100a565b9050606060148251106104d05760006104258361255b565b60601c905061043b81635122dded60e11b6110ac565b156104ce57600480546001600160a01b0319166001600160a01b0383169081178255604051635122dded60e11b8152909163a245bbda9161048491339134918c918c9101612592565b6000604051808303816000875af11580156104a3573d6000803e3d6000fd5b505050506040513d6000823e601f3d908101601f191682016040526104cb91908101906125bf565b91505b505b60006104e9690cfc51aec37c55a4d0b160b01b87611140565b905060006104f68261100a565b9050606060148251106105b957600061050e8361255b565b60601c905061052481635122dded60e11b6110ac565b156105b757600480546001600160a01b0319166001600160a01b0383169081178255604051635122dded60e11b8152909163a245bbda9161056d91339134918f918f9101612592565b6000604051808303816000875af115801561058c573d6000803e3d6000fd5b505050506040513d6000823e601f3d908101601f191682016040526105b491908101906125bf565b91505b505b600480546001600160a01b03191690556040516105dc908590839060200161262c565b60405160208183030381529060405295508734336001600160a01b031660008051602061297f8339815191528a8a60405161061892919061262c565b60405180910390a4505050505092915050565b60606000806106456000356001600160e01b03191661118c565b9150915034600014158015610658575080155b156106b0576106ae60008051602061299f83398151915260001b86868080601f01602080910402602001604051908101604052809392919081815260200183838082843760009201919091525061036a92505050565b505b6000356001600160e01b0319161580156106d157506001600160a01b038216155b156106ef5760405180602001604052806000815250925050506107da565b6001600160a01b03821661072d576000356001600160e01b03191660405163bb370b2b60e01b81526004016107249190612651565b60405180910390fd5b600080836001600160a01b031683610746576000610748565b345b8888333460405160200161075f9493929190612666565b60408051601f198184030181529082905261077991612691565b60006040518083038185875af1925050503d80600081146107b6576040519150601f19603f3d011682016040523d82523d6000602084013e6107bb565b606091505b509150915081156107d15793506107da92505050565b80518060208301fd5b92915050565b60006001600160e01b031982166314578bf360e11b148061081157506001600160e01b03198216631aed5a8560e21b145b8061082c57506001600160e01b031982166394be599960e01b145b8061083b575061083b8261123c565b806107da57506107da82611261565b606061085461129f565b34156108c65760008051602061299f83398151915260001b34336001600160a01b031660008051602061297f8339815191526000356001600160e01b0319166040516020016108a391906126ad565b60408051601f19818403018152908290526108bd916126c2565b60405180910390a45b6108d285858585611300565b90505b949350505050565b60606108e761129f565b34156109595760008051602061299f83398151915260001b34336001600160a01b031660008051602061297f8339815191526000356001600160e01b03191660405160200161093691906126ad565b60408051601f1981840301815290829052610950916126c2565b60405180910390a45b6108d28585858561145d565b60606107da8261100a565b6060816001600160401b0381111561098a5761098a611fd9565b6040519080825280602002602001820160405280156109bd57816020015b60608152602001906001900390816109a85790505b50905060005b82811015610ac757600080308686858181106109e1576109e16126ec565b90506020028101906109f39190612702565b604051610a0192919061274f565b600060405180830381855af49150503d8060008114610a3c576040519150601f19603f3d011682016040523d82523d6000602084013e610a41565b606091505b509150915081610a9f57805115610a5b5780518082602001fd5b60405162461bcd60e51b81526020600482015260196024820152781314d40e4e8818985d18da10d85b1b1cc81c995d995c9d1959603a1b6044820152606401610724565b80848481518110610ab257610ab26126ec565b602090810291909101015250506001016109c3565b5092915050565b610ad661129f565b6000610ae0610ce5565b9050610aea611537565b6000610af4610ce5565b6001600160a01b031603610b5e57610b5e7f0c622e58e6b7089ae35f1af1c86d997be92fcdd8c9509652022d41aa6516947160001b826000604051602001610b3d92919061275f565b60408051601f198184030181529190526001600160a01b038416919061162a565b50565b600354600160a01b900460ff1615610b8c57604051635758dd0760e01b815260040160405180910390fd5b6000610b96610ce5565b9050610ba06116be565b610bda7f0c622e58e6b7089ae35f1af1c86d997be92fcdd8c9509652022d41aa6516947160001b8233604051602001610b3d92919061275f565b610b5e7f79855c97dbc259ce395421d933d7bc0699b0f1561f988f09a9e8633fd542fe5c60001b8233604051602001610c1492919061275f565b60408051601f1981840301815291905233919061162a565b3415610c4b5760405163f36ba73760e01b815260040160405180910390fd5b6000610c5561170b565b90508015610cd6576001600160a01b03198316690cfc51aec37c55a4d0b160b01b1480610c9457506001600160d01b03198316654b80742de2bf60d01b145b80610cb557506001600160a01b03198316696773c5a04a6d4300884b60b11b145b15610cd65760405163199611f160e01b815260048101849052602401610724565b610ce083836117b4565b505050565b6000546001600160a01b031690565b6000610cfe61170b565b90508151835114610d2257604051633bcc897960e01b815260040160405180910390fd5b3415610d415760405163f36ba73760e01b815260040160405180910390fd5b60005b8351811015610e7e578115610e3a578351690cfc51aec37c55a4d0b160b01b90859083908110610d7657610d766126ec565b60200260200101516001600160a01b0319161480610dc257508351654b80742de2bf60d01b90859083908110610dae57610dae6126ec565b60200260200101516001600160d01b031916145b80610dff57508351696773c5a04a6d4300884b60b11b90859083908110610deb57610deb6126ec565b60200260200101516001600160a01b031916145b15610e3a57838181518110610e1657610e166126ec565b602002602001015160405163199611f160e01b815260040161072491815260200190565b610e76848281518110610e4f57610e4f6126ec565b6020026020010151848381518110610e6957610e696126ec565b60200260200101516117b4565b600101610d44565b50505050565b606081516001600160401b03811115610e9f57610e9f611fd9565b604051908082528060200260200182016040528015610ed257816020015b6060815260200190600190039081610ebd5790505b50905060005b8251811015610f2857610f03838281518110610ef657610ef66126ec565b602002602001015161100a565b828281518110610f1557610f156126ec565b6020908102919091010152600101610ed8565b50919050565b610f3661129f565b6003805460ff60a01b1916600160a01b179055610f5281611809565b6000610f5c610ce5565b9050816001600160a01b0316816001600160a01b03167f38d16b8cac22d99fc7c124b9cd0de2d3fa1faef420bfe791d8c362d765e2270060405160405180910390a3610ff97faefd43f45fed1bcd8992f23c803b6f4ec45cf6b62b0d404d565f290a471e763f60001b8284604051602001610fd892919061275f565b60408051601f198184030181529190526001600160a01b038516919061162a565b50506003805460ff60a01b19169055565b600081815260016020526040902080546060919061102790612779565b80601f016020809104026020016040519081016040528092919081815260200182805461105390612779565b80156110a05780601f10611075576101008083540402835291602001916110a0565b820191906000526020600020905b81548152906001019060200180831161108357829003601f168201915b50505050509050919050565b6000806301ffc9a760e01b836040516024016110c89190612651565b604051602081830303815290604052906001600160e01b0319166020820180516001600160e01b03838183161783525050505090506000806000602060008551602087018a617530fa92503d91506000519050828015611129575060208210155b80156111355750600081115b979650505050505050565b604080516001600160b01b0319841660208201526000602a82018190526001600160601b03198416602c830152918291016040516020818303038152906040529050806108d5906127ad565b600080806111b1696773c5a04a6d4300884b60b11b6001600160e01b03198616611140565b905060006111be8261100a565b90506014815110156111d7575060009485945092505050565b805160150361122457806014815181106111f3576111f36126ec565b01602001516001600160f81b031916600160f81b03611224576112158161255b565b60601c95600195509350505050565b61122d8161255b565b60601c95600095509350505050565b60006001600160e01b0319821663a918fa6b60e01b14806107da57506107da82611859565b6000806112746301ffc9a760e01b61118c565b5090506001600160a01b03811661128e5750600092915050565b61129881846110ac565b9392505050565b336112a8610ce5565b6001600160a01b0316146112fe5760405162461bcd60e51b815260206004820181905260248201527f4f776e61626c653a2063616c6c6572206973206e6f7420746865206f776e65726044820152606401610724565b565b60608351855114158061132157508251845114158061132157508151835114155b1561133f57604051633ff55f4d60e01b815260040160405180910390fd5b84516000036113615760405163e9ad2b5f60e01b815260040160405180910390fd5b600085516001600160401b0381111561137c5761137c611fd9565b6040519080825280602002602001820160405280156113af57816020015b606081526020019060019003908161139a5790505b50905060005b86518110156114535761142e8782815181106113d3576113d36126ec565b60200260200101518783815181106113ed576113ed6126ec565b6020026020010151878481518110611407576114076126ec565b6020026020010151878581518110611421576114216126ec565b602002602001015161145d565b828281518110611440576114406126ec565b60209081029190910101526001016113b5565b5095945050505050565b6060846114765761146f84848461187e565b90506108d5565b600185036114b0576001600160a01b038416156114a657604051631820c12560e11b815260040160405180910390fd5b61146f838361199c565b600285036114ea576001600160a01b038416156114e057604051631820c12560e11b815260040160405180910390fd5b61146f8383611a8f565b6003850361151b578215611511576040516339795e3560e11b815260040160405180910390fd5b61146f8483611b6b565b604051631d60ecef60e21b815260048101869052602401610724565b600254439060009061154b9060c8906127e7565b9050600061155a60c8836127e7565b90508083118061156a5750600254155b156115b2576002839055600380546001600160a01b03191690556040517f81b7f830f1f0084db6497c486cbe6974c86488dcc4e3738eab94ab6d6b1653e790600090a1505050565b818310156115dd57604051630d8404a160e11b81526004810183905260248101829052604401610724565b6115e76000611c5c565b60006002819055600380546001600160a01b03191690556040517fd1f66c3d2bc1993a86be5e3d33709d98f0442381befcedd29f578b9b2506b1ce9190a1505050565b6116446001600160a01b038416631aed5a8560e21b6110ac565b15610ce057604051631aed5a8560e21b81526001600160a01b03841690636bb56a149061167790859085906004016127fa565b6000604051808303816000875af1158015611696573d6000803e3d6000fd5b505050506040513d6000823e601f3d908101601f19168201604052610e7e91908101906125bf565b6003546001600160a01b031633146116eb576040516308a3c8a560e31b8152336004820152602401610724565b6116f433611c5c565b600380546001600160a01b03191690556000600255565b6000611715610ce5565b6001600160a01b0316336001600160a01b0316146117b1576004546001600160a01b031633146117ad5760405162461bcd60e51b815260206004820152603b60248201527f4f6e6c79204f776e6572206f72207265656e746572656420556e69766572736160448201527f6c2052656365697665722044656c656761746520616c6c6f77656400000000006064820152608401610724565b5060015b90565b60008281526001602052604090206117cc8282612861565b50817fece574603820d07bc9b91f2a932baadf4628aabcb8afba49776529c14a6104b2826040516117fd91906123cd565b60405180910390a25050565b306001600160a01b0382160361183257604051631c0a54df60e31b815260040160405180910390fd5b600380546001600160a01b0319166001600160a01b03929092169190911790556000600255565b60006001600160e01b031982166318a6a9a560e21b14806107da57506107da82611ccc565b6060824710156118aa576040516301bf351f60e31b815247600482015260248101849052604401610724565b826001600160a01b03851660007f4810874456b8e6487bd861375cf6abd8e1c8bb5858c8ce36a86a04dabfac199e6118e186612920565b6040516118ee9190612651565b60405180910390a4600080856001600160a01b031685856040516119129190612691565b60006040518083038185875af1925050503d806000811461194f576040519150601f19603f3d011682016040523d82523d6000602084013e611954565b606091505b509150915061199282826040518060400160405280601681526020017522a9219b991aac1d102ab735b737bbb71022b93937b960511b815250611d01565b9695505050505050565b6060824710156119c8576040516301bf351f60e31b815247600482015260248101849052604401610724565b81516000036119ea5760405163b81cd8d960e01b815260040160405180910390fd5b600082516020840185f090506001600160a01b038116611a1d57604051630b07489b60e01b815260040160405180910390fd5b83816001600160a01b031660017fa1fb700aaee2ae4a2ff6f91ce7eba292f89c2f5488b8ec4c5c5c8150692595c36000801b604051611a5e91815260200190565b60405180910390a480604051602001611a779190612953565b60405160208183030381529060405291505092915050565b60608151600003611ab35760405163b81cd8d960e01b815260040160405180910390fd5b6000611acc8360208551611ac7919061296b565b611d1a565b90506000611ae984600060208751611ae4919061296b565b611d78565b90506000611af8868484611e85565b905085816001600160a01b031660027fa1fb700aaee2ae4a2ff6f91ce7eba292f89c2f5488b8ec4c5c5c8150692595c386604051611b3891815260200190565b60405180910390a480604051602001611b519190612953565b604051602081830303815290604052935050505092915050565b606060006001600160a01b03841660037f4810874456b8e6487bd861375cf6abd8e1c8bb5858c8ce36a86a04dabfac199e611ba586612920565b604051611bb29190612651565b60405180910390a4600080846001600160a01b031684604051611bd59190612691565b600060405180830381855afa9150503d8060008114611c10576040519150601f19603f3d011682016040523d82523d6000602084013e611c15565b606091505b5091509150611c5382826040518060400160405280601681526020017522a9219b991aac1d102ab735b737bbb71022b93937b960511b815250611d01565b95945050505050565b611c64610ce5565b6001600160a01b0316816001600160a01b031614610b5e57600080546001600160a01b038381166001600160a01b0319831681178455604051919092169283917f8be0079c531659141344cd1fd0a4f28419497f9722a3daafe3b4186f6b6457e09190a35050565b60006001600160e01b03198216631d516b2b60e21b14806107da57506301ffc9a760e01b6001600160e01b03198316146107da565b60608315611d10575081611298565b6112988383611f85565b6000611d278260206127e7565b83511015611d6f5760405162461bcd60e51b8152602060048201526015602482015274746f427974657333325f6f75744f66426f756e647360581b6044820152606401610724565b50016020015190565b606081611d8681601f6127e7565b1015611dc55760405162461bcd60e51b815260206004820152600e60248201526d736c6963655f6f766572666c6f7760901b6044820152606401610724565b611dcf82846127e7565b84511015611e135760405162461bcd60e51b8152602060048201526011602482015270736c6963655f6f75744f66426f756e647360781b6044820152606401610724565b606082158015611e325760405191506000825260208201604052611e7c565b6040519150601f8416801560200281840101858101878315602002848b0101015b81831015611e6b578051835260209283019201611e53565b5050858452601f01601f1916604052505b50949350505050565b600083471015611ed75760405162461bcd60e51b815260206004820152601d60248201527f437265617465323a20696e73756666696369656e742062616c616e63650000006044820152606401610724565b8151600003611f285760405162461bcd60e51b815260206004820181905260248201527f437265617465323a2062797465636f6465206c656e677468206973207a65726f6044820152606401610724565b8282516020840186f590506001600160a01b0381166112985760405162461bcd60e51b8152602060048201526019602482015278437265617465323a204661696c6564206f6e206465706c6f7960381b6044820152606401610724565b815115611f955781518083602001fd5b8060405162461bcd60e51b815260040161072491906123cd565b600060208284031215611fc157600080fd5b81356001600160e01b03198116811461129857600080fd5b634e487b7160e01b600052604160045260246000fd5b604051601f8201601f191681016001600160401b038111828210171561201757612017611fd9565b604052919050565b60006001600160401b0382111561203857612038611fd9565b5060051b60200190565b600082601f83011261205357600080fd5b813560206120686120638361201f565b611fef565b82815260059290921b8401810191818101908684111561208757600080fd5b8286015b848110156120a2578035835291830191830161208b565b509695505050505050565b80356001600160a01b03811681146120c457600080fd5b919050565b60006001600160401b038211156120e2576120e2611fd9565b50601f01601f191660200190565b600082601f83011261210157600080fd5b813561210f612063826120c9565b81815284602083860101111561212457600080fd5b816020850160208301376000918101602001919091529392505050565b600082601f83011261215257600080fd5b813560206121626120638361201f565b82815260059290921b8401810191818101908684111561218157600080fd5b8286015b848110156120a25780356001600160401b038111156121a45760008081fd5b6121b28986838b01016120f0565b845250918301918301612185565b600080600080608085870312156121d657600080fd5b84356001600160401b03808211156121ed57600080fd5b6121f988838901612042565b955060209150818701358181111561221057600080fd5b8701601f8101891361222157600080fd5b803561222f6120638261201f565b81815260059190911b8201840190848101908b83111561224e57600080fd5b928501925b8284101561227357612264846120ad565b82529285019290850190612253565b9750505050604087013591508082111561228c57600080fd5b61229888838901612042565b935060608701359150808211156122ae57600080fd5b506122bb87828801612141565b91505092959194509250565b60005b838110156122e25781810151838201526020016122ca565b50506000910152565b600081518084526123038160208601602086016122c7565b601f01601f19169290920160200192915050565b6000602080830181845280855180835260408601915060408160051b870101925083870160005b8281101561236c57603f1988860301845261235a8583516122eb565b9450928501929085019060010161233e565b5092979650505050505050565b6000806000806080858703121561238f57600080fd5b8435935061239f602086016120ad565b92506040850135915060608501356001600160401b038111156123c157600080fd5b6122bb878288016120f0565b60208152600061129860208301846122eb565b6000602082840312156123f257600080fd5b5035919050565b6000806020838503121561240c57600080fd5b82356001600160401b038082111561242357600080fd5b818501915085601f83011261243757600080fd5b81358181111561244657600080fd5b8660208260051b850101111561245b57600080fd5b60209290920196919550909350505050565b6000806040838503121561248057600080fd5b8235915060208301356001600160401b0381111561249d57600080fd5b6124a9858286016120f0565b9150509250929050565b600080604083850312156124c657600080fd5b82356001600160401b03808211156124dd57600080fd5b6124e986838701612042565b935060208501359150808211156124ff57600080fd5b506124a985828601612141565b60006020828403121561251e57600080fd5b81356001600160401b0381111561253457600080fd5b6108d584828501612042565b60006020828403121561255257600080fd5b611298826120ad565b805160208201516001600160601b0319808216929190601483101561258a5780818460140360031b1b83161693505b505050919050565b60018060a01b038516815283602082015282604082015260806060820152600061199260808301846122eb565b6000602082840312156125d157600080fd5b81516001600160401b038111156125e757600080fd5b8201601f810184136125f857600080fd5b8051612606612063826120c9565b81815285602083850101111561261b57600080fd5b611c538260208301602086016122c7565b60408152600061263f60408301856122eb565b8281036020840152611c5381856122eb565b6001600160e01b031991909116815260200190565b8385823760609290921b6001600160601b031916919092019081526014810191909152603401919050565b600082516126a38184602087016122c7565b9190910192915050565b6001600160e01b031991909116815260040190565b6040815260006126d560408301846122eb565b828103602093840152600081529190910192915050565b634e487b7160e01b600052603260045260246000fd5b6000808335601e1984360301811261271957600080fd5b8301803591506001600160401b0382111561273357600080fd5b60200191503681900382131561274857600080fd5b9250929050565b8183823760009101908152919050565b6001600160a01b0392831681529116602082015260400190565b600181811c9082168061278d57607f821691505b602082108103610f2857634e487b7160e01b600052602260045260246000fd5b80516020808301519190811015610f285760001960209190910360031b1b16919050565b634e487b7160e01b600052601160045260246000fd5b808201808211156107da576107da6127d1565b8281526040602082015260006108d560408301846122eb565b601f821115610ce057600081815260208120601f850160051c8101602086101561283a5750805b601f850160051c820191505b8181101561285957828155600101612846565b505050505050565b81516001600160401b0381111561287a5761287a611fd9565b61288e816128888454612779565b84612813565b602080601f8311600181146128c357600084156128ab5750858301515b600019600386901b1c1916600185901b178555612859565b600085815260208120601f198616915b828110156128f2578886015182559484019460019091019084016128d3565b50858210156129105787850151600019600388901b60f8161c191681555b5050505050600190811b01905550565b805160208201516001600160e01b0319808216929190600483101561258a5760049290920360031b82901b161692915050565b60609190911b6001600160601b031916815260140190565b818103818111156107da576107da6127d156fe9c3ba68eb5742b8e3961aea0afc7371a71bf433c8a67a831803b64c064a178c2468cd1581d7bc001c3b685513d2b929b55437be34700410383d58f3aa1ea0abca26469706673582212206c759d25cfdc924d0c04f3165a3cb4aa46782bc1259a32d538c9ce362284bdc964736f6c63430008140033",
  "linkReferences": {},
  "deployedLinkReferences": {}
}