{
  "_format": "hh-sol-artifact-1",
  "contractName": "GiveawayPass",
  "sourceName": "contracts/GiveawayPass.sol",
  "abi": [
    {
      "inputs": [
        {
          "internalType": "string",
          "name": "name_",
          "type": "string"
        },
        {
          "internalType": "string",
          "name": "symbol_",
          "type": "string"
        },
        {
          "internalType": "address",
          "name": "newOwner_",
          "type": "address"
        },
        {
          "internalType": "address",
          "name": "receiver",
          "type": "address"
        },
        {
          "internalType": "address",
          "name": "extension",
          "type": "address"
        }
      ],
      "stateMutability": "nonpayable",
      "type": "constructor"
    },
    {
      "inputs": [],
      "name": "ERC725Y_DataKeysValuesEmptyArray",
      "type": "error"
    },
    {
      "inputs": [],
      "name": "ERC725Y_DataKeysValuesLengthMismatch",
      "type": "error"
    },
    {
      "inputs": [],
      "name": "ERC725Y_MsgValueDisallowed",
      "type": "error"
    },
    {
      "inputs": [
        {
          "internalType": "bytes",
          "name": "storedData",
          "type": "bytes"
        }
      ],
      "name": "InvalidExtensionAddress",
      "type": "error"
    },
    {
      "inputs": [],
      "name": "InvalidFamilySignature",
      "type": "error"
    },
    {
      "inputs": [
        {
          "internalType": "bytes",
          "name": "data",
          "type": "bytes"
        }
      ],
      "name": "InvalidFunctionSelector",
      "type": "error"
    },
    {
      "inputs": [],
      "name": "LSP4TokenNameNotEditable",
      "type": "error"
    },
    {
      "inputs": [],
      "name": "LSP4TokenSymbolNotEditable",
      "type": "error"
    },
    {
      "inputs": [],
      "name": "LSP4TokenTypeNotEditable",
      "type": "error"
    },
    {
      "inputs": [
        {
          "internalType": "uint256",
          "name": "callIndex",
          "type": "uint256"
        }
      ],
      "name": "LSP8BatchCallFailed",
      "type": "error"
    },
    {
      "inputs": [],
      "name": "LSP8CannotSendToAddressZero",
      "type": "error"
    },
    {
      "inputs": [],
      "name": "LSP8CannotUseAddressZeroAsOperator",
      "type": "error"
    },
    {
      "inputs": [],
      "name": "LSP8CappedSupplyCannotMintOverCap",
      "type": "error"
    },
    {
      "inputs": [],
      "name": "LSP8CappedSupplyRequired",
      "type": "error"
    },
    {
      "inputs": [],
      "name": "LSP8InvalidTransferBatch",
      "type": "error"
    },
    {
      "inputs": [
        {
          "internalType": "bytes32",
          "name": "tokenId",
          "type": "bytes32"
        }
      ],
      "name": "LSP8NonExistentTokenId",
      "type": "error"
    },
    {
      "inputs": [
        {
          "internalType": "address",
          "name": "operator",
          "type": "address"
        },
        {
          "internalType": "bytes32",
          "name": "tokenId",
          "type": "bytes32"
        }
      ],
      "name": "LSP8NonExistingOperator",
      "type": "error"
    },
    {
      "inputs": [
        {
          "internalType": "bytes32",
          "name": "tokenId",
          "type": "bytes32"
        },
        {
          "internalType": "address",
          "name": "caller",
          "type": "address"
        }
      ],
      "name": "LSP8NotTokenOperator",
      "type": "error"
    },
    {
      "inputs": [
        {
          "internalType": "address",
          "name": "tokenOwner",
          "type": "address"
        },
        {
          "internalType": "bytes32",
          "name": "tokenId",
          "type": "bytes32"
        },
        {
          "internalType": "address",
          "name": "caller",
          "type": "address"
        }
      ],
      "name": "LSP8NotTokenOwner",
      "type": "error"
    },
    {
      "inputs": [
        {
          "internalType": "address",
          "name": "tokenReceiver",
          "type": "address"
        }
      ],
      "name": "LSP8NotifyTokenReceiverContractMissingLSP1Interface",
      "type": "error"
    },
    {
      "inputs": [
        {
          "internalType": "address",
          "name": "tokenReceiver",
          "type": "address"
        }
      ],
      "name": "LSP8NotifyTokenReceiverIsEOA",
      "type": "error"
    },
    {
      "inputs": [
        {
          "internalType": "address",
          "name": "operator",
          "type": "address"
        },
        {
          "internalType": "bytes32",
          "name": "tokenId",
          "type": "bytes32"
        }
      ],
      "name": "LSP8OperatorAlreadyAuthorized",
      "type": "error"
    },
    {
      "inputs": [
        {
          "internalType": "address",
          "name": "caller",
          "type": "address"
        },
        {
          "internalType": "address",
          "name": "tokenOwner",
          "type": "address"
        },
        {
          "internalType": "bytes32",
          "name": "tokenId",
          "type": "bytes32"
        }
      ],
      "name": "LSP8RevokeOperatorNotAuthorized",
      "type": "error"
    },
    {
      "inputs": [],
      "name": "LSP8TokenContractCannotHoldValue",
      "type": "error"
    },
    {
      "inputs": [
        {
          "internalType": "bytes32",
          "name": "tokenId",
          "type": "bytes32"
        }
      ],
      "name": "LSP8TokenIdAlreadyMinted",
      "type": "error"
    },
    {
      "inputs": [],
      "name": "LSP8TokenIdFormatNotEditable",
      "type": "error"
    },
    {
      "inputs": [],
      "name": "LSP8TokenIdsDataEmptyArray",
      "type": "error"
    },
    {
      "inputs": [],
      "name": "LSP8TokenIdsDataLengthMismatch",
      "type": "error"
    },
    {
      "inputs": [],
      "name": "LSP8TokenOwnerCannotBeOperator",
      "type": "error"
    },
    {
      "inputs": [
        {
          "internalType": "bytes32",
          "name": "tokenId",
          "type": "bytes32"
        },
        {
          "internalType": "address",
          "name": "oldOwner",
          "type": "address"
        },
        {
          "internalType": "address",
          "name": "newOwner",
          "type": "address"
        }
      ],
      "name": "LSP8TokenOwnerChanged",
      "type": "error"
    },
    {
      "inputs": [
        {
          "internalType": "bytes4",
          "name": "functionSelector",
          "type": "bytes4"
        }
      ],
      "name": "NoExtensionFoundForFunctionSelector",
      "type": "error"
    },
    {
      "anonymous": false,
      "inputs": [
        {
          "indexed": true,
          "internalType": "bytes32",
          "name": "dataKey",
          "type": "bytes32"
        },
        {
          "indexed": false,
          "internalType": "bytes",
          "name": "dataValue",
          "type": "bytes"
        }
      ],
      "name": "DataChanged",
      "type": "event"
    },
    {
      "anonymous": false,
      "inputs": [
        {
          "indexed": false,
          "internalType": "bytes",
          "name": "newTokenUri",
          "type": "bytes"
        }
      ],
      "name": "DefaultTokenDataChanged",
      "type": "event"
    },
    {
      "anonymous": false,
      "inputs": [
        {
          "indexed": true,
          "internalType": "address",
          "name": "operator",
          "type": "address"
        },
        {
          "indexed": true,
          "internalType": "address",
          "name": "tokenOwner",
          "type": "address"
        },
        {
          "indexed": true,
          "internalType": "bytes32",
          "name": "tokenId",
          "type": "bytes32"
        },
        {
          "indexed": false,
          "internalType": "bytes",
          "name": "operatorNotificationData",
          "type": "bytes"
        }
      ],
      "name": "OperatorAuthorizationChanged",
      "type": "event"
    },
    {
      "anonymous": false,
      "inputs": [
        {
          "indexed": true,
          "internalType": "address",
          "name": "operator",
          "type": "address"
        },
        {
          "indexed": true,
          "internalType": "address",
          "name": "tokenOwner",
          "type": "address"
        },
        {
          "indexed": true,
          "internalType": "bytes32",
          "name": "tokenId",
          "type": "bytes32"
        },
        {
          "indexed": false,
          "internalType": "bool",
          "name": "notified",
          "type": "bool"
        },
        {
          "indexed": false,
          "internalType": "bytes",
          "name": "operatorNotificationData",
          "type": "bytes"
        }
      ],
      "name": "OperatorRevoked",
      "type": "event"
    },
    {
      "anonymous": false,
      "inputs": [
        {
          "indexed": true,
          "internalType": "address",
          "name": "previousOwner",
          "type": "address"
        },
        {
          "indexed": true,
          "internalType": "address",
          "name": "newOwner",
          "type": "address"
        }
      ],
      "name": "OwnershipTransferred",
      "type": "event"
    },
    {
      "anonymous": false,
      "inputs": [
        {
          "indexed": false,
          "internalType": "address",
          "name": "",
          "type": "address"
        },
        {
          "indexed": false,
          "internalType": "uint256",
          "name": "",
          "type": "uint256"
        }
      ],
      "name": "Received",
      "type": "event"
    },
    {
      "anonymous": false,
      "inputs": [
        {
          "indexed": true,
          "internalType": "bytes32",
          "name": "tokenId",
          "type": "bytes32"
        },
        {
          "indexed": true,
          "internalType": "bytes32",
          "name": "dataKey",
          "type": "bytes32"
        },
        {
          "indexed": false,
          "internalType": "bytes",
          "name": "dataValue",
          "type": "bytes"
        }
      ],
      "name": "TokenIdDataChanged",
      "type": "event"
    },
    {
      "anonymous": false,
      "inputs": [
        {
          "indexed": false,
          "internalType": "address",
          "name": "operator",
          "type": "address"
        },
        {
          "indexed": true,
          "internalType": "address",
          "name": "from",
          "type": "address"
        },
        {
          "indexed": true,
          "internalType": "address",
          "name": "to",
          "type": "address"
        },
        {
          "indexed": true,
          "internalType": "bytes32",
          "name": "tokenId",
          "type": "bytes32"
        },
        {
          "indexed": false,
          "internalType": "bool",
          "name": "force",
          "type": "bool"
        },
        {
          "indexed": false,
          "internalType": "bytes",
          "name": "data",
          "type": "bytes"
        }
      ],
      "name": "Transfer",
      "type": "event"
    },
    {
      "stateMutability": "payable",
      "type": "fallback"
    },
    {
      "inputs": [
        {
          "internalType": "address",
          "name": "operator",
          "type": "address"
        },
        {
          "internalType": "bytes32",
          "name": "tokenId",
          "type": "bytes32"
        },
        {
          "internalType": "bytes",
          "name": "operatorNotificationData",
          "type": "bytes"
        }
      ],
      "name": "authorizeOperator",
      "outputs": [],
      "stateMutability": "nonpayable",
      "type": "function"
    },
    {
      "inputs": [
        {
          "internalType": "address",
          "name": "tokenOwner",
          "type": "address"
        }
      ],
      "name": "balanceOf",
      "outputs": [
        {
          "internalType": "uint256",
          "name": "",
          "type": "uint256"
        }
      ],
      "stateMutability": "view",
      "type": "function"
    },
    {
      "inputs": [
        {
          "internalType": "bytes[]",
          "name": "data",
          "type": "bytes[]"
        }
      ],
      "name": "batchCalls",
      "outputs": [
        {
          "internalType": "bytes[]",
          "name": "results",
          "type": "bytes[]"
        }
      ],
      "stateMutability": "nonpayable",
      "type": "function"
    },
    {
      "inputs": [
        {
          "internalType": "bytes32",
          "name": "tokenId",
          "type": "bytes32"
        },
        {
          "internalType": "bytes",
          "name": "data",
          "type": "bytes"
        }
      ],
      "name": "burn",
      "outputs": [],
      "stateMutability": "nonpayable",
      "type": "function"
    },
    {
      "inputs": [],
      "name": "defaultTokenUri",
      "outputs": [
        {
          "internalType": "bytes",
          "name": "",
          "type": "bytes"
        }
      ],
      "stateMutability": "view",
      "type": "function"
    },
    {
      "inputs": [],
      "name": "familyReceiver",
      "outputs": [
        {
          "internalType": "address",
          "name": "",
          "type": "address"
        }
      ],
      "stateMutability": "view",
      "type": "function"
    },
    {
      "inputs": [
        {
          "internalType": "bytes32",
          "name": "dataKey",
          "type": "bytes32"
        }
      ],
      "name": "getData",
      "outputs": [
        {
          "internalType": "bytes",
          "name": "dataValue",
          "type": "bytes"
        }
      ],
      "stateMutability": "view",
      "type": "function"
    },
    {
      "inputs": [
        {
          "internalType": "bytes32[]",
          "name": "dataKeys",
          "type": "bytes32[]"
        }
      ],
      "name": "getDataBatch",
      "outputs": [
        {
          "internalType": "bytes[]",
          "name": "dataValues",
          "type": "bytes[]"
        }
      ],
      "stateMutability": "view",
      "type": "function"
    },
    {
      "inputs": [
        {
          "internalType": "bytes32[]",
          "name": "tokenIds",
          "type": "bytes32[]"
        },
        {
          "internalType": "bytes32[]",
          "name": "dataKeys",
          "type": "bytes32[]"
        }
      ],
      "name": "getDataBatchForTokenIds",
      "outputs": [
        {
          "internalType": "bytes[]",
          "name": "dataValues",
          "type": "bytes[]"
        }
      ],
      "stateMutability": "view",
      "type": "function"
    },
    {
      "inputs": [
        {
          "internalType": "bytes32",
          "name": "tokenId",
          "type": "bytes32"
        },
        {
          "internalType": "bytes32",
          "name": "dataKey",
          "type": "bytes32"
        }
      ],
      "name": "getDataForTokenId",
      "outputs": [
        {
          "internalType": "bytes",
          "name": "dataValue",
          "type": "bytes"
        }
      ],
      "stateMutability": "view",
      "type": "function"
    },
    {
      "inputs": [
        {
          "internalType": "address",
          "name": "minter",
          "type": "address"
        },
        {
          "internalType": "uint256",
          "name": "maxBlock",
          "type": "uint256"
        },
        {
          "internalType": "uint256",
          "name": "price",
          "type": "uint256"
        }
      ],
      "name": "getMintHash",
      "outputs": [
        {
          "internalType": "bytes",
          "name": "message",
          "type": "bytes"
        }
      ],
      "stateMutability": "pure",
      "type": "function"
    },
    {
      "inputs": [
        {
          "internalType": "bytes32",
          "name": "tokenId",
          "type": "bytes32"
        }
      ],
      "name": "getOperatorsOf",
      "outputs": [
        {
          "internalType": "address[]",
          "name": "",
          "type": "address[]"
        }
      ],
      "stateMutability": "view",
      "type": "function"
    },
    {
      "inputs": [],
      "name": "getTotalMint",
      "outputs": [
        {
          "internalType": "uint256",
          "name": "number",
          "type": "uint256"
        }
      ],
      "stateMutability": "view",
      "type": "function"
    },
    {
      "inputs": [
        {
          "internalType": "address",
          "name": "user",
          "type": "address"
        }
      ],
      "name": "hasMinted",
      "outputs": [
        {
          "internalType": "bool",
          "name": "minted",
          "type": "bool"
        }
      ],
      "stateMutability": "view",
      "type": "function"
    },
    {
      "inputs": [
        {
          "internalType": "address",
          "name": "operator",
          "type": "address"
        },
        {
          "internalType": "bytes32",
          "name": "tokenId",
          "type": "bytes32"
        }
      ],
      "name": "isOperatorFor",
      "outputs": [
        {
          "internalType": "bool",
          "name": "",
          "type": "bool"
        }
      ],
      "stateMutability": "view",
      "type": "function"
    },
    {
      "inputs": [
        {
          "internalType": "address",
          "name": "to",
          "type": "address"
        }
      ],
      "name": "mint",
      "outputs": [],
      "stateMutability": "nonpayable",
      "type": "function"
    },
    {
      "inputs": [],
      "name": "orderExtension",
      "outputs": [
        {
          "internalType": "address",
          "name": "",
          "type": "address"
        }
      ],
      "stateMutability": "view",
      "type": "function"
    },
    {
      "inputs": [],
      "name": "owner",
      "outputs": [
        {
          "internalType": "address",
          "name": "",
          "type": "address"
        }
      ],
      "stateMutability": "view",
      "type": "function"
    },
    {
      "inputs": [],
      "name": "renounceOwnership",
      "outputs": [],
      "stateMutability": "nonpayable",
      "type": "function"
    },
    {
      "inputs": [
        {
          "internalType": "address",
          "name": "operator",
          "type": "address"
        },
        {
          "internalType": "bytes32",
          "name": "tokenId",
          "type": "bytes32"
        },
        {
          "internalType": "bool",
          "name": "notify",
          "type": "bool"
        },
        {
          "internalType": "bytes",
          "name": "operatorNotificationData",
          "type": "bytes"
        }
      ],
      "name": "revokeOperator",
      "outputs": [],
      "stateMutability": "nonpayable",
      "type": "function"
    },
    {
      "inputs": [
        {
          "internalType": "bytes32",
          "name": "dataKey",
          "type": "bytes32"
        },
        {
          "internalType": "bytes",
          "name": "dataValue",
          "type": "bytes"
        }
      ],
      "name": "setData",
      "outputs": [],
      "stateMutability": "payable",
      "type": "function"
    },
    {
      "inputs": [
        {
          "internalType": "bytes32[]",
          "name": "dataKeys",
          "type": "bytes32[]"
        },
        {
          "internalType": "bytes[]",
          "name": "dataValues",
          "type": "bytes[]"
        }
      ],
      "name": "setDataBatch",
      "outputs": [],
      "stateMutability": "payable",
      "type": "function"
    },
    {
      "inputs": [
        {
          "internalType": "bytes32[]",
          "name": "tokenIds",
          "type": "bytes32[]"
        },
        {
          "internalType": "bytes32[]",
          "name": "dataKeys",
          "type": "bytes32[]"
        },
        {
          "internalType": "bytes[]",
          "name": "dataValues",
          "type": "bytes[]"
        }
      ],
      "name": "setDataBatchForTokenIds",
      "outputs": [],
      "stateMutability": "nonpayable",
      "type": "function"
    },
    {
      "inputs": [
        {
          "internalType": "bytes32",
          "name": "tokenId",
          "type": "bytes32"
        },
        {
          "internalType": "bytes32",
          "name": "dataKey",
          "type": "bytes32"
        },
        {
          "internalType": "bytes",
          "name": "dataValue",
          "type": "bytes"
        }
      ],
      "name": "setDataForTokenId",
      "outputs": [],
      "stateMutability": "nonpayable",
      "type": "function"
    },
    {
      "inputs": [
        {
          "internalType": "bytes",
          "name": "newTokenUri",
          "type": "bytes"
        }
      ],
      "name": "setDefaultTokenUri",
      "outputs": [],
      "stateMutability": "nonpayable",
      "type": "function"
    },
    {
      "inputs": [
        {
          "internalType": "bytes4",
          "name": "interfaceId",
          "type": "bytes4"
        }
      ],
      "name": "supportsInterface",
      "outputs": [
        {
          "internalType": "bool",
          "name": "",
          "type": "bool"
        }
      ],
      "stateMutability": "view",
      "type": "function"
    },
    {
      "inputs": [
        {
          "internalType": "address",
          "name": "tokenOwner",
          "type": "address"
        }
      ],
      "name": "tokenIdsOf",
      "outputs": [
        {
          "internalType": "bytes32[]",
          "name": "",
          "type": "bytes32[]"
        }
      ],
      "stateMutability": "view",
      "type": "function"
    },
    {
      "inputs": [
        {
          "internalType": "bytes32",
          "name": "tokenId",
          "type": "bytes32"
        }
      ],
      "name": "tokenOwnerOf",
      "outputs": [
        {
          "internalType": "address",
          "name": "",
          "type": "address"
        }
      ],
      "stateMutability": "view",
      "type": "function"
    },
    {
      "inputs": [],
      "name": "tokenSupplyCap",
      "outputs": [
        {
          "internalType": "uint256",
          "name": "",
          "type": "uint256"
        }
      ],
      "stateMutability": "view",
      "type": "function"
    },
    {
      "inputs": [],
      "name": "totalSupply",
      "outputs": [
        {
          "internalType": "uint256",
          "name": "",
          "type": "uint256"
        }
      ],
      "stateMutability": "view",
      "type": "function"
    },
    {
      "inputs": [
        {
          "internalType": "address",
          "name": "from",
          "type": "address"
        },
        {
          "internalType": "address",
          "name": "to",
          "type": "address"
        },
        {
          "internalType": "bytes32",
          "name": "tokenId",
          "type": "bytes32"
        },
        {
          "internalType": "bool",
          "name": "force",
          "type": "bool"
        },
        {
          "internalType": "bytes",
          "name": "data",
          "type": "bytes"
        }
      ],
      "name": "transfer",
      "outputs": [],
      "stateMutability": "nonpayable",
      "type": "function"
    },
    {
      "inputs": [
        {
          "internalType": "address[]",
          "name": "from",
          "type": "address[]"
        },
        {
          "internalType": "address[]",
          "name": "to",
          "type": "address[]"
        },
        {
          "internalType": "bytes32[]",
          "name": "tokenId",
          "type": "bytes32[]"
        },
        {
          "internalType": "bool[]",
          "name": "force",
          "type": "bool[]"
        },
        {
          "internalType": "bytes[]",
          "name": "data",
          "type": "bytes[]"
        }
      ],
      "name": "transferBatch",
      "outputs": [],
      "stateMutability": "nonpayable",
      "type": "function"
    },
    {
      "inputs": [
        {
          "internalType": "address",
          "name": "newOwner",
          "type": "address"
        }
      ],
      "name": "transferOwnership",
      "outputs": [],
      "stateMutability": "nonpayable",
      "type": "function"
    },
    {
      "inputs": [
        {
          "internalType": "address",
          "name": "extension",
          "type": "address"
        }
      ],
      "name": "updateOrderExtension",
      "outputs": [],
      "stateMutability": "nonpayable",
      "type": "function"
    },
    {
      "stateMutability": "payable",
      "type": "receive"
    }
  ],
  "bytecode": "0x60a06040523480156200001157600080fd5b5060405162003b3338038062003b338339810160408190526200003491620004cc565b6101018585856001600084848484816001600160a01b038116620000ad5760405162461bcd60e51b815260206004820152602660248201527f4f776e61626c653a206e6577206f776e657220697320746865207a65726f206160448201526564647265737360d01b606482015260840160405180910390fd5b620000b8816200024f565b506040805180820190915260048152632936598960e21b602082015262000101907feafec4d89fa9619884b60000a4d96624a38f7ac2d8d9a604ecf07c12c77e480c90620002b6565b6200012d7fdeba1e292f8ba88238e10ab3c7f88bd4be4fac56cad5194b6ecceaf653468af185620002b6565b620001597f2f0a68ab07768e01943a599e73362a0e17a63a72e94dd2e384d2c1d4db93275684620002b6565b6040805160208101839052620001a2917fe0261fa95db2eb3b5439bd033cda66d56b96f92f243a8228fd87550ed7bdfdb3910160408051601f19818403018152919052620002b6565b50506040805160208101859052620001ef93507ff675e9361af1c1664c1868cfa3eb97672d6b1a513aa5b81dec34c9ee330e818d92500160408051601f198184030181529190526200030f565b505050505080600003620002165760405163038d9fc360e41b815260040160405180910390fd5b608052600980546001600160a01b039384166001600160a01b031991821617909155600a805492909316911617905550620006fe915050565b6000546001600160a01b03828116911614620002b357600080546001600160a01b038381166001600160a01b0319831681178455604051919092169283917f8be0079c531659141344cd1fd0a4f28419497f9722a3daafe3b4186f6b6457e09190a3505b50565b6000828152600160205260409020620002d08282620005fd565b50817fece574603820d07bc9b91f2a932baadf4628aabcb8afba49776529c14a6104b282604051620003039190620006c9565b60405180910390a25050565b6200031b82826200031f565b5050565b7f2145e1d6d074577dc71ef54c3807742b41b053a9352ae6b491331509acb9750f820162000360576040516385c169bd60e01b815260040160405180910390fd5b7fd0f59754f88971fe6bc5a6618cc9d5f1e859c58d16b22d1c7b2d3e2b246cd8aa8201620003a157604051630eceab6760e31b815260040160405180910390fd5b7f1fd9e056a24d14c4abc642fcc325992a946906d0dbc57dd70278aaf12842024d8201620002b657604051634ef6d7fb60e01b815260040160405180910390fd5b634e487b7160e01b600052604160045260246000fd5b60005b8381101562000415578181015183820152602001620003fb565b50506000910152565b600082601f8301126200043057600080fd5b81516001600160401b03808211156200044d576200044d620003e2565b604051601f8301601f19908116603f01168101908282118183101715620004785762000478620003e2565b816040528381528660208588010111156200049257600080fd5b620004a5846020830160208901620003f8565b9695505050505050565b80516001600160a01b0381168114620004c757600080fd5b919050565b600080600080600060a08688031215620004e557600080fd5b85516001600160401b0380821115620004fd57600080fd5b6200050b89838a016200041e565b965060208801519150808211156200052257600080fd5b5062000531888289016200041e565b9450506200054260408701620004af565b92506200055260608701620004af565b91506200056260808701620004af565b90509295509295909350565b600181811c908216806200058357607f821691505b602082108103620005a457634e487b7160e01b600052602260045260246000fd5b50919050565b601f821115620005f857600081815260208120601f850160051c81016020861015620005d35750805b601f850160051c820191505b81811015620005f457828155600101620005df565b5050505b505050565b81516001600160401b03811115620006195762000619620003e2565b62000631816200062a84546200056e565b84620005aa565b602080601f831160018114620006695760008415620006505750858301515b600019600386901b1c1916600185901b178555620005f4565b600085815260208120601f198616915b828110156200069a5788860151825594840194600190910190840162000679565b5085821015620006b95787850151600019600388901b60f8161c191681555b5050505050600190811b01905550565b6020815260008251806020840152620006ea816040850160208701620003f8565b601f01601f19169190910160400192915050565b6080516134126200072160003960008181610412015261194a01526134126000f3fe6080604052600436106101bd5760003560e01c8063715018a6116100ed578063a3b261f211610090578063a3b261f2146105af578063b7231c6f146105dc578063be9f0e6f146105fc578063d6c1407c1461061c578063d795cdb71461063c578063db8c966314610651578063dd5ffa1e14610671578063dedff9c614610686578063f2fde38b146106a657610218565b8063715018a6146104d65780637e87632c146104eb5780637f23690c1461050b57806382664be01461051e57806386a10ddd1461053e5780638da5cb5b1461055e578063979024211461057c578063a3ab4aac1461058f57610218565b806349a6078d1161016057806349a6078d146103965780634ffd7d54146103c3578063511b6952146103e357806352058d8a1461040357806354f6127f146104365780636963d438146104565780636a627842146104765780636c79b70b1461049657806370a08231146104b657610218565b806301ffc9a71461025957806316e023b31461028e57806318160ddd146102bb5780631d26fce6146102da578063217b2270146103075780632a3654a41461033457806337e3f8dc1461035457806338e21cce1461037657610218565b3661021857346000036101ff5760405163e5099ee360e01b81526004016101f69060208082526004908201526000604082015260600190565b60405180910390fd5b6040516330fa4a2160e11b815260040160405180910390fd5b6000366060600482101561024357828260405163e5099ee360e01b81526004016101f692919061248c565b61024d83836106c6565b80519350602001915050f35b34801561026557600080fd5b506102796102743660046124bb565b6107bc565b60405190151581526020015b60405180910390f35b34801561029a57600080fd5b506102ae6102a93660046124e5565b6107f0565b6040516102859190612557565b3480156102c757600080fd5b506002545b604051908152602001610285565b3480156102e657600080fd5b506102fa6102f536600461263e565b610803565b60405161028591906126a1565b34801561031357600080fd5b50610327610322366004612703565b6108ea565b604051610285919061271c565b34801561034057600080fd5b5061027961034f36600461274c565b610923565b34801561036057600080fd5b5061037461036f366004612776565b61092f565b005b34801561038257600080fd5b506102796103913660046127e7565b610982565b3480156103a257600080fd5b506103b66103b1366004612703565b61098f565b6040516102859190612802565b3480156103cf57600080fd5b506102ae6103de36600461284f565b6109b1565b3480156103ef57600080fd5b506103746103fe36600461290a565b610a35565b34801561040f57600080fd5b507f00000000000000000000000000000000000000000000000000000000000000006102cc565b34801561044257600080fd5b506102ae610451366004612703565b610a79565b34801561046257600080fd5b506102fa610471366004612982565b610a84565b34801561048257600080fd5b506103746104913660046127e7565b610bb3565b3480156104a257600080fd5b506103746104b13660046129e4565b610c5b565b3480156104c257600080fd5b506102cc6104d13660046127e7565b610cb3565b3480156104e257600080fd5b50610374610cd4565b3480156104f757600080fd5b50610374610506366004612b63565b610ce8565b6103746105193660046129e4565b610dd7565b34801561052a57600080fd5b506103746105393660046127e7565b610e08565b34801561054a57600080fd5b50610374610559366004612c27565b610e32565b34801561056a57600080fd5b506000546001600160a01b0316610327565b61037461058a366004612c7d565b610f9a565b34801561059b57600080fd5b50600a54610327906001600160a01b031681565b3480156105bb57600080fd5b506105cf6105ca3660046127e7565b611055565b6040516102859190612cd6565b3480156105e857600080fd5b50600954610327906001600160a01b031681565b34801561060857600080fd5b50610374610617366004612d0e565b611079565b34801561062857600080fd5b50610374610637366004612d8b565b611144565b34801561064857600080fd5b506102cc611157565b34801561065d57600080fd5b5061037461066c366004612dc4565b611168565b34801561067d57600080fd5b506102ae61124c565b34801561069257600080fd5b506102fa6106a1366004612e2b565b6112da565b3480156106b257600080fd5b506103746106c13660046127e7565b611384565b606060006106df6000356001600160e01b0319166113fd565b5090506001600160a01b038116610717576000356001600160e01b03191660405163bb370b2b60e01b81526004016101f69190612e5f565b600080826001600160a01b0316348787333460405160200161073c9493929190612e74565b60408051601f198184030181529082905261075691612e9f565b60006040518083038185875af1925050503d8060008114610793576040519150601f19603f3d011682016040523d82523d6000602084013e610798565b606091505b509150915081156107ad5792506107b6915050565b80518060208301fd5b92915050565b60006001600160e01b03198216631d138b8360e11b14806107e157506107e18261147b565b806107b657506107b6826114a0565b60606107fc83836114d7565b9392505050565b60608151835114610827576040516317d38eff60e11b815260040160405180910390fd5b82516001600160401b038111156108405761084061256a565b60405190808252806020026020018201604052801561087357816020015b606081526020019060019003908161085e5790505b50905060005b83518110156108e3576108be84828151811061089757610897612ebb565b60200260200101518483815181106108b1576108b1612ebb565b60200260200101516114d7565b8282815181106108d0576108d0612ebb565b6020908102919091010152600101610879565b5092915050565b6000818152600360205260408120546001600160a01b0316806107b657604051635747cd1b60e11b8152600481018490526024016101f6565b60006107fc83836115ec565b610937611629565b600b610944828483612f60565b507ff85f74f3190acca77203c20a6d4934fd0908afeec893df8bc8c9ca6edfbf9be8828260405161097692919061248c565b60405180910390a15050565b60006107b6600783611692565b606061099a826116b4565b60008281526005602052604090206107b6906116dd565b604051606084811b6001600160601b03191660208301529060340160408051601f1981840301815282825260208301869052910160408051601f1981840301815282825260208301869052910160408051601f1981840301815290829052610a1d939291602001613019565b60405160208183030381529060405290509392505050565b610a3f33846115ec565b610a6557604051631294d2a960e01b8152600481018490523360248201526044016101f6565b610a7285858585856116ea565b5050505050565b60606107b6826118a6565b6060816001600160401b03811115610a9e57610a9e61256a565b604051908082528060200260200182016040528015610ad157816020015b6060815260200190600190039081610abc5790505b50905060005b828110156108e35760008030868685818110610af557610af5612ebb565b9050602002810190610b07919061305c565b604051610b159291906130a9565b600060405180830381855af49150503d8060008114610b50576040519150601f19603f3d011682016040523d82523d6000602084013e610b55565b606091505b509150915081610b8b57805115610b6f5780518082602001fd5b60405163234eb81960e01b8152600481018490526024016101f6565b80848481518110610b9e57610b9e612ebb565b60209081029190910101525050600101610ad7565b610bbb611629565b610bc6600782611692565b15610c0e5760405162461bcd60e51b815260206004820152601860248201527755736572206d696e746564207061737320416c726561647960401b60448201526064016101f6565b60006002546001610c1f91906130cf565b9050610c4b828260001b600160405180604001604052806002815260200161060f60f31b815250611948565b610c566007836119a2565b505050565b600a546001600160a01b03163314610ca55760405162461bcd60e51b815260206004820152600d60248201526c1058d8d95cdcc811195b9a5959609a1b60448201526064016101f6565b610caf82826119b7565b5050565b6001600160a01b03811660009081526004602052604081206107b690611a99565b610cdc611629565b610ce66000611aa3565b565b8451845181141580610cfb575083518114155b80610d07575082518114155b80610d13575081518114155b15610d31576040516393a8311960e01b815260040160405180910390fd5b60005b81811015610dce57610dc6878281518110610d5157610d51612ebb565b6020026020010151878381518110610d6b57610d6b612ebb565b6020026020010151878481518110610d8557610d85612ebb565b6020026020010151878581518110610d9f57610d9f612ebb565b6020026020010151878681518110610db957610db9612ebb565b6020026020010151610a35565b600101610d34565b50505050505050565b610ddf611629565b3415610dfe5760405163f36ba73760e01b815260040160405180910390fd5b610caf8282611b08565b610e10611629565b600a80546001600160a01b0319166001600160a01b0392909216919091179055565b6000610e3d836108ea565b90506001600160a01b0381163314610e6e57808333604051632d938f5160e11b81526004016101f6939291906130e2565b6001600160a01b038416610e9557604051639577b8b360e01b815260040160405180910390fd5b836001600160a01b0316816001600160a01b031603610ec7576040516344fed6b160e11b815260040160405180910390fd5b6000838152600560205260408120610edf90866119a2565b905080610f11576040516314ec4d6d60e31b81526001600160a01b0386166004820152602481018590526044016101f6565b83826001600160a01b0316866001600160a01b03167f1b1b58aa2ec0cec2228b2d37124556d41f5a1f7b12f089171f896cc23667121586604051610f559190612557565b60405180910390a460003385600186604051602001610f779493929190613105565b6040516020818303038152906040529050610f928682611b52565b505050505050565b610fa2611629565b3415610fc15760405163f36ba73760e01b815260040160405180910390fd5b8051825114610fe357604051633bcc897960e01b815260040160405180910390fd5b8151600003611005576040516397da5f9560e01b815260040160405180910390fd5b60005b8251811015610c565761104d83828151811061102657611026612ebb565b602002602001015183838151811061104057611040612ebb565b6020026020010151611b08565b600101611008565b6001600160a01b03811660009081526004602052604090206060906107b6906116dd565b611081611629565b8151835114158061109457508051825114155b156110b2576040516317d38eff60e11b815260040160405180910390fd5b82516000036110d4576040516380c9830560e01b815260040160405180910390fd5b60005b835181101561113e576111368482815181106110f5576110f5612ebb565b602002602001015184838151811061110f5761110f612ebb565b602002602001015184848151811061112957611129612ebb565b6020026020010151611b7d565b6001016110d7565b50505050565b61114c611629565b610c56838383611b7d565b60006111636007611a99565b905090565b6000611173846108ea565b9050336001600160a01b038216146111c6576001600160a01b03851633146111c65760405163760b5acd60e01b81523360048201526001600160a01b0382166024820152604481018590526064016101f6565b6001600160a01b0385166111ed57604051639577b8b360e01b815260040160405180910390fd5b846001600160a01b0316816001600160a01b03160361121f576040516344fed6b160e11b815260040160405180910390fd5b61122c8582868686611bdf565b8215610a725760008185600085604051602001610f779493929190613105565b600b805461125990612ed1565b80601f016020809104026020016040519081016040528092919081815260200182805461128590612ed1565b80156112d25780601f106112a7576101008083540402835291602001916112d2565b820191906000526020600020905b8154815290600101906020018083116112b557829003601f168201915b505050505081565b606081516001600160401b038111156112f5576112f561256a565b60405190808252806020026020018201604052801561132857816020015b60608152602001906001900390816113135790505b50905060005b825181101561137e5761135983828151811061134c5761134c612ebb565b60200260200101516118a6565b82828151811061136b5761136b612ebb565b602090810291909101015260010161132e565b50919050565b61138c611629565b6001600160a01b0381166113f15760405162461bcd60e51b815260206004820152602660248201527f4f776e61626c653a206e6577206f776e657220697320746865207a65726f206160448201526564647265737360d01b60648201526084016101f6565b6113fa81611aa3565b50565b60008080611422696773c5a04a6d4300884b60b11b6001600160e01b03198616611c7f565b9050600061142f826118a6565b905080516014141580156114435750805115155b1561146357806040516342bfe79f60e01b81526004016101f69190612557565b61146c8161313e565b60601c95600195509350505050565b60006001600160e01b0319821663a918fa6b60e01b14806107b657506107b682611cd3565b6000806114b36301ffc9a760e01b6113fd565b5090506001600160a01b0381166114cd5750600092915050565b6107fc8184611d08565b606060006114e58484611d9c565b90507f9afb95cacc9f95858ec44aa8c3b685511002e30ae54415823f406128b85b238e8314801561151557508051155b156107fc5760006115457f1a7628600c3bac7101f53697f48df381ddc36b9015e7d7c9c5633d1252aa28436118a6565b905080516000036115e457600b805461155d90612ed1565b80601f016020809104026020016040519081016040528092919081815260200182805461158990612ed1565b80156115d65780601f106115ab576101008083540402835291602001916115d6565b820191906000526020600020905b8154815290600101906020018083116115b957829003601f168201915b5050505050925050506107b6565b509392505050565b60006115f7826108ea565b6001600160a01b0316836001600160a01b031614806107fc575060008281526005602052604090206107fc9084611692565b3361163c6000546001600160a01b031690565b6001600160a01b031614610ce65760405162461bcd60e51b815260206004820181905260248201527f4f776e61626c653a2063616c6c6572206973206e6f7420746865206f776e657260448201526064016101f6565b6001600160a01b038116600090815260018301602052604081205415156107fc565b6116bd81611e4a565b6113fa57604051635747cd1b60e11b8152600481018290526024016101f6565b606060006107fc83611e67565b60006116f5846108ea565b9050856001600160a01b0316816001600160a01b03161461172f57808487604051632d938f5160e11b81526004016101f6939291906130e2565b6001600160a01b038516611756576040516324ecef4d60e01b815260040160405180910390fd5b6000611761856108ea565b9050806001600160a01b0316826001600160a01b0316146117af57604051635a9c31d360e01b8152600481018690526001600160a01b038084166024830152821660448201526064016101f6565b6117b98786611ec2565b6001600160a01b03871660009081526004602052604090206117db9086611f1a565b506001600160a01b03861660009081526004602052604090206117fe9086611f26565b506000858152600360205260409081902080546001600160a01b0319166001600160a01b0389811691821790925591518792918a16906000805160206133bd833981519152906118539033908a908a90613175565b60405180910390a4600033888888876040516020016118769594939291906131aa565b60405160208183030381529060405290506118918882611f32565b61189c878683611f5d565b5050505050505050565b60008181526001602052604090208054606091906118c390612ed1565b80601f01602080910402602001604051908101604052809291908181526020018280546118ef90612ed1565b801561193c5780601f106119115761010080835404028352916020019161193c565b820191906000526020600020905b81548152906001019060200180831161191f57829003601f168201915b50505050509050919050565b7f00000000000000000000000000000000000000000000000000000000000000006002546119779060016130cf565b11156119965760405163e8ba229160e01b815260040160405180910390fd5b61113e84848484612053565b60006107fc836001600160a01b038416612193565b60006119c2836108ea565b90506119cd836108ea565b90506002600081546119de906131e5565b909155506119ec8184611ec2565b6001600160a01b0381166000908152600460205260409020611a0e9084611f1a565b5060008381526003602052604080822080546001600160a01b0319169055518491906001600160a01b038416906000805160206133bd83398151915290611a5a90339085908990613175565b60405180910390a46000338260008686604051602001611a7e9594939291906131aa565b604051602081830303815290604052905061113e8282611f32565b60006107b6825490565b6000546001600160a01b038281169116146113fa57600080546001600160a01b038381166001600160a01b0319831681178455604051919092169283917f8be0079c531659141344cd1fd0a4f28419497f9722a3daafe3b4186f6b6457e09190a35050565b7f098a16c9e50e3e99b3e797305c146898d294e5aec55a47e213cb3611ccf17e738201611b4857604051631b32400560e11b815260040160405180910390fd5b610caf82826121e2565b610caf827f8a1c15a8799f71b547e08e2bcb2e85257e81b0a07eee2ce6712549eef1f00970836121ec565b60008381526006602090815260408083208584529091529020611ba082826131fc565b5081837fa6e4251f855f750545fe414f120db91c76b88def14d120969e5bb2d3f05debbb83604051611bd29190612557565b60405180910390a3505050565b6000838152600560205260408120611bf79087612239565b905080611c29576040516312a8c6a360e21b81526001600160a01b0387166004820152602481018590526044016101f6565b83856001600160a01b0316876001600160a01b03167fc78cd419d6136f9f1c1c6aec1d3fae098cffaf8bc86314a8f2685e32fe574e3c8686604051611c6f9291906132b5565b60405180910390a4505050505050565b604080516001600160b01b0319841660208201526000602a82018190526001600160601b03198416602c83015291829101604051602081830303815290604052905080611ccb906132d0565b949350505050565b60006001600160e01b031982166318a6a9a560e21b14806107b657506301ffc9a760e01b6001600160e01b03198316146107b6565b6000806301ffc9a760e01b83604051602401611d249190612e5f565b604051602081830303815290604052906001600160e01b0319166020820180516001600160e01b03838183161783525050505090506000806000602060008551602087018a617530fa92503d91506000519050828015611d85575060208210155b8015611d915750600081115b979650505050505050565b60008281526006602090815260408083208484529091529020805460609190611dc490612ed1565b80601f0160208091040260200160405190810160405280929190818152602001828054611df090612ed1565b8015611e3d5780601f10611e1257610100808354040283529160200191611e3d565b820191906000526020600020905b815481529060010190602001808311611e2057829003601f168201915b5050505050905092915050565b6000908152600360205260409020546001600160a01b0316151590565b60608160000180548060200260200160405190810160405280929190818152602001828054801561193c57602002820191906000526020600020905b815481526020019060010190808311611ea35750505050509050919050565b600081815260056020526040812090611eda82611a99565b90506000805b82811015610f9257611ef384600061224e565b9150611f12828787600060405180602001604052806000815250611bdf565b600101611ee0565b60006107fc838361225a565b60006107fc8383612193565b610caf827fb23eae7e6d1564b295b4c3e3be402d9a2f0776c57bdf365903496f6fa481ab00836121ec565b611f6e83631aed5a8560e21b611d08565b1561200857604051631aed5a8560e21b81526001600160a01b03841690636bb56a1490611fc1907f0b084a55ebf70fd3c06fd755269dac2212c4d3f0f4d09079780bfa50c1b2984d9085906004016132f4565b6000604051808303816000875af1158015611fe0573d6000803e3d6000fd5b505050506040513d6000823e601f3d908101601f1916820160405261113e919081019061330d565b81610c56576001600160a01b0383163b156120385782604051634349776d60e01b81526004016101f6919061271c565b82604051630317313760e01b81526004016101f6919061271c565b6001600160a01b03841661207a576040516324ecef4d60e01b815260040160405180910390fd5b61208383611e4a565b156120a4576040516334c7b51160e01b8152600481018490526024016101f6565b6120ad83611e4a565b156120ce576040516334c7b51160e01b8152600481018490526024016101f6565b6002600081546120dd9061337a565b909155506001600160a01b03841660009081526004602052604090206121039084611f26565b5060008381526003602052604080822080546001600160a01b0319166001600160a01b03881690811790915590518592906000805160206133bd8339815191529061215390339088908890613175565b60405180910390a460003360008686856040516020016121779594939291906131aa565b6040516020818303038152906040529050610a72858483611f5d565b60008181526001830160205260408120546121da575081546001818101845560008481526020808220909301849055845484825282860190935260409020919091556107b6565b5060006107b6565b610caf828261234d565b6122066001600160a01b038416631aed5a8560e21b611d08565b15610c5657604051631aed5a8560e21b81526001600160a01b03841690636bb56a1490611fc190859085906004016132f4565b60006107fc836001600160a01b03841661225a565b60006107fc8383612462565b6000818152600183016020526040812054801561234357600061227e600183613393565b855490915060009061229290600190613393565b90508181146122f75760008660000182815481106122b2576122b2612ebb565b90600052602060002001549050808760000184815481106122d5576122d5612ebb565b6000918252602080832090910192909255918252600188019052604090208390555b8554869080612308576123086133a6565b6001900381819060005260206000200160009055905585600101600086815260200190815260200160002060009055600193505050506107b6565b60009150506107b6565b7f2145e1d6d074577dc71ef54c3807742b41b053a9352ae6b491331509acb9750f820161238d576040516385c169bd60e01b815260040160405180910390fd5b7fd0f59754f88971fe6bc5a6618cc9d5f1e859c58d16b22d1c7b2d3e2b246cd8aa82016123cd57604051630eceab6760e31b815260040160405180910390fd5b7f1fd9e056a24d14c4abc642fcc325992a946906d0dbc57dd70278aaf12842024d820161240d57604051634ef6d7fb60e01b815260040160405180910390fd5b600082815260016020526040902061242582826131fc565b50817fece574603820d07bc9b91f2a932baadf4628aabcb8afba49776529c14a6104b2826040516124569190612557565b60405180910390a25050565b600082600001828154811061247957612479612ebb565b9060005260206000200154905092915050565b60208152816020820152818360408301376000818301604090810191909152601f909201601f19160101919050565b6000602082840312156124cd57600080fd5b81356001600160e01b0319811681146107fc57600080fd5b600080604083850312156124f857600080fd5b50508035926020909101359150565b60005b8381101561252257818101518382015260200161250a565b50506000910152565b60008151808452612543816020860160208601612507565b601f01601f19169290920160200192915050565b6020815260006107fc602083018461252b565b634e487b7160e01b600052604160045260246000fd5b604051601f8201601f191681016001600160401b03811182821017156125a8576125a861256a565b604052919050565b60006001600160401b038211156125c9576125c961256a565b5060051b60200190565b600082601f8301126125e457600080fd5b813560206125f96125f4836125b0565b612580565b82815260059290921b8401810191818101908684111561261857600080fd5b8286015b84811015612633578035835291830191830161261c565b509695505050505050565b6000806040838503121561265157600080fd5b82356001600160401b038082111561266857600080fd5b612674868387016125d3565b9350602085013591508082111561268a57600080fd5b50612697858286016125d3565b9150509250929050565b6000602080830181845280855180835260408601915060408160051b870101925083870160005b828110156126f657603f198886030184526126e485835161252b565b945092850192908501906001016126c8565b5092979650505050505050565b60006020828403121561271557600080fd5b5035919050565b6001600160a01b0391909116815260200190565b80356001600160a01b038116811461274757600080fd5b919050565b6000806040838503121561275f57600080fd5b61276883612730565b946020939093013593505050565b6000806020838503121561278957600080fd5b82356001600160401b03808211156127a057600080fd5b818501915085601f8301126127b457600080fd5b8135818111156127c357600080fd5b8660208285010111156127d557600080fd5b60209290920196919550909350505050565b6000602082840312156127f957600080fd5b6107fc82612730565b6020808252825182820181905260009190848201906040850190845b818110156128435783516001600160a01b03168352928401929184019160010161281e565b50909695505050505050565b60008060006060848603121561286457600080fd5b61286d84612730565b95602085013595506040909401359392505050565b8035801515811461274757600080fd5b60006001600160401b038211156128ab576128ab61256a565b50601f01601f191660200190565b600082601f8301126128ca57600080fd5b81356128d86125f482612892565b8181528460208386010111156128ed57600080fd5b816020850160208301376000918101602001919091529392505050565b600080600080600060a0868803121561292257600080fd5b61292b86612730565b945061293960208701612730565b93506040860135925061294e60608701612882565b915060808601356001600160401b0381111561296957600080fd5b612975888289016128b9565b9150509295509295909350565b6000806020838503121561299557600080fd5b82356001600160401b03808211156129ac57600080fd5b818501915085601f8301126129c057600080fd5b8135818111156129cf57600080fd5b8660208260051b85010111156127d557600080fd5b600080604083850312156129f757600080fd5b8235915060208301356001600160401b03811115612a1457600080fd5b612697858286016128b9565b600082601f830112612a3157600080fd5b81356020612a416125f4836125b0565b82815260059290921b84018101918181019086841115612a6057600080fd5b8286015b8481101561263357612a7581612730565b8352918301918301612a64565b600082601f830112612a9357600080fd5b81356020612aa36125f4836125b0565b82815260059290921b84018101918181019086841115612ac257600080fd5b8286015b8481101561263357612ad781612882565b8352918301918301612ac6565b600082601f830112612af557600080fd5b81356020612b056125f4836125b0565b82815260059290921b84018101918181019086841115612b2457600080fd5b8286015b848110156126335780356001600160401b03811115612b475760008081fd5b612b558986838b01016128b9565b845250918301918301612b28565b600080600080600060a08688031215612b7b57600080fd5b85356001600160401b0380821115612b9257600080fd5b612b9e89838a01612a20565b96506020880135915080821115612bb457600080fd5b612bc089838a01612a20565b95506040880135915080821115612bd657600080fd5b612be289838a016125d3565b94506060880135915080821115612bf857600080fd5b612c0489838a01612a82565b93506080880135915080821115612c1a57600080fd5b5061297588828901612ae4565b600080600060608486031215612c3c57600080fd5b612c4584612730565b92506020840135915060408401356001600160401b03811115612c6757600080fd5b612c73868287016128b9565b9150509250925092565b60008060408385031215612c9057600080fd5b82356001600160401b0380821115612ca757600080fd5b612cb3868387016125d3565b93506020850135915080821115612cc957600080fd5b5061269785828601612ae4565b6020808252825182820181905260009190848201906040850190845b8181101561284357835183529284019291840191600101612cf2565b600080600060608486031215612d2357600080fd5b83356001600160401b0380821115612d3a57600080fd5b612d46878388016125d3565b94506020860135915080821115612d5c57600080fd5b612d68878388016125d3565b93506040860135915080821115612d7e57600080fd5b50612c7386828701612ae4565b600080600060608486031215612da057600080fd5b833592506020840135915060408401356001600160401b03811115612c6757600080fd5b60008060008060808587031215612dda57600080fd5b612de385612730565b935060208501359250612df860408601612882565b915060608501356001600160401b03811115612e1357600080fd5b612e1f878288016128b9565b91505092959194509250565b600060208284031215612e3d57600080fd5b81356001600160401b03811115612e5357600080fd5b611ccb848285016125d3565b6001600160e01b031991909116815260200190565b8385823760609290921b6001600160601b031916919092019081526014810191909152603401919050565b60008251612eb1818460208701612507565b9190910192915050565b634e487b7160e01b600052603260045260246000fd5b600181811c90821680612ee557607f821691505b60208210810361137e57634e487b7160e01b600052602260045260246000fd5b601f821115610c5657600081815260208120601f850160051c81016020861015612f2c5750805b601f850160051c820191505b81811015610f9257828155600101612f38565b600019600383901b1c191660019190911b1790565b6001600160401b03831115612f7757612f7761256a565b612f8b83612f858354612ed1565b83612f05565b6000601f841160018114612fb95760008515612fa75750838201355b612fb18682612f4b565b845550610a72565b600083815260209020601f19861690835b82811015612fea5786850135825560209485019460019092019101612fca565b50868210156130075760001960f88860031b161c19848701351681555b505060018560011b0183555050505050565b6000845161302b818460208901612507565b84519083019061303f818360208901612507565b8451910190613052818360208801612507565b0195945050505050565b6000808335601e1984360301811261307357600080fd5b8301803591506001600160401b0382111561308d57600080fd5b6020019150368190038213156130a257600080fd5b9250929050565b8183823760009101908152919050565b634e487b7160e01b600052601160045260246000fd5b808201808211156107b6576107b66130b9565b6001600160a01b0393841681526020810192909252909116604082015260600190565b60018060a01b03851681528360208201528215156040820152608060608201526000613134608083018461252b565b9695505050505050565b805160208201516001600160601b0319808216929190601483101561316d5780818460140360031b1b83161693505b505050919050565b6001600160a01b038416815282151560208201526060604082018190526000906131a19083018461252b565b95945050505050565b6001600160a01b0386811682528581166020830152841660408201526060810183905260a060808201819052600090611d919083018461252b565b6000816131f4576131f46130b9565b506000190190565b81516001600160401b038111156132155761321561256a565b613229816132238454612ed1565b84612f05565b602080601f83116001811461325857600084156132465750858301515b6132508582612f4b565b865550610f92565b600085815260208120601f198616915b8281101561328757888601518255948401946001909101908401613268565b50858210156132a55787850151600019600388901b60f8161c191681555b5050505050600190811b01905550565b8215158152604060208201526000611ccb604083018461252b565b8051602080830151919081101561137e5760001960209190910360031b1b16919050565b828152604060208201526000611ccb604083018461252b565b60006020828403121561331f57600080fd5b81516001600160401b0381111561333557600080fd5b8201601f8101841361334657600080fd5b80516133546125f482612892565b81815285602083850101111561336957600080fd5b6131a1826020830160208601612507565b60006001820161338c5761338c6130b9565b5060010190565b818103818111156107b6576107b66130b9565b634e487b7160e01b600052603160045260246000fdfeb333c813a7426a7a11e2b190cad52c44119421594b47f6f32ace6d8c7207b2bfa26469706673582212207119eedfa895deb7df247f5daadc0f4ea3364b921314944df65e89a7bbd06e0964736f6c63430008140033",
  "linkReferences": {},
  "deployedLinkReferences": {}
}