{
  "_format": "hh-sol-artifact-1",
  "contractName": "FamilyMarketPlaceEscrow",
  "sourceName": "contracts/MarketplaceEscrow.sol",
  "abi": [
    {
      "inputs": [
        {
          "internalType": "address",
          "name": "LSP8Address",
          "type": "address"
        },
        {
          "internalType": "bytes32",
          "name": "_tokenId",
          "type": "bytes32"
        },
        {
          "internalType": "address",
          "name": "_seller",
          "type": "address"
        },
        {
          "internalType": "address",
          "name": "_buyer",
          "type": "address"
        },
        {
          "internalType": "uint256",
          "name": "amount",
          "type": "uint256"
        },
        {
          "internalType": "address",
          "name": "_familyAddress",
          "type": "address"
        }
      ],
      "stateMutability": "nonpayable",
      "type": "constructor"
    },
    {
      "inputs": [
        {
          "internalType": "bytes",
          "name": "invalidValue",
          "type": "bytes"
        }
      ],
      "name": "InvalidLSP18RoyaltiesData",
      "type": "error"
    },
    {
      "inputs": [],
      "name": "ReentrancyGuardReentrantCall",
      "type": "error"
    },
    {
      "inputs": [
        {
          "internalType": "uint32",
          "name": "royaltiesThresholdPoints",
          "type": "uint32"
        },
        {
          "internalType": "uint256",
          "name": "totalPrice",
          "type": "uint256"
        },
        {
          "internalType": "uint256",
          "name": "totalRoyalties",
          "type": "uint256"
        }
      ],
      "name": "RoyaltiesExceedThreshold",
      "type": "error"
    },
    {
      "anonymous": false,
      "inputs": [
        {
          "indexed": false,
          "internalType": "string",
          "name": "func",
          "type": "string"
        },
        {
          "indexed": false,
          "internalType": "address",
          "name": "sender",
          "type": "address"
        },
        {
          "indexed": false,
          "internalType": "bytes",
          "name": "data",
          "type": "bytes"
        }
      ],
      "name": "Action",
      "type": "event"
    },
    {
      "stateMutability": "payable",
      "type": "fallback"
    },
    {
      "inputs": [],
      "name": "buyer",
      "outputs": [
        {
          "internalType": "address",
          "name": "",
          "type": "address"
        }
      ],
      "stateMutability": "view",
      "type": "function"
    },
    {
      "inputs": [],
      "name": "cancel",
      "outputs": [],
      "stateMutability": "nonpayable",
      "type": "function"
    },
    {
      "inputs": [],
      "name": "cancelFiat",
      "outputs": [],
      "stateMutability": "nonpayable",
      "type": "function"
    },
    {
      "inputs": [],
      "name": "dispute",
      "outputs": [],
      "stateMutability": "nonpayable",
      "type": "function"
    },
    {
      "inputs": [],
      "name": "dissolve",
      "outputs": [],
      "stateMutability": "nonpayable",
      "type": "function"
    },
    {
      "inputs": [],
      "name": "dissolveFiat",
      "outputs": [],
      "stateMutability": "nonpayable",
      "type": "function"
    },
    {
      "inputs": [],
      "name": "getBalance",
      "outputs": [
        {
          "internalType": "uint256",
          "name": "",
          "type": "uint256"
        }
      ],
      "stateMutability": "view",
      "type": "function"
    },
    {
      "inputs": [],
      "name": "getBuyerSeller",
      "outputs": [
        {
          "internalType": "address[2]",
          "name": "",
          "type": "address[2]"
        }
      ],
      "stateMutability": "view",
      "type": "function"
    },
    {
      "inputs": [],
      "name": "getEscrowStatus",
      "outputs": [
        {
          "internalType": "enum FamilyMarketPlaceEscrow.status",
          "name": "",
          "type": "uint8"
        }
      ],
      "stateMutability": "view",
      "type": "function"
    },
    {
      "inputs": [],
      "name": "isEscrow",
      "outputs": [
        {
          "internalType": "bool",
          "name": "",
          "type": "bool"
        }
      ],
      "stateMutability": "view",
      "type": "function"
    },
    {
      "inputs": [
        {
          "internalType": "string",
          "name": "_trackingID",
          "type": "string"
        }
      ],
      "name": "markSent",
      "outputs": [],
      "stateMutability": "nonpayable",
      "type": "function"
    },
    {
      "inputs": [
        {
          "internalType": "uint256",
          "name": "feeAmount",
          "type": "uint256"
        },
        {
          "internalType": "uint256",
          "name": "lastPurchasePrice",
          "type": "uint256"
        },
        {
          "internalType": "uint32",
          "name": "royaltiesThresholdPoints",
          "type": "uint32"
        }
      ],
      "name": "release",
      "outputs": [],
      "stateMutability": "payable",
      "type": "function"
    },
    {
      "inputs": [],
      "name": "releaseFiat",
      "outputs": [],
      "stateMutability": "payable",
      "type": "function"
    },
    {
      "inputs": [],
      "name": "seller",
      "outputs": [
        {
          "internalType": "address",
          "name": "",
          "type": "address"
        }
      ],
      "stateMutability": "view",
      "type": "function"
    },
    {
      "inputs": [],
      "name": "settle",
      "outputs": [],
      "stateMutability": "nonpayable",
      "type": "function"
    },
    {
      "inputs": [],
      "name": "settleFiat",
      "outputs": [],
      "stateMutability": "nonpayable",
      "type": "function"
    },
    {
      "stateMutability": "payable",
      "type": "receive"
    }
  ],
  "bytecode": "0x6080604052600c805461ffff191661fa011790553480156200002057600080fd5b5060405162001aad38038062001aad8339810160408190526200004391620000d9565b60016000819055600280546001600160a01b03199081166001600160a01b03998a1617909155600396909655600480548716958816959095179094556005805486169387169390931790925542600855600a805460ff191690556006558154831633179091556007805491909316911617905562000148565b80516001600160a01b0381168114620000d457600080fd5b919050565b60008060008060008060c08789031215620000f357600080fd5b620000fe87620000bc565b9550602087015194506200011560408801620000bc565b93506200012560608801620000bc565b9250608087015191506200013c60a08801620000bc565b90509295509295509295565b61195580620001586000396000f3fe6080604052600436106100d15760003560e01c8063772ebf2811610077578063772ebf28146101e1578063837b2d1d146101f657806383dc3b0f14610220578063b8962d0214610235578063bfa41b131461023d578063dc3c7cfd14610139578063ea8a1af014610250578063f240f7c31461026557005b806308551a53146100da5780630ae57b1d1461011757806311da60b41461013957806312065fe01461014e5780633bef8a3a1461016c5780636234216d146101815780637150d8ae146101a1578063768896e5146101c157005b366100d857005b005b3480156100e657600080fd5b506004546100fa906001600160a01b031681565b6040516001600160a01b0390911681526020015b60405180910390f35b34801561012357600080fd5b5061012c61027a565b60405161010e9190611370565b34801561014557600080fd5b506100d86102a9565b34801561015a57600080fd5b5060065460405190815260200161010e565b34801561017857600080fd5b506100d861035d565b34801561018d57600080fd5b50600a5460ff1660405161010e91906113c0565b3480156101ad57600080fd5b506005546100fa906001600160a01b031681565b3480156101cd57600080fd5b506100d86101dc366004611455565b6103fb565b3480156101ed57600080fd5b506100d86104aa565b34801561020257600080fd5b50600c546102109060ff1681565b604051901515815260200161010e565b34801561022c57600080fd5b506100d861051b565b6100d86105d6565b6100d861024b3660046114d4565b61067d565b34801561025c57600080fd5b506100d86109a1565b34801561027157600080fd5b506100d8610a61565b610282611352565b50604080518082019091526005546001600160a01b03908116825260045416602082015290565b6001546001600160a01b031633146102dc5760405162461bcd60e51b81526004016102d390611516565b60405180910390fd5b6102e4610aa7565b600280546005546003546040805180820190915293845261060f60f31b6020850152610323936001600160a01b03938416933093169190600190610ad1565b60045460065461033c916001600160a01b031690610c36565b600a80546002919060ff19166001835b021790555061035b6001600055565b565b6001546001600160a01b031633146103875760405162461bcd60e51b81526004016102d390611516565b61038f610aa7565b600280546004546003546040805180820190915293845261060f60f31b60208501526103ce936001600160a01b03938416933093169190600190610ad1565b6005546006546103e7916001600160a01b031690610c36565b600a80546005919060ff191660018361034c565b6001546001600160a01b031633146104255760405162461bcd60e51b81526004016102d390611516565b61042d610aa7565b6004546001600160a01b031632146104875760405162461bcd60e51b815260206004820152601d60248201527f4f6e6c79207468652053656c6c6572206861732074686520726967687400000060448201526064016102d3565b600b61049382826115ce565b50600a805460ff1916600190811790915560005550565b6001546001600160a01b031633146104d45760405162461bcd60e51b81526004016102d390611516565b6104dc610aa7565b600280546004546003546040805180820190915293845261060f60f31b60208501526103e7936001600160a01b03938416933093169190600190610ad1565b6001546001600160a01b031633146105455760405162461bcd60e51b81526004016102d390611516565b61054d610aa7565b6000600a5460ff166005811115610566576105666113aa565b146105835760405162461bcd60e51b81526004016102d39061168d565b600280546004546003546040805180820190915293845261060f60f31b60208501526105c2936001600160a01b03938416933093169190600190610ad1565b600a80546003919060ff191660018361034c565b6000600a5460ff1660058111156105ef576105ef6113aa565b1461060c5760405162461bcd60e51b81526004016102d3906116bf565b6001546001600160a01b031633146106365760405162461bcd60e51b81526004016102d390611516565b61063e610aa7565b600280546005546003546040805180820190915293845261060f60f31b602085015261033c936001600160a01b03938416933093169190600190610ad1565b6000600a5460ff166005811115610696576106966113aa565b146106b35760405162461bcd60e51b81526004016102d3906116bf565b6001546001600160a01b031633146106dd5760405162461bcd60e51b81526004016102d390611516565b6106e5610aa7565b6005546001600160a01b031632146107565760405162461bcd60e51b815260206004820152602e60248201527f4f6e6c7920746865206275796572206861732074686520726967687420746f2060448201526d66696e616c697a6520747261646560901b60648201526084016102d3565b600080600061076760065485610d10565b9250925092508460065411158015610791575060025461078f906001600160a01b031661107f565b155b156107ff576004546006546000916001600160a01b0316906107b490899061170c565b604051600081818185875af1925050503d80600081146107f0576040519150601f19603f3d011682016040523d82523d6000602084013e6107f5565b606091505b5050905050610943565b815160005b818110156108c957600083828151811061082057610820611725565b602002602001015111156108b757600084828151811061084257610842611725565b60200260200101516001600160a01b031684838151811061086557610865611725565b602002602001015160405160006040518083038185875af1925050503d80600081146108ad576040519150601f19603f3d011682016040523d82523d6000602084013e6108b2565b606091505b505050505b806108c18161173b565b915050610804565b50600084886006546108db919061170c565b6108e5919061170c565b6004546040519192506000916001600160a01b039091169083908381818185875af1925050503d8060008114610937576040519150601f19603f3d011682016040523d82523d6000602084013e61093c565b606091505b5050505050505b600280546005546003546040805180820190915293845261060f60f31b6020850152610982936001600160a01b03938416933093169190600190610ad1565b5050600a805460ff19166002179055506001600055505050565b505050565b6001546001600160a01b031633146109cb5760405162461bcd60e51b81526004016102d390611516565b6109d3610aa7565b6000600a5460ff1660058111156109ec576109ec6113aa565b14610a095760405162461bcd60e51b81526004016102d39061168d565b600280546004546003546040805180820190915293845261060f60f31b6020850152610a48936001600160a01b03938416933093169190600190610ad1565b6005546006546105c2916001600160a01b031690610c36565b6001546001600160a01b03163314610a8b5760405162461bcd60e51b81526004016102d390611516565b610a93610aa7565b600a80546004919060ff191660018361034c565b600260005403610aca57604051633ee5aeb560e01b815260040160405180910390fd5b6002600055565b600080876001600160a01b03166040518060600160405280602c81526020016118f4602c9139805190602001208888888888604051602401610b179594939291906117a4565b60408051601f198184030181529181526020820180516001600160e01b03166001600160e01b0319909416939093179092529051610b5591906117ea565b6000604051808303816000865af19150503d8060008114610b92576040519150601f19603f3d011682016040523d82523d6000602084013e610b97565b606091505b5091509150818015610bc1575080511580610bc1575080806020019051810190610bc19190611806565b610c2c5760405162461bcd60e51b815260206004820152603660248201527f5472616e7366657248656c7065723a3a736166655472616e736665724c5350386044820152750e881314d40e081d1c985b9cd9995c8819985a5b195960521b60648201526084016102d3565b5050505050505050565b604080516000808252602082019092526001600160a01b038416908390604051610c6091906117ea565b60006040518083038185875af1925050503d8060008114610c9d576040519150601f19603f3d011682016040523d82523d6000602084013e610ca2565b606091505b505090508061099c5760405162461bcd60e51b815260206004820152603460248201527f5472616e7366657248656c7065723a3a736166655472616e736665724c59583a60448201527308131656081d1c985b9cd9995c8819985a5b195960621b60648201526084016102d3565b60025460009060609081908390610d2f906001600160a01b031661114a565b905080516001600160401b03811115610d4a57610d4a6113e8565b604051908082528060200260200182016040528015610d73578160200160208202803683370190505b50925080516001600160401b03811115610d8f57610d8f6113e8565b604051908082528060200260200182016040528015610db8578160200160208202803683370190505b50815190925060005b81811015610fae5773__$4271652f64a0a9f2e87126a207733f10b1$__633c7bdc19848381518110610df557610df5611725565b6020026020010151604001516040518263ffffffff1660e01b8152600401610e29919063ffffffff91909116815260200190565b602060405180830381865af4158015610e46573d6000803e3d6000fd5b505050506040513d601f19601f82011682018060405250810190610e6a9190611806565b610e7657610e76611828565b600073__$4271652f64a0a9f2e87126a207733f10b1$__631817cb8e8a868581518110610ea557610ea5611725565b6020026020010151604001516040518363ffffffff1660e01b8152600401610edd92919091825263ffffffff16602082015260400190565b602060405180830381865af4158015610efa573d6000803e3d6000fd5b505050506040513d601f19601f82011682018060405250810190610f1e919061183e565b9050838281518110610f3257610f32611725565b602002602001015160200151868381518110610f5057610f50611725565b60200260200101906001600160a01b031690816001600160a01b03168152505080858381518110610f8357610f83611725565b6020908102919091010152610f988188611857565b9650508080610fa69061173b565b915050610dc1565b5063ffffffff8616158015906110425750604051630c0be5c760e11b81526004810188905263ffffffff8716602482015273__$4271652f64a0a9f2e87126a207733f10b1$__90631817cb8e90604401602060405180830381865af415801561101b573d6000803e3d6000fd5b505050506040513d601f19601f8201168201806040525081019061103f919061183e565b85115b1561107657604051633fabaf7560e01b815263ffffffff8716600482015260248101889052604481018690526064016102d3565b50509250925092565b6040516354f6127f60e01b81527f580d62ad353782eca17b89e5900e7df3b13b6f4ca9bbc2f8af8bceb0c3d1ecc6600482015260009081906001600160a01b038416906354f6127f90602401600060405180830381865afa1580156110e8573d6000803e3d6000fd5b505050506040513d6000823e601f3d908101601f19168201604052611110919081019061186a565b90506000815111801561114357508060008151811061113157611131611725565b01602001516001600160f81b03191615155b9392505050565b6040516354f6127f60e01b81527fc0569ca6c9180acc2c3590f36330a36ae19015a19f4e85c28a7631e3317e6b9d60048201526060906000906001600160a01b038416906354f6127f90602401600060405180830381865afa1580156111b4573d6000803e3d6000fd5b505050506040513d6000823e601f3d908101601f191682016040526111dc919081019061186a565b90506111438180516060906000805b828110156112365784810160020151601861ffff82161015611222578560405163460fe35360e11b81526004016102d391906118e0565b6001929092019160020161ffff16016111eb565b506000816001600160401b03811115611251576112516113e8565b60405190808252806020026020018201604052801561129c57816020015b604080516060810182526000808252602080830182905292820152825260001990920191018161126f5790505b5090506000805b848210156113475786820160028101516006820151602690920151909190600160601b90046000601c61ffff8516106112df5750601e8a860101515b6040518060600160405280846001600160e01b0319168152602001836001600160a01b031681526020018263ffffffff1681525087868151811061132557611325611725565b602090810291909101015250505060020161ffff1691909101906001016112a3565b509095945050505050565b60405180604001604052806002906020820280368337509192915050565b60408101818360005b60028110156113a15781516001600160a01b0316835260209283019290910190600101611379565b50505092915050565b634e487b7160e01b600052602160045260246000fd5b60208101600683106113e257634e487b7160e01b600052602160045260246000fd5b91905290565b634e487b7160e01b600052604160045260246000fd5b604051601f8201601f191681016001600160401b0381118282101715611426576114266113e8565b604052919050565b60006001600160401b03821115611447576114476113e8565b50601f01601f191660200190565b60006020828403121561146757600080fd5b81356001600160401b0381111561147d57600080fd5b8201601f8101841361148e57600080fd5b80356114a161149c8261142e565b6113fe565b8181528560208385010111156114b657600080fd5b81602084016020830137600091810160200191909152949350505050565b6000806000606084860312156114e957600080fd5b8335925060208401359150604084013563ffffffff8116811461150b57600080fd5b809150509250925092565b60208082526016908201527553656e646572204e6f74204d61726b6574706c61636560501b604082015260600190565b600181811c9082168061155a57607f821691505b60208210810361157a57634e487b7160e01b600052602260045260246000fd5b50919050565b601f82111561099c57600081815260208120601f850160051c810160208610156115a75750805b601f850160051c820191505b818110156115c6578281556001016115b3565b505050505050565b81516001600160401b038111156115e7576115e76113e8565b6115fb816115f58454611546565b84611580565b602080601f83116001811461163057600084156116185750858301515b600019600386901b1c1916600185901b1785556115c6565b600085815260208120601f198616915b8281101561165f57888601518255948401946001909101908401611640565b508582101561167d5787850151600019600388901b60f8161c191681555b5050505050600190811b01905550565b602080825260189082015277125d195b48105b1c9958591e4813585c9ad9590814d95b9d60421b604082015260600190565b6020808252601c908201527f457363726f77206974656d20686173206265656e20636c6f7365642e00000000604082015260600190565b634e487b7160e01b600052601160045260246000fd5b8181038181111561171f5761171f6116f6565b92915050565b634e487b7160e01b600052603260045260246000fd5b60006001820161174d5761174d6116f6565b5060010190565b60005b8381101561176f578181015183820152602001611757565b50506000910152565b60008151808452611790816020860160208601611754565b601f01601f19169290920160200192915050565b6001600160a01b0386811682528516602082015260408101849052821515606082015260a0608082018190526000906117df90830184611778565b979650505050505050565b600082516117fc818460208701611754565b9190910192915050565b60006020828403121561181857600080fd5b8151801515811461114357600080fd5b634e487b7160e01b600052600160045260246000fd5b60006020828403121561185057600080fd5b5051919050565b8082018082111561171f5761171f6116f6565b60006020828403121561187c57600080fd5b81516001600160401b0381111561189257600080fd5b8201601f810184136118a357600080fd5b80516118b161149c8261142e565b8181528560208385010111156118c657600080fd5b6118d7826020830160208601611754565b95945050505050565b602081526000611143602083018461177856fe7472616e7366657228616464726573732c616464726573732c627974657333322c626f6f6c2c627974657329a2646970667358221220e0c5734855cce321dcce17dce8e06bd25add7bab9f47eb3640998bfa536ac26664736f6c63430008140033",
  "linkReferences": {
    "contracts/libraries/Points.sol": {
      "Points": [
        {
          "length": 20,
          "start": 3875
        },
        {
          "length": 20,
          "start": 4050
        },
        {
          "length": 20,
          "start": 4409
        }
      ]
    }
  },
  "deployedLinkReferences": {
    "contracts/libraries/Points.sol": {
      "Points": [
        {
          "length": 20,
          "start": 3531
        },
        {
          "length": 20,
          "start": 3706
        },
        {
          "length": 20,
          "start": 4065
        }
      ]
    }
  }
}