{
  "_format": "hh-sol-artifact-1",
  "contractName": "LSP8Marketplace",
  "sourceName": "contracts/LSP8Marketplace.sol",
  "abi": [
    {
      "inputs": [
        {
          "internalType": "address",
          "name": "_owner",
          "type": "address"
        },
        {
          "internalType": "address",
          "name": "_placeholder",
          "type": "address"
        }
      ],
      "stateMutability": "nonpayable",
      "type": "constructor"
    },
    {
      "inputs": [
        {
          "internalType": "bytes32",
          "name": "key",
          "type": "bytes32"
        }
      ],
      "name": "EnumerableMapNonexistentKey",
      "type": "error"
    },
    {
      "inputs": [],
      "name": "InvalidFamilySignature",
      "type": "error"
    },
    {
      "anonymous": false,
      "inputs": [
        {
          "indexed": true,
          "internalType": "bytes32",
          "name": "tradeId",
          "type": "bytes32"
        },
        {
          "indexed": true,
          "internalType": "string",
          "name": "trackingId",
          "type": "string"
        }
      ],
      "name": "Dispute",
      "type": "event"
    },
    {
      "anonymous": false,
      "inputs": [
        {
          "indexed": false,
          "internalType": "bytes32",
          "name": "tradId",
          "type": "bytes32"
        }
      ],
      "name": "Dissolved",
      "type": "event"
    },
    {
      "anonymous": false,
      "inputs": [
        {
          "indexed": false,
          "internalType": "bytes32",
          "name": "tradId",
          "type": "bytes32"
        }
      ],
      "name": "DissolvedFiat",
      "type": "event"
    },
    {
      "anonymous": false,
      "inputs": [
        {
          "indexed": false,
          "internalType": "address",
          "name": "collection",
          "type": "address"
        },
        {
          "indexed": false,
          "internalType": "bytes32",
          "name": "tokenId",
          "type": "bytes32"
        }
      ],
      "name": "ItemDelisted",
      "type": "event"
    },
    {
      "anonymous": false,
      "inputs": [
        {
          "indexed": true,
          "internalType": "address",
          "name": "collection",
          "type": "address"
        },
        {
          "indexed": true,
          "internalType": "bytes32",
          "name": "tokenId",
          "type": "bytes32"
        },
        {
          "indexed": true,
          "internalType": "uint256",
          "name": "price",
          "type": "uint256"
        },
        {
          "indexed": false,
          "internalType": "string",
          "name": "listingURl",
          "type": "string"
        },
        {
          "indexed": false,
          "internalType": "bool",
          "name": "ItemListed",
          "type": "bool"
        },
        {
          "indexed": false,
          "internalType": "enum LSP8Marketplace.collectionType",
          "name": "",
          "type": "uint8"
        }
      ],
      "name": "ItemListed",
      "type": "event"
    },
    {
      "anonymous": false,
      "inputs": [
        {
          "indexed": false,
          "internalType": "bytes32",
          "name": "tradId",
          "type": "bytes32"
        }
      ],
      "name": "Received",
      "type": "event"
    },
    {
      "anonymous": false,
      "inputs": [
        {
          "indexed": false,
          "internalType": "bytes32",
          "name": "tradId",
          "type": "bytes32"
        }
      ],
      "name": "ReceivedFiat",
      "type": "event"
    },
    {
      "anonymous": false,
      "inputs": [
        {
          "indexed": false,
          "internalType": "bytes32",
          "name": "tradId",
          "type": "bytes32"
        }
      ],
      "name": "Resolved",
      "type": "event"
    },
    {
      "anonymous": false,
      "inputs": [
        {
          "indexed": false,
          "internalType": "bytes32",
          "name": "tradId",
          "type": "bytes32"
        }
      ],
      "name": "ResolvedFiat",
      "type": "event"
    },
    {
      "anonymous": false,
      "inputs": [
        {
          "indexed": true,
          "internalType": "bytes32",
          "name": "tradeId",
          "type": "bytes32"
        },
        {
          "indexed": true,
          "internalType": "string",
          "name": "trackingId",
          "type": "string"
        }
      ],
      "name": "Sent",
      "type": "event"
    },
    {
      "anonymous": false,
      "inputs": [
        {
          "indexed": true,
          "internalType": "bytes32",
          "name": "tradeId",
          "type": "bytes32"
        },
        {
          "indexed": true,
          "internalType": "address",
          "name": "seller",
          "type": "address"
        },
        {
          "indexed": true,
          "internalType": "address",
          "name": "buyer",
          "type": "address"
        },
        {
          "indexed": false,
          "internalType": "address",
          "name": "escrow",
          "type": "address"
        },
        {
          "indexed": false,
          "internalType": "address",
          "name": "collection",
          "type": "address"
        },
        {
          "indexed": false,
          "internalType": "bytes32",
          "name": "tokenId",
          "type": "bytes32"
        },
        {
          "indexed": false,
          "internalType": "uint256",
          "name": "price",
          "type": "uint256"
        }
      ],
      "name": "TradeInitiated",
      "type": "event"
    },
    {
      "inputs": [
        {
          "internalType": "address",
          "name": "LSP8Address",
          "type": "address"
        },
        {
          "internalType": "bytes32",
          "name": "tokenId",
          "type": "bytes32"
        }
      ],
      "name": "_returnLSP7Prices",
      "outputs": [
        {
          "internalType": "address[]",
          "name": "",
          "type": "address[]"
        },
        {
          "internalType": "uint256[]",
          "name": "",
          "type": "uint256[]"
        }
      ],
      "stateMutability": "view",
      "type": "function"
    },
    {
      "inputs": [
        {
          "internalType": "address",
          "name": "LSP8Address",
          "type": "address"
        },
        {
          "internalType": "bytes32",
          "name": "tokenId",
          "type": "bytes32"
        }
      ],
      "name": "_returnLYXPrice",
      "outputs": [
        {
          "internalType": "uint256",
          "name": "",
          "type": "uint256"
        }
      ],
      "stateMutability": "view",
      "type": "function"
    },
    {
      "inputs": [
        {
          "internalType": "address",
          "name": "_juror",
          "type": "address"
        }
      ],
      "name": "addJuror",
      "outputs": [],
      "stateMutability": "nonpayable",
      "type": "function"
    },
    {
      "inputs": [
        {
          "internalType": "address",
          "name": "LSP8Address",
          "type": "address"
        },
        {
          "internalType": "bytes32",
          "name": "tokenId",
          "type": "bytes32"
        },
        {
          "internalType": "address",
          "name": "LSP7Address",
          "type": "address"
        },
        {
          "internalType": "uint256",
          "name": "LSP7Amount",
          "type": "uint256"
        }
      ],
      "name": "addLSP7Price",
      "outputs": [],
      "stateMutability": "nonpayable",
      "type": "function"
    },
    {
      "inputs": [
        {
          "internalType": "address",
          "name": "LSP8Address",
          "type": "address"
        },
        {
          "internalType": "bytes32",
          "name": "tokenId",
          "type": "bytes32"
        },
        {
          "internalType": "address",
          "name": "buyer",
          "type": "address"
        }
      ],
      "name": "buyDigitalLSP8WithFiat",
      "outputs": [],
      "stateMutability": "payable",
      "type": "function"
    },
    {
      "inputs": [
        {
          "internalType": "address",
          "name": "LSP8Address",
          "type": "address"
        },
        {
          "internalType": "bytes32",
          "name": "tokenId",
          "type": "bytes32"
        }
      ],
      "name": "buyDigitalLSP8WithLYX",
      "outputs": [],
      "stateMutability": "payable",
      "type": "function"
    },
    {
      "inputs": [
        {
          "internalType": "address",
          "name": "LSP8Address",
          "type": "address"
        },
        {
          "internalType": "address",
          "name": "buyer",
          "type": "address"
        },
        {
          "internalType": "bytes32",
          "name": "tokenId",
          "type": "bytes32"
        }
      ],
      "name": "buyLSP8WithFiat",
      "outputs": [],
      "stateMutability": "payable",
      "type": "function"
    },
    {
      "inputs": [
        {
          "internalType": "address",
          "name": "LSP8Address",
          "type": "address"
        },
        {
          "internalType": "bytes32",
          "name": "tokenId",
          "type": "bytes32"
        },
        {
          "internalType": "address",
          "name": "LSP7Address",
          "type": "address"
        }
      ],
      "name": "buyLSP8WithLSP7",
      "outputs": [],
      "stateMutability": "nonpayable",
      "type": "function"
    },
    {
      "inputs": [
        {
          "internalType": "address",
          "name": "LSP8Address",
          "type": "address"
        },
        {
          "internalType": "bytes32",
          "name": "tokenId",
          "type": "bytes32"
        }
      ],
      "name": "buyLSP8WithLYX",
      "outputs": [],
      "stateMutability": "payable",
      "type": "function"
    },
    {
      "inputs": [
        {
          "internalType": "address",
          "name": "LSP8Address",
          "type": "address"
        },
        {
          "internalType": "bytes32",
          "name": "tokenId",
          "type": "bytes32"
        },
        {
          "internalType": "address",
          "name": "LSP7Address",
          "type": "address"
        },
        {
          "internalType": "uint256",
          "name": "LSP7Amount",
          "type": "uint256"
        }
      ],
      "name": "changeLSP7Price",
      "outputs": [],
      "stateMutability": "nonpayable",
      "type": "function"
    },
    {
      "inputs": [
        {
          "internalType": "address",
          "name": "LSP8Address",
          "type": "address"
        },
        {
          "internalType": "bytes32",
          "name": "tokenId",
          "type": "bytes32"
        },
        {
          "internalType": "uint256",
          "name": "LYXAmount",
          "type": "uint256"
        }
      ],
      "name": "changeLYXPrice",
      "outputs": [],
      "stateMutability": "nonpayable",
      "type": "function"
    },
    {
      "inputs": [
        {
          "internalType": "bytes32",
          "name": "tradeId",
          "type": "bytes32"
        }
      ],
      "name": "confirmDigitalReceived",
      "outputs": [],
      "stateMutability": "nonpayable",
      "type": "function"
    },
    {
      "inputs": [
        {
          "internalType": "bytes32",
          "name": "tradeId",
          "type": "bytes32"
        }
      ],
      "name": "confirmDigitalReceivedFiat",
      "outputs": [],
      "stateMutability": "nonpayable",
      "type": "function"
    },
    {
      "inputs": [
        {
          "internalType": "bytes32",
          "name": "tradeId",
          "type": "bytes32"
        },
        {
          "internalType": "string",
          "name": "uid",
          "type": "string"
        },
        {
          "internalType": "bytes",
          "name": "signature",
          "type": "bytes"
        }
      ],
      "name": "confirmReceived",
      "outputs": [],
      "stateMutability": "nonpayable",
      "type": "function"
    },
    {
      "inputs": [
        {
          "internalType": "bytes32",
          "name": "tradeId",
          "type": "bytes32"
        },
        {
          "internalType": "string",
          "name": "uid",
          "type": "string"
        },
        {
          "internalType": "bytes",
          "name": "signature",
          "type": "bytes"
        }
      ],
      "name": "confirmReceivedFiat",
      "outputs": [],
      "stateMutability": "nonpayable",
      "type": "function"
    },
    {
      "inputs": [
        {
          "internalType": "bytes32",
          "name": "tradeId",
          "type": "bytes32"
        },
        {
          "internalType": "string",
          "name": "trackingId",
          "type": "string"
        }
      ],
      "name": "confirmSent",
      "outputs": [],
      "stateMutability": "nonpayable",
      "type": "function"
    },
    {
      "inputs": [
        {
          "internalType": "bytes32",
          "name": "tradeId",
          "type": "bytes32"
        }
      ],
      "name": "dissolveTrade",
      "outputs": [],
      "stateMutability": "nonpayable",
      "type": "function"
    },
    {
      "inputs": [
        {
          "internalType": "bytes32",
          "name": "tradeId",
          "type": "bytes32"
        }
      ],
      "name": "dissolveTradeFiat",
      "outputs": [],
      "stateMutability": "nonpayable",
      "type": "function"
    },
    {
      "inputs": [
        {
          "internalType": "bytes32",
          "name": "tradeId",
          "type": "bytes32"
        },
        {
          "internalType": "string",
          "name": "reason",
          "type": "string"
        }
      ],
      "name": "openDispute",
      "outputs": [],
      "stateMutability": "nonpayable",
      "type": "function"
    },
    {
      "inputs": [
        {
          "internalType": "address",
          "name": "LSP8Address",
          "type": "address"
        },
        {
          "internalType": "bytes32",
          "name": "tokenId",
          "type": "bytes32"
        },
        {
          "internalType": "uint256",
          "name": "LYXAmount",
          "type": "uint256"
        },
        {
          "internalType": "string",
          "name": "listingURl",
          "type": "string"
        },
        {
          "internalType": "bool",
          "name": "_acceptFiat",
          "type": "bool"
        }
      ],
      "name": "putDigitalLSP8OnSale",
      "outputs": [],
      "stateMutability": "nonpayable",
      "type": "function"
    },
    {
      "inputs": [
        {
          "internalType": "address",
          "name": "LSP8Address",
          "type": "address"
        },
        {
          "internalType": "bytes32",
          "name": "tokenId",
          "type": "bytes32"
        },
        {
          "internalType": "uint256",
          "name": "LYXAmount",
          "type": "uint256"
        },
        {
          "internalType": "string",
          "name": "uid",
          "type": "string"
        },
        {
          "internalType": "bytes",
          "name": "signature",
          "type": "bytes"
        },
        {
          "internalType": "string",
          "name": "listingURl",
          "type": "string"
        },
        {
          "internalType": "bool",
          "name": "_acceptFiat",
          "type": "bool"
        }
      ],
      "name": "putLSP8OnSale",
      "outputs": [],
      "stateMutability": "nonpayable",
      "type": "function"
    },
    {
      "inputs": [
        {
          "internalType": "address",
          "name": "_juror",
          "type": "address"
        }
      ],
      "name": "removeJuror",
      "outputs": [],
      "stateMutability": "nonpayable",
      "type": "function"
    },
    {
      "inputs": [
        {
          "internalType": "address",
          "name": "LSP8Address",
          "type": "address"
        },
        {
          "internalType": "bytes32",
          "name": "tokenId",
          "type": "bytes32"
        }
      ],
      "name": "removeLSP8FromSale",
      "outputs": [],
      "stateMutability": "nonpayable",
      "type": "function"
    },
    {
      "inputs": [
        {
          "internalType": "bytes32",
          "name": "tradeId",
          "type": "bytes32"
        }
      ],
      "name": "resolveTrade",
      "outputs": [],
      "stateMutability": "nonpayable",
      "type": "function"
    },
    {
      "inputs": [
        {
          "internalType": "bytes32",
          "name": "tradeId",
          "type": "bytes32"
        }
      ],
      "name": "resolveTradeFiat",
      "outputs": [],
      "stateMutability": "nonpayable",
      "type": "function"
    }
  ],
  "bytecode": "0x608060405260006003553480156200001657600080fd5b50604051620058da380380620058da83398101604081905262000039916200008b565b600480546001600160a01b039283166001600160a01b03199182161790915560058054939092169216919091179055620000c3565b80516001600160a01b03811681146200008657600080fd5b919050565b600080604083850312156200009f57600080fd5b620000aa836200006e565b9150620000ba602084016200006e565b90509250929050565b61580780620000d36000396000f3fe608060405260043610620001b75760003560e01c806377ab9cbb11620000f3578063be85078a1162000095578063cf7b7c42116200006c578063cf7b7c4214620004a2578063dbb1b12714620004c7578063e568dd7314620004ec578063f6cd25f0146200052157600080fd5b8063be85078a1462000433578063cb552b461462000458578063cbbdc538146200047d57600080fd5b80639752c64711620000ca5780639752c64714620003b1578063ae86c6c114620003d6578063bd29544014620003fb57600080fd5b806377ab9cbb146200035e5780637c440368146200038357806382c9a551146200039a57600080fd5b80633bd320c7116200015d57806365dbc70f116200013457806365dbc70f14620002fd5780636b1c6fe1146200031457806373199de8146200033957600080fd5b80633bd320c7146200029c5780633f9fa40914620002c15780634349509214620002d857600080fd5b806331ea5596116200019257806331ea5596146200022d57806336654f841462000252578063372a3874146200027757600080fd5b80630a84a4fd14620001bc578063109b0e9514620001e357806317d678361462000208575b600080fd5b348015620001c957600080fd5b50620001e1620001db36600462003e50565b62000546565b005b348015620001f057600080fd5b50620001e16200020236600462003e88565b620006af565b3480156200021557600080fd5b50620001e16200022736600462003f4d565b620007cf565b3480156200023a57600080fd5b50620001e16200024c36600462003f4d565b620008ee565b3480156200025f57600080fd5b50620001e16200027136600462003e88565b62000a18565b3480156200028457600080fd5b50620001e16200029636600462003fa7565b62000b13565b348015620002a957600080fd5b50620001e1620002bb36600462004078565b62000cfa565b620001e1620002d2366004620040c5565b62000ef5565b348015620002e557600080fd5b50620001e1620002f736600462003e88565b620011f4565b620001e16200030e366004620040f4565b620012ef565b3480156200032157600080fd5b50620001e162000333366004620040c5565b620015e7565b3480156200034657600080fd5b50620001e162000358366004620040f4565b6200173e565b3480156200036b57600080fd5b50620001e16200037d36600462004078565b62001a4f565b620001e1620003943660046200413b565b62001c64565b620001e1620003ab366004620040c5565b6200209e565b348015620003be57600080fd5b50620001e1620003d036600462004181565b620023f9565b348015620003e357600080fd5b50620001e1620003f536600462004181565b62002569565b3480156200040857600080fd5b50620004206200041a366004620040c5565b6200267d565b6040519081526020015b60405180910390f35b3480156200044057600080fd5b50620001e16200045236600462003e88565b620026ab565b3480156200046557600080fd5b50620001e162000477366004620041f5565b620027f8565b3480156200048a57600080fd5b50620001e16200049c36600462003e88565b62002855565b348015620004af57600080fd5b50620001e1620004c136600462003e88565b620029b9565b348015620004d457600080fd5b50620001e1620004e636600462004215565b62002aed565b348015620004f957600080fd5b50620005116200050b366004620040c5565b62002ca6565b6040516200042a92919062004295565b3480156200052e57600080fd5b50620001e162000540366004620041f5565b62002d4c565b604051630217b22760e41b8152600481018390528390839033906001600160a01b0384169063217b227090602401602060405180830381865afa15801562000592573d6000803e3d6000fd5b505050506040513d601f19601f82011682018060405250810190620005b891906200431d565b6001600160a01b031614620006145760405162461bcd60e51b815260206004820152601d60248201527f53656e64657220646f65736e2774206f776e2074686973204c5350382e00000060448201526064015b60405180910390fd5b6001600160a01b0385166000908152602081905260409020859085906200063c908262002da5565b620006815760405162461bcd60e51b81526020600482015260146024820152732629a81c1034b9903737ba1037b71039b0b6329760611b60448201526064016200060b565b505050506001600160a01b039290921660009081526002602090815260408083209383529290522060050155565b620006bc60063362002dc0565b620006e45760405162461bcd60e51b815260206004820152600060248201526044016200060b565b6000818152600860209081526040808320815160608101835281546001600160a01b039081168252600183015481169482019490945260029091015490921682820181905281517f11da60b40000000000000000000000000000000000000000000000000000000081529151929390926311da60b492600480820193929182900301818387803b1580156200077857600080fd5b505af11580156200078d573d6000803e3d6000fd5b505050507fef627d0e66434f22f9f3c4ac2a0ef3ab44f42e720a9b663a1e38d990b943faee82604051620007c391815260200190565b60405180910390a15050565b600082815260086020908152604091829020825160608101845281546001600160a01b039081168083526001840154821694830194909452600290920154909116928101929092523314620008415760405162461bcd60e51b815260206004820152600060248201526044016200060b565b80604001516001600160a01b031663768896e5836040518263ffffffff1660e01b815260040162000873919062004391565b600060405180830381600087803b1580156200088e57600080fd5b505af1158015620008a3573d6000803e3d6000fd5b5050505081604051620008b79190620043a6565b6040519081900381209084907fd4f38c7bc9ecd1e2dc32b792412b891ef2d858ff73fa89dad9c1931171e6c1e090600090a3505050565b600082815260086020908152604091829020825160608101845281546001600160a01b0390811680835260018401548216948301949094526002909201549091169281019290925233148062000950575060208101516001600160a01b031633145b620009785760405162461bcd60e51b815260206004820152600060248201526044016200060b565b80604001516001600160a01b031663f240f7c36040518163ffffffff1660e01b8152600401600060405180830381600087803b158015620009b857600080fd5b505af1158015620009cd573d6000803e3d6000fd5b5050505081604051620009e19190620043a6565b6040519081900381209084907fdd06a1bb006455f79813adec3a04ac5027b2dab7d17a0ed1bda15c837b81e3d790600090a3505050565b62000a2560063362002dc0565b62000a4d5760405162461bcd60e51b815260206004820152600060248201526044016200060b565b6000818152600860209081526040808320815160608101835281546001600160a01b03908116825260018301548116948201949094526002909101549092168282018190528151631df7c51d60e11b8152915192939092633bef8a3a92600480820193929182900301818387803b15801562000ac857600080fd5b505af115801562000add573d6000803e3d6000fd5b505050507f982bf5a7c13f6a3221eb651dceff4ed35dc4170500238cb81df4819563ea090582604051620007c391815260200190565b604051630217b22760e41b8152600481018790528790879033906001600160a01b0384169063217b227090602401602060405180830381865afa15801562000b5f573d6000803e3d6000fd5b505050506040513d601f19601f8201168201806040525081019062000b8591906200431d565b6001600160a01b03161462000bdd5760405162461bcd60e51b815260206004820152601d60248201527f53656e64657220646f65736e2774206f776e2074686973204c5350382e00000060448201526064016200060b565b6001600160a01b03891660009081526020819052604090208990899062000c05908262002da5565b1562000c545760405162461bcd60e51b815260206004820152601060248201527f4c535038206973206f6e2073616c652e0000000000000000000000000000000060448201526064016200060b565b60045462000c6d906001600160a01b0316898962002de3565b62000c7a8b8b8762002efa565b6001600160a01b038b1660009081526002602090815260408083208d84529091529020600501899055888a8c6001600160a01b03167f549017a7bd766b7b1fe1351de08bf426efe9d224831ad82206ab54edb873fcb08989600160405162000ce593929190620043da565b60405180910390a45050505050505050505050565b604051630217b22760e41b8152600481018490528490849033906001600160a01b0384169063217b227090602401602060405180830381865afa15801562000d46573d6000803e3d6000fd5b505050506040513d601f19601f8201168201806040525081019062000d6c91906200431d565b6001600160a01b03161462000dc45760405162461bcd60e51b815260206004820152601d60248201527f53656e64657220646f65736e2774206f776e2074686973204c5350382e00000060448201526064016200060b565b6001600160a01b03861660009081526020819052604090208690869062000dec908262002da5565b62000e315760405162461bcd60e51b81526020600482015260146024820152732629a81c1034b9903737ba1037b71039b0b6329760611b60448201526064016200060b565b6001600160a01b03881660009081526002602090815260408083208a8452909152902088908890889062000e66908262002dc0565b62000eda5760405162461bcd60e51b815260206004820152603760248201527f5468657265206973206e6f206275796f757420707269636520696e207468697360448201527f20746f6b656e2e2054727920746f20616464206f6e652e00000000000000000060648201526084016200060b565b62000ee88b8b8b8b62002f55565b5050505050505050505050565b6001600160a01b038216600090815260026020908152604080832084845290915290206005015482908290341462000f705760405162461bcd60e51b815260206004820152601a60248201527f596f75206469646e27742073656e6420656e6f756768204c595800000000000060448201526064016200060b565b6001600160a01b03841660009081526020819052604090208490849062000f98908262002da5565b62000fdd5760405162461bcd60e51b81526020600482015260146024820152732629a81c1034b9903737ba1037b71039b0b6329760611b60448201526064016200060b565b604051630217b22760e41b8152600481018690526000906001600160a01b0388169063217b227090602401602060405180830381865afa15801562001026573d6000803e3d6000fd5b505050506040513d601f19601f820116820180604052508101906200104c91906200431d565b905060006200105c88886200267d565b6003546040516bffffffffffffffffffffffff19606086811b8216602084015233811b82166034840152604883018590528c901b166068820152607c81018a9052609c81019190915290915060009060bc01604051602081830303815290604052805190602001209050620010d2898962002f95565b620010de898962002ffc565b620010f08984338b60006001620030f8565b620010fc838362003114565b604080516060810182526001600160a01b038086168252336020808401918252600084860181815287825260089092529485209351845490841673ffffffffffffffffffffffffffffffffffffffff199182161785559151600185018054918516918416919091179055516002909301805493909216921691909117905560038054916200118a836200443c565b909155505060408051600081526001600160a01b038b811660208301529181018a905260608101849052339185169083907f13f45c05473c7e5958b059813084be663aea88e382de879ac5c87a718767b352906080015b60405180910390a4505050505050505050565b600081815260086020908152604091829020825160608101845281546001600160a01b03908116825260018301548116938201849052600290920154909116928101929092523314620012645760405162461bcd60e51b815260206004820152600060248201526044016200060b565b80604001516001600160a01b03166386d1a69f6040518163ffffffff1660e01b8152600401600060405180830381600087803b158015620012a457600080fd5b505af1158015620012b9573d6000803e3d6000fd5b505050507f383ab61835ef171bf38d73022941ddcab99ceb1f013160359750ac5f8f8e4f1482604051620007c391815260200190565b6001600160a01b03831660009081526002602090815260408083208584529091529020600501548390839034146200136a5760405162461bcd60e51b815260206004820152601a60248201527f596f75206469646e27742073656e6420656e6f756768204c595800000000000060448201526064016200060b565b6001600160a01b03851660009081526020819052604090208590859062001392908262002da5565b620013d75760405162461bcd60e51b81526020600482015260146024820152732629a81c1034b9903737ba1037b71039b0b6329760611b60448201526064016200060b565b604051630217b22760e41b8152600481018790526000906001600160a01b0389169063217b227090602401602060405180830381865afa15801562001420573d6000803e3d6000fd5b505050506040513d601f19601f820116820180604052508101906200144691906200431d565b905060006200145689896200267d565b6003546040516bffffffffffffffffffffffff19606086811b821660208401528b811b82166034840152604883018590528d901b166068820152607c81018b9052609c81019190915290915060009060bc01604051602081830303815290604052805190602001209050620014cc8a8a62002f95565b620014d88a8a62002ffc565b620014ea8a848a8c60006001620030f8565b604080516060810182526001600160a01b0380861682528a81166020808401918252600084860181815287825260089092529485209351845490841673ffffffffffffffffffffffffffffffffffffffff199182161785559151600185018054918516918416919091179055516002909301805493909216921691909117905560038054916200157a836200443c565b909155505060408051600081526001600160a01b038c811660208301529181018b905260608101849052818a169185169083907f13f45c05473c7e5958b059813084be663aea88e382de879ac5c87a718767b352906080015b60405180910390a450505050505050505050565b604051630217b22760e41b8152600481018290528290829033906001600160a01b0384169063217b227090602401602060405180830381865afa15801562001633573d6000803e3d6000fd5b505050506040513d601f19601f820116820180604052508101906200165991906200431d565b6001600160a01b031614620016b15760405162461bcd60e51b815260206004820152601d60248201527f53656e64657220646f65736e2774206f776e2074686973204c5350382e00000060448201526064016200060b565b6001600160a01b038416600090815260208190526040902084908490620016d9908262002da5565b6200171e5760405162461bcd60e51b81526020600482015260146024820152732629a81c1034b9903737ba1037b71039b0b6329760611b60448201526064016200060b565b6200172a868662002f95565b62001736868662002ffc565b505050505050565b6001600160a01b038316600090815260026020818152604080842086855290915290912084918491849162001775910182620031fd565b6040517f70a082310000000000000000000000000000000000000000000000000000000081523360048201526001600160a01b038316906370a0823190602401602060405180830381865afa158015620017d3573d6000803e3d6000fd5b505050506040513d601f19601f82011682018060405250810190620017f9919062004458565b116200186e5760405162461bcd60e51b815260206004820152602960248201527f53656e64657220646f65736e2774206861766520656e6f75676820746f6b656e60448201527f2062616c616e63652e000000000000000000000000000000000000000000000060648201526084016200060b565b6001600160a01b03861660009081526002602090815260408083208884529091529020869086908690620018a3908262002dc0565b620019175760405162461bcd60e51b815260206004820152602260248201527f53656c6c657220646f6573206e6f7420616363657074207468697320746f6b6560448201527f6e2e00000000000000000000000000000000000000000000000000000000000060648201526084016200060b565b6001600160a01b0389166000908152602081905260409020899089906200193f908262002da5565b620019845760405162461bcd60e51b81526020600482015260146024820152732629a81c1034b9903737ba1037b71039b0b6329760611b60448201526064016200060b565b604051630217b22760e41b8152600481018b90526000906001600160a01b038d169063217b227090602401602060405180830381865afa158015620019cd573d6000803e3d6000fd5b505050506040513d601f19601f82011682018060405250810190620019f391906200431d565b9050600062001a048d8d8d62003214565b905062001a128d8d62002f95565b62001a1e8d8d62002ffc565b62001a2e8b33848460006200324c565b62001a408d83338f60006001620030f8565b50505050505050505050505050565b604051630217b22760e41b8152600481018490528490849033906001600160a01b0384169063217b227090602401602060405180830381865afa15801562001a9b573d6000803e3d6000fd5b505050506040513d601f19601f8201168201806040525081019062001ac191906200431d565b6001600160a01b03161462001b195760405162461bcd60e51b815260206004820152601d60248201527f53656e64657220646f65736e2774206f776e2074686973204c5350382e00000060448201526064016200060b565b6001600160a01b03861660009081526020819052604090208690869062001b41908262002da5565b62001b865760405162461bcd60e51b81526020600482015260146024820152732629a81c1034b9903737ba1037b71039b0b6329760611b60448201526064016200060b565b6001600160a01b03881660009081526002602090815260408083208a8452909152902088908890889062001bbb908262002dc0565b1562001c575760405162461bcd60e51b8152602060048201526044602482018190527f546865726520616c7265616479206578697374732061206275796f7574207072908201527f69636520696e207468697320746f6b656e2e2054727920746f206368616e676560648201527f2069742e00000000000000000000000000000000000000000000000000000000608482015260a4016200060b565b62000eda8b8b8b62003285565b6001600160a01b038316600090815260026020908152604080832084845290915290206005015483908290341462001cdf5760405162461bcd60e51b815260206004820152601a60248201527f596f75206469646e27742073656e6420656e6f756768204c595800000000000060448201526064016200060b565b6001600160a01b03851660009081526020819052604090208590849062001d07908262002da5565b62001d4c5760405162461bcd60e51b81526020600482015260146024820152732629a81c1034b9903737ba1037b71039b0b6329760611b60448201526064016200060b565b6001600160a01b03871660009081526001602052604090208790869062001d74908262002da5565b62001dc25760405162461bcd60e51b815260206004820152601b60248201527f53656c6c657220646f6573206e6f74206163636570742066696174000000000060448201526064016200060b565b6005546001600160a01b0316331462001e0e5760405162461bcd60e51b815260206004820152600d60248201526c1050d0d154d4c8111153925151609a1b60448201526064016200060b565b604051630217b22760e41b815260048101889052899088906000906001600160a01b0384169063217b227090602401602060405180830381865afa15801562001e5b573d6000803e3d6000fd5b505050506040513d601f19601f8201168201806040525081019062001e8191906200431d565b9050600062001e91848c6200267d565b905060008c90506000838284888860035460405160200162001efc96959493929190606096871b6bffffffffffffffffffffffff19908116825295871b8616601482015260288101949094529190941b9092166048820152605c810192909252607c820152609c0190565b6040516020818303038152906040528051906020012090506000868686858760405162001f299062003dee565b6001600160a01b039586168152602081019490945291841660408401529092166060820152608081019190915260a001604051809103906000f08015801562001f76573d6000803e3d6000fd5b50905062001f85878f62002f95565b62001f978786838960006001620030f8565b604080516060810182526001600160a01b0380881682528581166020808401918252858316848601908152600088815260089092529481209351845490841673ffffffffffffffffffffffffffffffffffffffff19918216178555915160018501805491851691841691909117905593516002909301805493909216921691909117905560038054916200202b836200443c565b9091555050604080516001600160a01b0383811682528981166020830152918101889052606081018690528185169187169084907f13f45c05473c7e5958b059813084be663aea88e382de879ac5c87a718767b3529060800160405180910390a450505050505050505050505050505050565b6001600160a01b0382166000908152600260209081526040808320848452909152902060050154829082903414620021195760405162461bcd60e51b815260206004820152601a60248201527f596f75206469646e27742073656e6420656e6f756768204c595800000000000060448201526064016200060b565b6001600160a01b03841660009081526020819052604090208490849062002141908262002da5565b620021865760405162461bcd60e51b81526020600482015260146024820152732629a81c1034b9903737ba1037b71039b0b6329760611b60448201526064016200060b565b604051630217b22760e41b8152600481018690526000906001600160a01b0388169063217b227090602401602060405180830381865afa158015620021cf573d6000803e3d6000fd5b505050506040513d601f19601f82011682018060405250810190620021f591906200431d565b905060006200220588886200267d565b6003546040516bffffffffffffffffffffffff19606086811b8216602084015233811b82166034840152604883018590528c901b166068820152607c81018a9052609c81019190915290915060009060bc0160405160208183030381529060405280519060200120905060008989853386604051620022849062003dee565b6001600160a01b039586168152602081019490945291841660408401529092166060820152608081019190915260a001604051809103906000f080158015620022d1573d6000803e3d6000fd5b509050620022e08a8a62002f95565b620022ec8a8a62002ffc565b620022fe8a85838c60006001620030f8565b6200230a818462003114565b604080516060810182526001600160a01b038087168252336020808401918252858316848601908152600088815260089092529481209351845490841673ffffffffffffffffffffffffffffffffffffffff19918216178555915160018501805491851691841691909117905593516002909301805493909216921691909117905560038054916200239c836200443c565b9091555050604080516001600160a01b0383811682528c811660208301529181018b905260608101859052339186169084907f13f45c05473c7e5958b059813084be663aea88e382de879ac5c87a718767b35290608001620015d3565b6005546001600160a01b03163314620024455760405162461bcd60e51b815260206004820152600d60248201526c1050d0d154d4c8111153925151609a1b60448201526064016200060b565b600083815260086020908152604091829020825160608101845281546001600160a01b03908116825260018301548116938201939093526002909101548216928101929092526004546200249c9116848462002de3565b80604001516001600160a01b031663b8962d026040518163ffffffff1660e01b8152600401600060405180830381600087803b158015620024dc57600080fd5b505af1158015620024f1573d6000803e3d6000fd5b505050507f383ab61835ef171bf38d73022941ddcab99ceb1f013160359750ac5f8f8e4f14846040516200252791815260200190565b60405180910390a16040518481527fa8aca61d4cf0c4563a5827579f48ccb52d9c08a1da9abbb95eb85ef7518f5efb906020015b60405180910390a150505050565b600083815260086020908152604091829020825160608101845281546001600160a01b03908116825260018301548116938201849052600290920154909116928101929092523314620025d95760405162461bcd60e51b815260206004820152600060248201526044016200060b565b600454620025f2906001600160a01b0316848462002de3565b80604001516001600160a01b03166386d1a69f6040518163ffffffff1660e01b8152600401600060405180830381600087803b1580156200263257600080fd5b505af115801562002647573d6000803e3d6000fd5b505050507f383ab61835ef171bf38d73022941ddcab99ceb1f013160359750ac5f8f8e4f14846040516200255b91815260200190565b6001600160a01b03821660009081526002602090815260408083208484529091529020600501545b92915050565b620026b860063362002dc0565b620026e05760405162461bcd60e51b815260206004820152600060248201526044016200060b565b6000818152600860209081526040808320815160608101835281546001600160a01b039081168252600183015481169482019490945260029091015490921682820181905281517fdc3c7cfd00000000000000000000000000000000000000000000000000000000815291519293909263dc3c7cfd92600480820193929182900301818387803b1580156200277457600080fd5b505af115801562002789573d6000803e3d6000fd5b505050507fef627d0e66434f22f9f3c4ac2a0ef3ab44f42e720a9b663a1e38d990b943faee82604051620027bf91815260200190565b60405180910390a16040518281527f79678b3d85ae9bad5acc158cf7b7d56e8b4edee4a39eaa58ec9d5a95145c31af90602001620007c3565b6005546001600160a01b03163314620028445760405162461bcd60e51b815260206004820152600d60248201526c1050d0d154d4c8111153925151609a1b60448201526064016200060b565b62002851600682620032e6565b5050565b6005546001600160a01b03163314620028a15760405162461bcd60e51b815260206004820152600d60248201526c1050d0d154d4c8111153925151609a1b60448201526064016200060b565b6000818152600860209081526040808320815160608101835281546001600160a01b039081168252600183015481169482019490945260029091015490921682820181905281517fb8962d0200000000000000000000000000000000000000000000000000000000815291519293909263b8962d0292600480820193929182900301818387803b1580156200293557600080fd5b505af11580156200294a573d6000803e3d6000fd5b505050507f383ab61835ef171bf38d73022941ddcab99ceb1f013160359750ac5f8f8e4f14826040516200298091815260200190565b60405180910390a16040518281527fa8aca61d4cf0c4563a5827579f48ccb52d9c08a1da9abbb95eb85ef7518f5efb90602001620007c3565b620029c660063362002dc0565b620029ee5760405162461bcd60e51b815260206004820152600060248201526044016200060b565b6000818152600860209081526040808320815160608101835281546001600160a01b03908116825260018301548116948201949094526002909101549092168282018190528151631df7c51d60e11b8152915192939092633bef8a3a92600480820193929182900301818387803b15801562002a6957600080fd5b505af115801562002a7e573d6000803e3d6000fd5b505050507f982bf5a7c13f6a3221eb651dceff4ed35dc4170500238cb81df4819563ea09058260405162002ab491815260200190565b60405180910390a16040518281527feb2c8525f99d3bfc1e2285827071185c43ceec646ea36a1549e893e30a44113290602001620007c3565b604051630217b22760e41b8152600481018590528590859033906001600160a01b0384169063217b227090602401602060405180830381865afa15801562002b39573d6000803e3d6000fd5b505050506040513d601f19601f8201168201806040525081019062002b5f91906200431d565b6001600160a01b03161462002bb75760405162461bcd60e51b815260206004820152601d60248201527f53656e64657220646f65736e2774206f776e2074686973204c5350382e00000060448201526064016200060b565b6001600160a01b03871660009081526020819052604090208790879062002bdf908262002da5565b1562002c2e5760405162461bcd60e51b815260206004820152601060248201527f4c535038206973206f6e2073616c652e0000000000000000000000000000000060448201526064016200060b565b62002c3b89898762002efa565b6001600160a01b03891660009081526002602090815260408083208b8452909152902060050187905586888a6001600160a01b03167f549017a7bd766b7b1fe1351de08bf426efe9d224831ad82206ab54edb873fcb089896000604051620011e193929190620043da565b6001600160a01b0382166000908152600260209081526040808320848452909152812060609182919082905b62002cdd83620032fd565b81101562002d355762002d0062002cf5848362003308565b6002850190620031fd565b82828151811062002d155762002d1562004472565b60209081029190910101528062002d2c816200443c565b91505062002cd2565b5062002d418262003316565b969095509350505050565b6005546001600160a01b0316331462002d985760405162461bcd60e51b815260206004820152600d60248201526c1050d0d154d4c8111153925151609a1b60448201526064016200060b565b6200285160068262003325565b600081815260018301602052604081205415155b9392505050565b6001600160a01b0381166000908152600183016020526040812054151562002db9565b6000836001600160a01b0316638da5cb5b6040518163ffffffff1660e01b8152600401602060405180830381865afa15801562002e24573d6000803e3d6000fd5b505050506040513d601f19601f8201168201806040525081019062002e4a91906200431d565b905060007b19457468657265756d205369676e6564204d6573736167653a0a323260201b8460405160200162002e8292919062004488565b60408051601f1981840301815291905280516020909101209050630b135d3f60e11b62002eb18383866200333c565b6001600160e01b0319161462002ef3576040517f5f0d7f8600000000000000000000000000000000000000000000000000000000815260040160405180910390fd5b5050505050565b6001600160a01b038316600090815260208190526040902062002f1e9083620034d9565b5080151560010362002f50576001600160a01b038316600090815260016020526040902062002f4e9083620034d9565b505b505050565b6001600160a01b0384166000908152600260209081526040808320868452909152902062002f848184620032e6565b5062001736600282018484620034e7565b6001600160a01b03821660009081526002602090815260408083208484529091528120908181818162002fc9828262003dfc565b505050600283019050600081818181818162002fe6828262003dfc565b5050505050505050600582016000905550505050565b6001600160a01b0382166000908152602081905260409020620030209082620034ff565b506040517ff1b97e040000000000000000000000000000000000000000000000000000000081523060048201526024810182905260606044820152600060648201526001600160a01b0383169063f1b97e0490608401600060405180830381600087803b1580156200309157600080fd5b505af1158015620030a6573d6000803e3d6000fd5b5050506001600160a01b0383166000908152600160205260409020620030ce91508262002da5565b1562002851576001600160a01b038216600090815260016020526040902062002f509082620034ff565b6200173686868686866200310e8b8b896200350d565b620035cd565b604080516000808252602082019092526001600160a01b038416908390604051620031409190620043a6565b60006040518083038185875af1925050503d80600081146200317f576040519150601f19603f3d011682016040523d82523d6000602084013e62003184565b606091505b505090508062002f505760405162461bcd60e51b815260206004820152603460248201527f5472616e7366657248656c7065723a3a736166655472616e736665724c59583a60448201527f204c5958207472616e73666572206661696c656400000000000000000000000060648201526084016200060b565b600062002db9836001600160a01b03841662003746565b6001600160a01b0383166000908152600260208181526040808420868552909152822062003244910183620031fd565b949350505050565b6200326985308460405180602001604052806000815250620037ab565b62002ef385858585856200327f8a8a8a6200350d565b62003916565b6001600160a01b03831660009081526002602090815260408083208584529091529020620032b4908262003325565b506001600160a01b038316600090815260026020818152604080842086855290915290912062002f4e91018262003a85565b600062002db9836001600160a01b03841662003a9c565b6000620026a5825490565b600062002db9838362003aee565b6060600062002db98362003b1b565b600062002db9836001600160a01b03841662003b79565b60006001600160a01b0384163b156200346657600080856001600160a01b0316631626ba7e60e01b868660405160240162003379929190620044b7565b60408051601f198184030181529181526020820180516001600160e01b03166001600160e01b0319909416939093179092529051620033b99190620043a6565b600060405180830381855afa9150503d8060008114620033f6576040519150601f19603f3d011682016040523d82523d6000602084013e620033fb565b606091505b5091509150600082801562003411575081516020145b80156200343b57508151630b135d3f60e11b9062003439908401602090810190850162004458565b145b90508062003452576001600160e01b03196200345b565b630b135d3f60e11b5b935050505062002db9565b600080600062003477868662003c7d565b919450925090506000826003811115620034955762003495620043c4565b14620034b057506001600160e01b0319925062002db9915050565b866001600160a01b0316836001600160a01b03161462003452576001600160e01b03196200345b565b600062002db9838362003a9c565b600062003244846001600160a01b0385168462003cce565b600062002db9838362003b79565b604051606084811b6bffffffffffffffffffffffff19908116602084015284821b16603483015260488201839052907f5d4750030310507a00ed34b9c56808c5423b741a733df02978ef34f07a4b87d79060680160408051601f1981840301815290829052620035819291602401620044b7565b60408051601f198184030181529190526020810180516001600160e01b03167f6fb803360000000000000000000000000000000000000000000000000000000017905290509392505050565b600080876001600160a01b03166040518060600160405280602c815260200162005752602c913980519060200120888888888860405160240162003616959493929190620044d2565b60408051601f198184030181529181526020820180516001600160e01b03166001600160e01b0319909416939093179092529051620036569190620043a6565b6000604051808303816000865af19150503d806000811462003695576040519150601f19603f3d011682016040523d82523d6000602084013e6200369a565b606091505b5091509150818015620036c8575080511580620036c8575080806020019051810190620036c8919062004519565b6200373c5760405162461bcd60e51b815260206004820152603660248201527f5472616e7366657248656c7065723a3a736166655472616e736665724c53503860448201527f3a204c535038207472616e73666572206661696c65640000000000000000000060648201526084016200060b565b5050505050505050565b6000818152600283016020526040812054801580156200376f57506200376d848462003ced565b155b1562002db9576040517f02b56686000000000000000000000000000000000000000000000000000000008152600481018490526024016200060b565b600080856001600160a01b0316604051806060016040528060288152602001620057aa6028913980519060200120868686604051602401620037f09392919062004539565b60408051601f198184030181529181526020820180516001600160e01b03166001600160e01b0319909416939093179092529051620038309190620043a6565b6000604051808303816000865af19150503d80600081146200386f576040519150601f19603f3d011682016040523d82523d6000602084013e62003874565b606091505b5091509150818015620038a2575080511580620038a2575080806020019051810190620038a2919062004519565b620017365760405162461bcd60e51b815260206004820152602b60248201527f5472616e7366657248656c7065723a3a73616665417070726f76653a2061707060448201527f726f7665206661696c656400000000000000000000000000000000000000000060648201526084016200060b565b600080876001600160a01b03166040518060600160405280602c81526020016200577e602c91398051906020012088888888886040516024016200395f959493929190620044d2565b60408051601f198184030181529181526020820180516001600160e01b03166001600160e01b03199094169390931790925290516200399f9190620043a6565b6000604051808303816000865af19150503d8060008114620039de576040519150601f19603f3d011682016040523d82523d6000602084013e620039e3565b606091505b509150915081801562003a1157508051158062003a1157508080602001905181019062003a11919062004519565b6200373c5760405162461bcd60e51b815260206004820152603660248201527f5472616e7366657248656c7065723a3a736166655472616e736665724c53503760448201527f3a204c535037207472616e73666572206661696c65640000000000000000000060648201526084016200060b565b600062002db9836001600160a01b03841662003cfb565b600081815260018301602052604081205462003ae557508154600181810184556000848152602080822090930184905584548482528286019093526040902091909155620026a5565b506000620026a5565b600082600001828154811062003b085762003b0862004472565b9060005260206000200154905092915050565b60608160000180548060200260200160405190810160405280929190818152602001828054801562003b6d57602002820191906000526020600020905b81548152602001906001019080831162003b58575b50505050509050919050565b6000818152600183016020526040812054801562003c7257600062003ba06001836200456c565b855490915060009062003bb6906001906200456c565b905080821462003c2257600086600001828154811062003bda5762003bda62004472565b906000526020600020015490508087600001848154811062003c005762003c0062004472565b6000918252602080832090910192909255918252600188019052604090208390555b855486908062003c365762003c3662004582565b600190038181906000526020600020016000905590558560010160008681526020019081526020016000206000905560019350505050620026a5565b6000915050620026a5565b6000806000835160410362003cbb5760208401516040850151606086015160001a62003cac8882858562003d1a565b95509550955050505062003cc7565b50508151600091506002905b9250925092565b60008281526002840160205260408120829055620032448484620034d9565b600062002db9838362002da5565b6000818152600283016020526040812081905562002db98383620034ff565b600080807f7fffffffffffffffffffffffffffffff5d576e7357a4501ddfe92f46681b20a084111562003d57575060009150600390508262003de4565b604080516000808252602082018084528a905260ff891692820192909252606081018790526080810186905260019060a0016020604051602081039080840390855afa15801562003dac573d6000803e3d6000fd5b5050604051601f1901519150506001600160a01b03811662003dda5750600092506001915082905062003de4565b9250600091508190505b9450945094915050565b6111b9806200459983390190565b508054600082559060005260206000209081019062003e1c919062003e1f565b50565b5b8082111562003e36576000815560010162003e20565b5090565b6001600160a01b038116811462003e1c57600080fd5b60008060006060848603121562003e6657600080fd5b833562003e738162003e3a565b95602085013595506040909401359392505050565b60006020828403121562003e9b57600080fd5b5035919050565b634e487b7160e01b600052604160045260246000fd5b600082601f83011262003eca57600080fd5b813567ffffffffffffffff8082111562003ee85762003ee862003ea2565b604051601f8301601f19908116603f0116810190828211818310171562003f135762003f1362003ea2565b8160405283815286602085880101111562003f2d57600080fd5b836020870160208301376000602085830101528094505050505092915050565b6000806040838503121562003f6157600080fd5b82359150602083013567ffffffffffffffff81111562003f8057600080fd5b62003f8e8582860162003eb8565b9150509250929050565b801515811462003e1c57600080fd5b600080600080600080600060e0888a03121562003fc357600080fd5b873562003fd08162003e3a565b96506020880135955060408801359450606088013567ffffffffffffffff8082111562003ffc57600080fd5b6200400a8b838c0162003eb8565b955060808a01359150808211156200402157600080fd5b6200402f8b838c0162003eb8565b945060a08a01359150808211156200404657600080fd5b50620040558a828b0162003eb8565b92505060c0880135620040688162003f98565b8091505092959891949750929550565b600080600080608085870312156200408f57600080fd5b84356200409c8162003e3a565b9350602085013592506040850135620040b58162003e3a565b9396929550929360600135925050565b60008060408385031215620040d957600080fd5b8235620040e68162003e3a565b946020939093013593505050565b6000806000606084860312156200410a57600080fd5b8335620041178162003e3a565b9250602084013591506040840135620041308162003e3a565b809150509250925092565b6000806000606084860312156200415157600080fd5b83356200415e8162003e3a565b92506020840135620041708162003e3a565b929592945050506040919091013590565b6000806000606084860312156200419757600080fd5b83359250602084013567ffffffffffffffff80821115620041b757600080fd5b620041c58783880162003eb8565b93506040860135915080821115620041dc57600080fd5b50620041eb8682870162003eb8565b9150509250925092565b6000602082840312156200420857600080fd5b813562002db98162003e3a565b600080600080600060a086880312156200422e57600080fd5b85356200423b8162003e3a565b94506020860135935060408601359250606086013567ffffffffffffffff8111156200426657600080fd5b620042748882890162003eb8565b9250506080860135620042878162003f98565b809150509295509295909350565b604080825283519082018190526000906020906060840190828701845b82811015620042d95781516001600160a01b031684529284019290840190600101620042b2565b5050508381038285015284518082528583019183019060005b818110156200431057835183529284019291840191600101620042f2565b5090979650505050505050565b6000602082840312156200433057600080fd5b815162002db98162003e3a565b60005b838110156200435a57818101518382015260200162004340565b50506000910152565b600081518084526200437d8160208601602086016200433d565b601f01601f19169290920160200192915050565b60208152600062002db9602083018462004363565b60008251620043ba8184602087016200433d565b9190910192915050565b634e487b7160e01b600052602160045260246000fd5b606081526000620043ef606083018662004363565b90508315156020830152600283106200441857634e487b7160e01b600052602160045260246000fd5b826040830152949350505050565b634e487b7160e01b600052601160045260246000fd5b60006001820162004451576200445162004426565b5060010190565b6000602082840312156200446b57600080fd5b5051919050565b634e487b7160e01b600052603260045260246000fd5b63ffffffff198316815260008251620044a981601c8501602087016200433d565b91909101601c019392505050565b82815260406020820152600062003244604083018462004363565b60006001600160a01b038088168352808716602084015250846040830152831515606083015260a060808301526200450e60a083018462004363565b979650505050505050565b6000602082840312156200452c57600080fd5b815162002db98162003f98565b6001600160a01b038416815282602082015260606040820152600062004563606083018462004363565b95945050505050565b81810381811115620026a557620026a562004426565b634e487b7160e01b600052603160045260246000fdfe608060405234801561001057600080fd5b506040516111b93803806111b983398101604081905261002f916100b9565b60016000819055600280546001600160a01b03199081166001600160a01b0398891617909155600395909555600480548616948716949094179093556005805485169290951691909117909355426007556009805460ff191690556006929092558154339116179055610110565b80516001600160a01b03811681146100b457600080fd5b919050565b600080600080600060a086880312156100d157600080fd5b6100da8661009d565b9450602086015193506100ef6040870161009d565b92506100fd6060870161009d565b9150608086015190509295509295909350565b61109a8061011f6000396000f3fe6080604052600436106100ca5760003560e01c8063772ebf2811610079578063b8962d0211610056578063b8962d02146101b8578063dc3c7cfd146100fe578063ea8a1af0146101c0578063f240f7c3146101d557005b8063772ebf281461018657806383dc3b0f1461019b57806386d1a69f146101b057005b80633bef8a3a116100a75780633bef8a3a146101315780636234216d14610146578063768896e51461016657005b80630ae57b1d146100d357806311da60b4146100fe57806312065fe01461011357005b366100d157005b005b3480156100df57600080fd5b506100e86101ea565b6040516100f59190610cea565b60405180910390f35b34801561010a57600080fd5b506100d1610219565b34801561011f57600080fd5b506006546040519081526020016100f5565b34801561013d57600080fd5b506100d16102f2565b34801561015257600080fd5b5060095460ff166040516100f59190610d3a565b34801561017257600080fd5b506100d1610181366004610d78565b6103b9565b34801561019257600080fd5b506100d1610491565b3480156101a757600080fd5b506100d161052b565b6100d161063f565b6100d1610780565b3480156101cc57600080fd5b506100d1610880565b3480156101e157600080fd5b506100d1610999565b6101f2610ccc565b50604080518082019091526005546001600160a01b03908116825260045416602082015290565b6001546001600160a01b031633146102715760405162461bcd60e51b815260206004820152601660248201527553656e646572204e6f74204d61726b6574706c61636560501b60448201526064015b60405180910390fd5b610279610a08565b600280546005546003546040805180820190915293845261060f60f31b60208501526102b8936001600160a01b03938416933093169190600190610a4b565b6004546006546102d1916001600160a01b031690610be4565b600980546002919060ff19166001835b02179055506102f06001600055565b565b6001546001600160a01b031633146103455760405162461bcd60e51b815260206004820152601660248201527553656e646572204e6f74204d61726b6574706c61636560501b6044820152606401610268565b61034d610a08565b600280546004546003546040805180820190915293845261060f60f31b602085015261038c936001600160a01b03938416933093169190600190610a4b565b6005546006546103a5916001600160a01b031690610be4565b600980546005919060ff19166001836102e1565b6001546001600160a01b0316331461040c5760405162461bcd60e51b815260206004820152601660248201527553656e646572204e6f74204d61726b6574706c61636560501b6044820152606401610268565b610414610a08565b6004546001600160a01b0316321461046e5760405162461bcd60e51b815260206004820152601d60248201527f4f6e6c79207468652053656c6c657220686173207468652072696768740000006044820152606401610268565b600a61047a8282610eb1565b506009805460ff1916600190811790915560005550565b6001546001600160a01b031633146104e45760405162461bcd60e51b815260206004820152601660248201527553656e646572204e6f74204d61726b6574706c61636560501b6044820152606401610268565b6104ec610a08565b600280546004546003546040805180820190915293845261060f60f31b60208501526103a5936001600160a01b03938416933093169190600190610a4b565b6001546001600160a01b0316331461057e5760405162461bcd60e51b815260206004820152601660248201527553656e646572204e6f74204d61726b6574706c61636560501b6044820152606401610268565b610586610a08565b600060095460ff16600581111561059f5761059f610d24565b146105ec5760405162461bcd60e51b815260206004820152601860248201527f4974656d20416c7265616479204d61726b65642053656e7400000000000000006044820152606401610268565b600280546004546003546040805180820190915293845261060f60f31b602085015261062b936001600160a01b03938416933093169190600190610a4b565b600980546003919060ff19166001836102e1565b600060095460ff16600581111561065857610658610d24565b146106a55760405162461bcd60e51b815260206004820152601c60248201527f457363726f77206974656d20686173206265656e20636c6f7365642e000000006044820152606401610268565b6001546001600160a01b031633146106f85760405162461bcd60e51b815260206004820152601660248201527553656e646572204e6f74204d61726b6574706c61636560501b6044820152606401610268565b610700610a08565b6005546001600160a01b031632146102795760405162461bcd60e51b815260206004820152602e60248201527f4f6e6c7920746865206275796572206861732074686520726967687420746f2060448201527f66696e616c697a652074726164650000000000000000000000000000000000006064820152608401610268565b600060095460ff16600581111561079957610799610d24565b146107e65760405162461bcd60e51b815260206004820152601c60248201527f457363726f77206974656d20686173206265656e20636c6f7365642e000000006044820152606401610268565b6001546001600160a01b031633146108395760405162461bcd60e51b815260206004820152601660248201527553656e646572204e6f74204d61726b6574706c61636560501b6044820152606401610268565b610841610a08565b600280546005546003546040805180820190915293845261060f60f31b60208501526102d1936001600160a01b03938416933093169190600190610a4b565b6001546001600160a01b031633146108d35760405162461bcd60e51b815260206004820152601660248201527553656e646572204e6f74204d61726b6574706c61636560501b6044820152606401610268565b6108db610a08565b600060095460ff1660058111156108f4576108f4610d24565b146109415760405162461bcd60e51b815260206004820152601860248201527f4974656d20416c7265616479204d61726b65642053656e7400000000000000006044820152606401610268565b600280546004546003546040805180820190915293845261060f60f31b6020850152610980936001600160a01b03938416933093169190600190610a4b565b60055460065461062b916001600160a01b031690610be4565b6001546001600160a01b031633146109ec5760405162461bcd60e51b815260206004820152601660248201527553656e646572204e6f74204d61726b6574706c61636560501b6044820152606401610268565b6109f4610a08565b600980546004919060ff19166001836102e1565b600260005403610a44576040517f3ee5aeb500000000000000000000000000000000000000000000000000000000815260040160405180910390fd5b6002600055565b600080876001600160a01b03166040518060600160405280602c8152602001611039602c9139805190602001208888888888604051602401610a91959493929190610f95565b60408051601f198184030181529181526020820180517bffffffffffffffffffffffffffffffffffffffffffffffffffffffff167fffffffff00000000000000000000000000000000000000000000000000000000909416939093179092529051610afc9190610ff3565b6000604051808303816000865af19150503d8060008114610b39576040519150601f19603f3d011682016040523d82523d6000602084013e610b3e565b606091505b5091509150818015610b68575080511580610b68575080806020019051810190610b68919061100f565b610bda5760405162461bcd60e51b815260206004820152603660248201527f5472616e7366657248656c7065723a3a736166655472616e736665724c53503860448201527f3a204c535038207472616e73666572206661696c6564000000000000000000006064820152608401610268565b5050505050505050565b604080516000808252602082019092526001600160a01b038416908390604051610c0e9190610ff3565b60006040518083038185875af1925050503d8060008114610c4b576040519150601f19603f3d011682016040523d82523d6000602084013e610c50565b606091505b5050905080610cc75760405162461bcd60e51b815260206004820152603460248201527f5472616e7366657248656c7065723a3a736166655472616e736665724c59583a60448201527f204c5958207472616e73666572206661696c65640000000000000000000000006064820152608401610268565b505050565b60405180604001604052806002906020820280368337509192915050565b60408101818360005b6002811015610d1b5781516001600160a01b0316835260209283019290910190600101610cf3565b50505092915050565b634e487b7160e01b600052602160045260246000fd5b6020810160068310610d5c57634e487b7160e01b600052602160045260246000fd5b91905290565b634e487b7160e01b600052604160045260246000fd5b600060208284031215610d8a57600080fd5b813567ffffffffffffffff80821115610da257600080fd5b818401915084601f830112610db657600080fd5b813581811115610dc857610dc8610d62565b604051601f8201601f19908116603f01168101908382118183101715610df057610df0610d62565b81604052828152876020848701011115610e0957600080fd5b826020860160208301376000928101602001929092525095945050505050565b600181811c90821680610e3d57607f821691505b602082108103610e5d57634e487b7160e01b600052602260045260246000fd5b50919050565b601f821115610cc757600081815260208120601f850160051c81016020861015610e8a5750805b601f850160051c820191505b81811015610ea957828155600101610e96565b505050505050565b815167ffffffffffffffff811115610ecb57610ecb610d62565b610edf81610ed98454610e29565b84610e63565b602080601f831160018114610f145760008415610efc5750858301515b600019600386901b1c1916600185901b178555610ea9565b600085815260208120601f198616915b82811015610f4357888601518255948401946001909101908401610f24565b5085821015610f615787850151600019600388901b60f8161c191681555b5050505050600190811b01905550565b60005b83811015610f8c578181015183820152602001610f74565b50506000910152565b60006001600160a01b038088168352808716602084015250846040830152831515606083015260a0608083015282518060a0840152610fdb8160c0850160208701610f71565b601f01601f19169190910160c0019695505050505050565b60008251611005818460208701610f71565b9190910192915050565b60006020828403121561102157600080fd5b8151801515811461103157600080fd5b939250505056fe7472616e7366657228616464726573732c616464726573732c627974657333322c626f6f6c2c627974657329a2646970667358221220e2c4939b481cf46c4638a943dce138adbc58cd424c79e0e8e2c656445650a69d64736f6c634300081400337472616e7366657228616464726573732c616464726573732c627974657333322c626f6f6c2c6279746573297472616e7366657228616464726573732c616464726573732c75696e743235362c626f6f6c2c627974657329617574686f72697a654f70657261746f7228616464726573732c627974657333322c627974657329a2646970667358221220648253a0b58afe4c6b91f2c57240e4721c28d0ac113a876e2e80c8ba7924025d64736f6c63430008140033",
  "linkReferences": {},
  "deployedLinkReferences": {}
}