{
  "_format": "hh-sol-artifact-1",
  "contractName": "LSP8Marketplace",
  "sourceName": "contracts/LSP8Marketplace.sol",
  "abi": [
    {
      "inputs": [
        {
          "internalType": "address",
          "name": "_owner",
          "type": "address"
        },
        {
          "internalType": "address",
          "name": "_placeholder",
          "type": "address"
        }
      ],
      "stateMutability": "nonpayable",
      "type": "constructor"
    },
    {
      "inputs": [
        {
          "internalType": "bytes32",
          "name": "key",
          "type": "bytes32"
        }
      ],
      "name": "EnumerableMapNonexistentKey",
      "type": "error"
    },
    {
      "inputs": [],
      "name": "InvalidFamilySignature",
      "type": "error"
    },
    {
      "anonymous": false,
      "inputs": [
        {
          "indexed": true,
          "internalType": "bytes32",
          "name": "tradeId",
          "type": "bytes32"
        },
        {
          "indexed": true,
          "internalType": "string",
          "name": "trackingId",
          "type": "string"
        }
      ],
      "name": "Dispute",
      "type": "event"
    },
    {
      "anonymous": false,
      "inputs": [
        {
          "indexed": false,
          "internalType": "bytes32",
          "name": "tradId",
          "type": "bytes32"
        }
      ],
      "name": "Dissolved",
      "type": "event"
    },
    {
      "anonymous": false,
      "inputs": [
        {
          "indexed": false,
          "internalType": "bytes32",
          "name": "tradId",
          "type": "bytes32"
        }
      ],
      "name": "DissolvedFiat",
      "type": "event"
    },
    {
      "anonymous": false,
      "inputs": [
        {
          "indexed": false,
          "internalType": "address",
          "name": "collection",
          "type": "address"
        },
        {
          "indexed": false,
          "internalType": "bytes32",
          "name": "tokenId",
          "type": "bytes32"
        }
      ],
      "name": "ItemDelisted",
      "type": "event"
    },
    {
      "anonymous": false,
      "inputs": [
        {
          "indexed": true,
          "internalType": "address",
          "name": "collection",
          "type": "address"
        },
        {
          "indexed": true,
          "internalType": "bytes32",
          "name": "tokenId",
          "type": "bytes32"
        },
        {
          "indexed": true,
          "internalType": "uint256",
          "name": "price",
          "type": "uint256"
        },
        {
          "indexed": false,
          "internalType": "string",
          "name": "listingURl",
          "type": "string"
        },
        {
          "indexed": false,
          "internalType": "bool",
          "name": "ItemListed",
          "type": "bool"
        },
        {
          "indexed": false,
          "internalType": "enum LSP8Marketplace.collectionType",
          "name": "",
          "type": "uint8"
        }
      ],
      "name": "ItemListed",
      "type": "event"
    },
    {
      "anonymous": false,
      "inputs": [
        {
          "indexed": false,
          "internalType": "bytes32",
          "name": "tradId",
          "type": "bytes32"
        }
      ],
      "name": "Received",
      "type": "event"
    },
    {
      "anonymous": false,
      "inputs": [
        {
          "indexed": false,
          "internalType": "bytes32",
          "name": "tradId",
          "type": "bytes32"
        }
      ],
      "name": "ReceivedFiat",
      "type": "event"
    },
    {
      "anonymous": false,
      "inputs": [
        {
          "indexed": false,
          "internalType": "bytes32",
          "name": "tradId",
          "type": "bytes32"
        }
      ],
      "name": "Resolved",
      "type": "event"
    },
    {
      "anonymous": false,
      "inputs": [
        {
          "indexed": false,
          "internalType": "bytes32",
          "name": "tradId",
          "type": "bytes32"
        }
      ],
      "name": "ResolvedFiat",
      "type": "event"
    },
    {
      "anonymous": false,
      "inputs": [
        {
          "indexed": true,
          "internalType": "bytes32",
          "name": "tradeId",
          "type": "bytes32"
        },
        {
          "indexed": true,
          "internalType": "string",
          "name": "trackingId",
          "type": "string"
        }
      ],
      "name": "Sent",
      "type": "event"
    },
    {
      "anonymous": false,
      "inputs": [
        {
          "indexed": true,
          "internalType": "bytes32",
          "name": "tradeId",
          "type": "bytes32"
        },
        {
          "indexed": true,
          "internalType": "address",
          "name": "seller",
          "type": "address"
        },
        {
          "indexed": true,
          "internalType": "address",
          "name": "buyer",
          "type": "address"
        },
        {
          "indexed": false,
          "internalType": "address",
          "name": "escrow",
          "type": "address"
        },
        {
          "indexed": false,
          "internalType": "address",
          "name": "collection",
          "type": "address"
        },
        {
          "indexed": false,
          "internalType": "bytes32",
          "name": "tokenId",
          "type": "bytes32"
        },
        {
          "indexed": false,
          "internalType": "uint256",
          "name": "price",
          "type": "uint256"
        }
      ],
      "name": "TradeInitiated",
      "type": "event"
    },
    {
      "inputs": [
        {
          "internalType": "address",
          "name": "LSP8Address",
          "type": "address"
        },
        {
          "internalType": "bytes32",
          "name": "tokenId",
          "type": "bytes32"
        },
        {
          "internalType": "address",
          "name": "LSP7Address",
          "type": "address"
        },
        {
          "internalType": "address",
          "name": "offerCreator",
          "type": "address"
        }
      ],
      "name": "_returnLSP7OfferAmount",
      "outputs": [
        {
          "internalType": "uint256",
          "name": "",
          "type": "uint256"
        }
      ],
      "stateMutability": "view",
      "type": "function"
    },
    {
      "inputs": [
        {
          "internalType": "address",
          "name": "LSP8Address",
          "type": "address"
        },
        {
          "internalType": "bytes32",
          "name": "tokenId",
          "type": "bytes32"
        }
      ],
      "name": "_returnLSP7OfferCreators",
      "outputs": [
        {
          "internalType": "address[]",
          "name": "",
          "type": "address[]"
        }
      ],
      "stateMutability": "view",
      "type": "function"
    },
    {
      "inputs": [
        {
          "internalType": "address",
          "name": "LSP8Address",
          "type": "address"
        },
        {
          "internalType": "bytes32",
          "name": "tokenId",
          "type": "bytes32"
        },
        {
          "internalType": "address",
          "name": "offersCreator",
          "type": "address"
        }
      ],
      "name": "_returnLSP7OffersByCreators",
      "outputs": [
        {
          "internalType": "address[]",
          "name": "",
          "type": "address[]"
        },
        {
          "internalType": "uint256[]",
          "name": "",
          "type": "uint256[]"
        }
      ],
      "stateMutability": "view",
      "type": "function"
    },
    {
      "inputs": [
        {
          "internalType": "address",
          "name": "LSP8Address",
          "type": "address"
        },
        {
          "internalType": "bytes32",
          "name": "tokenId",
          "type": "bytes32"
        }
      ],
      "name": "_returnLSP7Prices",
      "outputs": [
        {
          "internalType": "address[]",
          "name": "",
          "type": "address[]"
        },
        {
          "internalType": "uint256[]",
          "name": "",
          "type": "uint256[]"
        }
      ],
      "stateMutability": "view",
      "type": "function"
    },
    {
      "inputs": [
        {
          "internalType": "address",
          "name": "LSP8Address",
          "type": "address"
        },
        {
          "internalType": "bytes32",
          "name": "tokenId",
          "type": "bytes32"
        }
      ],
      "name": "_returnLSP8OfferAddresses",
      "outputs": [
        {
          "internalType": "address[]",
          "name": "",
          "type": "address[]"
        }
      ],
      "stateMutability": "view",
      "type": "function"
    },
    {
      "inputs": [
        {
          "internalType": "address",
          "name": "LSP8Address",
          "type": "address"
        },
        {
          "internalType": "bytes32",
          "name": "tokenId",
          "type": "bytes32"
        },
        {
          "internalType": "address",
          "name": "offerLSP8Address",
          "type": "address"
        }
      ],
      "name": "_returnLSP8OfferTokenIdsByAddress",
      "outputs": [
        {
          "internalType": "bytes32[]",
          "name": "",
          "type": "bytes32[]"
        }
      ],
      "stateMutability": "view",
      "type": "function"
    },
    {
      "inputs": [
        {
          "internalType": "address",
          "name": "LSP8Address",
          "type": "address"
        },
        {
          "internalType": "bytes32",
          "name": "tokenId",
          "type": "bytes32"
        }
      ],
      "name": "_returnLYXOffers",
      "outputs": [
        {
          "internalType": "address[]",
          "name": "",
          "type": "address[]"
        },
        {
          "internalType": "uint256[]",
          "name": "",
          "type": "uint256[]"
        }
      ],
      "stateMutability": "view",
      "type": "function"
    },
    {
      "inputs": [
        {
          "internalType": "address",
          "name": "LSP8Address",
          "type": "address"
        },
        {
          "internalType": "bytes32",
          "name": "tokenId",
          "type": "bytes32"
        }
      ],
      "name": "_returnLYXPrice",
      "outputs": [
        {
          "internalType": "uint256",
          "name": "",
          "type": "uint256"
        }
      ],
      "stateMutability": "view",
      "type": "function"
    },
    {
      "inputs": [
        {
          "internalType": "address",
          "name": "LSP8Address",
          "type": "address"
        },
        {
          "internalType": "bytes32",
          "name": "tokenId",
          "type": "bytes32"
        }
      ],
      "name": "_returnOfferAlowance",
      "outputs": [
        {
          "internalType": "bool[3]",
          "name": "",
          "type": "bool[3]"
        }
      ],
      "stateMutability": "view",
      "type": "function"
    },
    {
      "inputs": [
        {
          "internalType": "address",
          "name": "LSP8Address",
          "type": "address"
        },
        {
          "internalType": "bytes32",
          "name": "tokenId",
          "type": "bytes32"
        },
        {
          "internalType": "address",
          "name": "LSP7Address",
          "type": "address"
        },
        {
          "internalType": "address",
          "name": "offerCreator",
          "type": "address"
        }
      ],
      "name": "acceptLSP7Offer",
      "outputs": [],
      "stateMutability": "nonpayable",
      "type": "function"
    },
    {
      "inputs": [
        {
          "internalType": "address",
          "name": "LSP8Address",
          "type": "address"
        },
        {
          "internalType": "bytes32",
          "name": "tokenId",
          "type": "bytes32"
        },
        {
          "internalType": "address",
          "name": "offerLSP8Address",
          "type": "address"
        },
        {
          "internalType": "bytes32",
          "name": "offerTokenId",
          "type": "bytes32"
        }
      ],
      "name": "acceptLSP8OfferForLSP8",
      "outputs": [],
      "stateMutability": "nonpayable",
      "type": "function"
    },
    {
      "inputs": [
        {
          "internalType": "address",
          "name": "_juror",
          "type": "address"
        }
      ],
      "name": "addJuror",
      "outputs": [],
      "stateMutability": "nonpayable",
      "type": "function"
    },
    {
      "inputs": [
        {
          "internalType": "address",
          "name": "LSP8Address",
          "type": "address"
        },
        {
          "internalType": "bytes32",
          "name": "tokenId",
          "type": "bytes32"
        },
        {
          "internalType": "address",
          "name": "LSP7Address",
          "type": "address"
        },
        {
          "internalType": "uint256",
          "name": "LSP7Amount",
          "type": "uint256"
        }
      ],
      "name": "addLSP7Price",
      "outputs": [],
      "stateMutability": "nonpayable",
      "type": "function"
    },
    {
      "inputs": [
        {
          "internalType": "address",
          "name": "LSP8Address",
          "type": "address"
        },
        {
          "internalType": "bytes32",
          "name": "tokenId",
          "type": "bytes32"
        },
        {
          "internalType": "address",
          "name": "buyer",
          "type": "address"
        }
      ],
      "name": "buyDigitalLSP8WithFiat",
      "outputs": [],
      "stateMutability": "payable",
      "type": "function"
    },
    {
      "inputs": [
        {
          "internalType": "address",
          "name": "LSP8Address",
          "type": "address"
        },
        {
          "internalType": "bytes32",
          "name": "tokenId",
          "type": "bytes32"
        }
      ],
      "name": "buyDigitalLSP8WithLYX",
      "outputs": [],
      "stateMutability": "payable",
      "type": "function"
    },
    {
      "inputs": [
        {
          "internalType": "address",
          "name": "LSP8Address",
          "type": "address"
        },
        {
          "internalType": "address",
          "name": "buyer",
          "type": "address"
        },
        {
          "internalType": "bytes32",
          "name": "tokenId",
          "type": "bytes32"
        }
      ],
      "name": "buyLSP8WithFiat",
      "outputs": [],
      "stateMutability": "payable",
      "type": "function"
    },
    {
      "inputs": [
        {
          "internalType": "address",
          "name": "LSP8Address",
          "type": "address"
        },
        {
          "internalType": "bytes32",
          "name": "tokenId",
          "type": "bytes32"
        },
        {
          "internalType": "address",
          "name": "LSP7Address",
          "type": "address"
        }
      ],
      "name": "buyLSP8WithLSP7",
      "outputs": [],
      "stateMutability": "nonpayable",
      "type": "function"
    },
    {
      "inputs": [
        {
          "internalType": "address",
          "name": "LSP8Address",
          "type": "address"
        },
        {
          "internalType": "bytes32",
          "name": "tokenId",
          "type": "bytes32"
        }
      ],
      "name": "buyLSP8WithLYX",
      "outputs": [],
      "stateMutability": "payable",
      "type": "function"
    },
    {
      "inputs": [
        {
          "internalType": "address",
          "name": "LSP8Address",
          "type": "address"
        },
        {
          "internalType": "bytes32",
          "name": "tokenId",
          "type": "bytes32"
        },
        {
          "internalType": "address",
          "name": "LSP7Address",
          "type": "address"
        },
        {
          "internalType": "uint256",
          "name": "LSP7Amount",
          "type": "uint256"
        }
      ],
      "name": "changeLSP7Price",
      "outputs": [],
      "stateMutability": "nonpayable",
      "type": "function"
    },
    {
      "inputs": [
        {
          "internalType": "address",
          "name": "LSP8Address",
          "type": "address"
        },
        {
          "internalType": "bytes32",
          "name": "tokenId",
          "type": "bytes32"
        },
        {
          "internalType": "uint256",
          "name": "LYXAmount",
          "type": "uint256"
        }
      ],
      "name": "changeLYXPrice",
      "outputs": [],
      "stateMutability": "nonpayable",
      "type": "function"
    },
    {
      "inputs": [
        {
          "internalType": "bytes32",
          "name": "tradeId",
          "type": "bytes32"
        }
      ],
      "name": "confirmDigitalReceived",
      "outputs": [],
      "stateMutability": "nonpayable",
      "type": "function"
    },
    {
      "inputs": [
        {
          "internalType": "bytes32",
          "name": "tradeId",
          "type": "bytes32"
        }
      ],
      "name": "confirmDigitalReceivedFiat",
      "outputs": [],
      "stateMutability": "nonpayable",
      "type": "function"
    },
    {
      "inputs": [
        {
          "internalType": "bytes32",
          "name": "tradeId",
          "type": "bytes32"
        },
        {
          "internalType": "string",
          "name": "uid",
          "type": "string"
        },
        {
          "internalType": "bytes",
          "name": "signature",
          "type": "bytes"
        }
      ],
      "name": "confirmReceived",
      "outputs": [],
      "stateMutability": "nonpayable",
      "type": "function"
    },
    {
      "inputs": [
        {
          "internalType": "bytes32",
          "name": "tradeId",
          "type": "bytes32"
        },
        {
          "internalType": "string",
          "name": "uid",
          "type": "string"
        },
        {
          "internalType": "bytes",
          "name": "signature",
          "type": "bytes"
        }
      ],
      "name": "confirmReceivedFiat",
      "outputs": [],
      "stateMutability": "nonpayable",
      "type": "function"
    },
    {
      "inputs": [
        {
          "internalType": "bytes32",
          "name": "tradeId",
          "type": "bytes32"
        },
        {
          "internalType": "string",
          "name": "trackingId",
          "type": "string"
        }
      ],
      "name": "confirmSent",
      "outputs": [],
      "stateMutability": "nonpayable",
      "type": "function"
    },
    {
      "inputs": [
        {
          "internalType": "bytes32",
          "name": "tradeId",
          "type": "bytes32"
        }
      ],
      "name": "dissolveTrade",
      "outputs": [],
      "stateMutability": "nonpayable",
      "type": "function"
    },
    {
      "inputs": [
        {
          "internalType": "bytes32",
          "name": "tradeId",
          "type": "bytes32"
        }
      ],
      "name": "dissolveTradeFiat",
      "outputs": [],
      "stateMutability": "nonpayable",
      "type": "function"
    },
    {
      "inputs": [
        {
          "internalType": "address",
          "name": "LSP8Address",
          "type": "address"
        },
        {
          "internalType": "bytes32",
          "name": "tokenId",
          "type": "bytes32"
        },
        {
          "internalType": "address",
          "name": "LSP7Address",
          "type": "address"
        },
        {
          "internalType": "uint256",
          "name": "LSP7Amount",
          "type": "uint256"
        }
      ],
      "name": "makeLSP7Offer",
      "outputs": [],
      "stateMutability": "nonpayable",
      "type": "function"
    },
    {
      "inputs": [
        {
          "internalType": "address",
          "name": "LSP8Address",
          "type": "address"
        },
        {
          "internalType": "bytes32",
          "name": "tokenId",
          "type": "bytes32"
        },
        {
          "internalType": "address",
          "name": "offerLSP8Address",
          "type": "address"
        },
        {
          "internalType": "bytes32",
          "name": "offerTokenId",
          "type": "bytes32"
        }
      ],
      "name": "offerLSP8ForLSP8",
      "outputs": [],
      "stateMutability": "nonpayable",
      "type": "function"
    },
    {
      "inputs": [
        {
          "internalType": "bytes32",
          "name": "tradeId",
          "type": "bytes32"
        },
        {
          "internalType": "string",
          "name": "reason",
          "type": "string"
        }
      ],
      "name": "openDispute",
      "outputs": [],
      "stateMutability": "nonpayable",
      "type": "function"
    },
    {
      "inputs": [
        {
          "internalType": "address",
          "name": "LSP8Address",
          "type": "address"
        },
        {
          "internalType": "bytes32",
          "name": "tokenId",
          "type": "bytes32"
        },
        {
          "internalType": "uint256",
          "name": "LYXAmount",
          "type": "uint256"
        },
        {
          "internalType": "address[]",
          "name": "LSP7Addresses",
          "type": "address[]"
        },
        {
          "internalType": "uint256[]",
          "name": "LSP7Amounts",
          "type": "uint256[]"
        },
        {
          "internalType": "bool[3]",
          "name": "allowedOffers",
          "type": "bool[3]"
        },
        {
          "internalType": "string",
          "name": "listingURl",
          "type": "string"
        },
        {
          "internalType": "bool",
          "name": "_acceptFiat",
          "type": "bool"
        }
      ],
      "name": "putDigitalLSP8OnSale",
      "outputs": [],
      "stateMutability": "nonpayable",
      "type": "function"
    },
    {
      "inputs": [
        {
          "internalType": "address",
          "name": "LSP8Address",
          "type": "address"
        },
        {
          "internalType": "bytes32",
          "name": "tokenId",
          "type": "bytes32"
        },
        {
          "internalType": "uint256",
          "name": "LYXAmount",
          "type": "uint256"
        },
        {
          "internalType": "address[]",
          "name": "LSP7Addresses",
          "type": "address[]"
        },
        {
          "internalType": "uint256[]",
          "name": "LSP7Amounts",
          "type": "uint256[]"
        },
        {
          "internalType": "bool[3]",
          "name": "allowedOffers",
          "type": "bool[3]"
        },
        {
          "internalType": "string",
          "name": "uid",
          "type": "string"
        },
        {
          "internalType": "bytes",
          "name": "signature",
          "type": "bytes"
        },
        {
          "internalType": "string",
          "name": "listingURl",
          "type": "string"
        },
        {
          "internalType": "bool",
          "name": "_acceptFiat",
          "type": "bool"
        }
      ],
      "name": "putLSP8OnSale",
      "outputs": [],
      "stateMutability": "nonpayable",
      "type": "function"
    },
    {
      "inputs": [
        {
          "internalType": "address",
          "name": "_juror",
          "type": "address"
        }
      ],
      "name": "removeJuror",
      "outputs": [],
      "stateMutability": "nonpayable",
      "type": "function"
    },
    {
      "inputs": [
        {
          "internalType": "address",
          "name": "LSP8Address",
          "type": "address"
        },
        {
          "internalType": "bytes32",
          "name": "tokenId",
          "type": "bytes32"
        },
        {
          "internalType": "address",
          "name": "LSP7Address",
          "type": "address"
        }
      ],
      "name": "removeLSP7Offer",
      "outputs": [],
      "stateMutability": "nonpayable",
      "type": "function"
    },
    {
      "inputs": [
        {
          "internalType": "address",
          "name": "LSP8Address",
          "type": "address"
        },
        {
          "internalType": "bytes32",
          "name": "tokenId",
          "type": "bytes32"
        }
      ],
      "name": "removeLSP8FromSale",
      "outputs": [],
      "stateMutability": "nonpayable",
      "type": "function"
    },
    {
      "inputs": [
        {
          "internalType": "address",
          "name": "LSP8Address",
          "type": "address"
        },
        {
          "internalType": "bytes32",
          "name": "tokenId",
          "type": "bytes32"
        },
        {
          "internalType": "address",
          "name": "offerLSP8Address",
          "type": "address"
        },
        {
          "internalType": "bytes32",
          "name": "offerTokenId",
          "type": "bytes32"
        }
      ],
      "name": "removeLSP8OfferForLSP8",
      "outputs": [],
      "stateMutability": "nonpayable",
      "type": "function"
    },
    {
      "inputs": [
        {
          "internalType": "bytes32",
          "name": "tradeId",
          "type": "bytes32"
        }
      ],
      "name": "resolveTrade",
      "outputs": [],
      "stateMutability": "nonpayable",
      "type": "function"
    },
    {
      "inputs": [
        {
          "internalType": "bytes32",
          "name": "tradeId",
          "type": "bytes32"
        }
      ],
      "name": "resolveTradeFiat",
      "outputs": [],
      "stateMutability": "nonpayable",
      "type": "function"
    }
  ],
  "bytecode": "0x6080346200009c57601f6200589038819003918201601f19168301916001600160401b03831184841017620000a15780849260409485528339810103126200009c576200005a60206200005283620000b7565b9201620000b7565b6000600555600680546001600160a01b03199081166001600160a01b039384161790915560078054909116919092161790556040516157c39081620000cd8239f35b600080fd5b634e487b7160e01b600052604160045260246000fd5b51906001600160a01b03821682036200009c5756fe604060808152600490813610156200001657600080fd5b600091823560e01c9081630761010714620030ab5781630a84a4fd1462002fa8578163109b0e951462002e995781631216bd2f1462002d2357816317d678361462002c29578163224bc9141462002a75578163246310af14620028bb57816331ea559614620027c457816336654f8414620026df578163392728ce14620026555781633bd320c714620024fc5781633f9fa40914620023065781634349509214620022a05781634bf0383514620020c857816365dbc70f1462001ee85781636b1c6fe11462001e055781636d2664e81462001bc857816373199de8146200197357816377ab9cbb14620017c75781637c44036814620014d457816382c9a551146200124157816382d1a9a614620011e95781638c1bc4c5146200106f578163908557461462000dd85781639752c6471462000cd8578163987e09cd1462000bf3578382639f47b0e114620009d157508163ae86c6c114620008e6578163bd295440146200089e578163be85078a1462000795578163c5ab12c414620006d5578163cb552b461462000690578163cbbdc5381462000583578163cf7b7c42146200046c578163cf811d6614620003cf578163e568dd7314620002e457508063f6cd25f014620002985763f9488bcf14620001ee57600080fd5b346200029457806003193601126200029457906200020b62003190565b606083516200021a8162003270565b36903760018060a01b03168152602060028152828220602435835281528282209260ff8151945481811615158652818160081c1615158487015260101c16151581850152620002698462003270565b519291835b600382106200027c57606085f35b8280600192865115158152019401910190926200026e565b5080fd5b8234620002e1576020366003190112620002e157620002dd620002ba62003190565b6007546001600160a01b039190620002d69083163314620035c5565b1662003747565b5080f35b80fd5b91905034620003cb5780600319360112620003cb576001600160a01b03806200030c62003190565b16845260209283528184206024358552835281842093809185549260028701905b8481106200038e575050509082519380858381520195835280832092905b828210620003765762000372868662000367828b0383620032ee565b51918291826200321d565b0390f35b8354875295860195600193840193909101906200034b565b80620003b384620003a4620003c5948c62003650565b90549060031b1c168462003b8a565b620003be8262003d11565b5262003b05565b6200032d565b8280fd5b50503462000294578060031936011262000294576001600160a01b03620003f562003190565b1682526020906003825280832060243584528252600381842001815190819485928583549182815201928252858220915b868282106200045457859062000372886200044484890385620032ee565b51928284938452830190620031de565b83548552889550909301926001928301920162000426565b905034620003cb576020908160031936011262000575578383823592338352600985526200049f82842054151562003cc8565b838352600a8552818320825190620004b78262003270565b80546001600160a01b0390811683526001820154811688840152600290910154169201829052813b15620003cb578551631df7c51d60e11b81529183918391829084905af1801562000579576200055d575b5050827f982bf5a7c13f6a3221eb651dceff4ed35dc4170500238cb81df4819563ea0905837feb2c8525f99d3bfc1e2285827071185c43ceec646ea36a1549e893e30a4411329551848152a151908152a180f35b6200056890620032a2565b6200057557833862000509565b8380fd5b85513d84823e3d90fd5b91905034620003cb576020366003190112620003cb57828183359360018060a01b03620005b681600754163314620035c5565b858452600a602052828420906002845192620005d28462003270565b8281541684528260018201541660208501520154169283910152813b15620003cb578351635c4b168160e11b81529183918391829084905af1801562000686576200066e575b507fa8aca61d4cf0c4563a5827579f48ccb52d9c08a1da9abbb95eb85ef7518f5efb602084847f383ab61835ef171bf38d73022941ddcab99ceb1f013160359750ac5f8f8e4f14838251848152a151908152a180f35b6200067990620032a2565b620003cb57823862000618565b83513d84823e3d90fd5b8334620002e1576020366003190112620002e157620002dd620006b262003190565b6007546001600160a01b039190620006ce9083163314620035c5565b1662003669565b828434620002e157620006e836620031a7565b6001600160a01b0392831684526003602081815286862093865292835285852091949093909160020190825b8187166000528285528760002080548210156200075357906200073c816200074d9362003650565b905490881b1c620003be8262003d11565b62000714565b88518681526060518188018190528190818c01906080908a8a5b8281106200077d57505050500390f35b8351855286955093810193928101926001016200076d565b905034620003cb57602090816003193601126200057557838382359233835260098552620007c882842054151562003cc8565b838352600a8552818320825190620007e08262003270565b80546001600160a01b0390811683526001820154811688840152600290910154169201829052813b15620003cb57855163dc3c7cfd60e01b81529183918391829084905af18015620005795762000886575b5050827fef627d0e66434f22f9f3c4ac2a0ef3ab44f42e720a9b663a1e38d990b943faee837f79678b3d85ae9bad5acc158cf7b7d56e8b4edee4a39eaa58ec9d5a95145c31af9551848152a151908152a180f35b6200089190620032a2565b6200057557833862000832565b905034620003cb5781600319360112620003cb576020926005918391906001600160a01b03620008cd62003190565b1682528552818120602435825285522001549051908152f35b91905034620003cb5782620008fb3662003578565b90828496939652600a6020526200095c858520928651926200091d8462003270565b6200095160018060a01b03958681541686528987600281600185015416938460208b01520154169601958652331462003cc8565b846006541662004695565b511690813b15620003cb5783516386d1a69f60e01b81529183918391829084905af180156200068657620009b9575b507f383ab61835ef171bf38d73022941ddcab99ceb1f013160359750ac5f8f8e4f146020848451908152a180f35b620009c490620032a2565b620003cb5782386200098b565b9291503462000bef57620009e5366200353d565b60018060a098959693981b038095169283855260209585875262000a2562000a1f838a892060019160005201602052604060002054151590565b62003a35565b84865260028752878620828752875262000a4860ff8988205460081c1662003c14565b88169387516370a0823160e01b815233858201528781602481895afa90811562000be557879162000ba7575b508362000a82911162003b2b565b8552600386528685209085528552858420968160068901913360005282885262000abf868a60002060019160005201602052604060002054151590565b1562000b825762000af1923360005280895262000ae0828b60002062003d60565b503360005288528860002062003d3a565b505b823b15620005755760848492838851958694859363b49506fd60e01b855230908501526024840152606060448401528160648401525af1801562000b785762000b60575b5050336000526005830190526000205462000b50575080f35b620002dd906003339101620036eb565b62000b6b90620032a2565b6200057557833862000b37565b84513d84823e3d90fd5b62000ba0923360005260058b01895262000ae0878b600020620036eb565b5062000af3565b809750888092503d831162000bdd575b62000bc38183620032ee565b8101031262000bd85794518995908362000a74565b600080fd5b503d62000bb7565b89513d89823e3d90fd5b5050fd5b505034620002945780600319360112620002945762000c1162003190565b9060243560018060a01b03809316808552600390602094828652848720848852865284872090879060078301600981549401925b84811062000cae5750505050508552835281842090845282526007818420019281518093808654928381520195835280832092905b82821062000c965762000372868662000367828b0383620032ee565b83548752958601956001938401939091019062000c7a565b80620003b38462000cc462000cd2948662003650565b9054908b1b1c168662003b8a565b62000c45565b91905034620003cb578262000ced3662003578565b6007549295926001600160a01b03929162000d549162000d119085163314620035c5565b878652600a602052868620928785600282519662000d2f8862003270565b8281541688528260018201541660208901520154169401938452846006541662004695565b511690813b15620003cb578351635c4b168160e11b81529183918391829084905af1801562000686576200066e57507fa8aca61d4cf0c4563a5827579f48ccb52d9c08a1da9abbb95eb85ef7518f5efb602084847f383ab61835ef171bf38d73022941ddcab99ceb1f013160359750ac5f8f8e4f14838251848152a151908152a180f35b83915034620002945762000dec366200353d565b9060018060a098959694981b03809516968787528560209288845262000e2862000a1f84898c2060019160005201602052604060002054151590565b8651630217b22760e41b815286810186905291169683826024818b5afa91821562001065579062000e6692918a926200102f575b501633146200395c565b8451630a8d952960e21b8152308582019081526020810185905283908290819060400103818a5afa9081156200102557889162000ff1575b5062000fb65787875260028252848720818852825260ff8588205460101c161562000f735786978752600382528487209087528152600284872062000ee48782620036eb565b508660005201905262000efb8184600020620036eb565b50833b1562000f6f5782516386a10ddd60e01b81523092810192835260208301919091526060604083018190526000908301529284918491908290849082906080015b03925af190811562000f66575062000f535750f35b62000f5e90620032a2565b620002e15780f35b513d84823e3d90fd5b8480fd5b845162461bcd60e51b8152808501839052601e60248201527f5573657220646f73656e277420616c6c6f77204c535038206f666665727300006044820152606490fd5b845162461bcd60e51b8152808501839052601560248201527427b33332b91030b63932b0b23c9032bc34b9ba399760591b6044820152606490fd5b620010169150833d85116200101d575b6200100d8183620032ee565b81019062003bfa565b8962000e9e565b503d62001001565b86513d8a823e3d90fd5b62001055919250853d87116200105d575b6200104c8183620032ee565b8101906200393b565b908b62000e5c565b503d62001040565b87513d8b823e3d90fd5b91905034620003cb57826200108436620031a7565b92909160018060a01b0380911692838352602093838552620010bc62000a1f8389872060019160005201602052604060002054151590565b808452600285528684208285528552620010df60ff8886205460081c1662003c14565b808452600385528684208285528552600687852001336000528552620011266200112088600020948816809560019160005201602052604060002054151590565b62003c61565b8352600384528583209083528352848220956200116c6005880195336000528686526200115784896000206200383e565b50336000526006890186528760002062003d60565b50813b15620003cb578291606483928851948593849263ca3631e760e01b845230908401528a60248401528160448401525af180156200057957620011d1575b505033600052526000205415620011c1575080f35b620002dd9060033391016200383e565b620011dc90620032a2565b62000f6f578438620011ac565b50503462000294576200123a6020926006836200120636620034f7565b6001600160a01b03938416875260038a52848720928752918952929094209316600090815291909201855283902062003b8a565b9051908152f35b91809150600319360112620003cb576200125a62003190565b916024359160018060a01b03928385169384875260209284845280882083895284526200128f6005828a200154341462003a79565b858852878452620012b662000a1f84838b2060019160005201602052604060002054151590565b8051630217b22760e41b815285810184905284816024818a5afa90811562001495579083918a91620014b2575b50169588528484528088208389528452600581892001549386846200132b8a6200131c60055487519485938c8986019833908a62003ac6565b03601f198101835282620032ee565b51902095825190610d53808301918383106001600160401b038411176200149f57508783928b898e6200138d9562004a3b88396001600160a01b0390811684526020840191909152166040820152336060820152608081019190915260a00190565b03908af080156200149557831692620013a7858a62003dbf565b620013b3858a62003ef3565b620013bf858a6200404c565b620013cd85858a8c62004141565b620013d98685620049ac565b825190620013e78262003270565b8882528282019133835284810193868552898d52600a905281858d20915116926001600160601b0360a01b938483541617825582600183019151168482541617905560020192511690825416179055600554620014449062003b05565b600555516001600160a01b0391821681529516602086015260408501526060840152339280608081015b037f13f45c05473c7e5958b059813084be663aea88e382de879ac5c87a718767b35291a480f35b82513d8b823e3d90fd5b634e487b7160e01b8d526041905260248cfd5b620014cd9150863d88116200105d576200104c8183620032ee565b38620012e3565b9190506060366003190112620003cb57620014ee62003190565b6024356001600160a01b038181169491929085840362000bd85760443592818316958689526020828152818a20868b528152620015336005838c200154341462003a79565b878a528981526200155a62000a1f87848d2060019160005201602052604060002054151590565b878a52600181526200157e86838c2060019160005201602052604060002054151590565b1562001786576200159584600754163314620035c5565b8151630217b22760e41b815283810187905281816024818c5afa9081156200177c579085918c916200175a575b5016978a52828152818a20868b5281526005828b200154928884620015fa8a6200131c6005548c8c8a519687958b8701998a62003ac6565b51902097835191610d53808401918483106001600160401b0384111762001747575083928c8b8b62001660958b9562004a3b89396001600160a01b0391821681526020810192909252918216604082015291166060820152608081019190915260a00190565b03908bf080156200173d57848a9116946200167c888862003dbf565b62001688888862003ef3565b6200169488886200404c565b620016a288878c8a62004141565b835181858e620016b28462003270565b8d8452868401958652818401968a88528d8252600a905220915116926001600160601b0360a01b9384835416178255826001830191511684825416179055600201925116908254161790556005546200170b9062003b05565b600555516001600160a01b0392831681529190921660208201526040810192909252606082015280608081016200146e565b82513d8c823e3d90fd5b634e487b7160e01b8f526041905260248efd5b620017759150833d85116200105d576200104c8183620032ee565b38620015c2565b83513d8d823e3d90fd5b905162461bcd60e51b815291820152601b60248201527f53656c6c657220646f6573206e6f7420616363657074206669617400000000006044820152606490fd5b839150346200029457620017db366200353d565b8651630217b22760e41b815280860184905290949193916020916001600160a01b03808516918481602481865afa9081156200196957906200182a918b9162001947575b50821633146200395c565b8189528884526200185162000a1f878c8c2060019160005201602052604060002054151590565b818952828452898920868a528452620018808a8a20918816809260019160005201602052604060002054151590565b620018d25798620018c893879383620018b28c9d858e620018cf9f98600299528587528181208d82528752206200383e565b508c528152818b2090878c525289200162003d60565b5062003ead565b80f35b60a483858c519162461bcd60e51b8352820152604460248201527f546865726520616c7265616479206578697374732061206275796f757420707260448201527f69636520696e207468697320746f6b656e2e2054727920746f206368616e67656064820152631034ba1760e11b6084820152fd5b620019629150863d88116200105d576200104c8183620032ee565b8c6200181f565b8b513d8c823e3d90fd5b91905034620003cb576200198736620031a7565b83516370a0823160e01b815233868201529193916020906001600160a01b03838116919089908483602481875afa92831562001bbe57918988928a8d9998979695849662001b76575b501680835297865282822090825285522062001a29929162001a0391620019fc90879060020162003b8a565b1062003b2b565b848a52888352858a20888b528352858a2060019160005201602052604060002054151590565b1562001b2957879083825281815262001a5862000a1f8887852060019160005201602052604060002054151590565b8451630217b22760e41b8152888101889052978189602481885afa94851562001b1f57620018cf99849662001ae4575b5085968462001aaf94879460029462001adc9a985281528b8383209252528b200162003b8a565b9162001abc878762003dbf565b62001ac8878762003ef3565b62001ad487876200404c565b339062004349565b339162004141565b62001adc965096600291948462001b1088959a62001aaf973d84116200105d576200104c8183620032ee565b98509450949150969162001a88565b86513d85823e3d90fd5b8660849185519162461bcd60e51b8352820152602260248201527f53656c6c657220646f6573206e6f7420616363657074207468697320746f6b65604482015261371760f11b6064820152fd5b9950509493505050508285813d831162001bb6575b62001b978183620032ee565b8101031262000bd857935188949186908b908a908a62001a03620019d0565b503d62001b8b565b87513d84823e3d90fd5b905034620003cb57610180366003190112620003cb5762001be862003190565b6001600160401b0360643581811162001e015762001c0a903690850162003328565b9360843582811162001dfd5762001c2590369086016200339f565b62001c303662003405565b956101043584811162001df95762001c4c903690880162003474565b946101243585811162001df55762001c68903690890162003474565b946101443590811162001df55762001c84903690890162003474565b9761016435908115159687830362000bd8578651630217b22760e41b81526024359a81018b90526001600160a01b038581169a918e9080808e5a92602491602094fa90811562001deb579662001d9f9f9a95968f948f987f549017a7bd766b7b1fe1351de08bf426efe9d224831ad82206ab54edb873fcb09f9c9762001db99f9b9262001d5f62001d5860019f998f62001da59f918d9262001d3c62001d719d62001d699b849162001dc8575b50881633146200395c565b8152806020522060019160005201602052604060002054151590565b15620039a9565b6006541662004695565b848462003f34565b6044359d8e838360018060a01b03166000526004602052604060002090600052602052600560406000200155565b62003e16565b805194859460608652606086019062003a0e565b9260208501528301520390a480f35b62001de4915060203d81116200105d576200104c8183620032ee565b3862001d31565b8b513d84823e3d90fd5b8980fd5b8880fd5b8680fd5b8580fd5b905034620003cb5781600319360112620003cb5762001e2362003190565b8251630217b22760e41b8152602480359382018490526001600160a01b038381169291602090839081865afa91821562001ede579562001e9b9362001e7e62000a1f948894620018cf9a8c9262001eb957501633146200395c565b885287602052872060019160005201602052604060002054151590565b62001ea7828262003dbf565b62001eb3828262003ef3565b6200404c565b62001ed691925060203d81116200105d576200104c8183620032ee565b903862000e5c565b86513d89823e3d90fd5b91905062001ef636620031a7565b91939060018060a01b039485811694858852602093808552818920848a52855262001f296005838b200154341462003a79565b86895288855262001f5062000a1f85848c2060019160005201602052604060002054151590565b8151630217b22760e41b815281810185905285816024818b5afa908115620020be579089918b916200209c575b50169689528452808820838952845280882060050154938587600554845191829188888b8886019762001fb1958962003ac6565b03601f198101825262001fc59082620032ee565b5190209562001fd5858562003dbf565b62001fe1858562003ef3565b62001fed85856200404c565b62001ffb85828a8762004141565b825198620020098a62003270565b888a5280838b019216998a8352848101938c8552898d52600a905281858d20915116926001600160601b0360a01b938483541617825582600183019151168482541617905560020192511690825416179055600554620020699062003b05565b60055551600081526001600160a01b0390911660208201526040810191909152606081019190915280608081016200146e565b620020b79150873d89116200105d576200104c8183620032ee565b3862001f7d565b83513d8c823e3d90fd5b905034620003cb57620020db366200353d565b9390929160018060a01b03918284168089526020938985526200211462000a1f858b8d2060019160005201602052604060002054151590565b8851630217b22760e41b80825284820186905292908681602481855afa8015620022965762002150918d9162002274575b50831633146200395c565b8a5260038552888a20848b5285526002898b2001908716908160005285526200218c888a60002060019160005201602052604060002054151590565b156200222557916024859289948b51958694859384528301525afa9283156200221b57620018cf97508893620021f2575b50508183620021d28362001adc959662003dbf565b620021de838262003ef3565b620021ea83826200404c565b339062004141565b62001adc935090816200221392903d106200105d576200104c8183620032ee565b9138620021bd565b87513d8a823e3d90fd5b885162461bcd60e51b8152808401869052602360248201527f4f6666657220646f6573206e6f7420657869737420666f722074686973204c53604482015262281c1760e91b6064820152608490fd5b6200228f9150883d8a116200105d576200104c8183620032ee565b3862002145565b8b513d8e823e3d90fd5b91905034620003cb576020366003190112620003cb5782823592838252600a6020528282208351620022d28162003270565b6200095c60018060a01b03928381541683528684600281600185015416938460208801520154169301928352331462003cc8565b91809150600319360112620003cb576200231f62003190565b916024359260018060a01b0391828216938487526020918083528188208789528352620023546005838a200154341462003a79565b8588528783526200237b62000a1f88848b2060019160005201602052604060002054151590565b8151630217b22760e41b815281810188905283816024818a5afa908115620024f2579086918a91620024d0575b501695885282528087208688528252808720600501549160055482518088848201938b898933620023da958962003ac6565b03601f1981018252620023ee9082620032ee565b51902094620023fe888662003dbf565b6200240a888662003ef3565b6200241688866200404c565b620024248833898862004141565b620024308488620049ac565b8251906200243e8262003270565b87825282820191338352848101938b8552888c52600a905281858c20915116926001600160601b0360a01b9384835416178255826001830191511684825416179055600201925116908254161790556005546200249b9062003b05565b60055551600081526001600160a01b03909216602083015260408201949094526060810193909352339280608081016200146e565b620024eb9150853d87116200105d576200104c8183620032ee565b38620023a8565b83513d8b823e3d90fd5b83915034620002945762002510366200353d565b8651630217b22760e41b81528086018490529094919391906020906001600160a01b0390818516908381602481855afa9081156200196957620025b693929162002566918c91620026335750831633146200395c565b808a528984526200258d62000a1f888d8d2060019160005201602052604060002054151590565b8952838352898920868a5283528989209087169060019160005201602052604060002054151590565b15620025cb575050620018cf94955062003ead565b875162461bcd60e51b815291820152603760248201527f5468657265206973206e6f206275796f757420707269636520696e207468697360448201527f20746f6b656e2e2054727920746f20616464206f6e652e000000000000000000606482015260849150fd5b6200264e9150863d88116200105d576200104c8183620032ee565b8d62002145565b50503462000294578060031936011262000294576001600160a01b036200267b62003190565b1682526020906003825280832060243584528252808320815190819485928583549182815201928252858220915b86828210620026c757859062000372886200044484890385620032ee565b835485528895509093019260019283019201620026a9565b91905034620003cb576020366003190112620003cb57828183359333835260096020526200271282842054151562003cc8565b848352600a6020528183208251906200272b8262003270565b80546001600160a01b039081168352600182015481166020840152600290910154169201829052813b15620003cb578351631df7c51d60e11b81529183918391829084905af180156200068657620027ac575b507f982bf5a7c13f6a3221eb651dceff4ed35dc4170500238cb81df4819563ea09056020848451908152a180f35b620027b790620032a2565b620003cb5782386200277e565b905034620003cb5782620027d836620034c1565b929093848352600a6020528083208151620027f38162003270565b6200283260018060a01b03928381541680845285856002816001860154169485602089015201541694019384523314908115620028b0575b5062003cc8565b511691823b156200057557815163f240f7c360e01b81529284918491829084905af190811562000f66575062002898575b5050620028709062003cef565b907fdd06a1bb006455f79813adec3a04ac5027b2dab7d17a0ed1bda15c837b81e3d78380a380f35b620028a390620032a2565b620003cb57823862002863565b90503314386200282b565b839150346200029457620028cf366200353d565b9060018060a098959694981b0380951696878752856020928884526200290b62000a1f84898c2060019160005201602052604060002054151590565b8651630217b22760e41b815286810186905291169683826024818b5afa9182156200106557906200294892918a926200102f57501633146200395c565b8451630a8d952960e21b8152308582019081526020810185905283908290819060400103818a5afa9081156200102557889162002a53575b501562002a18578787988852600383528588208289528352620029a687878a206200383e565b508752600382528487209087528152600284872001908560005252620029d081846000206200383e565b50833b1562000f6f578251633c6e5f8160e21b815230928101928352602083019190915260606040830181905260009083015292849184919082908490829060800162000f3e565b845162461bcd60e51b8152808501839052601560248201527427b33332b9103237b2b9903737ba1032bc34b9ba1760591b6044820152606490fd5b62002a6e9150833d85116200101d576200100d8183620032ee565b8962002980565b91905034620003cb5762002a8936620034f7565b939194909260018060a01b039586821680895260209289845262002ac362000a1f84888d2060019160005201602052604060002054151590565b818a5260028452858a20838b52845262002ae660ff878c205460081c1662003c14565b818a5260038452858a20838b5284528984600688832001968b8b169788600052825262002b2e620011208a6000209d8c16809e60019160005201602052604060002054151590565b60248951809d81936370a0823160e01b835233908301525afa998a1562002c1d57819a62002bd4575b509162002ba9848a8a98969462002b9d620018cf9e60068d8a62002bcb9f9d9b8a905260038c528181208882528c5220018a6000528952620019fc8c8c60002062003b8a565b620021d2838262003dbf565b8a5260038252838a20908a5281526006838a2001916000525260002062003b8a565b91339162004349565b8580949b508198969250969492963d831162002c15575b62002bf78183620032ee565b8101031262000bd857945197929491939092908962002ba962002b57565b503d62002beb565b508651903d90823e3d90fd5b905034620003cb578262002c3d36620034c1565b929093848352600a602052808320815162002c588162003270565b81546001600160a01b0390811680835260018401548216602084015260029093015481169184019182529162002c9090331462003cc8565b5116803b1562000575576020928491835194859263768896e560e01b845283015281838162002cc3602482018b62003a0e565b03925af190811562000f66575062002d0b575b505062002ce39062003cef565b907fd4f38c7bc9ecd1e2dc32b792412b891ef2d858ff73fa89dad9c1931171e6c1e08380a380f35b62002d1690620032a2565b620003cb57823862002cd6565b905034620003cb57610140366003190112620003cb5762002d4362003190565b906024359160443593606435906001600160401b039182811162002e955762002d70903690860162003328565b60843583811162001df95762002d8a90369087016200339f565b9062002d963662003405565b936101043590811162001df55762002db2903690880162003474565b94610124358015159586820362000bd8578551630217b22760e41b81529889018a90526001600160a01b03838116998d916020826024818f5afa91821562002e8b578e62002e628f94978f977f549017a7bd766b7b1fe1351de08bf426efe9d224831ad82206ab54edb873fcb09f9d9a9562001db99f9d99888d60009f9b62001d589362001da59f62001d3c9062002e5a9762001d9f9d859262001eb957501633146200395c565b868662003f34565b838360018060a01b03166000526004602052604060002090600052602052600560406000200155565b89513d85823e3d90fd5b8780fd5b91905034620003cb576020366003190112620003cb5782823592338252600960205262002ecb83832054151562003cc8565b838252600a6020528280832081519062002ee58262003270565b80546001600160a01b039081168352600182015481166020840152600290910154169101819052803b15620003cb578291845180948193630476982d60e21b83525af1801562002f9e5762002f63575b507fef627d0e66434f22f9f3c4ac2a0ef3ab44f42e720a9b663a1e38d990b943faee9160209151908152a180f35b916020919362002f947fef627d0e66434f22f9f3c4ac2a0ef3ab44f42e720a9b663a1e38d990b943faee94620032a2565b9391509162002f35565b82513d86823e3d90fd5b905034620003cb576060366003190112620003cb5762002fc762003190565b8251630217b22760e41b815260248035828501819052929386926020926001600160a01b0380881692918590839081865afa918215620030a157620018cf9994926005969492620030239289926200308557501633146200395c565b8086528583526200304a62000a1f8886892060019160005201602052604060002054151590565b855281528184209085855252822001556044359160018060a01b03166000526004602052604060002090600052602052600560406000200155565b62001ed6919250863d88116200105d576200104c8183620032ee565b89513d88823e3d90fd5b5050346200029457620030be36620031a7565b6001600160a01b03928316855260036020818152858720938752928352848620919492939290916005810190600601875b858816895282875288848120548210156200313a5790620003b3888862003126848962003134978986528a82822096522062003650565b9054908a1b1c169062003b8a565b620030ef565b888716815283885284812085518154808252918352898320818b0193919288928c5b828210620031785762000372868662000367828b0383620032ee565b8354875295860195600193840193909101906200315c565b600435906001600160a01b038216820362000bd857565b606090600319011262000bd8576001600160a01b03600435818116810362000bd8579160243591604435908116810362000bd85790565b90815180825260208080930193019160005b828110620031ff575050505090565b83516001600160a01b031685529381019392810192600101620031f0565b906200323290604083526040830190620031de565b818103602092830152606051808252908201916080919060005b8281106200325b575050505090565b8351855293810193928101926001016200324c565b606081019081106001600160401b038211176200328c57604052565b634e487b7160e01b600052604160045260246000fd5b6001600160401b0381116200328c57604052565b608081019081106001600160401b038211176200328c57604052565b602081019081106001600160401b038211176200328c57604052565b90601f801991011681019081106001600160401b038211176200328c57604052565b6001600160401b0381116200328c5760051b60200190565b81601f8201121562000bd857803591620033428362003310565b92620033526040519485620032ee565b808452602092838086019260051b82010192831162000bd8578301905b8282106200337e575050505090565b81356001600160a01b038116810362000bd85781529083019083016200336f565b81601f8201121562000bd857803591620033b98362003310565b92620033c96040519485620032ee565b808452602092838086019260051b82010192831162000bd8578301905b828210620033f5575050505090565b81358152908301908301620033e6565b8060c3121562000bd857604051906200341e8262003270565b819061010490811162000bd85760a4915b8183106200343d5750505090565b8235801515810362000bd8578152602092830192016200342f565b6001600160401b0381116200328c57601f01601f191660200190565b81601f8201121562000bd8578035906200348e8262003458565b926200349e6040519485620032ee565b8284526020838301011162000bd857816000926020809301838601378301015290565b90604060031983011262000bd85760043591602435906001600160401b03821162000bd857620034f49160040162003474565b90565b608090600319011262000bd8576001600160a01b0390600435828116810362000bd8579160243591604435828116810362000bd85791606435908116810362000bd85790565b608090600319011262000bd8576001600160a01b03600435818116810362000bd8579160243591604435908116810362000bd8579060643590565b606060031982011262000bd857600435916001600160401b0360243581811162000bd85783620035ab9160040162003474565b9260443591821162000bd857620034f49160040162003474565b15620035cd57565b60405162461bcd60e51b815260206004820152600d60248201526c1050d0d154d4c8111153925151609a1b6044820152606490fd5b6008548110156200363a5760086000527ff3f7a9fe364faab93b216da50a3214154f22a0a2b415b23a84c8169e8b636ee30190600090565b634e487b7160e01b600052603260045260246000fd5b80548210156200363a5760005260206000200190600090565b600081815260096020526040812054620036e657600854600160401b811015620036d2579082620036be620036a78460016040960160085562003602565b819391549060031b91821b91600019901b19161790565b905560085492815260096020522055600190565b634e487b7160e01b82526041600452602482fd5b905090565b60008281526001820160205260409020546200374057805490600160401b8210156200328c578262003729620036a784600180960185558462003650565b905580549260005201602052604060002055600190565b5050600090565b60008181526009602052604081205490919080156200383957600019908082018181116200382557600854908382019182116200381157818103620037d7575b5050506008548015620037c357810190620037a28262003602565b909182549160031b1b19169055600855815260096020526040812055600190565b634e487b7160e01b84526031600452602484fd5b620037fa620037ea620036a79362003602565b90549060031b1c92839262003602565b905584526009602052604084205538808062003787565b634e487b7160e01b86526011600452602486fd5b634e487b7160e01b85526011600452602485fd5b505090565b9060018201906000928184528260205260408420549081151560001462003934576000199180830181811162003920578254908482019182116200390c57818103620038d1575b50505080548015620038bd57820191620038a0838362003650565b909182549160031b1b191690555582526020526040812055600190565b634e487b7160e01b86526031600452602486fd5b620038f6620038e5620036a7938662003650565b90549060031b1c9283928662003650565b9055865284602052604086205538808062003885565b634e487b7160e01b88526011600452602488fd5b634e487b7160e01b87526011600452602487fd5b5050505090565b9081602091031262000bd857516001600160a01b038116810362000bd85790565b156200396457565b60405162461bcd60e51b815260206004820152601d60248201527f53656e64657220646f65736e2774206f776e2074686973204c5350382e0000006044820152606490fd5b15620039b157565b60405162461bcd60e51b815260206004820152601060248201526f2629a81c1034b99037b71039b0b6329760811b6044820152606490fd5b60005b838110620039fd5750506000910152565b8181015183820152602001620039ec565b9060209162003a2981518092818552858086019101620039e9565b601f01601f1916010190565b1562003a3d57565b60405162461bcd60e51b81526020600482015260146024820152732629a81c1034b9903737ba1037b71039b0b6329760611b6044820152606490fd5b1562003a8157565b60405162461bcd60e51b815260206004820152601a60248201527f596f75206469646e27742073656e6420656e6f756768204c59580000000000006044820152606490fd5b9492609c9694916001600160601b03199384809260601b16885260601b166014870152602886015260601b166048840152605c830152607c8201520190565b600019811462003b155760010190565b634e487b7160e01b600052601160045260246000fd5b1562003b3357565b60405162461bcd60e51b815260206004820152602960248201527f53656e64657220646f65736e2774206861766520656e6f75676820746f6b656e604482015268103130b630b731b29760b91b6064820152608490fd5b6001600160a01b0390911660008181526002830160205260409020549182159082908262003bd6575b505062003bbe575090565b6024906040519063015ab34360e11b82526004820152fd5b62003bf1925060019160005201602052604060002054151590565b15813862003bb3565b9081602091031262000bd85751801515810362000bd85790565b1562003c1c57565b60405162461bcd60e51b815260206004820152601e60248201527f5573657220646f73656e277420616c6c6f77204c535037206f666665727300006044820152606490fd5b1562003c6957565b60405162461bcd60e51b815260206004820152603160248201527f54686973206f6666657220646f65736e2774206578697374206f7220796f752060448201527030b932b713ba103a34329037bbb732b91760791b6064820152608490fd5b1562003cd057565b60405162461bcd60e51b81526020600482015260006024820152604490fd5b62003d0990602060405192828480945193849201620039e9565b810103902090565b6060518110156200363a5760051b60800190565b80518210156200363a5760209160051b010190565b620034f4929160018060a01b0316918260005260028201602052604060002055620036eb565b6001600160a01b039091166000818152600283016020526040812055620034f4916200383e565b8054906000908181558262003d9b57505050565b815260208120918201915b82811062003db357505050565b81815560010162003da6565b60018060a01b0316600052600360205260406000209060005260205262003e146009604060002062003df18162003d87565b62003dff6003820162003d87565b62003e0d6007820162003d87565b0162003d87565b565b6001600160a01b0390811660009081526004602090815260408083209483529390529182206002810195949391925b825181101562003ea4578062003e6e8562003e6562003e9e948762003d25565b511684620036eb565b5062003e978562003e80838762003d25565b511662003e8e838962003d25565b51908a62003d3a565b5062003b05565b62003e45565b50505050509050565b60029062003ef094939260018060a01b03809216600052600460205260406000209060005260205262003ee8604060002091841682620036eb565b500162003d3a565b50565b60018060a01b03166000526004602052604060002090600052602052600060056040822062003f228162003d87565b62003f306002820162003d87565b0155565b6001600160a01b0316600081815260208181526040808320919593949162003f5e908390620036eb565b508483526002865280832082845286528083209392809581965b6003908189101562003fa9576001918a918a89511515921b9160ff809116831b921b19161796019701969462003f78565b939750509350939691959655813b15620003cb5783516386a10ddd60e01b8152306004820152602481018690526060604482015260006064820152838160848183875af1801562004042576200402b575b5015156001146200400d575b5050505050565b6200401f9460019183525220620036eb565b50388080808062004006565b926200403a60019294620032a2565b929062003ffa565b85513d86823e3d90fd5b9060009160018060a01b0316918281528060205260409062004071838383206200383e565b5083815260026020528181208382526020528181209060019182808201915b8281106200413557505050843b15620002e1578251633c6e5f8160e21b81523060048201526024810185905260606044820152600060648201528181608481838a5af1801562000b785762004123575b509084825280602052620041068484842060019160005201602052604060002054151590565b62004112575050505050565b6200401f948252602052206200383e565b6200412e90620032a2565b38620040e0565b83815501839062004090565b60009190829182604095620042928751986001600160601b03196200428560209b828d938960601b16848301528660601b16603482015260016048820152604881526200418e81620032b6565b8b620041da81519283926337dc019b60e11b878501527f5d4750030310507a00ed34b9c56808c5423b741a733df02978ef34f07a4b87d760248501526044840152606483019062003a0e565b0393620041f0601f1995868101845283620032ee565b8c516b2c626f6f6c2c62797465732960a01b8e6200420e8362003270565b602c8352868301927f7472616e7366657228616464726573732c616464726573732c6279746573333284520152602c63ffffffff60e01b912016988d5197889586019a8b5260018060a01b038092166024870152166044850152606484015286608484015260a060a484015260c483019062003a0e565b03908101835282620032ee565b51925af1620042a062004797565b8162004314575b5015620042b2575050565b60849250519062461bcd60e51b82526004820152603660248201527f5472616e7366657248656c7065723a3a736166655472616e736665724c5350386044820152750e881314d40e081d1c985b9cd9995c8819985a5b195960521b6064820152fd5b805180159250849083156200432e575b50505038620042a7565b62004340935082018101910162003bfa565b38838162004324565b9190916040928351926200435d84620032d2565b600093848152855196620043718862003270565b602888526028868060209a67322c62797465732960c01b8b8d8301927f617574686f72697a654f70657261746f7228616464726573732c6279746573338452015263ffffffff60e01b93849120168b620043ec8c51978892830193845230602484015287604484015260606064840152608483019062003a0e565b039562004402601f1997888101835282620032ee565b5190828a5af16200441262004797565b8162004660575b501562004608578695949391928962004285620044bb89966200455195602c8e620044c881518d6001600160601b0319809160601b168a8301528c60601b166034820152856048820152604881526200447281620032b6565b82516337dc019b60e11b8a8201527f5d4750030310507a00ed34b9c56808c5423b741a733df02978ef34f07a4b87d7602482015260448101849052968791606483019062003a0e565b03898101875286620032ee565b6b2c626f6f6c2c62797465732960a01b815191620044e68362003270565b838352888301927f7472616e7366657228616464726573732c616464726573732c75696e74323536845201522016988d5197889586019a8b5260018060a01b038092166024870152166044850152606484015286608484015260a060a484015260c483019062003a0e565b51925af16200455f62004797565b81620045d3575b501562004571575050565b60849250519062461bcd60e51b82526004820152603660248201527f5472616e7366657248656c7065723a3a736166655472616e736665724c5350376044820152750e881314d40dc81d1c985b9cd9995c8819985a5b195960521b6064820152fd5b80518015925084908315620045ed575b5050503862004566565b620045ff935082018101910162003bfa565b388381620045e3565b875162461bcd60e51b8152600481018a9052602b60248201527f5472616e7366657248656c7065723a3a73616665417070726f76653a2061707060448201526a1c9bdd994819985a5b195960aa1b6064820152608490fd5b8051801592508b9083156200467a575b5050503862004419565b6200468c935082018101910162003bfa565b388a8162004670565b604051638da5cb5b60e01b8152919290602090839060049082906001600160a01b03165afa9182156200478b5760009262004761575b506200474690604051926200472a603c8560208101977f19457468657265756d205369676e6564204d6573736167653a0a3232000000008952620047198151809260208686019101620039e9565b810103601c810187520185620032ee565b630b135d3f60e11b9463ffffffff60e01b9451902090620047cc565b16036200474f57565b604051632f86bfc360e11b8152600490fd5b62004746919250620047839060203d81116200105d576200104c8183620032ee565b9190620046cb565b6040513d6000823e3d90fd5b3d15620047c7573d90620047ab8262003458565b91620047bb6040519384620032ee565b82523d6000602084013e565b606090565b9091813b156200486c5760009182916040516200480f816200131c6020820194630b135d3f60e11b998a8752602484015260406044840152606483019062003a0e565b51915afa6200481d62004797565b816200485f575b8162004842575b5015620048355790565b506001600160e01b031990565b905060208180518101031262000bd857602001518114386200482b565b8051602014915062004824565b620048789192620048da565b506004819392931015620048c457620048b5576001600160a01b03918216911603620048a957630b135d3f60e11b90565b6001600160e01b031990565b506001600160e01b0319919050565b634e487b7160e01b600052602160045260246000fd5b81519190604183036200490e576200490792506020820151906060604084015193015160001a9062004919565b9192909190565b505060009160029190565b91907f7fffffffffffffffffffffffffffffff5d576e7357a4501ddfe92f46681b20a08411620049a057926020929160ff608095604051948552168484015260408301526060820152600092839182805260015afa15620049945780516001600160a01b038116156200498b57918190565b50809160019190565b604051903d90823e3d90fd5b50505060009160039190565b6000808093819382604051620049c281620032d2565b525af1620049cf62004797565b5015620049d857565b60405162461bcd60e51b815260206004820152603460248201527f5472616e7366657248656c7065723a3a736166655472616e736665724c59583a60448201527308131656081d1c985b9cd9995c8819985a5b195960621b6064820152608490fdfe6080346100d157601f610d5338819003918201601f19168301916001600160401b038311848410176100d65780849260a0946040528339810103126100d157610047816100ec565b9060208101519061005a604082016100ec565b906080610069606083016100ec565b91015192600160005560018060a01b039283918260018060a01b0319971687600254161760025560035516846004541617600455168260055416176005554260075560ff196009541660095560065533906001541617600155604051610c5290816101018239f35b600080fd5b634e487b7160e01b600052604160045260246000fd5b51906001600160a01b03821682036100d15756fe608060409080825260049081361015610020575b505050361561001e57005b005b600092833560e01c9182630ae57b1d1461072f5750816311da60b41461070957816312065fe0146106ea5781633bef8a3a146106b25781636234216d14610672578163768896e514610400578163772ebf28146103b857816383dc3b0f1461035257816386d1a69f1461026b57508063b8962d02146101e7578063dc3c7cfd146101aa578063ea8a1af0146101025763f240f7c3146100bf5780610013565b346100fe57816003193601126100fe576100e460018060a01b03600154163314610882565b6100ec6108e5565b60ff1960095416176009556001815580f35b5080fd5b5090346101a757806003193601126101a7576001546001600160a01b039061012d9082163314610882565b6101356108e5565b60ff6009541660068110156101945761018092936101566101739215610947565b8280600254169154166003549061016b6108c7565b9230906109c3565b6005541660065490610b7e565b600360ff1960095416176009556001815580f35b634e487b7160e01b835260218452602483fd5b80fd5b82346101a757806003193601126101a7576101d060018060a01b03600154163314610882565b6101d86108e5565b6101e0610908565b6001815580f35b5090806003193601126101a75760ff6009541660068110156102585761020d9015610836565b61024460018060a01b0361022681600154163314610882565b61022e6108e5565b806002541690600554166003549061016b6108c7565b600260ff1960095416176009556001815580f35b506021602492634e487b7160e01b835252fd5b8383816003193601126100fe5760ff60095416600681101561033f576102919015610836565b6001546001600160a01b0391906102ab9083163314610882565b6102b36108e5565b81600554168032036102e557906102da83926102449460025416906003549061016b6108c7565b541660065490610b7e565b845162461bcd60e51b8152602081840152602e60248201527f4f6e6c7920746865206275796572206861732074686520726967687420746f2060448201526d66696e616c697a6520747261646560901b6064820152608490fd5b634e487b7160e01b835260218252602483fd5b8284346101a757806003193601126101a7576001546001600160a01b03929061037e9084163314610882565b6103866108e5565b60ff6009541692600684101561033f576103a4610180939415610947565b80600254169154166003549061016b6108c7565b5050346100fe57816003193601126100fe576103ec9060018060a01b036103e481600154163314610882565b6103a46108e5565b600560ff1960095416176009556001815580f35b839150346100fe576020928360031936011261066e5780359367ffffffffffffffff9182861161066a573660238701121561066a57858101356104428161081a565b9661044f865198896107f8565b8188523660248383010111610666578187926024869301838b01378801015260018060a01b0393600194610487818754163314610882565b61048f6108e5565b82541632036106255750855192831161061257600a54908482811c92168015610608575b838310146105f55750601f8111610590575b5080601f831160011461050f5750839482939492610504575b5050600019600383901b1c191690821b17600a555b8060ff196009541617600955815580f35b0151905084806104de565b600a8552601f198316957fc65a7bb8d6351c1cf70c95a316cc6a92839c986682d98bc35f958f4883f9d2a8929186905b8882106105795750508385969710610560575b505050811b01600a556104f3565b015160001960f88460031b161c19169055848080610552565b80878596829496860151815501950193019061053f565b600a85527fc65a7bb8d6351c1cf70c95a316cc6a92839c986682d98bc35f958f4883f9d2a8601f840160051c8101918385106105eb575b601f0160051c019084905b8281106105e05750506104c5565b8681550184906105d2565b90915081906105c7565b634e487b7160e01b865260229052602485fd5b91607f16916104b3565b634e487b7160e01b855260419052602484fd5b91606492519162461bcd60e51b8352820152601d60248201527f4f6e6c79207468652053656c6c657220686173207468652072696768740000006044820152fd5b8680fd5b8480fd5b8280fd5b839150346100fe57816003193601126100fe5760ff60095416905191600682101561069f57602083838152f35b634e487b7160e01b815260218452602490fd5b5050346100fe57816003193601126100fe576103ec9061017360018060a01b03916106e283600154163314610882565b6101566108e5565b8390346100fe57816003193601126100fe576020906006549051908152f35b83346101a757806003193601126101a7576101d060018060a01b03600154163314610882565b8385913461066e578260031936011261066e578061074d85926107c6565b36903782519183830183811067ffffffffffffffff8211176107b35784526005546001600160a01b03908116845291548216602080850191909152845193909190845b6002831061079c578686f35b838060019287855116815201920192019190610790565b506041602492634e487b7160e01b835252fd5b6040810190811067ffffffffffffffff8211176107e257604052565b634e487b7160e01b600052604160045260246000fd5b90601f8019910116810190811067ffffffffffffffff8211176107e257604052565b67ffffffffffffffff81116107e257601f01601f191660200190565b1561083d57565b60405162461bcd60e51b815260206004820152601c60248201527f457363726f77206974656d20686173206265656e20636c6f7365642e000000006044820152606490fd5b1561088957565b60405162461bcd60e51b815260206004820152601660248201527553656e646572204e6f74204d61726b6574706c61636560501b6044820152606490fd5b604051906108d4826107c6565b6002825261060f60f31b6020830152565b6002600054146108f6576002600055565b604051633ee5aeb560e01b8152600490fd5b61093860018060a01b0361092b816002541682600554166003549061016b6108c7565b6004541660065490610b7e565b600260ff196009541617600955565b1561094e57565b60405162461bcd60e51b815260206004820152601860248201527f4974656d20416c7265616479204d61726b65642053656e7400000000000000006044820152606490fd5b3d156109be573d906109a48261081a565b916109b260405193846107f8565b82523d6000602084013e565b606090565b9293919091604051946060860186811067ffffffffffffffff8211176107e2576040908152602c87527f7472616e7366657228616464726573732c616464726573732c627974657333326020808901919091526b2c626f6f6c2c62797465732960a01b978201979097525163288db4a960e11b8188019081526001600160a01b03958616602483015294909316604484015260648301526001608483015260a060a4830152805160c48301819052908560005b838110610b695750505091600082610aad60e482878583819b999a829b010152601f801991011681010360c48101845201826107f8565b51925af1610ab9610993565b81610b2b575b5015610ac85750565b6084906040519062461bcd60e51b82526004820152603660248201527f5472616e7366657248656c7065723a3a736166655472616e736665724c5350386044820152750e881314d40e081d1c985b9cd9995c8819985a5b195960521b6064820152fd5b80915051828115918215610b44575b5050905038610abf565b8380929350010312610b64578101518015158103610b6457808238610b3a565b600080fd5b81818401015160e48287010152018690610a76565b604051602081019080821067ffffffffffffffff8311176107e2576000938493848094938194604052525af1610bb2610993565b5015610bba57565b60405162461bcd60e51b815260206004820152603460248201527f5472616e7366657248656c7065723a3a736166655472616e736665724c59583a60448201527308131656081d1c985b9cd9995c8819985a5b195960621b6064820152608490fdfea2646970667358221220bbd539688cab59dd7a87e32c23ebf1e248c174f7923118a81cadbe0639f77b0c64736f6c63430008140033a264697066735822122087d5dbf3a994c1f2a46b3ee0aeab27afbc916f9658893ac584ec9bec28f6b6de64736f6c63430008140033",
  "linkReferences": {},
  "deployedLinkReferences": {}
}