{
  "_format": "hh-sol-artifact-1",
  "contractName": "LSP8Marketplace",
  "sourceName": "contracts/LSP8Marketplace.sol",
  "abi": [
    {
      "inputs": [
        {
          "internalType": "address",
          "name": "_owner",
          "type": "address"
        },
        {
          "internalType": "address",
          "name": "_placeholder",
          "type": "address"
        }
      ],
      "stateMutability": "nonpayable",
      "type": "constructor"
    },
    {
      "inputs": [
        {
          "internalType": "bytes32",
          "name": "key",
          "type": "bytes32"
        }
      ],
      "name": "EnumerableMapNonexistentKey",
      "type": "error"
    },
    {
      "inputs": [],
      "name": "InvalidFamilySignature",
      "type": "error"
    },
    {
      "anonymous": false,
      "inputs": [
        {
          "indexed": true,
          "internalType": "bytes32",
          "name": "tradeId",
          "type": "bytes32"
        },
        {
          "indexed": true,
          "internalType": "string",
          "name": "trackingId",
          "type": "string"
        }
      ],
      "name": "Dispute",
      "type": "event"
    },
    {
      "anonymous": false,
      "inputs": [
        {
          "indexed": false,
          "internalType": "bytes32",
          "name": "tradId",
          "type": "bytes32"
        }
      ],
      "name": "Dissolved",
      "type": "event"
    },
    {
      "anonymous": false,
      "inputs": [
        {
          "indexed": false,
          "internalType": "bytes32",
          "name": "tradId",
          "type": "bytes32"
        }
      ],
      "name": "DissolvedFiat",
      "type": "event"
    },
    {
      "anonymous": false,
      "inputs": [
        {
          "indexed": false,
          "internalType": "address",
          "name": "collection",
          "type": "address"
        },
        {
          "indexed": false,
          "internalType": "bytes32",
          "name": "tokenId",
          "type": "bytes32"
        }
      ],
      "name": "ItemDelisted",
      "type": "event"
    },
    {
      "anonymous": false,
      "inputs": [
        {
          "indexed": true,
          "internalType": "address",
          "name": "collection",
          "type": "address"
        },
        {
          "indexed": true,
          "internalType": "bytes32",
          "name": "tokenId",
          "type": "bytes32"
        },
        {
          "indexed": true,
          "internalType": "uint256",
          "name": "price",
          "type": "uint256"
        },
        {
          "indexed": false,
          "internalType": "string",
          "name": "listingURl",
          "type": "string"
        },
        {
          "indexed": false,
          "internalType": "bool",
          "name": "ItemListed",
          "type": "bool"
        },
        {
          "indexed": false,
          "internalType": "enum LSP8Marketplace.collectionType",
          "name": "",
          "type": "uint8"
        }
      ],
      "name": "ItemListed",
      "type": "event"
    },
    {
      "anonymous": false,
      "inputs": [
        {
          "indexed": false,
          "internalType": "bytes32",
          "name": "tradId",
          "type": "bytes32"
        }
      ],
      "name": "Received",
      "type": "event"
    },
    {
      "anonymous": false,
      "inputs": [
        {
          "indexed": false,
          "internalType": "bytes32",
          "name": "tradId",
          "type": "bytes32"
        }
      ],
      "name": "ReceivedFiat",
      "type": "event"
    },
    {
      "anonymous": false,
      "inputs": [
        {
          "indexed": false,
          "internalType": "bytes32",
          "name": "tradId",
          "type": "bytes32"
        }
      ],
      "name": "Resolved",
      "type": "event"
    },
    {
      "anonymous": false,
      "inputs": [
        {
          "indexed": false,
          "internalType": "bytes32",
          "name": "tradId",
          "type": "bytes32"
        }
      ],
      "name": "ResolvedFiat",
      "type": "event"
    },
    {
      "anonymous": false,
      "inputs": [
        {
          "indexed": true,
          "internalType": "bytes32",
          "name": "tradeId",
          "type": "bytes32"
        },
        {
          "indexed": true,
          "internalType": "string",
          "name": "trackingId",
          "type": "string"
        }
      ],
      "name": "Sent",
      "type": "event"
    },
    {
      "anonymous": false,
      "inputs": [
        {
          "indexed": true,
          "internalType": "bytes32",
          "name": "tradeId",
          "type": "bytes32"
        },
        {
          "indexed": true,
          "internalType": "address",
          "name": "seller",
          "type": "address"
        },
        {
          "indexed": true,
          "internalType": "address",
          "name": "buyer",
          "type": "address"
        },
        {
          "indexed": false,
          "internalType": "address",
          "name": "escrow",
          "type": "address"
        },
        {
          "indexed": false,
          "internalType": "address",
          "name": "collection",
          "type": "address"
        },
        {
          "indexed": false,
          "internalType": "bytes32",
          "name": "tokenId",
          "type": "bytes32"
        },
        {
          "indexed": false,
          "internalType": "uint256",
          "name": "price",
          "type": "uint256"
        },
        {
          "indexed": false,
          "internalType": "string",
          "name": "tradeUrl",
          "type": "string"
        }
      ],
      "name": "TradeInitiated",
      "type": "event"
    },
    {
      "inputs": [
        {
          "internalType": "address",
          "name": "LSP8Address",
          "type": "address"
        },
        {
          "internalType": "bytes32",
          "name": "tokenId",
          "type": "bytes32"
        }
      ],
      "name": "_returnLSP7Prices",
      "outputs": [
        {
          "internalType": "address[]",
          "name": "",
          "type": "address[]"
        },
        {
          "internalType": "uint256[]",
          "name": "",
          "type": "uint256[]"
        }
      ],
      "stateMutability": "view",
      "type": "function"
    },
    {
      "inputs": [
        {
          "internalType": "address",
          "name": "LSP8Address",
          "type": "address"
        },
        {
          "internalType": "bytes32",
          "name": "tokenId",
          "type": "bytes32"
        }
      ],
      "name": "_returnLYXPrice",
      "outputs": [
        {
          "internalType": "uint256",
          "name": "",
          "type": "uint256"
        }
      ],
      "stateMutability": "view",
      "type": "function"
    },
    {
      "inputs": [
        {
          "internalType": "address",
          "name": "_juror",
          "type": "address"
        }
      ],
      "name": "addJuror",
      "outputs": [],
      "stateMutability": "nonpayable",
      "type": "function"
    },
    {
      "inputs": [
        {
          "internalType": "address",
          "name": "LSP8Address",
          "type": "address"
        },
        {
          "internalType": "bytes32",
          "name": "tokenId",
          "type": "bytes32"
        },
        {
          "internalType": "address",
          "name": "LSP7Address",
          "type": "address"
        },
        {
          "internalType": "uint256",
          "name": "LSP7Amount",
          "type": "uint256"
        }
      ],
      "name": "addLSP7Price",
      "outputs": [],
      "stateMutability": "nonpayable",
      "type": "function"
    },
    {
      "inputs": [
        {
          "internalType": "address",
          "name": "LSP8Address",
          "type": "address"
        },
        {
          "internalType": "bytes32",
          "name": "tokenId",
          "type": "bytes32"
        },
        {
          "internalType": "address",
          "name": "buyer",
          "type": "address"
        },
        {
          "internalType": "string",
          "name": "tradeUrl",
          "type": "string"
        }
      ],
      "name": "buyDigitalLSP8WithFiat",
      "outputs": [],
      "stateMutability": "payable",
      "type": "function"
    },
    {
      "inputs": [
        {
          "internalType": "address",
          "name": "LSP8Address",
          "type": "address"
        },
        {
          "internalType": "bytes32",
          "name": "tokenId",
          "type": "bytes32"
        },
        {
          "internalType": "string",
          "name": "tradeUrl",
          "type": "string"
        }
      ],
      "name": "buyDigitalLSP8WithLYX",
      "outputs": [],
      "stateMutability": "payable",
      "type": "function"
    },
    {
      "inputs": [
        {
          "internalType": "address",
          "name": "LSP8Address",
          "type": "address"
        },
        {
          "internalType": "address",
          "name": "buyer",
          "type": "address"
        },
        {
          "internalType": "bytes32",
          "name": "tokenId",
          "type": "bytes32"
        },
        {
          "internalType": "string",
          "name": "tradeUrl",
          "type": "string"
        }
      ],
      "name": "buyLSP8WithFiat",
      "outputs": [],
      "stateMutability": "payable",
      "type": "function"
    },
    {
      "inputs": [
        {
          "internalType": "address",
          "name": "LSP8Address",
          "type": "address"
        },
        {
          "internalType": "bytes32",
          "name": "tokenId",
          "type": "bytes32"
        },
        {
          "internalType": "address",
          "name": "LSP7Address",
          "type": "address"
        }
      ],
      "name": "buyLSP8WithLSP7",
      "outputs": [],
      "stateMutability": "nonpayable",
      "type": "function"
    },
    {
      "inputs": [
        {
          "internalType": "address",
          "name": "LSP8Address",
          "type": "address"
        },
        {
          "internalType": "bytes32",
          "name": "tokenId",
          "type": "bytes32"
        },
        {
          "internalType": "string",
          "name": "tradeUrl",
          "type": "string"
        }
      ],
      "name": "buyLSP8WithLYX",
      "outputs": [],
      "stateMutability": "payable",
      "type": "function"
    },
    {
      "inputs": [
        {
          "internalType": "address",
          "name": "LSP8Address",
          "type": "address"
        },
        {
          "internalType": "bytes32",
          "name": "tokenId",
          "type": "bytes32"
        },
        {
          "internalType": "address",
          "name": "LSP7Address",
          "type": "address"
        },
        {
          "internalType": "uint256",
          "name": "LSP7Amount",
          "type": "uint256"
        }
      ],
      "name": "changeLSP7Price",
      "outputs": [],
      "stateMutability": "nonpayable",
      "type": "function"
    },
    {
      "inputs": [
        {
          "internalType": "address",
          "name": "LSP8Address",
          "type": "address"
        },
        {
          "internalType": "bytes32",
          "name": "tokenId",
          "type": "bytes32"
        },
        {
          "internalType": "uint256",
          "name": "LYXAmount",
          "type": "uint256"
        }
      ],
      "name": "changeLYXPrice",
      "outputs": [],
      "stateMutability": "nonpayable",
      "type": "function"
    },
    {
      "inputs": [
        {
          "internalType": "bytes32",
          "name": "tradeId",
          "type": "bytes32"
        }
      ],
      "name": "confirmDigitalReceived",
      "outputs": [],
      "stateMutability": "nonpayable",
      "type": "function"
    },
    {
      "inputs": [
        {
          "internalType": "bytes32",
          "name": "tradeId",
          "type": "bytes32"
        }
      ],
      "name": "confirmDigitalReceivedFiat",
      "outputs": [],
      "stateMutability": "nonpayable",
      "type": "function"
    },
    {
      "inputs": [
        {
          "internalType": "bytes32",
          "name": "tradeId",
          "type": "bytes32"
        },
        {
          "internalType": "string",
          "name": "uid",
          "type": "string"
        },
        {
          "internalType": "bytes",
          "name": "signature",
          "type": "bytes"
        }
      ],
      "name": "confirmReceived",
      "outputs": [],
      "stateMutability": "nonpayable",
      "type": "function"
    },
    {
      "inputs": [
        {
          "internalType": "bytes32",
          "name": "tradeId",
          "type": "bytes32"
        },
        {
          "internalType": "string",
          "name": "uid",
          "type": "string"
        },
        {
          "internalType": "bytes",
          "name": "signature",
          "type": "bytes"
        }
      ],
      "name": "confirmReceivedFiat",
      "outputs": [],
      "stateMutability": "nonpayable",
      "type": "function"
    },
    {
      "inputs": [
        {
          "internalType": "bytes32",
          "name": "tradeId",
          "type": "bytes32"
        },
        {
          "internalType": "string",
          "name": "trackingId",
          "type": "string"
        }
      ],
      "name": "confirmSent",
      "outputs": [],
      "stateMutability": "nonpayable",
      "type": "function"
    },
    {
      "inputs": [
        {
          "internalType": "bytes32",
          "name": "tradeId",
          "type": "bytes32"
        }
      ],
      "name": "dissolveTrade",
      "outputs": [],
      "stateMutability": "nonpayable",
      "type": "function"
    },
    {
      "inputs": [
        {
          "internalType": "bytes32",
          "name": "tradeId",
          "type": "bytes32"
        }
      ],
      "name": "dissolveTradeFiat",
      "outputs": [],
      "stateMutability": "nonpayable",
      "type": "function"
    },
    {
      "inputs": [
        {
          "internalType": "bytes32",
          "name": "tradeId",
          "type": "bytes32"
        },
        {
          "internalType": "string",
          "name": "reason",
          "type": "string"
        }
      ],
      "name": "openDispute",
      "outputs": [],
      "stateMutability": "nonpayable",
      "type": "function"
    },
    {
      "inputs": [
        {
          "internalType": "address",
          "name": "LSP8Address",
          "type": "address"
        },
        {
          "internalType": "bytes32",
          "name": "tokenId",
          "type": "bytes32"
        },
        {
          "internalType": "uint256",
          "name": "LYXAmount",
          "type": "uint256"
        },
        {
          "internalType": "string",
          "name": "listingURl",
          "type": "string"
        },
        {
          "internalType": "bool",
          "name": "_acceptFiat",
          "type": "bool"
        }
      ],
      "name": "putDigitalLSP8OnSale",
      "outputs": [],
      "stateMutability": "nonpayable",
      "type": "function"
    },
    {
      "inputs": [
        {
          "internalType": "address",
          "name": "LSP8Address",
          "type": "address"
        },
        {
          "internalType": "bytes32",
          "name": "tokenId",
          "type": "bytes32"
        },
        {
          "internalType": "uint256",
          "name": "LYXAmount",
          "type": "uint256"
        },
        {
          "internalType": "string",
          "name": "uid",
          "type": "string"
        },
        {
          "internalType": "bytes",
          "name": "signature",
          "type": "bytes"
        },
        {
          "internalType": "string",
          "name": "listingURl",
          "type": "string"
        },
        {
          "internalType": "bool",
          "name": "_acceptFiat",
          "type": "bool"
        }
      ],
      "name": "putLSP8OnSale",
      "outputs": [],
      "stateMutability": "nonpayable",
      "type": "function"
    },
    {
      "inputs": [
        {
          "internalType": "address",
          "name": "_juror",
          "type": "address"
        }
      ],
      "name": "removeJuror",
      "outputs": [],
      "stateMutability": "nonpayable",
      "type": "function"
    },
    {
      "inputs": [
        {
          "internalType": "address",
          "name": "LSP8Address",
          "type": "address"
        },
        {
          "internalType": "bytes32",
          "name": "tokenId",
          "type": "bytes32"
        }
      ],
      "name": "removeLSP8FromSale",
      "outputs": [],
      "stateMutability": "nonpayable",
      "type": "function"
    },
    {
      "inputs": [
        {
          "internalType": "bytes32",
          "name": "tradeId",
          "type": "bytes32"
        }
      ],
      "name": "resolveTrade",
      "outputs": [],
      "stateMutability": "nonpayable",
      "type": "function"
    },
    {
      "inputs": [
        {
          "internalType": "bytes32",
          "name": "tradeId",
          "type": "bytes32"
        }
      ],
      "name": "resolveTradeFiat",
      "outputs": [],
      "stateMutability": "nonpayable",
      "type": "function"
    }
  ],
  "bytecode": "0x6080346200009c57601f6200456b38819003918201601f19168301916001600160401b03831184841017620000a15780849260409485528339810103126200009c576200005a60206200005283620000b7565b9201620000b7565b6000600355600480546001600160a01b03199081166001600160a01b0393841617909155600580549091169190921617905560405161449e9081620000cd8239f35b600080fd5b634e487b7160e01b600052604160045260246000fd5b51906001600160a01b03821682036200009c5756fe60806040908082526004803610156200001757600080fd5b600092833560e01c9283630a84a4fd146200252d57508263109b0e95146200240757826317797da814620020d757826317d678361462001fc75782631fdba2da1462001d2e5782632787731e1462001b2657826331ea55961462001a0d57826336654f84146200192b578263372a387414620017be5782633bd320c714620016675782634349509214620016005782636b1c6fe1146200152357826373199de81462000ed457826377ab9cbb1462000d015782639752c6471462000c05578263ae86c6c11462000b02578263bd2954401462000abb578263be85078a146200099c578263cb552b461462000959578263cbbdc538146200084c578263cf7b7c421462000738578263dbb1b12714620005a0578263e568dd73146200041e579083918363e6fd738914620001a05750505063f6cd25f0146200015757600080fd5b346200019d5760203660031901126200019d57620001996200017862002634565b6001600160a01b0390620001928260055416331462002879565b1662002a14565b5080f35b80fd5b82935060806003193601126200041a57620001ba62002634565b602435620001c76200264b565b9160643567ffffffffffffffff81116200041657620001ea903690870162002724565b6001600160a01b03948583169687895260209060028252828a20868b5282526200021c6005848c200154341462002d59565b888a52898252620002496200024387858d2060019160005201602052604060002054151590565b62002d0d565b85835191630217b22760e41b835282015281816024818c5afa9081156200040c579088918b91620003d8575b501697895260028152818920858a5281528189206005015495808960035485519182918a8a8d89860197620002e995899492609c9694916bffffffffffffffffffffffff199384809260601b16885260601b166014870152602886015260601b166048840152605c830152607c8201520190565b03601f1981018252620002fd9082620026e4565b519020976200030d878762002f8f565b6200031987876200301c565b6200032787838c8962003086565b8351620003348162002662565b8a815281858186840195169d8e8652818401968188528d825260089052209151169273ffffffffffffffffffffffffffffffffffffffff199384835416178255826001830191511684825416179055600201925116908254161790556003546200039e9062002da5565b60035551938493620003b1938562002dcb565b037fa37041f9bb697f01c39b05d9808a05e59e4446ddd6b00ddb93bf502515380cb391a480f35b620003fd9150833d851162000404575b620003f48183620026e4565b81019062002c08565b8c62000275565b503d620003e8565b83513d8c823e3d90fd5b8680fd5b5050fd5b8390346200059c57806003193601126200059c5791906001600160a01b0390816200044862002634565b1681526020916002835284822090602491823584528452858320918383549660028501915b8881106200053a5750505050855194848682815201908193855285852090855b818110620005255750505085620004a6910386620026e4565b85519586958187019187525180915260608601929184905b82821062000507575050505083810383850152826060519182815201926080925b828110620004ef57505050500390f35b835185528695509381019392810192600101620004df565b835181168552889750938601939286019260019190910190620004be565b8254845292870192600192830192016200048d565b6200055f856200055083899b9a9c9d9962002913565b90549060031b1c168462002e37565b6060518210156200058a57906200057e9160808260051b015262002da5565b9897959694986200046d565b848a603285634e487b7160e01b835252fd5b5080fd5b90915034620007345760a03660031901126200073457620005c062002634565b91602435916044359360643567ffffffffffffffff81116200041657620005eb903690850162002724565b9160843591821515928381036200072f57886001600160a01b03968784169789865192630217b22760e41b84528301526020826024818c5afa9182156200072557620006f19795620006b5600096620006ad8f958f8f9c7f549017a7bd766b7b1fe1351de08bf426efe9d224831ad82206ab54edb873fcb09f9d9a819b6200068a620006dd9c620006a696869c859262000700575b5016331462002c29565b8152806020522060019160005201602052604060002054151590565b1562002c75565b838362002fd1565b6001600160a01b03166000526002602052604060002090600052602052600560406000200155565b805194859460608652606086019062002ce6565b9260208501528301520390a480f35b6200071d91925060203d81116200040457620003f48183620026e4565b903862000680565b86513d85823e3d90fd5b600080fd5b8280fd5b9150346200073457602090816003193601126200083e578383823592338352600785526200076b82842054151562002ebe565b83835260088552818320825190620007838262002662565b60026001600160a01b039182815416845282600182015416898501520154169283910152813b15620007345782918291875180948193631df7c51d60e11b83525af18015620008425762000826575b5050827f982bf5a7c13f6a3221eb651dceff4ed35dc4170500238cb81df4819563ea0905837feb2c8525f99d3bfc1e2285827071185c43ceec646ea36a1549e893e30a4411329551848152a151908152a180f35b620008319062002695565b6200083e578338620007d2565b8380fd5b85513d84823e3d90fd5b9091503462000734576020366003190112620007345782818335936001600160a01b03620008808160055416331462002879565b85845260086020528284209060028451926200089c8462002662565b8281541684528260018201541660208501520154169283910152813b15620007345782918291855180948193635c4b168160e11b83525af180156200094f5762000937575b507fa8aca61d4cf0c4563a5827579f48ccb52d9c08a1da9abbb95eb85ef7518f5efb602084847f383ab61835ef171bf38d73022941ddcab99ceb1f013160359750ac5f8f8e4f14838251848152a151908152a180f35b620009429062002695565b62000734578238620008e1565b83513d84823e3d90fd5b83346200019d5760203660031901126200019d57620001996200097b62002634565b6001600160a01b0390620009958260055416331462002879565b166200292c565b9150346200073457602090816003193601126200083e57838382359233835260078552620009cf82842054151562002ebe565b83835260088552818320825190620009e78262002662565b60026001600160a01b039182815416845282600182015416898501520154169283910152813b156200073457829182918751809481937fdc3c7cfd0000000000000000000000000000000000000000000000000000000083525af18015620008425762000aa3575b5050827fef627d0e66434f22f9f3c4ac2a0ef3ab44f42e720a9b663a1e38d990b943faee837f79678b3d85ae9bad5acc158cf7b7d56e8b4edee4a39eaa58ec9d5a95145c31af9551848152a151908152a180f35b62000aae9062002695565b6200083e57833862000a4f565b8390346200059c57806003193601126200059c576005816020936001600160a01b0362000ae762002634565b16815260028552818120602435825285522001549051908152f35b9091503462000734578262000b17366200282b565b90828496939652600860205262000b788585209286519262000b398462002662565b62000b6e6001600160a01b03958681541686528987600281600185015416938460208b01520154169601958652331462002ebe565b84865416620032a7565b511690813b156200073457829182918551809481937f86d1a69f0000000000000000000000000000000000000000000000000000000083525af180156200094f5762000bed575b507f383ab61835ef171bf38d73022941ddcab99ceb1f013160359750ac5f8f8e4f146020848451908152a180f35b62000bf89062002695565b6200073457823862000bbf565b9091503462000734578262000c1a366200282b565b9062000c7e6001600160a01b039693969262000c3c8460055416331462002879565b8786526008602052868620928785600282519662000c5a8862002662565b828154168852826001820154166020890152015416940193845284865416620032a7565b511690813b15620007345782918291855180948193635c4b168160e11b83525af180156200094f576200093757507fa8aca61d4cf0c4563a5827579f48ccb52d9c08a1da9abbb95eb85ef7518f5efb602084847f383ab61835ef171bf38d73022941ddcab99ceb1f013160359750ac5f8f8e4f14838251848152a151908152a180f35b8382346200059c5762000d1436620027f0565b936001600160a01b039391939081831690885191630217b22760e41b835285828401526020928381602481855afa90811562000eca579062000d63918b9162000ea8575b508516331462002c29565b80895288835262000d8a62000243878c8c2060019160005201602052604060002054151590565b80895260028352898920868a52835262000dba8a8a20948816809560019160005201602052604060002054151590565b62000e1a57976000819a62000e1095946002948c62000e179d86528683528386208b8752835262000dee8885882062002b0b565b5085528582528285208a86528252868386209552840190528b20550162002b0b565b5062002f06565b80f35b5060a49189519162461bcd60e51b8352820152604460248201527f546865726520616c7265616479206578697374732061206275796f757420707260448201527f69636520696e207468697320746f6b656e2e2054727920746f206368616e676560648201527f2069742e000000000000000000000000000000000000000000000000000000006084820152fd5b62000ec39150853d87116200040457620003f48183620026e4565b8c62000d58565b8b513d8c823e3d90fd5b83346200019d5760603660031901126200019d5762000ef262002634565b9260249384359162000f036200264b565b85517f70a08231000000000000000000000000000000000000000000000000000000008152338382015296906020906001600160a01b03808216838b8681845afa801562001519578a8a89819d9e8c9d9c9b9c94620014ca575b5062000f8192879287600293169c8d8252838b528282209082528a52200162002e37565b10156200146357868a52600284528a8a20898b5284528a8a206000918252600101602052604090205415620013fc5785895288835262000fd762000243898c8c2060019160005201602052604060002054151590565b895195630217b22760e41b8752888688015283878681845afa96871562000eca578b8a8a94938d93849b620013be575b50926028926200104b8293620010ec989796845260028b528284208185528b52620010388a60028587200162002e37565b9762001045828262002f8f565b6200301c565b80516200105881620026aa565b8281528151620010688162002662565b8581527f322c627974657329000000000000000000000000000000000000000000000000838c8301927f617574686f72697a654f70657261746f7228616464726573732c627974657333845201526001600160e01b0319958691201691519788918b8301938452308d84015288604484015260606064840152608483019062002ce6565b039662001102601f1998898101835282620026e4565b519082895af162001112620033d1565b8162001389575b50156200132157866200125b8d9694958f946200124e6337dc019b60e11b8a998f938d948c99620011cd87620011c08c8f7f5d4750030310507a00ed34b9c56808c5423b741a733df02978ef34f07a4b87d78151926bffffffffffffffffffffffff19803360601b16878601528960601b1660348501528a604885015260488452620011a584620026c7565b82519b8c968701528501526044840152606483019062002ce6565b03898101875286620026e4565b602c8c6b2c626f6f6c2c62797465732960a01b815191620011ee8362002662565b8383528a8301927f7472616e7366657228616464726573732c616464726573732c75696e743235368452015220169a5198899687019b8c523390870152166044850152606484015286608484015260a060a484015260c483019062002ce6565b03908101835282620026e4565b51925af162001269620033d1565b81620012ec575b501562001286578662000e178733878962003086565b875162461bcd60e51b8152928301526036908201527f5472616e7366657248656c7065723a3a736166655472616e736665724c53503760448201527f3a204c535037207472616e73666572206661696c6564000000000000000000006064820152608490fd5b8051801592508390831562001306575b5050508962001270565b620013189350820181019101620035e5565b898281620012fc565b608488602b8f898b91519362461bcd60e51b85528401528201527f5472616e7366657248656c7065723a3a73616665417070726f76653a2061707060448201527f726f7665206661696c65640000000000000000000000000000000000000000006064820152fd5b80518015925088908315620013a3575b5050508e62001119565b620013b59350820181019101620035e5565b8e878162001399565b8492620010ec979695929c506200104b90620013ec602896938c8d3d106200040457620003f48183620026e4565b9d93509395969750509262001007565b608485602286868e519362461bcd60e51b85528401528201527f53656c6c657220646f6573206e6f7420616363657074207468697320746f6b6560448201527f6e2e0000000000000000000000000000000000000000000000000000000000006064820152fd5b608486602987878f519362461bcd60e51b85528401528201527f53656e64657220646f65736e2774206861766520656e6f75676820746f6b656e60448201527f2062616c616e63652e00000000000000000000000000000000000000000000006064820152fd5b9495969798999a50505050508481813d831162001511575b620014ee8183620026e4565b810103126200150d575188969594939291908b8b8a62000f8162000f5d565b8980fd5b503d620014e2565b8a513d8b823e3d90fd5b9091503462000734578060031936011262000734576200154262002634565b916024356001600160a01b03918285169282855192630217b22760e41b8452830152602082602481875afa918215620015f65795620015b4620015e89385937fd4709ef4f6187863d85e1cfdd4716313b460856d39dc2390b183f15fc1fb2bd9998b9262000700575016331462002c29565b84885287602052620015dc6200024383888b2060019160005201602052604060002054151590565b62001045828262002f8f565b82519182526020820152a180f35b85513d89823e3d90fd5b909150346200073457602036600319011262000734578282359283825260086020528282208351620016328162002662565b62000b786001600160a01b03928381541683528684600281600185015416938460208801520154169301928352331462002ebe565b8382346200059c576200167a36620027f0565b936001600160a01b0393919380831690885191630217b22760e41b835285848401526020928381602481855afa90811562000eca576200171f939291620016ce918c916200179c575b508316331462002c29565b808a52898452620016f562000243888d8d2060019160005201602052604060002054151590565b895260028352898920868a5283528989209087169060019160005201602052604060002054151590565b156200173457505062000e1794955062002f06565b6084925087519162461bcd60e51b8352820152603760248201527f5468657265206973206e6f206275796f757420707269636520696e207468697360448201527f20746f6b656e2e2054727920746f20616464206f6e652e0000000000000000006064820152fd5b620017b79150863d88116200040457620003f48183620026e4565b8d620016c3565b90915034620007345760e03660031901126200073457620017de62002634565b9160243591604435936064359167ffffffffffffffff9283811162001927576200180c903690860162002724565b91608435848111620019235762001827903690870162002724565b9360a435908111620019235762001842903690870162002724565b9360c43590811515948583036200072f576001600160a01b03808516988c8a60208d60248b5180948193630217b22760e41b8352888301525afa908115620019195796620006ad8f95978f95978f997f549017a7bd766b7b1fe1351de08bf426efe9d224831ad82206ab54edb873fcb09f9d9a99620006f19f9d97620006a68a60019f8f9093620006dd9f6200068a620006b59d620018ee978491620018f6575b508916331462002c29565b5416620032a7565b62001912915060203d81116200040457620003f48183620026e4565b38620018e3565b89513d84823e3d90fd5b8880fd5b8780fd5b90915034620007345760203660031901126200073457828183359333835260076020526200195e82842054151562002ebe565b8483526008602052818320825190620019778262002662565b60026001600160a01b03918281541684528260018201541660208501520154169283910152813b15620007345782918291855180948193631df7c51d60e11b83525af180156200094f57620019f5575b507f982bf5a7c13f6a3221eb651dceff4ed35dc4170500238cb81df4819563ea09056020848451908152a180f35b62001a009062002695565b62000734578238620019c7565b91503462000734578262001a213662002771565b9290938483526008602052808320815162001a3c8162002662565b62001a7c6001600160a01b0392838154168084528585600281600186015416948560208901520154169401938452331490811562001b1b575b5062002ebe565b511691823b156200083e57839283918351809581937ff240f7c30000000000000000000000000000000000000000000000000000000083525af190811562001b12575062001afa575b505062001ad29062002ee4565b907fdd06a1bb006455f79813adec3a04ac5027b2dab7d17a0ed1bda15c837b81e3d78380a380f35b62001b059062002695565b6200073457823862001ac5565b513d84823e3d90fd5b905033143862001a75565b90915062001b3436620027a8565b90936001600160a01b03928381169485885260209260028452818920888a52845262001b686005838b200154341462002d59565b86895288845262001b8f6200024389848c2060019160005201602052604060002054151590565b87825191630217b22760e41b835282015283816024818a5afa90811562001d24579086918a9162001d02575b5016958852600283528088208789528352808820600501549260035482518089848201938c888a3362001c2d95899492609c9694916bffffffffffffffffffffffff199384809260601b16885260601b166014870152602886015260601b166048840152605c830152607c8201520190565b03601f198101825262001c419082620026e4565b5190209562001c51898562002f8f565b62001c5d89856200301c565b62001c6b89338a8762003086565b62001c778589620035ff565b82519062001c858262002662565b88825282820191338352848101938c8552898d526008905281858d209151169273ffffffffffffffffffffffffffffffffffffffff1993848354161782558260018301915116848254161790556002019251169082541617905560035462001ced9062002da5565b600355519283923397620003b1938562002dcb565b62001d1d9150853d87116200040457620003f48183620026e4565b3862001bbb565b82513d8b823e3d90fd5b915062001d3b36620027a8565b929193906001600160a01b038086169485885260209360028552808920848a52855262001d706005828b200154341462002d59565b86895288855262001d976200024385838c2060019160005201602052604060002054151590565b8051630217b22760e41b8152848782015285816024818b5afa90811562001fbd579084918b9162001f9b575b501696895260028552808920848a5285526005818a20015494878562001e4a8b62001e3b60035487519485938d8986019833908a9492609c9694916bffffffffffffffffffffffff199384809260601b16885260601b166014870152602886015260601b166048840152605c830152607c8201520190565b03601f198101835282620026e4565b51902096825190610dd38083019183831067ffffffffffffffff84111762001f8857509162001eb28982938f958f8f91908d916200369688396001600160a01b0390811684526020840191909152166040820152336060820152608081019190915260a00190565b039082f0801562001f7c5785169462001ecc878c62002f8f565b8a87878c62001edc83856200301c565b62001ee79362003086565b62001ef38887620035ff565b835162001f008162002662565b8a8152818585830194338652818401968a88528d825260089052209151169273ffffffffffffffffffffffffffffffffffffffff1993848354161782558260018301915116848254161790556002019251169082541617905560035462001f679062002da5565b600355519384933398620003b1948662002e00565b508251903d90823e3d90fd5b8d6041602492634e487b7160e01b835252fd5b62001fb69150873d89116200040457620003f48183620026e4565b3862001dc3565b82513d8c823e3d90fd5b91503462000734578262001fdb3662002771565b9290938483526008602052808320815162001ff68162002662565b6200202b6001600160a01b03928484600281845416938487528260018201541660208801520154169301928352331462002ebe565b5116803b156200083e57602092849183519485927f768896e500000000000000000000000000000000000000000000000000000000845283015281838162002077602482018b62002ce6565b03925af190811562001b125750620020bf575b5050620020979062002ee4565b907fd4f38c7bc9ecd1e2dc32b792412b891ef2d858ff73fa89dad9c1931171e6c1e08380a380f35b620020ca9062002695565b620007345782386200208a565b915060803660031901126200073457620020f062002634565b916024356001600160a01b0393848216948583036200072f57604435926064359467ffffffffffffffff958681116200150d5762002132903690890162002724565b928981861698898252620021a788856020946002865281812083825286526200216360058383200154341462002d59565b8d81528086526200218a620002438484842060019160005201602052604060002054151590565b8d8152600186522060019160005201602052604060002054151590565b15620023c657620021be8360055416331462002879565b8351630217b22760e41b815281810189905282816024818e5afa908d8215620023bb5790859262002399575b5016998c5260028252838c20888d5282526005848d200154948a89620022618a62001e3b6003548a519485938d898c8701998a9492609c9694916bffffffffffffffffffffffff199384809260601b16885260601b166014870152602886015260601b166048840152605c830152607c8201520190565b51902099855192610dd3908185019285841090841117620023865750878f9594938e8d8d8796620022c49662003696893991909360809396959460a08401976001600160a01b039384809316865260208601521660408401521660608201520152565b039083f080156200237c57928a81868c958f958c848f9d9c9b9a169c8d87620022ee838562002f8f565b620022f99362003086565b825194620023078662002662565b8552808501968752828501978c8952825260089052209151169273ffffffffffffffffffffffffffffffffffffffff19938483541617825582600183019151168482541617905560020192511690825416179055600354620023699062002da5565b60035551948594620003b1948662002e00565b84513d84823e3d90fd5b8f6041602492634e487b7160e01b835252fd5b620023b49150843d86116200040457620003f48183620026e4565b38620021ea565b8651903d90823e3d90fd5b60649184519162461bcd60e51b8352820152601b60248201527f53656c6c657220646f6573206e6f7420616363657074206669617400000000006044820152fd5b909150346200073457602036600319011262000734578282359233825260076020526200243983832054151562002ebe565b838252600860205282808320815190620024538262002662565b60026001600160a01b03918281541684528260018201541660208501520154169182910152803b15620007345782918451809481937f11da60b40000000000000000000000000000000000000000000000000000000083525af180156200252357620024e8575b507fef627d0e66434f22f9f3c4ac2a0ef3ab44f42e720a9b663a1e38d990b943faee9160209151908152a180f35b9160209193620025197fef627d0e66434f22f9f3c4ac2a0ef3ab44f42e720a9b663a1e38d990b943faee9462002695565b93915091620024ba565b82513d86823e3d90fd5b8492346200083e5760603660031901126200083e57836200254d62002634565b92602435926001600160a01b03918483871692630217b22760e41b83528201526020928382602481865afa9182156200262a576005949262000e17999492620025a192889262002606575016331462002c29565b808552848252620025c8620002438785882060019160005201602052604060002054151590565b845260028152818420908585525282200155604435916001600160a01b03166000526002602052604060002090600052602052600560406000200155565b62002622919250853d87116200040457620003f48183620026e4565b908c62000680565b88513d87823e3d90fd5b600435906001600160a01b03821682036200072f57565b604435906001600160a01b03821682036200072f57565b6060810190811067ffffffffffffffff8211176200267f57604052565b634e487b7160e01b600052604160045260246000fd5b67ffffffffffffffff81116200267f57604052565b6020810190811067ffffffffffffffff8211176200267f57604052565b6080810190811067ffffffffffffffff8211176200267f57604052565b90601f8019910116810190811067ffffffffffffffff8211176200267f57604052565b67ffffffffffffffff81116200267f57601f01601f191660200190565b81601f820112156200072f578035906200273e8262002707565b926200274e6040519485620026e4565b828452602083830101116200072f57816000926020809301838601378301015290565b9060406003198301126200072f57600435916024359067ffffffffffffffff82116200072f57620027a59160040162002724565b90565b60606003198201126200072f576004356001600160a01b03811681036200072f5791602435916044359067ffffffffffffffff82116200072f57620027a59160040162002724565b60809060031901126200072f576001600160a01b0360043581811681036200072f57916024359160443590811681036200072f579060643590565b60606003198201126200072f576004359167ffffffffffffffff6024358181116200072f57836200285f9160040162002724565b926044359182116200072f57620027a59160040162002724565b156200288157565b606460405162461bcd60e51b815260206004820152600d60248201527f4143434553532044454e494544000000000000000000000000000000000000006044820152fd5b600654811015620028fd5760066000527ff652222313e28459528d920b65115c16c04f3efc82aaedc97be59f3f377c0d3f0190600090565b634e487b7160e01b600052603260045260246000fd5b8054821015620028fd5760005260206000200190600090565b600081815260076020526040812054620029ae57600654680100000000000000008110156200299a579082620029866200296f84600160409601600655620028c5565b819391549060031b91821b91600019901b19161790565b905560065492815260076020522055600190565b602482634e487b7160e01b81526041600452fd5b905090565b600082815260018201602052604090205462002a0d57805490680100000000000000008210156200267f5782620029f66200296f84600180960185558462002913565b905580549260005201602052604060002055600190565b5050600090565b600081815260076020526040812054909190801562002b06576000199080820181811162002af2576006549083820191821162002ade5781810362002aa4575b505050600654801562002a905781019062002a6f82620028c5565b909182549160031b1b19169055600655815260076020526040812055600190565b602484634e487b7160e01b81526031600452fd5b62002ac762002ab76200296f93620028c5565b90549060031b1c928392620028c5565b905584526007602052604084205538808062002a54565b602486634e487b7160e01b81526011600452fd5b602485634e487b7160e01b81526011600452fd5b505090565b9060018201906000928184528260205260408420549081151560001462002c01576000199180830181811162002bed5782549084820191821162002bd95781810362002b9e575b5050508054801562002b8a5782019162002b6d838362002913565b909182549160031b1b191690555582526020526040812055600190565b602486634e487b7160e01b81526031600452fd5b62002bc362002bb26200296f938662002913565b90549060031b1c9283928662002913565b9055865284602052604086205538808062002b52565b602488634e487b7160e01b81526011600452fd5b602487634e487b7160e01b81526011600452fd5b5050505090565b908160209103126200072f57516001600160a01b03811681036200072f5790565b1562002c3157565b606460405162461bcd60e51b815260206004820152601d60248201527f53656e64657220646f65736e2774206f776e2074686973204c5350382e0000006044820152fd5b1562002c7d57565b606460405162461bcd60e51b815260206004820152601060248201527f4c535038206973206f6e2073616c652e000000000000000000000000000000006044820152fd5b60005b83811062002cd55750506000910152565b818101518382015260200162002cc4565b9060209162002d018151809281855285808601910162002cc1565b601f01601f1916010190565b1562002d1557565b606460405162461bcd60e51b815260206004820152601460248201527f4c535038206973206e6f74206f6e2073616c652e0000000000000000000000006044820152fd5b1562002d6157565b606460405162461bcd60e51b815260206004820152601a60248201527f596f75206469646e27742073656e6420656e6f756768204c59580000000000006044820152fd5b600019811462002db55760010190565b634e487b7160e01b600052601160045260246000fd5b909260a0926001600160a01b03620027a596956000855216602084015260408301526060820152816080820152019062002ce6565b9192620027a595949160a0946001600160a01b03809216855216602084015260408301526060820152816080820152019062002ce6565b906001600160a01b0316806000526002820160205260406000205491818315918262002e9a575b505062002e69575090565b602490604051907f02b566860000000000000000000000000000000000000000000000000000000082526004820152fd5b62002eb5925060019160005201602052604060002054151590565b15813862002e5e565b1562002ec657565b604460405162461bcd60e51b81526020600482015260006024820152fd5b62002efe9060206040519282848094519384920162002cc1565b810103902090565b9162002f549360406002936001600160a01b0390816000971687528560205282872090875260205281862093169462002f408685620029b3565b5085815260048401602052205501620029b3565b50565b8054906000908181558262002f6b57505050565b815260208120918201915b82811062002f8357505050565b81815560010162002f76565b6001600160a01b03166000526002602052604060002090600052602052600060056040822062002fbf8162002f57565b62002fcd6002820162002f57565b0155565b6001600160a01b03600191169283600052600060205262002ff7836040600020620029b3565b5015151462003004575050565b62002f549160005260016020526040600020620029b3565b6001600160a01b031690600091808352826020526200303f826040852062002b0b565b50808352600160205262003066826040852060019160005201602052604060002054151590565b6200307057505050565b8260409162002f54945260016020522062002b0b565b9290919260409283516bffffffffffffffffffffffff1995602096808460601b16888401528160601b166034830152604882016001905260488252620030cc82620026c7565b855180928882016337dc019b60e11b9052602482017f5d4750030310507a00ed34b9c56808c5423b741a733df02978ef34f07a4b87d7905287604483015260648201620031199162002ce6565b0391601f19928381018252620031309082620026e4565b86516200313d8162002662565b602c815287898201917f7472616e7366657228616464726573732c616464726573732c627974657333328352016b2c626f6f6c2c62797465732960a01b9052602c90206001600160e01b0319169587519485938a85019889526001600160a01b0380921660248601521660448401526064830152608482016000905260a4820160a0905260c48201620031d09162002ce6565b039081018252620031e29082620026e4565b515a9260008094938194f1620031f7620033d1565b8162003272575b501562003209575050565b60849250519062461bcd60e51b82526004820152603660248201527f5472616e7366657248656c7065723a3a736166655472616e736665724c53503860448201527f3a204c535038207472616e73666572206661696c6564000000000000000000006064820152fd5b805180159250849083156200328c575b50505038620031fe565b6200329e9350820181019101620035e5565b38838162003282565b60206001600160a01b03916004604051809481937f8da5cb5b000000000000000000000000000000000000000000000000000000008352165afa928315620033c557630b135d3f60e11b936001600160e01b0319936200336d93600092620033a0575b5060405162003363603c8260208101947f19457468657265756d205369676e6564204d6573736167653a0a323200000000865262003352815180926020868601910162002cc1565b810103601c810184520182620026e4565b5190209062003406565b16036200337657565b60046040517f5f0d7f86000000000000000000000000000000000000000000000000000000008152fd5b620033bd91925060203d81116200040457620003f48183620026e4565b90386200330a565b6040513d6000823e3d90fd5b3d1562003401573d90620033e58262002707565b91620033f56040519384620026e4565b82523d6000602084013e565b606090565b9091813b15620034a6576000918291604051620034498162001e3b6020820194630b135d3f60e11b998a8752602484015260406044840152606483019062002ce6565b51915afa62003457620033d1565b8162003499575b816200347c575b50156200346f5790565b506001600160e01b031990565b90506020818051810103126200072f576020015181143862003465565b805160201491506200345e565b620034b2919262003513565b506004819392931015620034fd57620034ef576001600160a01b03918216911603620034e357630b135d3f60e11b90565b6001600160e01b031990565b50506001600160e01b031990565b634e487b7160e01b600052602160045260246000fd5b815191906041830362003547576200354092506020820151906060604084015193015160001a9062003552565b9192909190565b505060009160029190565b91907f7fffffffffffffffffffffffffffffff5d576e7357a4501ddfe92f46681b20a08411620035d957926020929160ff608095604051948552168484015260408301526060820152600092839182805260015afa15620035cd5780516001600160a01b03811615620035c457918190565b50809160019190565b604051903d90823e3d90fd5b50505060009160039190565b908160209103126200072f575180151581036200072f5790565b60008080938193826040516200361581620026aa565b525af162003622620033d1565b50156200362b57565b608460405162461bcd60e51b815260206004820152603460248201527f5472616e7366657248656c7065723a3a736166655472616e736665724c59583a60448201527f204c5958207472616e73666572206661696c65640000000000000000000000006064820152fdfe6080346100d157601f610dd338819003918201601f19168301916001600160401b038311848410176100d65780849260a0946040528339810103126100d157610047816100ec565b9060208101519061005a604082016100ec565b906080610069606083016100ec565b91015192600160005560018060a01b039283918260018060a01b0319971687600254161760025560035516846004541617600455168260055416176005554260075560ff196009541660095560065533906001541617600155604051610cd290816101018239f35b600080fd5b634e487b7160e01b600052604160045260246000fd5b51906001600160a01b03821682036100d15756fe608060409080825260049081361015610020575b505050361561001e57005b005b600092833560e01c9182630ae57b1d1461073f5750816311da60b41461071857816312065fe0146106f95781633bef8a3a146106c05781636234216d14610680578163768896e51461040d578163772ebf28146103c457816383dc3b0f1461036057816386d1a69f1461026c57508063b8962d02146101e7578063dc3c7cfd146101a9578063ea8a1af0146101035763f240f7c3146100bf5780610013565b346100ff57816003193601126100ff576100e56001600160a01b03600154163314610891565b6100ed610915565b60ff1960095416176009556001815580f35b5080fd5b5090346101a657806003193601126101a6576001600160a01b0361012c81600154163314610891565b610134610915565b60ff6009541660068110156101935761017f92936101556101729215610990565b8280600254169154166003549061016a6108dc565b923090610a0b565b6005541660065490610bf6565b600360ff1960095416176009556001815580f35b602483602186634e487b7160e01b835252fd5b80fd5b82346101a657806003193601126101a6576101d06001600160a01b03600154163314610891565b6101d8610915565b6101e0610950565b6001815580f35b5090806003193601126101a65760ff6009541660068110156102595761020d9015610846565b6102456001600160a01b0361022781600154163314610891565b61022f610915565b806002541690600554166003549061016a6108dc565b600260ff1960095416176009556001815580f35b506021602492634e487b7160e01b835252fd5b8383816003193601126100ff5760ff60095416600681101561034d576102929015610846565b6001600160a01b03906102aa82600154163314610891565b6102b2610915565b81600554168032036102e457906102d983926102459460025416906003549061016a6108dc565b541660065490610bf6565b608482602087519162461bcd60e51b8352820152602e60248201527f4f6e6c7920746865206275796572206861732074686520726967687420746f2060448201527f66696e616c697a652074726164650000000000000000000000000000000000006064820152fd5b602483602184634e487b7160e01b835252fd5b8284346101a657806003193601126101a6576001600160a01b039161038a83600154163314610891565b610392610915565b60ff6009541692600684101561034d576103b061017f939415610990565b80600254169154166003549061016a6108dc565b5050346100ff57816003193601126100ff576103f9906001600160a01b036103f181600154163314610891565b6103b0610915565b600560ff1960095416176009556001815580f35b839150346100ff576020928360031936011261067c5780359367ffffffffffffffff918286116106785736602387011215610678578581013561044f8161082a565b9661045c86519889610808565b8188523660248383010111610674578187926024869301838b0137880101526001600160a01b0393600194610495818754163314610891565b61049d610915565b82541632036106335750855192831161062057600a54908482811c92168015610616575b838310146106035750601f811161059e575b5080601f831160011461051d5750839482939492610512575b5050600019600383901b1c191690821b17600a555b8060ff196009541617600955815580f35b0151905084806104ec565b600a8552601f198316957fc65a7bb8d6351c1cf70c95a316cc6a92839c986682d98bc35f958f4883f9d2a8929186905b888210610587575050838596971061056e575b505050811b01600a55610501565b015160001960f88460031b161c19169055848080610560565b80878596829496860151815501950193019061054d565b600a85527fc65a7bb8d6351c1cf70c95a316cc6a92839c986682d98bc35f958f4883f9d2a8601f840160051c8101918385106105f9575b601f0160051c019084905b8281106105ee5750506104d3565b8681550184906105e0565b90915081906105d5565b856022602492634e487b7160e01b835252fd5b91607f16916104c1565b846041602492634e487b7160e01b835252fd5b91606492519162461bcd60e51b8352820152601d60248201527f4f6e6c79207468652053656c6c657220686173207468652072696768740000006044820152fd5b8680fd5b8480fd5b8280fd5b839150346100ff57816003193601126100ff5760ff6009541690519160068210156106ad57602083838152f35b80602185634e487b7160e01b6024945252fd5b5050346100ff57816003193601126100ff576103f9906101726001600160a01b03916106f183600154163314610891565b610155610915565b8390346100ff57816003193601126100ff576020906006549051908152f35b83346101a657806003193601126101a6576101d06001600160a01b03600154163314610891565b8385913461067c578260031936011261067c578061075d85926107d6565b36903782519183830183811067ffffffffffffffff8211176107c35784526005546001600160a01b03908116845291548216602080850191909152845193909190845b600283106107ac578686f35b8380600192878551168152019201920191906107a0565b506041602492634e487b7160e01b835252fd5b6040810190811067ffffffffffffffff8211176107f257604052565b634e487b7160e01b600052604160045260246000fd5b90601f8019910116810190811067ffffffffffffffff8211176107f257604052565b67ffffffffffffffff81116107f257601f01601f191660200190565b1561084d57565b606460405162461bcd60e51b815260206004820152601c60248201527f457363726f77206974656d20686173206265656e20636c6f7365642e000000006044820152fd5b1561089857565b606460405162461bcd60e51b815260206004820152601660248201527f53656e646572204e6f74204d61726b6574706c616365000000000000000000006044820152fd5b604051906108e9826107d6565b600282527f30780000000000000000000000000000000000000000000000000000000000006020830152565b600260005414610926576002600055565b60046040517f3ee5aeb5000000000000000000000000000000000000000000000000000000008152fd5b6109816001600160a01b03610974816002541682600554166003549061016a6108dc565b6004541660065490610bf6565b600260ff196009541617600955565b1561099757565b606460405162461bcd60e51b815260206004820152601860248201527f4974656d20416c7265616479204d61726b65642053656e7400000000000000006044820152fd5b3d15610a06573d906109ec8261082a565b916109fa6040519384610808565b82523d6000602084013e565b606090565b9293919091604051946060860186811067ffffffffffffffff8211176107f257604052602c86527fffffffff00000000000000000000000000000000000000000000000000000000602c6020977f2c626f6f6c2c627974657329000000000000000000000000000000000000000060408a8301927f7472616e7366657228616464726573732c616464726573732c6279746573333284520152201693604051938785019586526001600160a01b03809216602486015216604484015260648301526001608483015260a060a48301528051908160c48401528560005b838110610be15750505091600082610b1e60e482878583819b999a829b010152601f801991011681010360c4810184520182610808565b51925af1610b2a6109db565b81610ba3575b5015610b395750565b6084906040519062461bcd60e51b82526004820152603660248201527f5472616e7366657248656c7065723a3a736166655472616e736665724c53503860448201527f3a204c535038207472616e73666572206661696c6564000000000000000000006064820152fd5b80915051828115918215610bbc575b5050905038610b30565b8380929350010312610bdc578101518015158103610bdc57808238610bb2565b600080fd5b81818401015160e48287010152018690610ae7565b604051602081019080821067ffffffffffffffff8311176107f2576000938493848094938194604052525af1610c2a6109db565b5015610c3257565b608460405162461bcd60e51b815260206004820152603460248201527f5472616e7366657248656c7065723a3a736166655472616e736665724c59583a60448201527f204c5958207472616e73666572206661696c65640000000000000000000000006064820152fdfea2646970667358221220bd4e6e5a48eb844ebc72093b06d5ab995a70221a865f947f32dfb6e3ece843cd64736f6c63430008140033a264697066735822122014c9c98a548b56e70240d9a4cf05faeaf62418c34f59a2bbdae356230837335c64736f6c63430008140033",
  "linkReferences": {},
  "deployedLinkReferences": {}
}