{
  "_format": "hh-sol-artifact-1",
  "contractName": "ERC725Y",
  "sourceName": "@erc725/smart-contracts/contracts/ERC725Y.sol",
  "abi": [
    {
      "inputs": [
        {
          "internalType": "address",
          "name": "initialOwner",
          "type": "address"
        }
      ],
      "stateMutability": "payable",
      "type": "constructor"
    },
    {
      "inputs": [],
      "name": "ERC725Y_DataKeysValuesEmptyArray",
      "type": "error"
    },
    {
      "inputs": [],
      "name": "ERC725Y_DataKeysValuesLengthMismatch",
      "type": "error"
    },
    {
      "inputs": [],
      "name": "ERC725Y_MsgValueDisallowed",
      "type": "error"
    },
    {
      "anonymous": false,
      "inputs": [
        {
          "indexed": true,
          "internalType": "bytes32",
          "name": "dataKey",
          "type": "bytes32"
        },
        {
          "indexed": false,
          "internalType": "bytes",
          "name": "dataValue",
          "type": "bytes"
        }
      ],
      "name": "DataChanged",
      "type": "event"
    },
    {
      "anonymous": false,
      "inputs": [
        {
          "indexed": true,
          "internalType": "address",
          "name": "previousOwner",
          "type": "address"
        },
        {
          "indexed": true,
          "internalType": "address",
          "name": "newOwner",
          "type": "address"
        }
      ],
      "name": "OwnershipTransferred",
      "type": "event"
    },
    {
      "inputs": [
        {
          "internalType": "bytes32",
          "name": "dataKey",
          "type": "bytes32"
        }
      ],
      "name": "getData",
      "outputs": [
        {
          "internalType": "bytes",
          "name": "dataValue",
          "type": "bytes"
        }
      ],
      "stateMutability": "view",
      "type": "function"
    },
    {
      "inputs": [
        {
          "internalType": "bytes32[]",
          "name": "dataKeys",
          "type": "bytes32[]"
        }
      ],
      "name": "getDataBatch",
      "outputs": [
        {
          "internalType": "bytes[]",
          "name": "dataValues",
          "type": "bytes[]"
        }
      ],
      "stateMutability": "view",
      "type": "function"
    },
    {
      "inputs": [],
      "name": "owner",
      "outputs": [
        {
          "internalType": "address",
          "name": "",
          "type": "address"
        }
      ],
      "stateMutability": "view",
      "type": "function"
    },
    {
      "inputs": [],
      "name": "renounceOwnership",
      "outputs": [],
      "stateMutability": "nonpayable",
      "type": "function"
    },
    {
      "inputs": [
        {
          "internalType": "bytes32",
          "name": "dataKey",
          "type": "bytes32"
        },
        {
          "internalType": "bytes",
          "name": "dataValue",
          "type": "bytes"
        }
      ],
      "name": "setData",
      "outputs": [],
      "stateMutability": "payable",
      "type": "function"
    },
    {
      "inputs": [
        {
          "internalType": "bytes32[]",
          "name": "dataKeys",
          "type": "bytes32[]"
        },
        {
          "internalType": "bytes[]",
          "name": "dataValues",
          "type": "bytes[]"
        }
      ],
      "name": "setDataBatch",
      "outputs": [],
      "stateMutability": "payable",
      "type": "function"
    },
    {
      "inputs": [
        {
          "internalType": "bytes4",
          "name": "interfaceId",
          "type": "bytes4"
        }
      ],
      "name": "supportsInterface",
      "outputs": [
        {
          "internalType": "bool",
          "name": "",
          "type": "bool"
        }
      ],
      "stateMutability": "view",
      "type": "function"
    },
    {
      "inputs": [
        {
          "internalType": "address",
          "name": "newOwner",
          "type": "address"
        }
      ],
      "name": "transferOwnership",
      "outputs": [],
      "stateMutability": "nonpayable",
      "type": "function"
    }
  ],
  "bytecode": "0x6080604052604051610c4f380380610c4f83398101604081905261002291610100565b6001600160a01b03811661008b5760405162461bcd60e51b815260206004820152602660248201527f4f776e61626c653a206e6577206f776e657220697320746865207a65726f206160448201526564647265737360d01b606482015260840160405180910390fd5b6100948161009a565b50610130565b6000546001600160a01b038281169116146100fd57600080546001600160a01b038381166001600160a01b0319831681178455604051919092169283917f8be0079c531659141344cd1fd0a4f28419497f9722a3daafe3b4186f6b6457e09190a3505b50565b60006020828403121561011257600080fd5b81516001600160a01b038116811461012957600080fd5b9392505050565b610b108061013f6000396000f3fe60806040526004361061006b5760003560e01c806301ffc9a71461007057806354f6127f146100a5578063715018a6146100d25780637f23690c146100e95780638da5cb5b146100fc5780639790242114610124578063dedff9c614610137578063f2fde38b14610164575b600080fd5b34801561007c57600080fd5b5061009061008b3660046105bc565b610184565b60405190151581526020015b60405180910390f35b3480156100b157600080fd5b506100c56100c03660046105ed565b6101bb565b60405161009c919061064c565b3480156100de57600080fd5b506100e76101c6565b005b6100e76100f7366004610714565b6101da565b34801561010857600080fd5b506000546040516001600160a01b03909116815260200161009c565b6100e76101323660046107e8565b61020f565b34801561014357600080fd5b506101576101523660046108bc565b6102cf565b60405161009c91906108f8565b34801561017057600080fd5b506100e761017f36600461095a565b610379565b60006001600160e01b031982166318a6a9a560e21b14806101b557506301ffc9a760e01b6001600160e01b03198316145b92915050565b60606101b5826103f7565b6101ce610499565b6101d86000610502565b565b6101e2610499565b34156102015760405163f36ba73760e01b815260040160405180910390fd5b61020b8282610567565b5050565b610217610499565b34156102365760405163f36ba73760e01b815260040160405180910390fd5b805182511461025857604051633bcc897960e01b815260040160405180910390fd5b815160000361027a576040516397da5f9560e01b815260040160405180910390fd5b60005b82518110156102ca576102c283828151811061029b5761029b610983565b60200260200101518383815181106102b5576102b5610983565b6020026020010151610567565b60010161027d565b505050565b606081516001600160401b038111156102ea576102ea61065f565b60405190808252806020026020018201604052801561031d57816020015b60608152602001906001900390816103085790505b50905060005b82518110156103735761034e83828151811061034157610341610983565b60200260200101516103f7565b82828151811061036057610360610983565b6020908102919091010152600101610323565b50919050565b610381610499565b6001600160a01b0381166103eb5760405162461bcd60e51b815260206004820152602660248201527f4f776e61626c653a206e6577206f776e657220697320746865207a65726f206160448201526564647265737360d01b60648201526084015b60405180910390fd5b6103f481610502565b50565b600081815260016020526040902080546060919061041490610999565b80601f016020809104026020016040519081016040528092919081815260200182805461044090610999565b801561048d5780601f106104625761010080835404028352916020019161048d565b820191906000526020600020905b81548152906001019060200180831161047057829003601f168201915b50505050509050919050565b336104ac6000546001600160a01b031690565b6001600160a01b0316146101d85760405162461bcd60e51b815260206004820181905260248201527f4f776e61626c653a2063616c6c6572206973206e6f7420746865206f776e657260448201526064016103e2565b6000546001600160a01b038281169116146103f457600080546001600160a01b038381166001600160a01b0319831681178455604051919092169283917f8be0079c531659141344cd1fd0a4f28419497f9722a3daafe3b4186f6b6457e09190a35050565b600082815260016020526040902061057f8282610a1b565b50817fece574603820d07bc9b91f2a932baadf4628aabcb8afba49776529c14a6104b2826040516105b0919061064c565b60405180910390a25050565b6000602082840312156105ce57600080fd5b81356001600160e01b0319811681146105e657600080fd5b9392505050565b6000602082840312156105ff57600080fd5b5035919050565b6000815180845260005b8181101561062c57602081850181015186830182015201610610565b506000602082860101526020601f19601f83011685010191505092915050565b6020815260006105e66020830184610606565b634e487b7160e01b600052604160045260246000fd5b604051601f8201601f191681016001600160401b038111828210171561069d5761069d61065f565b604052919050565b600082601f8301126106b657600080fd5b81356001600160401b038111156106cf576106cf61065f565b6106e2601f8201601f1916602001610675565b8181528460208386010111156106f757600080fd5b816020850160208301376000918101602001919091529392505050565b6000806040838503121561072757600080fd5b8235915060208301356001600160401b0381111561074457600080fd5b610750858286016106a5565b9150509250929050565b60006001600160401b038211156107735761077361065f565b5060051b60200190565b600082601f83011261078e57600080fd5b813560206107a361079e8361075a565b610675565b82815260059290921b840181019181810190868411156107c257600080fd5b8286015b848110156107dd57803583529183019183016107c6565b509695505050505050565b600080604083850312156107fb57600080fd5b82356001600160401b038082111561081257600080fd5b61081e8683870161077d565b935060209150818501358181111561083557600080fd5b8501601f8101871361084657600080fd5b803561085461079e8261075a565b81815260059190911b8201840190848101908983111561087357600080fd5b8584015b838110156108ab5780358681111561088f5760008081fd5b61089d8c89838901016106a5565b845250918601918601610877565b508096505050505050509250929050565b6000602082840312156108ce57600080fd5b81356001600160401b038111156108e457600080fd5b6108f08482850161077d565b949350505050565b6000602080830181845280855180835260408601915060408160051b870101925083870160005b8281101561094d57603f1988860301845261093b858351610606565b9450928501929085019060010161091f565b5092979650505050505050565b60006020828403121561096c57600080fd5b81356001600160a01b03811681146105e657600080fd5b634e487b7160e01b600052603260045260246000fd5b600181811c908216806109ad57607f821691505b60208210810361037357634e487b7160e01b600052602260045260246000fd5b601f8211156102ca57600081815260208120601f850160051c810160208610156109f45750805b601f850160051c820191505b81811015610a1357828155600101610a00565b505050505050565b81516001600160401b03811115610a3457610a3461065f565b610a4881610a428454610999565b846109cd565b602080601f831160018114610a7d5760008415610a655750858301515b600019600386901b1c1916600185901b178555610a13565b600085815260208120601f198616915b82811015610aac57888601518255948401946001909101908401610a8d565b5085821015610aca5787850151600019600388901b60f8161c191681555b5050505050600190811b0190555056fea26469706673582212207621a33bb2a35cf49e9cacc9e5f6fc59ed5adb67f158c28ca667dda278f4e41064736f6c63430008140033",
  "linkReferences": {},
  "deployedLinkReferences": {}
}